{
	"contracts/Factory.sol": {
		"Factory": {
			"abi": [
				{
					"inputs": [
						{
							"internalType": "address",
							"name": "contractOrigin",
							"type": "address"
						},
						{
							"internalType": "uint256",
							"name": "valueFee",
							"type": "uint256"
						}
					],
					"stateMutability": "nonpayable",
					"type": "constructor"
				},
				{
					"inputs": [
						{
							"internalType": "address",
							"name": "account",
							"type": "address"
						}
					],
					"name": "AddressInsufficientBalance",
					"type": "error"
				},
				{
					"inputs": [],
					"name": "FailedInnerCall",
					"type": "error"
				},
				{
					"anonymous": false,
					"inputs": [
						{
							"indexed": false,
							"internalType": "string",
							"name": "projectId",
							"type": "string"
						},
						{
							"indexed": false,
							"internalType": "address",
							"name": "contractBridge",
							"type": "address"
						},
						{
							"indexed": false,
							"internalType": "address",
							"name": "deployerAccount",
							"type": "address"
						},
						{
							"indexed": false,
							"internalType": "address",
							"name": "monitorAccount",
							"type": "address"
						},
						{
							"indexed": false,
							"internalType": "address",
							"name": "contractBridgeOrigin",
							"type": "address"
						},
						{
							"indexed": false,
							"internalType": "address",
							"name": "contractToken",
							"type": "address"
						},
						{
							"indexed": false,
							"internalType": "uint256",
							"name": "deployedFee",
							"type": "uint256"
						}
					],
					"name": "DeployedBridge",
					"type": "event"
				},
				{
					"anonymous": false,
					"inputs": [
						{
							"indexed": false,
							"internalType": "address",
							"name": "contractBridge",
							"type": "address"
						},
						{
							"indexed": false,
							"internalType": "uint256",
							"name": "amount",
							"type": "uint256"
						},
						{
							"indexed": false,
							"internalType": "string",
							"name": "toBlockchain",
							"type": "string"
						},
						{
							"indexed": false,
							"internalType": "string",
							"name": "toAddress",
							"type": "string"
						}
					],
					"name": "DepositToken",
					"type": "event"
				},
				{
					"anonymous": false,
					"inputs": [
						{
							"indexed": true,
							"internalType": "address",
							"name": "previousOwner",
							"type": "address"
						},
						{
							"indexed": true,
							"internalType": "address",
							"name": "newOwner",
							"type": "address"
						}
					],
					"name": "OwnershipTransferred",
					"type": "event"
				},
				{
					"inputs": [
						{
							"internalType": "address",
							"name": "",
							"type": "address"
						},
						{
							"internalType": "string",
							"name": "",
							"type": "string"
						}
					],
					"name": "checkUnique",
					"outputs": [
						{
							"internalType": "bool",
							"name": "",
							"type": "bool"
						}
					],
					"stateMutability": "view",
					"type": "function"
				},
				{
					"inputs": [],
					"name": "deployFee",
					"outputs": [
						{
							"internalType": "uint256",
							"name": "",
							"type": "uint256"
						}
					],
					"stateMutability": "view",
					"type": "function"
				},
				{
					"inputs": [
						{
							"internalType": "address",
							"name": "contractOrigin",
							"type": "address"
						},
						{
							"internalType": "address",
							"name": "token",
							"type": "address"
						},
						{
							"internalType": "address",
							"name": "monitorAccount",
							"type": "address"
						},
						{
							"internalType": "string",
							"name": "projectId",
							"type": "string"
						},
						{
							"internalType": "uint256",
							"name": "feeNative",
							"type": "uint256"
						},
						{
							"internalType": "uint256",
							"name": "feePercentBridge",
							"type": "uint256"
						}
					],
					"name": "deployedBridge",
					"outputs": [],
					"stateMutability": "payable",
					"type": "function"
				},
				{
					"inputs": [
						{
							"internalType": "address",
							"name": "",
							"type": "address"
						}
					],
					"name": "listBridge",
					"outputs": [
						{
							"internalType": "bool",
							"name": "",
							"type": "bool"
						}
					],
					"stateMutability": "view",
					"type": "function"
				},
				{
					"inputs": [],
					"name": "name",
					"outputs": [
						{
							"internalType": "string",
							"name": "",
							"type": "string"
						}
					],
					"stateMutability": "view",
					"type": "function"
				},
				{
					"inputs": [],
					"name": "owner",
					"outputs": [
						{
							"internalType": "address",
							"name": "",
							"type": "address"
						}
					],
					"stateMutability": "view",
					"type": "function"
				},
				{
					"inputs": [],
					"name": "projectWallet",
					"outputs": [
						{
							"internalType": "address",
							"name": "",
							"type": "address"
						}
					],
					"stateMutability": "view",
					"type": "function"
				},
				{
					"inputs": [],
					"name": "renounceOwnership",
					"outputs": [],
					"stateMutability": "nonpayable",
					"type": "function"
				},
				{
					"inputs": [
						{
							"internalType": "uint256",
							"name": "fee",
							"type": "uint256"
						}
					],
					"name": "setDeployFee",
					"outputs": [],
					"stateMutability": "nonpayable",
					"type": "function"
				},
				{
					"inputs": [
						{
							"internalType": "address",
							"name": "contractOrigin",
							"type": "address"
						},
						{
							"internalType": "bool",
							"name": "active",
							"type": "bool"
						}
					],
					"name": "setListBridge",
					"outputs": [],
					"stateMutability": "nonpayable",
					"type": "function"
				},
				{
					"inputs": [
						{
							"internalType": "address",
							"name": "newOwner",
							"type": "address"
						}
					],
					"name": "transferOwnership",
					"outputs": [],
					"stateMutability": "nonpayable",
					"type": "function"
				},
				{
					"stateMutability": "payable",
					"type": "receive"
				}
			],
			"devdoc": {
				"errors": {
					"AddressInsufficientBalance(address)": [
						{
							"details": "The ETH balance of the account is not enough to perform the operation."
						}
					],
					"FailedInnerCall()": [
						{
							"details": "A call to an address target failed. The target may have reverted."
						}
					]
				},
				"kind": "dev",
				"methods": {
					"owner()": {
						"details": "Returns the address of the current owner."
					},
					"renounceOwnership()": {
						"details": "Leaves the contract without owner. It will not be possible to call `onlyOwner` functions anymore. Can only be called by the current owner. NOTE: Renouncing ownership will leave the contract without an owner, thereby removing any functionality that is only available to the owner."
					},
					"transferOwnership(address)": {
						"details": "Transfers ownership of the contract to a new account (`newOwner`). Can only be called by the current owner."
					}
				},
				"version": 1
			},
			"evm": {
				"assembly": "    /* \"contracts/Factory.sol\":786:828  string private _name = \"Bridge Factory V1\" */\n  0xc0\n    /* \"contracts/Factory.sol\":291:2694  contract Factory is CloneFactory, ReentrancyGuard, Ownable {... */\n  0x40\n    /* \"contracts/Factory.sol\":786:828  string private _name = \"Bridge Factory V1\" */\n  mstore\n  0x11\n    /* \"contracts/Factory.sol\":291:2694  contract Factory is CloneFactory, ReentrancyGuard, Ownable {... */\n  0x80\n    /* \"contracts/Factory.sol\":786:828  string private _name = \"Bridge Factory V1\" */\n  swap1\n  dup2\n  mstore\n  mstore(0xa0, shl(0x78, 0x42726964676520466163746f7279205631))\n  0x02\n  swap1\n  tag_1\n  swap1\n  dup3\n  tag_2\n  jump\t// in\ntag_1:\n  pop\n    /* \"contracts/Factory.sol\":1189:1323  constructor(address contractOrigin, uint256 valueFee) {... */\n  callvalue\n  dup1\n  iszero\n  tag_3\n  jumpi\n  0x00\n  dup1\n  revert\ntag_3:\n  pop\n  mload(0x40)\n  sub(codesize, bytecodeSize)\n  dup1\n  bytecodeSize\n  dup4\n  codecopy\n  dup2\n  add\n  0x40\n  dup2\n  swap1\n  mstore\n  tag_4\n  swap2\n  tag_5\n  jump\t// in\ntag_4:\n    /* \"contracts/ReentrancyGuard.sol\":1637:1638  1 */\n  0x01\n    /* \"contracts/ReentrancyGuard.sol\":1742:1749  _status */\n  0x00\n    /* \"contracts/ReentrancyGuard.sol\":1742:1764  _status = _NOT_ENTERED */\n  sstore\n    /* \"contracts/Ownable.sol\":860:883  _setOwner(_msgSender()) */\n  tag_11\n    /* \"contracts/Context.sol\":734:744  msg.sender */\n  caller\n    /* \"contracts/Ownable.sol\":860:869  _setOwner */\n  tag_14\n    /* \"contracts/Ownable.sol\":860:883  _setOwner(_msgSender()) */\n  jump\t// in\ntag_11:\n  sub(shl(0xa0, 0x01), 0x01)\n    /* \"contracts/Factory.sol\":1253:1279  listBridge[contractOrigin] */\n  swap1\n  swap2\n  and\n  0x00\n  swap1\n  dup2\n  mstore\n    /* \"contracts/Factory.sol\":1253:1263  listBridge */\n  0x04\n    /* \"contracts/Factory.sol\":1253:1279  listBridge[contractOrigin] */\n  0x20\n  mstore\n  0x40\n  swap1\n  keccak256\n    /* \"contracts/Factory.sol\":1253:1286  listBridge[contractOrigin] = true */\n  dup1\n  sload\n  not(0xff)\n  and\n    /* \"contracts/Factory.sol\":1282:1286  true */\n  0x01\n    /* \"contracts/Factory.sol\":1253:1286  listBridge[contractOrigin] = true */\n  or\n  swap1\n  sstore\n    /* \"contracts/Factory.sol\":1296:1305  deployFee */\n  0x03\n    /* \"contracts/Factory.sol\":1296:1316  deployFee = valueFee */\n  sstore\n    /* \"contracts/Factory.sol\":291:2694  contract Factory is CloneFactory, ReentrancyGuard, Ownable {... */\n  jump(tag_24)\n    /* \"contracts/Ownable.sol\":2034:2203  function _setOwner(address newOwner) private {... */\ntag_14:\n    /* \"contracts/Ownable.sol\":2108:2114  _owner */\n  0x01\n  dup1\n  sload\n  sub(shl(0xa0, 0x01), 0x01)\n    /* \"contracts/Ownable.sol\":2124:2141  _owner = newOwner */\n  dup4\n  dup2\n  and\n  not(sub(shl(0xa0, 0x01), 0x01))\n  dup4\n  and\n  dup2\n  or\n  swap1\n  swap4\n  sstore\n    /* \"contracts/Ownable.sol\":2156:2196  OwnershipTransferred(oldOwner, newOwner) */\n  mload(0x40)\n    /* \"contracts/Ownable.sol\":2108:2114  _owner */\n  swap2\n  and\n  swap2\n    /* \"contracts/Ownable.sol\":2124:2141  _owner = newOwner */\n  swap1\n    /* \"contracts/Ownable.sol\":2108:2114  _owner */\n  dup3\n  swap1\n    /* \"contracts/Ownable.sol\":2156:2196  OwnershipTransferred(oldOwner, newOwner) */\n  0x8be0079c531659141344cd1fd0a4f28419497f9722a3daafe3b4186f6b6457e0\n  swap1\n    /* \"contracts/Ownable.sol\":2089:2105  address oldOwner */\n  0x00\n  swap1\n    /* \"contracts/Ownable.sol\":2156:2196  OwnershipTransferred(oldOwner, newOwner) */\n  log3\n    /* \"contracts/Ownable.sol\":2079:2203  {... */\n  pop\n    /* \"contracts/Ownable.sol\":2034:2203  function _setOwner(address newOwner) private {... */\n  pop\n  jump\t// out\n    /* \"#utility.yul\":14:141   */\ntag_19:\n    /* \"#utility.yul\":75:85   */\n  0x4e487b71\n    /* \"#utility.yul\":70:73   */\n  0xe0\n    /* \"#utility.yul\":66:86   */\n  shl\n    /* \"#utility.yul\":63:64   */\n  0x00\n    /* \"#utility.yul\":56:87   */\n  mstore\n    /* \"#utility.yul\":106:110   */\n  0x41\n    /* \"#utility.yul\":103:104   */\n  0x04\n    /* \"#utility.yul\":96:111   */\n  mstore\n    /* \"#utility.yul\":130:134   */\n  0x24\n    /* \"#utility.yul\":127:128   */\n  0x00\n    /* \"#utility.yul\":120:135   */\n  revert\n    /* \"#utility.yul\":146:526   */\ntag_20:\n    /* \"#utility.yul\":225:226   */\n  0x01\n    /* \"#utility.yul\":221:233   */\n  dup2\n  dup2\n  shr\n  swap1\n    /* \"#utility.yul\":268:280   */\n  dup3\n  and\n  dup1\n    /* \"#utility.yul\":289:350   */\n  tag_27\n  jumpi\n    /* \"#utility.yul\":343:347   */\n  0x7f\n    /* \"#utility.yul\":335:341   */\n  dup3\n    /* \"#utility.yul\":331:348   */\n  and\n    /* \"#utility.yul\":321:348   */\n  swap2\n  pop\n    /* \"#utility.yul\":289:350   */\ntag_27:\n    /* \"#utility.yul\":396:398   */\n  0x20\n    /* \"#utility.yul\":388:394   */\n  dup3\n    /* \"#utility.yul\":385:399   */\n  lt\n    /* \"#utility.yul\":365:383   */\n  dup2\n    /* \"#utility.yul\":362:400   */\n  sub\n    /* \"#utility.yul\":359:520   */\n  tag_28\n  jumpi\n    /* \"#utility.yul\":442:452   */\n  0x4e487b71\n    /* \"#utility.yul\":437:440   */\n  0xe0\n    /* \"#utility.yul\":433:453   */\n  shl\n    /* \"#utility.yul\":430:431   */\n  0x00\n    /* \"#utility.yul\":423:454   */\n  mstore\n    /* \"#utility.yul\":477:481   */\n  0x22\n    /* \"#utility.yul\":474:475   */\n  0x04\n    /* \"#utility.yul\":467:482   */\n  mstore\n    /* \"#utility.yul\":505:509   */\n  0x24\n    /* \"#utility.yul\":502:503   */\n  0x00\n    /* \"#utility.yul\":495:510   */\n  revert\n    /* \"#utility.yul\":359:520   */\ntag_28:\n  pop\n    /* \"#utility.yul\":146:526   */\n  swap2\n  swap1\n  pop\n  jump\t// out\n    /* \"#utility.yul\":657:1175   */\ntag_22:\n    /* \"#utility.yul\":759:761   */\n  0x1f\n    /* \"#utility.yul\":754:757   */\n  dup3\n    /* \"#utility.yul\":751:762   */\n  gt\n    /* \"#utility.yul\":748:1169   */\n  iszero\n  tag_31\n  jumpi\n    /* \"#utility.yul\":795:800   */\n  dup1\n    /* \"#utility.yul\":792:793   */\n  0x00\n    /* \"#utility.yul\":785:801   */\n  mstore\n    /* \"#utility.yul\":839:843   */\n  0x20\n    /* \"#utility.yul\":836:837   */\n  0x00\n    /* \"#utility.yul\":826:844   */\n  keccak256\n    /* \"#utility.yul\":909:911   */\n  0x1f\n    /* \"#utility.yul\":897:907   */\n  dup5\n    /* \"#utility.yul\":893:912   */\n  add\n    /* \"#utility.yul\":890:891   */\n  0x05\n    /* \"#utility.yul\":886:913   */\n  shr\n    /* \"#utility.yul\":880:884   */\n  dup2\n    /* \"#utility.yul\":876:914   */\n  add\n    /* \"#utility.yul\":945:949   */\n  0x20\n    /* \"#utility.yul\":933:943   */\n  dup6\n    /* \"#utility.yul\":930:950   */\n  lt\n    /* \"#utility.yul\":927:974   */\n  iszero\n  tag_32\n  jumpi\n  pop\n    /* \"#utility.yul\":968:972   */\n  dup1\n    /* \"#utility.yul\":927:974   */\ntag_32:\n    /* \"#utility.yul\":1023:1025   */\n  0x1f\n    /* \"#utility.yul\":1018:1021   */\n  dup5\n    /* \"#utility.yul\":1014:1026   */\n  add\n    /* \"#utility.yul\":1011:1012   */\n  0x05\n    /* \"#utility.yul\":1007:1027   */\n  shr\n    /* \"#utility.yul\":1001:1005   */\n  dup3\n    /* \"#utility.yul\":997:1028   */\n  add\n    /* \"#utility.yul\":987:1028   */\n  swap2\n  pop\n    /* \"#utility.yul\":1078:1159   */\ntag_33:\n    /* \"#utility.yul\":1096:1098   */\n  dup2\n    /* \"#utility.yul\":1089:1094   */\n  dup2\n    /* \"#utility.yul\":1086:1099   */\n  lt\n    /* \"#utility.yul\":1078:1159   */\n  iszero\n  tag_35\n  jumpi\n    /* \"#utility.yul\":1155:1156   */\n  0x00\n    /* \"#utility.yul\":1141:1157   */\n  dup2\n  sstore\n    /* \"#utility.yul\":1122:1123   */\n  0x01\n    /* \"#utility.yul\":1111:1124   */\n  add\n    /* \"#utility.yul\":1078:1159   */\n  jump(tag_33)\ntag_35:\n    /* \"#utility.yul\":1082:1085   */\n  pop\n  pop\n    /* \"#utility.yul\":748:1169   */\ntag_31:\n    /* \"#utility.yul\":657:1175   */\n  pop\n  pop\n  pop\n  jump\t// out\n    /* \"#utility.yul\":1351:2650   */\ntag_2:\n    /* \"#utility.yul\":1471:1481   */\n  dup2\n  mload\n  sub(shl(0x40, 0x01), 0x01)\n    /* \"#utility.yul\":1493:1523   */\n  dup2\n  gt\n    /* \"#utility.yul\":1490:1546   */\n  iszero\n  tag_39\n  jumpi\n    /* \"#utility.yul\":1526:1544   */\n  tag_39\n  tag_19\n  jump\t// in\ntag_39:\n    /* \"#utility.yul\":1555:1652   */\n  tag_40\n    /* \"#utility.yul\":1645:1651   */\n  dup2\n    /* \"#utility.yul\":1605:1643   */\n  tag_41\n    /* \"#utility.yul\":1637:1641   */\n  dup5\n    /* \"#utility.yul\":1631:1642   */\n  sload\n    /* \"#utility.yul\":1605:1643   */\n  tag_20\n  jump\t// in\ntag_41:\n    /* \"#utility.yul\":1599:1603   */\n  dup5\n    /* \"#utility.yul\":1555:1652   */\n  tag_22\n  jump\t// in\ntag_40:\n    /* \"#utility.yul\":1701:1705   */\n  0x20\n    /* \"#utility.yul\":1732:1734   */\n  0x1f\n    /* \"#utility.yul\":1721:1735   */\n  dup3\n  gt\n    /* \"#utility.yul\":1749:1750   */\n  0x01\n    /* \"#utility.yul\":1744:2393   */\n  dup2\n  eq\n  tag_43\n  jumpi\n    /* \"#utility.yul\":2437:2438   */\n  0x00\n    /* \"#utility.yul\":2454:2460   */\n  dup4\n    /* \"#utility.yul\":2451:2540   */\n  iszero\n  tag_44\n  jumpi\n  pop\n    /* \"#utility.yul\":2506:2525   */\n  dup5\n  dup3\n  add\n    /* \"#utility.yul\":2500:2526   */\n  mload\n    /* \"#utility.yul\":2451:2540   */\ntag_44:\n  not(0x00)\n    /* \"#utility.yul\":1308:1309   */\n  0x03\n    /* \"#utility.yul\":1304:1315   */\n  dup6\n  swap1\n  shl\n    /* \"#utility.yul\":1300:1324   */\n  shr\n    /* \"#utility.yul\":1296:1325   */\n  not\n    /* \"#utility.yul\":1286:1326   */\n  and\n    /* \"#utility.yul\":1332:1333   */\n  0x01\n    /* \"#utility.yul\":1328:1339   */\n  dup5\n  swap1\n  shl\n    /* \"#utility.yul\":1283:1340   */\n  or\n    /* \"#utility.yul\":2553:2634   */\n  dup5\n  sstore\n    /* \"#utility.yul\":1714:2644   */\n  jump(tag_35)\n    /* \"#utility.yul\":1744:2393   */\ntag_43:\n    /* \"#utility.yul\":604:605   */\n  0x00\n    /* \"#utility.yul\":597:611   */\n  dup5\n  dup2\n  mstore\n    /* \"#utility.yul\":641:645   */\n  0x20\n    /* \"#utility.yul\":628:646   */\n  dup2\n  keccak256\n  not(0x1f)\n    /* \"#utility.yul\":1780:1800   */\n  dup6\n  and\n  swap2\n    /* \"#utility.yul\":1898:2120   */\ntag_47:\n    /* \"#utility.yul\":1912:1919   */\n  dup3\n    /* \"#utility.yul\":1909:1910   */\n  dup2\n    /* \"#utility.yul\":1906:1920   */\n  lt\n    /* \"#utility.yul\":1898:2120   */\n  iszero\n  tag_49\n  jumpi\n    /* \"#utility.yul\":1994:2013   */\n  dup8\n  dup6\n  add\n    /* \"#utility.yul\":1988:2014   */\n  mload\n    /* \"#utility.yul\":1973:2015   */\n  dup3\n  sstore\n    /* \"#utility.yul\":2101:2105   */\n  0x20\n    /* \"#utility.yul\":2086:2106   */\n  swap5\n  dup6\n  add\n  swap5\n    /* \"#utility.yul\":2054:2055   */\n  0x01\n    /* \"#utility.yul\":2042:2056   */\n  swap1\n  swap3\n  add\n  swap2\n    /* \"#utility.yul\":1928:1940   */\n  add\n    /* \"#utility.yul\":1898:2120   */\n  jump(tag_47)\ntag_49:\n    /* \"#utility.yul\":1902:1905   */\n  pop\n    /* \"#utility.yul\":2148:2154   */\n  dup5\n    /* \"#utility.yul\":2139:2146   */\n  dup3\n    /* \"#utility.yul\":2136:2155   */\n  lt\n    /* \"#utility.yul\":2133:2334   */\n  iszero\n  tag_50\n  jumpi\n    /* \"#utility.yul\":2209:2228   */\n  dup7\n  dup5\n  add\n    /* \"#utility.yul\":2203:2229   */\n  mload\n  not(0x00)\n    /* \"#utility.yul\":2292:2293   */\n  0x03\n    /* \"#utility.yul\":2288:2302   */\n  dup8\n  swap1\n  shl\n    /* \"#utility.yul\":2304:2307   */\n  0xf8\n    /* \"#utility.yul\":2284:2308   */\n  and\n    /* \"#utility.yul\":2280:2317   */\n  shr\n    /* \"#utility.yul\":2276:2318   */\n  not\n    /* \"#utility.yul\":2261:2319   */\n  and\n    /* \"#utility.yul\":2246:2320   */\n  dup2\n  sstore\n    /* \"#utility.yul\":2133:2334   */\ntag_50:\n  pop\n  pop\n  pop\n  pop\n    /* \"#utility.yul\":2380:2381   */\n  0x01\n    /* \"#utility.yul\":2364:2378   */\n  swap1\n  dup2\n  shl\n    /* \"#utility.yul\":2360:2382   */\n  add\n    /* \"#utility.yul\":2347:2383   */\n  swap1\n  sstore\n  pop\n    /* \"#utility.yul\":1351:2650   */\n  jump\t// out\n    /* \"#utility.yul\":2655:3006   */\ntag_5:\n    /* \"#utility.yul\":2734:2740   */\n  0x00\n    /* \"#utility.yul\":2742:2748   */\n  dup1\n    /* \"#utility.yul\":2795:2797   */\n  0x40\n    /* \"#utility.yul\":2783:2792   */\n  dup4\n    /* \"#utility.yul\":2774:2781   */\n  dup6\n    /* \"#utility.yul\":2770:2793   */\n  sub\n    /* \"#utility.yul\":2766:2798   */\n  slt\n    /* \"#utility.yul\":2763:2815   */\n  iszero\n  tag_52\n  jumpi\n    /* \"#utility.yul\":2811:2812   */\n  0x00\n    /* \"#utility.yul\":2808:2809   */\n  dup1\n    /* \"#utility.yul\":2801:2813   */\n  revert\n    /* \"#utility.yul\":2763:2815   */\ntag_52:\n    /* \"#utility.yul\":2837:2853   */\n  dup3\n  mload\n  sub(shl(0xa0, 0x01), 0x01)\n    /* \"#utility.yul\":2882:2913   */\n  dup2\n  and\n    /* \"#utility.yul\":2872:2914   */\n  dup2\n  eq\n    /* \"#utility.yul\":2862:2932   */\n  tag_53\n  jumpi\n    /* \"#utility.yul\":2928:2929   */\n  0x00\n    /* \"#utility.yul\":2925:2926   */\n  dup1\n    /* \"#utility.yul\":2918:2930   */\n  revert\n    /* \"#utility.yul\":2862:2932   */\ntag_53:\n    /* \"#utility.yul\":2996:2998   */\n  0x20\n    /* \"#utility.yul\":2981:2999   */\n  swap4\n  swap1\n  swap4\n  add\n    /* \"#utility.yul\":2975:3000   */\n  mload\n    /* \"#utility.yul\":2951:2956   */\n  swap3\n  swap5\n    /* \"#utility.yul\":2975:3000   */\n  swap3\n  swap4\n  pop\n  pop\n  pop\n    /* \"#utility.yul\":2655:3006   */\n  jump\t// out\ntag_24:\n    /* \"contracts/Factory.sol\":291:2694  contract Factory is CloneFactory, ReentrancyGuard, Ownable {... */\n  dataSize(sub_0)\n  dup1\n  dataOffset(sub_0)\n  0x00\n  codecopy\n  0x00\n  return\nstop\n\nsub_0: assembly {\n        /* \"contracts/Factory.sol\":291:2694  contract Factory is CloneFactory, ReentrancyGuard, Ownable {... */\n      mstore(0x40, 0x80)\n      jumpi(tag_1, lt(calldatasize, 0x04))\n      shr(0xe0, calldataload(0x00))\n      dup1\n      0x9947ae66\n      gt\n      tag_14\n      jumpi\n      dup1\n      0x9947ae66\n      eq\n      tag_8\n      jumpi\n      dup1\n      0xa9e52987\n      eq\n      tag_9\n      jumpi\n      dup1\n      0xb9ee2dc1\n      eq\n      tag_10\n      jumpi\n      dup1\n      0xbeb08ab9\n      eq\n      tag_11\n      jumpi\n      dup1\n      0xeb2a5d2c\n      eq\n      tag_12\n      jumpi\n      dup1\n      0xf2fde38b\n      eq\n      tag_13\n      jumpi\n      0x00\n      dup1\n      revert\n    tag_14:\n      dup1\n      0x06fdde03\n      eq\n      tag_3\n      jumpi\n      dup1\n      0x4ee49df8\n      eq\n      tag_4\n      jumpi\n      dup1\n      0x715018a6\n      eq\n      tag_5\n      jumpi\n      dup1\n      0x872286d9\n      eq\n      tag_6\n      jumpi\n      dup1\n      0x8da5cb5b\n      eq\n      tag_7\n      jumpi\n      0x00\n      dup1\n      revert\n    tag_1:\n      jumpi(tag_2, calldatasize)\n      stop\n    tag_2:\n      0x00\n      dup1\n      revert\n        /* \"contracts/Factory.sol\":1102:1183  function name() public view returns (string memory) {... */\n    tag_3:\n      callvalue\n      dup1\n      iszero\n      tag_17\n      jumpi\n      0x00\n      dup1\n      revert\n    tag_17:\n      pop\n      tag_18\n      tag_19\n      jump\t// in\n    tag_18:\n      mload(0x40)\n      tag_20\n      swap2\n      swap1\n      tag_21\n      jump\t// in\n    tag_20:\n      mload(0x40)\n      dup1\n      swap2\n      sub\n      swap1\n      return\n        /* \"contracts/Factory.sol\":2418:2567  function setListBridge(address contractOrigin, bool active)... */\n    tag_4:\n      callvalue\n      dup1\n      iszero\n      tag_22\n      jumpi\n      0x00\n      dup1\n      revert\n    tag_22:\n      pop\n      tag_23\n      tag_24\n      calldatasize\n      0x04\n      tag_25\n      jump\t// in\n    tag_24:\n      tag_26\n      jump\t// in\n    tag_23:\n      stop\n        /* \"contracts/Ownable.sol\":1598:1690  function renounceOwnership() public virtual onlyOwner {... */\n    tag_5:\n      callvalue\n      dup1\n      iszero\n      tag_27\n      jumpi\n      0x00\n      dup1\n      revert\n    tag_27:\n      pop\n      tag_23\n      tag_29\n      jump\t// in\n        /* \"contracts/Factory.sol\":1032:1095  mapping(address => mapping (string => bool)) public checkUnique */\n    tag_6:\n      callvalue\n      dup1\n      iszero\n      tag_30\n      jumpi\n      0x00\n      dup1\n      revert\n    tag_30:\n      pop\n      tag_31\n      tag_32\n      calldatasize\n      0x04\n      tag_33\n      jump\t// in\n    tag_32:\n      0x05\n      0x20\n      swap1\n      dup2\n      mstore\n      0x00\n      swap3\n      dup4\n      mstore\n      0x40\n      swap1\n      swap3\n      keccak256\n      dup2\n      mload\n      dup1\n      dup4\n      add\n      dup5\n      add\n      dup1\n      mload\n      swap3\n      dup2\n      mstore\n      swap1\n      dup5\n      add\n      swap3\n      swap1\n      swap4\n      add\n      swap2\n      swap1\n      swap2\n      keccak256\n      swap2\n      mstore\n      sload\n      0xff\n      and\n      dup2\n      jump\n    tag_31:\n      mload(0x40)\n        /* \"#utility.yul\":2397:2411   */\n      swap1\n      iszero\n        /* \"#utility.yul\":2390:2412   */\n      iszero\n        /* \"#utility.yul\":2372:2413   */\n      dup2\n      mstore\n        /* \"#utility.yul\":2360:2362   */\n      0x20\n        /* \"#utility.yul\":2345:2363   */\n      add\n        /* \"contracts/Factory.sol\":1032:1095  mapping(address => mapping (string => bool)) public checkUnique */\n      tag_20\n        /* \"#utility.yul\":2232:2419   */\n      jump\n        /* \"contracts/Ownable.sol\":966:1051  function owner() public view virtual returns (address) {... */\n    tag_7:\n      callvalue\n      dup1\n      iszero\n      tag_37\n      jumpi\n      0x00\n      dup1\n      revert\n    tag_37:\n      pop\n        /* \"contracts/Ownable.sol\":1038:1044  _owner */\n      and(sub(shl(0xa0, 0x01), 0x01), sload(0x01))\n        /* \"contracts/Ownable.sol\":966:1051  function owner() public view virtual returns (address) {... */\n    tag_38:\n      mload(0x40)\n      sub(shl(0xa0, 0x01), 0x01)\n        /* \"#utility.yul\":2588:2620   */\n      swap1\n      swap2\n      and\n        /* \"#utility.yul\":2570:2621   */\n      dup2\n      mstore\n        /* \"#utility.yul\":2558:2560   */\n      0x20\n        /* \"#utility.yul\":2543:2561   */\n      add\n        /* \"contracts/Ownable.sol\":966:1051  function owner() public view virtual returns (address) {... */\n      tag_20\n        /* \"#utility.yul\":2424:2627   */\n      jump\n        /* \"contracts/Factory.sol\":984:1026  mapping(address => bool) public listBridge */\n    tag_8:\n      callvalue\n      dup1\n      iszero\n      tag_42\n      jumpi\n      0x00\n      dup1\n      revert\n    tag_42:\n      pop\n      tag_31\n      tag_44\n      calldatasize\n      0x04\n      tag_45\n      jump\t// in\n    tag_44:\n      mstore(0x20, 0x04)\n      0x00\n      swap1\n      dup2\n      mstore\n      0x40\n      swap1\n      keccak256\n      sload\n      0xff\n      and\n      dup2\n      jump\n        /* \"contracts/Factory.sol\":2573:2657  function setDeployFee(uint256 fee) public onlyOwner {... */\n    tag_9:\n      callvalue\n      dup1\n      iszero\n      tag_48\n      jumpi\n      0x00\n      dup1\n      revert\n    tag_48:\n      pop\n      tag_23\n      tag_50\n      calldatasize\n      0x04\n      tag_51\n      jump\t// in\n    tag_50:\n      tag_52\n      jump\t// in\n        /* \"contracts/Factory.sol\":1329:2412  function deployedBridge(... */\n    tag_10:\n      tag_23\n      tag_54\n      calldatasize\n      0x04\n      tag_55\n      jump\t// in\n    tag_54:\n      tag_56\n      jump\t// in\n        /* \"contracts/Factory.sol\":834:925  address public constant projectWallet = payable(0xE11fce0B4b2AB0635Ae6d0cbB0b62e33F4a80924) */\n    tag_11:\n      callvalue\n      dup1\n      iszero\n      tag_57\n      jumpi\n      0x00\n      dup1\n      revert\n    tag_57:\n      pop\n      tag_38\n        /* \"contracts/Factory.sol\":882:924  0xE11fce0B4b2AB0635Ae6d0cbB0b62e33F4a80924 */\n      0xe11fce0b4b2ab0635ae6d0cbb0b62e33f4a80924\n        /* \"contracts/Factory.sol\":834:925  address public constant projectWallet = payable(0xE11fce0B4b2AB0635Ae6d0cbB0b62e33F4a80924) */\n      dup2\n      jump\n        /* \"contracts/Factory.sol\":954:978  uint256 public deployFee */\n    tag_12:\n      callvalue\n      dup1\n      iszero\n      tag_61\n      jumpi\n      0x00\n      dup1\n      revert\n    tag_61:\n      pop\n      tag_62\n      sload(0x03)\n      dup2\n      jump\n    tag_62:\n      mload(0x40)\n        /* \"#utility.yul\":4251:4276   */\n      swap1\n      dup2\n      mstore\n        /* \"#utility.yul\":4239:4241   */\n      0x20\n        /* \"#utility.yul\":4224:4242   */\n      add\n        /* \"contracts/Factory.sol\":954:978  uint256 public deployFee */\n      tag_20\n        /* \"#utility.yul\":4105:4282   */\n      jump\n        /* \"contracts/Ownable.sol\":1839:2028  function transferOwnership(address newOwner) public virtual onlyOwner {... */\n    tag_13:\n      callvalue\n      dup1\n      iszero\n      tag_66\n      jumpi\n      0x00\n      dup1\n      revert\n    tag_66:\n      pop\n      tag_23\n      tag_68\n      calldatasize\n      0x04\n      tag_45\n      jump\t// in\n    tag_68:\n      tag_69\n      jump\t// in\n        /* \"contracts/Factory.sol\":1102:1183  function name() public view returns (string memory) {... */\n    tag_19:\n        /* \"contracts/Factory.sol\":1139:1152  string memory */\n      0x60\n        /* \"contracts/Factory.sol\":1171:1176  _name */\n      0x02\n        /* \"contracts/Factory.sol\":1164:1176  return _name */\n      dup1\n      sload\n      tag_71\n      swap1\n      tag_72\n      jump\t// in\n    tag_71:\n      dup1\n      0x1f\n      add\n      0x20\n      dup1\n      swap2\n      div\n      mul\n      0x20\n      add\n      mload(0x40)\n      swap1\n      dup2\n      add\n      0x40\n      mstore\n      dup1\n      swap3\n      swap2\n      swap1\n      dup2\n      dup2\n      mstore\n      0x20\n      add\n      dup3\n      dup1\n      sload\n      tag_73\n      swap1\n      tag_72\n      jump\t// in\n    tag_73:\n      dup1\n      iszero\n      tag_74\n      jumpi\n      dup1\n      0x1f\n      lt\n      tag_75\n      jumpi\n      0x0100\n      dup1\n      dup4\n      sload\n      div\n      mul\n      dup4\n      mstore\n      swap2\n      0x20\n      add\n      swap2\n      jump(tag_74)\n    tag_75:\n      dup3\n      add\n      swap2\n      swap1\n      0x00\n      mstore\n      keccak256(0x00, 0x20)\n      swap1\n    tag_76:\n      dup2\n      sload\n      dup2\n      mstore\n      swap1\n      0x01\n      add\n      swap1\n      0x20\n      add\n      dup1\n      dup4\n      gt\n      tag_76\n      jumpi\n      dup3\n      swap1\n      sub\n      0x1f\n      and\n      dup3\n      add\n      swap2\n    tag_74:\n      pop\n      pop\n      pop\n      pop\n      pop\n      swap1\n      pop\n        /* \"contracts/Factory.sol\":1102:1183  function name() public view returns (string memory) {... */\n      swap1\n      jump\t// out\n        /* \"contracts/Factory.sol\":2418:2567  function setListBridge(address contractOrigin, bool active)... */\n    tag_26:\n        /* \"contracts/Ownable.sol\":1038:1044  _owner */\n      and(sub(shl(0xa0, 0x01), 0x01), sload(0x01))\n        /* \"contracts/Context.sol\":734:744  msg.sender */\n      caller\n        /* \"contracts/Ownable.sol\":1178:1201  owner() == _msgSender() */\n      eq\n        /* \"contracts/Ownable.sol\":1170:1238  require(owner() == _msgSender(), \"Ownable: caller is not the owner\") */\n      tag_81\n      jumpi\n      mload(0x40)\n      shl(0xe5, 0x461bcd)\n      dup2\n      mstore\n      0x04\n      add\n      tag_82\n      swap1\n      tag_83\n      jump\t// in\n    tag_82:\n      mload(0x40)\n      dup1\n      swap2\n      sub\n      swap1\n      revert\n    tag_81:\n      sub(shl(0xa0, 0x01), 0x01)\n        /* \"contracts/Factory.sol\":2525:2551  listBridge[contractOrigin] */\n      swap2\n      swap1\n      swap2\n      and\n      0x00\n      swap1\n      dup2\n      mstore\n        /* \"contracts/Factory.sol\":2525:2535  listBridge */\n      0x04\n        /* \"contracts/Factory.sol\":2525:2551  listBridge[contractOrigin] */\n      0x20\n      mstore\n      0x40\n      swap1\n      keccak256\n        /* \"contracts/Factory.sol\":2525:2560  listBridge[contractOrigin] = active */\n      dup1\n      sload\n      not(0xff)\n      and\n      swap2\n      iszero\n      iszero\n      swap2\n      swap1\n      swap2\n      or\n      swap1\n      sstore\n        /* \"contracts/Factory.sol\":2418:2567  function setListBridge(address contractOrigin, bool active)... */\n      jump\t// out\n        /* \"contracts/Ownable.sol\":1598:1690  function renounceOwnership() public virtual onlyOwner {... */\n    tag_29:\n        /* \"contracts/Ownable.sol\":1038:1044  _owner */\n      and(sub(shl(0xa0, 0x01), 0x01), sload(0x01))\n        /* \"contracts/Context.sol\":734:744  msg.sender */\n      caller\n        /* \"contracts/Ownable.sol\":1178:1201  owner() == _msgSender() */\n      eq\n        /* \"contracts/Ownable.sol\":1170:1238  require(owner() == _msgSender(), \"Ownable: caller is not the owner\") */\n      tag_88\n      jumpi\n      mload(0x40)\n      shl(0xe5, 0x461bcd)\n      dup2\n      mstore\n      0x04\n      add\n      tag_82\n      swap1\n      tag_83\n      jump\t// in\n    tag_88:\n        /* \"contracts/Ownable.sol\":1662:1683  _setOwner(address(0)) */\n      tag_91\n        /* \"contracts/Ownable.sol\":1680:1681  0 */\n      0x00\n        /* \"contracts/Ownable.sol\":1662:1671  _setOwner */\n      tag_92\n        /* \"contracts/Ownable.sol\":1662:1683  _setOwner(address(0)) */\n      jump\t// in\n    tag_91:\n        /* \"contracts/Ownable.sol\":1598:1690  function renounceOwnership() public virtual onlyOwner {... */\n      jump\t// out\n        /* \"contracts/Factory.sol\":2573:2657  function setDeployFee(uint256 fee) public onlyOwner {... */\n    tag_52:\n        /* \"contracts/Ownable.sol\":1038:1044  _owner */\n      and(sub(shl(0xa0, 0x01), 0x01), sload(0x01))\n        /* \"contracts/Context.sol\":734:744  msg.sender */\n      caller\n        /* \"contracts/Ownable.sol\":1178:1201  owner() == _msgSender() */\n      eq\n        /* \"contracts/Ownable.sol\":1170:1238  require(owner() == _msgSender(), \"Ownable: caller is not the owner\") */\n      tag_97\n      jumpi\n      mload(0x40)\n      shl(0xe5, 0x461bcd)\n      dup2\n      mstore\n      0x04\n      add\n      tag_82\n      swap1\n      tag_83\n      jump\t// in\n    tag_97:\n        /* \"contracts/Factory.sol\":2635:2644  deployFee */\n      0x03\n        /* \"contracts/Factory.sol\":2635:2650  deployFee = fee */\n      sstore\n        /* \"contracts/Factory.sol\":2573:2657  function setDeployFee(uint256 fee) public onlyOwner {... */\n      jump\t// out\n        /* \"contracts/Factory.sol\":1329:2412  function deployedBridge(... */\n    tag_56:\n      sub(shl(0xa0, 0x01), 0x01)\n        /* \"contracts/Factory.sol\":1588:1614  listBridge[contractOrigin] */\n      dup8\n      and\n      0x00\n      swap1\n      dup2\n      mstore\n        /* \"contracts/Factory.sol\":1588:1598  listBridge */\n      0x04\n        /* \"contracts/Factory.sol\":1588:1614  listBridge[contractOrigin] */\n      0x20\n      mstore\n      0x40\n      swap1\n      keccak256\n      sload\n      0xff\n      and\n        /* \"contracts/Factory.sol\":1588:1622  listBridge[contractOrigin] == true */\n      iszero\n      iszero\n        /* \"contracts/Factory.sol\":1588:1614  listBridge[contractOrigin] */\n      0x01\n        /* \"contracts/Factory.sol\":1588:1622  listBridge[contractOrigin] == true */\n      eq\n        /* \"contracts/Factory.sol\":1567:1674  require(... */\n      tag_101\n      jumpi\n      mload(0x40)\n      shl(0xe5, 0x461bcd)\n      dup2\n      mstore\n        /* \"#utility.yul\":5235:5237   */\n      0x20\n        /* \"contracts/Factory.sol\":1567:1674  require(... */\n      0x04\n      dup3\n      add\n        /* \"#utility.yul\":5217:5238   */\n      mstore\n        /* \"#utility.yul\":5274:5276   */\n      0x1a\n        /* \"#utility.yul\":5254:5272   */\n      0x24\n      dup3\n      add\n        /* \"#utility.yul\":5247:5277   */\n      mstore\n        /* \"#utility.yul\":5313:5341   */\n      0x436f6e747261637420627269646765206e6f7420666f756e642e000000000000\n        /* \"#utility.yul\":5293:5311   */\n      0x44\n      dup3\n      add\n        /* \"#utility.yul\":5286:5342   */\n      mstore\n        /* \"#utility.yul\":5359:5377   */\n      0x64\n      add\n        /* \"contracts/Factory.sol\":1567:1674  require(... */\n      tag_82\n        /* \"#utility.yul\":5033:5383   */\n      jump\n        /* \"contracts/Factory.sol\":1567:1674  require(... */\n    tag_101:\n        /* \"contracts/Factory.sol\":1705:1714  deployFee */\n      sload(0x03)\n        /* \"contracts/Factory.sol\":1692:1701  msg.value */\n      callvalue\n        /* \"contracts/Factory.sol\":1692:1714  msg.value >= deployFee */\n      lt\n      iszero\n        /* \"contracts/Factory.sol\":1684:1733  require(msg.value >= deployFee, \"Invalid amount\") */\n      tag_104\n      jumpi\n      mload(0x40)\n      shl(0xe5, 0x461bcd)\n      dup2\n      mstore\n        /* \"#utility.yul\":5590:5592   */\n      0x20\n        /* \"contracts/Factory.sol\":1684:1733  require(msg.value >= deployFee, \"Invalid amount\") */\n      0x04\n      dup3\n      add\n        /* \"#utility.yul\":5572:5593   */\n      mstore\n        /* \"#utility.yul\":5629:5631   */\n      0x0e\n        /* \"#utility.yul\":5609:5627   */\n      0x24\n      dup3\n      add\n        /* \"#utility.yul\":5602:5632   */\n      mstore\n      shl(0x92, 0x125b9d985b1a5908185b5bdd5b9d)\n        /* \"#utility.yul\":5648:5666   */\n      0x44\n      dup3\n      add\n        /* \"#utility.yul\":5641:5685   */\n      mstore\n        /* \"#utility.yul\":5702:5720   */\n      0x64\n      add\n        /* \"contracts/Factory.sol\":1684:1733  require(msg.value >= deployFee, \"Invalid amount\") */\n      tag_82\n        /* \"#utility.yul\":5388:5726   */\n      jump\n        /* \"contracts/Factory.sol\":1684:1733  require(msg.value >= deployFee, \"Invalid amount\") */\n    tag_104:\n        /* \"contracts/Factory.sol\":1821:1830  deployFee */\n      sload(0x03)\n        /* \"contracts/Factory.sol\":882:924  0xE11fce0B4b2AB0635Ae6d0cbB0b62e33F4a80924 */\n      0xe11fce0b4b2ab0635ae6d0cbb0b62e33f4a80924\n      swap1\n        /* \"contracts/Factory.sol\":1802:1831  reciever.sendValue(deployFee) */\n      tag_107\n      swap1\n        /* \"contracts/Factory.sol\":882:924  0xE11fce0B4b2AB0635Ae6d0cbB0b62e33F4a80924 */\n      dup3\n      swap1\n        /* \"contracts/Factory.sol\":1802:1820  reciever.sendValue */\n      tag_108\n        /* \"contracts/Factory.sol\":1802:1831  reciever.sendValue(deployFee) */\n      jump\t// in\n    tag_107:\n        /* \"contracts/Factory.sol\":1841:1860  address bridgeClone */\n      0x00\n        /* \"contracts/Factory.sol\":1863:1890  createClone(contractOrigin) */\n      tag_109\n        /* \"contracts/Factory.sol\":1875:1889  contractOrigin */\n      dup10\n        /* \"contracts/Factory.sol\":1863:1874  createClone */\n      tag_110\n        /* \"contracts/Factory.sol\":1863:1890  createClone(contractOrigin) */\n      jump\t// in\n    tag_109:\n        /* \"contracts/Factory.sol\":1841:1890  address bridgeClone = createClone(contractOrigin) */\n      swap1\n      pop\n      sub(shl(0xa0, 0x01), 0x01)\n        /* \"contracts/Factory.sol\":1900:1936  IBridge(bridgeClone).setDeployBridge */\n      dup2\n      and\n      0xd542a501\n        /* \"contracts/Factory.sol\":1937:1942  token */\n      dup10\n        /* \"contracts/Context.sol\":734:744  msg.sender */\n      caller\n        /* \"contracts/Factory.sol\":1900:2002  IBridge(bridgeClone).setDeployBridge(token, _msgSender(), monitorAccount, feeNative, feePercentBridge) */\n      mload(0x40)\n      not(sub(shl(0xe0, 0x01), 0x01))\n      0xe0\n      dup6\n      swap1\n      shl\n      and\n      dup2\n      mstore\n      sub(shl(0xa0, 0x01), 0x01)\n        /* \"#utility.yul\":6008:6040   */\n      swap3\n      dup4\n      and\n        /* \"contracts/Factory.sol\":1900:2002  IBridge(bridgeClone).setDeployBridge(token, _msgSender(), monitorAccount, feeNative, feePercentBridge) */\n      0x04\n      dup3\n      add\n        /* \"#utility.yul\":5990:6041   */\n      mstore\n        /* \"#utility.yul\":6077:6109   */\n      swap1\n      dup3\n      and\n        /* \"#utility.yul\":6057:6075   */\n      0x24\n      dup3\n      add\n        /* \"#utility.yul\":6050:6110   */\n      mstore\n        /* \"#utility.yul\":6146:6178   */\n      swap1\n      dup11\n      and\n        /* \"#utility.yul\":6126:6144   */\n      0x44\n      dup3\n      add\n        /* \"#utility.yul\":6119:6179   */\n      mstore\n        /* \"#utility.yul\":6195:6213   */\n      0x64\n      dup2\n      add\n        /* \"#utility.yul\":6188:6222   */\n      dup8\n      swap1\n      mstore\n        /* \"#utility.yul\":6238:6257   */\n      0x84\n      dup2\n      add\n        /* \"#utility.yul\":6231:6266   */\n      dup7\n      swap1\n      mstore\n        /* \"#utility.yul\":5962:5981   */\n      0xa4\n      add\n        /* \"contracts/Factory.sol\":1900:2002  IBridge(bridgeClone).setDeployBridge(token, _msgSender(), monitorAccount, feeNative, feePercentBridge) */\n      0x00\n      mload(0x40)\n      dup1\n      dup4\n      sub\n      dup2\n      0x00\n      dup8\n      dup1\n      extcodesize\n      iszero\n      dup1\n      iszero\n      tag_114\n      jumpi\n      0x00\n      dup1\n      revert\n    tag_114:\n      pop\n      gas\n      call\n      iszero\n      dup1\n      iszero\n      tag_116\n      jumpi\n      returndatasize\n      0x00\n      dup1\n      returndatacopy\n      revert(0x00, returndatasize)\n    tag_116:\n      pop\n      pop\n      pop\n      sub(shl(0xa0, 0x01), 0x01)\n        /* \"contracts/Factory.sol\":2012:2039  checkUnique[contractOrigin] */\n      dup11\n      and\n      0x00\n      swap1\n      dup2\n      mstore\n        /* \"contracts/Factory.sol\":2012:2023  checkUnique */\n      0x05\n        /* \"contracts/Factory.sol\":2012:2039  checkUnique[contractOrigin] */\n      0x20\n      mstore\n      0x40\n      swap1\n      dup2\n      swap1\n      keccak256\n        /* \"contracts/Factory.sol\":2012:2050  checkUnique[contractOrigin][projectId] */\n      swap1\n      mload\n        /* \"contracts/Factory.sol\":2053:2057  true */\n      0x01\n      swap3\n      pop\n        /* \"contracts/Factory.sol\":2012:2050  checkUnique[contractOrigin][projectId] */\n      tag_117\n      swap1\n        /* \"contracts/Factory.sol\":2040:2049  projectId */\n      dup10\n      swap1\n      dup10\n      swap1\n        /* \"contracts/Factory.sol\":2012:2050  checkUnique[contractOrigin][projectId] */\n      tag_118\n      jump\t// in\n    tag_117:\n      swap1\n      dup2\n      mstore\n      mload(0x40)\n      swap1\n      dup2\n      swap1\n      sub\n      0x20\n      add\n      swap1\n      keccak256\n        /* \"contracts/Factory.sol\":2012:2057  checkUnique[contractOrigin][projectId] = true */\n      dup1\n      sload\n      swap2\n      iszero\n      iszero\n      not(0xff)\n      swap1\n      swap3\n      and\n      swap2\n      swap1\n      swap2\n      or\n      swap1\n      sstore\n        /* \"contracts/Factory.sol\":2073:2269  DeployedBridge(... */\n      0xfe8a7a9595db69482b6c9512a38547e2fa37941360a12778c7887eb4348e0184\n        /* \"contracts/Factory.sol\":2101:2110  projectId */\n      dup7\n      dup7\n        /* \"contracts/Factory.sol\":2124:2135  bridgeClone */\n      dup4\n        /* \"contracts/Factory.sol\":2149:2161  _msgSender() */\n      tag_119\n        /* \"contracts/Context.sol\":734:744  msg.sender */\n      caller\n      swap1\n        /* \"contracts/Context.sol\":655:751  function _msgSender() internal view virtual returns (address) {... */\n      jump\n        /* \"contracts/Factory.sol\":2149:2161  _msgSender() */\n    tag_119:\n        /* \"contracts/Factory.sol\":2175:2189  monitorAccount */\n      dup12\n        /* \"contracts/Factory.sol\":2203:2217  contractOrigin */\n      dup15\n        /* \"contracts/Factory.sol\":2231:2236  token */\n      dup15\n        /* \"contracts/Factory.sol\":2250:2259  deployFee */\n      sload(0x03)\n        /* \"contracts/Factory.sol\":2073:2269  DeployedBridge(... */\n      mload(0x40)\n      tag_120\n      swap9\n      swap8\n      swap7\n      swap6\n      swap5\n      swap4\n      swap3\n      swap2\n      swap1\n      tag_121\n      jump\t// in\n    tag_120:\n      mload(0x40)\n      dup1\n      swap2\n      sub\n      swap1\n      log1\n        /* \"contracts/Factory.sol\":2280:2294  uint256 refund */\n      0x00\n        /* \"contracts/Factory.sol\":2309:2318  deployFee */\n      sload(0x03)\n        /* \"contracts/Factory.sol\":2297:2306  msg.value */\n      callvalue\n        /* \"contracts/Factory.sol\":2297:2318  msg.value - deployFee */\n      tag_122\n      swap2\n      swap1\n      tag_123\n      jump\t// in\n    tag_122:\n        /* \"contracts/Factory.sol\":2280:2318  uint256 refund = msg.value - deployFee */\n      swap1\n      pop\n        /* \"contracts/Factory.sol\":2332:2342  refund > 0 */\n      dup1\n      iszero\n        /* \"contracts/Factory.sol\":2328:2406  if (refund > 0) {... */\n      tag_125\n      jumpi\n        /* \"contracts/Factory.sol\":2358:2395  payable(msg.sender).sendValue(refund) */\n      tag_125\n        /* \"contracts/Factory.sol\":2366:2376  msg.sender */\n      caller\n        /* \"contracts/Factory.sol\":2388:2394  refund */\n      dup3\n        /* \"contracts/Factory.sol\":2358:2387  payable(msg.sender).sendValue */\n      tag_108\n        /* \"contracts/Factory.sol\":2358:2395  payable(msg.sender).sendValue(refund) */\n      jump\t// in\n    tag_125:\n        /* \"contracts/Factory.sol\":1557:2412  {... */\n      pop\n      pop\n      pop\n        /* \"contracts/Factory.sol\":1329:2412  function deployedBridge(... */\n      pop\n      pop\n      pop\n      pop\n      pop\n      pop\n      pop\n      jump\t// out\n        /* \"contracts/Ownable.sol\":1839:2028  function transferOwnership(address newOwner) public virtual onlyOwner {... */\n    tag_69:\n        /* \"contracts/Ownable.sol\":1038:1044  _owner */\n      and(sub(shl(0xa0, 0x01), 0x01), sload(0x01))\n        /* \"contracts/Context.sol\":734:744  msg.sender */\n      caller\n        /* \"contracts/Ownable.sol\":1178:1201  owner() == _msgSender() */\n      eq\n        /* \"contracts/Ownable.sol\":1170:1238  require(owner() == _msgSender(), \"Ownable: caller is not the owner\") */\n      tag_129\n      jumpi\n      mload(0x40)\n      shl(0xe5, 0x461bcd)\n      dup2\n      mstore\n      0x04\n      add\n      tag_82\n      swap1\n      tag_83\n      jump\t// in\n    tag_129:\n      sub(shl(0xa0, 0x01), 0x01)\n        /* \"contracts/Ownable.sol\":1927:1949  newOwner != address(0) */\n      dup2\n      and\n        /* \"contracts/Ownable.sol\":1919:1992  require(newOwner != address(0), \"Ownable: new owner is the zero address\") */\n      tag_132\n      jumpi\n      mload(0x40)\n      shl(0xe5, 0x461bcd)\n      dup2\n      mstore\n        /* \"#utility.yul\":7948:7950   */\n      0x20\n        /* \"contracts/Ownable.sol\":1919:1992  require(newOwner != address(0), \"Ownable: new owner is the zero address\") */\n      0x04\n      dup3\n      add\n        /* \"#utility.yul\":7930:7951   */\n      mstore\n        /* \"#utility.yul\":7987:7989   */\n      0x26\n        /* \"#utility.yul\":7967:7985   */\n      0x24\n      dup3\n      add\n        /* \"#utility.yul\":7960:7990   */\n      mstore\n        /* \"#utility.yul\":8026:8060   */\n      0x4f776e61626c653a206e6577206f776e657220697320746865207a65726f2061\n        /* \"#utility.yul\":8006:8024   */\n      0x44\n      dup3\n      add\n        /* \"#utility.yul\":7999:8061   */\n      mstore\n      shl(0xd0, 0x646472657373)\n        /* \"#utility.yul\":8077:8095   */\n      0x64\n      dup3\n      add\n        /* \"#utility.yul\":8070:8106   */\n      mstore\n        /* \"#utility.yul\":8123:8142   */\n      0x84\n      add\n        /* \"contracts/Ownable.sol\":1919:1992  require(newOwner != address(0), \"Ownable: new owner is the zero address\") */\n      tag_82\n        /* \"#utility.yul\":7746:8148   */\n      jump\n        /* \"contracts/Ownable.sol\":1919:1992  require(newOwner != address(0), \"Ownable: new owner is the zero address\") */\n    tag_132:\n        /* \"contracts/Ownable.sol\":2002:2021  _setOwner(newOwner) */\n      tag_135\n        /* \"contracts/Ownable.sol\":2012:2020  newOwner */\n      dup2\n        /* \"contracts/Ownable.sol\":2002:2011  _setOwner */\n      tag_92\n        /* \"contracts/Ownable.sol\":2002:2021  _setOwner(newOwner) */\n      jump\t// in\n    tag_135:\n        /* \"contracts/Ownable.sol\":1839:2028  function transferOwnership(address newOwner) public virtual onlyOwner {... */\n      pop\n      jump\t// out\n        /* \"contracts/Ownable.sol\":2034:2203  function _setOwner(address newOwner) private {... */\n    tag_92:\n        /* \"contracts/Ownable.sol\":2108:2114  _owner */\n      0x01\n      dup1\n      sload\n      sub(shl(0xa0, 0x01), 0x01)\n        /* \"contracts/Ownable.sol\":2124:2141  _owner = newOwner */\n      dup4\n      dup2\n      and\n      not(sub(shl(0xa0, 0x01), 0x01))\n      dup4\n      and\n      dup2\n      or\n      swap1\n      swap4\n      sstore\n        /* \"contracts/Ownable.sol\":2156:2196  OwnershipTransferred(oldOwner, newOwner) */\n      mload(0x40)\n        /* \"contracts/Ownable.sol\":2108:2114  _owner */\n      swap2\n      and\n      swap2\n        /* \"contracts/Ownable.sol\":2124:2141  _owner = newOwner */\n      swap1\n        /* \"contracts/Ownable.sol\":2108:2114  _owner */\n      dup3\n      swap1\n        /* \"contracts/Ownable.sol\":2156:2196  OwnershipTransferred(oldOwner, newOwner) */\n      0x8be0079c531659141344cd1fd0a4f28419497f9722a3daafe3b4186f6b6457e0\n      swap1\n        /* \"contracts/Ownable.sol\":2089:2105  address oldOwner */\n      0x00\n      swap1\n        /* \"contracts/Ownable.sol\":2156:2196  OwnershipTransferred(oldOwner, newOwner) */\n      log3\n        /* \"contracts/Ownable.sol\":2079:2203  {... */\n      pop\n        /* \"contracts/Ownable.sol\":2034:2203  function _setOwner(address newOwner) private {... */\n      pop\n      jump\t// out\n        /* \"@openzeppelin/contracts/utils/Address.sol\":1531:1862  function sendValue(address payable recipient, uint256 amount) internal {... */\n    tag_108:\n        /* \"@openzeppelin/contracts/utils/Address.sol\":1640:1646  amount */\n      dup1\n        /* \"@openzeppelin/contracts/utils/Address.sol\":1616:1637  address(this).balance */\n      selfbalance\n        /* \"@openzeppelin/contracts/utils/Address.sol\":1616:1646  address(this).balance < amount */\n      lt\n        /* \"@openzeppelin/contracts/utils/Address.sol\":1612:1721  if (address(this).balance < amount) {... */\n      iszero\n      tag_139\n      jumpi\n        /* \"@openzeppelin/contracts/utils/Address.sol\":1669:1710  AddressInsufficientBalance(address(this)) */\n      mload(0x40)\n      shl(0xe0, 0xcd786059)\n      dup2\n      mstore\n        /* \"@openzeppelin/contracts/utils/Address.sol\":1704:1708  this */\n      address\n        /* \"@openzeppelin/contracts/utils/Address.sol\":1669:1710  AddressInsufficientBalance(address(this)) */\n      0x04\n      dup3\n      add\n        /* \"#utility.yul\":2570:2621   */\n      mstore\n        /* \"#utility.yul\":2543:2561   */\n      0x24\n      add\n        /* \"@openzeppelin/contracts/utils/Address.sol\":1669:1710  AddressInsufficientBalance(address(this)) */\n      tag_82\n        /* \"#utility.yul\":2424:2627   */\n      jump\n        /* \"@openzeppelin/contracts/utils/Address.sol\":1612:1721  if (address(this).balance < amount) {... */\n    tag_139:\n        /* \"@openzeppelin/contracts/utils/Address.sol\":1732:1744  bool success */\n      0x00\n        /* \"@openzeppelin/contracts/utils/Address.sol\":1750:1759  recipient */\n      dup3\n      sub(shl(0xa0, 0x01), 0x01)\n        /* \"@openzeppelin/contracts/utils/Address.sol\":1750:1764  recipient.call */\n      and\n        /* \"@openzeppelin/contracts/utils/Address.sol\":1772:1778  amount */\n      dup3\n        /* \"@openzeppelin/contracts/utils/Address.sol\":1750:1783  recipient.call{value: amount}(\"\") */\n      mload(0x40)\n      0x00\n      mload(0x40)\n      dup1\n      dup4\n      sub\n      dup2\n      dup6\n      dup8\n      gas\n      call\n      swap3\n      pop\n      pop\n      pop\n      returndatasize\n      dup1\n      0x00\n      dup2\n      eq\n      tag_145\n      jumpi\n      mload(0x40)\n      swap2\n      pop\n      and(add(returndatasize, 0x3f), not(0x1f))\n      dup3\n      add\n      0x40\n      mstore\n      returndatasize\n      dup3\n      mstore\n      returndatasize\n      0x00\n      0x20\n      dup5\n      add\n      returndatacopy\n      jump(tag_144)\n    tag_145:\n      0x60\n      swap2\n      pop\n    tag_144:\n      pop\n        /* \"@openzeppelin/contracts/utils/Address.sol\":1731:1783  (bool success, ) = recipient.call{value: amount}(\"\") */\n      pop\n      swap1\n      pop\n        /* \"@openzeppelin/contracts/utils/Address.sol\":1798:1805  success */\n      dup1\n        /* \"@openzeppelin/contracts/utils/Address.sol\":1793:1856  if (!success) {... */\n      tag_146\n      jumpi\n        /* \"@openzeppelin/contracts/utils/Address.sol\":1828:1845  FailedInnerCall() */\n      mload(0x40)\n      shl(0xe1, 0x0a12f521)\n      dup2\n      mstore\n      0x04\n      add\n      mload(0x40)\n      dup1\n      swap2\n      sub\n      swap1\n      revert\n        /* \"@openzeppelin/contracts/utils/Address.sol\":1793:1856  if (!success) {... */\n    tag_146:\n        /* \"@openzeppelin/contracts/utils/Address.sol\":1602:1862  {... */\n      pop\n        /* \"@openzeppelin/contracts/utils/Address.sol\":1531:1862  function sendValue(address payable recipient, uint256 amount) internal {... */\n      pop\n      pop\n      jump\t// out\n        /* \"contracts/CloneFactory.sol\":106:591  function createClone(address target) internal returns (address result) {... */\n    tag_110:\n        /* \"contracts/CloneFactory.sol\":161:175  address result */\n      0x00\n        /* \"contracts/CloneFactory.sol\":187:206  bytes20 targetBytes */\n      dup1\n        /* \"contracts/CloneFactory.sol\":217:223  target */\n      dup3\n        /* \"contracts/CloneFactory.sol\":209:224  bytes20(target) */\n      0x60\n      shl\n        /* \"contracts/CloneFactory.sol\":187:224  bytes20 targetBytes = bytes20(target) */\n      swap1\n      pop\n        /* \"contracts/CloneFactory.sol\":276:280  0x40 */\n      0x40\n        /* \"contracts/CloneFactory.sol\":270:281  mload(0x40) */\n      mload\n      shl(0x60, 0x3d602d80600a3d3981f3363d3d373d3d3d363d73)\n        /* \"contracts/CloneFactory.sol\":301:306  clone */\n      dup2\n        /* \"contracts/CloneFactory.sol\":294:375  mstore(clone, 0x3d602d80600a3d3981f3363d3d373d3d3d363d73000000000000000000000000) */\n      mstore\n        /* \"contracts/CloneFactory.sol\":413:424  targetBytes */\n      dup2\n        /* \"contracts/CloneFactory.sol\":406:410  0x14 */\n      0x14\n        /* \"contracts/CloneFactory.sol\":399:404  clone */\n      dup3\n        /* \"contracts/CloneFactory.sol\":395:411  add(clone, 0x14) */\n      add\n        /* \"contracts/CloneFactory.sol\":388:425  mstore(add(clone, 0x14), targetBytes) */\n      mstore\n      shl(0x88, 0x5af43d82803e903d91602b57fd5bf3)\n        /* \"contracts/CloneFactory.sol\":456:460  0x28 */\n      0x28\n        /* \"contracts/CloneFactory.sol\":449:454  clone */\n      dup3\n        /* \"contracts/CloneFactory.sol\":445:461  add(clone, 0x28) */\n      add\n        /* \"contracts/CloneFactory.sol\":438:530  mstore(add(clone, 0x28), 0x5af43d82803e903d91602b57fd5bf30000000000000000000000000000000000) */\n      mstore\n        /* \"contracts/CloneFactory.sol\":570:574  0x37 */\n      0x37\n        /* \"contracts/CloneFactory.sol\":563:568  clone */\n      dup2\n        /* \"contracts/CloneFactory.sol\":560:561  0 */\n      0x00\n        /* \"contracts/CloneFactory.sol\":553:575  create(0, clone, 0x37) */\n      create\n        /* \"contracts/CloneFactory.sol\":543:575  result := create(0, clone, 0x37) */\n      swap5\n        /* \"contracts/CloneFactory.sol\":106:591  function createClone(address target) internal returns (address result) {... */\n      swap4\n      pop\n      pop\n      pop\n      pop\n      jump\t// out\n        /* \"#utility.yul\":14:541   */\n    tag_21:\n        /* \"#utility.yul\":163:165   */\n      0x20\n        /* \"#utility.yul\":152:161   */\n      dup2\n        /* \"#utility.yul\":145:166   */\n      mstore\n        /* \"#utility.yul\":126:130   */\n      0x00\n        /* \"#utility.yul\":195:201   */\n      dup3\n        /* \"#utility.yul\":189:202   */\n      mload\n        /* \"#utility.yul\":238:244   */\n      dup1\n        /* \"#utility.yul\":233:235   */\n      0x20\n        /* \"#utility.yul\":222:231   */\n      dup5\n        /* \"#utility.yul\":218:236   */\n      add\n        /* \"#utility.yul\":211:245   */\n      mstore\n        /* \"#utility.yul\":263:264   */\n      0x00\n        /* \"#utility.yul\":273:413   */\n    tag_152:\n        /* \"#utility.yul\":287:293   */\n      dup2\n        /* \"#utility.yul\":284:285   */\n      dup2\n        /* \"#utility.yul\":281:294   */\n      lt\n        /* \"#utility.yul\":273:413   */\n      iszero\n      tag_154\n      jumpi\n        /* \"#utility.yul\":398:400   */\n      0x20\n        /* \"#utility.yul\":382:396   */\n      dup2\n      dup7\n      add\n        /* \"#utility.yul\":378:401   */\n      dup2\n      add\n        /* \"#utility.yul\":372:402   */\n      mload\n        /* \"#utility.yul\":367:369   */\n      0x40\n        /* \"#utility.yul\":348:365   */\n      dup7\n      dup5\n      add\n        /* \"#utility.yul\":344:370   */\n      add\n        /* \"#utility.yul\":337:403   */\n      mstore\n        /* \"#utility.yul\":302:312   */\n      add\n        /* \"#utility.yul\":273:413   */\n      jump(tag_152)\n    tag_154:\n        /* \"#utility.yul\":277:280   */\n      pop\n        /* \"#utility.yul\":462:463   */\n      0x00\n        /* \"#utility.yul\":457:459   */\n      0x40\n        /* \"#utility.yul\":448:454   */\n      dup3\n        /* \"#utility.yul\":437:446   */\n      dup6\n        /* \"#utility.yul\":433:455   */\n      add\n        /* \"#utility.yul\":429:460   */\n      add\n        /* \"#utility.yul\":422:464   */\n      mstore\n        /* \"#utility.yul\":532:534   */\n      0x40\n        /* \"#utility.yul\":525:527   */\n      0x1f\n        /* \"#utility.yul\":521:528   */\n      not\n        /* \"#utility.yul\":516:518   */\n      0x1f\n        /* \"#utility.yul\":508:514   */\n      dup4\n        /* \"#utility.yul\":504:519   */\n      add\n        /* \"#utility.yul\":500:529   */\n      and\n        /* \"#utility.yul\":489:498   */\n      dup5\n        /* \"#utility.yul\":485:530   */\n      add\n        /* \"#utility.yul\":481:535   */\n      add\n        /* \"#utility.yul\":473:535   */\n      swap2\n      pop\n      pop\n        /* \"#utility.yul\":14:541   */\n      swap3\n      swap2\n      pop\n      pop\n      jump\t// out\n        /* \"#utility.yul\":546:719   */\n    tag_148:\n        /* \"#utility.yul\":614:634   */\n      dup1\n      calldataload\n      sub(shl(0xa0, 0x01), 0x01)\n        /* \"#utility.yul\":663:694   */\n      dup2\n      and\n        /* \"#utility.yul\":653:695   */\n      dup2\n      eq\n        /* \"#utility.yul\":643:713   */\n      tag_156\n      jumpi\n        /* \"#utility.yul\":709:710   */\n      0x00\n        /* \"#utility.yul\":706:707   */\n      dup1\n        /* \"#utility.yul\":699:711   */\n      revert\n        /* \"#utility.yul\":643:713   */\n    tag_156:\n        /* \"#utility.yul\":546:719   */\n      swap2\n      swap1\n      pop\n      jump\t// out\n        /* \"#utility.yul\":724:1071   */\n    tag_25:\n        /* \"#utility.yul\":789:795   */\n      0x00\n        /* \"#utility.yul\":797:803   */\n      dup1\n        /* \"#utility.yul\":850:852   */\n      0x40\n        /* \"#utility.yul\":838:847   */\n      dup4\n        /* \"#utility.yul\":829:836   */\n      dup6\n        /* \"#utility.yul\":825:848   */\n      sub\n        /* \"#utility.yul\":821:853   */\n      slt\n        /* \"#utility.yul\":818:870   */\n      iszero\n      tag_158\n      jumpi\n        /* \"#utility.yul\":866:867   */\n      0x00\n        /* \"#utility.yul\":863:864   */\n      dup1\n        /* \"#utility.yul\":856:868   */\n      revert\n        /* \"#utility.yul\":818:870   */\n    tag_158:\n        /* \"#utility.yul\":889:918   */\n      tag_159\n        /* \"#utility.yul\":908:917   */\n      dup4\n        /* \"#utility.yul\":889:918   */\n      tag_148\n      jump\t// in\n    tag_159:\n        /* \"#utility.yul\":879:918   */\n      swap2\n      pop\n        /* \"#utility.yul\":968:970   */\n      0x20\n        /* \"#utility.yul\":957:966   */\n      dup4\n        /* \"#utility.yul\":953:971   */\n      add\n        /* \"#utility.yul\":940:972   */\n      calldataload\n        /* \"#utility.yul\":1015:1020   */\n      dup1\n        /* \"#utility.yul\":1008:1021   */\n      iszero\n        /* \"#utility.yul\":1001:1022   */\n      iszero\n        /* \"#utility.yul\":994:999   */\n      dup2\n        /* \"#utility.yul\":991:1023   */\n      eq\n        /* \"#utility.yul\":981:1041   */\n      tag_160\n      jumpi\n        /* \"#utility.yul\":1037:1038   */\n      0x00\n        /* \"#utility.yul\":1034:1035   */\n      dup1\n        /* \"#utility.yul\":1027:1039   */\n      revert\n        /* \"#utility.yul\":981:1041   */\n    tag_160:\n        /* \"#utility.yul\":1060:1065   */\n      dup1\n        /* \"#utility.yul\":1050:1065   */\n      swap2\n      pop\n      pop\n        /* \"#utility.yul\":724:1071   */\n      swap3\n      pop\n      swap3\n      swap1\n      pop\n      jump\t// out\n        /* \"#utility.yul\":1076:1203   */\n    tag_149:\n        /* \"#utility.yul\":1137:1147   */\n      0x4e487b71\n        /* \"#utility.yul\":1132:1135   */\n      0xe0\n        /* \"#utility.yul\":1128:1148   */\n      shl\n        /* \"#utility.yul\":1125:1126   */\n      0x00\n        /* \"#utility.yul\":1118:1149   */\n      mstore\n        /* \"#utility.yul\":1168:1172   */\n      0x41\n        /* \"#utility.yul\":1165:1166   */\n      0x04\n        /* \"#utility.yul\":1158:1173   */\n      mstore\n        /* \"#utility.yul\":1192:1196   */\n      0x24\n        /* \"#utility.yul\":1189:1190   */\n      0x00\n        /* \"#utility.yul\":1182:1197   */\n      revert\n        /* \"#utility.yul\":1208:2227   */\n    tag_33:\n        /* \"#utility.yul\":1286:1292   */\n      0x00\n        /* \"#utility.yul\":1294:1300   */\n      dup1\n        /* \"#utility.yul\":1347:1349   */\n      0x40\n        /* \"#utility.yul\":1335:1344   */\n      dup4\n        /* \"#utility.yul\":1326:1333   */\n      dup6\n        /* \"#utility.yul\":1322:1345   */\n      sub\n        /* \"#utility.yul\":1318:1350   */\n      slt\n        /* \"#utility.yul\":1315:1367   */\n      iszero\n      tag_163\n      jumpi\n        /* \"#utility.yul\":1363:1364   */\n      0x00\n        /* \"#utility.yul\":1360:1361   */\n      dup1\n        /* \"#utility.yul\":1353:1365   */\n      revert\n        /* \"#utility.yul\":1315:1367   */\n    tag_163:\n        /* \"#utility.yul\":1386:1415   */\n      tag_164\n        /* \"#utility.yul\":1405:1414   */\n      dup4\n        /* \"#utility.yul\":1386:1415   */\n      tag_148\n      jump\t// in\n    tag_164:\n        /* \"#utility.yul\":1376:1415   */\n      swap2\n      pop\n        /* \"#utility.yul\":1466:1468   */\n      0x20\n        /* \"#utility.yul\":1455:1464   */\n      dup4\n        /* \"#utility.yul\":1451:1469   */\n      add\n        /* \"#utility.yul\":1438:1470   */\n      calldataload\n        /* \"#utility.yul\":1493:1511   */\n      0xffffffffffffffff\n        /* \"#utility.yul\":1485:1491   */\n      dup2\n        /* \"#utility.yul\":1482:1512   */\n      gt\n        /* \"#utility.yul\":1479:1529   */\n      iszero\n      tag_165\n      jumpi\n        /* \"#utility.yul\":1525:1526   */\n      0x00\n        /* \"#utility.yul\":1522:1523   */\n      dup1\n        /* \"#utility.yul\":1515:1527   */\n      revert\n        /* \"#utility.yul\":1479:1529   */\n    tag_165:\n        /* \"#utility.yul\":1548:1570   */\n      dup4\n      add\n        /* \"#utility.yul\":1601:1605   */\n      0x1f\n        /* \"#utility.yul\":1593:1606   */\n      dup2\n      add\n        /* \"#utility.yul\":1589:1616   */\n      dup6\n      sgt\n        /* \"#utility.yul\":1579:1634   */\n      tag_166\n      jumpi\n        /* \"#utility.yul\":1630:1631   */\n      0x00\n        /* \"#utility.yul\":1627:1628   */\n      dup1\n        /* \"#utility.yul\":1620:1632   */\n      revert\n        /* \"#utility.yul\":1579:1634   */\n    tag_166:\n        /* \"#utility.yul\":1670:1672   */\n      dup1\n        /* \"#utility.yul\":1657:1673   */\n      calldataload\n        /* \"#utility.yul\":1696:1714   */\n      0xffffffffffffffff\n        /* \"#utility.yul\":1688:1694   */\n      dup2\n        /* \"#utility.yul\":1685:1715   */\n      gt\n        /* \"#utility.yul\":1682:1738   */\n      iszero\n      tag_168\n      jumpi\n        /* \"#utility.yul\":1718:1736   */\n      tag_168\n      tag_149\n      jump\t// in\n    tag_168:\n        /* \"#utility.yul\":1767:1769   */\n      0x40\n        /* \"#utility.yul\":1761:1770   */\n      mload\n        /* \"#utility.yul\":1859:1861   */\n      0x1f\n        /* \"#utility.yul\":1821:1838   */\n      dup3\n      add\n      not(0x1f)\n        /* \"#utility.yul\":1817:1848   */\n      swap1\n      dup2\n      and\n        /* \"#utility.yul\":1850:1852   */\n      0x3f\n        /* \"#utility.yul\":1813:1853   */\n      add\n        /* \"#utility.yul\":1809:1863   */\n      and\n        /* \"#utility.yul\":1797:1864   */\n      dup2\n      add\n        /* \"#utility.yul\":1894:1912   */\n      0xffffffffffffffff\n        /* \"#utility.yul\":1879:1913   */\n      dup2\n      gt\n        /* \"#utility.yul\":1915:1937   */\n      dup3\n      dup3\n      lt\n        /* \"#utility.yul\":1876:1938   */\n      or\n        /* \"#utility.yul\":1873:1961   */\n      iszero\n      tag_170\n      jumpi\n        /* \"#utility.yul\":1941:1959   */\n      tag_170\n      tag_149\n      jump\t// in\n    tag_170:\n        /* \"#utility.yul\":1977:1979   */\n      0x40\n        /* \"#utility.yul\":1970:1992   */\n      mstore\n        /* \"#utility.yul\":2001:2023   */\n      dup2\n      dup2\n      mstore\n        /* \"#utility.yul\":2042:2057   */\n      dup3\n      dup3\n      add\n        /* \"#utility.yul\":2059:2061   */\n      0x20\n        /* \"#utility.yul\":2038:2062   */\n      add\n        /* \"#utility.yul\":2035:2072   */\n      dup8\n      lt\n        /* \"#utility.yul\":2032:2089   */\n      iszero\n      tag_171\n      jumpi\n        /* \"#utility.yul\":2085:2086   */\n      0x00\n        /* \"#utility.yul\":2082:2083   */\n      dup1\n        /* \"#utility.yul\":2075:2087   */\n      revert\n        /* \"#utility.yul\":2032:2089   */\n    tag_171:\n        /* \"#utility.yul\":2141:2147   */\n      dup2\n        /* \"#utility.yul\":2136:2138   */\n      0x20\n        /* \"#utility.yul\":2132:2134   */\n      dup5\n        /* \"#utility.yul\":2128:2139   */\n      add\n        /* \"#utility.yul\":2123:2125   */\n      0x20\n        /* \"#utility.yul\":2115:2121   */\n      dup4\n        /* \"#utility.yul\":2111:2126   */\n      add\n        /* \"#utility.yul\":2098:2148   */\n      calldatacopy\n        /* \"#utility.yul\":2194:2195   */\n      0x00\n        /* \"#utility.yul\":2189:2191   */\n      0x20\n        /* \"#utility.yul\":2180:2186   */\n      dup4\n        /* \"#utility.yul\":2172:2178   */\n      dup4\n        /* \"#utility.yul\":2168:2187   */\n      add\n        /* \"#utility.yul\":2164:2192   */\n      add\n        /* \"#utility.yul\":2157:2196   */\n      mstore\n        /* \"#utility.yul\":2215:2221   */\n      dup1\n        /* \"#utility.yul\":2205:2221   */\n      swap4\n      pop\n      pop\n      pop\n      pop\n        /* \"#utility.yul\":1208:2227   */\n      swap3\n      pop\n      swap3\n      swap1\n      pop\n      jump\t// out\n        /* \"#utility.yul\":2632:2818   */\n    tag_45:\n        /* \"#utility.yul\":2691:2697   */\n      0x00\n        /* \"#utility.yul\":2744:2746   */\n      0x20\n        /* \"#utility.yul\":2732:2741   */\n      dup3\n        /* \"#utility.yul\":2723:2730   */\n      dup5\n        /* \"#utility.yul\":2719:2742   */\n      sub\n        /* \"#utility.yul\":2715:2747   */\n      slt\n        /* \"#utility.yul\":2712:2764   */\n      iszero\n      tag_175\n      jumpi\n        /* \"#utility.yul\":2760:2761   */\n      0x00\n        /* \"#utility.yul\":2757:2758   */\n      dup1\n        /* \"#utility.yul\":2750:2762   */\n      revert\n        /* \"#utility.yul\":2712:2764   */\n    tag_175:\n        /* \"#utility.yul\":2783:2812   */\n      tag_176\n        /* \"#utility.yul\":2802:2811   */\n      dup3\n        /* \"#utility.yul\":2783:2812   */\n      tag_148\n      jump\t// in\n    tag_176:\n        /* \"#utility.yul\":2773:2812   */\n      swap4\n        /* \"#utility.yul\":2632:2818   */\n      swap3\n      pop\n      pop\n      pop\n      jump\t// out\n        /* \"#utility.yul\":2823:3049   */\n    tag_51:\n        /* \"#utility.yul\":2882:2888   */\n      0x00\n        /* \"#utility.yul\":2935:2937   */\n      0x20\n        /* \"#utility.yul\":2923:2932   */\n      dup3\n        /* \"#utility.yul\":2914:2921   */\n      dup5\n        /* \"#utility.yul\":2910:2933   */\n      sub\n        /* \"#utility.yul\":2906:2938   */\n      slt\n        /* \"#utility.yul\":2903:2955   */\n      iszero\n      tag_178\n      jumpi\n        /* \"#utility.yul\":2951:2952   */\n      0x00\n        /* \"#utility.yul\":2948:2949   */\n      dup1\n        /* \"#utility.yul\":2941:2953   */\n      revert\n        /* \"#utility.yul\":2903:2955   */\n    tag_178:\n      pop\n        /* \"#utility.yul\":2996:3019   */\n      calldataload\n      swap2\n        /* \"#utility.yul\":2823:3049   */\n      swap1\n      pop\n      jump\t// out\n        /* \"#utility.yul\":3054:4100   */\n    tag_55:\n        /* \"#utility.yul\":3170:3176   */\n      0x00\n        /* \"#utility.yul\":3178:3184   */\n      dup1\n        /* \"#utility.yul\":3186:3192   */\n      0x00\n        /* \"#utility.yul\":3194:3200   */\n      dup1\n        /* \"#utility.yul\":3202:3208   */\n      0x00\n        /* \"#utility.yul\":3210:3216   */\n      dup1\n        /* \"#utility.yul\":3218:3224   */\n      0x00\n        /* \"#utility.yul\":3271:3274   */\n      0xc0\n        /* \"#utility.yul\":3259:3268   */\n      dup9\n        /* \"#utility.yul\":3250:3257   */\n      dup11\n        /* \"#utility.yul\":3246:3269   */\n      sub\n        /* \"#utility.yul\":3242:3275   */\n      slt\n        /* \"#utility.yul\":3239:3292   */\n      iszero\n      tag_180\n      jumpi\n        /* \"#utility.yul\":3288:3289   */\n      0x00\n        /* \"#utility.yul\":3285:3286   */\n      dup1\n        /* \"#utility.yul\":3278:3290   */\n      revert\n        /* \"#utility.yul\":3239:3292   */\n    tag_180:\n        /* \"#utility.yul\":3311:3340   */\n      tag_181\n        /* \"#utility.yul\":3330:3339   */\n      dup9\n        /* \"#utility.yul\":3311:3340   */\n      tag_148\n      jump\t// in\n    tag_181:\n        /* \"#utility.yul\":3301:3340   */\n      swap7\n      pop\n        /* \"#utility.yul\":3359:3397   */\n      tag_182\n        /* \"#utility.yul\":3393:3395   */\n      0x20\n        /* \"#utility.yul\":3382:3391   */\n      dup10\n        /* \"#utility.yul\":3378:3396   */\n      add\n        /* \"#utility.yul\":3359:3397   */\n      tag_148\n      jump\t// in\n    tag_182:\n        /* \"#utility.yul\":3349:3397   */\n      swap6\n      pop\n        /* \"#utility.yul\":3416:3454   */\n      tag_183\n        /* \"#utility.yul\":3450:3452   */\n      0x40\n        /* \"#utility.yul\":3439:3448   */\n      dup10\n        /* \"#utility.yul\":3435:3453   */\n      add\n        /* \"#utility.yul\":3416:3454   */\n      tag_148\n      jump\t// in\n    tag_183:\n        /* \"#utility.yul\":3406:3454   */\n      swap5\n      pop\n        /* \"#utility.yul\":3505:3507   */\n      0x60\n        /* \"#utility.yul\":3494:3503   */\n      dup9\n        /* \"#utility.yul\":3490:3508   */\n      add\n        /* \"#utility.yul\":3477:3509   */\n      calldataload\n        /* \"#utility.yul\":3532:3550   */\n      0xffffffffffffffff\n        /* \"#utility.yul\":3524:3530   */\n      dup2\n        /* \"#utility.yul\":3521:3551   */\n      gt\n        /* \"#utility.yul\":3518:3568   */\n      iszero\n      tag_184\n      jumpi\n        /* \"#utility.yul\":3564:3565   */\n      0x00\n        /* \"#utility.yul\":3561:3562   */\n      dup1\n        /* \"#utility.yul\":3554:3566   */\n      revert\n        /* \"#utility.yul\":3518:3568   */\n    tag_184:\n        /* \"#utility.yul\":3587:3609   */\n      dup9\n      add\n        /* \"#utility.yul\":3640:3644   */\n      0x1f\n        /* \"#utility.yul\":3632:3645   */\n      dup2\n      add\n        /* \"#utility.yul\":3628:3655   */\n      dup11\n      sgt\n        /* \"#utility.yul\":3618:3673   */\n      tag_185\n      jumpi\n        /* \"#utility.yul\":3669:3670   */\n      0x00\n        /* \"#utility.yul\":3666:3667   */\n      dup1\n        /* \"#utility.yul\":3659:3671   */\n      revert\n        /* \"#utility.yul\":3618:3673   */\n    tag_185:\n        /* \"#utility.yul\":3709:3711   */\n      dup1\n        /* \"#utility.yul\":3696:3712   */\n      calldataload\n        /* \"#utility.yul\":3735:3753   */\n      0xffffffffffffffff\n        /* \"#utility.yul\":3727:3733   */\n      dup2\n        /* \"#utility.yul\":3724:3754   */\n      gt\n        /* \"#utility.yul\":3721:3771   */\n      iszero\n      tag_186\n      jumpi\n        /* \"#utility.yul\":3767:3768   */\n      0x00\n        /* \"#utility.yul\":3764:3765   */\n      dup1\n        /* \"#utility.yul\":3757:3769   */\n      revert\n        /* \"#utility.yul\":3721:3771   */\n    tag_186:\n        /* \"#utility.yul\":3812:3819   */\n      dup11\n        /* \"#utility.yul\":3807:3809   */\n      0x20\n        /* \"#utility.yul\":3798:3804   */\n      dup3\n        /* \"#utility.yul\":3794:3796   */\n      dup5\n        /* \"#utility.yul\":3790:3805   */\n      add\n        /* \"#utility.yul\":3786:3810   */\n      add\n        /* \"#utility.yul\":3783:3820   */\n      gt\n        /* \"#utility.yul\":3780:3837   */\n      iszero\n      tag_187\n      jumpi\n        /* \"#utility.yul\":3833:3834   */\n      0x00\n        /* \"#utility.yul\":3830:3831   */\n      dup1\n        /* \"#utility.yul\":3823:3835   */\n      revert\n        /* \"#utility.yul\":3780:3837   */\n    tag_187:\n        /* \"#utility.yul\":3054:4100   */\n      swap8\n      swap11\n      swap7\n      swap10\n      pop\n      swap5\n      swap8\n        /* \"#utility.yul\":3864:3866   */\n      0x20\n        /* \"#utility.yul\":3856:3867   */\n      swap1\n      swap6\n      add\n      swap7\n        /* \"#utility.yul\":3054:4100   */\n      swap6\n        /* \"#utility.yul\":3961:3964   */\n      0x80\n        /* \"#utility.yul\":3946:3965   */\n      dup7\n      add\n        /* \"#utility.yul\":3933:3966   */\n      calldataload\n      swap6\n        /* \"#utility.yul\":4063:4066   */\n      0xa0\n        /* \"#utility.yul\":4048:4067   */\n      add\n        /* \"#utility.yul\":4035:4068   */\n      calldataload\n      swap5\n      pop\n        /* \"#utility.yul\":3054:4100   */\n      swap3\n      pop\n      pop\n      pop\n      jump\t// out\n        /* \"#utility.yul\":4287:4667   */\n    tag_72:\n        /* \"#utility.yul\":4366:4367   */\n      0x01\n        /* \"#utility.yul\":4362:4374   */\n      dup2\n      dup2\n      shr\n      swap1\n        /* \"#utility.yul\":4409:4421   */\n      dup3\n      and\n      dup1\n        /* \"#utility.yul\":4430:4491   */\n      tag_190\n      jumpi\n        /* \"#utility.yul\":4484:4488   */\n      0x7f\n        /* \"#utility.yul\":4476:4482   */\n      dup3\n        /* \"#utility.yul\":4472:4489   */\n      and\n        /* \"#utility.yul\":4462:4489   */\n      swap2\n      pop\n        /* \"#utility.yul\":4430:4491   */\n    tag_190:\n        /* \"#utility.yul\":4537:4539   */\n      0x20\n        /* \"#utility.yul\":4529:4535   */\n      dup3\n        /* \"#utility.yul\":4526:4540   */\n      lt\n        /* \"#utility.yul\":4506:4524   */\n      dup2\n        /* \"#utility.yul\":4503:4541   */\n      sub\n        /* \"#utility.yul\":4500:4661   */\n      tag_191\n      jumpi\n        /* \"#utility.yul\":4583:4593   */\n      0x4e487b71\n        /* \"#utility.yul\":4578:4581   */\n      0xe0\n        /* \"#utility.yul\":4574:4594   */\n      shl\n        /* \"#utility.yul\":4571:4572   */\n      0x00\n        /* \"#utility.yul\":4564:4595   */\n      mstore\n        /* \"#utility.yul\":4618:4622   */\n      0x22\n        /* \"#utility.yul\":4615:4616   */\n      0x04\n        /* \"#utility.yul\":4608:4623   */\n      mstore\n        /* \"#utility.yul\":4646:4650   */\n      0x24\n        /* \"#utility.yul\":4643:4644   */\n      0x00\n        /* \"#utility.yul\":4636:4651   */\n      revert\n        /* \"#utility.yul\":4500:4661   */\n    tag_191:\n      pop\n        /* \"#utility.yul\":4287:4667   */\n      swap2\n      swap1\n      pop\n      jump\t// out\n        /* \"#utility.yul\":4672:5028   */\n    tag_83:\n        /* \"#utility.yul\":4874:4876   */\n      0x20\n        /* \"#utility.yul\":4856:4877   */\n      dup1\n      dup3\n      mstore\n        /* \"#utility.yul\":4893:4911   */\n      dup2\n      dup2\n      add\n        /* \"#utility.yul\":4886:4916   */\n      mstore\n        /* \"#utility.yul\":4952:4986   */\n      0x4f776e61626c653a2063616c6c6572206973206e6f7420746865206f776e6572\n        /* \"#utility.yul\":4947:4949   */\n      0x40\n        /* \"#utility.yul\":4932:4950   */\n      dup3\n      add\n        /* \"#utility.yul\":4925:4987   */\n      mstore\n        /* \"#utility.yul\":5019:5021   */\n      0x60\n        /* \"#utility.yul\":5004:5022   */\n      add\n      swap1\n        /* \"#utility.yul\":4672:5028   */\n      jump\t// out\n        /* \"#utility.yul\":6277:6550   */\n    tag_118:\n        /* \"#utility.yul\":6462:6468   */\n      dup2\n        /* \"#utility.yul\":6454:6460   */\n      dup4\n        /* \"#utility.yul\":6449:6452   */\n      dup3\n        /* \"#utility.yul\":6436:6469   */\n      calldatacopy\n        /* \"#utility.yul\":6418:6421   */\n      0x00\n        /* \"#utility.yul\":6488:6504   */\n      swap2\n      add\n        /* \"#utility.yul\":6513:6526   */\n      swap1\n      dup2\n      mstore\n        /* \"#utility.yul\":6488:6504   */\n      swap2\n        /* \"#utility.yul\":6277:6550   */\n      swap1\n      pop\n      jump\t// out\n        /* \"#utility.yul\":6555:7511   */\n    tag_121:\n        /* \"#utility.yul\":6882:6885   */\n      0xe0\n        /* \"#utility.yul\":6871:6880   */\n      dup2\n        /* \"#utility.yul\":6864:6886   */\n      mstore\n        /* \"#utility.yul\":6923:6929   */\n      dup8\n        /* \"#utility.yul\":6917:6920   */\n      0xe0\n        /* \"#utility.yul\":6906:6915   */\n      dup3\n        /* \"#utility.yul\":6902:6921   */\n      add\n        /* \"#utility.yul\":6895:6930   */\n      mstore\n        /* \"#utility.yul\":6981:6987   */\n      dup8\n        /* \"#utility.yul\":6973:6979   */\n      dup10\n        /* \"#utility.yul\":6967:6970   */\n      0x0100\n        /* \"#utility.yul\":6956:6965   */\n      dup4\n        /* \"#utility.yul\":6952:6971   */\n      add\n        /* \"#utility.yul\":6939:6988   */\n      calldatacopy\n        /* \"#utility.yul\":7038:7039   */\n      0x00\n        /* \"#utility.yul\":7032:7035   */\n      0x0100\n        /* \"#utility.yul\":7008:7030   */\n      dup10\n      dup4\n      add\n        /* \"#utility.yul\":7004:7036   */\n      dup2\n      add\n        /* \"#utility.yul\":6997:7040   */\n      swap2\n      swap1\n      swap2\n      mstore\n      sub(shl(0xa0, 0x01), 0x01)\n        /* \"#utility.yul\":7150:7182   */\n      swap8\n      dup9\n      and\n        /* \"#utility.yul\":7143:7147   */\n      0x20\n        /* \"#utility.yul\":7128:7148   */\n      dup4\n      add\n        /* \"#utility.yul\":7121:7183   */\n      mstore\n        /* \"#utility.yul\":7219:7251   */\n      swap6\n      dup8\n      and\n        /* \"#utility.yul\":7214:7216   */\n      0x40\n        /* \"#utility.yul\":7199:7217   */\n      dup3\n      add\n        /* \"#utility.yul\":7192:7252   */\n      mstore\n        /* \"#utility.yul\":7288:7320   */\n      swap4\n      dup7\n      and\n        /* \"#utility.yul\":7283:7285   */\n      0x60\n        /* \"#utility.yul\":7268:7286   */\n      dup6\n      add\n        /* \"#utility.yul\":7261:7321   */\n      mstore\n        /* \"#utility.yul\":7358:7390   */\n      swap2\n      dup6\n      and\n        /* \"#utility.yul\":7352:7355   */\n      0x80\n        /* \"#utility.yul\":7337:7356   */\n      dup5\n      add\n        /* \"#utility.yul\":7330:7391   */\n      mstore\n        /* \"#utility.yul\":7428:7460   */\n      swap1\n      swap4\n      and\n        /* \"#utility.yul\":7170:7173   */\n      0xa0\n        /* \"#utility.yul\":7407:7426   */\n      dup3\n      add\n        /* \"#utility.yul\":7400:7461   */\n      mstore\n        /* \"#utility.yul\":7492:7495   */\n      0xc0\n        /* \"#utility.yul\":7477:7496   */\n      dup2\n      add\n        /* \"#utility.yul\":7470:7505   */\n      swap3\n      swap1\n      swap3\n      mstore\n        /* \"#utility.yul\":7101:7103   */\n      0x1f\n        /* \"#utility.yul\":7080:7095   */\n      swap1\n      swap3\n      add\n      not(0x1f)\n        /* \"#utility.yul\":7076:7105   */\n      and\n        /* \"#utility.yul\":7061:7106   */\n      add\n        /* \"#utility.yul\":7057:7112   */\n      add\n      swap2\n      swap1\n      pop\n        /* \"#utility.yul\":6555:7511   */\n      jump\t// out\n        /* \"#utility.yul\":7516:7741   */\n    tag_123:\n        /* \"#utility.yul\":7583:7592   */\n      dup2\n      dup2\n      sub\n        /* \"#utility.yul\":7604:7615   */\n      dup2\n      dup2\n      gt\n        /* \"#utility.yul\":7601:7735   */\n      iszero\n      tag_199\n      jumpi\n        /* \"#utility.yul\":7657:7667   */\n      0x4e487b71\n        /* \"#utility.yul\":7652:7655   */\n      0xe0\n        /* \"#utility.yul\":7648:7668   */\n      shl\n        /* \"#utility.yul\":7645:7646   */\n      0x00\n        /* \"#utility.yul\":7638:7669   */\n      mstore\n        /* \"#utility.yul\":7692:7696   */\n      0x11\n        /* \"#utility.yul\":7689:7690   */\n      0x04\n        /* \"#utility.yul\":7682:7697   */\n      mstore\n        /* \"#utility.yul\":7720:7724   */\n      0x24\n        /* \"#utility.yul\":7717:7718   */\n      0x00\n        /* \"#utility.yul\":7710:7725   */\n      revert\n        /* \"#utility.yul\":7601:7735   */\n    tag_199:\n        /* \"#utility.yul\":7516:7741   */\n      swap3\n      swap2\n      pop\n      pop\n      jump\t// out\n\n    auxdata: 0xa2646970667358221220488d93c884954c7a30eafd9594b62b8e9f382d4c207cf41f32ab015b17a6c21964736f6c634300081a0033\n}\n",
				"bytecode": {
					"linkReferences": {},
					"object": "60c0604052601160809081527042726964676520466163746f727920563160781b60a0526002906100309082610187565b5034801561003d57600080fd5b50604051610e14380380610e1483398101604081905261005c91610245565b600160005561006a33610096565b6001600160a01b039091166000908152600460205260409020805460ff1916600117905560035561027f565b600180546001600160a01b038381166001600160a01b0319831681179093556040519116919082907f8be0079c531659141344cd1fd0a4f28419497f9722a3daafe3b4186f6b6457e090600090a35050565b634e487b7160e01b600052604160045260246000fd5b600181811c9082168061011257607f821691505b60208210810361013257634e487b7160e01b600052602260045260246000fd5b50919050565b601f82111561018257806000526020600020601f840160051c8101602085101561015f5750805b601f840160051c820191505b8181101561017f576000815560010161016b565b50505b505050565b81516001600160401b038111156101a0576101a06100e8565b6101b4816101ae84546100fe565b84610138565b6020601f8211600181146101e857600083156101d05750848201515b600019600385901b1c1916600184901b17845561017f565b600084815260208120601f198516915b8281101561021857878501518255602094850194600190920191016101f8565b50848210156102365786840151600019600387901b60f8161c191681555b50505050600190811b01905550565b6000806040838503121561025857600080fd5b82516001600160a01b038116811461026f57600080fd5b6020939093015192949293505050565b610b868061028e6000396000f3fe6080604052600436106100a05760003560e01c80639947ae66116100645780639947ae661461019c578063a9e52987146101cc578063b9ee2dc1146101ec578063beb08ab9146101ff578063eb2a5d2c14610227578063f2fde38b1461024b57600080fd5b806306fdde03146100ac5780634ee49df8146100d7578063715018a6146100f9578063872286d91461010e5780638da5cb5b1461016a57600080fd5b366100a757005b600080fd5b3480156100b857600080fd5b506100c161026b565b6040516100ce91906107cb565b60405180910390f35b3480156100e357600080fd5b506100f76100f2366004610835565b6102fd565b005b34801561010557600080fd5b506100f761035b565b34801561011a57600080fd5b5061015a610129366004610887565b6005602090815260009283526040909220815180830184018051928152908401929093019190912091525460ff1681565b60405190151581526020016100ce565b34801561017657600080fd5b506001546001600160a01b03165b6040516001600160a01b0390911681526020016100ce565b3480156101a857600080fd5b5061015a6101b7366004610951565b60046020526000908152604090205460ff1681565b3480156101d857600080fd5b506100f76101e7366004610973565b610391565b6100f76101fa36600461098c565b6103c0565b34801561020b57600080fd5b5061018473e11fce0b4b2ab0635ae6d0cbb0b62e33f4a8092481565b34801561023357600080fd5b5061023d60035481565b6040519081526020016100ce565b34801561025757600080fd5b506100f7610266366004610951565b6105f0565b60606002805461027a90610a42565b80601f01602080910402602001604051908101604052809291908181526020018280546102a690610a42565b80156102f35780601f106102c8576101008083540402835291602001916102f3565b820191906000526020600020905b8154815290600101906020018083116102d657829003601f168201915b5050505050905090565b6001546001600160a01b031633146103305760405162461bcd60e51b815260040161032790610a7c565b60405180910390fd5b6001600160a01b03919091166000908152600460205260409020805460ff1916911515919091179055565b6001546001600160a01b031633146103855760405162461bcd60e51b815260040161032790610a7c565b61038f600061068b565b565b6001546001600160a01b031633146103bb5760405162461bcd60e51b815260040161032790610a7c565b600355565b6001600160a01b03871660009081526004602052604090205460ff16151560011461042d5760405162461bcd60e51b815260206004820152601a60248201527f436f6e747261637420627269646765206e6f7420666f756e642e0000000000006044820152606401610327565b6003543410156104705760405162461bcd60e51b815260206004820152600e60248201526d125b9d985b1a5908185b5bdd5b9d60921b6044820152606401610327565b60035473e11fce0b4b2ab0635ae6d0cbb0b62e33f4a80924906104949082906106dd565b600061049f89610779565b90506001600160a01b03811663d542a50189336040516001600160e01b031960e085901b1681526001600160a01b0392831660048201529082166024820152908a166044820152606481018790526084810186905260a401600060405180830381600087803b15801561051157600080fd5b505af1158015610525573d6000803e3d6000fd5b5050506001600160a01b038a16600090815260056020526040908190209051600192506105559089908990610ab1565b908152604051908190036020019020805491151560ff199092169190911790557ffe8a7a9595db69482b6c9512a38547e2fa37941360a12778c7887eb4348e01848686836105a03390565b8b8e8e6003546040516105ba989796959493929190610ac1565b60405180910390a16000600354346105d29190610b29565b905080156105e4576105e433826106dd565b50505050505050505050565b6001546001600160a01b0316331461061a5760405162461bcd60e51b815260040161032790610a7c565b6001600160a01b03811661067f5760405162461bcd60e51b815260206004820152602660248201527f4f776e61626c653a206e6577206f776e657220697320746865207a65726f206160448201526564647265737360d01b6064820152608401610327565b6106888161068b565b50565b600180546001600160a01b038381166001600160a01b0319831681179093556040519116919082907f8be0079c531659141344cd1fd0a4f28419497f9722a3daafe3b4186f6b6457e090600090a35050565b804710156107005760405163cd78605960e01b8152306004820152602401610327565b6000826001600160a01b03168260405160006040518083038185875af1925050503d806000811461074d576040519150601f19603f3d011682016040523d82523d6000602084013e610752565b606091505b505090508061077457604051630a12f52160e11b815260040160405180910390fd5b505050565b6000808260601b9050604051733d602d80600a3d3981f3363d3d373d3d3d363d7360601b81528160148201526e5af43d82803e903d91602b57fd5bf360881b60288201526037816000f0949350505050565b602081526000825180602084015260005b818110156107f957602081860181015160408684010152016107dc565b506000604082850101526040601f19601f83011684010191505092915050565b80356001600160a01b038116811461083057600080fd5b919050565b6000806040838503121561084857600080fd5b61085183610819565b91506020830135801515811461086657600080fd5b809150509250929050565b634e487b7160e01b600052604160045260246000fd5b6000806040838503121561089a57600080fd5b6108a383610819565b9150602083013567ffffffffffffffff8111156108bf57600080fd5b8301601f810185136108d057600080fd5b803567ffffffffffffffff8111156108ea576108ea610871565b604051601f8201601f19908116603f0116810167ffffffffffffffff8111828210171561091957610919610871565b60405281815282820160200187101561093157600080fd5b816020840160208301376000602083830101528093505050509250929050565b60006020828403121561096357600080fd5b61096c82610819565b9392505050565b60006020828403121561098557600080fd5b5035919050565b600080600080600080600060c0888a0312156109a757600080fd5b6109b088610819565b96506109be60208901610819565b95506109cc60408901610819565b9450606088013567ffffffffffffffff8111156109e857600080fd5b8801601f81018a136109f957600080fd5b803567ffffffffffffffff811115610a1057600080fd5b8a6020828401011115610a2257600080fd5b979a96995094976020909501969560808601359560a00135945092505050565b600181811c90821680610a5657607f821691505b602082108103610a7657634e487b7160e01b600052602260045260246000fd5b50919050565b6020808252818101527f4f776e61626c653a2063616c6c6572206973206e6f7420746865206f776e6572604082015260600190565b8183823760009101908152919050565b60e081528760e0820152878961010083013760006101008983018101919091526001600160a01b03978816602083015295871660408201529386166060850152918516608084015290931660a082015260c0810192909252601f909201601f19160101919050565b81810381811115610b4a57634e487b7160e01b600052601160045260246000fd5b9291505056fea2646970667358221220488d93c884954c7a30eafd9594b62b8e9f382d4c207cf41f32ab015b17a6c21964736f6c634300081a0033",
					"opcodes": "PUSH1 0xC0 PUSH1 0x40 MSTORE PUSH1 0x11 PUSH1 0x80 SWAP1 DUP2 MSTORE PUSH17 0x42726964676520466163746F7279205631 PUSH1 0x78 SHL PUSH1 0xA0 MSTORE PUSH1 0x2 SWAP1 PUSH2 0x30 SWAP1 DUP3 PUSH2 0x187 JUMP JUMPDEST POP CALLVALUE DUP1 ISZERO PUSH2 0x3D JUMPI PUSH1 0x0 DUP1 REVERT JUMPDEST POP PUSH1 0x40 MLOAD PUSH2 0xE14 CODESIZE SUB DUP1 PUSH2 0xE14 DUP4 CODECOPY DUP2 ADD PUSH1 0x40 DUP2 SWAP1 MSTORE PUSH2 0x5C SWAP2 PUSH2 0x245 JUMP JUMPDEST PUSH1 0x1 PUSH1 0x0 SSTORE PUSH2 0x6A CALLER PUSH2 0x96 JUMP JUMPDEST PUSH1 0x1 PUSH1 0x1 PUSH1 0xA0 SHL SUB SWAP1 SWAP2 AND PUSH1 0x0 SWAP1 DUP2 MSTORE PUSH1 0x4 PUSH1 0x20 MSTORE PUSH1 0x40 SWAP1 KECCAK256 DUP1 SLOAD PUSH1 0xFF NOT AND PUSH1 0x1 OR SWAP1 SSTORE PUSH1 0x3 SSTORE PUSH2 0x27F JUMP JUMPDEST PUSH1 0x1 DUP1 SLOAD PUSH1 0x1 PUSH1 0x1 PUSH1 0xA0 SHL SUB DUP4 DUP2 AND PUSH1 0x1 PUSH1 0x1 PUSH1 0xA0 SHL SUB NOT DUP4 AND DUP2 OR SWAP1 SWAP4 SSTORE PUSH1 0x40 MLOAD SWAP2 AND SWAP2 SWAP1 DUP3 SWAP1 PUSH32 0x8BE0079C531659141344CD1FD0A4F28419497F9722A3DAAFE3B4186F6B6457E0 SWAP1 PUSH1 0x0 SWAP1 LOG3 POP POP JUMP JUMPDEST PUSH4 0x4E487B71 PUSH1 0xE0 SHL PUSH1 0x0 MSTORE PUSH1 0x41 PUSH1 0x4 MSTORE PUSH1 0x24 PUSH1 0x0 REVERT JUMPDEST PUSH1 0x1 DUP2 DUP2 SHR SWAP1 DUP3 AND DUP1 PUSH2 0x112 JUMPI PUSH1 0x7F DUP3 AND SWAP2 POP JUMPDEST PUSH1 0x20 DUP3 LT DUP2 SUB PUSH2 0x132 JUMPI PUSH4 0x4E487B71 PUSH1 0xE0 SHL PUSH1 0x0 MSTORE PUSH1 0x22 PUSH1 0x4 MSTORE PUSH1 0x24 PUSH1 0x0 REVERT JUMPDEST POP SWAP2 SWAP1 POP JUMP JUMPDEST PUSH1 0x1F DUP3 GT ISZERO PUSH2 0x182 JUMPI DUP1 PUSH1 0x0 MSTORE PUSH1 0x20 PUSH1 0x0 KECCAK256 PUSH1 0x1F DUP5 ADD PUSH1 0x5 SHR DUP2 ADD PUSH1 0x20 DUP6 LT ISZERO PUSH2 0x15F JUMPI POP DUP1 JUMPDEST PUSH1 0x1F DUP5 ADD PUSH1 0x5 SHR DUP3 ADD SWAP2 POP JUMPDEST DUP2 DUP2 LT ISZERO PUSH2 0x17F JUMPI PUSH1 0x0 DUP2 SSTORE PUSH1 0x1 ADD PUSH2 0x16B JUMP JUMPDEST POP POP JUMPDEST POP POP POP JUMP JUMPDEST DUP2 MLOAD PUSH1 0x1 PUSH1 0x1 PUSH1 0x40 SHL SUB DUP2 GT ISZERO PUSH2 0x1A0 JUMPI PUSH2 0x1A0 PUSH2 0xE8 JUMP JUMPDEST PUSH2 0x1B4 DUP2 PUSH2 0x1AE DUP5 SLOAD PUSH2 0xFE JUMP JUMPDEST DUP5 PUSH2 0x138 JUMP JUMPDEST PUSH1 0x20 PUSH1 0x1F DUP3 GT PUSH1 0x1 DUP2 EQ PUSH2 0x1E8 JUMPI PUSH1 0x0 DUP4 ISZERO PUSH2 0x1D0 JUMPI POP DUP5 DUP3 ADD MLOAD JUMPDEST PUSH1 0x0 NOT PUSH1 0x3 DUP6 SWAP1 SHL SHR NOT AND PUSH1 0x1 DUP5 SWAP1 SHL OR DUP5 SSTORE PUSH2 0x17F JUMP JUMPDEST PUSH1 0x0 DUP5 DUP2 MSTORE PUSH1 0x20 DUP2 KECCAK256 PUSH1 0x1F NOT DUP6 AND SWAP2 JUMPDEST DUP3 DUP2 LT ISZERO PUSH2 0x218 JUMPI DUP8 DUP6 ADD MLOAD DUP3 SSTORE PUSH1 0x20 SWAP5 DUP6 ADD SWAP5 PUSH1 0x1 SWAP1 SWAP3 ADD SWAP2 ADD PUSH2 0x1F8 JUMP JUMPDEST POP DUP5 DUP3 LT ISZERO PUSH2 0x236 JUMPI DUP7 DUP5 ADD MLOAD PUSH1 0x0 NOT PUSH1 0x3 DUP8 SWAP1 SHL PUSH1 0xF8 AND SHR NOT AND DUP2 SSTORE JUMPDEST POP POP POP POP PUSH1 0x1 SWAP1 DUP2 SHL ADD SWAP1 SSTORE POP JUMP JUMPDEST PUSH1 0x0 DUP1 PUSH1 0x40 DUP4 DUP6 SUB SLT ISZERO PUSH2 0x258 JUMPI PUSH1 0x0 DUP1 REVERT JUMPDEST DUP3 MLOAD PUSH1 0x1 PUSH1 0x1 PUSH1 0xA0 SHL SUB DUP2 AND DUP2 EQ PUSH2 0x26F JUMPI PUSH1 0x0 DUP1 REVERT JUMPDEST PUSH1 0x20 SWAP4 SWAP1 SWAP4 ADD MLOAD SWAP3 SWAP5 SWAP3 SWAP4 POP POP POP JUMP JUMPDEST PUSH2 0xB86 DUP1 PUSH2 0x28E PUSH1 0x0 CODECOPY PUSH1 0x0 RETURN INVALID PUSH1 0x80 PUSH1 0x40 MSTORE PUSH1 0x4 CALLDATASIZE LT PUSH2 0xA0 JUMPI PUSH1 0x0 CALLDATALOAD PUSH1 0xE0 SHR DUP1 PUSH4 0x9947AE66 GT PUSH2 0x64 JUMPI DUP1 PUSH4 0x9947AE66 EQ PUSH2 0x19C JUMPI DUP1 PUSH4 0xA9E52987 EQ PUSH2 0x1CC JUMPI DUP1 PUSH4 0xB9EE2DC1 EQ PUSH2 0x1EC JUMPI DUP1 PUSH4 0xBEB08AB9 EQ PUSH2 0x1FF JUMPI DUP1 PUSH4 0xEB2A5D2C EQ PUSH2 0x227 JUMPI DUP1 PUSH4 0xF2FDE38B EQ PUSH2 0x24B JUMPI PUSH1 0x0 DUP1 REVERT JUMPDEST DUP1 PUSH4 0x6FDDE03 EQ PUSH2 0xAC JUMPI DUP1 PUSH4 0x4EE49DF8 EQ PUSH2 0xD7 JUMPI DUP1 PUSH4 0x715018A6 EQ PUSH2 0xF9 JUMPI DUP1 PUSH4 0x872286D9 EQ PUSH2 0x10E JUMPI DUP1 PUSH4 0x8DA5CB5B EQ PUSH2 0x16A JUMPI PUSH1 0x0 DUP1 REVERT JUMPDEST CALLDATASIZE PUSH2 0xA7 JUMPI STOP JUMPDEST PUSH1 0x0 DUP1 REVERT JUMPDEST CALLVALUE DUP1 ISZERO PUSH2 0xB8 JUMPI PUSH1 0x0 DUP1 REVERT JUMPDEST POP PUSH2 0xC1 PUSH2 0x26B JUMP JUMPDEST PUSH1 0x40 MLOAD PUSH2 0xCE SWAP2 SWAP1 PUSH2 0x7CB JUMP JUMPDEST PUSH1 0x40 MLOAD DUP1 SWAP2 SUB SWAP1 RETURN JUMPDEST CALLVALUE DUP1 ISZERO PUSH2 0xE3 JUMPI PUSH1 0x0 DUP1 REVERT JUMPDEST POP PUSH2 0xF7 PUSH2 0xF2 CALLDATASIZE PUSH1 0x4 PUSH2 0x835 JUMP JUMPDEST PUSH2 0x2FD JUMP JUMPDEST STOP JUMPDEST CALLVALUE DUP1 ISZERO PUSH2 0x105 JUMPI PUSH1 0x0 DUP1 REVERT JUMPDEST POP PUSH2 0xF7 PUSH2 0x35B JUMP JUMPDEST CALLVALUE DUP1 ISZERO PUSH2 0x11A JUMPI PUSH1 0x0 DUP1 REVERT JUMPDEST POP PUSH2 0x15A PUSH2 0x129 CALLDATASIZE PUSH1 0x4 PUSH2 0x887 JUMP JUMPDEST PUSH1 0x5 PUSH1 0x20 SWAP1 DUP2 MSTORE PUSH1 0x0 SWAP3 DUP4 MSTORE PUSH1 0x40 SWAP1 SWAP3 KECCAK256 DUP2 MLOAD DUP1 DUP4 ADD DUP5 ADD DUP1 MLOAD SWAP3 DUP2 MSTORE SWAP1 DUP5 ADD SWAP3 SWAP1 SWAP4 ADD SWAP2 SWAP1 SWAP2 KECCAK256 SWAP2 MSTORE SLOAD PUSH1 0xFF AND DUP2 JUMP JUMPDEST PUSH1 0x40 MLOAD SWAP1 ISZERO ISZERO DUP2 MSTORE PUSH1 0x20 ADD PUSH2 0xCE JUMP JUMPDEST CALLVALUE DUP1 ISZERO PUSH2 0x176 JUMPI PUSH1 0x0 DUP1 REVERT JUMPDEST POP PUSH1 0x1 SLOAD PUSH1 0x1 PUSH1 0x1 PUSH1 0xA0 SHL SUB AND JUMPDEST PUSH1 0x40 MLOAD PUSH1 0x1 PUSH1 0x1 PUSH1 0xA0 SHL SUB SWAP1 SWAP2 AND DUP2 MSTORE PUSH1 0x20 ADD PUSH2 0xCE JUMP JUMPDEST CALLVALUE DUP1 ISZERO PUSH2 0x1A8 JUMPI PUSH1 0x0 DUP1 REVERT JUMPDEST POP PUSH2 0x15A PUSH2 0x1B7 CALLDATASIZE PUSH1 0x4 PUSH2 0x951 JUMP JUMPDEST PUSH1 0x4 PUSH1 0x20 MSTORE PUSH1 0x0 SWAP1 DUP2 MSTORE PUSH1 0x40 SWAP1 KECCAK256 SLOAD PUSH1 0xFF AND DUP2 JUMP JUMPDEST CALLVALUE DUP1 ISZERO PUSH2 0x1D8 JUMPI PUSH1 0x0 DUP1 REVERT JUMPDEST POP PUSH2 0xF7 PUSH2 0x1E7 CALLDATASIZE PUSH1 0x4 PUSH2 0x973 JUMP JUMPDEST PUSH2 0x391 JUMP JUMPDEST PUSH2 0xF7 PUSH2 0x1FA CALLDATASIZE PUSH1 0x4 PUSH2 0x98C JUMP JUMPDEST PUSH2 0x3C0 JUMP JUMPDEST CALLVALUE DUP1 ISZERO PUSH2 0x20B JUMPI PUSH1 0x0 DUP1 REVERT JUMPDEST POP PUSH2 0x184 PUSH20 0xE11FCE0B4B2AB0635AE6D0CBB0B62E33F4A80924 DUP2 JUMP JUMPDEST CALLVALUE DUP1 ISZERO PUSH2 0x233 JUMPI PUSH1 0x0 DUP1 REVERT JUMPDEST POP PUSH2 0x23D PUSH1 0x3 SLOAD DUP2 JUMP JUMPDEST PUSH1 0x40 MLOAD SWAP1 DUP2 MSTORE PUSH1 0x20 ADD PUSH2 0xCE JUMP JUMPDEST CALLVALUE DUP1 ISZERO PUSH2 0x257 JUMPI PUSH1 0x0 DUP1 REVERT JUMPDEST POP PUSH2 0xF7 PUSH2 0x266 CALLDATASIZE PUSH1 0x4 PUSH2 0x951 JUMP JUMPDEST PUSH2 0x5F0 JUMP JUMPDEST PUSH1 0x60 PUSH1 0x2 DUP1 SLOAD PUSH2 0x27A SWAP1 PUSH2 0xA42 JUMP JUMPDEST DUP1 PUSH1 0x1F ADD PUSH1 0x20 DUP1 SWAP2 DIV MUL PUSH1 0x20 ADD PUSH1 0x40 MLOAD SWAP1 DUP2 ADD PUSH1 0x40 MSTORE DUP1 SWAP3 SWAP2 SWAP1 DUP2 DUP2 MSTORE PUSH1 0x20 ADD DUP3 DUP1 SLOAD PUSH2 0x2A6 SWAP1 PUSH2 0xA42 JUMP JUMPDEST DUP1 ISZERO PUSH2 0x2F3 JUMPI DUP1 PUSH1 0x1F LT PUSH2 0x2C8 JUMPI PUSH2 0x100 DUP1 DUP4 SLOAD DIV MUL DUP4 MSTORE SWAP2 PUSH1 0x20 ADD SWAP2 PUSH2 0x2F3 JUMP JUMPDEST DUP3 ADD SWAP2 SWAP1 PUSH1 0x0 MSTORE PUSH1 0x20 PUSH1 0x0 KECCAK256 SWAP1 JUMPDEST DUP2 SLOAD DUP2 MSTORE SWAP1 PUSH1 0x1 ADD SWAP1 PUSH1 0x20 ADD DUP1 DUP4 GT PUSH2 0x2D6 JUMPI DUP3 SWAP1 SUB PUSH1 0x1F AND DUP3 ADD SWAP2 JUMPDEST POP POP POP POP POP SWAP1 POP SWAP1 JUMP JUMPDEST PUSH1 0x1 SLOAD PUSH1 0x1 PUSH1 0x1 PUSH1 0xA0 SHL SUB AND CALLER EQ PUSH2 0x330 JUMPI PUSH1 0x40 MLOAD PUSH3 0x461BCD PUSH1 0xE5 SHL DUP2 MSTORE PUSH1 0x4 ADD PUSH2 0x327 SWAP1 PUSH2 0xA7C JUMP JUMPDEST PUSH1 0x40 MLOAD DUP1 SWAP2 SUB SWAP1 REVERT JUMPDEST PUSH1 0x1 PUSH1 0x1 PUSH1 0xA0 SHL SUB SWAP2 SWAP1 SWAP2 AND PUSH1 0x0 SWAP1 DUP2 MSTORE PUSH1 0x4 PUSH1 0x20 MSTORE PUSH1 0x40 SWAP1 KECCAK256 DUP1 SLOAD PUSH1 0xFF NOT AND SWAP2 ISZERO ISZERO SWAP2 SWAP1 SWAP2 OR SWAP1 SSTORE JUMP JUMPDEST PUSH1 0x1 SLOAD PUSH1 0x1 PUSH1 0x1 PUSH1 0xA0 SHL SUB AND CALLER EQ PUSH2 0x385 JUMPI PUSH1 0x40 MLOAD PUSH3 0x461BCD PUSH1 0xE5 SHL DUP2 MSTORE PUSH1 0x4 ADD PUSH2 0x327 SWAP1 PUSH2 0xA7C JUMP JUMPDEST PUSH2 0x38F PUSH1 0x0 PUSH2 0x68B JUMP JUMPDEST JUMP JUMPDEST PUSH1 0x1 SLOAD PUSH1 0x1 PUSH1 0x1 PUSH1 0xA0 SHL SUB AND CALLER EQ PUSH2 0x3BB JUMPI PUSH1 0x40 MLOAD PUSH3 0x461BCD PUSH1 0xE5 SHL DUP2 MSTORE PUSH1 0x4 ADD PUSH2 0x327 SWAP1 PUSH2 0xA7C JUMP JUMPDEST PUSH1 0x3 SSTORE JUMP JUMPDEST PUSH1 0x1 PUSH1 0x1 PUSH1 0xA0 SHL SUB DUP8 AND PUSH1 0x0 SWAP1 DUP2 MSTORE PUSH1 0x4 PUSH1 0x20 MSTORE PUSH1 0x40 SWAP1 KECCAK256 SLOAD PUSH1 0xFF AND ISZERO ISZERO PUSH1 0x1 EQ PUSH2 0x42D JUMPI PUSH1 0x40 MLOAD PUSH3 0x461BCD PUSH1 0xE5 SHL DUP2 MSTORE PUSH1 0x20 PUSH1 0x4 DUP3 ADD MSTORE PUSH1 0x1A PUSH1 0x24 DUP3 ADD MSTORE PUSH32 0x436F6E747261637420627269646765206E6F7420666F756E642E000000000000 PUSH1 0x44 DUP3 ADD MSTORE PUSH1 0x64 ADD PUSH2 0x327 JUMP JUMPDEST PUSH1 0x3 SLOAD CALLVALUE LT ISZERO PUSH2 0x470 JUMPI PUSH1 0x40 MLOAD PUSH3 0x461BCD PUSH1 0xE5 SHL DUP2 MSTORE PUSH1 0x20 PUSH1 0x4 DUP3 ADD MSTORE PUSH1 0xE PUSH1 0x24 DUP3 ADD MSTORE PUSH14 0x125B9D985B1A5908185B5BDD5B9D PUSH1 0x92 SHL PUSH1 0x44 DUP3 ADD MSTORE PUSH1 0x64 ADD PUSH2 0x327 JUMP JUMPDEST PUSH1 0x3 SLOAD PUSH20 0xE11FCE0B4B2AB0635AE6D0CBB0B62E33F4A80924 SWAP1 PUSH2 0x494 SWAP1 DUP3 SWAP1 PUSH2 0x6DD JUMP JUMPDEST PUSH1 0x0 PUSH2 0x49F DUP10 PUSH2 0x779 JUMP JUMPDEST SWAP1 POP PUSH1 0x1 PUSH1 0x1 PUSH1 0xA0 SHL SUB DUP2 AND PUSH4 0xD542A501 DUP10 CALLER PUSH1 0x40 MLOAD PUSH1 0x1 PUSH1 0x1 PUSH1 0xE0 SHL SUB NOT PUSH1 0xE0 DUP6 SWAP1 SHL AND DUP2 MSTORE PUSH1 0x1 PUSH1 0x1 PUSH1 0xA0 SHL SUB SWAP3 DUP4 AND PUSH1 0x4 DUP3 ADD MSTORE SWAP1 DUP3 AND PUSH1 0x24 DUP3 ADD MSTORE SWAP1 DUP11 AND PUSH1 0x44 DUP3 ADD MSTORE PUSH1 0x64 DUP2 ADD DUP8 SWAP1 MSTORE PUSH1 0x84 DUP2 ADD DUP7 SWAP1 MSTORE PUSH1 0xA4 ADD PUSH1 0x0 PUSH1 0x40 MLOAD DUP1 DUP4 SUB DUP2 PUSH1 0x0 DUP8 DUP1 EXTCODESIZE ISZERO DUP1 ISZERO PUSH2 0x511 JUMPI PUSH1 0x0 DUP1 REVERT JUMPDEST POP GAS CALL ISZERO DUP1 ISZERO PUSH2 0x525 JUMPI RETURNDATASIZE PUSH1 0x0 DUP1 RETURNDATACOPY RETURNDATASIZE PUSH1 0x0 REVERT JUMPDEST POP POP POP PUSH1 0x1 PUSH1 0x1 PUSH1 0xA0 SHL SUB DUP11 AND PUSH1 0x0 SWAP1 DUP2 MSTORE PUSH1 0x5 PUSH1 0x20 MSTORE PUSH1 0x40 SWAP1 DUP2 SWAP1 KECCAK256 SWAP1 MLOAD PUSH1 0x1 SWAP3 POP PUSH2 0x555 SWAP1 DUP10 SWAP1 DUP10 SWAP1 PUSH2 0xAB1 JUMP JUMPDEST SWAP1 DUP2 MSTORE PUSH1 0x40 MLOAD SWAP1 DUP2 SWAP1 SUB PUSH1 0x20 ADD SWAP1 KECCAK256 DUP1 SLOAD SWAP2 ISZERO ISZERO PUSH1 0xFF NOT SWAP1 SWAP3 AND SWAP2 SWAP1 SWAP2 OR SWAP1 SSTORE PUSH32 0xFE8A7A9595DB69482B6C9512A38547E2FA37941360A12778C7887EB4348E0184 DUP7 DUP7 DUP4 PUSH2 0x5A0 CALLER SWAP1 JUMP JUMPDEST DUP12 DUP15 DUP15 PUSH1 0x3 SLOAD PUSH1 0x40 MLOAD PUSH2 0x5BA SWAP9 SWAP8 SWAP7 SWAP6 SWAP5 SWAP4 SWAP3 SWAP2 SWAP1 PUSH2 0xAC1 JUMP JUMPDEST PUSH1 0x40 MLOAD DUP1 SWAP2 SUB SWAP1 LOG1 PUSH1 0x0 PUSH1 0x3 SLOAD CALLVALUE PUSH2 0x5D2 SWAP2 SWAP1 PUSH2 0xB29 JUMP JUMPDEST SWAP1 POP DUP1 ISZERO PUSH2 0x5E4 JUMPI PUSH2 0x5E4 CALLER DUP3 PUSH2 0x6DD JUMP JUMPDEST POP POP POP POP POP POP POP POP POP POP JUMP JUMPDEST PUSH1 0x1 SLOAD PUSH1 0x1 PUSH1 0x1 PUSH1 0xA0 SHL SUB AND CALLER EQ PUSH2 0x61A JUMPI PUSH1 0x40 MLOAD PUSH3 0x461BCD PUSH1 0xE5 SHL DUP2 MSTORE PUSH1 0x4 ADD PUSH2 0x327 SWAP1 PUSH2 0xA7C JUMP JUMPDEST PUSH1 0x1 PUSH1 0x1 PUSH1 0xA0 SHL SUB DUP2 AND PUSH2 0x67F JUMPI PUSH1 0x40 MLOAD PUSH3 0x461BCD PUSH1 0xE5 SHL DUP2 MSTORE PUSH1 0x20 PUSH1 0x4 DUP3 ADD MSTORE PUSH1 0x26 PUSH1 0x24 DUP3 ADD MSTORE PUSH32 0x4F776E61626C653A206E6577206F776E657220697320746865207A65726F2061 PUSH1 0x44 DUP3 ADD MSTORE PUSH6 0x646472657373 PUSH1 0xD0 SHL PUSH1 0x64 DUP3 ADD MSTORE PUSH1 0x84 ADD PUSH2 0x327 JUMP JUMPDEST PUSH2 0x688 DUP2 PUSH2 0x68B JUMP JUMPDEST POP JUMP JUMPDEST PUSH1 0x1 DUP1 SLOAD PUSH1 0x1 PUSH1 0x1 PUSH1 0xA0 SHL SUB DUP4 DUP2 AND PUSH1 0x1 PUSH1 0x1 PUSH1 0xA0 SHL SUB NOT DUP4 AND DUP2 OR SWAP1 SWAP4 SSTORE PUSH1 0x40 MLOAD SWAP2 AND SWAP2 SWAP1 DUP3 SWAP1 PUSH32 0x8BE0079C531659141344CD1FD0A4F28419497F9722A3DAAFE3B4186F6B6457E0 SWAP1 PUSH1 0x0 SWAP1 LOG3 POP POP JUMP JUMPDEST DUP1 SELFBALANCE LT ISZERO PUSH2 0x700 JUMPI PUSH1 0x40 MLOAD PUSH4 0xCD786059 PUSH1 0xE0 SHL DUP2 MSTORE ADDRESS PUSH1 0x4 DUP3 ADD MSTORE PUSH1 0x24 ADD PUSH2 0x327 JUMP JUMPDEST PUSH1 0x0 DUP3 PUSH1 0x1 PUSH1 0x1 PUSH1 0xA0 SHL SUB AND DUP3 PUSH1 0x40 MLOAD PUSH1 0x0 PUSH1 0x40 MLOAD DUP1 DUP4 SUB DUP2 DUP6 DUP8 GAS CALL SWAP3 POP POP POP RETURNDATASIZE DUP1 PUSH1 0x0 DUP2 EQ PUSH2 0x74D JUMPI PUSH1 0x40 MLOAD SWAP2 POP PUSH1 0x1F NOT PUSH1 0x3F RETURNDATASIZE ADD AND DUP3 ADD PUSH1 0x40 MSTORE RETURNDATASIZE DUP3 MSTORE RETURNDATASIZE PUSH1 0x0 PUSH1 0x20 DUP5 ADD RETURNDATACOPY PUSH2 0x752 JUMP JUMPDEST PUSH1 0x60 SWAP2 POP JUMPDEST POP POP SWAP1 POP DUP1 PUSH2 0x774 JUMPI PUSH1 0x40 MLOAD PUSH4 0xA12F521 PUSH1 0xE1 SHL DUP2 MSTORE PUSH1 0x4 ADD PUSH1 0x40 MLOAD DUP1 SWAP2 SUB SWAP1 REVERT JUMPDEST POP POP POP JUMP JUMPDEST PUSH1 0x0 DUP1 DUP3 PUSH1 0x60 SHL SWAP1 POP PUSH1 0x40 MLOAD PUSH20 0x3D602D80600A3D3981F3363D3D373D3D3D363D73 PUSH1 0x60 SHL DUP2 MSTORE DUP2 PUSH1 0x14 DUP3 ADD MSTORE PUSH15 0x5AF43D82803E903D91602B57FD5BF3 PUSH1 0x88 SHL PUSH1 0x28 DUP3 ADD MSTORE PUSH1 0x37 DUP2 PUSH1 0x0 CREATE SWAP5 SWAP4 POP POP POP POP JUMP JUMPDEST PUSH1 0x20 DUP2 MSTORE PUSH1 0x0 DUP3 MLOAD DUP1 PUSH1 0x20 DUP5 ADD MSTORE PUSH1 0x0 JUMPDEST DUP2 DUP2 LT ISZERO PUSH2 0x7F9 JUMPI PUSH1 0x20 DUP2 DUP7 ADD DUP2 ADD MLOAD PUSH1 0x40 DUP7 DUP5 ADD ADD MSTORE ADD PUSH2 0x7DC JUMP JUMPDEST POP PUSH1 0x0 PUSH1 0x40 DUP3 DUP6 ADD ADD MSTORE PUSH1 0x40 PUSH1 0x1F NOT PUSH1 0x1F DUP4 ADD AND DUP5 ADD ADD SWAP2 POP POP SWAP3 SWAP2 POP POP JUMP JUMPDEST DUP1 CALLDATALOAD PUSH1 0x1 PUSH1 0x1 PUSH1 0xA0 SHL SUB DUP2 AND DUP2 EQ PUSH2 0x830 JUMPI PUSH1 0x0 DUP1 REVERT JUMPDEST SWAP2 SWAP1 POP JUMP JUMPDEST PUSH1 0x0 DUP1 PUSH1 0x40 DUP4 DUP6 SUB SLT ISZERO PUSH2 0x848 JUMPI PUSH1 0x0 DUP1 REVERT JUMPDEST PUSH2 0x851 DUP4 PUSH2 0x819 JUMP JUMPDEST SWAP2 POP PUSH1 0x20 DUP4 ADD CALLDATALOAD DUP1 ISZERO ISZERO DUP2 EQ PUSH2 0x866 JUMPI PUSH1 0x0 DUP1 REVERT JUMPDEST DUP1 SWAP2 POP POP SWAP3 POP SWAP3 SWAP1 POP JUMP JUMPDEST PUSH4 0x4E487B71 PUSH1 0xE0 SHL PUSH1 0x0 MSTORE PUSH1 0x41 PUSH1 0x4 MSTORE PUSH1 0x24 PUSH1 0x0 REVERT JUMPDEST PUSH1 0x0 DUP1 PUSH1 0x40 DUP4 DUP6 SUB SLT ISZERO PUSH2 0x89A JUMPI PUSH1 0x0 DUP1 REVERT JUMPDEST PUSH2 0x8A3 DUP4 PUSH2 0x819 JUMP JUMPDEST SWAP2 POP PUSH1 0x20 DUP4 ADD CALLDATALOAD PUSH8 0xFFFFFFFFFFFFFFFF DUP2 GT ISZERO PUSH2 0x8BF JUMPI PUSH1 0x0 DUP1 REVERT JUMPDEST DUP4 ADD PUSH1 0x1F DUP2 ADD DUP6 SGT PUSH2 0x8D0 JUMPI PUSH1 0x0 DUP1 REVERT JUMPDEST DUP1 CALLDATALOAD PUSH8 0xFFFFFFFFFFFFFFFF DUP2 GT ISZERO PUSH2 0x8EA JUMPI PUSH2 0x8EA PUSH2 0x871 JUMP JUMPDEST PUSH1 0x40 MLOAD PUSH1 0x1F DUP3 ADD PUSH1 0x1F NOT SWAP1 DUP2 AND PUSH1 0x3F ADD AND DUP2 ADD PUSH8 0xFFFFFFFFFFFFFFFF DUP2 GT DUP3 DUP3 LT OR ISZERO PUSH2 0x919 JUMPI PUSH2 0x919 PUSH2 0x871 JUMP JUMPDEST PUSH1 0x40 MSTORE DUP2 DUP2 MSTORE DUP3 DUP3 ADD PUSH1 0x20 ADD DUP8 LT ISZERO PUSH2 0x931 JUMPI PUSH1 0x0 DUP1 REVERT JUMPDEST DUP2 PUSH1 0x20 DUP5 ADD PUSH1 0x20 DUP4 ADD CALLDATACOPY PUSH1 0x0 PUSH1 0x20 DUP4 DUP4 ADD ADD MSTORE DUP1 SWAP4 POP POP POP POP SWAP3 POP SWAP3 SWAP1 POP JUMP JUMPDEST PUSH1 0x0 PUSH1 0x20 DUP3 DUP5 SUB SLT ISZERO PUSH2 0x963 JUMPI PUSH1 0x0 DUP1 REVERT JUMPDEST PUSH2 0x96C DUP3 PUSH2 0x819 JUMP JUMPDEST SWAP4 SWAP3 POP POP POP JUMP JUMPDEST PUSH1 0x0 PUSH1 0x20 DUP3 DUP5 SUB SLT ISZERO PUSH2 0x985 JUMPI PUSH1 0x0 DUP1 REVERT JUMPDEST POP CALLDATALOAD SWAP2 SWAP1 POP JUMP JUMPDEST PUSH1 0x0 DUP1 PUSH1 0x0 DUP1 PUSH1 0x0 DUP1 PUSH1 0x0 PUSH1 0xC0 DUP9 DUP11 SUB SLT ISZERO PUSH2 0x9A7 JUMPI PUSH1 0x0 DUP1 REVERT JUMPDEST PUSH2 0x9B0 DUP9 PUSH2 0x819 JUMP JUMPDEST SWAP7 POP PUSH2 0x9BE PUSH1 0x20 DUP10 ADD PUSH2 0x819 JUMP JUMPDEST SWAP6 POP PUSH2 0x9CC PUSH1 0x40 DUP10 ADD PUSH2 0x819 JUMP JUMPDEST SWAP5 POP PUSH1 0x60 DUP9 ADD CALLDATALOAD PUSH8 0xFFFFFFFFFFFFFFFF DUP2 GT ISZERO PUSH2 0x9E8 JUMPI PUSH1 0x0 DUP1 REVERT JUMPDEST DUP9 ADD PUSH1 0x1F DUP2 ADD DUP11 SGT PUSH2 0x9F9 JUMPI PUSH1 0x0 DUP1 REVERT JUMPDEST DUP1 CALLDATALOAD PUSH8 0xFFFFFFFFFFFFFFFF DUP2 GT ISZERO PUSH2 0xA10 JUMPI PUSH1 0x0 DUP1 REVERT JUMPDEST DUP11 PUSH1 0x20 DUP3 DUP5 ADD ADD GT ISZERO PUSH2 0xA22 JUMPI PUSH1 0x0 DUP1 REVERT JUMPDEST SWAP8 SWAP11 SWAP7 SWAP10 POP SWAP5 SWAP8 PUSH1 0x20 SWAP1 SWAP6 ADD SWAP7 SWAP6 PUSH1 0x80 DUP7 ADD CALLDATALOAD SWAP6 PUSH1 0xA0 ADD CALLDATALOAD SWAP5 POP SWAP3 POP POP POP JUMP JUMPDEST PUSH1 0x1 DUP2 DUP2 SHR SWAP1 DUP3 AND DUP1 PUSH2 0xA56 JUMPI PUSH1 0x7F DUP3 AND SWAP2 POP JUMPDEST PUSH1 0x20 DUP3 LT DUP2 SUB PUSH2 0xA76 JUMPI PUSH4 0x4E487B71 PUSH1 0xE0 SHL PUSH1 0x0 MSTORE PUSH1 0x22 PUSH1 0x4 MSTORE PUSH1 0x24 PUSH1 0x0 REVERT JUMPDEST POP SWAP2 SWAP1 POP JUMP JUMPDEST PUSH1 0x20 DUP1 DUP3 MSTORE DUP2 DUP2 ADD MSTORE PUSH32 0x4F776E61626C653A2063616C6C6572206973206E6F7420746865206F776E6572 PUSH1 0x40 DUP3 ADD MSTORE PUSH1 0x60 ADD SWAP1 JUMP JUMPDEST DUP2 DUP4 DUP3 CALLDATACOPY PUSH1 0x0 SWAP2 ADD SWAP1 DUP2 MSTORE SWAP2 SWAP1 POP JUMP JUMPDEST PUSH1 0xE0 DUP2 MSTORE DUP8 PUSH1 0xE0 DUP3 ADD MSTORE DUP8 DUP10 PUSH2 0x100 DUP4 ADD CALLDATACOPY PUSH1 0x0 PUSH2 0x100 DUP10 DUP4 ADD DUP2 ADD SWAP2 SWAP1 SWAP2 MSTORE PUSH1 0x1 PUSH1 0x1 PUSH1 0xA0 SHL SUB SWAP8 DUP9 AND PUSH1 0x20 DUP4 ADD MSTORE SWAP6 DUP8 AND PUSH1 0x40 DUP3 ADD MSTORE SWAP4 DUP7 AND PUSH1 0x60 DUP6 ADD MSTORE SWAP2 DUP6 AND PUSH1 0x80 DUP5 ADD MSTORE SWAP1 SWAP4 AND PUSH1 0xA0 DUP3 ADD MSTORE PUSH1 0xC0 DUP2 ADD SWAP3 SWAP1 SWAP3 MSTORE PUSH1 0x1F SWAP1 SWAP3 ADD PUSH1 0x1F NOT AND ADD ADD SWAP2 SWAP1 POP JUMP JUMPDEST DUP2 DUP2 SUB DUP2 DUP2 GT ISZERO PUSH2 0xB4A JUMPI PUSH4 0x4E487B71 PUSH1 0xE0 SHL PUSH1 0x0 MSTORE PUSH1 0x11 PUSH1 0x4 MSTORE PUSH1 0x24 PUSH1 0x0 REVERT JUMPDEST SWAP3 SWAP2 POP POP JUMP INVALID LOG2 PUSH5 0x6970667358 0x22 SLT KECCAK256 BASEFEE DUP14 SWAP4 0xC8 DUP5 SWAP6 0x4C PUSH27 0x30EAFD9594B62B8E9F382D4C207CF41F32AB015B17A6C21964736F PUSH13 0x634300081A0033000000000000 "
				},
				"gasEstimates": {
					"creation": {
						"codeDepositCost": "590000",
						"executionCost": "infinite",
						"totalCost": "infinite"
					},
					"external": {
						"checkUnique(address,string)": "infinite",
						"deployFee()": "1083",
						"deployedBridge(address,address,address,string,uint256,uint256)": "infinite",
						"listBridge(address)": "1231",
						"name()": "infinite",
						"owner()": "1109",
						"projectWallet()": "282",
						"renounceOwnership()": "23462",
						"setDeployFee(uint256)": "21086",
						"setListBridge(address,bool)": "22157",
						"transferOwnership(address)": "23722"
					}
				},
				"methodIdentifiers": {
					"checkUnique(address,string)": "872286d9",
					"deployFee()": "eb2a5d2c",
					"deployedBridge(address,address,address,string,uint256,uint256)": "b9ee2dc1",
					"listBridge(address)": "9947ae66",
					"name()": "06fdde03",
					"owner()": "8da5cb5b",
					"projectWallet()": "beb08ab9",
					"renounceOwnership()": "715018a6",
					"setDeployFee(uint256)": "a9e52987",
					"setListBridge(address,bool)": "4ee49df8",
					"transferOwnership(address)": "f2fde38b"
				}
			},
			"storageLayout": {
				"storage": [
					{
						"astId": 866,
						"contract": "contracts/Factory.sol:Factory",
						"label": "_status",
						"offset": 0,
						"slot": "0",
						"type": "t_uint256"
					},
					{
						"astId": 759,
						"contract": "contracts/Factory.sol:Factory",
						"label": "_owner",
						"offset": 0,
						"slot": "1",
						"type": "t_address"
					},
					{
						"astId": 363,
						"contract": "contracts/Factory.sol:Factory",
						"label": "_name",
						"offset": 0,
						"slot": "2",
						"type": "t_string_storage"
					},
					{
						"astId": 371,
						"contract": "contracts/Factory.sol:Factory",
						"label": "deployFee",
						"offset": 0,
						"slot": "3",
						"type": "t_uint256"
					},
					{
						"astId": 375,
						"contract": "contracts/Factory.sol:Factory",
						"label": "listBridge",
						"offset": 0,
						"slot": "4",
						"type": "t_mapping(t_address,t_bool)"
					},
					{
						"astId": 381,
						"contract": "contracts/Factory.sol:Factory",
						"label": "checkUnique",
						"offset": 0,
						"slot": "5",
						"type": "t_mapping(t_address,t_mapping(t_string_memory_ptr,t_bool))"
					}
				],
				"types": {
					"t_address": {
						"encoding": "inplace",
						"label": "address",
						"numberOfBytes": "20"
					},
					"t_bool": {
						"encoding": "inplace",
						"label": "bool",
						"numberOfBytes": "1"
					},
					"t_mapping(t_address,t_bool)": {
						"encoding": "mapping",
						"key": "t_address",
						"label": "mapping(address => bool)",
						"numberOfBytes": "32",
						"value": "t_bool"
					},
					"t_mapping(t_address,t_mapping(t_string_memory_ptr,t_bool))": {
						"encoding": "mapping",
						"key": "t_address",
						"label": "mapping(address => mapping(string => bool))",
						"numberOfBytes": "32",
						"value": "t_mapping(t_string_memory_ptr,t_bool)"
					},
					"t_mapping(t_string_memory_ptr,t_bool)": {
						"encoding": "mapping",
						"key": "t_string_memory_ptr",
						"label": "mapping(string => bool)",
						"numberOfBytes": "32",
						"value": "t_bool"
					},
					"t_string_memory_ptr": {
						"encoding": "bytes",
						"label": "string",
						"numberOfBytes": "32"
					},
					"t_string_storage": {
						"encoding": "bytes",
						"label": "string",
						"numberOfBytes": "32"
					},
					"t_uint256": {
						"encoding": "inplace",
						"label": "uint256",
						"numberOfBytes": "32"
					}
				}
			},
			"userdoc": {
				"kind": "user",
				"methods": {},
				"version": 1
			}
		}
	}
}