{
	"contracts/Bridge.sol": {
		"Bridge": {
			"abi": [
				{
					"inputs": [],
					"name": "AccessControlBadConfirmation",
					"type": "error"
				},
				{
					"inputs": [
						{
							"internalType": "address",
							"name": "account",
							"type": "address"
						},
						{
							"internalType": "bytes32",
							"name": "neededRole",
							"type": "bytes32"
						}
					],
					"name": "AccessControlUnauthorizedAccount",
					"type": "error"
				},
				{
					"inputs": [
						{
							"internalType": "address",
							"name": "target",
							"type": "address"
						}
					],
					"name": "AddressEmptyCode",
					"type": "error"
				},
				{
					"inputs": [
						{
							"internalType": "address",
							"name": "account",
							"type": "address"
						}
					],
					"name": "AddressInsufficientBalance",
					"type": "error"
				},
				{
					"inputs": [],
					"name": "FailedInnerCall",
					"type": "error"
				},
				{
					"inputs": [
						{
							"internalType": "address",
							"name": "token",
							"type": "address"
						}
					],
					"name": "SafeERC20FailedOperation",
					"type": "error"
				},
				{
					"anonymous": false,
					"inputs": [
						{
							"indexed": false,
							"internalType": "address",
							"name": "from",
							"type": "address"
						},
						{
							"indexed": false,
							"internalType": "uint256",
							"name": "amount",
							"type": "uint256"
						},
						{
							"indexed": false,
							"internalType": "string",
							"name": "toAddress",
							"type": "string"
						},
						{
							"indexed": false,
							"internalType": "string",
							"name": "toBlockchain",
							"type": "string"
						}
					],
					"name": "CrossRequest",
					"type": "event"
				},
				{
					"anonymous": false,
					"inputs": [
						{
							"indexed": false,
							"internalType": "uint256",
							"name": "oldFee",
							"type": "uint256"
						},
						{
							"indexed": false,
							"internalType": "uint256",
							"name": "newFee",
							"type": "uint256"
						}
					],
					"name": "FeePercentageBridgeChanged",
					"type": "event"
				},
				{
					"anonymous": false,
					"inputs": [
						{
							"indexed": false,
							"internalType": "string",
							"name": "blockchainName",
							"type": "string"
						},
						{
							"indexed": false,
							"internalType": "uint256",
							"name": "oldAmount",
							"type": "uint256"
						},
						{
							"indexed": false,
							"internalType": "uint256",
							"name": "newAmount",
							"type": "uint256"
						}
					],
					"name": "MinTokenAmountChanged",
					"type": "event"
				},
				{
					"anonymous": false,
					"inputs": [
						{
							"indexed": false,
							"internalType": "address",
							"name": "owner",
							"type": "address"
						}
					],
					"name": "OwnerChanged",
					"type": "event"
				},
				{
					"anonymous": false,
					"inputs": [
						{
							"indexed": false,
							"internalType": "address",
							"name": "account",
							"type": "address"
						}
					],
					"name": "Paused",
					"type": "event"
				},
				{
					"anonymous": false,
					"inputs": [
						{
							"indexed": true,
							"internalType": "bytes32",
							"name": "role",
							"type": "bytes32"
						},
						{
							"indexed": true,
							"internalType": "bytes32",
							"name": "previousAdminRole",
							"type": "bytes32"
						},
						{
							"indexed": true,
							"internalType": "bytes32",
							"name": "newAdminRole",
							"type": "bytes32"
						}
					],
					"name": "RoleAdminChanged",
					"type": "event"
				},
				{
					"anonymous": false,
					"inputs": [
						{
							"indexed": true,
							"internalType": "bytes32",
							"name": "role",
							"type": "bytes32"
						},
						{
							"indexed": true,
							"internalType": "address",
							"name": "account",
							"type": "address"
						},
						{
							"indexed": true,
							"internalType": "address",
							"name": "sender",
							"type": "address"
						}
					],
					"name": "RoleGranted",
					"type": "event"
				},
				{
					"anonymous": false,
					"inputs": [
						{
							"indexed": true,
							"internalType": "bytes32",
							"name": "role",
							"type": "bytes32"
						},
						{
							"indexed": true,
							"internalType": "address",
							"name": "account",
							"type": "address"
						},
						{
							"indexed": true,
							"internalType": "address",
							"name": "sender",
							"type": "address"
						}
					],
					"name": "RoleRevoked",
					"type": "event"
				},
				{
					"anonymous": false,
					"inputs": [
						{
							"indexed": false,
							"internalType": "address",
							"name": "tokenAddress",
							"type": "address"
						}
					],
					"name": "TokenChanged",
					"type": "event"
				},
				{
					"anonymous": false,
					"inputs": [
						{
							"indexed": false,
							"internalType": "address",
							"name": "account",
							"type": "address"
						}
					],
					"name": "Unpaused",
					"type": "event"
				},
				{
					"inputs": [],
					"name": "DEFAULT_ADMIN_ROLE",
					"outputs": [
						{
							"internalType": "bytes32",
							"name": "",
							"type": "bytes32"
						}
					],
					"stateMutability": "view",
					"type": "function"
				},
				{
					"inputs": [],
					"name": "FEE_NATIVE",
					"outputs": [
						{
							"internalType": "uint256",
							"name": "",
							"type": "uint256"
						}
					],
					"stateMutability": "view",
					"type": "function"
				},
				{
					"inputs": [],
					"name": "MONITOR_ROLE",
					"outputs": [
						{
							"internalType": "bytes32",
							"name": "",
							"type": "bytes32"
						}
					],
					"stateMutability": "view",
					"type": "function"
				},
				{
					"inputs": [],
					"name": "OWNER_WALLET",
					"outputs": [
						{
							"internalType": "address",
							"name": "",
							"type": "address"
						}
					],
					"stateMutability": "view",
					"type": "function"
				},
				{
					"inputs": [],
					"name": "PERCENTS_DIVIDER",
					"outputs": [
						{
							"internalType": "uint256",
							"name": "",
							"type": "uint256"
						}
					],
					"stateMutability": "view",
					"type": "function"
				},
				{
					"inputs": [
						{
							"internalType": "address payable",
							"name": "receiver",
							"type": "address"
						},
						{
							"internalType": "uint256",
							"name": "amount",
							"type": "uint256"
						},
						{
							"internalType": "string",
							"name": "fromBlockchain",
							"type": "string"
						},
						{
							"internalType": "bytes32",
							"name": "blockHash",
							"type": "bytes32"
						},
						{
							"internalType": "bytes32",
							"name": "transactionHash",
							"type": "bytes32"
						},
						{
							"internalType": "uint32",
							"name": "logIndex",
							"type": "uint32"
						}
					],
					"name": "acceptTransfer",
					"outputs": [
						{
							"internalType": "bool",
							"name": "",
							"type": "bool"
						}
					],
					"stateMutability": "nonpayable",
					"type": "function"
				},
				{
					"inputs": [
						{
							"internalType": "string",
							"name": "name",
							"type": "string"
						}
					],
					"name": "addBlockchainFrom",
					"outputs": [
						{
							"internalType": "uint256",
							"name": "",
							"type": "uint256"
						}
					],
					"stateMutability": "nonpayable",
					"type": "function"
				},
				{
					"inputs": [
						{
							"internalType": "string",
							"name": "name",
							"type": "string"
						},
						{
							"internalType": "uint256",
							"name": "minTokenAmount",
							"type": "uint256"
						}
					],
					"name": "addBlockchainTo",
					"outputs": [
						{
							"internalType": "uint256",
							"name": "",
							"type": "uint256"
						}
					],
					"stateMutability": "nonpayable",
					"type": "function"
				},
				{
					"inputs": [
						{
							"internalType": "address",
							"name": "account",
							"type": "address"
						}
					],
					"name": "addMonitor",
					"outputs": [
						{
							"internalType": "bool",
							"name": "",
							"type": "bool"
						}
					],
					"stateMutability": "nonpayable",
					"type": "function"
				},
				{
					"inputs": [
						{
							"internalType": "string",
							"name": "name",
							"type": "string"
						}
					],
					"name": "delBlockchainFrom",
					"outputs": [
						{
							"internalType": "bool",
							"name": "",
							"type": "bool"
						}
					],
					"stateMutability": "nonpayable",
					"type": "function"
				},
				{
					"inputs": [
						{
							"internalType": "string",
							"name": "name",
							"type": "string"
						}
					],
					"name": "delBlockchainTo",
					"outputs": [
						{
							"internalType": "bool",
							"name": "",
							"type": "bool"
						}
					],
					"stateMutability": "nonpayable",
					"type": "function"
				},
				{
					"inputs": [
						{
							"internalType": "address",
							"name": "account",
							"type": "address"
						}
					],
					"name": "delMonitor",
					"outputs": [
						{
							"internalType": "bool",
							"name": "",
							"type": "bool"
						}
					],
					"stateMutability": "nonpayable",
					"type": "function"
				},
				{
					"inputs": [
						{
							"internalType": "string",
							"name": "name",
							"type": "string"
						}
					],
					"name": "existsBlockchainFrom",
					"outputs": [
						{
							"internalType": "bool",
							"name": "",
							"type": "bool"
						}
					],
					"stateMutability": "view",
					"type": "function"
				},
				{
					"inputs": [
						{
							"internalType": "string",
							"name": "name",
							"type": "string"
						}
					],
					"name": "existsBlockchainTo",
					"outputs": [
						{
							"internalType": "bool",
							"name": "",
							"type": "bool"
						}
					],
					"stateMutability": "view",
					"type": "function"
				},
				{
					"inputs": [],
					"name": "feePercentageBridge",
					"outputs": [
						{
							"internalType": "uint256",
							"name": "",
							"type": "uint256"
						}
					],
					"stateMutability": "view",
					"type": "function"
				},
				{
					"inputs": [
						{
							"internalType": "uint256",
							"name": "",
							"type": "uint256"
						}
					],
					"name": "fromBlockchainReceive",
					"outputs": [
						{
							"internalType": "string",
							"name": "",
							"type": "string"
						}
					],
					"stateMutability": "view",
					"type": "function"
				},
				{
					"inputs": [
						{
							"internalType": "string",
							"name": "blockchainName",
							"type": "string"
						}
					],
					"name": "getMinTokenAmount",
					"outputs": [
						{
							"internalType": "uint256",
							"name": "",
							"type": "uint256"
						}
					],
					"stateMutability": "view",
					"type": "function"
				},
				{
					"inputs": [
						{
							"internalType": "bytes32",
							"name": "role",
							"type": "bytes32"
						}
					],
					"name": "getRoleAdmin",
					"outputs": [
						{
							"internalType": "bytes32",
							"name": "",
							"type": "bytes32"
						}
					],
					"stateMutability": "view",
					"type": "function"
				},
				{
					"inputs": [],
					"name": "getTokenBalance",
					"outputs": [
						{
							"internalType": "uint256",
							"name": "",
							"type": "uint256"
						}
					],
					"stateMutability": "view",
					"type": "function"
				},
				{
					"inputs": [
						{
							"internalType": "bytes32",
							"name": "blockHash",
							"type": "bytes32"
						},
						{
							"internalType": "bytes32",
							"name": "transactionHash",
							"type": "bytes32"
						},
						{
							"internalType": "address",
							"name": "receiver",
							"type": "address"
						},
						{
							"internalType": "uint256",
							"name": "amount",
							"type": "uint256"
						},
						{
							"internalType": "uint32",
							"name": "logIndex",
							"type": "uint32"
						}
					],
					"name": "getTransactionId",
					"outputs": [
						{
							"internalType": "bytes32",
							"name": "",
							"type": "bytes32"
						}
					],
					"stateMutability": "pure",
					"type": "function"
				},
				{
					"inputs": [
						{
							"internalType": "bytes32",
							"name": "role",
							"type": "bytes32"
						},
						{
							"internalType": "address",
							"name": "account",
							"type": "address"
						}
					],
					"name": "grantRole",
					"outputs": [],
					"stateMutability": "nonpayable",
					"type": "function"
				},
				{
					"inputs": [
						{
							"internalType": "bytes32",
							"name": "role",
							"type": "bytes32"
						},
						{
							"internalType": "address",
							"name": "account",
							"type": "address"
						}
					],
					"name": "hasRole",
					"outputs": [
						{
							"internalType": "bool",
							"name": "",
							"type": "bool"
						}
					],
					"stateMutability": "view",
					"type": "function"
				},
				{
					"inputs": [],
					"name": "listBlockchainFrom",
					"outputs": [
						{
							"internalType": "string[]",
							"name": "",
							"type": "string[]"
						}
					],
					"stateMutability": "view",
					"type": "function"
				},
				{
					"inputs": [],
					"name": "listBlockchainTo",
					"outputs": [
						{
							"internalType": "string[]",
							"name": "",
							"type": "string[]"
						}
					],
					"stateMutability": "view",
					"type": "function"
				},
				{
					"inputs": [],
					"name": "pause",
					"outputs": [],
					"stateMutability": "nonpayable",
					"type": "function"
				},
				{
					"inputs": [],
					"name": "paused",
					"outputs": [
						{
							"internalType": "bool",
							"name": "",
							"type": "bool"
						}
					],
					"stateMutability": "view",
					"type": "function"
				},
				{
					"inputs": [
						{
							"internalType": "bytes32",
							"name": "",
							"type": "bytes32"
						}
					],
					"name": "processed",
					"outputs": [
						{
							"internalType": "bool",
							"name": "",
							"type": "bool"
						}
					],
					"stateMutability": "view",
					"type": "function"
				},
				{
					"inputs": [
						{
							"internalType": "uint256",
							"name": "amount",
							"type": "uint256"
						},
						{
							"internalType": "string",
							"name": "toBlockchain",
							"type": "string"
						},
						{
							"internalType": "string",
							"name": "toAddress",
							"type": "string"
						}
					],
					"name": "receiveTokens",
					"outputs": [
						{
							"internalType": "bool",
							"name": "",
							"type": "bool"
						}
					],
					"stateMutability": "payable",
					"type": "function"
				},
				{
					"inputs": [
						{
							"internalType": "bytes32",
							"name": "role",
							"type": "bytes32"
						},
						{
							"internalType": "address",
							"name": "account",
							"type": "address"
						}
					],
					"name": "renounceRole",
					"outputs": [],
					"stateMutability": "nonpayable",
					"type": "function"
				},
				{
					"inputs": [
						{
							"internalType": "bytes32",
							"name": "role",
							"type": "bytes32"
						},
						{
							"internalType": "address",
							"name": "account",
							"type": "address"
						}
					],
					"name": "revokeRole",
					"outputs": [],
					"stateMutability": "nonpayable",
					"type": "function"
				},
				{
					"inputs": [
						{
							"internalType": "address",
							"name": "tokenAddress",
							"type": "address"
						},
						{
							"internalType": "address",
							"name": "owner",
							"type": "address"
						},
						{
							"internalType": "address",
							"name": "monitor",
							"type": "address"
						},
						{
							"internalType": "uint256",
							"name": "feeNative",
							"type": "uint256"
						},
						{
							"internalType": "uint256",
							"name": "feePercentage",
							"type": "uint256"
						}
					],
					"name": "setDeployBridge",
					"outputs": [],
					"stateMutability": "nonpayable",
					"type": "function"
				},
				{
					"inputs": [
						{
							"internalType": "uint256",
							"name": "amount",
							"type": "uint256"
						}
					],
					"name": "setFeeNative",
					"outputs": [
						{
							"internalType": "bool",
							"name": "",
							"type": "bool"
						}
					],
					"stateMutability": "nonpayable",
					"type": "function"
				},
				{
					"inputs": [
						{
							"internalType": "uint256",
							"name": "newFee",
							"type": "uint256"
						}
					],
					"name": "setFeePercentageBridge",
					"outputs": [
						{
							"internalType": "bool",
							"name": "",
							"type": "bool"
						}
					],
					"stateMutability": "nonpayable",
					"type": "function"
				},
				{
					"inputs": [
						{
							"internalType": "string",
							"name": "blockchainName",
							"type": "string"
						},
						{
							"internalType": "uint256",
							"name": "newAmount",
							"type": "uint256"
						}
					],
					"name": "setMinTokenAmount",
					"outputs": [
						{
							"internalType": "bool",
							"name": "",
							"type": "bool"
						}
					],
					"stateMutability": "nonpayable",
					"type": "function"
				},
				{
					"inputs": [
						{
							"internalType": "bytes4",
							"name": "interfaceId",
							"type": "bytes4"
						}
					],
					"name": "supportsInterface",
					"outputs": [
						{
							"internalType": "bool",
							"name": "",
							"type": "bool"
						}
					],
					"stateMutability": "view",
					"type": "function"
				},
				{
					"inputs": [
						{
							"internalType": "uint256",
							"name": "",
							"type": "uint256"
						}
					],
					"name": "toBlockchainTransfer",
					"outputs": [
						{
							"internalType": "string",
							"name": "",
							"type": "string"
						}
					],
					"stateMutability": "view",
					"type": "function"
				},
				{
					"inputs": [],
					"name": "token",
					"outputs": [
						{
							"internalType": "address",
							"name": "",
							"type": "address"
						}
					],
					"stateMutability": "view",
					"type": "function"
				},
				{
					"inputs": [],
					"name": "totalFeeReceivedBridge",
					"outputs": [
						{
							"internalType": "uint256",
							"name": "",
							"type": "uint256"
						}
					],
					"stateMutability": "view",
					"type": "function"
				},
				{
					"inputs": [
						{
							"internalType": "address",
							"name": "newOwner",
							"type": "address"
						}
					],
					"name": "transferOwnership",
					"outputs": [
						{
							"internalType": "bool",
							"name": "",
							"type": "bool"
						}
					],
					"stateMutability": "nonpayable",
					"type": "function"
				},
				{
					"inputs": [],
					"name": "unpause",
					"outputs": [],
					"stateMutability": "nonpayable",
					"type": "function"
				},
				{
					"inputs": [
						{
							"internalType": "uint256",
							"name": "amount",
							"type": "uint256"
						},
						{
							"internalType": "address payable",
							"name": "receiverWallet",
							"type": "address"
						}
					],
					"name": "withdrawToken",
					"outputs": [
						{
							"internalType": "bool",
							"name": "",
							"type": "bool"
						}
					],
					"stateMutability": "nonpayable",
					"type": "function"
				},
				{
					"stateMutability": "payable",
					"type": "receive"
				}
			],
			"devdoc": {
				"errors": {
					"AccessControlBadConfirmation()": [
						{
							"details": "The caller of a function is not the expected one. NOTE: Don't confuse with {AccessControlUnauthorizedAccount}."
						}
					],
					"AccessControlUnauthorizedAccount(address,bytes32)": [
						{
							"details": "The `account` is missing a role."
						}
					],
					"AddressEmptyCode(address)": [
						{
							"details": "There's no code at `target` (it is not a contract)."
						}
					],
					"AddressInsufficientBalance(address)": [
						{
							"details": "The ETH balance of the account is not enough to perform the operation."
						}
					],
					"FailedInnerCall()": [
						{
							"details": "A call to an address target failed. The target may have reverted."
						}
					],
					"SafeERC20FailedOperation(address)": [
						{
							"details": "An operation with an ERC20 token failed."
						}
					]
				},
				"events": {
					"Paused(address)": {
						"details": "Emitted when the pause is triggered by `account`."
					},
					"RoleAdminChanged(bytes32,bytes32,bytes32)": {
						"details": "Emitted when `newAdminRole` is set as ``role``'s admin role, replacing `previousAdminRole` `DEFAULT_ADMIN_ROLE` is the starting admin for all roles, despite {RoleAdminChanged} not being emitted signaling this."
					},
					"RoleGranted(bytes32,address,address)": {
						"details": "Emitted when `account` is granted `role`. `sender` is the account that originated the contract call, an admin role bearer except when using {AccessControl-_setupRole}."
					},
					"RoleRevoked(bytes32,address,address)": {
						"details": "Emitted when `account` is revoked `role`. `sender` is the account that originated the contract call:   - if using `revokeRole`, it is the admin role bearer   - if using `renounceRole`, it is the role bearer (i.e. `account`)"
					},
					"Unpaused(address)": {
						"details": "Emitted when the pause is lifted by `account`."
					}
				},
				"kind": "dev",
				"methods": {
					"getRoleAdmin(bytes32)": {
						"details": "Returns the admin role that controls `role`. See {grantRole} and {revokeRole}. To change a role's admin, use {_setRoleAdmin}."
					},
					"grantRole(bytes32,address)": {
						"details": "Grants `role` to `account`. If `account` had not been already granted `role`, emits a {RoleGranted} event. Requirements: - the caller must have ``role``'s admin role. May emit a {RoleGranted} event."
					},
					"hasRole(bytes32,address)": {
						"details": "Returns `true` if `account` has been granted `role`."
					},
					"paused()": {
						"details": "Returns true if the contract is paused, and false otherwise."
					},
					"revokeRole(bytes32,address)": {
						"details": "Revokes `role` from `account`. If `account` had been granted `role`, emits a {RoleRevoked} event. Requirements: - the caller must have ``role``'s admin role. May emit a {RoleRevoked} event."
					},
					"supportsInterface(bytes4)": {
						"details": "See {IERC165-supportsInterface}."
					}
				},
				"version": 1
			},
			"evm": {
				"assembly": "    /* \"contracts/Bridge.sol\":312:14857  contract Bridge is AccessControl, IBridge, Pausable {... */\n  mstore(0x40, 0x80)\n  callvalue\n  dup1\n  iszero\n  tag_1\n  jumpi\n  0x00\n  dup1\n  revert\ntag_1:\n  pop\n    /* \"contracts/ERC165.sol\":750:790  _registerInterface(_INTERFACE_ID_ERC165) */\n  tag_5\n  shl(0xe0, 0x01ffc9a7)\n    /* \"contracts/ERC165.sol\":750:768  _registerInterface */\n  tag_6\n    /* \"contracts/ERC165.sol\":750:790  _registerInterface(_INTERFACE_ID_ERC165) */\n  jump\t// in\ntag_5:\n    /* \"contracts/Pausable.sol\":989:996  _paused */\n  0x02\n    /* \"contracts/Pausable.sol\":989:1004  _paused = false */\n  dup1\n  sload\n  not(0xff)\n  and\n  swap1\n  sstore\n    /* \"contracts/Bridge.sol\":312:14857  contract Bridge is AccessControl, IBridge, Pausable {... */\n  jump(tag_13)\n    /* \"contracts/ERC165.sol\":1489:1687  function _registerInterface(bytes4 interfaceId) internal virtual {... */\ntag_6:\n  not(sub(shl(0xe0, 0x01), 0x01))\n    /* \"contracts/ERC165.sol\":1572:1597  interfaceId != 0xffffffff */\n  dup1\n  dup3\n  and\n  swap1\n  sub\n    /* \"contracts/ERC165.sol\":1564:1630  require(interfaceId != 0xffffffff, \"ERC165: invalid interface id\") */\n  tag_10\n  jumpi\n  mload(0x40)\n  shl(0xe5, 0x461bcd)\n  dup2\n  mstore\n    /* \"#utility.yul\":216:218   */\n  0x20\n    /* \"contracts/ERC165.sol\":1564:1630  require(interfaceId != 0xffffffff, \"ERC165: invalid interface id\") */\n  0x04\n  dup3\n  add\n    /* \"#utility.yul\":198:219   */\n  mstore\n    /* \"#utility.yul\":255:257   */\n  0x1c\n    /* \"#utility.yul\":235:253   */\n  0x24\n  dup3\n  add\n    /* \"#utility.yul\":228:258   */\n  mstore\n    /* \"#utility.yul\":294:324   */\n  0x4552433136353a20696e76616c696420696e7465726661636520696400000000\n    /* \"#utility.yul\":274:292   */\n  0x44\n  dup3\n  add\n    /* \"#utility.yul\":267:325   */\n  mstore\n    /* \"#utility.yul\":342:360   */\n  0x64\n  add\n    /* \"contracts/ERC165.sol\":1564:1630  require(interfaceId != 0xffffffff, \"ERC165: invalid interface id\") */\n  mload(0x40)\n  dup1\n  swap2\n  sub\n  swap1\n  revert\ntag_10:\n  not(sub(shl(0xe0, 0x01), 0x01))\n    /* \"contracts/ERC165.sol\":1640:1673  _supportedInterfaces[interfaceId] */\n  and\n    /* \"contracts/ERC165.sol\":1640:1660  _supportedInterfaces */\n  0x00\n    /* \"contracts/ERC165.sol\":1640:1673  _supportedInterfaces[interfaceId] */\n  swap1\n  dup2\n  mstore\n  0x20\n  dup2\n  swap1\n  mstore\n  0x40\n  swap1\n  keccak256\n    /* \"contracts/ERC165.sol\":1640:1680  _supportedInterfaces[interfaceId] = true */\n  dup1\n  sload\n  not(0xff)\n  and\n    /* \"contracts/ERC165.sol\":1676:1680  true */\n  0x01\n    /* \"contracts/ERC165.sol\":1640:1680  _supportedInterfaces[interfaceId] = true */\n  or\n  swap1\n  sstore\n    /* \"contracts/ERC165.sol\":1489:1687  function _registerInterface(bytes4 interfaceId) internal virtual {... */\n  jump\t// out\n    /* \"#utility.yul\":14:366   */\ntag_13:\n    /* \"contracts/Bridge.sol\":312:14857  contract Bridge is AccessControl, IBridge, Pausable {... */\n  dataSize(sub_0)\n  dup1\n  dataOffset(sub_0)\n  0x00\n  codecopy\n  0x00\n  return\nstop\n\nsub_0: assembly {\n        /* \"contracts/Bridge.sol\":312:14857  contract Bridge is AccessControl, IBridge, Pausable {... */\n      mstore(0x40, 0x80)\n      jumpi(tag_1, lt(calldatasize, 0x04))\n      shr(0xe0, calldataload(0x00))\n      dup1\n      0x8689b322\n      gt\n      tag_44\n      jumpi\n      dup1\n      0xc4251339\n      gt\n      tag_45\n      jumpi\n      dup1\n      0xf11b7c33\n      gt\n      tag_46\n      jumpi\n      dup1\n      0xf11b7c33\n      eq\n      tag_38\n      jumpi\n      dup1\n      0xf2e1fa65\n      eq\n      tag_39\n      jumpi\n      dup1\n      0xf2fcdbd3\n      eq\n      tag_40\n      jumpi\n      dup1\n      0xf2fde38b\n      eq\n      tag_41\n      jumpi\n      dup1\n      0xfae36afb\n      eq\n      tag_42\n      jumpi\n      dup1\n      0xfc0c546a\n      eq\n      tag_43\n      jumpi\n      0x00\n      dup1\n      revert\n    tag_46:\n      dup1\n      0xc4251339\n      eq\n      tag_33\n      jumpi\n      dup1\n      0xc9b4d653\n      eq\n      tag_34\n      jumpi\n      dup1\n      0xd542a501\n      eq\n      tag_35\n      jumpi\n      dup1\n      0xd547741f\n      eq\n      tag_36\n      jumpi\n      dup1\n      0xe8340a99\n      eq\n      tag_37\n      jumpi\n      0x00\n      dup1\n      revert\n    tag_45:\n      dup1\n      0xb715f98f\n      gt\n      tag_47\n      jumpi\n      dup1\n      0xb715f98f\n      eq\n      tag_28\n      jumpi\n      dup1\n      0xb8c48a28\n      eq\n      tag_29\n      jumpi\n      dup1\n      0xbb13ca3b\n      eq\n      tag_30\n      jumpi\n      dup1\n      0xbe4b1772\n      eq\n      tag_31\n      jumpi\n      dup1\n      0xc1f0808a\n      eq\n      tag_32\n      jumpi\n      0x00\n      dup1\n      revert\n    tag_47:\n      dup1\n      0x8689b322\n      eq\n      tag_23\n      jumpi\n      dup1\n      0x91d14854\n      eq\n      tag_24\n      jumpi\n      dup1\n      0x9d1e034d\n      eq\n      tag_25\n      jumpi\n      dup1\n      0xa217fddf\n      eq\n      tag_26\n      jumpi\n      dup1\n      0xa36185f4\n      eq\n      tag_27\n      jumpi\n      0x00\n      dup1\n      revert\n    tag_44:\n      dup1\n      0x4d9b47e2\n      gt\n      tag_48\n      jumpi\n      dup1\n      0x646ac61c\n      gt\n      tag_49\n      jumpi\n      dup1\n      0x646ac61c\n      eq\n      tag_18\n      jumpi\n      dup1\n      0x6d2133e1\n      eq\n      tag_19\n      jumpi\n      dup1\n      0x7dad0d57\n      eq\n      tag_20\n      jumpi\n      dup1\n      0x82b2e257\n      eq\n      tag_21\n      jumpi\n      dup1\n      0x8456cb59\n      eq\n      tag_22\n      jumpi\n      0x00\n      dup1\n      revert\n    tag_49:\n      dup1\n      0x4d9b47e2\n      eq\n      tag_13\n      jumpi\n      dup1\n      0x525a34e3\n      eq\n      tag_14\n      jumpi\n      dup1\n      0x5a075f92\n      eq\n      tag_15\n      jumpi\n      dup1\n      0x5c975abb\n      eq\n      tag_16\n      jumpi\n      dup1\n      0x5d27fc70\n      eq\n      tag_17\n      jumpi\n      0x00\n      dup1\n      revert\n    tag_48:\n      dup1\n      0x29c9a4da\n      gt\n      tag_50\n      jumpi\n      dup1\n      0x29c9a4da\n      eq\n      tag_8\n      jumpi\n      dup1\n      0x2a76e481\n      eq\n      tag_9\n      jumpi\n      dup1\n      0x2f2ff15d\n      eq\n      tag_10\n      jumpi\n      dup1\n      0x36568abe\n      eq\n      tag_11\n      jumpi\n      dup1\n      0x3f4ba83a\n      eq\n      tag_12\n      jumpi\n      0x00\n      dup1\n      revert\n    tag_50:\n      dup1\n      0x01c234a8\n      eq\n      tag_3\n      jumpi\n      dup1\n      0x01ffc9a7\n      eq\n      tag_4\n      jumpi\n      dup1\n      0x1d316a5d\n      eq\n      tag_5\n      jumpi\n      dup1\n      0x212258a8\n      eq\n      tag_6\n      jumpi\n      dup1\n      0x248a9ca3\n      eq\n      tag_7\n      jumpi\n      0x00\n      dup1\n      revert\n    tag_1:\n      jumpi(tag_2, calldatasize)\n      stop\n    tag_2:\n      0x00\n      dup1\n      revert\n        /* \"contracts/Bridge.sol\":691:738  uint256 public constant PERCENTS_DIVIDER = 1000 */\n    tag_3:\n      callvalue\n      dup1\n      iszero\n      tag_53\n      jumpi\n      0x00\n      dup1\n      revert\n    tag_53:\n      pop\n      tag_54\n        /* \"contracts/Bridge.sol\":734:738  1000 */\n      0x03e8\n        /* \"contracts/Bridge.sol\":691:738  uint256 public constant PERCENTS_DIVIDER = 1000 */\n      dup2\n      jump\n    tag_54:\n      mload(0x40)\n        /* \"#utility.yul\":160:185   */\n      swap1\n      dup2\n      mstore\n        /* \"#utility.yul\":148:150   */\n      0x20\n        /* \"#utility.yul\":133:151   */\n      add\n        /* \"contracts/Bridge.sol\":691:738  uint256 public constant PERCENTS_DIVIDER = 1000 */\n    tag_56:\n      mload(0x40)\n      dup1\n      swap2\n      sub\n      swap1\n      return\n        /* \"contracts/AccessControl.sol\":2537:2739  function supportsInterface(bytes4 interfaceId) public view virtual override returns (bool) {... */\n    tag_4:\n      callvalue\n      dup1\n      iszero\n      tag_58\n      jumpi\n      0x00\n      dup1\n      revert\n    tag_58:\n      pop\n      tag_59\n      tag_60\n      calldatasize\n      0x04\n      tag_61\n      jump\t// in\n    tag_60:\n      tag_62\n      jump\t// in\n    tag_59:\n      mload(0x40)\n        /* \"#utility.yul\":652:666   */\n      swap1\n      iszero\n        /* \"#utility.yul\":645:667   */\n      iszero\n        /* \"#utility.yul\":627:668   */\n      dup2\n      mstore\n        /* \"#utility.yul\":615:617   */\n      0x20\n        /* \"#utility.yul\":600:618   */\n      add\n        /* \"contracts/AccessControl.sol\":2537:2739  function supportsInterface(bytes4 interfaceId) public view virtual override returns (bool) {... */\n      tag_56\n        /* \"#utility.yul\":487:674   */\n      jump\n        /* \"contracts/Bridge.sol\":1346:1383  string[] public fromBlockchainReceive */\n    tag_5:\n      callvalue\n      dup1\n      iszero\n      tag_65\n      jumpi\n      0x00\n      dup1\n      revert\n    tag_65:\n      pop\n      tag_66\n      tag_67\n      calldatasize\n      0x04\n      tag_68\n      jump\t// in\n    tag_67:\n      tag_69\n      jump\t// in\n    tag_66:\n      mload(0x40)\n      tag_56\n      swap2\n      swap1\n      tag_71\n      jump\t// in\n        /* \"contracts/Bridge.sol\":9824:10081  function getMinTokenAmount(string memory blockchainName)... */\n    tag_6:\n      callvalue\n      dup1\n      iszero\n      tag_72\n      jumpi\n      0x00\n      dup1\n      revert\n    tag_72:\n      pop\n      tag_54\n      tag_74\n      calldatasize\n      0x04\n      tag_75\n      jump\t// in\n    tag_74:\n      tag_76\n      jump\t// in\n        /* \"contracts/AccessControl.sol\":3782:3902  function getRoleAdmin(bytes32 role) public view virtual returns (bytes32) {... */\n    tag_7:\n      callvalue\n      dup1\n      iszero\n      tag_78\n      jumpi\n      0x00\n      dup1\n      revert\n    tag_78:\n      pop\n      tag_54\n      tag_80\n      calldatasize\n      0x04\n      tag_68\n      jump\t// in\n    tag_80:\n        /* \"contracts/AccessControl.sol\":3847:3854  bytes32 */\n      0x00\n        /* \"contracts/AccessControl.sol\":3873:3885  _roles[role] */\n      swap1\n      dup2\n      mstore\n        /* \"contracts/AccessControl.sol\":3873:3879  _roles */\n      0x01\n        /* \"contracts/AccessControl.sol\":3873:3885  _roles[role] */\n      0x20\n      dup2\n      swap1\n      mstore\n      0x40\n      swap1\n      swap2\n      keccak256\n        /* \"contracts/AccessControl.sol\":3873:3895  _roles[role].adminRole */\n      add\n      sload\n      swap1\n        /* \"contracts/AccessControl.sol\":3782:3902  function getRoleAdmin(bytes32 role) public view virtual returns (bytes32) {... */\n      jump\n        /* \"contracts/Bridge.sol\":10581:11117  function setMinTokenAmount(string memory blockchainName, uint256 newAmount)... */\n    tag_8:\n      callvalue\n      dup1\n      iszero\n      tag_85\n      jumpi\n      0x00\n      dup1\n      revert\n    tag_85:\n      pop\n      tag_59\n      tag_87\n      calldatasize\n      0x04\n      tag_88\n      jump\t// in\n    tag_87:\n      tag_89\n      jump\t// in\n        /* \"contracts/Bridge.sol\":913:947  uint256 public feePercentageBridge */\n    tag_9:\n      callvalue\n      dup1\n      iszero\n      tag_91\n      jumpi\n      0x00\n      dup1\n      revert\n    tag_91:\n      pop\n      tag_54\n      sload(0x05)\n      dup2\n      jump\n        /* \"contracts/AccessControl.sol\":4198:4334  function grantRole(bytes32 role, address account) public virtual onlyRole(getRoleAdmin(role)) {... */\n    tag_10:\n      callvalue\n      dup1\n      iszero\n      tag_95\n      jumpi\n      0x00\n      dup1\n      revert\n    tag_95:\n      pop\n      tag_96\n      tag_97\n      calldatasize\n      0x04\n      tag_98\n      jump\t// in\n    tag_97:\n      tag_99\n      jump\t// in\n    tag_96:\n      stop\n        /* \"contracts/Bridge.sol\":9315:9624  function renounceRole(bytes32 role, address account)... */\n    tag_11:\n      callvalue\n      dup1\n      iszero\n      tag_100\n      jumpi\n      0x00\n      dup1\n      revert\n    tag_100:\n      pop\n      tag_96\n      tag_102\n      calldatasize\n      0x04\n      tag_98\n      jump\t// in\n    tag_102:\n      tag_103\n      jump\t// in\n        /* \"contracts/Bridge.sol\":14755:14820  function unpause() external onlyOwner {... */\n    tag_12:\n      callvalue\n      dup1\n      iszero\n      tag_104\n      jumpi\n      0x00\n      dup1\n      revert\n    tag_104:\n      pop\n      tag_96\n      tag_106\n      jump\t// in\n        /* \"contracts/Bridge.sol\":620:684  bytes32 public constant MONITOR_ROLE = keccak256(\"MONITOR_ROLE\") */\n    tag_13:\n      callvalue\n      dup1\n      iszero\n      tag_107\n      jumpi\n      0x00\n      dup1\n      revert\n    tag_107:\n      pop\n      tag_54\n      0x00\n      dup1\n      mload\n      0x20\n      data_d6a6016c81f51cb4dddbbc8ef9ddf0093cf3b17d39f0f71122b555af630af1fe\n      dup4\n      codecopy\n      dup2\n      mload\n      swap2\n      mstore\n      dup2\n      jump\n        /* \"contracts/Bridge.sol\":11123:11442  function setFeePercentageBridge(uint256 newFee)... */\n    tag_14:\n      callvalue\n      dup1\n      iszero\n      tag_111\n      jumpi\n      0x00\n      dup1\n      revert\n    tag_111:\n      pop\n      tag_59\n      tag_113\n      calldatasize\n      0x04\n      tag_68\n      jump\t// in\n    tag_113:\n      tag_114\n      jump\t// in\n        /* \"contracts/Bridge.sol\":8698:8827  function setFeeNative(uint256 amount) external onlyOwner returns (bool) {... */\n    tag_15:\n      callvalue\n      dup1\n      iszero\n      tag_116\n      jumpi\n      0x00\n      dup1\n      revert\n    tag_116:\n      pop\n      tag_59\n      tag_118\n      calldatasize\n      0x04\n      tag_68\n      jump\t// in\n    tag_118:\n      tag_119\n      jump\t// in\n        /* \"contracts/Pausable.sol\":1608:1692  function paused() public view virtual returns (bool) {... */\n    tag_16:\n      callvalue\n      dup1\n      iszero\n      tag_121\n      jumpi\n      0x00\n      dup1\n      revert\n    tag_121:\n      pop\n        /* \"contracts/Pausable.sol\":1678:1685  _paused */\n      and(0xff, sload(0x02))\n        /* \"contracts/Pausable.sol\":1608:1692  function paused() public view virtual returns (bool) {... */\n      jump(tag_59)\n        /* \"contracts/Bridge.sol\":9030:9309  function delMonitor(address account)... */\n    tag_17:\n      callvalue\n      dup1\n      iszero\n      tag_125\n      jumpi\n      0x00\n      dup1\n      revert\n    tag_125:\n      pop\n      tag_59\n      tag_127\n      calldatasize\n      0x04\n      tag_128\n      jump\t// in\n    tag_127:\n      tag_129\n      jump\t// in\n        /* \"contracts/Bridge.sol\":771:808  uint256 public totalFeeReceivedBridge */\n    tag_18:\n      callvalue\n      dup1\n      iszero\n      tag_131\n      jumpi\n      0x00\n      dup1\n      revert\n    tag_131:\n      pop\n      tag_54\n      sload(0x03)\n      dup2\n      jump\n        /* \"contracts/Bridge.sol\":882:907  uint256 public FEE_NATIVE */\n    tag_19:\n      callvalue\n      dup1\n      iszero\n      tag_135\n      jumpi\n      0x00\n      dup1\n      revert\n    tag_135:\n      pop\n      tag_54\n      sload(0x04)\n      dup2\n      jump\n        /* \"contracts/Bridge.sol\":4424:5279  function acceptTransfer(... */\n    tag_20:\n      callvalue\n      dup1\n      iszero\n      tag_139\n      jumpi\n      0x00\n      dup1\n      revert\n    tag_139:\n      pop\n      tag_59\n      tag_141\n      calldatasize\n      0x04\n      tag_142\n      jump\t// in\n    tag_141:\n      tag_143\n      jump\t// in\n        /* \"contracts/Bridge.sol\":7643:7862  function getTokenBalance() external view override returns (uint256) {... */\n    tag_21:\n      callvalue\n      dup1\n      iszero\n      tag_145\n      jumpi\n      0x00\n      dup1\n      revert\n    tag_145:\n      pop\n      tag_54\n      tag_147\n      jump\t// in\n        /* \"contracts/Bridge.sol\":14688:14749  function pause() external onlyOwner {... */\n    tag_22:\n      callvalue\n      dup1\n      iszero\n      tag_149\n      jumpi\n      0x00\n      dup1\n      revert\n    tag_149:\n      pop\n      tag_96\n      tag_151\n      jump\t// in\n        /* \"contracts/Bridge.sol\":13946:14682  function delBlockchainTo(string memory name)... */\n    tag_23:\n      callvalue\n      dup1\n      iszero\n      tag_152\n      jumpi\n      0x00\n      dup1\n      revert\n    tag_152:\n      pop\n      tag_59\n      tag_154\n      calldatasize\n      0x04\n      tag_75\n      jump\t// in\n    tag_154:\n      tag_155\n      jump\t// in\n        /* \"contracts/AccessControl.sol\":2826:2962  function hasRole(bytes32 role, address account) public view virtual returns (bool) {... */\n    tag_24:\n      callvalue\n      dup1\n      iszero\n      tag_157\n      jumpi\n      0x00\n      dup1\n      revert\n    tag_157:\n      pop\n      tag_59\n      tag_159\n      calldatasize\n      0x04\n      tag_98\n      jump\t// in\n    tag_159:\n      tag_160\n      jump\t// in\n        /* \"contracts/Bridge.sol\":12657:13153  function addBlockchainTo(string memory name, uint256 minTokenAmount)... */\n    tag_25:\n      callvalue\n      dup1\n      iszero\n      tag_162\n      jumpi\n      0x00\n      dup1\n      revert\n    tag_162:\n      pop\n      tag_54\n      tag_164\n      calldatasize\n      0x04\n      tag_88\n      jump\t// in\n    tag_164:\n      tag_165\n      jump\t// in\n        /* \"contracts/AccessControl.sol\":2159:2208  bytes32 public constant DEFAULT_ADMIN_ROLE = 0x00 */\n    tag_26:\n      callvalue\n      dup1\n      iszero\n      tag_167\n      jumpi\n      0x00\n      dup1\n      revert\n    tag_167:\n      pop\n      tag_54\n        /* \"contracts/AccessControl.sol\":2204:2208  0x00 */\n      0x00\n        /* \"contracts/AccessControl.sol\":2159:2208  bytes32 public constant DEFAULT_ADMIN_ROLE = 0x00 */\n      dup2\n      jump\n        /* \"contracts/Bridge.sol\":2001:4418  function receiveTokens(... */\n    tag_27:\n      tag_59\n      tag_172\n      calldatasize\n      0x04\n      tag_173\n      jump\t// in\n    tag_172:\n      tag_174\n      jump\t// in\n        /* \"contracts/Bridge.sol\":11882:12042  function listBlockchainFrom()... */\n    tag_28:\n      callvalue\n      dup1\n      iszero\n      tag_176\n      jumpi\n      0x00\n      dup1\n      revert\n    tag_176:\n      pop\n      tag_177\n      tag_178\n      jump\t// in\n    tag_177:\n      mload(0x40)\n      tag_56\n      swap2\n      swap1\n      tag_180\n      jump\t// in\n        /* \"contracts/Bridge.sol\":8833:9024  function addMonitor(address account)... */\n    tag_29:\n      callvalue\n      dup1\n      iszero\n      tag_181\n      jumpi\n      0x00\n      dup1\n      revert\n    tag_181:\n      pop\n      tag_59\n      tag_183\n      calldatasize\n      0x04\n      tag_128\n      jump\t// in\n    tag_183:\n      tag_184\n      jump\t// in\n        /* \"contracts/Bridge.sol\":13159:13940  function delBlockchainFrom(string memory name)... */\n    tag_30:\n      callvalue\n      dup1\n      iszero\n      tag_186\n      jumpi\n      0x00\n      dup1\n      revert\n    tag_186:\n      pop\n      tag_59\n      tag_188\n      calldatasize\n      0x04\n      tag_75\n      jump\t// in\n    tag_188:\n      tag_189\n      jump\t// in\n        /* \"contracts/Bridge.sol\":7868:8692  function withdrawToken(uint256 amount, address payable receiverWallet)... */\n    tag_31:\n      callvalue\n      dup1\n      iszero\n      tag_191\n      jumpi\n      0x00\n      dup1\n      revert\n    tag_191:\n      pop\n      tag_59\n      tag_193\n      calldatasize\n      0x04\n      tag_98\n      jump\t// in\n    tag_193:\n      tag_195\n      jump\t// in\n        /* \"contracts/Bridge.sol\":987:1028  mapping(bytes32 => bool) public processed */\n    tag_32:\n      callvalue\n      dup1\n      iszero\n      tag_197\n      jumpi\n      0x00\n      dup1\n      revert\n    tag_197:\n      pop\n      tag_59\n      tag_199\n      calldatasize\n      0x04\n      tag_68\n      jump\t// in\n    tag_199:\n      mstore(0x20, 0x07)\n      0x00\n      swap1\n      dup2\n      mstore\n      0x40\n      swap1\n      keccak256\n      sload\n      0xff\n      and\n      dup2\n      jump\n        /* \"contracts/Bridge.sol\":1389:1425  string[] public toBlockchainTransfer */\n    tag_33:\n      callvalue\n      dup1\n      iszero\n      tag_202\n      jumpi\n      0x00\n      dup1\n      revert\n    tag_202:\n      pop\n      tag_66\n      tag_204\n      calldatasize\n      0x04\n      tag_68\n      jump\t// in\n    tag_204:\n      tag_205\n      jump\t// in\n        /* \"contracts/Bridge.sol\":11448:11661  function existsBlockchainFrom(string memory name)... */\n    tag_34:\n      callvalue\n      dup1\n      iszero\n      tag_207\n      jumpi\n      0x00\n      dup1\n      revert\n    tag_207:\n      pop\n      tag_59\n      tag_209\n      calldatasize\n      0x04\n      tag_75\n      jump\t// in\n    tag_209:\n      tag_210\n      jump\t// in\n        /* \"contracts/Bridge.sol\":5285:6027  function setDeployBridge(... */\n    tag_35:\n      callvalue\n      dup1\n      iszero\n      tag_212\n      jumpi\n      0x00\n      dup1\n      revert\n    tag_212:\n      pop\n      tag_96\n      tag_214\n      calldatasize\n      0x04\n      tag_215\n      jump\t// in\n    tag_214:\n      tag_216\n      jump\t// in\n        /* \"contracts/Bridge.sol\":9630:9818  function revokeRole(bytes32 role, address account)... */\n    tag_36:\n      callvalue\n      dup1\n      iszero\n      tag_217\n      jumpi\n      0x00\n      dup1\n      revert\n    tag_217:\n      pop\n      tag_96\n      tag_219\n      calldatasize\n      0x04\n      tag_98\n      jump\t// in\n    tag_219:\n      tag_220\n      jump\t// in\n        /* \"contracts/Bridge.sol\":6033:6506  function getTransactionId(... */\n    tag_37:\n      callvalue\n      dup1\n      iszero\n      tag_221\n      jumpi\n      0x00\n      dup1\n      revert\n    tag_221:\n      pop\n      tag_54\n      tag_223\n      calldatasize\n      0x04\n      tag_224\n      jump\t// in\n    tag_223:\n      tag_225\n      jump\t// in\n        /* \"contracts/Bridge.sol\":12048:12205  function listBlockchainTo()... */\n    tag_38:\n      callvalue\n      dup1\n      iszero\n      tag_227\n      jumpi\n      0x00\n      dup1\n      revert\n    tag_227:\n      pop\n      tag_177\n      tag_229\n      jump\t// in\n        /* \"contracts/Bridge.sol\":11667:11876  function existsBlockchainTo(string memory name)... */\n    tag_39:\n      callvalue\n      dup1\n      iszero\n      tag_231\n      jumpi\n      0x00\n      dup1\n      revert\n    tag_231:\n      pop\n      tag_59\n      tag_233\n      calldatasize\n      0x04\n      tag_75\n      jump\t// in\n    tag_233:\n      tag_234\n      jump\t// in\n        /* \"contracts/Bridge.sol\":12211:12651  function addBlockchainFrom(string memory name)... */\n    tag_40:\n      callvalue\n      dup1\n      iszero\n      tag_236\n      jumpi\n      0x00\n      dup1\n      revert\n    tag_236:\n      pop\n      tag_54\n      tag_238\n      calldatasize\n      0x04\n      tag_75\n      jump\t// in\n    tag_238:\n      tag_239\n      jump\t// in\n        /* \"contracts/Bridge.sol\":10087:10575  function transferOwnership(address newOwner)... */\n    tag_41:\n      callvalue\n      dup1\n      iszero\n      tag_241\n      jumpi\n      0x00\n      dup1\n      revert\n    tag_241:\n      pop\n      tag_59\n      tag_243\n      calldatasize\n      0x04\n      tag_128\n      jump\t// in\n    tag_243:\n      tag_244\n      jump\t// in\n        /* \"contracts/Bridge.sol\":953:980  address public OWNER_WALLET */\n    tag_42:\n      callvalue\n      dup1\n      iszero\n      tag_246\n      jumpi\n      0x00\n      dup1\n      revert\n    tag_246:\n      pop\n      sload(0x06)\n      tag_247\n      swap1\n      sub(shl(0xa0, 0x01), 0x01)\n      and\n      dup2\n      jump\n    tag_247:\n      mload(0x40)\n      sub(shl(0xa0, 0x01), 0x01)\n        /* \"#utility.yul\":9613:9645   */\n      swap1\n      swap2\n      and\n        /* \"#utility.yul\":9595:9646   */\n      dup2\n      mstore\n        /* \"#utility.yul\":9583:9585   */\n      0x20\n        /* \"#utility.yul\":9568:9586   */\n      add\n        /* \"contracts/Bridge.sol\":953:980  address public OWNER_WALLET */\n      tag_56\n        /* \"#utility.yul\":9449:9652   */\n      jump\n        /* \"contracts/Bridge.sol\":745:765  address public token */\n    tag_43:\n      callvalue\n      dup1\n      iszero\n      tag_251\n      jumpi\n      0x00\n      dup1\n      revert\n    tag_251:\n      pop\n      sload(0x02)\n      tag_247\n      swap1\n      0x0100\n      swap1\n      div\n      sub(shl(0xa0, 0x01), 0x01)\n      and\n      dup2\n      jump\n        /* \"contracts/AccessControl.sol\":2537:2739  function supportsInterface(bytes4 interfaceId) public view virtual override returns (bool) {... */\n    tag_62:\n        /* \"contracts/AccessControl.sol\":2622:2626  bool */\n      0x00\n      not(sub(shl(0xe0, 0x01), 0x01))\n        /* \"contracts/AccessControl.sol\":2645:2692  interfaceId == type(IAccessControl).interfaceId */\n      dup3\n      and\n      shl(0xe0, 0x7965db0b)\n      eq\n      dup1\n        /* \"contracts/AccessControl.sol\":2645:2732  interfaceId == type(IAccessControl).interfaceId || super.supportsInterface(interfaceId) */\n      tag_257\n      jumpi\n      pop\n      not(sub(shl(0xe0, 0x01), 0x01))\n        /* \"contracts/ERC165.sol\":1055:1088  _supportedInterfaces[interfaceId] */\n      dup3\n      and\n        /* \"contracts/ERC165.sol\":1032:1036  bool */\n      0x00\n        /* \"contracts/ERC165.sol\":1055:1088  _supportedInterfaces[interfaceId] */\n      swap1\n      dup2\n      mstore\n      0x20\n      dup2\n      swap1\n      mstore\n      0x40\n      swap1\n      keccak256\n      sload\n      0xff\n      and\n        /* \"contracts/AccessControl.sol\":2696:2732  super.supportsInterface(interfaceId) */\n    tag_257:\n        /* \"contracts/AccessControl.sol\":2638:2732  return interfaceId == type(IAccessControl).interfaceId || super.supportsInterface(interfaceId) */\n      swap3\n        /* \"contracts/AccessControl.sol\":2537:2739  function supportsInterface(bytes4 interfaceId) public view virtual override returns (bool) {... */\n      swap2\n      pop\n      pop\n      jump\t// out\n        /* \"contracts/Bridge.sol\":1346:1383  string[] public fromBlockchainReceive */\n    tag_69:\n      0x0c\n      dup2\n      dup2\n      sload\n      dup2\n      lt\n      tag_259\n      jumpi\n      0x00\n      dup1\n      revert\n    tag_259:\n      swap1\n      0x00\n      mstore\n      keccak256(0x00, 0x20)\n      add\n      0x00\n      swap2\n      pop\n      swap1\n      pop\n      dup1\n      sload\n      tag_261\n      swap1\n      tag_262\n      jump\t// in\n    tag_261:\n      dup1\n      0x1f\n      add\n      0x20\n      dup1\n      swap2\n      div\n      mul\n      0x20\n      add\n      mload(0x40)\n      swap1\n      dup2\n      add\n      0x40\n      mstore\n      dup1\n      swap3\n      swap2\n      swap1\n      dup2\n      dup2\n      mstore\n      0x20\n      add\n      dup3\n      dup1\n      sload\n      tag_263\n      swap1\n      tag_262\n      jump\t// in\n    tag_263:\n      dup1\n      iszero\n      tag_264\n      jumpi\n      dup1\n      0x1f\n      lt\n      tag_265\n      jumpi\n      0x0100\n      dup1\n      dup4\n      sload\n      div\n      mul\n      dup4\n      mstore\n      swap2\n      0x20\n      add\n      swap2\n      jump(tag_264)\n    tag_265:\n      dup3\n      add\n      swap2\n      swap1\n      0x00\n      mstore\n      keccak256(0x00, 0x20)\n      swap1\n    tag_266:\n      dup2\n      sload\n      dup2\n      mstore\n      swap1\n      0x01\n      add\n      swap1\n      0x20\n      add\n      dup1\n      dup4\n      gt\n      tag_266\n      jumpi\n      dup3\n      swap1\n      sub\n      0x1f\n      and\n      dup3\n      add\n      swap2\n    tag_264:\n      pop\n      pop\n      pop\n      pop\n      pop\n      dup2\n      jump\t// out\n        /* \"contracts/Bridge.sol\":9824:10081  function getMinTokenAmount(string memory blockchainName)... */\n    tag_76:\n        /* \"contracts/Bridge.sol\":9945:9952  uint256 */\n      0x00\n        /* \"contracts/Bridge.sol\":9987:10003  blockchainInfoTo */\n      0x0b\n        /* \"contracts/Bridge.sol\":10040:10041  1 */\n      0x01\n        /* \"contracts/Bridge.sol\":10004:10021  blockchainIndexTo */\n      0x09\n        /* \"contracts/Bridge.sol\":10022:10036  blockchainName */\n      dup5\n        /* \"contracts/Bridge.sol\":10004:10037  blockchainIndexTo[blockchainName] */\n      mload(0x40)\n      tag_268\n      swap2\n      swap1\n      tag_269\n      jump\t// in\n    tag_268:\n      swap1\n      dup2\n      mstore\n      0x20\n      add\n      mload(0x40)\n      dup1\n      swap2\n      sub\n      swap1\n      keccak256\n      sload\n        /* \"contracts/Bridge.sol\":10004:10041  blockchainIndexTo[blockchainName] - 1 */\n      tag_270\n      swap2\n      swap1\n      tag_271\n      jump\t// in\n    tag_270:\n        /* \"contracts/Bridge.sol\":9987:10042  blockchainInfoTo[blockchainIndexTo[blockchainName] - 1] */\n      dup2\n      sload\n      dup2\n      lt\n      tag_273\n      jumpi\n      tag_273\n      tag_274\n      jump\t// in\n    tag_273:\n      0x00\n      swap2\n      dup3\n      mstore\n      0x20\n      swap1\n      swap2\n      keccak256\n      add\n        /* \"contracts/Bridge.sol\":9987:10074  blockchainInfoTo[blockchainIndexTo[blockchainName] - 1]... */\n      sload\n      swap3\n        /* \"contracts/Bridge.sol\":9824:10081  function getMinTokenAmount(string memory blockchainName)... */\n      swap2\n      pop\n      pop\n      jump\t// out\n        /* \"contracts/Bridge.sol\":10581:11117  function setMinTokenAmount(string memory blockchainName, uint256 newAmount)... */\n    tag_89:\n        /* \"contracts/Bridge.sol\":10729:10733  bool */\n      0x00\n        /* \"contracts/Bridge.sol\":1471:1512  hasRole(DEFAULT_ADMIN_ROLE, _msgSender()) */\n      tag_278\n        /* \"contracts/Bridge.sol\":10729:10733  bool */\n      dup2\n        /* \"contracts/Context.sol\":734:744  msg.sender */\n      caller\n        /* \"contracts/AccessControl.sol\":2826:2962  function hasRole(bytes32 role, address account) public view virtual returns (bool) {... */\n      tag_160\n      jump\t// in\n        /* \"contracts/Bridge.sol\":1471:1512  hasRole(DEFAULT_ADMIN_ROLE, _msgSender()) */\n    tag_278:\n        /* \"contracts/Bridge.sol\":1463:1526  require(hasRole(DEFAULT_ADMIN_ROLE, _msgSender()), \"not owner\") */\n      tag_281\n      jumpi\n      mload(0x40)\n      shl(0xe5, 0x461bcd)\n      dup2\n      mstore\n      0x04\n      add\n      tag_282\n      swap1\n      tag_283\n      jump\t// in\n    tag_282:\n      mload(0x40)\n      dup1\n      swap2\n      sub\n      swap1\n      revert\n    tag_281:\n        /* \"contracts/Pausable.sol\":1232:1251  _requireNotPaused() */\n      tag_285\n        /* \"contracts/Pausable.sol\":1232:1249  _requireNotPaused */\n      tag_286\n        /* \"contracts/Pausable.sol\":1232:1251  _requireNotPaused() */\n      jump\t// in\n    tag_285:\n        /* \"contracts/Bridge.sol\":10757:10791  existsBlockchainTo(blockchainName) */\n      tag_288\n        /* \"contracts/Bridge.sol\":10776:10790  blockchainName */\n      dup4\n        /* \"contracts/Bridge.sol\":10757:10775  existsBlockchainTo */\n      tag_234\n        /* \"contracts/Bridge.sol\":10757:10791  existsBlockchainTo(blockchainName) */\n      jump\t// in\n    tag_288:\n        /* \"contracts/Bridge.sol\":10749:10817  require(existsBlockchainTo(blockchainName), \"blockchain not exists\") */\n      tag_289\n      jumpi\n      mload(0x40)\n      shl(0xe5, 0x461bcd)\n      dup2\n      mstore\n      0x04\n      add\n      tag_282\n      swap1\n      tag_291\n      jump\t// in\n    tag_289:\n        /* \"contracts/Bridge.sol\":10827:10840  uint256 index */\n      0x00\n        /* \"contracts/Bridge.sol\":10879:10880  1 */\n      0x01\n        /* \"contracts/Bridge.sol\":10843:10860  blockchainIndexTo */\n      0x09\n        /* \"contracts/Bridge.sol\":10861:10875  blockchainName */\n      dup6\n        /* \"contracts/Bridge.sol\":10843:10876  blockchainIndexTo[blockchainName] */\n      mload(0x40)\n      tag_292\n      swap2\n      swap1\n      tag_269\n      jump\t// in\n    tag_292:\n      swap1\n      dup2\n      mstore\n      0x20\n      add\n      mload(0x40)\n      dup1\n      swap2\n      sub\n      swap1\n      keccak256\n      sload\n        /* \"contracts/Bridge.sol\":10843:10880  blockchainIndexTo[blockchainName] - 1 */\n      tag_293\n      swap2\n      swap1\n      tag_271\n      jump\t// in\n    tag_293:\n        /* \"contracts/Bridge.sol\":10827:10880  uint256 index = blockchainIndexTo[blockchainName] - 1 */\n      swap1\n      pop\n        /* \"contracts/Bridge.sol\":10895:11029  MinTokenAmountChanged(... */\n      0x4b44a0f1f9ad83f48ce1c55d8b93720658c4dbdd91f7c1d3f22612cd6474ab7b\n        /* \"contracts/Bridge.sol\":10930:10944  blockchainName */\n      dup5\n        /* \"contracts/Bridge.sol\":10958:10974  blockchainInfoTo */\n      0x0b\n        /* \"contracts/Bridge.sol\":10975:10980  index */\n      dup4\n        /* \"contracts/Bridge.sol\":10958:10981  blockchainInfoTo[index] */\n      dup2\n      sload\n      dup2\n      lt\n      tag_295\n      jumpi\n      tag_295\n      tag_274\n      jump\t// in\n    tag_295:\n      swap1\n      0x00\n      mstore\n      keccak256(0x00, 0x20)\n      add\n        /* \"contracts/Bridge.sol\":10958:10996  blockchainInfoTo[index].minTokenAmount */\n      0x00\n      add\n      sload\n        /* \"contracts/Bridge.sol\":11010:11019  newAmount */\n      dup6\n        /* \"contracts/Bridge.sol\":10895:11029  MinTokenAmountChanged(... */\n      mload(0x40)\n      tag_297\n      swap4\n      swap3\n      swap2\n      swap1\n      tag_298\n      jump\t// in\n    tag_297:\n      mload(0x40)\n      dup1\n      swap2\n      sub\n      swap1\n      log1\n        /* \"contracts/Bridge.sol\":11080:11089  newAmount */\n      dup3\n        /* \"contracts/Bridge.sol\":11039:11055  blockchainInfoTo */\n      0x0b\n        /* \"contracts/Bridge.sol\":11056:11061  index */\n      dup3\n        /* \"contracts/Bridge.sol\":11039:11062  blockchainInfoTo[index] */\n      dup2\n      sload\n      dup2\n      lt\n      tag_300\n      jumpi\n      tag_300\n      tag_274\n      jump\t// in\n    tag_300:\n      0x00\n      swap2\n      dup3\n      mstore\n      0x20\n      swap1\n      swap2\n      keccak256\n      add\n        /* \"contracts/Bridge.sol\":11039:11089  blockchainInfoTo[index].minTokenAmount = newAmount */\n      sstore\n      pop\n        /* \"contracts/Bridge.sol\":11106:11110  true */\n      0x01\n      swap4\n        /* \"contracts/Bridge.sol\":10581:11117  function setMinTokenAmount(string memory blockchainName, uint256 newAmount)... */\n      swap3\n      pop\n      pop\n      pop\n      jump\t// out\n        /* \"contracts/AccessControl.sol\":4198:4334  function grantRole(bytes32 role, address account) public virtual onlyRole(getRoleAdmin(role)) {... */\n    tag_99:\n        /* \"contracts/AccessControl.sol\":3847:3854  bytes32 */\n      0x00\n        /* \"contracts/AccessControl.sol\":3873:3885  _roles[role] */\n      dup3\n      dup2\n      mstore\n        /* \"contracts/AccessControl.sol\":3873:3879  _roles */\n      0x01\n        /* \"contracts/AccessControl.sol\":3873:3885  _roles[role] */\n      0x20\n      dup2\n      swap1\n      mstore\n      0x40\n      swap1\n      swap2\n      keccak256\n        /* \"contracts/AccessControl.sol\":3873:3895  _roles[role].adminRole */\n      add\n      sload\n        /* \"contracts/AccessControl.sol\":2436:2452  _checkRole(role) */\n      tag_304\n        /* \"contracts/AccessControl.sol\":2447:2451  role */\n      dup2\n        /* \"contracts/AccessControl.sol\":2436:2446  _checkRole */\n      tag_305\n        /* \"contracts/AccessControl.sol\":2436:2452  _checkRole(role) */\n      jump\t// in\n    tag_304:\n        /* \"contracts/AccessControl.sol\":4302:4327  _grantRole(role, account) */\n      tag_307\n        /* \"contracts/AccessControl.sol\":4313:4317  role */\n      dup4\n        /* \"contracts/AccessControl.sol\":4319:4326  account */\n      dup4\n        /* \"contracts/AccessControl.sol\":4302:4312  _grantRole */\n      tag_308\n        /* \"contracts/AccessControl.sol\":4302:4327  _grantRole(role, account) */\n      jump\t// in\n    tag_307:\n      pop\n        /* \"contracts/AccessControl.sol\":4198:4334  function grantRole(bytes32 role, address account) public virtual onlyRole(getRoleAdmin(role)) {... */\n      pop\n      pop\n      pop\n      jump\t// out\n        /* \"contracts/Bridge.sol\":9315:9624  function renounceRole(bytes32 role, address account)... */\n    tag_103:\n        /* \"contracts/Bridge.sol\":9438:9442  role */\n      dup2\n        /* \"contracts/Bridge.sol\":9430:9496  require(role != DEFAULT_ADMIN_ROLE, \"can not renounce role owner\") */\n      tag_310\n      jumpi\n      mload(0x40)\n      shl(0xe5, 0x461bcd)\n      dup2\n      mstore\n        /* \"#utility.yul\":11989:11991   */\n      0x20\n        /* \"contracts/Bridge.sol\":9430:9496  require(role != DEFAULT_ADMIN_ROLE, \"can not renounce role owner\") */\n      0x04\n      dup3\n      add\n        /* \"#utility.yul\":11971:11992   */\n      mstore\n        /* \"#utility.yul\":12028:12030   */\n      0x1b\n        /* \"#utility.yul\":12008:12026   */\n      0x24\n      dup3\n      add\n        /* \"#utility.yul\":12001:12031   */\n      mstore\n        /* \"#utility.yul\":12067:12096   */\n      0x63616e206e6f742072656e6f756e636520726f6c65206f776e65720000000000\n        /* \"#utility.yul\":12047:12065   */\n      0x44\n      dup3\n      add\n        /* \"#utility.yul\":12040:12097   */\n      mstore\n        /* \"#utility.yul\":12114:12132   */\n      0x64\n      add\n        /* \"contracts/Bridge.sol\":9430:9496  require(role != DEFAULT_ADMIN_ROLE, \"can not renounce role owner\") */\n      tag_282\n        /* \"#utility.yul\":11787:12138   */\n      jump\n        /* \"contracts/Bridge.sol\":9430:9496  require(role != DEFAULT_ADMIN_ROLE, \"can not renounce role owner\") */\n    tag_310:\n      sub(shl(0xa0, 0x01), 0x01)\n        /* \"contracts/Bridge.sol\":9514:9537  account == _msgSender() */\n      dup2\n      and\n        /* \"contracts/Context.sol\":734:744  msg.sender */\n      caller\n        /* \"contracts/Bridge.sol\":9514:9537  account == _msgSender() */\n      eq\n        /* \"contracts/Bridge.sol\":9506:9574  require(account == _msgSender(), \"can only renounce roles for self\") */\n      tag_314\n      jumpi\n      mload(0x40)\n      shl(0xe5, 0x461bcd)\n      dup2\n      mstore\n        /* \"#utility.yul\":12345:12347   */\n      0x20\n        /* \"contracts/Bridge.sol\":9506:9574  require(account == _msgSender(), \"can only renounce roles for self\") */\n      0x04\n      dup3\n      add\n        /* \"#utility.yul\":12327:12348   */\n      dup2\n      swap1\n      mstore\n        /* \"#utility.yul\":12364:12382   */\n      0x24\n      dup3\n      add\n        /* \"#utility.yul\":12357:12387   */\n      mstore\n        /* \"#utility.yul\":12423:12457   */\n      0x63616e206f6e6c792072656e6f756e636520726f6c657320666f722073656c66\n        /* \"#utility.yul\":12403:12421   */\n      0x44\n      dup3\n      add\n        /* \"#utility.yul\":12396:12458   */\n      mstore\n        /* \"#utility.yul\":12475:12493   */\n      0x64\n      add\n        /* \"contracts/Bridge.sol\":9506:9574  require(account == _msgSender(), \"can only renounce roles for self\") */\n      tag_282\n        /* \"#utility.yul\":12143:12499   */\n      jump\n        /* \"contracts/Bridge.sol\":9506:9574  require(account == _msgSender(), \"can only renounce roles for self\") */\n    tag_314:\n        /* \"contracts/Bridge.sol\":9584:9617  super.renounceRole(role, account) */\n      tag_317\n        /* \"contracts/Bridge.sol\":9603:9607  role */\n      dup3\n        /* \"contracts/Bridge.sol\":9609:9616  account */\n      dup3\n        /* \"contracts/Bridge.sol\":9584:9602  super.renounceRole */\n      tag_318\n        /* \"contracts/Bridge.sol\":9584:9617  super.renounceRole(role, account) */\n      jump\t// in\n    tag_317:\n        /* \"contracts/Bridge.sol\":9315:9624  function renounceRole(bytes32 role, address account)... */\n      pop\n      pop\n      jump\t// out\n        /* \"contracts/Bridge.sol\":14755:14820  function unpause() external onlyOwner {... */\n    tag_106:\n        /* \"contracts/Bridge.sol\":1471:1512  hasRole(DEFAULT_ADMIN_ROLE, _msgSender()) */\n      tag_320\n        /* \"contracts/AccessControl.sol\":2204:2208  0x00 */\n      0x00\n        /* \"contracts/Context.sol\":734:744  msg.sender */\n      caller\n        /* \"contracts/AccessControl.sol\":2826:2962  function hasRole(bytes32 role, address account) public view virtual returns (bool) {... */\n      tag_160\n      jump\t// in\n        /* \"contracts/Bridge.sol\":1471:1512  hasRole(DEFAULT_ADMIN_ROLE, _msgSender()) */\n    tag_320:\n        /* \"contracts/Bridge.sol\":1463:1526  require(hasRole(DEFAULT_ADMIN_ROLE, _msgSender()), \"not owner\") */\n      tag_322\n      jumpi\n      mload(0x40)\n      shl(0xe5, 0x461bcd)\n      dup2\n      mstore\n      0x04\n      add\n      tag_282\n      swap1\n      tag_283\n      jump\t// in\n    tag_322:\n        /* \"contracts/Bridge.sol\":14803:14813  _unpause() */\n      tag_325\n        /* \"contracts/Bridge.sol\":14803:14811  _unpause */\n      tag_326\n        /* \"contracts/Bridge.sol\":14803:14813  _unpause() */\n      jump\t// in\n    tag_325:\n        /* \"contracts/Bridge.sol\":14755:14820  function unpause() external onlyOwner {... */\n      jump\t// out\n        /* \"contracts/Bridge.sol\":11123:11442  function setFeePercentageBridge(uint256 newFee)... */\n    tag_114:\n        /* \"contracts/Bridge.sol\":11245:11249  bool */\n      0x00\n        /* \"contracts/Bridge.sol\":1471:1512  hasRole(DEFAULT_ADMIN_ROLE, _msgSender()) */\n      tag_328\n        /* \"contracts/Bridge.sol\":11245:11249  bool */\n      dup2\n        /* \"contracts/Context.sol\":734:744  msg.sender */\n      caller\n        /* \"contracts/AccessControl.sol\":2826:2962  function hasRole(bytes32 role, address account) public view virtual returns (bool) {... */\n      tag_160\n      jump\t// in\n        /* \"contracts/Bridge.sol\":1471:1512  hasRole(DEFAULT_ADMIN_ROLE, _msgSender()) */\n    tag_328:\n        /* \"contracts/Bridge.sol\":1463:1526  require(hasRole(DEFAULT_ADMIN_ROLE, _msgSender()), \"not owner\") */\n      tag_330\n      jumpi\n      mload(0x40)\n      shl(0xe5, 0x461bcd)\n      dup2\n      mstore\n      0x04\n      add\n      tag_282\n      swap1\n      tag_283\n      jump\t// in\n    tag_330:\n        /* \"contracts/Pausable.sol\":1232:1251  _requireNotPaused() */\n      tag_333\n        /* \"contracts/Pausable.sol\":1232:1249  _requireNotPaused */\n      tag_286\n        /* \"contracts/Pausable.sol\":1232:1251  _requireNotPaused() */\n      jump\t// in\n    tag_333:\n        /* \"contracts/Bridge.sol\":11283:11286  100 */\n      0x64\n        /* \"contracts/Bridge.sol\":11273:11279  newFee */\n      dup3\n        /* \"contracts/Bridge.sol\":11273:11286  newFee <= 100 */\n      gt\n      iszero\n        /* \"contracts/Bridge.sol\":11265:11306  require(newFee <= 100, \"Bigger than 10%\") */\n      tag_335\n      jumpi\n      mload(0x40)\n      shl(0xe5, 0x461bcd)\n      dup2\n      mstore\n        /* \"#utility.yul\":12706:12708   */\n      0x20\n        /* \"contracts/Bridge.sol\":11265:11306  require(newFee <= 100, \"Bigger than 10%\") */\n      0x04\n      dup3\n      add\n        /* \"#utility.yul\":12688:12709   */\n      mstore\n        /* \"#utility.yul\":12745:12747   */\n      0x0f\n        /* \"#utility.yul\":12725:12743   */\n      0x24\n      dup3\n      add\n        /* \"#utility.yul\":12718:12748   */\n      mstore\n      shl(0x88, 0x426967676572207468616e20313025)\n        /* \"#utility.yul\":12764:12782   */\n      0x44\n      dup3\n      add\n        /* \"#utility.yul\":12757:12802   */\n      mstore\n        /* \"#utility.yul\":12819:12837   */\n      0x64\n      add\n        /* \"contracts/Bridge.sol\":11265:11306  require(newFee <= 100, \"Bigger than 10%\") */\n      tag_282\n        /* \"#utility.yul\":12504:12843   */\n      jump\n        /* \"contracts/Bridge.sol\":11265:11306  require(newFee <= 100, \"Bigger than 10%\") */\n    tag_335:\n        /* \"contracts/Bridge.sol\":11348:11367  feePercentageBridge */\n      sload(0x05)\n        /* \"contracts/Bridge.sol\":11321:11376  FeePercentageBridgeChanged(feePercentageBridge, newFee) */\n      0x40\n      dup1\n      mload\n        /* \"#utility.yul\":13022:13047   */\n      swap2\n      dup3\n      mstore\n        /* \"#utility.yul\":13078:13080   */\n      0x20\n        /* \"#utility.yul\":13063:13081   */\n      dup3\n      add\n        /* \"#utility.yul\":13056:13090   */\n      dup5\n      swap1\n      mstore\n        /* \"contracts/Bridge.sol\":11321:11376  FeePercentageBridgeChanged(feePercentageBridge, newFee) */\n      0x423d9a8a1d4011c45245817ab10cc09937b0786496dad82dba18141ca4fb7c8e\n      swap2\n        /* \"#utility.yul\":12995:13013   */\n      add\n        /* \"contracts/Bridge.sol\":11321:11376  FeePercentageBridgeChanged(feePercentageBridge, newFee) */\n      mload(0x40)\n      dup1\n      swap2\n      sub\n      swap1\n      log1\n      pop\n        /* \"contracts/Bridge.sol\":11386:11405  feePercentageBridge */\n      0x05\n        /* \"contracts/Bridge.sol\":11386:11414  feePercentageBridge = newFee */\n      dup2\n      swap1\n      sstore\n        /* \"contracts/Bridge.sol\":11431:11435  true */\n      0x01\n        /* \"contracts/Pausable.sol\":1261:1262  _ */\n    tag_334:\n        /* \"contracts/Bridge.sol\":11123:11442  function setFeePercentageBridge(uint256 newFee)... */\n      swap2\n      swap1\n      pop\n      jump\t// out\n        /* \"contracts/Bridge.sol\":8698:8827  function setFeeNative(uint256 amount) external onlyOwner returns (bool) {... */\n    tag_119:\n        /* \"contracts/Bridge.sol\":8764:8768  bool */\n      0x00\n        /* \"contracts/Bridge.sol\":1471:1512  hasRole(DEFAULT_ADMIN_ROLE, _msgSender()) */\n      tag_341\n        /* \"contracts/Bridge.sol\":8764:8768  bool */\n      dup2\n        /* \"contracts/Context.sol\":734:744  msg.sender */\n      caller\n        /* \"contracts/AccessControl.sol\":2826:2962  function hasRole(bytes32 role, address account) public view virtual returns (bool) {... */\n      tag_160\n      jump\t// in\n        /* \"contracts/Bridge.sol\":1471:1512  hasRole(DEFAULT_ADMIN_ROLE, _msgSender()) */\n    tag_341:\n        /* \"contracts/Bridge.sol\":1463:1526  require(hasRole(DEFAULT_ADMIN_ROLE, _msgSender()), \"not owner\") */\n      tag_343\n      jumpi\n      mload(0x40)\n      shl(0xe5, 0x461bcd)\n      dup2\n      mstore\n      0x04\n      add\n      tag_282\n      swap1\n      tag_283\n      jump\t// in\n    tag_343:\n      pop\n        /* \"contracts/Bridge.sol\":8780:8790  FEE_NATIVE */\n      0x04\n        /* \"contracts/Bridge.sol\":8780:8799  FEE_NATIVE = amount */\n      sstore\n        /* \"contracts/Bridge.sol\":8816:8820  true */\n      0x01\n      swap1\n        /* \"contracts/Bridge.sol\":8698:8827  function setFeeNative(uint256 amount) external onlyOwner returns (bool) {... */\n      jump\t// out\n        /* \"contracts/Bridge.sol\":9030:9309  function delMonitor(address account)... */\n    tag_129:\n        /* \"contracts/Bridge.sol\":9141:9145  bool */\n      0x00\n        /* \"contracts/Bridge.sol\":1471:1512  hasRole(DEFAULT_ADMIN_ROLE, _msgSender()) */\n      tag_348\n        /* \"contracts/Bridge.sol\":9141:9145  bool */\n      dup2\n        /* \"contracts/Context.sol\":734:744  msg.sender */\n      caller\n        /* \"contracts/AccessControl.sol\":2826:2962  function hasRole(bytes32 role, address account) public view virtual returns (bool) {... */\n      tag_160\n      jump\t// in\n        /* \"contracts/Bridge.sol\":1471:1512  hasRole(DEFAULT_ADMIN_ROLE, _msgSender()) */\n    tag_348:\n        /* \"contracts/Bridge.sol\":1463:1526  require(hasRole(DEFAULT_ADMIN_ROLE, _msgSender()), \"not owner\") */\n      tag_350\n      jumpi\n      mload(0x40)\n      shl(0xe5, 0x461bcd)\n      dup2\n      mstore\n      0x04\n      add\n      tag_282\n      swap1\n      tag_283\n      jump\t// in\n    tag_350:\n        /* \"contracts/Pausable.sol\":1232:1251  _requireNotPaused() */\n      tag_353\n        /* \"contracts/Pausable.sol\":1232:1249  _requireNotPaused */\n      tag_286\n        /* \"contracts/Pausable.sol\":1232:1251  _requireNotPaused() */\n      jump\t// in\n    tag_353:\n        /* \"contracts/Bridge.sol\":9248:9281  revokeRole(MONITOR_ROLE, account) */\n      tag_355\n      0x00\n      dup1\n      mload\n      0x20\n      data_d6a6016c81f51cb4dddbbc8ef9ddf0093cf3b17d39f0f71122b555af630af1fe\n      dup4\n      codecopy\n      dup2\n      mload\n      swap2\n      mstore\n        /* \"contracts/Bridge.sol\":9273:9280  account */\n      dup4\n        /* \"contracts/Bridge.sol\":9248:9258  revokeRole */\n      tag_220\n        /* \"contracts/Bridge.sol\":9248:9281  revokeRole(MONITOR_ROLE, account) */\n      jump\t// in\n    tag_355:\n      pop\n        /* \"contracts/Bridge.sol\":9298:9302  true */\n      0x01\n        /* \"contracts/Bridge.sol\":9030:9309  function delMonitor(address account)... */\n      swap2\n      swap1\n      pop\n      jump\t// out\n        /* \"contracts/Bridge.sol\":4424:5279  function acceptTransfer(... */\n    tag_143:\n        /* \"contracts/Bridge.sol\":4690:4694  bool */\n      0x00\n        /* \"contracts/Bridge.sol\":1591:1626  hasRole(MONITOR_ROLE, _msgSender()) */\n      tag_357\n      0x00\n      dup1\n      mload\n      0x20\n      data_d6a6016c81f51cb4dddbbc8ef9ddf0093cf3b17d39f0f71122b555af630af1fe\n      dup4\n      codecopy\n      dup2\n      mload\n      swap2\n      mstore\n        /* \"contracts/Context.sol\":734:744  msg.sender */\n      caller\n        /* \"contracts/AccessControl.sol\":2826:2962  function hasRole(bytes32 role, address account) public view virtual returns (bool) {... */\n      tag_160\n      jump\t// in\n        /* \"contracts/Bridge.sol\":1591:1626  hasRole(MONITOR_ROLE, _msgSender()) */\n    tag_357:\n        /* \"contracts/Bridge.sol\":1583:1642  require(hasRole(MONITOR_ROLE, _msgSender()), \"not monitor\") */\n      tag_359\n      jumpi\n      mload(0x40)\n      shl(0xe5, 0x461bcd)\n      dup2\n      mstore\n        /* \"#utility.yul\":13303:13305   */\n      0x20\n        /* \"contracts/Bridge.sol\":1583:1642  require(hasRole(MONITOR_ROLE, _msgSender()), \"not monitor\") */\n      0x04\n      dup3\n      add\n        /* \"#utility.yul\":13285:13306   */\n      mstore\n        /* \"#utility.yul\":13342:13344   */\n      0x0b\n        /* \"#utility.yul\":13322:13340   */\n      0x24\n      dup3\n      add\n        /* \"#utility.yul\":13315:13345   */\n      mstore\n      shl(0xa9, 0x3737ba1036b7b734ba37b9)\n        /* \"#utility.yul\":13361:13379   */\n      0x44\n      dup3\n      add\n        /* \"#utility.yul\":13354:13395   */\n      mstore\n        /* \"#utility.yul\":13412:13430   */\n      0x64\n      add\n        /* \"contracts/Bridge.sol\":1583:1642  require(hasRole(MONITOR_ROLE, _msgSender()), \"not monitor\") */\n      tag_282\n        /* \"#utility.yul\":13101:13436   */\n      jump\n        /* \"contracts/Bridge.sol\":1583:1642  require(hasRole(MONITOR_ROLE, _msgSender()), \"not monitor\") */\n    tag_359:\n        /* \"contracts/Pausable.sol\":1232:1251  _requireNotPaused() */\n      tag_363\n        /* \"contracts/Pausable.sol\":1232:1249  _requireNotPaused */\n      tag_286\n        /* \"contracts/Pausable.sol\":1232:1251  _requireNotPaused() */\n      jump\t// in\n    tag_363:\n      sub(shl(0xa0, 0x01), 0x01)\n        /* \"contracts/Bridge.sol\":4714:4738  receiver != ZERO_ADDRESS */\n      dup9\n      and\n        /* \"contracts/Bridge.sol\":4706:4759  require(receiver != ZERO_ADDRESS, \"receiver is zero\") */\n      tag_365\n      jumpi\n      mload(0x40)\n      shl(0xe5, 0x461bcd)\n      dup2\n      mstore\n        /* \"#utility.yul\":13643:13645   */\n      0x20\n        /* \"contracts/Bridge.sol\":4706:4759  require(receiver != ZERO_ADDRESS, \"receiver is zero\") */\n      0x04\n      dup3\n      add\n        /* \"#utility.yul\":13625:13646   */\n      mstore\n        /* \"#utility.yul\":13682:13684   */\n      0x10\n        /* \"#utility.yul\":13662:13680   */\n      0x24\n      dup3\n      add\n        /* \"#utility.yul\":13655:13685   */\n      mstore\n      shl(0x80, 0x7265636569766572206973207a65726f)\n        /* \"#utility.yul\":13701:13719   */\n      0x44\n      dup3\n      add\n        /* \"#utility.yul\":13694:13740   */\n      mstore\n        /* \"#utility.yul\":13757:13775   */\n      0x64\n      add\n        /* \"contracts/Bridge.sol\":4706:4759  require(receiver != ZERO_ADDRESS, \"receiver is zero\") */\n      tag_282\n        /* \"#utility.yul\":13441:13781   */\n      jump\n        /* \"contracts/Bridge.sol\":4706:4759  require(receiver != ZERO_ADDRESS, \"receiver is zero\") */\n    tag_365:\n        /* \"contracts/Bridge.sol\":4786:4787  0 */\n      0x00\n        /* \"contracts/Bridge.sol\":4777:4783  amount */\n      dup8\n        /* \"contracts/Bridge.sol\":4777:4787  amount > 0 */\n      gt\n        /* \"contracts/Bridge.sol\":4769:4803  require(amount > 0, \"amount is 0\") */\n      tag_368\n      jumpi\n      mload(0x40)\n      shl(0xe5, 0x461bcd)\n      dup2\n      mstore\n        /* \"#utility.yul\":13988:13990   */\n      0x20\n        /* \"contracts/Bridge.sol\":4769:4803  require(amount > 0, \"amount is 0\") */\n      0x04\n      dup3\n      add\n        /* \"#utility.yul\":13970:13991   */\n      mstore\n        /* \"#utility.yul\":14027:14029   */\n      0x0b\n        /* \"#utility.yul\":14007:14025   */\n      0x24\n      dup3\n      add\n        /* \"#utility.yul\":14000:14030   */\n      mstore\n      shl(0xac, 0x0616d6f756e74206973203)\n        /* \"#utility.yul\":14046:14064   */\n      0x44\n      dup3\n      add\n        /* \"#utility.yul\":14039:14080   */\n      mstore\n        /* \"#utility.yul\":14097:14115   */\n      0x64\n      add\n        /* \"contracts/Bridge.sol\":4769:4803  require(amount > 0, \"amount is 0\") */\n      tag_282\n        /* \"#utility.yul\":13786:14121   */\n      jump\n        /* \"contracts/Bridge.sol\":4769:4803  require(amount > 0, \"amount is 0\") */\n    tag_368:\n        /* \"contracts/Bridge.sol\":4834:4870  existsBlockchainFrom(fromBlockchain) */\n      tag_371\n        /* \"contracts/Bridge.sol\":4855:4869  fromBlockchain */\n      dup7\n      dup7\n        /* \"contracts/Bridge.sol\":4834:4870  existsBlockchainFrom(fromBlockchain) */\n      dup1\n      dup1\n      0x1f\n      add\n      0x20\n      dup1\n      swap2\n      div\n      mul\n      0x20\n      add\n      mload(0x40)\n      swap1\n      dup2\n      add\n      0x40\n      mstore\n      dup1\n      swap4\n      swap3\n      swap2\n      swap1\n      dup2\n      dup2\n      mstore\n      0x20\n      add\n      dup4\n      dup4\n      dup1\n      dup3\n      dup5\n      calldatacopy\n      0x00\n      swap3\n      add\n      swap2\n      swap1\n      swap2\n      mstore\n      pop\n        /* \"contracts/Bridge.sol\":4834:4854  existsBlockchainFrom */\n      tag_210\n      swap3\n      pop\n      pop\n      pop\n        /* \"contracts/Bridge.sol\":4834:4870  existsBlockchainFrom(fromBlockchain) */\n      jump\t// in\n    tag_371:\n        /* \"contracts/Bridge.sol\":4813:4921  require(... */\n      tag_372\n      jumpi\n      mload(0x40)\n      shl(0xe5, 0x461bcd)\n      dup2\n      mstore\n        /* \"#utility.yul\":14328:14330   */\n      0x20\n        /* \"contracts/Bridge.sol\":4813:4921  require(... */\n      0x04\n      dup3\n      add\n        /* \"#utility.yul\":14310:14331   */\n      mstore\n        /* \"#utility.yul\":14367:14369   */\n      0x19\n        /* \"#utility.yul\":14347:14365   */\n      0x24\n      dup3\n      add\n        /* \"#utility.yul\":14340:14370   */\n      mstore\n        /* \"#utility.yul\":14406:14433   */\n      0x66726f6d426c6f636b636861696e206e6f742065786973747300000000000000\n        /* \"#utility.yul\":14386:14404   */\n      0x44\n      dup3\n      add\n        /* \"#utility.yul\":14379:14434   */\n      mstore\n        /* \"#utility.yul\":14451:14469   */\n      0x64\n      add\n        /* \"contracts/Bridge.sol\":4813:4921  require(... */\n      tag_282\n        /* \"#utility.yul\":14126:14475   */\n      jump\n        /* \"contracts/Bridge.sol\":4813:4921  require(... */\n    tag_372:\n        /* \"contracts/Bridge.sol\":4939:4948  blockHash */\n      dup4\n        /* \"contracts/Bridge.sol\":4931:4983  require(blockHash != NULL_HASH, \"blockHash is null\") */\n      tag_375\n      jumpi\n      mload(0x40)\n      shl(0xe5, 0x461bcd)\n      dup2\n      mstore\n        /* \"#utility.yul\":14682:14684   */\n      0x20\n        /* \"contracts/Bridge.sol\":4931:4983  require(blockHash != NULL_HASH, \"blockHash is null\") */\n      0x04\n      dup3\n      add\n        /* \"#utility.yul\":14664:14685   */\n      mstore\n        /* \"#utility.yul\":14721:14723   */\n      0x11\n        /* \"#utility.yul\":14701:14719   */\n      0x24\n      dup3\n      add\n        /* \"#utility.yul\":14694:14724   */\n      mstore\n      shl(0x7a, 0x189b1bd8dad2185cda081a5cc81b9d5b1b)\n        /* \"#utility.yul\":14740:14758   */\n      0x44\n      dup3\n      add\n        /* \"#utility.yul\":14733:14780   */\n      mstore\n        /* \"#utility.yul\":14797:14815   */\n      0x64\n      add\n        /* \"contracts/Bridge.sol\":4931:4983  require(blockHash != NULL_HASH, \"blockHash is null\") */\n      tag_282\n        /* \"#utility.yul\":14480:14821   */\n      jump\n        /* \"contracts/Bridge.sol\":4931:4983  require(blockHash != NULL_HASH, \"blockHash is null\") */\n    tag_375:\n        /* \"contracts/Bridge.sol\":5001:5016  transactionHash */\n      dup3\n        /* \"contracts/Bridge.sol\":4993:5057  require(transactionHash != NULL_HASH, \"transactionHash is null\") */\n      tag_378\n      jumpi\n      mload(0x40)\n      shl(0xe5, 0x461bcd)\n      dup2\n      mstore\n        /* \"#utility.yul\":15028:15030   */\n      0x20\n        /* \"contracts/Bridge.sol\":4993:5057  require(transactionHash != NULL_HASH, \"transactionHash is null\") */\n      0x04\n      dup3\n      add\n        /* \"#utility.yul\":15010:15031   */\n      mstore\n        /* \"#utility.yul\":15067:15069   */\n      0x17\n        /* \"#utility.yul\":15047:15065   */\n      0x24\n      dup3\n      add\n        /* \"#utility.yul\":15040:15070   */\n      mstore\n        /* \"#utility.yul\":15106:15131   */\n      0x7472616e73616374696f6e48617368206973206e756c6c000000000000000000\n        /* \"#utility.yul\":15086:15104   */\n      0x44\n      dup3\n      add\n        /* \"#utility.yul\":15079:15132   */\n      mstore\n        /* \"#utility.yul\":15149:15167   */\n      0x64\n      add\n        /* \"contracts/Bridge.sol\":4993:5057  require(transactionHash != NULL_HASH, \"transactionHash is null\") */\n      tag_282\n        /* \"#utility.yul\":14826:15173   */\n      jump\n        /* \"contracts/Bridge.sol\":4993:5057  require(transactionHash != NULL_HASH, \"transactionHash is null\") */\n    tag_378:\n        /* \"contracts/Bridge.sol\":5068:5213  _processTransaction(... */\n      tag_381\n        /* \"contracts/Bridge.sol\":5101:5110  blockHash */\n      dup5\n        /* \"contracts/Bridge.sol\":5124:5139  transactionHash */\n      dup5\n        /* \"contracts/Bridge.sol\":5153:5161  receiver */\n      dup11\n        /* \"contracts/Bridge.sol\":5175:5181  amount */\n      dup11\n        /* \"contracts/Bridge.sol\":5195:5203  logIndex */\n      dup7\n        /* \"contracts/Bridge.sol\":5068:5087  _processTransaction */\n      tag_382\n        /* \"contracts/Bridge.sol\":5068:5213  _processTransaction(... */\n      jump\t// in\n    tag_381:\n        /* \"contracts/Bridge.sol\":5223:5251  _sendToken(receiver, amount) */\n      tag_383\n        /* \"contracts/Bridge.sol\":5234:5242  receiver */\n      dup9\n        /* \"contracts/Bridge.sol\":5244:5250  amount */\n      dup9\n        /* \"contracts/Bridge.sol\":5223:5233  _sendToken */\n      tag_384\n        /* \"contracts/Bridge.sol\":5223:5251  _sendToken(receiver, amount) */\n      jump\t// in\n    tag_383:\n      pop\n        /* \"contracts/Bridge.sol\":5268:5272  true */\n      0x01\n      swap9\n        /* \"contracts/Bridge.sol\":4424:5279  function acceptTransfer(... */\n      swap8\n      pop\n      pop\n      pop\n      pop\n      pop\n      pop\n      pop\n      pop\n      jump\t// out\n        /* \"contracts/Bridge.sol\":7643:7862  function getTokenBalance() external view override returns (uint256) {... */\n    tag_147:\n        /* \"contracts/Bridge.sol\":7725:7730  token */\n      sload(0x02)\n        /* \"contracts/Bridge.sol\":7702:7709  uint256 */\n      0x00\n      swap1\n        /* \"contracts/Bridge.sol\":7725:7730  token */\n      0x0100\n      swap1\n      div\n      sub(shl(0xa0, 0x01), 0x01)\n      and\n        /* \"contracts/Bridge.sol\":7725:7746  token != ZERO_ADDRESS */\n      iszero\n        /* \"contracts/Bridge.sol\":7721:7818  if (token != ZERO_ADDRESS) {... */\n      tag_386\n      jumpi\n        /* \"contracts/Bridge.sol\":7776:7781  token */\n      sload(0x02)\n        /* \"contracts/Bridge.sol\":7769:7807  IERC20(token).balanceOf(address(this)) */\n      mload(0x40)\n      shl(0xe0, 0x70a08231)\n      dup2\n      mstore\n        /* \"contracts/Bridge.sol\":7801:7805  this */\n      address\n        /* \"contracts/Bridge.sol\":7769:7807  IERC20(token).balanceOf(address(this)) */\n      0x04\n      dup3\n      add\n        /* \"#utility.yul\":9595:9646   */\n      mstore\n        /* \"contracts/Bridge.sol\":7776:7781  token */\n      0x0100\n      swap1\n      swap2\n      div\n      sub(shl(0xa0, 0x01), 0x01)\n      and\n      swap1\n        /* \"contracts/Bridge.sol\":7769:7792  IERC20(token).balanceOf */\n      0x70a08231\n      swap1\n        /* \"#utility.yul\":9568:9586   */\n      0x24\n      add\n        /* \"contracts/Bridge.sol\":7769:7807  IERC20(token).balanceOf(address(this)) */\n      0x20\n      mload(0x40)\n      dup1\n      dup4\n      sub\n      dup2\n      dup7\n      gas\n      staticcall\n      iszero\n      dup1\n      iszero\n      tag_389\n      jumpi\n      returndatasize\n      0x00\n      dup1\n      returndatacopy\n      revert(0x00, returndatasize)\n    tag_389:\n      pop\n      pop\n      pop\n      pop\n      mload(0x40)\n      returndatasize\n      not(0x1f)\n      0x1f\n      dup3\n      add\n      and\n      dup3\n      add\n      dup1\n      0x40\n      mstore\n      pop\n      dup2\n      add\n      swap1\n      tag_390\n      swap2\n      swap1\n      tag_391\n      jump\t// in\n    tag_390:\n        /* \"contracts/Bridge.sol\":7762:7807  return IERC20(token).balanceOf(address(this)) */\n      swap1\n      pop\n        /* \"contracts/Bridge.sol\":7643:7862  function getTokenBalance() external view override returns (uint256) {... */\n      swap1\n      jump\t// out\n        /* \"contracts/Bridge.sol\":7721:7818  if (token != ZERO_ADDRESS) {... */\n    tag_386:\n      pop\n        /* \"contracts/Bridge.sol\":7834:7855  address(this).balance */\n      selfbalance\n      swap1\n        /* \"contracts/Bridge.sol\":7643:7862  function getTokenBalance() external view override returns (uint256) {... */\n      jump\t// out\n        /* \"contracts/Bridge.sol\":14688:14749  function pause() external onlyOwner {... */\n    tag_151:\n        /* \"contracts/Bridge.sol\":1471:1512  hasRole(DEFAULT_ADMIN_ROLE, _msgSender()) */\n      tag_393\n        /* \"contracts/AccessControl.sol\":2204:2208  0x00 */\n      0x00\n        /* \"contracts/Context.sol\":734:744  msg.sender */\n      caller\n        /* \"contracts/AccessControl.sol\":2826:2962  function hasRole(bytes32 role, address account) public view virtual returns (bool) {... */\n      tag_160\n      jump\t// in\n        /* \"contracts/Bridge.sol\":1471:1512  hasRole(DEFAULT_ADMIN_ROLE, _msgSender()) */\n    tag_393:\n        /* \"contracts/Bridge.sol\":1463:1526  require(hasRole(DEFAULT_ADMIN_ROLE, _msgSender()), \"not owner\") */\n      tag_395\n      jumpi\n      mload(0x40)\n      shl(0xe5, 0x461bcd)\n      dup2\n      mstore\n      0x04\n      add\n      tag_282\n      swap1\n      tag_283\n      jump\t// in\n    tag_395:\n        /* \"contracts/Bridge.sol\":14734:14742  _pause() */\n      tag_325\n        /* \"contracts/Bridge.sol\":14734:14740  _pause */\n      tag_399\n        /* \"contracts/Bridge.sol\":14734:14742  _pause() */\n      jump\t// in\n        /* \"contracts/Bridge.sol\":13946:14682  function delBlockchainTo(string memory name)... */\n    tag_155:\n        /* \"contracts/Bridge.sol\":14065:14069  bool */\n      0x00\n        /* \"contracts/Bridge.sol\":1471:1512  hasRole(DEFAULT_ADMIN_ROLE, _msgSender()) */\n      tag_401\n        /* \"contracts/Bridge.sol\":14065:14069  bool */\n      dup2\n        /* \"contracts/Context.sol\":734:744  msg.sender */\n      caller\n        /* \"contracts/AccessControl.sol\":2826:2962  function hasRole(bytes32 role, address account) public view virtual returns (bool) {... */\n      tag_160\n      jump\t// in\n        /* \"contracts/Bridge.sol\":1471:1512  hasRole(DEFAULT_ADMIN_ROLE, _msgSender()) */\n    tag_401:\n        /* \"contracts/Bridge.sol\":1463:1526  require(hasRole(DEFAULT_ADMIN_ROLE, _msgSender()), \"not owner\") */\n      tag_403\n      jumpi\n      mload(0x40)\n      shl(0xe5, 0x461bcd)\n      dup2\n      mstore\n      0x04\n      add\n      tag_282\n      swap1\n      tag_283\n      jump\t// in\n    tag_403:\n        /* \"contracts/Pausable.sol\":1232:1251  _requireNotPaused() */\n      tag_406\n        /* \"contracts/Pausable.sol\":1232:1249  _requireNotPaused */\n      tag_286\n        /* \"contracts/Pausable.sol\":1232:1251  _requireNotPaused() */\n      jump\t// in\n    tag_406:\n        /* \"contracts/Bridge.sol\":14093:14117  existsBlockchainTo(name) */\n      tag_408\n        /* \"contracts/Bridge.sol\":14112:14116  name */\n      dup3\n        /* \"contracts/Bridge.sol\":14093:14111  existsBlockchainTo */\n      tag_234\n        /* \"contracts/Bridge.sol\":14093:14117  existsBlockchainTo(name) */\n      jump\t// in\n    tag_408:\n        /* \"contracts/Bridge.sol\":14085:14143  require(existsBlockchainTo(name), \"blockchain not exists\") */\n      tag_409\n      jumpi\n      mload(0x40)\n      shl(0xe5, 0x461bcd)\n      dup2\n      mstore\n      0x04\n      add\n      tag_282\n      swap1\n      tag_291\n      jump\t// in\n    tag_409:\n        /* \"contracts/Bridge.sol\":14153:14174  uint256 indexToDelete */\n      0x00\n        /* \"contracts/Bridge.sol\":14203:14204  1 */\n      0x01\n        /* \"contracts/Bridge.sol\":14177:14194  blockchainIndexTo */\n      0x09\n        /* \"contracts/Bridge.sol\":14195:14199  name */\n      dup5\n        /* \"contracts/Bridge.sol\":14177:14200  blockchainIndexTo[name] */\n      mload(0x40)\n      tag_411\n      swap2\n      swap1\n      tag_269\n      jump\t// in\n    tag_411:\n      swap1\n      dup2\n      mstore\n      0x20\n      add\n      mload(0x40)\n      dup1\n      swap2\n      sub\n      swap1\n      keccak256\n      sload\n        /* \"contracts/Bridge.sol\":14177:14204  blockchainIndexTo[name] - 1 */\n      tag_412\n      swap2\n      swap1\n      tag_271\n      jump\t// in\n    tag_412:\n        /* \"contracts/Bridge.sol\":14236:14252  blockchainInfoTo */\n      0x0b\n        /* \"contracts/Bridge.sol\":14236:14259  blockchainInfoTo.length */\n      sload\n        /* \"contracts/Bridge.sol\":14153:14204  uint256 indexToDelete = blockchainIndexTo[name] - 1 */\n      swap1\n      swap2\n      pop\n        /* \"contracts/Bridge.sol\":14214:14233  uint256 indexToMove */\n      0x00\n      swap1\n        /* \"contracts/Bridge.sol\":14236:14263  blockchainInfoTo.length - 1 */\n      tag_413\n      swap1\n        /* \"contracts/Bridge.sol\":14262:14263  1 */\n      0x01\n      swap1\n        /* \"contracts/Bridge.sol\":14236:14263  blockchainInfoTo.length - 1 */\n      tag_271\n      jump\t// in\n    tag_413:\n        /* \"contracts/Bridge.sol\":14214:14263  uint256 indexToMove = blockchainInfoTo.length - 1 */\n      swap1\n      pop\n        /* \"contracts/Bridge.sol\":14273:14296  string memory keyToMove */\n      0x00\n        /* \"contracts/Bridge.sol\":14299:14319  toBlockchainTransfer */\n      0x0d\n        /* \"contracts/Bridge.sol\":14320:14331  indexToMove */\n      dup3\n        /* \"contracts/Bridge.sol\":14299:14332  toBlockchainTransfer[indexToMove] */\n      dup2\n      sload\n      dup2\n      lt\n      tag_415\n      jumpi\n      tag_415\n      tag_274\n      jump\t// in\n    tag_415:\n      swap1\n      0x00\n      mstore\n      keccak256(0x00, 0x20)\n      add\n        /* \"contracts/Bridge.sol\":14273:14332  string memory keyToMove = toBlockchainTransfer[indexToMove] */\n      dup1\n      sload\n      tag_417\n      swap1\n      tag_262\n      jump\t// in\n    tag_417:\n      dup1\n      0x1f\n      add\n      0x20\n      dup1\n      swap2\n      div\n      mul\n      0x20\n      add\n      mload(0x40)\n      swap1\n      dup2\n      add\n      0x40\n      mstore\n      dup1\n      swap3\n      swap2\n      swap1\n      dup2\n      dup2\n      mstore\n      0x20\n      add\n      dup3\n      dup1\n      sload\n      tag_418\n      swap1\n      tag_262\n      jump\t// in\n    tag_418:\n      dup1\n      iszero\n      tag_419\n      jumpi\n      dup1\n      0x1f\n      lt\n      tag_420\n      jumpi\n      0x0100\n      dup1\n      dup4\n      sload\n      div\n      mul\n      dup4\n      mstore\n      swap2\n      0x20\n      add\n      swap2\n      jump(tag_419)\n    tag_420:\n      dup3\n      add\n      swap2\n      swap1\n      0x00\n      mstore\n      keccak256(0x00, 0x20)\n      swap1\n    tag_421:\n      dup2\n      sload\n      dup2\n      mstore\n      swap1\n      0x01\n      add\n      swap1\n      0x20\n      add\n      dup1\n      dup4\n      gt\n      tag_421\n      jumpi\n      dup3\n      swap1\n      sub\n      0x1f\n      and\n      dup3\n      add\n      swap2\n    tag_419:\n      pop\n      pop\n      pop\n      pop\n      pop\n      swap1\n      pop\n        /* \"contracts/Bridge.sol\":14377:14393  blockchainInfoTo */\n      0x0b\n        /* \"contracts/Bridge.sol\":14394:14405  indexToMove */\n      dup3\n        /* \"contracts/Bridge.sol\":14377:14406  blockchainInfoTo[indexToMove] */\n      dup2\n      sload\n      dup2\n      lt\n      tag_423\n      jumpi\n      tag_423\n      tag_274\n      jump\t// in\n    tag_423:\n      swap1\n      0x00\n      mstore\n      keccak256(0x00, 0x20)\n      add\n        /* \"contracts/Bridge.sol\":14343:14359  blockchainInfoTo */\n      0x0b\n        /* \"contracts/Bridge.sol\":14360:14373  indexToDelete */\n      dup5\n        /* \"contracts/Bridge.sol\":14343:14374  blockchainInfoTo[indexToDelete] */\n      dup2\n      sload\n      dup2\n      lt\n      tag_426\n      jumpi\n      tag_426\n      tag_274\n      jump\t// in\n    tag_426:\n      0x00\n      swap2\n      dup3\n      mstore\n      0x20\n      swap1\n      swap2\n      keccak256\n        /* \"contracts/Bridge.sol\":14343:14406  blockchainInfoTo[indexToDelete] = blockchainInfoTo[indexToMove] */\n      swap2\n      sload\n        /* \"contracts/Bridge.sol\":14343:14374  blockchainInfoTo[indexToDelete] */\n      swap2\n      add\n        /* \"contracts/Bridge.sol\":14343:14406  blockchainInfoTo[indexToDelete] = blockchainInfoTo[indexToMove] */\n      sstore\n        /* \"contracts/Bridge.sol\":14454:14474  toBlockchainTransfer */\n      0x0d\n        /* \"contracts/Bridge.sol\":14454:14487  toBlockchainTransfer[indexToMove] */\n      dup1\n      sload\n        /* \"contracts/Bridge.sol\":14475:14486  indexToMove */\n      dup4\n      swap1\n        /* \"contracts/Bridge.sol\":14454:14487  toBlockchainTransfer[indexToMove] */\n      dup2\n      lt\n      tag_429\n      jumpi\n      tag_429\n      tag_274\n      jump\t// in\n    tag_429:\n      swap1\n      0x00\n      mstore\n      keccak256(0x00, 0x20)\n      add\n        /* \"contracts/Bridge.sol\":14416:14436  toBlockchainTransfer */\n      0x0d\n        /* \"contracts/Bridge.sol\":14437:14450  indexToDelete */\n      dup5\n        /* \"contracts/Bridge.sol\":14416:14451  toBlockchainTransfer[indexToDelete] */\n      dup2\n      sload\n      dup2\n      lt\n      tag_432\n      jumpi\n      tag_432\n      tag_274\n      jump\t// in\n    tag_432:\n      swap1\n      0x00\n      mstore\n      keccak256(0x00, 0x20)\n      add\n        /* \"contracts/Bridge.sol\":14416:14487  toBlockchainTransfer[indexToDelete] = toBlockchainTransfer[indexToMove] */\n      swap1\n      dup2\n      tag_434\n      swap2\n      swap1\n      tag_435\n      jump\t// in\n    tag_434:\n      pop\n        /* \"contracts/Bridge.sol\":14528:14545  indexToDelete + 1 */\n      tag_436\n        /* \"contracts/Bridge.sol\":14528:14541  indexToDelete */\n      dup4\n        /* \"contracts/Bridge.sol\":14544:14545  1 */\n      0x01\n        /* \"contracts/Bridge.sol\":14528:14545  indexToDelete + 1 */\n      tag_437\n      jump\t// in\n    tag_436:\n        /* \"contracts/Bridge.sol\":14497:14514  blockchainIndexTo */\n      0x09\n        /* \"contracts/Bridge.sol\":14515:14524  keyToMove */\n      dup3\n        /* \"contracts/Bridge.sol\":14497:14525  blockchainIndexTo[keyToMove] */\n      mload(0x40)\n      tag_438\n      swap2\n      swap1\n      tag_269\n      jump\t// in\n    tag_438:\n      swap1\n      dup2\n      mstore\n      0x20\n      add\n      mload(0x40)\n      dup1\n      swap2\n      sub\n      swap1\n      keccak256\n        /* \"contracts/Bridge.sol\":14497:14545  blockchainIndexTo[keyToMove] = indexToDelete + 1 */\n      dup2\n      swap1\n      sstore\n      pop\n        /* \"contracts/Bridge.sol\":14563:14580  blockchainIndexTo */\n      0x09\n        /* \"contracts/Bridge.sol\":14581:14585  name */\n      dup6\n        /* \"contracts/Bridge.sol\":14563:14586  blockchainIndexTo[name] */\n      mload(0x40)\n      tag_439\n      swap2\n      swap1\n      tag_269\n      jump\t// in\n    tag_439:\n      swap1\n      dup2\n      mstore\n      0x20\n      add\n      mload(0x40)\n      dup1\n      swap2\n      sub\n      swap1\n      keccak256\n        /* \"contracts/Bridge.sol\":14556:14586  delete blockchainIndexTo[name] */\n      0x00\n      swap1\n      sstore\n        /* \"contracts/Bridge.sol\":14596:14612  blockchainInfoTo */\n      0x0b\n        /* \"contracts/Bridge.sol\":14596:14618  blockchainInfoTo.pop() */\n      dup1\n      sload\n      dup1\n      tag_441\n      jumpi\n      tag_441\n      tag_442\n      jump\t// in\n    tag_441:\n      0x00\n      dup3\n      dup2\n      mstore\n      0x20\n      dup2\n      keccak256\n      dup3\n      add\n      not(0x00)\n      swap1\n      dup2\n      add\n      swap2\n      swap1\n      swap2\n      sstore\n      add\n      swap1\n      sstore\n        /* \"contracts/Bridge.sol\":14628:14648  toBlockchainTransfer */\n      0x0d\n        /* \"contracts/Bridge.sol\":14628:14654  toBlockchainTransfer.pop() */\n      dup1\n      sload\n      dup1\n      tag_445\n      jumpi\n      tag_445\n      tag_442\n      jump\t// in\n    tag_445:\n      0x01\n      swap1\n      sub\n      dup2\n      dup2\n      swap1\n      0x00\n      mstore\n      keccak256(0x00, 0x20)\n      add\n      0x00\n      tag_447\n      swap2\n      swap1\n      tag_448\n      jump\t// in\n    tag_447:\n      swap1\n      sstore\n      pop\n        /* \"contracts/Bridge.sol\":14671:14675  true */\n      0x01\n      swap5\n        /* \"contracts/Bridge.sol\":13946:14682  function delBlockchainTo(string memory name)... */\n      swap4\n      pop\n      pop\n      pop\n      pop\n      jump\t// out\n        /* \"contracts/AccessControl.sol\":2826:2962  function hasRole(bytes32 role, address account) public view virtual returns (bool) {... */\n    tag_160:\n        /* \"contracts/AccessControl.sol\":2903:2907  bool */\n      0x00\n        /* \"contracts/AccessControl.sol\":2926:2938  _roles[role] */\n      swap2\n      dup3\n      mstore\n        /* \"contracts/AccessControl.sol\":2926:2932  _roles */\n      0x01\n        /* \"contracts/AccessControl.sol\":2926:2938  _roles[role] */\n      0x20\n      swap1\n      dup2\n      mstore\n      0x40\n      dup1\n      dup5\n      keccak256\n      sub(shl(0xa0, 0x01), 0x01)\n        /* \"contracts/AccessControl.sol\":2926:2955  _roles[role].hasRole[account] */\n      swap4\n      swap1\n      swap4\n      and\n      dup5\n      mstore\n      swap2\n      swap1\n      mstore\n      swap1\n      keccak256\n      sload\n      0xff\n      and\n      swap1\n        /* \"contracts/AccessControl.sol\":2826:2962  function hasRole(bytes32 role, address account) public view virtual returns (bool) {... */\n      jump\t// out\n        /* \"contracts/Bridge.sol\":12657:13153  function addBlockchainTo(string memory name, uint256 minTokenAmount)... */\n    tag_165:\n        /* \"contracts/Bridge.sol\":12800:12807  uint256 */\n      0x00\n        /* \"contracts/Bridge.sol\":1471:1512  hasRole(DEFAULT_ADMIN_ROLE, _msgSender()) */\n      tag_451\n        /* \"contracts/Bridge.sol\":12800:12807  uint256 */\n      dup2\n        /* \"contracts/Context.sol\":734:744  msg.sender */\n      caller\n        /* \"contracts/AccessControl.sol\":2826:2962  function hasRole(bytes32 role, address account) public view virtual returns (bool) {... */\n      tag_160\n      jump\t// in\n        /* \"contracts/Bridge.sol\":1471:1512  hasRole(DEFAULT_ADMIN_ROLE, _msgSender()) */\n    tag_451:\n        /* \"contracts/Bridge.sol\":1463:1526  require(hasRole(DEFAULT_ADMIN_ROLE, _msgSender()), \"not owner\") */\n      tag_453\n      jumpi\n      mload(0x40)\n      shl(0xe5, 0x461bcd)\n      dup2\n      mstore\n      0x04\n      add\n      tag_282\n      swap1\n      tag_283\n      jump\t// in\n    tag_453:\n        /* \"contracts/Pausable.sol\":1232:1251  _requireNotPaused() */\n      tag_456\n        /* \"contracts/Pausable.sol\":1232:1249  _requireNotPaused */\n      tag_286\n        /* \"contracts/Pausable.sol\":1232:1251  _requireNotPaused() */\n      jump\t// in\n    tag_456:\n        /* \"contracts/Bridge.sol\":12832:12856  existsBlockchainTo(name) */\n      tag_458\n        /* \"contracts/Bridge.sol\":12851:12855  name */\n      dup4\n        /* \"contracts/Bridge.sol\":12832:12850  existsBlockchainTo */\n      tag_234\n        /* \"contracts/Bridge.sol\":12832:12856  existsBlockchainTo(name) */\n      jump\t// in\n    tag_458:\n        /* \"contracts/Bridge.sol\":12831:12856  !existsBlockchainTo(name) */\n      iszero\n        /* \"contracts/Bridge.sol\":12823:12878  require(!existsBlockchainTo(name), \"blockchain exists\") */\n      tag_459\n      jumpi\n      mload(0x40)\n      shl(0xe5, 0x461bcd)\n      dup2\n      mstore\n        /* \"#utility.yul\":18061:18063   */\n      0x20\n        /* \"contracts/Bridge.sol\":12823:12878  require(!existsBlockchainTo(name), \"blockchain exists\") */\n      0x04\n      dup3\n      add\n        /* \"#utility.yul\":18043:18064   */\n      mstore\n        /* \"#utility.yul\":18100:18102   */\n      0x11\n        /* \"#utility.yul\":18080:18098   */\n      0x24\n      dup3\n      add\n        /* \"#utility.yul\":18073:18103   */\n      mstore\n      shl(0x78, 0x626c6f636b636861696e20657869737473)\n        /* \"#utility.yul\":18119:18137   */\n      0x44\n      dup3\n      add\n        /* \"#utility.yul\":18112:18159   */\n      mstore\n        /* \"#utility.yul\":18176:18194   */\n      0x64\n      add\n        /* \"contracts/Bridge.sol\":12823:12878  require(!existsBlockchainTo(name), \"blockchain exists\") */\n      tag_282\n        /* \"#utility.yul\":17859:18200   */\n      jump\n        /* \"contracts/Bridge.sol\":12823:12878  require(!existsBlockchainTo(name), \"blockchain exists\") */\n    tag_459:\n      0x40\n      dup1\n      mload\n      0x20\n      dup2\n      add\n      swap1\n      swap2\n      mstore\n        /* \"contracts/Bridge.sol\":12924:12957  b.minTokenAmount = minTokenAmount */\n      dup3\n      dup2\n      mstore\n        /* \"contracts/Bridge.sol\":12967:12983  blockchainInfoTo */\n      0x0b\n        /* \"contracts/Bridge.sol\":12967:12991  blockchainInfoTo.push(b) */\n      dup1\n      sload\n      0x01\n      dup1\n      dup3\n      add\n      dup4\n      sstore\n      0x00\n      swap3\n      dup4\n      mstore\n      dup4\n      mload\n      0x0175b7a638427703f0dbe7bb9bbf987a2551717b34e79f33b5b1008d1fa01db9\n      swap1\n      swap3\n      add\n      swap2\n      swap1\n      swap2\n      sstore\n        /* \"contracts/Bridge.sol\":13001:13021  toBlockchainTransfer */\n      0x0d\n        /* \"contracts/Bridge.sol\":13001:13032  toBlockchainTransfer.push(name) */\n      dup1\n      sload\n      swap2\n      dup3\n      add\n      dup2\n      sstore\n      swap1\n      swap2\n      mstore\n      0xd7b6990105719101dabeb77144f2a3385c8033acd3af97e9423a695e81ad1eb5\n      add\n      tag_466\n        /* \"contracts/Bridge.sol\":13027:13031  name */\n      dup6\n        /* \"contracts/Bridge.sol\":13001:13032  toBlockchainTransfer.push(name) */\n      dup3\n      tag_467\n      jump\t// in\n    tag_466:\n      pop\n        /* \"contracts/Bridge.sol\":13058:13074  blockchainInfoTo */\n      0x0b\n        /* \"contracts/Bridge.sol\":13058:13081  blockchainInfoTo.length */\n      sload\n        /* \"contracts/Bridge.sol\":13091:13114  blockchainIndexTo[name] */\n      mload(0x40)\n        /* \"contracts/Bridge.sol\":13058:13081  blockchainInfoTo.length */\n      dup2\n      swap1\n        /* \"contracts/Bridge.sol\":13091:13108  blockchainIndexTo */\n      0x09\n      swap1\n        /* \"contracts/Bridge.sol\":13091:13114  blockchainIndexTo[name] */\n      tag_468\n      swap1\n        /* \"contracts/Bridge.sol\":13109:13113  name */\n      dup9\n      swap1\n        /* \"contracts/Bridge.sol\":13091:13114  blockchainIndexTo[name] */\n      tag_269\n      jump\t// in\n    tag_468:\n      swap1\n      dup2\n      mstore\n      mload(0x40)\n      swap1\n      dup2\n      swap1\n      sub\n      0x20\n      add\n      swap1\n      keccak256\n        /* \"contracts/Bridge.sol\":13091:13122  blockchainIndexTo[name] = index */\n      sstore\n        /* \"contracts/Bridge.sol\":13140:13145  index */\n      swap2\n      pop\n      pop\n        /* \"contracts/Bridge.sol\":12657:13153  function addBlockchainTo(string memory name, uint256 minTokenAmount)... */\n      swap3\n      swap2\n      pop\n      pop\n      jump\t// out\n        /* \"contracts/Bridge.sol\":2001:4418  function receiveTokens(... */\n    tag_174:\n        /* \"contracts/Bridge.sol\":2176:2180  bool */\n      0x00\n        /* \"contracts/Context.sol\":734:744  msg.sender */\n      caller\n        /* \"contracts/Bridge.sol\":1720:1729  tx.origin */\n      origin\n        /* \"contracts/Bridge.sol\":1704:1729  _msgSender() == tx.origin */\n      eq\n        /* \"contracts/Bridge.sol\":1696:1751  require(_msgSender() == tx.origin, \"Caller is not EOA\") */\n      tag_471\n      jumpi\n      mload(0x40)\n      shl(0xe5, 0x461bcd)\n      dup2\n      mstore\n        /* \"#utility.yul\":19711:19713   */\n      0x20\n        /* \"contracts/Bridge.sol\":1696:1751  require(_msgSender() == tx.origin, \"Caller is not EOA\") */\n      0x04\n      dup3\n      add\n        /* \"#utility.yul\":19693:19714   */\n      mstore\n        /* \"#utility.yul\":19750:19752   */\n      0x11\n        /* \"#utility.yul\":19730:19748   */\n      0x24\n      dup3\n      add\n        /* \"#utility.yul\":19723:19753   */\n      mstore\n      shl(0x78, 0x43616c6c6572206973206e6f7420454f41)\n        /* \"#utility.yul\":19769:19787   */\n      0x44\n      dup3\n      add\n        /* \"#utility.yul\":19762:19809   */\n      mstore\n        /* \"#utility.yul\":19826:19844   */\n      0x64\n      add\n        /* \"contracts/Bridge.sol\":1696:1751  require(_msgSender() == tx.origin, \"Caller is not EOA\") */\n      tag_282\n        /* \"#utility.yul\":19509:19850   */\n      jump\n        /* \"contracts/Bridge.sol\":1696:1751  require(_msgSender() == tx.origin, \"Caller is not EOA\") */\n    tag_471:\n        /* \"contracts/Pausable.sol\":1232:1251  _requireNotPaused() */\n      tag_475\n        /* \"contracts/Pausable.sol\":1232:1249  _requireNotPaused */\n      tag_286\n        /* \"contracts/Pausable.sol\":1232:1251  _requireNotPaused() */\n      jump\t// in\n    tag_475:\n        /* \"contracts/Bridge.sol\":2200:2232  existsBlockchainTo(toBlockchain) */\n      tag_477\n        /* \"contracts/Bridge.sol\":2219:2231  toBlockchain */\n      dup6\n      dup6\n        /* \"contracts/Bridge.sol\":2200:2232  existsBlockchainTo(toBlockchain) */\n      dup1\n      dup1\n      0x1f\n      add\n      0x20\n      dup1\n      swap2\n      div\n      mul\n      0x20\n      add\n      mload(0x40)\n      swap1\n      dup2\n      add\n      0x40\n      mstore\n      dup1\n      swap4\n      swap3\n      swap2\n      swap1\n      dup2\n      dup2\n      mstore\n      0x20\n      add\n      dup4\n      dup4\n      dup1\n      dup3\n      dup5\n      calldatacopy\n      0x00\n      swap3\n      add\n      swap2\n      swap1\n      swap2\n      mstore\n      pop\n        /* \"contracts/Bridge.sol\":2200:2218  existsBlockchainTo */\n      tag_234\n      swap3\n      pop\n      pop\n      pop\n        /* \"contracts/Bridge.sol\":2200:2232  existsBlockchainTo(toBlockchain) */\n      jump\t// in\n    tag_477:\n        /* \"contracts/Bridge.sol\":2192:2260  require(existsBlockchainTo(toBlockchain), \"toBlockchain not exists\") */\n      tag_478\n      jumpi\n      mload(0x40)\n      shl(0xe5, 0x461bcd)\n      dup2\n      mstore\n        /* \"#utility.yul\":20057:20059   */\n      0x20\n        /* \"contracts/Bridge.sol\":2192:2260  require(existsBlockchainTo(toBlockchain), \"toBlockchain not exists\") */\n      0x04\n      dup3\n      add\n        /* \"#utility.yul\":20039:20060   */\n      mstore\n        /* \"#utility.yul\":20096:20098   */\n      0x17\n        /* \"#utility.yul\":20076:20094   */\n      0x24\n      dup3\n      add\n        /* \"#utility.yul\":20069:20099   */\n      mstore\n        /* \"#utility.yul\":20135:20160   */\n      0x746f426c6f636b636861696e206e6f7420657869737473000000000000000000\n        /* \"#utility.yul\":20115:20133   */\n      0x44\n      dup3\n      add\n        /* \"#utility.yul\":20108:20161   */\n      mstore\n        /* \"#utility.yul\":20178:20196   */\n      0x64\n      add\n        /* \"contracts/Bridge.sol\":2192:2260  require(existsBlockchainTo(toBlockchain), \"toBlockchain not exists\") */\n      tag_282\n        /* \"#utility.yul\":19855:20202   */\n      jump\n        /* \"contracts/Bridge.sol\":2192:2260  require(existsBlockchainTo(toBlockchain), \"toBlockchain not exists\") */\n    tag_478:\n        /* \"contracts/Bridge.sol\":2279:2308  compareStrings(toAddress, \"\") */\n      tag_481\n        /* \"contracts/Bridge.sol\":2294:2303  toAddress */\n      dup4\n      dup4\n        /* \"contracts/Bridge.sol\":2279:2308  compareStrings(toAddress, \"\") */\n      dup1\n      dup1\n      0x1f\n      add\n      0x20\n      dup1\n      swap2\n      div\n      mul\n      0x20\n      add\n      mload(0x40)\n      swap1\n      dup2\n      add\n      0x40\n      mstore\n      dup1\n      swap4\n      swap3\n      swap2\n      swap1\n      dup2\n      dup2\n      mstore\n      0x20\n      add\n      dup4\n      dup4\n      dup1\n      dup3\n      dup5\n      calldatacopy\n      0x00\n      swap3\n      add\n      dup3\n      swap1\n      mstore\n      pop\n      0x40\n      dup1\n      mload\n      0x20\n      dup2\n      add\n      swap1\n      swap2\n      mstore\n      swap1\n      dup2\n      mstore\n      swap3\n      pop\n        /* \"contracts/Bridge.sol\":2279:2293  compareStrings */\n      tag_482\n      swap2\n      pop\n      pop\n        /* \"contracts/Bridge.sol\":2279:2308  compareStrings(toAddress, \"\") */\n      jump\t// in\n    tag_481:\n        /* \"contracts/Bridge.sol\":2278:2308  !compareStrings(toAddress, \"\") */\n      iszero\n        /* \"contracts/Bridge.sol\":2270:2330  require(!compareStrings(toAddress, \"\"), \"toAddress is null\") */\n      tag_483\n      jumpi\n      mload(0x40)\n      shl(0xe5, 0x461bcd)\n      dup2\n      mstore\n        /* \"#utility.yul\":20409:20411   */\n      0x20\n        /* \"contracts/Bridge.sol\":2270:2330  require(!compareStrings(toAddress, \"\"), \"toAddress is null\") */\n      0x04\n      dup3\n      add\n        /* \"#utility.yul\":20391:20412   */\n      mstore\n        /* \"#utility.yul\":20448:20450   */\n      0x11\n        /* \"#utility.yul\":20428:20446   */\n      0x24\n      dup3\n      add\n        /* \"#utility.yul\":20421:20451   */\n      mstore\n      shl(0x7a, 0x1d1bd059191c995cdcc81a5cc81b9d5b1b)\n        /* \"#utility.yul\":20467:20485   */\n      0x44\n      dup3\n      add\n        /* \"#utility.yul\":20460:20507   */\n      mstore\n        /* \"#utility.yul\":20524:20542   */\n      0x64\n      add\n        /* \"contracts/Bridge.sol\":2270:2330  require(!compareStrings(toAddress, \"\"), \"toAddress is null\") */\n      tag_282\n        /* \"#utility.yul\":20207:20548   */\n      jump\n        /* \"contracts/Bridge.sol\":2270:2330  require(!compareStrings(toAddress, \"\"), \"toAddress is null\") */\n    tag_483:\n        /* \"contracts/Bridge.sol\":2340:2353  uint256 index */\n      0x00\n        /* \"contracts/Bridge.sol\":2390:2391  1 */\n      0x01\n        /* \"contracts/Bridge.sol\":2356:2373  blockchainIndexTo */\n      0x09\n        /* \"contracts/Bridge.sol\":2374:2386  toBlockchain */\n      dup8\n      dup8\n        /* \"contracts/Bridge.sol\":2356:2387  blockchainIndexTo[toBlockchain] */\n      mload(0x40)\n      tag_486\n      swap3\n      swap2\n      swap1\n      tag_487\n      jump\t// in\n    tag_486:\n      swap1\n      dup2\n      mstore\n      0x20\n      add\n      mload(0x40)\n      dup1\n      swap2\n      sub\n      swap1\n      keccak256\n      sload\n        /* \"contracts/Bridge.sol\":2356:2391  blockchainIndexTo[toBlockchain] - 1 */\n      tag_488\n      swap2\n      swap1\n      tag_271\n      jump\t// in\n    tag_488:\n        /* \"contracts/Bridge.sol\":2340:2391  uint256 index = blockchainIndexTo[toBlockchain] - 1 */\n      swap1\n      pop\n        /* \"contracts/Bridge.sol\":2418:2419  0 */\n      0x00\n        /* \"contracts/Bridge.sol\":2409:2415  amount */\n      dup8\n        /* \"contracts/Bridge.sol\":2409:2419  amount > 0 */\n      gt\n        /* \"contracts/Bridge.sol\":2401:2435  require(amount > 0, \"amount is 0\") */\n      tag_489\n      jumpi\n      mload(0x40)\n      shl(0xe5, 0x461bcd)\n      dup2\n      mstore\n        /* \"#utility.yul\":13988:13990   */\n      0x20\n        /* \"contracts/Bridge.sol\":2401:2435  require(amount > 0, \"amount is 0\") */\n      0x04\n      dup3\n      add\n        /* \"#utility.yul\":13970:13991   */\n      mstore\n        /* \"#utility.yul\":14027:14029   */\n      0x0b\n        /* \"#utility.yul\":14007:14025   */\n      0x24\n      dup3\n      add\n        /* \"#utility.yul\":14000:14030   */\n      mstore\n      shl(0xac, 0x0616d6f756e74206973203)\n        /* \"#utility.yul\":14046:14064   */\n      0x44\n      dup3\n      add\n        /* \"#utility.yul\":14039:14080   */\n      mstore\n        /* \"#utility.yul\":14097:14115   */\n      0x64\n      add\n        /* \"contracts/Bridge.sol\":2401:2435  require(amount > 0, \"amount is 0\") */\n      tag_282\n        /* \"#utility.yul\":13786:14121   */\n      jump\n        /* \"contracts/Bridge.sol\":2401:2435  require(amount > 0, \"amount is 0\") */\n    tag_489:\n        /* \"contracts/Bridge.sol\":2476:2492  blockchainInfoTo */\n      0x0b\n        /* \"contracts/Bridge.sol\":2493:2498  index */\n      dup2\n        /* \"contracts/Bridge.sol\":2476:2499  blockchainInfoTo[index] */\n      dup2\n      sload\n      dup2\n      lt\n      tag_492\n      jumpi\n      tag_492\n      tag_274\n      jump\t// in\n    tag_492:\n      swap1\n      0x00\n      mstore\n      keccak256(0x00, 0x20)\n      add\n        /* \"contracts/Bridge.sol\":2476:2514  blockchainInfoTo[index].minTokenAmount */\n      0x00\n      add\n      sload\n        /* \"contracts/Bridge.sol\":2466:2472  amount */\n      dup8\n        /* \"contracts/Bridge.sol\":2466:2514  amount >= blockchainInfoTo[index].minTokenAmount */\n      lt\n      iszero\n        /* \"contracts/Bridge.sol\":2445:2567  require(... */\n      tag_494\n      jumpi\n      mload(0x40)\n      shl(0xe5, 0x461bcd)\n      dup2\n      mstore\n        /* \"#utility.yul\":21033:21035   */\n      0x20\n        /* \"contracts/Bridge.sol\":2445:2567  require(... */\n      0x04\n      dup3\n      add\n        /* \"#utility.yul\":21015:21036   */\n      mstore\n        /* \"#utility.yul\":21072:21074   */\n      0x1b\n        /* \"#utility.yul\":21052:21070   */\n      0x24\n      dup3\n      add\n        /* \"#utility.yul\":21045:21075   */\n      mstore\n        /* \"#utility.yul\":21111:21140   */\n      0x616d6f756e74206973206c657373207468616e206d696e696d756d0000000000\n        /* \"#utility.yul\":21091:21109   */\n      0x44\n      dup3\n      add\n        /* \"#utility.yul\":21084:21141   */\n      mstore\n        /* \"#utility.yul\":21158:21176   */\n      0x64\n      add\n        /* \"contracts/Bridge.sol\":2445:2567  require(... */\n      tag_282\n        /* \"#utility.yul\":20831:21182   */\n      jump\n        /* \"contracts/Bridge.sol\":2445:2567  require(... */\n    tag_494:\n        /* \"contracts/Bridge.sol\":2612:2614  42 */\n      0x2a\n        /* \"contracts/Bridge.sol\":2585:2614  bytes(toAddress).length == 42 */\n      dup4\n      eq\n        /* \"contracts/Bridge.sol\":2577:2646  require(bytes(toAddress).length == 42, \"invalid destination address\") */\n      tag_497\n      jumpi\n      mload(0x40)\n      shl(0xe5, 0x461bcd)\n      dup2\n      mstore\n        /* \"#utility.yul\":21389:21391   */\n      0x20\n        /* \"contracts/Bridge.sol\":2577:2646  require(bytes(toAddress).length == 42, \"invalid destination address\") */\n      0x04\n      dup3\n      add\n        /* \"#utility.yul\":21371:21392   */\n      mstore\n        /* \"#utility.yul\":21428:21430   */\n      0x1b\n        /* \"#utility.yul\":21408:21426   */\n      0x24\n      dup3\n      add\n        /* \"#utility.yul\":21401:21431   */\n      mstore\n        /* \"#utility.yul\":21467:21496   */\n      0x696e76616c69642064657374696e6174696f6e20616464726573730000000000\n        /* \"#utility.yul\":21447:21465   */\n      0x44\n      dup3\n      add\n        /* \"#utility.yul\":21440:21497   */\n      mstore\n        /* \"#utility.yul\":21514:21532   */\n      0x64\n      add\n        /* \"contracts/Bridge.sol\":2577:2646  require(bytes(toAddress).length == 42, \"invalid destination address\") */\n      tag_282\n        /* \"#utility.yul\":21187:21538   */\n      jump\n        /* \"contracts/Bridge.sol\":2577:2646  require(bytes(toAddress).length == 42, \"invalid destination address\") */\n    tag_497:\n        /* \"contracts/Bridge.sol\":2677:2687  FEE_NATIVE */\n      sload(0x04)\n        /* \"contracts/Bridge.sol\":2664:2673  msg.value */\n      callvalue\n        /* \"contracts/Bridge.sol\":2664:2687  msg.value >= FEE_NATIVE */\n      lt\n      iszero\n        /* \"contracts/Bridge.sol\":2656:2718  require(msg.value >= FEE_NATIVE, \"Invalid fee native bridge.\") */\n      tag_500\n      jumpi\n      mload(0x40)\n      shl(0xe5, 0x461bcd)\n      dup2\n      mstore\n        /* \"#utility.yul\":21745:21747   */\n      0x20\n        /* \"contracts/Bridge.sol\":2656:2718  require(msg.value >= FEE_NATIVE, \"Invalid fee native bridge.\") */\n      0x04\n      dup3\n      add\n        /* \"#utility.yul\":21727:21748   */\n      mstore\n        /* \"#utility.yul\":21784:21786   */\n      0x1a\n        /* \"#utility.yul\":21764:21782   */\n      0x24\n      dup3\n      add\n        /* \"#utility.yul\":21757:21787   */\n      mstore\n        /* \"#utility.yul\":21823:21851   */\n      0x496e76616c696420666565206e6174697665206272696467652e000000000000\n        /* \"#utility.yul\":21803:21821   */\n      0x44\n      dup3\n      add\n        /* \"#utility.yul\":21796:21852   */\n      mstore\n        /* \"#utility.yul\":21869:21887   */\n      0x64\n      add\n        /* \"contracts/Bridge.sol\":2656:2718  require(msg.value >= FEE_NATIVE, \"Invalid fee native bridge.\") */\n      tag_282\n        /* \"#utility.yul\":21543:21893   */\n      jump\n        /* \"contracts/Bridge.sol\":2656:2718  require(msg.value >= FEE_NATIVE, \"Invalid fee native bridge.\") */\n    tag_500:\n        /* \"contracts/Bridge.sol\":2732:2737  token */\n      sload(0x02)\n      0x0100\n      swap1\n      div\n      sub(shl(0xa0, 0x01), 0x01)\n      and\n        /* \"contracts/Bridge.sol\":2728:2902  if (token == ZERO_ADDRESS) {... */\n      tag_505\n      jumpi\n        /* \"contracts/Bridge.sol\":2816:2826  FEE_NATIVE */\n      sload(0x04)\n        /* \"contracts/Bridge.sol\":2807:2826  amount + FEE_NATIVE */\n      tag_504\n      swap1\n        /* \"contracts/Bridge.sol\":2807:2813  amount */\n      dup9\n        /* \"contracts/Bridge.sol\":2807:2826  amount + FEE_NATIVE */\n      tag_437\n      jump\t// in\n    tag_504:\n        /* \"contracts/Bridge.sol\":2794:2803  msg.value */\n      callvalue\n        /* \"contracts/Bridge.sol\":2794:2826  msg.value == amount + FEE_NATIVE */\n      eq\n        /* \"contracts/Bridge.sol\":2769:2891  require(... */\n      tag_505\n      jumpi\n      mload(0x40)\n      shl(0xe5, 0x461bcd)\n      dup2\n      mstore\n        /* \"#utility.yul\":22100:22102   */\n      0x20\n        /* \"contracts/Bridge.sol\":2769:2891  require(... */\n      0x04\n      dup3\n      add\n        /* \"#utility.yul\":22082:22103   */\n      mstore\n        /* \"#utility.yul\":22139:22141   */\n      0x1f\n        /* \"#utility.yul\":22119:22137   */\n      0x24\n      dup3\n      add\n        /* \"#utility.yul\":22112:22142   */\n      mstore\n        /* \"#utility.yul\":22178:22211   */\n      0x72657175697265643a20666565206e6174697665206e6f7420656e6f75676800\n        /* \"#utility.yul\":22158:22176   */\n      0x44\n      dup3\n      add\n        /* \"#utility.yul\":22151:22212   */\n      mstore\n        /* \"#utility.yul\":22229:22247   */\n      0x64\n      add\n        /* \"contracts/Bridge.sol\":2769:2891  require(... */\n      tag_282\n        /* \"#utility.yul\":21898:22253   */\n      jump\n        /* \"contracts/Bridge.sol\":2769:2891  require(... */\n    tag_505:\n        /* \"contracts/Bridge.sol\":2911:2928  uint256 bridgeFee */\n      0x00\n        /* \"contracts/Bridge.sol\":734:738  1000 */\n      0x03e8\n        /* \"contracts/Bridge.sol\":2941:2960  feePercentageBridge */\n      sload(0x05)\n        /* \"contracts/Bridge.sol\":2932:2938  amount */\n      dup10\n        /* \"contracts/Bridge.sol\":2932:2960  amount * feePercentageBridge */\n      tag_508\n      swap2\n      swap1\n      tag_509\n      jump\t// in\n    tag_508:\n        /* \"contracts/Bridge.sol\":2931:2980  (amount * feePercentageBridge) / PERCENTS_DIVIDER */\n      tag_510\n      swap2\n      swap1\n      tag_511\n      jump\t// in\n    tag_510:\n        /* \"contracts/Bridge.sol\":2911:2980  uint256 bridgeFee = (amount * feePercentageBridge) / PERCENTS_DIVIDER */\n      swap1\n      pop\n        /* \"contracts/Bridge.sol\":2990:3013  uint256 amountMinusFees */\n      0x00\n        /* \"contracts/Bridge.sol\":3016:3034  amount - bridgeFee */\n      tag_512\n        /* \"contracts/Bridge.sol\":2911:2980  uint256 bridgeFee = (amount * feePercentageBridge) / PERCENTS_DIVIDER */\n      dup3\n        /* \"contracts/Bridge.sol\":3016:3022  amount */\n      dup11\n        /* \"contracts/Bridge.sol\":3016:3034  amount - bridgeFee */\n      tag_271\n      jump\t// in\n    tag_512:\n        /* \"contracts/Bridge.sol\":2990:3034  uint256 amountMinusFees = amount - bridgeFee */\n      swap1\n      pop\n        /* \"contracts/Bridge.sol\":3070:3079  bridgeFee */\n      dup2\n        /* \"contracts/Bridge.sol\":3044:3066  totalFeeReceivedBridge */\n      0x03\n      0x00\n        /* \"contracts/Bridge.sol\":3044:3079  totalFeeReceivedBridge += bridgeFee */\n      dup3\n      dup3\n      sload\n      tag_513\n      swap2\n      swap1\n      tag_437\n      jump\t// in\n    tag_513:\n      swap1\n      swap2\n      sstore\n      pop\n      pop\n        /* \"contracts/Bridge.sol\":3128:3140  OWNER_WALLET */\n      sload(0x06)\n        /* \"contracts/Bridge.sol\":3185:3195  FEE_NATIVE */\n      sload(0x04)\n      sub(shl(0xa0, 0x01), 0x01)\n        /* \"contracts/Bridge.sol\":3128:3140  OWNER_WALLET */\n      swap1\n      swap2\n      and\n      swap1\n        /* \"contracts/Bridge.sol\":3185:3199  FEE_NATIVE > 0 */\n      iszero\n        /* \"contracts/Bridge.sol\":3181:3260  if (FEE_NATIVE > 0) {... */\n      tag_515\n      jumpi\n        /* \"contracts/Bridge.sol\":3238:3248  FEE_NATIVE */\n      sload(0x04)\n        /* \"contracts/Bridge.sol\":3215:3249  ownerAddress.sendValue(FEE_NATIVE) */\n      tag_515\n      swap1\n      sub(shl(0xa0, 0x01), 0x01)\n        /* \"contracts/Bridge.sol\":3215:3237  ownerAddress.sendValue */\n      dup4\n      and\n      swap1\n      tag_516\n        /* \"contracts/Bridge.sol\":3215:3249  ownerAddress.sendValue(FEE_NATIVE) */\n      jump\t// in\n    tag_515:\n        /* \"contracts/Bridge.sol\":3274:3279  token */\n      sload(0x02)\n      0x0100\n      swap1\n      div\n      sub(shl(0xa0, 0x01), 0x01)\n      and\n        /* \"contracts/Bridge.sol\":3274:3295  token != ZERO_ADDRESS */\n      iszero\n        /* \"contracts/Bridge.sol\":3270:4248  if (token != ZERO_ADDRESS) {... */\n      tag_517\n      jumpi\n        /* \"contracts/Bridge.sol\":3353:3491  IERC20(token).safeTransferFrom(... */\n      tag_518\n        /* \"contracts/Context.sol\":734:744  msg.sender */\n      caller\n        /* \"contracts/Bridge.sol\":3360:3365  token */\n      sload(0x02)\n      0x0100\n      swap1\n      div\n      sub(shl(0xa0, 0x01), 0x01)\n      and\n      swap1\n        /* \"contracts/Bridge.sol\":3439:3443  this */\n      address\n        /* \"contracts/Bridge.sol\":3462:3477  amountMinusFees */\n      dup6\n        /* \"contracts/Bridge.sol\":3353:3383  IERC20(token).safeTransferFrom */\n      tag_520\n        /* \"contracts/Bridge.sol\":3353:3491  IERC20(token).safeTransferFrom(... */\n      jump\t// in\n    tag_518:\n        /* \"contracts/Bridge.sol\":3539:3608  IERC20(token).safeTransferFrom(_msgSender(), OWNER_WALLET, bridgeFee) */\n      tag_521\n        /* \"contracts/Context.sol\":734:744  msg.sender */\n      caller\n        /* \"contracts/Bridge.sol\":3584:3596  OWNER_WALLET */\n      sload(0x06)\n        /* \"contracts/Bridge.sol\":3546:3551  token */\n      sload(0x02)\n        /* \"contracts/Bridge.sol\":3584:3596  OWNER_WALLET */\n      0x0100\n        /* \"contracts/Bridge.sol\":3546:3551  token */\n      swap1\n      div\n      sub(shl(0xa0, 0x01), 0x01)\n      swap1\n      dup2\n      and\n      swap3\n        /* \"contracts/Bridge.sol\":3539:3608  IERC20(token).safeTransferFrom(_msgSender(), OWNER_WALLET, bridgeFee) */\n      swap2\n        /* \"contracts/Bridge.sol\":3584:3596  OWNER_WALLET */\n      and\n        /* \"contracts/Bridge.sol\":3598:3607  bridgeFee */\n      dup7\n        /* \"contracts/Bridge.sol\":3539:3569  IERC20(token).safeTransferFrom */\n      tag_520\n        /* \"contracts/Bridge.sol\":3539:3608  IERC20(token).safeTransferFrom(_msgSender(), OWNER_WALLET, bridgeFee) */\n      jump\t// in\n    tag_521:\n        /* \"contracts/Bridge.sol\":3623:3637  uint256 refund */\n      0x00\n        /* \"contracts/Bridge.sol\":3652:3662  FEE_NATIVE */\n      sload(0x04)\n        /* \"contracts/Bridge.sol\":3640:3649  msg.value */\n      callvalue\n        /* \"contracts/Bridge.sol\":3640:3662  msg.value - FEE_NATIVE */\n      tag_523\n      swap2\n      swap1\n      tag_271\n      jump\t// in\n    tag_523:\n        /* \"contracts/Bridge.sol\":3623:3662  uint256 refund = msg.value - FEE_NATIVE */\n      swap1\n      pop\n        /* \"contracts/Bridge.sol\":3680:3690  refund > 0 */\n      dup1\n      iszero\n        /* \"contracts/Bridge.sol\":3676:3762  if (refund > 0) {... */\n      tag_525\n      jumpi\n        /* \"contracts/Bridge.sol\":3710:3747  payable(msg.sender).sendValue(refund) */\n      tag_525\n        /* \"contracts/Bridge.sol\":3718:3728  msg.sender */\n      caller\n        /* \"contracts/Bridge.sol\":3740:3746  refund */\n      dup3\n        /* \"contracts/Bridge.sol\":3710:3739  payable(msg.sender).sendValue */\n      tag_516\n        /* \"contracts/Bridge.sol\":3710:3747  payable(msg.sender).sendValue(refund) */\n      jump\t// in\n    tag_525:\n        /* \"contracts/Bridge.sol\":3297:3772  {... */\n      pop\n        /* \"contracts/Bridge.sol\":3270:4248  if (token != ZERO_ADDRESS) {... */\n      jump(tag_526)\n    tag_517:\n        /* \"contracts/Bridge.sol\":3829:3842  bridgeFee > 0 */\n      dup3\n      iszero\n        /* \"contracts/Bridge.sol\":3825:3910  if (bridgeFee > 0) {... */\n      tag_528\n      jumpi\n        /* \"contracts/Bridge.sol\":3862:3895  ownerAddress.sendValue(bridgeFee) */\n      tag_528\n      sub(shl(0xa0, 0x01), 0x01)\n        /* \"contracts/Bridge.sol\":3862:3884  ownerAddress.sendValue */\n      dup3\n      and\n        /* \"contracts/Bridge.sol\":3885:3894  bridgeFee */\n      dup5\n        /* \"contracts/Bridge.sol\":3862:3884  ownerAddress.sendValue */\n      tag_516\n        /* \"contracts/Bridge.sol\":3862:3895  ownerAddress.sendValue(bridgeFee) */\n      jump\t// in\n    tag_528:\n        /* \"contracts/Bridge.sol\":4008:4012  this */\n      address\n        /* \"contracts/Bridge.sol\":4028:4063  reciever.sendValue(amountMinusFees) */\n      tag_529\n        /* \"contracts/Bridge.sol\":4008:4012  this */\n      dup2\n        /* \"contracts/Bridge.sol\":4047:4062  amountMinusFees */\n      dup5\n        /* \"contracts/Bridge.sol\":4028:4046  reciever.sendValue */\n      tag_516\n        /* \"contracts/Bridge.sol\":4028:4063  reciever.sendValue(amountMinusFees) */\n      jump\t// in\n    tag_529:\n        /* \"contracts/Bridge.sol\":4078:4092  uint256 refund */\n      0x00\n        /* \"contracts/Bridge.sol\":4121:4136  amountMinusFees */\n      dup4\n        /* \"contracts/Bridge.sol\":4108:4118  FEE_NATIVE */\n      sload(0x04)\n        /* \"contracts/Bridge.sol\":4108:4136  FEE_NATIVE + amountMinusFees */\n      tag_530\n      swap2\n      swap1\n      tag_437\n      jump\t// in\n    tag_530:\n        /* \"contracts/Bridge.sol\":4095:4137  msg.value - (FEE_NATIVE + amountMinusFees) */\n      tag_531\n      swap1\n        /* \"contracts/Bridge.sol\":4095:4104  msg.value */\n      callvalue\n        /* \"contracts/Bridge.sol\":4095:4137  msg.value - (FEE_NATIVE + amountMinusFees) */\n      tag_271\n      jump\t// in\n    tag_531:\n        /* \"contracts/Bridge.sol\":4078:4137  uint256 refund = msg.value - (FEE_NATIVE + amountMinusFees) */\n      swap1\n      pop\n        /* \"contracts/Bridge.sol\":4156:4166  refund > 0 */\n      dup1\n      iszero\n        /* \"contracts/Bridge.sol\":4152:4238  if (refund > 0) {... */\n      tag_533\n      jumpi\n        /* \"contracts/Bridge.sol\":4186:4223  payable(msg.sender).sendValue(refund) */\n      tag_533\n        /* \"contracts/Bridge.sol\":4194:4204  msg.sender */\n      caller\n        /* \"contracts/Bridge.sol\":4216:4222  refund */\n      dup3\n        /* \"contracts/Bridge.sol\":4186:4215  payable(msg.sender).sendValue */\n      tag_516\n        /* \"contracts/Bridge.sol\":4186:4223  payable(msg.sender).sendValue(refund) */\n      jump\t// in\n    tag_533:\n        /* \"contracts/Bridge.sol\":3778:4248  {... */\n      pop\n      pop\n        /* \"contracts/Bridge.sol\":3270:4248  if (token != ZERO_ADDRESS) {... */\n    tag_526:\n        /* \"contracts/Bridge.sol\":4263:4389  CrossRequest(... */\n      0x4b07d21301cc34286797eac5a16d2f1c0131fcf7b2051b24457f8d9a0949479d\n        /* \"contracts/Context.sol\":734:744  msg.sender */\n      caller\n        /* \"contracts/Bridge.sol\":4315:4330  amountMinusFees */\n      dup4\n        /* \"contracts/Bridge.sol\":4344:4353  toAddress */\n      dup10\n      dup10\n        /* \"contracts/Bridge.sol\":4367:4379  toBlockchain */\n      dup14\n      dup14\n        /* \"contracts/Bridge.sol\":4263:4389  CrossRequest(... */\n      mload(0x40)\n      tag_535\n      swap7\n      swap6\n      swap5\n      swap4\n      swap3\n      swap2\n      swap1\n      tag_536\n      jump\t// in\n    tag_535:\n      mload(0x40)\n      dup1\n      swap2\n      sub\n      swap1\n      log1\n      pop\n        /* \"contracts/Bridge.sol\":4407:4411  true */\n      0x01\n      swap10\n        /* \"contracts/Bridge.sol\":2001:4418  function receiveTokens(... */\n      swap9\n      pop\n      pop\n      pop\n      pop\n      pop\n      pop\n      pop\n      pop\n      pop\n      jump\t// out\n        /* \"contracts/Bridge.sol\":11882:12042  function listBlockchainFrom()... */\n    tag_178:\n        /* \"contracts/Bridge.sol\":11976:11991  string[] memory */\n      0x60\n        /* \"contracts/Bridge.sol\":12014:12035  fromBlockchainReceive */\n      0x0c\n        /* \"contracts/Bridge.sol\":12007:12035  return fromBlockchainReceive */\n      dup1\n      sload\n      dup1\n      0x20\n      mul\n      0x20\n      add\n      mload(0x40)\n      swap1\n      dup2\n      add\n      0x40\n      mstore\n      dup1\n      swap3\n      swap2\n      swap1\n      dup2\n      dup2\n      mstore\n      0x20\n      add\n      0x00\n      swap1\n    tag_538:\n      dup3\n      dup3\n      lt\n      iszero\n      tag_539\n      jumpi\n      dup4\n      dup3\n      swap1\n      0x00\n      mstore\n      keccak256(0x00, 0x20)\n      add\n      dup1\n      sload\n      tag_541\n      swap1\n      tag_262\n      jump\t// in\n    tag_541:\n      dup1\n      0x1f\n      add\n      0x20\n      dup1\n      swap2\n      div\n      mul\n      0x20\n      add\n      mload(0x40)\n      swap1\n      dup2\n      add\n      0x40\n      mstore\n      dup1\n      swap3\n      swap2\n      swap1\n      dup2\n      dup2\n      mstore\n      0x20\n      add\n      dup3\n      dup1\n      sload\n      tag_542\n      swap1\n      tag_262\n      jump\t// in\n    tag_542:\n      dup1\n      iszero\n      tag_543\n      jumpi\n      dup1\n      0x1f\n      lt\n      tag_544\n      jumpi\n      0x0100\n      dup1\n      dup4\n      sload\n      div\n      mul\n      dup4\n      mstore\n      swap2\n      0x20\n      add\n      swap2\n      jump(tag_543)\n    tag_544:\n      dup3\n      add\n      swap2\n      swap1\n      0x00\n      mstore\n      keccak256(0x00, 0x20)\n      swap1\n    tag_545:\n      dup2\n      sload\n      dup2\n      mstore\n      swap1\n      0x01\n      add\n      swap1\n      0x20\n      add\n      dup1\n      dup4\n      gt\n      tag_545\n      jumpi\n      dup3\n      swap1\n      sub\n      0x1f\n      and\n      dup3\n      add\n      swap2\n    tag_543:\n      pop\n      pop\n      pop\n      pop\n      pop\n      dup2\n      mstore\n      0x20\n      add\n      swap1\n      0x01\n      add\n      swap1\n      jump(tag_538)\n    tag_539:\n      pop\n      pop\n      pop\n      pop\n      swap1\n      pop\n        /* \"contracts/Bridge.sol\":11882:12042  function listBlockchainFrom()... */\n      swap1\n      jump\t// out\n        /* \"contracts/Bridge.sol\":8833:9024  function addMonitor(address account)... */\n    tag_184:\n        /* \"contracts/Bridge.sol\":8944:8948  bool */\n      0x00\n        /* \"contracts/Bridge.sol\":1471:1512  hasRole(DEFAULT_ADMIN_ROLE, _msgSender()) */\n      tag_547\n        /* \"contracts/Bridge.sol\":8944:8948  bool */\n      dup2\n        /* \"contracts/Context.sol\":734:744  msg.sender */\n      caller\n        /* \"contracts/AccessControl.sol\":2826:2962  function hasRole(bytes32 role, address account) public view virtual returns (bool) {... */\n      tag_160\n      jump\t// in\n        /* \"contracts/Bridge.sol\":1471:1512  hasRole(DEFAULT_ADMIN_ROLE, _msgSender()) */\n    tag_547:\n        /* \"contracts/Bridge.sol\":1463:1526  require(hasRole(DEFAULT_ADMIN_ROLE, _msgSender()), \"not owner\") */\n      tag_549\n      jumpi\n      mload(0x40)\n      shl(0xe5, 0x461bcd)\n      dup2\n      mstore\n      0x04\n      add\n      tag_282\n      swap1\n      tag_283\n      jump\t// in\n    tag_549:\n        /* \"contracts/Pausable.sol\":1232:1251  _requireNotPaused() */\n      tag_552\n        /* \"contracts/Pausable.sol\":1232:1249  _requireNotPaused */\n      tag_286\n        /* \"contracts/Pausable.sol\":1232:1251  _requireNotPaused() */\n      jump\t// in\n    tag_552:\n        /* \"contracts/Bridge.sol\":8964:8996  grantRole(MONITOR_ROLE, account) */\n      tag_355\n      0x00\n      dup1\n      mload\n      0x20\n      data_d6a6016c81f51cb4dddbbc8ef9ddf0093cf3b17d39f0f71122b555af630af1fe\n      dup4\n      codecopy\n      dup2\n      mload\n      swap2\n      mstore\n        /* \"contracts/Bridge.sol\":8988:8995  account */\n      dup4\n        /* \"contracts/Bridge.sol\":8964:8973  grantRole */\n      tag_99\n        /* \"contracts/Bridge.sol\":8964:8996  grantRole(MONITOR_ROLE, account) */\n      jump\t// in\n        /* \"contracts/Bridge.sol\":13159:13940  function delBlockchainFrom(string memory name)... */\n    tag_189:\n        /* \"contracts/Bridge.sol\":13280:13284  bool */\n      0x00\n        /* \"contracts/Bridge.sol\":1471:1512  hasRole(DEFAULT_ADMIN_ROLE, _msgSender()) */\n      tag_556\n        /* \"contracts/Bridge.sol\":13280:13284  bool */\n      dup2\n        /* \"contracts/Context.sol\":734:744  msg.sender */\n      caller\n        /* \"contracts/AccessControl.sol\":2826:2962  function hasRole(bytes32 role, address account) public view virtual returns (bool) {... */\n      tag_160\n      jump\t// in\n        /* \"contracts/Bridge.sol\":1471:1512  hasRole(DEFAULT_ADMIN_ROLE, _msgSender()) */\n    tag_556:\n        /* \"contracts/Bridge.sol\":1463:1526  require(hasRole(DEFAULT_ADMIN_ROLE, _msgSender()), \"not owner\") */\n      tag_558\n      jumpi\n      mload(0x40)\n      shl(0xe5, 0x461bcd)\n      dup2\n      mstore\n      0x04\n      add\n      tag_282\n      swap1\n      tag_283\n      jump\t// in\n    tag_558:\n        /* \"contracts/Pausable.sol\":1232:1251  _requireNotPaused() */\n      tag_561\n        /* \"contracts/Pausable.sol\":1232:1249  _requireNotPaused */\n      tag_286\n        /* \"contracts/Pausable.sol\":1232:1251  _requireNotPaused() */\n      jump\t// in\n    tag_561:\n        /* \"contracts/Bridge.sol\":13308:13334  existsBlockchainFrom(name) */\n      tag_563\n        /* \"contracts/Bridge.sol\":13329:13333  name */\n      dup3\n        /* \"contracts/Bridge.sol\":13308:13328  existsBlockchainFrom */\n      tag_210\n        /* \"contracts/Bridge.sol\":13308:13334  existsBlockchainFrom(name) */\n      jump\t// in\n    tag_563:\n        /* \"contracts/Bridge.sol\":13300:13360  require(existsBlockchainFrom(name), \"blockchain not exists\") */\n      tag_564\n      jumpi\n      mload(0x40)\n      shl(0xe5, 0x461bcd)\n      dup2\n      mstore\n      0x04\n      add\n      tag_282\n      swap1\n      tag_291\n      jump\t// in\n    tag_564:\n        /* \"contracts/Bridge.sol\":13371:13392  uint256 indexToDelete */\n      0x00\n        /* \"contracts/Bridge.sol\":13423:13424  1 */\n      0x01\n        /* \"contracts/Bridge.sol\":13395:13414  blockchainIndexFrom */\n      0x08\n        /* \"contracts/Bridge.sol\":13415:13419  name */\n      dup5\n        /* \"contracts/Bridge.sol\":13395:13420  blockchainIndexFrom[name] */\n      mload(0x40)\n      tag_566\n      swap2\n      swap1\n      tag_269\n      jump\t// in\n    tag_566:\n      swap1\n      dup2\n      mstore\n      0x20\n      add\n      mload(0x40)\n      dup1\n      swap2\n      sub\n      swap1\n      keccak256\n      sload\n        /* \"contracts/Bridge.sol\":13395:13424  blockchainIndexFrom[name] - 1 */\n      tag_567\n      swap2\n      swap1\n      tag_271\n      jump\t// in\n    tag_567:\n        /* \"contracts/Bridge.sol\":13456:13474  blockchainInfoFrom */\n      0x0a\n        /* \"contracts/Bridge.sol\":13456:13481  blockchainInfoFrom.length */\n      sload\n        /* \"contracts/Bridge.sol\":13371:13424  uint256 indexToDelete = blockchainIndexFrom[name] - 1 */\n      swap1\n      swap2\n      pop\n        /* \"contracts/Bridge.sol\":13434:13453  uint256 indexToMove */\n      0x00\n      swap1\n        /* \"contracts/Bridge.sol\":13456:13485  blockchainInfoFrom.length - 1 */\n      tag_568\n      swap1\n        /* \"contracts/Bridge.sol\":13484:13485  1 */\n      0x01\n      swap1\n        /* \"contracts/Bridge.sol\":13456:13485  blockchainInfoFrom.length - 1 */\n      tag_271\n      jump\t// in\n    tag_568:\n        /* \"contracts/Bridge.sol\":13434:13485  uint256 indexToMove = blockchainInfoFrom.length - 1 */\n      swap1\n      pop\n        /* \"contracts/Bridge.sol\":13495:13518  string memory keyToMove */\n      0x00\n        /* \"contracts/Bridge.sol\":13521:13542  fromBlockchainReceive */\n      0x0c\n        /* \"contracts/Bridge.sol\":13543:13554  indexToMove */\n      dup3\n        /* \"contracts/Bridge.sol\":13521:13555  fromBlockchainReceive[indexToMove] */\n      dup2\n      sload\n      dup2\n      lt\n      tag_570\n      jumpi\n      tag_570\n      tag_274\n      jump\t// in\n    tag_570:\n      swap1\n      0x00\n      mstore\n      keccak256(0x00, 0x20)\n      add\n        /* \"contracts/Bridge.sol\":13495:13555  string memory keyToMove = fromBlockchainReceive[indexToMove] */\n      dup1\n      sload\n      tag_572\n      swap1\n      tag_262\n      jump\t// in\n    tag_572:\n      dup1\n      0x1f\n      add\n      0x20\n      dup1\n      swap2\n      div\n      mul\n      0x20\n      add\n      mload(0x40)\n      swap1\n      dup2\n      add\n      0x40\n      mstore\n      dup1\n      swap3\n      swap2\n      swap1\n      dup2\n      dup2\n      mstore\n      0x20\n      add\n      dup3\n      dup1\n      sload\n      tag_573\n      swap1\n      tag_262\n      jump\t// in\n    tag_573:\n      dup1\n      iszero\n      tag_574\n      jumpi\n      dup1\n      0x1f\n      lt\n      tag_575\n      jumpi\n      0x0100\n      dup1\n      dup4\n      sload\n      div\n      mul\n      dup4\n      mstore\n      swap2\n      0x20\n      add\n      swap2\n      jump(tag_574)\n    tag_575:\n      dup3\n      add\n      swap2\n      swap1\n      0x00\n      mstore\n      keccak256(0x00, 0x20)\n      swap1\n    tag_576:\n      dup2\n      sload\n      dup2\n      mstore\n      swap1\n      0x01\n      add\n      swap1\n      0x20\n      add\n      dup1\n      dup4\n      gt\n      tag_576\n      jumpi\n      dup3\n      swap1\n      sub\n      0x1f\n      and\n      dup3\n      add\n      swap2\n    tag_574:\n      pop\n      pop\n      pop\n      pop\n      pop\n      swap1\n      pop\n        /* \"contracts/Bridge.sol\":13602:13620  blockchainInfoFrom */\n      0x0a\n        /* \"contracts/Bridge.sol\":13621:13632  indexToMove */\n      dup3\n        /* \"contracts/Bridge.sol\":13602:13633  blockchainInfoFrom[indexToMove] */\n      dup2\n      sload\n      dup2\n      lt\n      tag_578\n      jumpi\n      tag_578\n      tag_274\n      jump\t// in\n    tag_578:\n      swap1\n      0x00\n      mstore\n      keccak256(0x00, 0x20)\n      add\n        /* \"contracts/Bridge.sol\":13566:13584  blockchainInfoFrom */\n      0x0a\n        /* \"contracts/Bridge.sol\":13585:13598  indexToDelete */\n      dup5\n        /* \"contracts/Bridge.sol\":13566:13599  blockchainInfoFrom[indexToDelete] */\n      dup2\n      sload\n      dup2\n      lt\n      tag_581\n      jumpi\n      tag_581\n      tag_274\n      jump\t// in\n    tag_581:\n      0x00\n      swap2\n      dup3\n      mstore\n      0x20\n      swap1\n      swap2\n      keccak256\n        /* \"contracts/Bridge.sol\":13566:13633  blockchainInfoFrom[indexToDelete] = blockchainInfoFrom[indexToMove] */\n      swap2\n      sload\n        /* \"contracts/Bridge.sol\":13566:13599  blockchainInfoFrom[indexToDelete] */\n      swap2\n      add\n        /* \"contracts/Bridge.sol\":13566:13633  blockchainInfoFrom[indexToDelete] = blockchainInfoFrom[indexToMove] */\n      sstore\n        /* \"contracts/Bridge.sol\":13682:13703  fromBlockchainReceive */\n      0x0c\n        /* \"contracts/Bridge.sol\":13682:13738  fromBlockchainReceive[... */\n      dup1\n      sload\n        /* \"contracts/Bridge.sol\":13717:13728  indexToMove */\n      dup4\n      swap1\n        /* \"contracts/Bridge.sol\":13682:13738  fromBlockchainReceive[... */\n      dup2\n      lt\n      tag_584\n      jumpi\n      tag_584\n      tag_274\n      jump\t// in\n    tag_584:\n      swap1\n      0x00\n      mstore\n      keccak256(0x00, 0x20)\n      add\n        /* \"contracts/Bridge.sol\":13643:13664  fromBlockchainReceive */\n      0x0c\n        /* \"contracts/Bridge.sol\":13665:13678  indexToDelete */\n      dup5\n        /* \"contracts/Bridge.sol\":13643:13679  fromBlockchainReceive[indexToDelete] */\n      dup2\n      sload\n      dup2\n      lt\n      tag_587\n      jumpi\n      tag_587\n      tag_274\n      jump\t// in\n    tag_587:\n      swap1\n      0x00\n      mstore\n      keccak256(0x00, 0x20)\n      add\n        /* \"contracts/Bridge.sol\":13643:13738  fromBlockchainReceive[indexToDelete] = fromBlockchainReceive[... */\n      swap1\n      dup2\n      tag_589\n      swap2\n      swap1\n      tag_435\n      jump\t// in\n    tag_589:\n      pop\n        /* \"contracts/Bridge.sol\":13781:13798  indexToDelete + 1 */\n      tag_590\n        /* \"contracts/Bridge.sol\":13781:13794  indexToDelete */\n      dup4\n        /* \"contracts/Bridge.sol\":13797:13798  1 */\n      0x01\n        /* \"contracts/Bridge.sol\":13781:13798  indexToDelete + 1 */\n      tag_437\n      jump\t// in\n    tag_590:\n        /* \"contracts/Bridge.sol\":13748:13767  blockchainIndexFrom */\n      0x08\n        /* \"contracts/Bridge.sol\":13768:13777  keyToMove */\n      dup3\n        /* \"contracts/Bridge.sol\":13748:13778  blockchainIndexFrom[keyToMove] */\n      mload(0x40)\n      tag_591\n      swap2\n      swap1\n      tag_269\n      jump\t// in\n    tag_591:\n      swap1\n      dup2\n      mstore\n      0x20\n      add\n      mload(0x40)\n      dup1\n      swap2\n      sub\n      swap1\n      keccak256\n        /* \"contracts/Bridge.sol\":13748:13798  blockchainIndexFrom[keyToMove] = indexToDelete + 1 */\n      dup2\n      swap1\n      sstore\n      pop\n        /* \"contracts/Bridge.sol\":13816:13835  blockchainIndexFrom */\n      0x08\n        /* \"contracts/Bridge.sol\":13836:13840  name */\n      dup6\n        /* \"contracts/Bridge.sol\":13816:13841  blockchainIndexFrom[name] */\n      mload(0x40)\n      tag_592\n      swap2\n      swap1\n      tag_269\n      jump\t// in\n    tag_592:\n      swap1\n      dup2\n      mstore\n      0x20\n      add\n      mload(0x40)\n      dup1\n      swap2\n      sub\n      swap1\n      keccak256\n        /* \"contracts/Bridge.sol\":13809:13841  delete blockchainIndexFrom[name] */\n      0x00\n      swap1\n      sstore\n        /* \"contracts/Bridge.sol\":13851:13869  blockchainInfoFrom */\n      0x0a\n        /* \"contracts/Bridge.sol\":13851:13875  blockchainInfoFrom.pop() */\n      dup1\n      sload\n      dup1\n      tag_594\n      jumpi\n      tag_594\n      tag_442\n      jump\t// in\n    tag_594:\n      0x00\n      dup3\n      dup2\n      mstore\n      0x20\n      dup2\n      keccak256\n      dup3\n      add\n      not(0x00)\n      swap1\n      dup2\n      add\n      swap2\n      swap1\n      swap2\n      sstore\n      add\n      swap1\n      sstore\n        /* \"contracts/Bridge.sol\":13885:13906  fromBlockchainReceive */\n      0x0c\n        /* \"contracts/Bridge.sol\":13885:13912  fromBlockchainReceive.pop() */\n      dup1\n      sload\n      dup1\n      tag_445\n      jumpi\n      tag_445\n      tag_442\n      jump\t// in\n        /* \"contracts/Bridge.sol\":7868:8692  function withdrawToken(uint256 amount, address payable receiverWallet)... */\n    tag_195:\n        /* \"contracts/Bridge.sol\":7991:7995  bool */\n      0x00\n        /* \"contracts/Bridge.sol\":1471:1512  hasRole(DEFAULT_ADMIN_ROLE, _msgSender()) */\n      tag_601\n        /* \"contracts/Bridge.sol\":7991:7995  bool */\n      dup2\n        /* \"contracts/Context.sol\":734:744  msg.sender */\n      caller\n        /* \"contracts/AccessControl.sol\":2826:2962  function hasRole(bytes32 role, address account) public view virtual returns (bool) {... */\n      tag_160\n      jump\t// in\n        /* \"contracts/Bridge.sol\":1471:1512  hasRole(DEFAULT_ADMIN_ROLE, _msgSender()) */\n    tag_601:\n        /* \"contracts/Bridge.sol\":1463:1526  require(hasRole(DEFAULT_ADMIN_ROLE, _msgSender()), \"not owner\") */\n      tag_603\n      jumpi\n      mload(0x40)\n      shl(0xe5, 0x461bcd)\n      dup2\n      mstore\n      0x04\n      add\n      tag_282\n      swap1\n      tag_283\n      jump\t// in\n    tag_603:\n      sub(shl(0xa0, 0x01), 0x01)\n        /* \"contracts/Bridge.sol\":8019:8049  receiverWallet != ZERO_ADDRESS */\n      dup3\n      and\n        /* \"contracts/Bridge.sol\":8011:8070  require(receiverWallet != ZERO_ADDRESS, \"receiver is zero\") */\n      tag_606\n      jumpi\n      mload(0x40)\n      shl(0xe5, 0x461bcd)\n      dup2\n      mstore\n        /* \"#utility.yul\":13643:13645   */\n      0x20\n        /* \"contracts/Bridge.sol\":8011:8070  require(receiverWallet != ZERO_ADDRESS, \"receiver is zero\") */\n      0x04\n      dup3\n      add\n        /* \"#utility.yul\":13625:13646   */\n      mstore\n        /* \"#utility.yul\":13682:13684   */\n      0x10\n        /* \"#utility.yul\":13662:13680   */\n      0x24\n      dup3\n      add\n        /* \"#utility.yul\":13655:13685   */\n      mstore\n      shl(0x80, 0x7265636569766572206973207a65726f)\n        /* \"#utility.yul\":13701:13719   */\n      0x44\n      dup3\n      add\n        /* \"#utility.yul\":13694:13740   */\n      mstore\n        /* \"#utility.yul\":13757:13775   */\n      0x64\n      add\n        /* \"contracts/Bridge.sol\":8011:8070  require(receiverWallet != ZERO_ADDRESS, \"receiver is zero\") */\n      tag_282\n        /* \"#utility.yul\":13441:13781   */\n      jump\n        /* \"contracts/Bridge.sol\":8011:8070  require(receiverWallet != ZERO_ADDRESS, \"receiver is zero\") */\n    tag_606:\n        /* \"contracts/Bridge.sol\":8085:8090  token */\n      sload(0x02)\n      0x0100\n      swap1\n      div\n      sub(shl(0xa0, 0x01), 0x01)\n      and\n        /* \"contracts/Bridge.sol\":8085:8106  token != ZERO_ADDRESS */\n      iszero\n        /* \"contracts/Bridge.sol\":8081:8665  if (token != ZERO_ADDRESS) {... */\n      tag_608\n      jumpi\n        /* \"contracts/Bridge.sol\":8164:8169  token */\n      sload(0x02)\n        /* \"contracts/Bridge.sol\":8157:8195  IERC20(token).balanceOf(address(this)) */\n      mload(0x40)\n      shl(0xe0, 0x70a08231)\n      dup2\n      mstore\n        /* \"contracts/Bridge.sol\":8189:8193  this */\n      address\n        /* \"contracts/Bridge.sol\":8157:8195  IERC20(token).balanceOf(address(this)) */\n      0x04\n      dup3\n      add\n        /* \"#utility.yul\":9595:9646   */\n      mstore\n        /* \"contracts/Bridge.sol\":8164:8169  token */\n      0x0100\n      swap1\n      swap2\n      div\n      sub(shl(0xa0, 0x01), 0x01)\n      and\n      swap1\n        /* \"contracts/Bridge.sol\":8157:8180  IERC20(token).balanceOf */\n      0x70a08231\n      swap1\n        /* \"#utility.yul\":9568:9586   */\n      0x24\n      add\n        /* \"contracts/Bridge.sol\":8157:8195  IERC20(token).balanceOf(address(this)) */\n      0x20\n      mload(0x40)\n      dup1\n      dup4\n      sub\n      dup2\n      dup7\n      gas\n      staticcall\n      iszero\n      dup1\n      iszero\n      tag_611\n      jumpi\n      returndatasize\n      0x00\n      dup1\n      returndatacopy\n      revert(0x00, returndatasize)\n    tag_611:\n      pop\n      pop\n      pop\n      pop\n      mload(0x40)\n      returndatasize\n      not(0x1f)\n      0x1f\n      dup3\n      add\n      and\n      dup3\n      add\n      dup1\n      0x40\n      mstore\n      pop\n      dup2\n      add\n      swap1\n      tag_612\n      swap2\n      swap1\n      tag_391\n      jump\t// in\n    tag_612:\n        /* \"contracts/Bridge.sol\":8147:8153  amount */\n      dup4\n        /* \"contracts/Bridge.sol\":8147:8195  amount <= IERC20(token).balanceOf(address(this)) */\n      gt\n      iszero\n        /* \"contracts/Bridge.sol\":8122:8248  require(... */\n      tag_613\n      jumpi\n      mload(0x40)\n      shl(0xe5, 0x461bcd)\n      dup2\n      mstore\n        /* \"#utility.yul\":23739:23741   */\n      0x20\n        /* \"contracts/Bridge.sol\":8122:8248  require(... */\n      0x04\n      dup3\n      add\n        /* \"#utility.yul\":23721:23742   */\n      mstore\n        /* \"#utility.yul\":23778:23780   */\n      0x13\n        /* \"#utility.yul\":23758:23776   */\n      0x24\n      dup3\n      add\n        /* \"#utility.yul\":23751:23781   */\n      mstore\n      shl(0x68, 0x696e737566696369656e742062616c616e6365)\n        /* \"#utility.yul\":23797:23815   */\n      0x44\n      dup3\n      add\n        /* \"#utility.yul\":23790:23839   */\n      mstore\n        /* \"#utility.yul\":23856:23874   */\n      0x64\n      add\n        /* \"contracts/Bridge.sol\":8122:8248  require(... */\n      tag_282\n        /* \"#utility.yul\":23537:23880   */\n      jump\n        /* \"contracts/Bridge.sol\":8122:8248  require(... */\n    tag_613:\n        /* \"contracts/Bridge.sol\":8269:8274  token */\n      sload(0x02)\n        /* \"contracts/Bridge.sol\":8262:8312  IERC20(token).safeTransfer(receiverWallet, amount) */\n      tag_616\n      swap1\n        /* \"contracts/Bridge.sol\":8269:8274  token */\n      0x0100\n      swap1\n      div\n      sub(shl(0xa0, 0x01), 0x01)\n      and\n        /* \"contracts/Bridge.sol\":8289:8303  receiverWallet */\n      dup4\n        /* \"contracts/Bridge.sol\":8305:8311  amount */\n      dup6\n        /* \"contracts/Bridge.sol\":8262:8288  IERC20(token).safeTransfer */\n      tag_617\n        /* \"contracts/Bridge.sol\":8262:8312  IERC20(token).safeTransfer(receiverWallet, amount) */\n      jump\t// in\n    tag_616:\n      pop\n        /* \"contracts/Bridge.sol\":8333:8337  true */\n      0x01\n        /* \"contracts/Bridge.sol\":8326:8337  return true */\n      jump(tag_257)\n        /* \"contracts/Bridge.sol\":8081:8665  if (token != ZERO_ADDRESS) {... */\n    tag_608:\n        /* \"contracts/Bridge.sol\":8418:8424  amount */\n      dup3\n        /* \"contracts/Bridge.sol\":8393:8414  address(this).balance */\n      selfbalance\n        /* \"contracts/Bridge.sol\":8393:8424  address(this).balance >= amount */\n      lt\n      iszero\n        /* \"contracts/Bridge.sol\":8368:8503  require(... */\n      tag_619\n      jumpi\n      mload(0x40)\n      shl(0xe5, 0x461bcd)\n      dup2\n      mstore\n      0x04\n      add\n      tag_282\n      swap1\n      tag_621\n      jump\t// in\n    tag_619:\n        /* \"contracts/Bridge.sol\":8599:8613  receiverWallet */\n      dup2\n        /* \"contracts/Bridge.sol\":8628:8654  reciever.sendValue(amount) */\n      tag_622\n      sub(shl(0xa0, 0x01), 0x01)\n        /* \"contracts/Bridge.sol\":8628:8646  reciever.sendValue */\n      dup3\n      and\n        /* \"contracts/Bridge.sol\":8647:8653  amount */\n      dup6\n        /* \"contracts/Bridge.sol\":8628:8646  reciever.sendValue */\n      tag_516\n        /* \"contracts/Bridge.sol\":8628:8654  reciever.sendValue(amount) */\n      jump\t// in\n    tag_622:\n        /* \"contracts/Bridge.sol\":8354:8665  {... */\n      pop\n        /* \"contracts/Bridge.sol\":8081:8665  if (token != ZERO_ADDRESS) {... */\n    tag_618:\n      pop\n        /* \"contracts/Bridge.sol\":8681:8685  true */\n      0x01\n        /* \"contracts/Bridge.sol\":7868:8692  function withdrawToken(uint256 amount, address payable receiverWallet)... */\n      swap3\n      swap2\n      pop\n      pop\n      jump\t// out\n        /* \"contracts/Bridge.sol\":1389:1425  string[] public toBlockchainTransfer */\n    tag_205:\n      0x0d\n      dup2\n      dup2\n      sload\n      dup2\n      lt\n      tag_259\n      jumpi\n      0x00\n      dup1\n      revert\n        /* \"contracts/Bridge.sol\":11448:11661  function existsBlockchainFrom(string memory name)... */\n    tag_210:\n        /* \"contracts/Bridge.sol\":11560:11564  bool */\n      0x00\n        /* \"contracts/Bridge.sol\":11584:11603  blockchainIndexFrom */\n      0x08\n        /* \"contracts/Bridge.sol\":11604:11608  name */\n      dup3\n        /* \"contracts/Bridge.sol\":11584:11609  blockchainIndexFrom[name] */\n      mload(0x40)\n      tag_631\n      swap2\n      swap1\n      tag_269\n      jump\t// in\n    tag_631:\n      swap1\n      dup2\n      mstore\n      0x20\n      add\n      mload(0x40)\n      dup1\n      swap2\n      sub\n      swap1\n      keccak256\n      sload\n        /* \"contracts/Bridge.sol\":11613:11614  0 */\n      0x00\n        /* \"contracts/Bridge.sol\":11584:11614  blockchainIndexFrom[name] == 0 */\n      sub\n        /* \"contracts/Bridge.sol\":11580:11654  if (blockchainIndexFrom[name] == 0) return false;... */\n      tag_355\n      jumpi\n      pop\n        /* \"contracts/Bridge.sol\":11623:11628  false */\n      0x00\n      swap2\n        /* \"contracts/Bridge.sol\":11448:11661  function existsBlockchainFrom(string memory name)... */\n      swap1\n      pop\n      jump\t// out\n        /* \"contracts/Bridge.sol\":5285:6027  function setDeployBridge(... */\n    tag_216:\n        /* \"contracts/Bridge.sol\":5486:5491  token */\n      sload(0x02)\n      0x0100\n      swap1\n      div\n      sub(shl(0xa0, 0x01), 0x01)\n      and\n        /* \"contracts/Bridge.sol\":5486:5507  token == ZERO_ADDRESS */\n      iszero\n        /* \"contracts/Bridge.sol\":5478:5525  require(token == ZERO_ADDRESS, \"Not set token\") */\n      tag_635\n      jumpi\n      mload(0x40)\n      shl(0xe5, 0x461bcd)\n      dup2\n      mstore\n        /* \"#utility.yul\":24501:24503   */\n      0x20\n        /* \"contracts/Bridge.sol\":5478:5525  require(token == ZERO_ADDRESS, \"Not set token\") */\n      0x04\n      dup3\n      add\n        /* \"#utility.yul\":24483:24504   */\n      mstore\n        /* \"#utility.yul\":24540:24542   */\n      0x0d\n        /* \"#utility.yul\":24520:24538   */\n      0x24\n      dup3\n      add\n        /* \"#utility.yul\":24513:24543   */\n      mstore\n      shl(0x99, 0x2737ba1039b2ba103a37b5b2b7)\n        /* \"#utility.yul\":24559:24577   */\n      0x44\n      dup3\n      add\n        /* \"#utility.yul\":24552:24595   */\n      mstore\n        /* \"#utility.yul\":24612:24630   */\n      0x64\n      add\n        /* \"contracts/Bridge.sol\":5478:5525  require(token == ZERO_ADDRESS, \"Not set token\") */\n      tag_282\n        /* \"#utility.yul\":24299:24636   */\n      jump\n        /* \"contracts/Bridge.sol\":5478:5525  require(token == ZERO_ADDRESS, \"Not set token\") */\n    tag_635:\n        /* \"contracts/Bridge.sol\":5543:5555  OWNER_WALLET */\n      and(sub(shl(0xa0, 0x01), 0x01), sload(0x06))\n        /* \"contracts/Bridge.sol\":5543:5571  OWNER_WALLET == ZERO_ADDRESS */\n      iszero\n        /* \"contracts/Bridge.sol\":5535:5596  require(OWNER_WALLET == ZERO_ADDRESS, \"Not set owner wallet\") */\n      tag_638\n      jumpi\n      mload(0x40)\n      shl(0xe5, 0x461bcd)\n      dup2\n      mstore\n        /* \"#utility.yul\":24843:24845   */\n      0x20\n        /* \"contracts/Bridge.sol\":5535:5596  require(OWNER_WALLET == ZERO_ADDRESS, \"Not set owner wallet\") */\n      0x04\n      dup3\n      add\n        /* \"#utility.yul\":24825:24846   */\n      mstore\n        /* \"#utility.yul\":24882:24884   */\n      0x14\n        /* \"#utility.yul\":24862:24880   */\n      0x24\n      dup3\n      add\n        /* \"#utility.yul\":24855:24885   */\n      mstore\n      shl(0x62, 0x139bdd081cd95d081bdddb995c881dd85b1b195d)\n        /* \"#utility.yul\":24901:24919   */\n      0x44\n      dup3\n      add\n        /* \"#utility.yul\":24894:24944   */\n      mstore\n        /* \"#utility.yul\":24961:24979   */\n      0x64\n      add\n        /* \"contracts/Bridge.sol\":5535:5596  require(OWNER_WALLET == ZERO_ADDRESS, \"Not set owner wallet\") */\n      tag_282\n        /* \"#utility.yul\":24641:24985   */\n      jump\n        /* \"contracts/Bridge.sol\":5535:5596  require(OWNER_WALLET == ZERO_ADDRESS, \"Not set owner wallet\") */\n    tag_638:\n        /* \"contracts/Bridge.sol\":5614:5624  FEE_NATIVE */\n      sload(0x04)\n        /* \"contracts/Bridge.sol\":5614:5629  FEE_NATIVE == 0 */\n      iszero\n        /* \"contracts/Bridge.sol\":5606:5660  require(FEE_NATIVE == 0, \"Not set admin default role\") */\n      tag_641\n      jumpi\n      mload(0x40)\n      shl(0xe5, 0x461bcd)\n      dup2\n      mstore\n        /* \"#utility.yul\":25192:25194   */\n      0x20\n        /* \"contracts/Bridge.sol\":5606:5660  require(FEE_NATIVE == 0, \"Not set admin default role\") */\n      0x04\n      dup3\n      add\n        /* \"#utility.yul\":25174:25195   */\n      mstore\n        /* \"#utility.yul\":25231:25233   */\n      0x1a\n        /* \"#utility.yul\":25211:25229   */\n      0x24\n      dup3\n      add\n        /* \"#utility.yul\":25204:25234   */\n      mstore\n        /* \"#utility.yul\":25270:25298   */\n      0x4e6f74207365742061646d696e2064656661756c7420726f6c65000000000000\n        /* \"#utility.yul\":25250:25268   */\n      0x44\n      dup3\n      add\n        /* \"#utility.yul\":25243:25299   */\n      mstore\n        /* \"#utility.yul\":25316:25334   */\n      0x64\n      add\n        /* \"contracts/Bridge.sol\":5606:5660  require(FEE_NATIVE == 0, \"Not set admin default role\") */\n      tag_282\n        /* \"#utility.yul\":24990:25340   */\n      jump\n        /* \"contracts/Bridge.sol\":5606:5660  require(FEE_NATIVE == 0, \"Not set admin default role\") */\n    tag_641:\n        /* \"contracts/Bridge.sol\":5678:5697  feePercentageBridge */\n      sload(0x05)\n        /* \"contracts/Bridge.sol\":5678:5702  feePercentageBridge == 0 */\n      iszero\n        /* \"contracts/Bridge.sol\":5670:5733  require(feePercentageBridge == 0, \"Not set admin default role\") */\n      tag_644\n      jumpi\n      mload(0x40)\n      shl(0xe5, 0x461bcd)\n      dup2\n      mstore\n        /* \"#utility.yul\":25192:25194   */\n      0x20\n        /* \"contracts/Bridge.sol\":5670:5733  require(feePercentageBridge == 0, \"Not set admin default role\") */\n      0x04\n      dup3\n      add\n        /* \"#utility.yul\":25174:25195   */\n      mstore\n        /* \"#utility.yul\":25231:25233   */\n      0x1a\n        /* \"#utility.yul\":25211:25229   */\n      0x24\n      dup3\n      add\n        /* \"#utility.yul\":25204:25234   */\n      mstore\n        /* \"#utility.yul\":25270:25298   */\n      0x4e6f74207365742061646d696e2064656661756c7420726f6c65000000000000\n        /* \"#utility.yul\":25250:25268   */\n      0x44\n      dup3\n      add\n        /* \"#utility.yul\":25243:25299   */\n      mstore\n        /* \"#utility.yul\":25316:25334   */\n      0x64\n      add\n        /* \"contracts/Bridge.sol\":5670:5733  require(feePercentageBridge == 0, \"Not set admin default role\") */\n      tag_282\n        /* \"#utility.yul\":24990:25340   */\n      jump\n        /* \"contracts/Bridge.sol\":5670:5733  require(feePercentageBridge == 0, \"Not set admin default role\") */\n    tag_644:\n        /* \"contracts/Bridge.sol\":5768:5771  100 */\n      0x64\n        /* \"contracts/Bridge.sol\":5751:5764  feePercentage */\n      dup2\n        /* \"contracts/Bridge.sol\":5751:5771  feePercentage <= 100 */\n      gt\n      iszero\n        /* \"contracts/Bridge.sol\":5743:5793  require(feePercentage <= 100, \"Fee percent > 10%\") */\n      tag_646\n      jumpi\n      mload(0x40)\n      shl(0xe5, 0x461bcd)\n      dup2\n      mstore\n        /* \"#utility.yul\":25547:25549   */\n      0x20\n        /* \"contracts/Bridge.sol\":5743:5793  require(feePercentage <= 100, \"Fee percent > 10%\") */\n      0x04\n      dup3\n      add\n        /* \"#utility.yul\":25529:25550   */\n      mstore\n        /* \"#utility.yul\":25586:25588   */\n      0x11\n        /* \"#utility.yul\":25566:25584   */\n      0x24\n      dup3\n      add\n        /* \"#utility.yul\":25559:25589   */\n      mstore\n      shl(0x78, 0x4665652070657263656e74203e20313025)\n        /* \"#utility.yul\":25605:25623   */\n      0x44\n      dup3\n      add\n        /* \"#utility.yul\":25598:25645   */\n      mstore\n        /* \"#utility.yul\":25662:25680   */\n      0x64\n      add\n        /* \"contracts/Bridge.sol\":5743:5793  require(feePercentage <= 100, \"Fee percent > 10%\") */\n      tag_282\n        /* \"#utility.yul\":25345:25686   */\n      jump\n        /* \"contracts/Bridge.sol\":5743:5793  require(feePercentage <= 100, \"Fee percent > 10%\") */\n    tag_646:\n        /* \"contracts/Bridge.sol\":5803:5808  token */\n      0x02\n        /* \"contracts/Bridge.sol\":5803:5823  token = tokenAddress */\n      dup1\n      sload\n      not(sub(shl(0xa8, 0x01), 0x0100))\n      and\n      0x0100\n      sub(shl(0xa0, 0x01), 0x01)\n      dup9\n      dup2\n      and\n      swap2\n      swap1\n      swap2\n      mul\n      swap2\n      swap1\n      swap2\n      or\n      swap1\n      swap2\n      sstore\n        /* \"contracts/Bridge.sol\":5833:5845  OWNER_WALLET */\n      0x06\n        /* \"contracts/Bridge.sol\":5833:5853  OWNER_WALLET = owner */\n      dup1\n      sload\n      not(sub(shl(0xa0, 0x01), 0x01))\n      and\n      swap2\n      dup7\n      and\n      swap2\n      swap1\n      swap2\n      or\n      swap1\n      sstore\n        /* \"contracts/Bridge.sol\":5863:5900  _grantRole(DEFAULT_ADMIN_ROLE, owner) */\n      tag_649\n      0x00\n        /* \"contracts/Bridge.sol\":5833:5853  OWNER_WALLET = owner */\n      dup6\n        /* \"contracts/Bridge.sol\":5863:5873  _grantRole */\n      tag_308\n        /* \"contracts/Bridge.sol\":5863:5900  _grantRole(DEFAULT_ADMIN_ROLE, owner) */\n      jump\t// in\n    tag_649:\n      pop\n        /* \"contracts/Bridge.sol\":5910:5943  _grantRole(MONITOR_ROLE, monitor) */\n      tag_650\n      0x00\n      dup1\n      mload\n      0x20\n      data_d6a6016c81f51cb4dddbbc8ef9ddf0093cf3b17d39f0f71122b555af630af1fe\n      dup4\n      codecopy\n      dup2\n      mload\n      swap2\n      mstore\n        /* \"contracts/Bridge.sol\":5935:5942  monitor */\n      dup5\n        /* \"contracts/Bridge.sol\":5910:5920  _grantRole */\n      tag_308\n        /* \"contracts/Bridge.sol\":5910:5943  _grantRole(MONITOR_ROLE, monitor) */\n      jump\t// in\n    tag_650:\n      pop\n        /* \"contracts/Bridge.sol\":5953:5963  FEE_NATIVE */\n      0x04\n        /* \"contracts/Bridge.sol\":5953:5975  FEE_NATIVE = feeNative */\n      swap2\n      swap1\n      swap2\n      sstore\n        /* \"contracts/Bridge.sol\":5985:6004  feePercentageBridge */\n      0x05\n        /* \"contracts/Bridge.sol\":5985:6020  feePercentageBridge = feePercentage */\n      sstore\n      pop\n      pop\n      pop\n        /* \"contracts/Bridge.sol\":5285:6027  function setDeployBridge(... */\n      jump\t// out\n        /* \"contracts/Bridge.sol\":9630:9818  function revokeRole(bytes32 role, address account)... */\n    tag_220:\n        /* \"contracts/AccessControl.sol\":3847:3854  bytes32 */\n      0x00\n        /* \"contracts/AccessControl.sol\":3873:3885  _roles[role] */\n      dup3\n      dup2\n      mstore\n        /* \"contracts/AccessControl.sol\":3873:3879  _roles */\n      0x01\n        /* \"contracts/AccessControl.sol\":3873:3885  _roles[role] */\n      0x20\n      dup2\n      swap1\n      mstore\n      0x40\n      swap1\n      swap2\n      keccak256\n        /* \"contracts/AccessControl.sol\":3873:3895  _roles[role].adminRole */\n      add\n      sload\n        /* \"contracts/AccessControl.sol\":2436:2452  _checkRole(role) */\n      tag_653\n        /* \"contracts/AccessControl.sol\":2447:2451  role */\n      dup2\n        /* \"contracts/AccessControl.sol\":2436:2446  _checkRole */\n      tag_305\n        /* \"contracts/AccessControl.sol\":2436:2452  _checkRole(role) */\n      jump\t// in\n    tag_653:\n        /* \"contracts/Bridge.sol\":9780:9811  super.revokeRole(role, account) */\n      tag_655\n        /* \"contracts/Bridge.sol\":9797:9801  role */\n      dup4\n        /* \"contracts/Bridge.sol\":9803:9810  account */\n      dup4\n        /* \"contracts/Bridge.sol\":9780:9796  super.revokeRole */\n      tag_656\n        /* \"contracts/Bridge.sol\":9780:9811  super.revokeRole(role, account) */\n      jump\t// in\n    tag_655:\n        /* \"contracts/Bridge.sol\":9630:9818  function revokeRole(bytes32 role, address account)... */\n      pop\n      pop\n      pop\n      jump\t// out\n        /* \"contracts/Bridge.sol\":6033:6506  function getTransactionId(... */\n    tag_225:\n        /* \"contracts/Bridge.sol\":6295:6485  abi.encodePacked(... */\n      0x40\n      dup1\n      mload\n      0x20\n      dup1\n      dup3\n      add\n        /* \"#utility.yul\":25930:25949   */\n      swap8\n      swap1\n      swap8\n      mstore\n        /* \"#utility.yul\":25965:25977   */\n      dup1\n      dup3\n      add\n        /* \"#utility.yul\":25958:25986   */\n      swap6\n      swap1\n      swap6\n      mstore\n        /* \"#utility.yul\":26024:26026   */\n      0x60\n        /* \"#utility.yul\":26020:26035   */\n      swap4\n      dup5\n      shl\n      not(0xffffffffffffffffffffffff)\n        /* \"#utility.yul\":26016:26069   */\n      and\n        /* \"#utility.yul\":26002:26014   */\n      swap4\n      dup6\n      add\n        /* \"#utility.yul\":25995:26070   */\n      swap4\n      swap1\n      swap4\n      mstore\n        /* \"#utility.yul\":26086:26098   */\n      0x74\n      dup5\n      add\n        /* \"#utility.yul\":26079:26107   */\n      swap2\n      swap1\n      swap2\n      mstore\n        /* \"#utility.yul\":26164:26167   */\n      0xe0\n        /* \"#utility.yul\":26142:26158   */\n      shl\n      not(sub(shl(0xe0, 0x01), 0x01))\n        /* \"#utility.yul\":26138:26181   */\n      and\n        /* \"#utility.yul\":26123:26136   */\n      0x94\n      dup4\n      add\n        /* \"#utility.yul\":26116:26182   */\n      mstore\n        /* \"contracts/Bridge.sol\":6295:6485  abi.encodePacked(... */\n      dup1\n      mload\n      dup1\n      dup4\n      sub\n      0x78\n      add\n      dup2\n      mstore\n        /* \"#utility.yul\":26198:26211   */\n      0x98\n      swap1\n      swap3\n      add\n        /* \"contracts/Bridge.sol\":6295:6485  abi.encodePacked(... */\n      swap1\n      mstore\n        /* \"contracts/Bridge.sol\":6268:6499  keccak256(... */\n      dup1\n      mload\n      swap2\n      add\n      keccak256\n      swap1\n        /* \"contracts/Bridge.sol\":6033:6506  function getTransactionId(... */\n      jump\t// out\n        /* \"contracts/Bridge.sol\":12048:12205  function listBlockchainTo()... */\n    tag_229:\n        /* \"contracts/Bridge.sol\":12140:12155  string[] memory */\n      0x60\n        /* \"contracts/Bridge.sol\":12178:12198  toBlockchainTransfer */\n      0x0d\n        /* \"contracts/Bridge.sol\":12171:12198  return toBlockchainTransfer */\n      dup1\n      sload\n      dup1\n      0x20\n      mul\n      0x20\n      add\n      mload(0x40)\n      swap1\n      dup2\n      add\n      0x40\n      mstore\n      dup1\n      swap3\n      swap2\n      swap1\n      dup2\n      dup2\n      mstore\n      0x20\n      add\n      0x00\n      swap1\n    tag_661:\n      dup3\n      dup3\n      lt\n      iszero\n      tag_539\n      jumpi\n      dup4\n      dup3\n      swap1\n      0x00\n      mstore\n      keccak256(0x00, 0x20)\n      add\n      dup1\n      sload\n      tag_664\n      swap1\n      tag_262\n      jump\t// in\n    tag_664:\n      dup1\n      0x1f\n      add\n      0x20\n      dup1\n      swap2\n      div\n      mul\n      0x20\n      add\n      mload(0x40)\n      swap1\n      dup2\n      add\n      0x40\n      mstore\n      dup1\n      swap3\n      swap2\n      swap1\n      dup2\n      dup2\n      mstore\n      0x20\n      add\n      dup3\n      dup1\n      sload\n      tag_665\n      swap1\n      tag_262\n      jump\t// in\n    tag_665:\n      dup1\n      iszero\n      tag_666\n      jumpi\n      dup1\n      0x1f\n      lt\n      tag_667\n      jumpi\n      0x0100\n      dup1\n      dup4\n      sload\n      div\n      mul\n      dup4\n      mstore\n      swap2\n      0x20\n      add\n      swap2\n      jump(tag_666)\n    tag_667:\n      dup3\n      add\n      swap2\n      swap1\n      0x00\n      mstore\n      keccak256(0x00, 0x20)\n      swap1\n    tag_668:\n      dup2\n      sload\n      dup2\n      mstore\n      swap1\n      0x01\n      add\n      swap1\n      0x20\n      add\n      dup1\n      dup4\n      gt\n      tag_668\n      jumpi\n      dup3\n      swap1\n      sub\n      0x1f\n      and\n      dup3\n      add\n      swap2\n    tag_666:\n      pop\n      pop\n      pop\n      pop\n      pop\n      dup2\n      mstore\n      0x20\n      add\n      swap1\n      0x01\n      add\n      swap1\n      jump(tag_661)\n        /* \"contracts/Bridge.sol\":11667:11876  function existsBlockchainTo(string memory name)... */\n    tag_234:\n        /* \"contracts/Bridge.sol\":11777:11781  bool */\n      0x00\n        /* \"contracts/Bridge.sol\":11801:11818  blockchainIndexTo */\n      0x09\n        /* \"contracts/Bridge.sol\":11819:11823  name */\n      dup3\n        /* \"contracts/Bridge.sol\":11801:11824  blockchainIndexTo[name] */\n      mload(0x40)\n      tag_631\n      swap2\n      swap1\n      tag_269\n      jump\t// in\n        /* \"contracts/Bridge.sol\":12211:12651  function addBlockchainFrom(string memory name)... */\n    tag_239:\n        /* \"contracts/Bridge.sol\":12332:12339  uint256 */\n      0x00\n        /* \"contracts/Bridge.sol\":1471:1512  hasRole(DEFAULT_ADMIN_ROLE, _msgSender()) */\n      tag_674\n        /* \"contracts/Bridge.sol\":12332:12339  uint256 */\n      dup2\n        /* \"contracts/Context.sol\":734:744  msg.sender */\n      caller\n        /* \"contracts/AccessControl.sol\":2826:2962  function hasRole(bytes32 role, address account) public view virtual returns (bool) {... */\n      tag_160\n      jump\t// in\n        /* \"contracts/Bridge.sol\":1471:1512  hasRole(DEFAULT_ADMIN_ROLE, _msgSender()) */\n    tag_674:\n        /* \"contracts/Bridge.sol\":1463:1526  require(hasRole(DEFAULT_ADMIN_ROLE, _msgSender()), \"not owner\") */\n      tag_676\n      jumpi\n      mload(0x40)\n      shl(0xe5, 0x461bcd)\n      dup2\n      mstore\n      0x04\n      add\n      tag_282\n      swap1\n      tag_283\n      jump\t// in\n    tag_676:\n        /* \"contracts/Pausable.sol\":1232:1251  _requireNotPaused() */\n      tag_679\n        /* \"contracts/Pausable.sol\":1232:1249  _requireNotPaused */\n      tag_286\n        /* \"contracts/Pausable.sol\":1232:1251  _requireNotPaused() */\n      jump\t// in\n    tag_679:\n        /* \"contracts/Bridge.sol\":12364:12390  existsBlockchainFrom(name) */\n      tag_681\n        /* \"contracts/Bridge.sol\":12385:12389  name */\n      dup3\n        /* \"contracts/Bridge.sol\":12364:12384  existsBlockchainFrom */\n      tag_210\n        /* \"contracts/Bridge.sol\":12364:12390  existsBlockchainFrom(name) */\n      jump\t// in\n    tag_681:\n        /* \"contracts/Bridge.sol\":12363:12390  !existsBlockchainFrom(name) */\n      iszero\n        /* \"contracts/Bridge.sol\":12355:12412  require(!existsBlockchainFrom(name), \"Blockchain exists\") */\n      tag_682\n      jumpi\n      mload(0x40)\n      shl(0xe5, 0x461bcd)\n      dup2\n      mstore\n        /* \"#utility.yul\":26424:26426   */\n      0x20\n        /* \"contracts/Bridge.sol\":12355:12412  require(!existsBlockchainFrom(name), \"Blockchain exists\") */\n      0x04\n      dup3\n      add\n        /* \"#utility.yul\":26406:26427   */\n      mstore\n        /* \"#utility.yul\":26463:26465   */\n      0x11\n        /* \"#utility.yul\":26443:26461   */\n      0x24\n      dup3\n      add\n        /* \"#utility.yul\":26436:26466   */\n      mstore\n      shl(0x78, 0x426c6f636b636861696e20657869737473)\n        /* \"#utility.yul\":26482:26500   */\n      0x44\n      dup3\n      add\n        /* \"#utility.yul\":26475:26522   */\n      mstore\n        /* \"#utility.yul\":26539:26557   */\n      0x64\n      add\n        /* \"contracts/Bridge.sol\":12355:12412  require(!existsBlockchainFrom(name), \"Blockchain exists\") */\n      tag_282\n        /* \"#utility.yul\":26222:26563   */\n      jump\n        /* \"contracts/Bridge.sol\":12355:12412  require(!existsBlockchainFrom(name), \"Blockchain exists\") */\n    tag_682:\n      0x40\n      dup1\n      mload\n      0x20\n      dup2\n      add\n      swap1\n      swap2\n      mstore\n      0x00\n      dup1\n      dup3\n      mstore\n        /* \"contracts/Bridge.sol\":12458:12476  blockchainInfoFrom */\n      0x0a\n        /* \"contracts/Bridge.sol\":12458:12484  blockchainInfoFrom.push(b) */\n      dup1\n      sload\n      0x01\n      dup1\n      dup3\n      add\n      dup4\n      sstore\n      swap2\n      dup4\n      mstore\n      dup4\n      mload\n      0xc65a7bb8d6351c1cf70c95a316cc6a92839c986682d98bc35f958f4883f9d2a8\n      swap1\n      swap2\n      add\n      sstore\n        /* \"contracts/Bridge.sol\":12494:12515  fromBlockchainReceive */\n      0x0c\n        /* \"contracts/Bridge.sol\":12494:12526  fromBlockchainReceive.push(name) */\n      dup1\n      sload\n      swap2\n      dup3\n      add\n      dup2\n      sstore\n      swap1\n      swap2\n      mstore\n      0xdf6966c971051c3d54ec59162606531493a51404a002842f56009d7e5cf4a8c7\n      add\n      tag_688\n        /* \"contracts/Bridge.sol\":12521:12525  name */\n      dup5\n        /* \"contracts/Bridge.sol\":12494:12526  fromBlockchainReceive.push(name) */\n      dup3\n      tag_467\n      jump\t// in\n    tag_688:\n      pop\n        /* \"contracts/Bridge.sol\":12552:12570  blockchainInfoFrom */\n      0x0a\n        /* \"contracts/Bridge.sol\":12552:12577  blockchainInfoFrom.length */\n      sload\n        /* \"contracts/Bridge.sol\":12587:12612  blockchainIndexFrom[name] */\n      mload(0x40)\n        /* \"contracts/Bridge.sol\":12552:12577  blockchainInfoFrom.length */\n      dup2\n      swap1\n        /* \"contracts/Bridge.sol\":12587:12606  blockchainIndexFrom */\n      0x08\n      swap1\n        /* \"contracts/Bridge.sol\":12587:12612  blockchainIndexFrom[name] */\n      tag_689\n      swap1\n        /* \"contracts/Bridge.sol\":12607:12611  name */\n      dup8\n      swap1\n        /* \"contracts/Bridge.sol\":12587:12612  blockchainIndexFrom[name] */\n      tag_269\n      jump\t// in\n    tag_689:\n      swap1\n      dup2\n      mstore\n      mload(0x40)\n      swap1\n      dup2\n      swap1\n      sub\n      0x20\n      add\n      swap1\n      keccak256\n        /* \"contracts/Bridge.sol\":12587:12620  blockchainIndexFrom[name] = index */\n      sstore\n        /* \"contracts/Bridge.sol\":12638:12643  index */\n      swap2\n      pop\n      pop\n        /* \"contracts/Bridge.sol\":12211:12651  function addBlockchainFrom(string memory name)... */\n      swap2\n      swap1\n      pop\n      jump\t// out\n        /* \"contracts/Bridge.sol\":10087:10575  function transferOwnership(address newOwner)... */\n    tag_244:\n        /* \"contracts/Bridge.sol\":10204:10208  bool */\n      0x00\n        /* \"contracts/Bridge.sol\":1471:1512  hasRole(DEFAULT_ADMIN_ROLE, _msgSender()) */\n      tag_691\n        /* \"contracts/Bridge.sol\":10204:10208  bool */\n      dup2\n        /* \"contracts/Context.sol\":734:744  msg.sender */\n      caller\n        /* \"contracts/AccessControl.sol\":2826:2962  function hasRole(bytes32 role, address account) public view virtual returns (bool) {... */\n      tag_160\n      jump\t// in\n        /* \"contracts/Bridge.sol\":1471:1512  hasRole(DEFAULT_ADMIN_ROLE, _msgSender()) */\n    tag_691:\n        /* \"contracts/Bridge.sol\":1463:1526  require(hasRole(DEFAULT_ADMIN_ROLE, _msgSender()), \"not owner\") */\n      tag_693\n      jumpi\n      mload(0x40)\n      shl(0xe5, 0x461bcd)\n      dup2\n      mstore\n      0x04\n      add\n      tag_282\n      swap1\n      tag_283\n      jump\t// in\n    tag_693:\n        /* \"contracts/Pausable.sol\":1232:1251  _requireNotPaused() */\n      tag_696\n        /* \"contracts/Pausable.sol\":1232:1249  _requireNotPaused */\n      tag_286\n        /* \"contracts/Pausable.sol\":1232:1251  _requireNotPaused() */\n      jump\t// in\n    tag_696:\n        /* \"contracts/Bridge.sol\":10224:10236  OWNER_WALLET */\n      0x06\n        /* \"contracts/Bridge.sol\":10224:10247  OWNER_WALLET = newOwner */\n      dup1\n      sload\n      not(sub(shl(0xa0, 0x01), 0x01))\n      and\n      sub(shl(0xa0, 0x01), 0x01)\n      dup5\n      and\n      or\n      swap1\n      sstore\n        /* \"contracts/Context.sol\":734:744  msg.sender */\n      caller\n      sub(shl(0xa0, 0x01), 0x01)\n        /* \"contracts/Bridge.sol\":10313:10337  newOwner != _msgSender() */\n      and\n        /* \"contracts/Bridge.sol\":10313:10321  newOwner */\n      dup3\n      sub(shl(0xa0, 0x01), 0x01)\n        /* \"contracts/Bridge.sol\":10313:10337  newOwner != _msgSender() */\n      and\n      sub\n        /* \"contracts/Bridge.sol\":10305:10372  require(newOwner != _msgSender(), \"newOwner can not be msg.sender\") */\n      tag_699\n      jumpi\n      mload(0x40)\n      shl(0xe5, 0x461bcd)\n      dup2\n      mstore\n        /* \"#utility.yul\":26770:26772   */\n      0x20\n        /* \"contracts/Bridge.sol\":10305:10372  require(newOwner != _msgSender(), \"newOwner can not be msg.sender\") */\n      0x04\n      dup3\n      add\n        /* \"#utility.yul\":26752:26773   */\n      mstore\n        /* \"#utility.yul\":26809:26811   */\n      0x1e\n        /* \"#utility.yul\":26789:26807   */\n      0x24\n      dup3\n      add\n        /* \"#utility.yul\":26782:26812   */\n      mstore\n        /* \"#utility.yul\":26848:26880   */\n      0x6e65774f776e65722063616e206e6f74206265206d73672e73656e6465720000\n        /* \"#utility.yul\":26828:26846   */\n      0x44\n      dup3\n      add\n        /* \"#utility.yul\":26821:26881   */\n      mstore\n        /* \"#utility.yul\":26898:26916   */\n      0x64\n      add\n        /* \"contracts/Bridge.sol\":10305:10372  require(newOwner != _msgSender(), \"newOwner can not be msg.sender\") */\n      tag_282\n        /* \"#utility.yul\":26568:26922   */\n      jump\n        /* \"contracts/Bridge.sol\":10305:10372  require(newOwner != _msgSender(), \"newOwner can not be msg.sender\") */\n    tag_699:\n      sub(shl(0xa0, 0x01), 0x01)\n        /* \"contracts/Bridge.sol\":10390:10414  newOwner != ZERO_ADDRESS */\n      dup3\n      and\n        /* \"contracts/Bridge.sol\":10382:10443  require(newOwner != ZERO_ADDRESS, \"newOwner can not be zero\") */\n      tag_702\n      jumpi\n      mload(0x40)\n      shl(0xe5, 0x461bcd)\n      dup2\n      mstore\n        /* \"#utility.yul\":27129:27131   */\n      0x20\n        /* \"contracts/Bridge.sol\":10382:10443  require(newOwner != ZERO_ADDRESS, \"newOwner can not be zero\") */\n      0x04\n      dup3\n      add\n        /* \"#utility.yul\":27111:27132   */\n      mstore\n        /* \"#utility.yul\":27168:27170   */\n      0x18\n        /* \"#utility.yul\":27148:27166   */\n      0x24\n      dup3\n      add\n        /* \"#utility.yul\":27141:27171   */\n      mstore\n        /* \"#utility.yul\":27207:27233   */\n      0x6e65774f776e65722063616e206e6f74206265207a65726f0000000000000000\n        /* \"#utility.yul\":27187:27205   */\n      0x44\n      dup3\n      add\n        /* \"#utility.yul\":27180:27234   */\n      mstore\n        /* \"#utility.yul\":27251:27269   */\n      0x64\n      add\n        /* \"contracts/Bridge.sol\":10382:10443  require(newOwner != ZERO_ADDRESS, \"newOwner can not be zero\") */\n      tag_282\n        /* \"#utility.yul\":26927:27275   */\n      jump\n        /* \"contracts/Bridge.sol\":10382:10443  require(newOwner != ZERO_ADDRESS, \"newOwner can not be zero\") */\n    tag_702:\n        /* \"contracts/Bridge.sol\":10453:10493  _grantRole(DEFAULT_ADMIN_ROLE, newOwner) */\n      tag_705\n        /* \"contracts/AccessControl.sol\":2204:2208  0x00 */\n      0x00\n        /* \"contracts/Bridge.sol\":10484:10492  newOwner */\n      dup4\n        /* \"contracts/Bridge.sol\":10453:10463  _grantRole */\n      tag_308\n        /* \"contracts/Bridge.sol\":10453:10493  _grantRole(DEFAULT_ADMIN_ROLE, newOwner) */\n      jump\t// in\n    tag_705:\n      pop\n        /* \"contracts/Bridge.sol\":10503:10547  revokeRole(DEFAULT_ADMIN_ROLE, _msgSender()) */\n      tag_355\n        /* \"contracts/AccessControl.sol\":2204:2208  0x00 */\n      0x00\n        /* \"contracts/Context.sol\":734:744  msg.sender */\n      caller\n        /* \"contracts/Bridge.sol\":9630:9818  function revokeRole(bytes32 role, address account)... */\n      tag_220\n      jump\t// in\n        /* \"contracts/Pausable.sol\":1760:1866  function _requireNotPaused() internal view virtual {... */\n    tag_286:\n        /* \"contracts/Pausable.sol\":1678:1685  _paused */\n      and(0xff, sload(0x02))\n        /* \"contracts/Pausable.sol\":1829:1838  !paused() */\n      iszero\n        /* \"contracts/Pausable.sol\":1821:1859  require(!paused(), \"Pausable: paused\") */\n      tag_325\n      jumpi\n      mload(0x40)\n      shl(0xe5, 0x461bcd)\n      dup2\n      mstore\n        /* \"#utility.yul\":27482:27484   */\n      0x20\n        /* \"contracts/Pausable.sol\":1821:1859  require(!paused(), \"Pausable: paused\") */\n      0x04\n      dup3\n      add\n        /* \"#utility.yul\":27464:27485   */\n      mstore\n        /* \"#utility.yul\":27521:27523   */\n      0x10\n        /* \"#utility.yul\":27501:27519   */\n      0x24\n      dup3\n      add\n        /* \"#utility.yul\":27494:27524   */\n      mstore\n      shl(0x82, 0x14185d5cd8589b194e881c185d5cd959)\n        /* \"#utility.yul\":27540:27558   */\n      0x44\n      dup3\n      add\n        /* \"#utility.yul\":27533:27579   */\n      mstore\n        /* \"#utility.yul\":27596:27614   */\n      0x64\n      add\n        /* \"contracts/Pausable.sol\":1821:1859  require(!paused(), \"Pausable: paused\") */\n      tag_282\n        /* \"#utility.yul\":27280:27620   */\n      jump\n        /* \"contracts/AccessControl.sol\":3171:3274  function _checkRole(bytes32 role) internal view virtual {... */\n    tag_305:\n        /* \"contracts/AccessControl.sol\":3237:3267  _checkRole(role, _msgSender()) */\n      tag_716\n        /* \"contracts/AccessControl.sol\":3248:3252  role */\n      dup2\n        /* \"contracts/Context.sol\":734:744  msg.sender */\n      caller\n        /* \"contracts/AccessControl.sol\":3237:3247  _checkRole */\n      tag_718\n        /* \"contracts/AccessControl.sol\":3237:3267  _checkRole(role, _msgSender()) */\n      jump\t// in\n    tag_716:\n        /* \"contracts/AccessControl.sol\":3171:3274  function _checkRole(bytes32 role) internal view virtual {... */\n      pop\n      jump\t// out\n        /* \"contracts/AccessControl.sol\":6151:6467  function _grantRole(bytes32 role, address account) internal virtual returns (bool) {... */\n    tag_308:\n        /* \"contracts/AccessControl.sol\":6228:6232  bool */\n      0x00\n        /* \"contracts/AccessControl.sol\":6249:6271  hasRole(role, account) */\n      tag_720\n        /* \"contracts/AccessControl.sol\":6257:6261  role */\n      dup4\n        /* \"contracts/AccessControl.sol\":6263:6270  account */\n      dup4\n        /* \"contracts/AccessControl.sol\":6249:6256  hasRole */\n      tag_160\n        /* \"contracts/AccessControl.sol\":6249:6271  hasRole(role, account) */\n      jump\t// in\n    tag_720:\n        /* \"contracts/AccessControl.sol\":6244:6461  if (!hasRole(role, account)) {... */\n      tag_721\n      jumpi\n        /* \"contracts/AccessControl.sol\":6287:6299  _roles[role] */\n      0x00\n      dup4\n      dup2\n      mstore\n        /* \"contracts/AccessControl.sol\":6319:6323  true */\n      0x01\n        /* \"contracts/AccessControl.sol\":6287:6299  _roles[role] */\n      0x20\n      dup2\n      dup2\n      mstore\n      0x40\n      dup1\n      dup5\n      keccak256\n      sub(shl(0xa0, 0x01), 0x01)\n        /* \"contracts/AccessControl.sol\":6287:6316  _roles[role].hasRole[account] */\n      dup8\n      and\n      dup1\n      dup7\n      mstore\n      swap3\n      mstore\n      dup1\n      dup5\n      keccak256\n        /* \"contracts/AccessControl.sol\":6287:6323  _roles[role].hasRole[account] = true */\n      dup1\n      sload\n      not(0xff)\n      and\n      swap1\n      swap4\n      or\n      swap1\n      swap3\n      sstore\n        /* \"contracts/AccessControl.sol\":6342:6382  RoleGranted(role, account, _msgSender()) */\n      swap1\n      mload\n        /* \"contracts/Context.sol\":734:744  msg.sender */\n      caller\n      swap3\n        /* \"contracts/AccessControl.sol\":6287:6299  _roles[role] */\n      dup7\n      swap2\n        /* \"contracts/AccessControl.sol\":6342:6382  RoleGranted(role, account, _msgSender()) */\n      0x2f8788117e7eff1d82e926ec794901d17c78024a50270940304540a733656f0d\n      swap2\n        /* \"contracts/AccessControl.sol\":6287:6299  _roles[role] */\n      swap1\n        /* \"contracts/AccessControl.sol\":6342:6382  RoleGranted(role, account, _msgSender()) */\n      log4\n      pop\n        /* \"contracts/AccessControl.sol\":6403:6407  true */\n      0x01\n        /* \"contracts/AccessControl.sol\":6396:6407  return true */\n      jump(tag_257)\n        /* \"contracts/AccessControl.sol\":6244:6461  if (!hasRole(role, account)) {... */\n    tag_721:\n      pop\n        /* \"contracts/AccessControl.sol\":6445:6450  false */\n      0x00\n        /* \"contracts/AccessControl.sol\":6438:6450  return false */\n      jump(tag_257)\n        /* \"contracts/AccessControl.sol\":5300:5545  function renounceRole(bytes32 role, address callerConfirmation) public virtual {... */\n    tag_318:\n      sub(shl(0xa0, 0x01), 0x01)\n        /* \"contracts/AccessControl.sol\":5393:5427  callerConfirmation != _msgSender() */\n      dup2\n      and\n        /* \"contracts/Context.sol\":734:744  msg.sender */\n      caller\n        /* \"contracts/AccessControl.sol\":5393:5427  callerConfirmation != _msgSender() */\n      eq\n        /* \"contracts/AccessControl.sol\":5389:5491  if (callerConfirmation != _msgSender()) {... */\n      tag_726\n      jumpi\n        /* \"contracts/AccessControl.sol\":5450:5480  AccessControlBadConfirmation() */\n      mload(0x40)\n      shl(0xe1, 0x334bd919)\n      dup2\n      mstore\n      0x04\n      add\n      mload(0x40)\n      dup1\n      swap2\n      sub\n      swap1\n      revert\n        /* \"contracts/AccessControl.sol\":5389:5491  if (callerConfirmation != _msgSender()) {... */\n    tag_726:\n        /* \"contracts/AccessControl.sol\":5501:5538  _revokeRole(role, callerConfirmation) */\n      tag_655\n        /* \"contracts/AccessControl.sol\":5513:5517  role */\n      dup3\n        /* \"contracts/AccessControl.sol\":5519:5537  callerConfirmation */\n      dup3\n        /* \"contracts/AccessControl.sol\":5501:5512  _revokeRole */\n      tag_728\n        /* \"contracts/AccessControl.sol\":5501:5538  _revokeRole(role, callerConfirmation) */\n      jump\t// in\n        /* \"contracts/Pausable.sol\":2426:2543  function _unpause() internal virtual whenPaused {... */\n    tag_326:\n        /* \"contracts/Pausable.sol\":1479:1495  _requirePaused() */\n      tag_730\n        /* \"contracts/Pausable.sol\":1479:1493  _requirePaused */\n      tag_731\n        /* \"contracts/Pausable.sol\":1479:1495  _requirePaused() */\n      jump\t// in\n    tag_730:\n        /* \"contracts/Pausable.sol\":2484:2491  _paused */\n      0x02\n        /* \"contracts/Pausable.sol\":2484:2499  _paused = false */\n      dup1\n      sload\n      not(0xff)\n      and\n      swap1\n      sstore\n        /* \"contracts/Pausable.sol\":2514:2536  Unpaused(_msgSender()) */\n      0x5db9ee0a495bf2e6ff9c91a7834c1ba4fdd244a5e8aa4e537bd38aeae4b073aa\n        /* \"contracts/Context.sol\":734:744  msg.sender */\n      caller\n        /* \"contracts/Pausable.sol\":2523:2535  _msgSender() */\n    tag_733:\n        /* \"contracts/Pausable.sol\":2514:2536  Unpaused(_msgSender()) */\n      mload(0x40)\n      sub(shl(0xa0, 0x01), 0x01)\n        /* \"#utility.yul\":9613:9645   */\n      swap1\n      swap2\n      and\n        /* \"#utility.yul\":9595:9646   */\n      dup2\n      mstore\n        /* \"#utility.yul\":9583:9585   */\n      0x20\n        /* \"#utility.yul\":9568:9586   */\n      add\n        /* \"contracts/Pausable.sol\":2514:2536  Unpaused(_msgSender()) */\n      mload(0x40)\n      dup1\n      swap2\n      sub\n      swap1\n      log1\n        /* \"contracts/Pausable.sol\":2426:2543  function _unpause() internal virtual whenPaused {... */\n      jump\t// out\n        /* \"contracts/Bridge.sol\":6512:6971  function _processTransaction(... */\n    tag_382:\n        /* \"contracts/Bridge.sol\":6700:6721  bytes32 transactionId */\n      0x00\n        /* \"contracts/Bridge.sol\":6724:6866  getTransactionId(... */\n      tag_736\n        /* \"contracts/Bridge.sol\":6754:6763  blockHash */\n      dup7\n        /* \"contracts/Bridge.sol\":6777:6792  transactionHash */\n      dup7\n        /* \"contracts/Bridge.sol\":6806:6814  receiver */\n      dup7\n        /* \"contracts/Bridge.sol\":6828:6834  amount */\n      dup7\n        /* \"contracts/Bridge.sol\":6848:6856  logIndex */\n      dup7\n        /* \"contracts/Bridge.sol\":6724:6740  getTransactionId */\n      tag_225\n        /* \"contracts/Bridge.sol\":6724:6866  getTransactionId(... */\n      jump\t// in\n    tag_736:\n        /* \"contracts/Bridge.sol\":6885:6909  processed[transactionId] */\n      0x00\n      dup2\n      dup2\n      mstore\n        /* \"contracts/Bridge.sol\":6885:6894  processed */\n      0x07\n        /* \"contracts/Bridge.sol\":6885:6909  processed[transactionId] */\n      0x20\n      mstore\n      0x40\n      swap1\n      keccak256\n      sload\n        /* \"contracts/Bridge.sol\":6700:6866  bytes32 transactionId = getTransactionId(... */\n      swap1\n      swap2\n      pop\n        /* \"contracts/Bridge.sol\":6885:6909  processed[transactionId] */\n      0xff\n      and\n        /* \"contracts/Bridge.sol\":6884:6909  !processed[transactionId] */\n      iszero\n        /* \"contracts/Bridge.sol\":6876:6923  require(!processed[transactionId], \"processed\") */\n      tag_737\n      jumpi\n      mload(0x40)\n      shl(0xe5, 0x461bcd)\n      dup2\n      mstore\n        /* \"#utility.yul\":27827:27829   */\n      0x20\n        /* \"contracts/Bridge.sol\":6876:6923  require(!processed[transactionId], \"processed\") */\n      0x04\n      dup3\n      add\n        /* \"#utility.yul\":27809:27830   */\n      mstore\n        /* \"#utility.yul\":27866:27867   */\n      0x09\n        /* \"#utility.yul\":27846:27864   */\n      0x24\n      dup3\n      add\n        /* \"#utility.yul\":27839:27868   */\n      mstore\n      shl(0xba, 0x1c1c9bd8d95cdcd959)\n        /* \"#utility.yul\":27884:27902   */\n      0x44\n      dup3\n      add\n        /* \"#utility.yul\":27877:27916   */\n      mstore\n        /* \"#utility.yul\":27933:27951   */\n      0x64\n      add\n        /* \"contracts/Bridge.sol\":6876:6923  require(!processed[transactionId], \"processed\") */\n      tag_282\n        /* \"#utility.yul\":27625:27957   */\n      jump\n        /* \"contracts/Bridge.sol\":6876:6923  require(!processed[transactionId], \"processed\") */\n    tag_737:\n        /* \"contracts/Bridge.sol\":6933:6957  processed[transactionId] */\n      0x00\n      swap1\n      dup2\n      mstore\n        /* \"contracts/Bridge.sol\":6933:6942  processed */\n      0x07\n        /* \"contracts/Bridge.sol\":6933:6957  processed[transactionId] */\n      0x20\n      mstore\n      0x40\n      swap1\n      keccak256\n        /* \"contracts/Bridge.sol\":6933:6964  processed[transactionId] = true */\n      dup1\n      sload\n      not(0xff)\n      and\n        /* \"contracts/Bridge.sol\":6960:6964  true */\n      0x01\n        /* \"contracts/Bridge.sol\":6933:6964  processed[transactionId] = true */\n      or\n      swap1\n      sstore\n      pop\n      pop\n      pop\n      pop\n      pop\n        /* \"contracts/Bridge.sol\":6512:6971  function _processTransaction(... */\n      jump\t// out\n        /* \"contracts/Bridge.sol\":6977:7637  function _sendToken(address payable to, uint256 amount)... */\n    tag_384:\n        /* \"contracts/Bridge.sol\":7090:7095  token */\n      sload(0x02)\n        /* \"contracts/Bridge.sol\":7066:7070  bool */\n      0x00\n      swap1\n        /* \"contracts/Bridge.sol\":7090:7095  token */\n      0x0100\n      swap1\n      div\n      sub(shl(0xa0, 0x01), 0x01)\n      and\n        /* \"contracts/Bridge.sol\":7086:7610  if (token == ZERO_ADDRESS) {... */\n      tag_741\n      jumpi\n        /* \"contracts/Bridge.sol\":7177:7183  amount */\n      dup2\n        /* \"contracts/Bridge.sol\":7152:7173  address(this).balance */\n      selfbalance\n        /* \"contracts/Bridge.sol\":7152:7183  address(this).balance >= amount */\n      lt\n      iszero\n        /* \"contracts/Bridge.sol\":7127:7262  require(... */\n      tag_742\n      jumpi\n      mload(0x40)\n      shl(0xe5, 0x461bcd)\n      dup2\n      mstore\n      0x04\n      add\n      tag_282\n      swap1\n      tag_621\n      jump\t// in\n    tag_742:\n        /* \"contracts/Bridge.sol\":7346:7348  to */\n      dup3\n        /* \"contracts/Bridge.sol\":7363:7389  reciever.sendValue(amount) */\n      tag_744\n      sub(shl(0xa0, 0x01), 0x01)\n        /* \"contracts/Bridge.sol\":7363:7381  reciever.sendValue */\n      dup3\n      and\n        /* \"contracts/Bridge.sol\":7382:7388  amount */\n      dup5\n        /* \"contracts/Bridge.sol\":7363:7381  reciever.sendValue */\n      tag_516\n        /* \"contracts/Bridge.sol\":7363:7389  reciever.sendValue(amount) */\n      jump\t// in\n    tag_744:\n        /* \"contracts/Bridge.sol\":7113:7400  {... */\n      pop\n        /* \"contracts/Bridge.sol\":7086:7610  if (token == ZERO_ADDRESS) {... */\n      jump(tag_618)\n    tag_741:\n        /* \"contracts/Bridge.sol\":7452:7457  token */\n      sload(0x02)\n        /* \"contracts/Bridge.sol\":7445:7483  IERC20(token).balanceOf(address(this)) */\n      mload(0x40)\n      shl(0xe0, 0x70a08231)\n      dup2\n      mstore\n        /* \"contracts/Bridge.sol\":7477:7481  this */\n      address\n        /* \"contracts/Bridge.sol\":7445:7483  IERC20(token).balanceOf(address(this)) */\n      0x04\n      dup3\n      add\n        /* \"#utility.yul\":9595:9646   */\n      mstore\n        /* \"contracts/Bridge.sol\":7487:7493  amount */\n      dup4\n      swap2\n        /* \"contracts/Bridge.sol\":7452:7457  token */\n      0x0100\n      swap1\n      div\n      sub(shl(0xa0, 0x01), 0x01)\n      and\n      swap1\n        /* \"contracts/Bridge.sol\":7445:7468  IERC20(token).balanceOf */\n      0x70a08231\n      swap1\n        /* \"#utility.yul\":9568:9586   */\n      0x24\n      add\n        /* \"contracts/Bridge.sol\":7445:7483  IERC20(token).balanceOf(address(this)) */\n      0x20\n      mload(0x40)\n      dup1\n      dup4\n      sub\n      dup2\n      dup7\n      gas\n      staticcall\n      iszero\n      dup1\n      iszero\n      tag_748\n      jumpi\n      returndatasize\n      0x00\n      dup1\n      returndatacopy\n      revert(0x00, returndatasize)\n    tag_748:\n      pop\n      pop\n      pop\n      pop\n      mload(0x40)\n      returndatasize\n      not(0x1f)\n      0x1f\n      dup3\n      add\n      and\n      dup3\n      add\n      dup1\n      0x40\n      mstore\n      pop\n      dup2\n      add\n      swap1\n      tag_749\n      swap2\n      swap1\n      tag_391\n      jump\t// in\n    tag_749:\n        /* \"contracts/Bridge.sol\":7445:7493  IERC20(token).balanceOf(address(this)) >= amount */\n      lt\n      iszero\n        /* \"contracts/Bridge.sol\":7420:7547  require(... */\n      tag_750\n      jumpi\n      mload(0x40)\n      shl(0xe5, 0x461bcd)\n      dup2\n      mstore\n        /* \"#utility.yul\":28164:28166   */\n      0x20\n        /* \"contracts/Bridge.sol\":7420:7547  require(... */\n      0x04\n      dup3\n      add\n        /* \"#utility.yul\":28146:28167   */\n      mstore\n        /* \"#utility.yul\":28203:28205   */\n      0x14\n        /* \"#utility.yul\":28183:28201   */\n      0x24\n      dup3\n      add\n        /* \"#utility.yul\":28176:28206   */\n      mstore\n      shl(0x60, 0x696e73756666696369656e742062616c616e6365)\n        /* \"#utility.yul\":28222:28240   */\n      0x44\n      dup3\n      add\n        /* \"#utility.yul\":28215:28265   */\n      mstore\n        /* \"#utility.yul\":28282:28300   */\n      0x64\n      add\n        /* \"contracts/Bridge.sol\":7420:7547  require(... */\n      tag_282\n        /* \"#utility.yul\":27962:28306   */\n      jump\n        /* \"contracts/Bridge.sol\":7420:7547  require(... */\n    tag_750:\n        /* \"contracts/Bridge.sol\":7568:7573  token */\n      sload(0x02)\n        /* \"contracts/Bridge.sol\":7561:7599  IERC20(token).safeTransfer(to, amount) */\n      tag_618\n      swap1\n        /* \"contracts/Bridge.sol\":7568:7573  token */\n      0x0100\n      swap1\n      div\n      sub(shl(0xa0, 0x01), 0x01)\n      and\n        /* \"contracts/Bridge.sol\":7588:7590  to */\n      dup5\n        /* \"contracts/Bridge.sol\":7592:7598  amount */\n      dup5\n        /* \"contracts/Bridge.sol\":7561:7587  IERC20(token).safeTransfer */\n      tag_617\n        /* \"contracts/Bridge.sol\":7561:7599  IERC20(token).safeTransfer(to, amount) */\n      jump\t// in\n        /* \"contracts/Pausable.sol\":2179:2294  function _pause() internal virtual whenNotPaused {... */\n    tag_399:\n        /* \"contracts/Pausable.sol\":1232:1251  _requireNotPaused() */\n      tag_755\n        /* \"contracts/Pausable.sol\":1232:1249  _requireNotPaused */\n      tag_286\n        /* \"contracts/Pausable.sol\":1232:1251  _requireNotPaused() */\n      jump\t// in\n    tag_755:\n        /* \"contracts/Pausable.sol\":2238:2245  _paused */\n      0x02\n        /* \"contracts/Pausable.sol\":2238:2252  _paused = true */\n      dup1\n      sload\n      not(0xff)\n      and\n        /* \"contracts/Pausable.sol\":2248:2252  true */\n      0x01\n        /* \"contracts/Pausable.sol\":2238:2252  _paused = true */\n      or\n      swap1\n      sstore\n        /* \"contracts/Pausable.sol\":2267:2287  Paused(_msgSender()) */\n      0x62e78cea01bee320cd4e420270b5ea74000d11b0c9f74754ebdbfc544b05a258\n        /* \"contracts/Pausable.sol\":2274:2286  _msgSender() */\n      tag_733\n        /* \"contracts/Context.sol\":734:744  msg.sender */\n      caller\n      swap1\n        /* \"contracts/Context.sol\":655:751  function _msgSender() internal view virtual returns (address) {... */\n      jump\n        /* \"contracts/Bridge.sol\":1775:1995  function compareStrings(string memory a, string memory b)... */\n    tag_482:\n        /* \"contracts/Bridge.sol\":1879:1883  bool */\n      0x00\n        /* \"contracts/Bridge.sol\":1983:1984  b */\n      dup2\n        /* \"contracts/Bridge.sol\":1965:1986  abi.encodePacked((b)) */\n      add(0x20, mload(0x40))\n      tag_760\n      swap2\n      swap1\n      tag_269\n      jump\t// in\n    tag_760:\n      mload(0x40)\n      0x20\n      dup2\n      dup4\n      sub\n      sub\n      dup2\n      mstore\n      swap1\n      0x40\n      mstore\n        /* \"contracts/Bridge.sol\":1955:1987  keccak256(abi.encodePacked((b))) */\n      dup1\n      mload\n      swap1\n      0x20\n      add\n      keccak256\n        /* \"contracts/Bridge.sol\":1935:1936  a */\n      dup4\n        /* \"contracts/Bridge.sol\":1917:1938  abi.encodePacked((a)) */\n      add(0x20, mload(0x40))\n      tag_761\n      swap2\n      swap1\n      tag_269\n      jump\t// in\n    tag_761:\n      mload(0x40)\n      0x20\n      dup2\n      dup4\n      sub\n      sub\n      dup2\n      mstore\n      swap1\n      0x40\n      mstore\n        /* \"contracts/Bridge.sol\":1907:1939  keccak256(abi.encodePacked((a))) */\n      dup1\n      mload\n      swap1\n      0x20\n      add\n      keccak256\n        /* \"contracts/Bridge.sol\":1907:1987  keccak256(abi.encodePacked((a))) ==... */\n      eq\n        /* \"contracts/Bridge.sol\":1899:1988  return (keccak256(abi.encodePacked((a))) ==... */\n      swap1\n      pop\n        /* \"contracts/Bridge.sol\":1775:1995  function compareStrings(string memory a, string memory b)... */\n      swap3\n      swap2\n      pop\n      pop\n      jump\t// out\n        /* \"@openzeppelin/contracts/utils/Address.sol\":1531:1862  function sendValue(address payable recipient, uint256 amount) internal {... */\n    tag_516:\n        /* \"@openzeppelin/contracts/utils/Address.sol\":1640:1646  amount */\n      dup1\n        /* \"@openzeppelin/contracts/utils/Address.sol\":1616:1637  address(this).balance */\n      selfbalance\n        /* \"@openzeppelin/contracts/utils/Address.sol\":1616:1646  address(this).balance < amount */\n      lt\n        /* \"@openzeppelin/contracts/utils/Address.sol\":1612:1721  if (address(this).balance < amount) {... */\n      iszero\n      tag_763\n      jumpi\n        /* \"@openzeppelin/contracts/utils/Address.sol\":1669:1710  AddressInsufficientBalance(address(this)) */\n      mload(0x40)\n      shl(0xe0, 0xcd786059)\n      dup2\n      mstore\n        /* \"@openzeppelin/contracts/utils/Address.sol\":1704:1708  this */\n      address\n        /* \"@openzeppelin/contracts/utils/Address.sol\":1669:1710  AddressInsufficientBalance(address(this)) */\n      0x04\n      dup3\n      add\n        /* \"#utility.yul\":9595:9646   */\n      mstore\n        /* \"#utility.yul\":9568:9586   */\n      0x24\n      add\n        /* \"@openzeppelin/contracts/utils/Address.sol\":1669:1710  AddressInsufficientBalance(address(this)) */\n      tag_282\n        /* \"#utility.yul\":9449:9652   */\n      jump\n        /* \"@openzeppelin/contracts/utils/Address.sol\":1612:1721  if (address(this).balance < amount) {... */\n    tag_763:\n        /* \"@openzeppelin/contracts/utils/Address.sol\":1732:1744  bool success */\n      0x00\n        /* \"@openzeppelin/contracts/utils/Address.sol\":1750:1759  recipient */\n      dup3\n      sub(shl(0xa0, 0x01), 0x01)\n        /* \"@openzeppelin/contracts/utils/Address.sol\":1750:1764  recipient.call */\n      and\n        /* \"@openzeppelin/contracts/utils/Address.sol\":1772:1778  amount */\n      dup3\n        /* \"@openzeppelin/contracts/utils/Address.sol\":1750:1783  recipient.call{value: amount}(\"\") */\n      mload(0x40)\n      0x00\n      mload(0x40)\n      dup1\n      dup4\n      sub\n      dup2\n      dup6\n      dup8\n      gas\n      call\n      swap3\n      pop\n      pop\n      pop\n      returndatasize\n      dup1\n      0x00\n      dup2\n      eq\n      tag_769\n      jumpi\n      mload(0x40)\n      swap2\n      pop\n      and(add(returndatasize, 0x3f), not(0x1f))\n      dup3\n      add\n      0x40\n      mstore\n      returndatasize\n      dup3\n      mstore\n      returndatasize\n      0x00\n      0x20\n      dup5\n      add\n      returndatacopy\n      jump(tag_768)\n    tag_769:\n      0x60\n      swap2\n      pop\n    tag_768:\n      pop\n        /* \"@openzeppelin/contracts/utils/Address.sol\":1731:1783  (bool success, ) = recipient.call{value: amount}(\"\") */\n      pop\n      swap1\n      pop\n        /* \"@openzeppelin/contracts/utils/Address.sol\":1798:1805  success */\n      dup1\n        /* \"@openzeppelin/contracts/utils/Address.sol\":1793:1856  if (!success) {... */\n      tag_655\n      jumpi\n        /* \"@openzeppelin/contracts/utils/Address.sol\":1828:1845  FailedInnerCall() */\n      mload(0x40)\n      shl(0xe1, 0x0a12f521)\n      dup2\n      mstore\n      0x04\n      add\n      mload(0x40)\n      dup1\n      swap2\n      sub\n      swap1\n      revert\n        /* \"@openzeppelin/contracts/token/ERC20/utils/SafeERC20.sol\":1702:1890  function safeTransferFrom(IERC20 token, address from, address to, uint256 value) internal {... */\n    tag_520:\n        /* \"@openzeppelin/contracts/token/ERC20/utils/SafeERC20.sol\":1829:1882  abi.encodeCall(token.transferFrom, (from, to, value)) */\n      mload(0x40)\n      sub(shl(0xa0, 0x01), 0x01)\n        /* \"#utility.yul\":28741:28773   */\n      dup5\n      dup2\n      and\n        /* \"@openzeppelin/contracts/token/ERC20/utils/SafeERC20.sol\":1829:1882  abi.encodeCall(token.transferFrom, (from, to, value)) */\n      0x24\n      dup4\n      add\n        /* \"#utility.yul\":28723:28774   */\n      mstore\n        /* \"#utility.yul\":28810:28842   */\n      dup4\n      dup2\n      and\n        /* \"#utility.yul\":28790:28808   */\n      0x44\n      dup4\n      add\n        /* \"#utility.yul\":28783:28843   */\n      mstore\n        /* \"#utility.yul\":28859:28877   */\n      0x64\n      dup3\n      add\n        /* \"#utility.yul\":28852:28886   */\n      dup4\n      swap1\n      mstore\n        /* \"@openzeppelin/contracts/token/ERC20/utils/SafeERC20.sol\":1802:1883  _callOptionalReturn(token, abi.encodeCall(token.transferFrom, (from, to, value))) */\n      tag_307\n      swap2\n        /* \"@openzeppelin/contracts/token/ERC20/utils/SafeERC20.sol\":1822:1827  token */\n      dup7\n      swap2\n        /* \"@openzeppelin/contracts/token/ERC20/utils/SafeERC20.sol\":1844:1862  token.transferFrom */\n      dup3\n      and\n      swap1\n      0x23b872dd\n      swap1\n        /* \"#utility.yul\":28696:28714   */\n      0x84\n      add\n        /* \"@openzeppelin/contracts/token/ERC20/utils/SafeERC20.sol\":1829:1882  abi.encodeCall(token.transferFrom, (from, to, value)) */\n    tag_773:\n      mload(0x40)\n      0x20\n      dup2\n      dup4\n      sub\n      sub\n      dup2\n      mstore\n      swap1\n      0x40\n      mstore\n      swap2\n      pop\n      0xe0\n      shl\n      0x20\n      dup3\n      add\n      dup1\n      mload\n      sub(shl(0xe0, 0x01), 0x01)\n      dup4\n      dup2\n      dup4\n      and\n      or\n      dup4\n      mstore\n      pop\n      pop\n      pop\n      pop\n        /* \"@openzeppelin/contracts/token/ERC20/utils/SafeERC20.sol\":1802:1821  _callOptionalReturn */\n      tag_775\n        /* \"@openzeppelin/contracts/token/ERC20/utils/SafeERC20.sol\":1802:1883  _callOptionalReturn(token, abi.encodeCall(token.transferFrom, (from, to, value))) */\n      jump\t// in\n        /* \"@openzeppelin/contracts/token/ERC20/utils/SafeERC20.sol\":1303:1463  function safeTransfer(IERC20 token, address to, uint256 value) internal {... */\n    tag_617:\n        /* \"@openzeppelin/contracts/token/ERC20/utils/SafeERC20.sol\":1412:1455  abi.encodeCall(token.transfer, (to, value)) */\n      mload(0x40)\n      sub(shl(0xa0, 0x01), 0x01)\n        /* \"#utility.yul\":29089:29121   */\n      dup4\n      dup2\n      and\n        /* \"@openzeppelin/contracts/token/ERC20/utils/SafeERC20.sol\":1412:1455  abi.encodeCall(token.transfer, (to, value)) */\n      0x24\n      dup4\n      add\n        /* \"#utility.yul\":29071:29122   */\n      mstore\n        /* \"#utility.yul\":29138:29156   */\n      0x44\n      dup3\n      add\n        /* \"#utility.yul\":29131:29165   */\n      dup4\n      swap1\n      mstore\n        /* \"@openzeppelin/contracts/token/ERC20/utils/SafeERC20.sol\":1385:1456  _callOptionalReturn(token, abi.encodeCall(token.transfer, (to, value))) */\n      tag_655\n      swap2\n        /* \"@openzeppelin/contracts/token/ERC20/utils/SafeERC20.sol\":1405:1410  token */\n      dup6\n      swap2\n        /* \"@openzeppelin/contracts/token/ERC20/utils/SafeERC20.sol\":1427:1441  token.transfer */\n      dup3\n      and\n      swap1\n      0xa9059cbb\n      swap1\n        /* \"#utility.yul\":29044:29062   */\n      0x64\n      add\n        /* \"@openzeppelin/contracts/token/ERC20/utils/SafeERC20.sol\":1412:1455  abi.encodeCall(token.transfer, (to, value)) */\n      tag_773\n        /* \"#utility.yul\":28897:29171   */\n      jump\n        /* \"contracts/AccessControl.sol\":4614:4752  function revokeRole(bytes32 role, address account) public virtual onlyRole(getRoleAdmin(role)) {... */\n    tag_656:\n        /* \"contracts/AccessControl.sol\":3847:3854  bytes32 */\n      0x00\n        /* \"contracts/AccessControl.sol\":3873:3885  _roles[role] */\n      dup3\n      dup2\n      mstore\n        /* \"contracts/AccessControl.sol\":3873:3879  _roles */\n      0x01\n        /* \"contracts/AccessControl.sol\":3873:3885  _roles[role] */\n      0x20\n      dup2\n      swap1\n      mstore\n      0x40\n      swap1\n      swap2\n      keccak256\n        /* \"contracts/AccessControl.sol\":3873:3895  _roles[role].adminRole */\n      add\n      sload\n        /* \"contracts/AccessControl.sol\":2436:2452  _checkRole(role) */\n      tag_782\n        /* \"contracts/AccessControl.sol\":2447:2451  role */\n      dup2\n        /* \"contracts/AccessControl.sol\":2436:2446  _checkRole */\n      tag_305\n        /* \"contracts/AccessControl.sol\":2436:2452  _checkRole(role) */\n      jump\t// in\n    tag_782:\n        /* \"contracts/AccessControl.sol\":4719:4745  _revokeRole(role, account) */\n      tag_307\n        /* \"contracts/AccessControl.sol\":4731:4735  role */\n      dup4\n        /* \"contracts/AccessControl.sol\":4737:4744  account */\n      dup4\n        /* \"contracts/AccessControl.sol\":4719:4730  _revokeRole */\n      tag_728\n        /* \"contracts/AccessControl.sol\":4719:4745  _revokeRole(role, account) */\n      jump\t// in\n        /* \"contracts/AccessControl.sol\":3404:3601  function _checkRole(bytes32 role, address account) internal view virtual {... */\n    tag_718:\n        /* \"contracts/AccessControl.sol\":3492:3514  hasRole(role, account) */\n      tag_786\n        /* \"contracts/AccessControl.sol\":3500:3504  role */\n      dup3\n        /* \"contracts/AccessControl.sol\":3506:3513  account */\n      dup3\n        /* \"contracts/AccessControl.sol\":3492:3499  hasRole */\n      tag_160\n        /* \"contracts/AccessControl.sol\":3492:3514  hasRole(role, account) */\n      jump\t// in\n    tag_786:\n        /* \"contracts/AccessControl.sol\":3487:3595  if (!hasRole(role, account)) {... */\n      tag_317\n      jumpi\n        /* \"contracts/AccessControl.sol\":3537:3584  AccessControlUnauthorizedAccount(account, role) */\n      mload(0x40)\n      shl(0xe0, 0xe2517d3f)\n      dup2\n      mstore\n      sub(shl(0xa0, 0x01), 0x01)\n        /* \"#utility.yul\":29089:29121   */\n      dup3\n      and\n        /* \"contracts/AccessControl.sol\":3537:3584  AccessControlUnauthorizedAccount(account, role) */\n      0x04\n      dup3\n      add\n        /* \"#utility.yul\":29071:29122   */\n      mstore\n        /* \"#utility.yul\":29138:29156   */\n      0x24\n      dup2\n      add\n        /* \"#utility.yul\":29131:29165   */\n      dup4\n      swap1\n      mstore\n        /* \"#utility.yul\":29044:29062   */\n      0x44\n      add\n        /* \"contracts/AccessControl.sol\":3537:3584  AccessControlUnauthorizedAccount(account, role) */\n      tag_282\n        /* \"#utility.yul\":28897:29171   */\n      jump\n        /* \"contracts/AccessControl.sol\":6702:7019  function _revokeRole(bytes32 role, address account) internal virtual returns (bool) {... */\n    tag_728:\n        /* \"contracts/AccessControl.sol\":6780:6784  bool */\n      0x00\n        /* \"contracts/AccessControl.sol\":6800:6822  hasRole(role, account) */\n      tag_791\n        /* \"contracts/AccessControl.sol\":6808:6812  role */\n      dup4\n        /* \"contracts/AccessControl.sol\":6814:6821  account */\n      dup4\n        /* \"contracts/AccessControl.sol\":6800:6807  hasRole */\n      tag_160\n        /* \"contracts/AccessControl.sol\":6800:6822  hasRole(role, account) */\n      jump\t// in\n    tag_791:\n        /* \"contracts/AccessControl.sol\":6796:7013  if (hasRole(role, account)) {... */\n      iszero\n      tag_721\n      jumpi\n        /* \"contracts/AccessControl.sol\":6870:6875  false */\n      0x00\n        /* \"contracts/AccessControl.sol\":6838:6850  _roles[role] */\n      dup4\n      dup2\n      mstore\n        /* \"contracts/AccessControl.sol\":6838:6844  _roles */\n      0x01\n        /* \"contracts/AccessControl.sol\":6838:6850  _roles[role] */\n      0x20\n      swap1\n      dup2\n      mstore\n      0x40\n      dup1\n      dup4\n      keccak256\n      sub(shl(0xa0, 0x01), 0x01)\n        /* \"contracts/AccessControl.sol\":6838:6867  _roles[role].hasRole[account] */\n      dup7\n      and\n      dup1\n      dup6\n      mstore\n      swap3\n      mstore\n      dup1\n      dup4\n      keccak256\n        /* \"contracts/AccessControl.sol\":6838:6875  _roles[role].hasRole[account] = false */\n      dup1\n      sload\n      not(0xff)\n      and\n      swap1\n      sstore\n        /* \"contracts/AccessControl.sol\":6894:6934  RoleRevoked(role, account, _msgSender()) */\n      mload\n        /* \"contracts/Context.sol\":734:744  msg.sender */\n      caller\n      swap3\n        /* \"contracts/AccessControl.sol\":6838:6850  _roles[role] */\n      dup7\n      swap2\n        /* \"contracts/AccessControl.sol\":6894:6934  RoleRevoked(role, account, _msgSender()) */\n      0xf6391f5c32d9c69d2a47ea670b442974b53935d1edc7fd64eb21e047a839171b\n      swap2\n        /* \"contracts/AccessControl.sol\":6870:6875  false */\n      swap1\n        /* \"contracts/AccessControl.sol\":6894:6934  RoleRevoked(role, account, _msgSender()) */\n      log4\n      pop\n        /* \"contracts/AccessControl.sol\":6955:6959  true */\n      0x01\n        /* \"contracts/AccessControl.sol\":6948:6959  return true */\n      jump(tag_257)\n        /* \"contracts/Pausable.sol\":1938:2044  function _requirePaused() internal view virtual {... */\n    tag_731:\n        /* \"contracts/Pausable.sol\":1678:1685  _paused */\n      and(0xff, sload(0x02))\n        /* \"contracts/Pausable.sol\":1996:2037  require(paused(), \"Pausable: not paused\") */\n      tag_325\n      jumpi\n      mload(0x40)\n      shl(0xe5, 0x461bcd)\n      dup2\n      mstore\n        /* \"#utility.yul\":29657:29659   */\n      0x20\n        /* \"contracts/Pausable.sol\":1996:2037  require(paused(), \"Pausable: not paused\") */\n      0x04\n      dup3\n      add\n        /* \"#utility.yul\":29639:29660   */\n      mstore\n        /* \"#utility.yul\":29696:29698   */\n      0x14\n        /* \"#utility.yul\":29676:29694   */\n      0x24\n      dup3\n      add\n        /* \"#utility.yul\":29669:29699   */\n      mstore\n      shl(0x62, 0x14185d5cd8589b194e881b9bdd081c185d5cd959)\n        /* \"#utility.yul\":29715:29733   */\n      0x44\n      dup3\n      add\n        /* \"#utility.yul\":29708:29758   */\n      mstore\n        /* \"#utility.yul\":29775:29793   */\n      0x64\n      add\n        /* \"contracts/Pausable.sol\":1996:2037  require(paused(), \"Pausable: not paused\") */\n      tag_282\n        /* \"#utility.yul\":29455:29799   */\n      jump\n        /* \"@openzeppelin/contracts/token/ERC20/utils/SafeERC20.sol\":4059:4688  function _callOptionalReturn(IERC20 token, bytes memory data) private {... */\n    tag_775:\n        /* \"@openzeppelin/contracts/token/ERC20/utils/SafeERC20.sol\":4478:4501  bytes memory returndata */\n      0x00\n        /* \"@openzeppelin/contracts/token/ERC20/utils/SafeERC20.sol\":4504:4537  address(token).functionCall(data) */\n      tag_801\n      sub(shl(0xa0, 0x01), 0x01)\n        /* \"@openzeppelin/contracts/token/ERC20/utils/SafeERC20.sol\":4504:4531  address(token).functionCall */\n      dup5\n      and\n        /* \"@openzeppelin/contracts/token/ERC20/utils/SafeERC20.sol\":4532:4536  data */\n      dup4\n        /* \"@openzeppelin/contracts/token/ERC20/utils/SafeERC20.sol\":4504:4531  address(token).functionCall */\n      tag_802\n        /* \"@openzeppelin/contracts/token/ERC20/utils/SafeERC20.sol\":4504:4537  address(token).functionCall(data) */\n      jump\t// in\n    tag_801:\n        /* \"@openzeppelin/contracts/token/ERC20/utils/SafeERC20.sol\":4478:4537  bytes memory returndata = address(token).functionCall(data) */\n      swap1\n      pop\n        /* \"@openzeppelin/contracts/token/ERC20/utils/SafeERC20.sol\":4551:4561  returndata */\n      dup1\n        /* \"@openzeppelin/contracts/token/ERC20/utils/SafeERC20.sol\":4551:4568  returndata.length */\n      mload\n        /* \"@openzeppelin/contracts/token/ERC20/utils/SafeERC20.sol\":4572:4573  0 */\n      0x00\n        /* \"@openzeppelin/contracts/token/ERC20/utils/SafeERC20.sol\":4551:4573  returndata.length != 0 */\n      eq\n      iszero\n        /* \"@openzeppelin/contracts/token/ERC20/utils/SafeERC20.sol\":4551:4608  returndata.length != 0 && !abi.decode(returndata, (bool)) */\n      dup1\n      iszero\n      tag_803\n      jumpi\n      pop\n        /* \"@openzeppelin/contracts/token/ERC20/utils/SafeERC20.sol\":4589:4599  returndata */\n      dup1\n        /* \"@openzeppelin/contracts/token/ERC20/utils/SafeERC20.sol\":4578:4608  abi.decode(returndata, (bool)) */\n      dup1\n      0x20\n      add\n      swap1\n      mload\n      dup2\n      add\n      swap1\n      tag_804\n      swap2\n      swap1\n      tag_805\n      jump\t// in\n    tag_804:\n        /* \"@openzeppelin/contracts/token/ERC20/utils/SafeERC20.sol\":4577:4608  !abi.decode(returndata, (bool)) */\n      iszero\n        /* \"@openzeppelin/contracts/token/ERC20/utils/SafeERC20.sol\":4551:4608  returndata.length != 0 && !abi.decode(returndata, (bool)) */\n    tag_803:\n        /* \"@openzeppelin/contracts/token/ERC20/utils/SafeERC20.sol\":4547:4682  if (returndata.length != 0 && !abi.decode(returndata, (bool))) {... */\n      iszero\n      tag_655\n      jumpi\n        /* \"@openzeppelin/contracts/token/ERC20/utils/SafeERC20.sol\":4631:4671  SafeERC20FailedOperation(address(token)) */\n      mload(0x40)\n      shl(0xe0, 0x5274afe7)\n      dup2\n      mstore\n      sub(shl(0xa0, 0x01), 0x01)\n        /* \"#utility.yul\":9613:9645   */\n      dup5\n      and\n        /* \"@openzeppelin/contracts/token/ERC20/utils/SafeERC20.sol\":4631:4671  SafeERC20FailedOperation(address(token)) */\n      0x04\n      dup3\n      add\n        /* \"#utility.yul\":9595:9646   */\n      mstore\n        /* \"#utility.yul\":9568:9586   */\n      0x24\n      add\n        /* \"@openzeppelin/contracts/token/ERC20/utils/SafeERC20.sol\":4631:4671  SafeERC20FailedOperation(address(token)) */\n      tag_282\n        /* \"#utility.yul\":9449:9652   */\n      jump\n        /* \"@openzeppelin/contracts/utils/Address.sol\":2705:2856  function functionCall(address target, bytes memory data) internal returns (bytes memory) {... */\n    tag_802:\n        /* \"@openzeppelin/contracts/utils/Address.sol\":2780:2792  bytes memory */\n      0x60\n        /* \"@openzeppelin/contracts/utils/Address.sol\":2811:2849  functionCallWithValue(target, data, 0) */\n      tag_809\n        /* \"@openzeppelin/contracts/utils/Address.sol\":2833:2839  target */\n      dup4\n        /* \"@openzeppelin/contracts/utils/Address.sol\":2841:2845  data */\n      dup4\n        /* \"@openzeppelin/contracts/utils/Address.sol\":2847:2848  0 */\n      0x00\n        /* \"@openzeppelin/contracts/utils/Address.sol\":2811:2832  functionCallWithValue */\n      tag_810\n        /* \"@openzeppelin/contracts/utils/Address.sol\":2811:2849  functionCallWithValue(target, data, 0) */\n      jump\t// in\n    tag_809:\n        /* \"@openzeppelin/contracts/utils/Address.sol\":2804:2849  return functionCallWithValue(target, data, 0) */\n      swap4\n        /* \"@openzeppelin/contracts/utils/Address.sol\":2705:2856  function functionCall(address target, bytes memory data) internal returns (bytes memory) {... */\n      swap3\n      pop\n      pop\n      pop\n      jump\t// out\n        /* \"@openzeppelin/contracts/utils/Address.sol\":3180:3572  function functionCallWithValue(address target, bytes memory data, uint256 value) internal returns (bytes memory) {... */\n    tag_810:\n        /* \"@openzeppelin/contracts/utils/Address.sol\":3279:3291  bytes memory */\n      0x60\n        /* \"@openzeppelin/contracts/utils/Address.sol\":3331:3336  value */\n      dup2\n        /* \"@openzeppelin/contracts/utils/Address.sol\":3307:3328  address(this).balance */\n      selfbalance\n        /* \"@openzeppelin/contracts/utils/Address.sol\":3307:3336  address(this).balance < value */\n      lt\n        /* \"@openzeppelin/contracts/utils/Address.sol\":3303:3411  if (address(this).balance < value) {... */\n      iszero\n      tag_812\n      jumpi\n        /* \"@openzeppelin/contracts/utils/Address.sol\":3359:3400  AddressInsufficientBalance(address(this)) */\n      mload(0x40)\n      shl(0xe0, 0xcd786059)\n      dup2\n      mstore\n        /* \"@openzeppelin/contracts/utils/Address.sol\":3394:3398  this */\n      address\n        /* \"@openzeppelin/contracts/utils/Address.sol\":3359:3400  AddressInsufficientBalance(address(this)) */\n      0x04\n      dup3\n      add\n        /* \"#utility.yul\":9595:9646   */\n      mstore\n        /* \"#utility.yul\":9568:9586   */\n      0x24\n      add\n        /* \"@openzeppelin/contracts/utils/Address.sol\":3359:3400  AddressInsufficientBalance(address(this)) */\n      tag_282\n        /* \"#utility.yul\":9449:9652   */\n      jump\n        /* \"@openzeppelin/contracts/utils/Address.sol\":3303:3411  if (address(this).balance < value) {... */\n    tag_812:\n        /* \"@openzeppelin/contracts/utils/Address.sol\":3421:3433  bool success */\n      0x00\n        /* \"@openzeppelin/contracts/utils/Address.sol\":3435:3458  bytes memory returndata */\n      dup1\n        /* \"@openzeppelin/contracts/utils/Address.sol\":3462:3468  target */\n      dup6\n      sub(shl(0xa0, 0x01), 0x01)\n        /* \"@openzeppelin/contracts/utils/Address.sol\":3462:3473  target.call */\n      and\n        /* \"@openzeppelin/contracts/utils/Address.sol\":3481:3486  value */\n      dup5\n        /* \"@openzeppelin/contracts/utils/Address.sol\":3488:3492  data */\n      dup7\n        /* \"@openzeppelin/contracts/utils/Address.sol\":3462:3493  target.call{value: value}(data) */\n      mload(0x40)\n      tag_814\n      swap2\n      swap1\n      tag_269\n      jump\t// in\n    tag_814:\n      0x00\n      mload(0x40)\n      dup1\n      dup4\n      sub\n      dup2\n      dup6\n      dup8\n      gas\n      call\n      swap3\n      pop\n      pop\n      pop\n      returndatasize\n      dup1\n      0x00\n      dup2\n      eq\n      tag_818\n      jumpi\n      mload(0x40)\n      swap2\n      pop\n      and(add(returndatasize, 0x3f), not(0x1f))\n      dup3\n      add\n      0x40\n      mstore\n      returndatasize\n      dup3\n      mstore\n      returndatasize\n      0x00\n      0x20\n      dup5\n      add\n      returndatacopy\n      jump(tag_817)\n    tag_818:\n      0x60\n      swap2\n      pop\n    tag_817:\n      pop\n        /* \"@openzeppelin/contracts/utils/Address.sol\":3420:3493  (bool success, bytes memory returndata) = target.call{value: value}(data) */\n      swap2\n      pop\n      swap2\n      pop\n        /* \"@openzeppelin/contracts/utils/Address.sol\":3510:3565  verifyCallResultFromTarget(target, success, returndata) */\n      tag_819\n        /* \"@openzeppelin/contracts/utils/Address.sol\":3537:3543  target */\n      dup7\n        /* \"@openzeppelin/contracts/utils/Address.sol\":3545:3552  success */\n      dup4\n        /* \"@openzeppelin/contracts/utils/Address.sol\":3554:3564  returndata */\n      dup4\n        /* \"@openzeppelin/contracts/utils/Address.sol\":3510:3536  verifyCallResultFromTarget */\n      tag_820\n        /* \"@openzeppelin/contracts/utils/Address.sol\":3510:3565  verifyCallResultFromTarget(target, success, returndata) */\n      jump\t// in\n    tag_819:\n        /* \"@openzeppelin/contracts/utils/Address.sol\":3503:3565  return verifyCallResultFromTarget(target, success, returndata) */\n      swap7\n        /* \"@openzeppelin/contracts/utils/Address.sol\":3180:3572  function functionCallWithValue(address target, bytes memory data, uint256 value) internal returns (bytes memory) {... */\n      swap6\n      pop\n      pop\n      pop\n      pop\n      pop\n      pop\n      jump\t// out\n        /* \"@openzeppelin/contracts/utils/Address.sol\":4625:5207  function verifyCallResultFromTarget(... */\n    tag_820:\n        /* \"@openzeppelin/contracts/utils/Address.sol\":4769:4781  bytes memory */\n      0x60\n        /* \"@openzeppelin/contracts/utils/Address.sol\":4798:4805  success */\n      dup3\n        /* \"@openzeppelin/contracts/utils/Address.sol\":4793:5201  if (!success) {... */\n      tag_822\n      jumpi\n        /* \"@openzeppelin/contracts/utils/Address.sol\":4821:4840  _revert(returndata) */\n      tag_823\n        /* \"@openzeppelin/contracts/utils/Address.sol\":4829:4839  returndata */\n      dup3\n        /* \"@openzeppelin/contracts/utils/Address.sol\":4821:4828  _revert */\n      tag_824\n        /* \"@openzeppelin/contracts/utils/Address.sol\":4821:4840  _revert(returndata) */\n      jump\t// in\n    tag_823:\n        /* \"@openzeppelin/contracts/utils/Address.sol\":4793:5201  if (!success) {... */\n      jump(tag_809)\n    tag_822:\n        /* \"@openzeppelin/contracts/utils/Address.sol\":5045:5062  returndata.length */\n      dup2\n      mload\n        /* \"@openzeppelin/contracts/utils/Address.sol\":5045:5067  returndata.length == 0 */\n      iszero\n        /* \"@openzeppelin/contracts/utils/Address.sol\":5045:5094  returndata.length == 0 && target.code.length == 0 */\n      dup1\n      iszero\n      tag_826\n      jumpi\n      pop\n      sub(shl(0xa0, 0x01), 0x01)\n        /* \"@openzeppelin/contracts/utils/Address.sol\":5071:5089  target.code.length */\n      dup5\n      and\n      extcodesize\n        /* \"@openzeppelin/contracts/utils/Address.sol\":5071:5094  target.code.length == 0 */\n      iszero\n        /* \"@openzeppelin/contracts/utils/Address.sol\":5045:5094  returndata.length == 0 && target.code.length == 0 */\n    tag_826:\n        /* \"@openzeppelin/contracts/utils/Address.sol\":5041:5160  if (returndata.length == 0 && target.code.length == 0) {... */\n      iszero\n      tag_827\n      jumpi\n        /* \"@openzeppelin/contracts/utils/Address.sol\":5121:5145  AddressEmptyCode(target) */\n      mload(0x40)\n      shl(0xe0, 0x9996b315)\n      dup2\n      mstore\n      sub(shl(0xa0, 0x01), 0x01)\n        /* \"#utility.yul\":9613:9645   */\n      dup6\n      and\n        /* \"@openzeppelin/contracts/utils/Address.sol\":5121:5145  AddressEmptyCode(target) */\n      0x04\n      dup3\n      add\n        /* \"#utility.yul\":9595:9646   */\n      mstore\n        /* \"#utility.yul\":9568:9586   */\n      0x24\n      add\n        /* \"@openzeppelin/contracts/utils/Address.sol\":5121:5145  AddressEmptyCode(target) */\n      tag_282\n        /* \"#utility.yul\":9449:9652   */\n      jump\n        /* \"@openzeppelin/contracts/utils/Address.sol\":5041:5160  if (returndata.length == 0 && target.code.length == 0) {... */\n    tag_827:\n      pop\n        /* \"@openzeppelin/contracts/utils/Address.sol\":5180:5190  returndata */\n      dup1\n        /* \"@openzeppelin/contracts/utils/Address.sol\":5173:5190  return returndata */\n      jump(tag_809)\n        /* \"@openzeppelin/contracts/utils/Address.sol\":5743:6259  function _revert(bytes memory returndata) private pure {... */\n    tag_824:\n        /* \"@openzeppelin/contracts/utils/Address.sol\":5874:5891  returndata.length */\n      dup1\n      mload\n        /* \"@openzeppelin/contracts/utils/Address.sol\":5874:5895  returndata.length > 0 */\n      iszero\n        /* \"@openzeppelin/contracts/utils/Address.sol\":5870:6253  if (returndata.length > 0) {... */\n      tag_830\n      jumpi\n        /* \"@openzeppelin/contracts/utils/Address.sol\":6102:6112  returndata */\n      dup1\n        /* \"@openzeppelin/contracts/utils/Address.sol\":6096:6113  mload(returndata) */\n      mload\n        /* \"@openzeppelin/contracts/utils/Address.sol\":6158:6173  returndata_size */\n      dup1\n        /* \"@openzeppelin/contracts/utils/Address.sol\":6145:6155  returndata */\n      dup3\n        /* \"@openzeppelin/contracts/utils/Address.sol\":6141:6143  32 */\n      0x20\n        /* \"@openzeppelin/contracts/utils/Address.sol\":6137:6156  add(32, returndata) */\n      add\n        /* \"@openzeppelin/contracts/utils/Address.sol\":6130:6174  revert(add(32, returndata), returndata_size) */\n      revert\n        /* \"@openzeppelin/contracts/utils/Address.sol\":5870:6253  if (returndata.length > 0) {... */\n    tag_830:\n        /* \"@openzeppelin/contracts/utils/Address.sol\":6225:6242  FailedInnerCall() */\n      mload(0x40)\n      shl(0xe1, 0x0a12f521)\n      dup2\n      mstore\n      0x04\n      add\n      mload(0x40)\n      dup1\n      swap2\n      sub\n      swap1\n      revert\n    tag_448:\n      pop\n      dup1\n      sload\n      tag_832\n      swap1\n      tag_262\n      jump\t// in\n    tag_832:\n      0x00\n      dup3\n      sstore\n      dup1\n      0x1f\n      lt\n      tag_834\n      jumpi\n      pop\n      pop\n      jump\t// out\n    tag_834:\n      0x1f\n      add\n      0x20\n      swap1\n      div\n      swap1\n      0x00\n      mstore\n      keccak256(0x00, 0x20)\n      swap1\n      dup2\n      add\n      swap1\n      tag_716\n      swap2\n      swap1\n    tag_837:\n      dup1\n      dup3\n      gt\n      iszero\n      tag_838\n      jumpi\n      0x00\n      dup2\n      sstore\n      0x01\n      add\n      jump(tag_837)\n    tag_838:\n      pop\n      swap1\n      jump\t// out\n        /* \"#utility.yul\":196:482   */\n    tag_61:\n        /* \"#utility.yul\":254:260   */\n      0x00\n        /* \"#utility.yul\":307:309   */\n      0x20\n        /* \"#utility.yul\":295:304   */\n      dup3\n        /* \"#utility.yul\":286:293   */\n      dup5\n        /* \"#utility.yul\":282:305   */\n      sub\n        /* \"#utility.yul\":278:310   */\n      slt\n        /* \"#utility.yul\":275:327   */\n      iszero\n      tag_854\n      jumpi\n        /* \"#utility.yul\":323:324   */\n      0x00\n        /* \"#utility.yul\":320:321   */\n      dup1\n        /* \"#utility.yul\":313:325   */\n      revert\n        /* \"#utility.yul\":275:327   */\n    tag_854:\n        /* \"#utility.yul\":349:372   */\n      dup2\n      calldataload\n      not(sub(shl(0xe0, 0x01), 0x01))\n        /* \"#utility.yul\":401:433   */\n      dup2\n      and\n        /* \"#utility.yul\":391:434   */\n      dup2\n      eq\n        /* \"#utility.yul\":381:452   */\n      tag_809\n      jumpi\n        /* \"#utility.yul\":448:449   */\n      0x00\n        /* \"#utility.yul\":445:446   */\n      dup1\n        /* \"#utility.yul\":438:450   */\n      revert\n        /* \"#utility.yul\":679:905   */\n    tag_68:\n        /* \"#utility.yul\":738:744   */\n      0x00\n        /* \"#utility.yul\":791:793   */\n      0x20\n        /* \"#utility.yul\":779:788   */\n      dup3\n        /* \"#utility.yul\":770:777   */\n      dup5\n        /* \"#utility.yul\":766:789   */\n      sub\n        /* \"#utility.yul\":762:794   */\n      slt\n        /* \"#utility.yul\":759:811   */\n      iszero\n      tag_858\n      jumpi\n        /* \"#utility.yul\":807:808   */\n      0x00\n        /* \"#utility.yul\":804:805   */\n      dup1\n        /* \"#utility.yul\":797:809   */\n      revert\n        /* \"#utility.yul\":759:811   */\n    tag_858:\n      pop\n        /* \"#utility.yul\":852:875   */\n      calldataload\n      swap2\n        /* \"#utility.yul\":679:905   */\n      swap1\n      pop\n      jump\t// out\n        /* \"#utility.yul\":910:1160   */\n    tag_839:\n        /* \"#utility.yul\":995:996   */\n      0x00\n        /* \"#utility.yul\":1005:1118   */\n    tag_860:\n        /* \"#utility.yul\":1019:1025   */\n      dup4\n        /* \"#utility.yul\":1016:1017   */\n      dup2\n        /* \"#utility.yul\":1013:1026   */\n      lt\n        /* \"#utility.yul\":1005:1118   */\n      iszero\n      tag_862\n      jumpi\n        /* \"#utility.yul\":1095:1106   */\n      dup2\n      dup2\n      add\n        /* \"#utility.yul\":1089:1107   */\n      mload\n        /* \"#utility.yul\":1076:1087   */\n      dup4\n      dup3\n      add\n        /* \"#utility.yul\":1069:1108   */\n      mstore\n        /* \"#utility.yul\":1041:1043   */\n      0x20\n        /* \"#utility.yul\":1034:1044   */\n      add\n        /* \"#utility.yul\":1005:1118   */\n      jump(tag_860)\n    tag_862:\n      pop\n      pop\n        /* \"#utility.yul\":1152:1153   */\n      0x00\n        /* \"#utility.yul\":1134:1150   */\n      swap2\n      add\n        /* \"#utility.yul\":1127:1154   */\n      mstore\n        /* \"#utility.yul\":910:1160   */\n      jump\t// out\n        /* \"#utility.yul\":1165:1436   */\n    tag_840:\n        /* \"#utility.yul\":1207:1210   */\n      0x00\n        /* \"#utility.yul\":1245:1250   */\n      dup2\n        /* \"#utility.yul\":1239:1251   */\n      mload\n        /* \"#utility.yul\":1272:1278   */\n      dup1\n        /* \"#utility.yul\":1267:1270   */\n      dup5\n        /* \"#utility.yul\":1260:1279   */\n      mstore\n        /* \"#utility.yul\":1288:1364   */\n      tag_864\n        /* \"#utility.yul\":1357:1363   */\n      dup2\n        /* \"#utility.yul\":1350:1354   */\n      0x20\n        /* \"#utility.yul\":1345:1348   */\n      dup7\n        /* \"#utility.yul\":1341:1355   */\n      add\n        /* \"#utility.yul\":1334:1338   */\n      0x20\n        /* \"#utility.yul\":1327:1332   */\n      dup7\n        /* \"#utility.yul\":1323:1339   */\n      add\n        /* \"#utility.yul\":1288:1364   */\n      tag_839\n      jump\t// in\n    tag_864:\n        /* \"#utility.yul\":1418:1420   */\n      0x1f\n        /* \"#utility.yul\":1397:1412   */\n      add\n      not(0x1f)\n        /* \"#utility.yul\":1393:1422   */\n      and\n        /* \"#utility.yul\":1384:1423   */\n      swap3\n      swap1\n      swap3\n      add\n        /* \"#utility.yul\":1425:1429   */\n      0x20\n        /* \"#utility.yul\":1380:1430   */\n      add\n      swap3\n        /* \"#utility.yul\":1165:1436   */\n      swap2\n      pop\n      pop\n      jump\t// out\n        /* \"#utility.yul\":1441:1661   */\n    tag_71:\n        /* \"#utility.yul\":1590:1592   */\n      0x20\n        /* \"#utility.yul\":1579:1588   */\n      dup2\n        /* \"#utility.yul\":1572:1593   */\n      mstore\n        /* \"#utility.yul\":1553:1557   */\n      0x00\n        /* \"#utility.yul\":1610:1655   */\n      tag_809\n        /* \"#utility.yul\":1651:1653   */\n      0x20\n        /* \"#utility.yul\":1640:1649   */\n      dup4\n        /* \"#utility.yul\":1636:1654   */\n      add\n        /* \"#utility.yul\":1628:1634   */\n      dup5\n        /* \"#utility.yul\":1610:1655   */\n      tag_840\n      jump\t// in\n        /* \"#utility.yul\":1666:1793   */\n    tag_841:\n        /* \"#utility.yul\":1727:1737   */\n      0x4e487b71\n        /* \"#utility.yul\":1722:1725   */\n      0xe0\n        /* \"#utility.yul\":1718:1738   */\n      shl\n        /* \"#utility.yul\":1715:1716   */\n      0x00\n        /* \"#utility.yul\":1708:1739   */\n      mstore\n        /* \"#utility.yul\":1758:1762   */\n      0x41\n        /* \"#utility.yul\":1755:1756   */\n      0x04\n        /* \"#utility.yul\":1748:1763   */\n      mstore\n        /* \"#utility.yul\":1782:1786   */\n      0x24\n        /* \"#utility.yul\":1779:1780   */\n      0x00\n        /* \"#utility.yul\":1772:1787   */\n      revert\n        /* \"#utility.yul\":1798:2524   */\n    tag_842:\n        /* \"#utility.yul\":1841:1846   */\n      0x00\n        /* \"#utility.yul\":1894:1897   */\n      dup3\n        /* \"#utility.yul\":1887:1891   */\n      0x1f\n        /* \"#utility.yul\":1879:1885   */\n      dup4\n        /* \"#utility.yul\":1875:1892   */\n      add\n        /* \"#utility.yul\":1871:1898   */\n      slt\n        /* \"#utility.yul\":1861:1916   */\n      tag_869\n      jumpi\n        /* \"#utility.yul\":1912:1913   */\n      0x00\n        /* \"#utility.yul\":1909:1910   */\n      dup1\n        /* \"#utility.yul\":1902:1914   */\n      revert\n        /* \"#utility.yul\":1861:1916   */\n    tag_869:\n        /* \"#utility.yul\":1952:1958   */\n      dup2\n        /* \"#utility.yul\":1939:1959   */\n      calldataload\n        /* \"#utility.yul\":1982:2000   */\n      0xffffffffffffffff\n        /* \"#utility.yul\":1974:1980   */\n      dup2\n        /* \"#utility.yul\":1971:2001   */\n      gt\n        /* \"#utility.yul\":1968:2024   */\n      iszero\n      tag_871\n      jumpi\n        /* \"#utility.yul\":2004:2022   */\n      tag_871\n      tag_841\n      jump\t// in\n    tag_871:\n        /* \"#utility.yul\":2053:2055   */\n      0x40\n        /* \"#utility.yul\":2047:2056   */\n      mload\n        /* \"#utility.yul\":2145:2147   */\n      0x1f\n        /* \"#utility.yul\":2107:2124   */\n      dup3\n      add\n      not(0x1f)\n        /* \"#utility.yul\":2103:2134   */\n      swap1\n      dup2\n      and\n        /* \"#utility.yul\":2136:2138   */\n      0x3f\n        /* \"#utility.yul\":2099:2139   */\n      add\n        /* \"#utility.yul\":2095:2149   */\n      and\n        /* \"#utility.yul\":2083:2150   */\n      dup2\n      add\n        /* \"#utility.yul\":2180:2198   */\n      0xffffffffffffffff\n        /* \"#utility.yul\":2165:2199   */\n      dup2\n      gt\n        /* \"#utility.yul\":2201:2223   */\n      dup3\n      dup3\n      lt\n        /* \"#utility.yul\":2162:2224   */\n      or\n        /* \"#utility.yul\":2159:2247   */\n      iszero\n      tag_873\n      jumpi\n        /* \"#utility.yul\":2227:2245   */\n      tag_873\n      tag_841\n      jump\t// in\n    tag_873:\n        /* \"#utility.yul\":2263:2265   */\n      0x40\n        /* \"#utility.yul\":2256:2278   */\n      mstore\n        /* \"#utility.yul\":2287:2309   */\n      dup2\n      dup2\n      mstore\n        /* \"#utility.yul\":2328:2347   */\n      dup4\n      dup3\n      add\n        /* \"#utility.yul\":2349:2353   */\n      0x20\n        /* \"#utility.yul\":2324:2354   */\n      add\n        /* \"#utility.yul\":2321:2360   */\n      dup6\n      lt\n        /* \"#utility.yul\":2318:2377   */\n      iszero\n      tag_874\n      jumpi\n        /* \"#utility.yul\":2373:2374   */\n      0x00\n        /* \"#utility.yul\":2370:2371   */\n      dup1\n        /* \"#utility.yul\":2363:2375   */\n      revert\n        /* \"#utility.yul\":2318:2377   */\n    tag_874:\n        /* \"#utility.yul\":2437:2443   */\n      dup2\n        /* \"#utility.yul\":2430:2434   */\n      0x20\n        /* \"#utility.yul\":2422:2428   */\n      dup6\n        /* \"#utility.yul\":2418:2435   */\n      add\n        /* \"#utility.yul\":2411:2415   */\n      0x20\n        /* \"#utility.yul\":2403:2409   */\n      dup4\n        /* \"#utility.yul\":2399:2416   */\n      add\n        /* \"#utility.yul\":2386:2444   */\n      calldatacopy\n        /* \"#utility.yul\":2492:2493   */\n      0x00\n        /* \"#utility.yul\":2464:2483   */\n      swap2\n      dup2\n      add\n        /* \"#utility.yul\":2485:2489   */\n      0x20\n        /* \"#utility.yul\":2460:2490   */\n      add\n        /* \"#utility.yul\":2453:2494   */\n      swap2\n      swap1\n      swap2\n      mstore\n        /* \"#utility.yul\":2468:2474   */\n      swap4\n        /* \"#utility.yul\":1798:2524   */\n      swap3\n      pop\n      pop\n      pop\n      jump\t// out\n        /* \"#utility.yul\":2529:2851   */\n    tag_75:\n        /* \"#utility.yul\":2598:2604   */\n      0x00\n        /* \"#utility.yul\":2651:2653   */\n      0x20\n        /* \"#utility.yul\":2639:2648   */\n      dup3\n        /* \"#utility.yul\":2630:2637   */\n      dup5\n        /* \"#utility.yul\":2626:2649   */\n      sub\n        /* \"#utility.yul\":2622:2654   */\n      slt\n        /* \"#utility.yul\":2619:2671   */\n      iszero\n      tag_876\n      jumpi\n        /* \"#utility.yul\":2667:2668   */\n      0x00\n        /* \"#utility.yul\":2664:2665   */\n      dup1\n        /* \"#utility.yul\":2657:2669   */\n      revert\n        /* \"#utility.yul\":2619:2671   */\n    tag_876:\n        /* \"#utility.yul\":2707:2716   */\n      dup2\n        /* \"#utility.yul\":2694:2717   */\n      calldataload\n        /* \"#utility.yul\":2740:2758   */\n      0xffffffffffffffff\n        /* \"#utility.yul\":2732:2738   */\n      dup2\n        /* \"#utility.yul\":2729:2759   */\n      gt\n        /* \"#utility.yul\":2726:2776   */\n      iszero\n      tag_877\n      jumpi\n        /* \"#utility.yul\":2772:2773   */\n      0x00\n        /* \"#utility.yul\":2769:2770   */\n      dup1\n        /* \"#utility.yul\":2762:2774   */\n      revert\n        /* \"#utility.yul\":2726:2776   */\n    tag_877:\n        /* \"#utility.yul\":2795:2845   */\n      tag_878\n        /* \"#utility.yul\":2837:2844   */\n      dup5\n        /* \"#utility.yul\":2828:2834   */\n      dup3\n        /* \"#utility.yul\":2817:2826   */\n      dup6\n        /* \"#utility.yul\":2813:2835   */\n      add\n        /* \"#utility.yul\":2795:2845   */\n      tag_842\n      jump\t// in\n    tag_878:\n        /* \"#utility.yul\":2785:2845   */\n      swap5\n        /* \"#utility.yul\":2529:2851   */\n      swap4\n      pop\n      pop\n      pop\n      pop\n      jump\t// out\n        /* \"#utility.yul\":3269:3705   */\n    tag_88:\n        /* \"#utility.yul\":3347:3353   */\n      0x00\n        /* \"#utility.yul\":3355:3361   */\n      dup1\n        /* \"#utility.yul\":3408:3410   */\n      0x40\n        /* \"#utility.yul\":3396:3405   */\n      dup4\n        /* \"#utility.yul\":3387:3394   */\n      dup6\n        /* \"#utility.yul\":3383:3406   */\n      sub\n        /* \"#utility.yul\":3379:3411   */\n      slt\n        /* \"#utility.yul\":3376:3428   */\n      iszero\n      tag_883\n      jumpi\n        /* \"#utility.yul\":3424:3425   */\n      0x00\n        /* \"#utility.yul\":3421:3422   */\n      dup1\n        /* \"#utility.yul\":3414:3426   */\n      revert\n        /* \"#utility.yul\":3376:3428   */\n    tag_883:\n        /* \"#utility.yul\":3464:3473   */\n      dup3\n        /* \"#utility.yul\":3451:3474   */\n      calldataload\n        /* \"#utility.yul\":3497:3515   */\n      0xffffffffffffffff\n        /* \"#utility.yul\":3489:3495   */\n      dup2\n        /* \"#utility.yul\":3486:3516   */\n      gt\n        /* \"#utility.yul\":3483:3533   */\n      iszero\n      tag_884\n      jumpi\n        /* \"#utility.yul\":3529:3530   */\n      0x00\n        /* \"#utility.yul\":3526:3527   */\n      dup1\n        /* \"#utility.yul\":3519:3531   */\n      revert\n        /* \"#utility.yul\":3483:3533   */\n    tag_884:\n        /* \"#utility.yul\":3552:3602   */\n      tag_885\n        /* \"#utility.yul\":3594:3601   */\n      dup6\n        /* \"#utility.yul\":3585:3591   */\n      dup3\n        /* \"#utility.yul\":3574:3583   */\n      dup7\n        /* \"#utility.yul\":3570:3592   */\n      add\n        /* \"#utility.yul\":3552:3602   */\n      tag_842\n      jump\t// in\n    tag_885:\n        /* \"#utility.yul\":3542:3602   */\n      swap6\n        /* \"#utility.yul\":3671:3673   */\n      0x20\n        /* \"#utility.yul\":3656:3674   */\n      swap5\n      swap1\n      swap5\n      add\n        /* \"#utility.yul\":3643:3675   */\n      calldataload\n      swap5\n      pop\n      pop\n      pop\n      pop\n        /* \"#utility.yul\":3269:3705   */\n      jump\t// out\n        /* \"#utility.yul\":3710:3841   */\n    tag_843:\n      sub(shl(0xa0, 0x01), 0x01)\n        /* \"#utility.yul\":3785:3816   */\n      dup2\n      and\n        /* \"#utility.yul\":3775:3817   */\n      dup2\n      eq\n        /* \"#utility.yul\":3765:3835   */\n      tag_716\n      jumpi\n        /* \"#utility.yul\":3831:3832   */\n      0x00\n        /* \"#utility.yul\":3828:3829   */\n      dup1\n        /* \"#utility.yul\":3821:3833   */\n      revert\n        /* \"#utility.yul\":3846:4213   */\n    tag_98:\n        /* \"#utility.yul\":3914:3920   */\n      0x00\n        /* \"#utility.yul\":3922:3928   */\n      dup1\n        /* \"#utility.yul\":3975:3977   */\n      0x40\n        /* \"#utility.yul\":3963:3972   */\n      dup4\n        /* \"#utility.yul\":3954:3961   */\n      dup6\n        /* \"#utility.yul\":3950:3973   */\n      sub\n        /* \"#utility.yul\":3946:3978   */\n      slt\n        /* \"#utility.yul\":3943:3995   */\n      iszero\n      tag_889\n      jumpi\n        /* \"#utility.yul\":3991:3992   */\n      0x00\n        /* \"#utility.yul\":3988:3989   */\n      dup1\n        /* \"#utility.yul\":3981:3993   */\n      revert\n        /* \"#utility.yul\":3943:3995   */\n    tag_889:\n        /* \"#utility.yul\":4036:4059   */\n      dup3\n      calldataload\n      swap2\n      pop\n        /* \"#utility.yul\":4135:4137   */\n      0x20\n        /* \"#utility.yul\":4120:4138   */\n      dup4\n      add\n        /* \"#utility.yul\":4107:4139   */\n      calldataload\n        /* \"#utility.yul\":4148:4181   */\n      tag_890\n        /* \"#utility.yul\":4107:4139   */\n      dup2\n        /* \"#utility.yul\":4148:4181   */\n      tag_843\n      jump\t// in\n    tag_890:\n        /* \"#utility.yul\":4200:4207   */\n      dup1\n        /* \"#utility.yul\":4190:4207   */\n      swap2\n      pop\n      pop\n        /* \"#utility.yul\":3846:4213   */\n      swap3\n      pop\n      swap3\n      swap1\n      pop\n      jump\t// out\n        /* \"#utility.yul\":4218:4465   */\n    tag_128:\n        /* \"#utility.yul\":4277:4283   */\n      0x00\n        /* \"#utility.yul\":4330:4332   */\n      0x20\n        /* \"#utility.yul\":4318:4327   */\n      dup3\n        /* \"#utility.yul\":4309:4316   */\n      dup5\n        /* \"#utility.yul\":4305:4328   */\n      sub\n        /* \"#utility.yul\":4301:4333   */\n      slt\n        /* \"#utility.yul\":4298:4350   */\n      iszero\n      tag_892\n      jumpi\n        /* \"#utility.yul\":4346:4347   */\n      0x00\n        /* \"#utility.yul\":4343:4344   */\n      dup1\n        /* \"#utility.yul\":4336:4348   */\n      revert\n        /* \"#utility.yul\":4298:4350   */\n    tag_892:\n        /* \"#utility.yul\":4385:4394   */\n      dup2\n        /* \"#utility.yul\":4372:4395   */\n      calldataload\n        /* \"#utility.yul\":4404:4435   */\n      tag_809\n        /* \"#utility.yul\":4429:4434   */\n      dup2\n        /* \"#utility.yul\":4404:4435   */\n      tag_843\n      jump\t// in\n        /* \"#utility.yul\":4470:4818   */\n    tag_844:\n        /* \"#utility.yul\":4522:4530   */\n      0x00\n        /* \"#utility.yul\":4532:4538   */\n      dup1\n        /* \"#utility.yul\":4586:4589   */\n      dup4\n        /* \"#utility.yul\":4579:4583   */\n      0x1f\n        /* \"#utility.yul\":4571:4577   */\n      dup5\n        /* \"#utility.yul\":4567:4584   */\n      add\n        /* \"#utility.yul\":4563:4590   */\n      slt\n        /* \"#utility.yul\":4553:4608   */\n      tag_895\n      jumpi\n        /* \"#utility.yul\":4604:4605   */\n      0x00\n        /* \"#utility.yul\":4601:4602   */\n      dup1\n        /* \"#utility.yul\":4594:4606   */\n      revert\n        /* \"#utility.yul\":4553:4608   */\n    tag_895:\n      pop\n        /* \"#utility.yul\":4627:4647   */\n      dup2\n      calldataload\n        /* \"#utility.yul\":4670:4688   */\n      0xffffffffffffffff\n        /* \"#utility.yul\":4659:4689   */\n      dup2\n      gt\n        /* \"#utility.yul\":4656:4706   */\n      iszero\n      tag_896\n      jumpi\n        /* \"#utility.yul\":4702:4703   */\n      0x00\n        /* \"#utility.yul\":4699:4700   */\n      dup1\n        /* \"#utility.yul\":4692:4704   */\n      revert\n        /* \"#utility.yul\":4656:4706   */\n    tag_896:\n        /* \"#utility.yul\":4739:4743   */\n      0x20\n        /* \"#utility.yul\":4731:4737   */\n      dup4\n        /* \"#utility.yul\":4727:4744   */\n      add\n        /* \"#utility.yul\":4715:4744   */\n      swap2\n      pop\n        /* \"#utility.yul\":4791:4794   */\n      dup4\n        /* \"#utility.yul\":4784:4788   */\n      0x20\n        /* \"#utility.yul\":4775:4781   */\n      dup3\n        /* \"#utility.yul\":4767:4773   */\n      dup6\n        /* \"#utility.yul\":4763:4782   */\n      add\n        /* \"#utility.yul\":4759:4789   */\n      add\n        /* \"#utility.yul\":4756:4795   */\n      gt\n        /* \"#utility.yul\":4753:4812   */\n      iszero\n      tag_897\n      jumpi\n        /* \"#utility.yul\":4808:4809   */\n      0x00\n        /* \"#utility.yul\":4805:4806   */\n      dup1\n        /* \"#utility.yul\":4798:4810   */\n      revert\n        /* \"#utility.yul\":4753:4812   */\n    tag_897:\n        /* \"#utility.yul\":4470:4818   */\n      swap3\n      pop\n      swap3\n      swap1\n      pop\n      jump\t// out\n        /* \"#utility.yul\":4823:4986   */\n    tag_845:\n        /* \"#utility.yul\":4890:4910   */\n      dup1\n      calldataload\n        /* \"#utility.yul\":4950:4960   */\n      0xffffffff\n        /* \"#utility.yul\":4939:4961   */\n      dup2\n      and\n        /* \"#utility.yul\":4929:4962   */\n      dup2\n      eq\n        /* \"#utility.yul\":4919:4980   */\n      tag_334\n      jumpi\n        /* \"#utility.yul\":4976:4977   */\n      0x00\n        /* \"#utility.yul\":4973:4974   */\n      dup1\n        /* \"#utility.yul\":4966:4978   */\n      revert\n        /* \"#utility.yul\":4991:5980   */\n    tag_142:\n        /* \"#utility.yul\":5114:5120   */\n      0x00\n        /* \"#utility.yul\":5122:5128   */\n      dup1\n        /* \"#utility.yul\":5130:5136   */\n      0x00\n        /* \"#utility.yul\":5138:5144   */\n      dup1\n        /* \"#utility.yul\":5146:5152   */\n      0x00\n        /* \"#utility.yul\":5154:5160   */\n      dup1\n        /* \"#utility.yul\":5162:5168   */\n      0x00\n        /* \"#utility.yul\":5215:5218   */\n      0xc0\n        /* \"#utility.yul\":5203:5212   */\n      dup9\n        /* \"#utility.yul\":5194:5201   */\n      dup11\n        /* \"#utility.yul\":5190:5213   */\n      sub\n        /* \"#utility.yul\":5186:5219   */\n      slt\n        /* \"#utility.yul\":5183:5236   */\n      iszero\n      tag_901\n      jumpi\n        /* \"#utility.yul\":5232:5233   */\n      0x00\n        /* \"#utility.yul\":5229:5230   */\n      dup1\n        /* \"#utility.yul\":5222:5234   */\n      revert\n        /* \"#utility.yul\":5183:5236   */\n    tag_901:\n        /* \"#utility.yul\":5271:5280   */\n      dup8\n        /* \"#utility.yul\":5258:5281   */\n      calldataload\n        /* \"#utility.yul\":5290:5321   */\n      tag_902\n        /* \"#utility.yul\":5315:5320   */\n      dup2\n        /* \"#utility.yul\":5290:5321   */\n      tag_843\n      jump\t// in\n    tag_902:\n        /* \"#utility.yul\":5340:5345   */\n      swap7\n      pop\n        /* \"#utility.yul\":5418:5420   */\n      0x20\n        /* \"#utility.yul\":5403:5421   */\n      dup9\n      add\n        /* \"#utility.yul\":5390:5422   */\n      calldataload\n      swap6\n      pop\n        /* \"#utility.yul\":5499:5501   */\n      0x40\n        /* \"#utility.yul\":5484:5502   */\n      dup9\n      add\n        /* \"#utility.yul\":5471:5503   */\n      calldataload\n        /* \"#utility.yul\":5526:5544   */\n      0xffffffffffffffff\n        /* \"#utility.yul\":5515:5545   */\n      dup2\n      gt\n        /* \"#utility.yul\":5512:5562   */\n      iszero\n      tag_903\n      jumpi\n        /* \"#utility.yul\":5558:5559   */\n      0x00\n        /* \"#utility.yul\":5555:5556   */\n      dup1\n        /* \"#utility.yul\":5548:5560   */\n      revert\n        /* \"#utility.yul\":5512:5562   */\n    tag_903:\n        /* \"#utility.yul\":5597:5656   */\n      tag_904\n        /* \"#utility.yul\":5648:5655   */\n      dup11\n        /* \"#utility.yul\":5639:5645   */\n      dup3\n        /* \"#utility.yul\":5628:5637   */\n      dup12\n        /* \"#utility.yul\":5624:5646   */\n      add\n        /* \"#utility.yul\":5597:5656   */\n      tag_844\n      jump\t// in\n    tag_904:\n        /* \"#utility.yul\":5675:5683   */\n      swap1\n      swap7\n      pop\n        /* \"#utility.yul\":5571:5656   */\n      swap5\n      pop\n      pop\n        /* \"#utility.yul\":5783:5785   */\n      0x60\n        /* \"#utility.yul\":5768:5786   */\n      dup9\n      add\n        /* \"#utility.yul\":5755:5787   */\n      calldataload\n      swap3\n      pop\n        /* \"#utility.yul\":5886:5889   */\n      0x80\n        /* \"#utility.yul\":5871:5890   */\n      dup9\n      add\n        /* \"#utility.yul\":5858:5891   */\n      calldataload\n      swap2\n      pop\n        /* \"#utility.yul\":5936:5974   */\n      tag_905\n        /* \"#utility.yul\":5969:5972   */\n      0xa0\n        /* \"#utility.yul\":5954:5973   */\n      dup10\n      add\n        /* \"#utility.yul\":5936:5974   */\n      tag_845\n      jump\t// in\n    tag_905:\n        /* \"#utility.yul\":5926:5974   */\n      swap1\n      pop\n        /* \"#utility.yul\":4991:5980   */\n      swap3\n      swap6\n      swap9\n      swap2\n      swap5\n      swap8\n      pop\n      swap3\n      swap6\n      pop\n      jump\t// out\n        /* \"#utility.yul\":5985:6815   */\n    tag_173:\n        /* \"#utility.yul\":6086:6092   */\n      0x00\n        /* \"#utility.yul\":6094:6100   */\n      dup1\n        /* \"#utility.yul\":6102:6108   */\n      0x00\n        /* \"#utility.yul\":6110:6116   */\n      dup1\n        /* \"#utility.yul\":6118:6124   */\n      0x00\n        /* \"#utility.yul\":6171:6173   */\n      0x60\n        /* \"#utility.yul\":6159:6168   */\n      dup7\n        /* \"#utility.yul\":6150:6157   */\n      dup9\n        /* \"#utility.yul\":6146:6169   */\n      sub\n        /* \"#utility.yul\":6142:6174   */\n      slt\n        /* \"#utility.yul\":6139:6191   */\n      iszero\n      tag_907\n      jumpi\n        /* \"#utility.yul\":6187:6188   */\n      0x00\n        /* \"#utility.yul\":6184:6185   */\n      dup1\n        /* \"#utility.yul\":6177:6189   */\n      revert\n        /* \"#utility.yul\":6139:6191   */\n    tag_907:\n        /* \"#utility.yul\":6232:6255   */\n      dup6\n      calldataload\n      swap5\n      pop\n        /* \"#utility.yul\":6330:6332   */\n      0x20\n        /* \"#utility.yul\":6315:6333   */\n      dup7\n      add\n        /* \"#utility.yul\":6302:6334   */\n      calldataload\n        /* \"#utility.yul\":6357:6375   */\n      0xffffffffffffffff\n        /* \"#utility.yul\":6346:6376   */\n      dup2\n      gt\n        /* \"#utility.yul\":6343:6393   */\n      iszero\n      tag_908\n      jumpi\n        /* \"#utility.yul\":6389:6390   */\n      0x00\n        /* \"#utility.yul\":6386:6387   */\n      dup1\n        /* \"#utility.yul\":6379:6391   */\n      revert\n        /* \"#utility.yul\":6343:6393   */\n    tag_908:\n        /* \"#utility.yul\":6428:6487   */\n      tag_909\n        /* \"#utility.yul\":6479:6486   */\n      dup9\n        /* \"#utility.yul\":6470:6476   */\n      dup3\n        /* \"#utility.yul\":6459:6468   */\n      dup10\n        /* \"#utility.yul\":6455:6477   */\n      add\n        /* \"#utility.yul\":6428:6487   */\n      tag_844\n      jump\t// in\n    tag_909:\n        /* \"#utility.yul\":6506:6514   */\n      swap1\n      swap6\n      pop\n        /* \"#utility.yul\":6402:6487   */\n      swap4\n      pop\n      pop\n        /* \"#utility.yul\":6594:6596   */\n      0x40\n        /* \"#utility.yul\":6579:6597   */\n      dup7\n      add\n        /* \"#utility.yul\":6566:6598   */\n      calldataload\n        /* \"#utility.yul\":6623:6641   */\n      0xffffffffffffffff\n        /* \"#utility.yul\":6610:6642   */\n      dup2\n      gt\n        /* \"#utility.yul\":6607:6659   */\n      iszero\n      tag_910\n      jumpi\n        /* \"#utility.yul\":6655:6656   */\n      0x00\n        /* \"#utility.yul\":6652:6653   */\n      dup1\n        /* \"#utility.yul\":6645:6657   */\n      revert\n        /* \"#utility.yul\":6607:6659   */\n    tag_910:\n        /* \"#utility.yul\":6694:6755   */\n      tag_911\n        /* \"#utility.yul\":6747:6754   */\n      dup9\n        /* \"#utility.yul\":6736:6744   */\n      dup3\n        /* \"#utility.yul\":6725:6734   */\n      dup10\n        /* \"#utility.yul\":6721:6745   */\n      add\n        /* \"#utility.yul\":6694:6755   */\n      tag_844\n      jump\t// in\n    tag_911:\n        /* \"#utility.yul\":5985:6815   */\n      swap7\n      swap10\n      swap6\n      swap9\n      pop\n      swap4\n      swap7\n      pop\n        /* \"#utility.yul\":6774:6782   */\n      swap3\n      swap5\n        /* \"#utility.yul\":6668:6755   */\n      swap4\n        /* \"#utility.yul\":5985:6815   */\n      swap3\n      pop\n      pop\n      pop\n      jump\t// out\n        /* \"#utility.yul\":6820:7602   */\n    tag_180:\n        /* \"#utility.yul\":6982:6986   */\n      0x00\n        /* \"#utility.yul\":7030:7032   */\n      0x20\n        /* \"#utility.yul\":7019:7028   */\n      dup3\n        /* \"#utility.yul\":7015:7033   */\n      add\n        /* \"#utility.yul\":7060:7062   */\n      0x20\n        /* \"#utility.yul\":7049:7058   */\n      dup4\n        /* \"#utility.yul\":7042:7063   */\n      mstore\n        /* \"#utility.yul\":7083:7089   */\n      dup1\n        /* \"#utility.yul\":7118:7124   */\n      dup5\n        /* \"#utility.yul\":7112:7125   */\n      mload\n        /* \"#utility.yul\":7149:7155   */\n      dup1\n        /* \"#utility.yul\":7141:7147   */\n      dup4\n        /* \"#utility.yul\":7134:7156   */\n      mstore\n        /* \"#utility.yul\":7187:7189   */\n      0x40\n        /* \"#utility.yul\":7176:7185   */\n      dup6\n        /* \"#utility.yul\":7172:7190   */\n      add\n        /* \"#utility.yul\":7165:7190   */\n      swap2\n      pop\n        /* \"#utility.yul\":7249:7251   */\n      0x40\n        /* \"#utility.yul\":7239:7245   */\n      dup2\n        /* \"#utility.yul\":7236:7237   */\n      0x05\n        /* \"#utility.yul\":7232:7246   */\n      shl\n        /* \"#utility.yul\":7221:7230   */\n      dup7\n        /* \"#utility.yul\":7217:7247   */\n      add\n        /* \"#utility.yul\":7213:7252   */\n      add\n        /* \"#utility.yul\":7199:7252   */\n      swap3\n      pop\n        /* \"#utility.yul\":7287:7289   */\n      0x20\n        /* \"#utility.yul\":7279:7285   */\n      dup7\n        /* \"#utility.yul\":7275:7290   */\n      add\n        /* \"#utility.yul\":7308:7309   */\n      0x00\n        /* \"#utility.yul\":7318:7573   */\n    tag_913:\n        /* \"#utility.yul\":7332:7338   */\n      dup3\n        /* \"#utility.yul\":7329:7330   */\n      dup2\n        /* \"#utility.yul\":7326:7339   */\n      lt\n        /* \"#utility.yul\":7318:7573   */\n      iszero\n      tag_915\n      jumpi\n        /* \"#utility.yul\":7425:7427   */\n      0x3f\n        /* \"#utility.yul\":7421:7428   */\n      not\n        /* \"#utility.yul\":7409:7418   */\n      dup8\n        /* \"#utility.yul\":7401:7407   */\n      dup7\n        /* \"#utility.yul\":7397:7419   */\n      sub\n        /* \"#utility.yul\":7393:7429   */\n      add\n        /* \"#utility.yul\":7388:7391   */\n      dup5\n        /* \"#utility.yul\":7381:7430   */\n      mstore\n        /* \"#utility.yul\":7453:7493   */\n      tag_916\n        /* \"#utility.yul\":7486:7492   */\n      dup6\n        /* \"#utility.yul\":7477:7483   */\n      dup4\n        /* \"#utility.yul\":7471:7484   */\n      mload\n        /* \"#utility.yul\":7453:7493   */\n      tag_840\n      jump\t// in\n    tag_916:\n        /* \"#utility.yul\":7443:7493   */\n      swap5\n      pop\n        /* \"#utility.yul\":7528:7530   */\n      0x20\n        /* \"#utility.yul\":7551:7563   */\n      swap4\n      dup5\n      add\n      swap4\n        /* \"#utility.yul\":7516:7531   */\n      swap2\n      swap1\n      swap2\n      add\n      swap1\n        /* \"#utility.yul\":7354:7355   */\n      0x01\n        /* \"#utility.yul\":7347:7356   */\n      add\n        /* \"#utility.yul\":7318:7573   */\n      jump(tag_913)\n    tag_915:\n      pop\n        /* \"#utility.yul\":7590:7596   */\n      swap3\n      swap7\n        /* \"#utility.yul\":6820:7602   */\n      swap6\n      pop\n      pop\n      pop\n      pop\n      pop\n      pop\n      jump\t// out\n        /* \"#utility.yul\":7987:8758   */\n    tag_215:\n        /* \"#utility.yul\":8082:8088   */\n      0x00\n        /* \"#utility.yul\":8090:8096   */\n      dup1\n        /* \"#utility.yul\":8098:8104   */\n      0x00\n        /* \"#utility.yul\":8106:8112   */\n      dup1\n        /* \"#utility.yul\":8114:8120   */\n      0x00\n        /* \"#utility.yul\":8167:8170   */\n      0xa0\n        /* \"#utility.yul\":8155:8164   */\n      dup7\n        /* \"#utility.yul\":8146:8153   */\n      dup9\n        /* \"#utility.yul\":8142:8165   */\n      sub\n        /* \"#utility.yul\":8138:8171   */\n      slt\n        /* \"#utility.yul\":8135:8188   */\n      iszero\n      tag_921\n      jumpi\n        /* \"#utility.yul\":8184:8185   */\n      0x00\n        /* \"#utility.yul\":8181:8182   */\n      dup1\n        /* \"#utility.yul\":8174:8186   */\n      revert\n        /* \"#utility.yul\":8135:8188   */\n    tag_921:\n        /* \"#utility.yul\":8223:8232   */\n      dup6\n        /* \"#utility.yul\":8210:8233   */\n      calldataload\n        /* \"#utility.yul\":8242:8273   */\n      tag_922\n        /* \"#utility.yul\":8267:8272   */\n      dup2\n        /* \"#utility.yul\":8242:8273   */\n      tag_843\n      jump\t// in\n    tag_922:\n        /* \"#utility.yul\":8292:8297   */\n      swap5\n      pop\n        /* \"#utility.yul\":8349:8351   */\n      0x20\n        /* \"#utility.yul\":8334:8352   */\n      dup7\n      add\n        /* \"#utility.yul\":8321:8353   */\n      calldataload\n        /* \"#utility.yul\":8362:8395   */\n      tag_923\n        /* \"#utility.yul\":8321:8353   */\n      dup2\n        /* \"#utility.yul\":8362:8395   */\n      tag_843\n      jump\t// in\n    tag_923:\n        /* \"#utility.yul\":8414:8421   */\n      swap4\n      pop\n        /* \"#utility.yul\":8473:8475   */\n      0x40\n        /* \"#utility.yul\":8458:8476   */\n      dup7\n      add\n        /* \"#utility.yul\":8445:8477   */\n      calldataload\n        /* \"#utility.yul\":8486:8519   */\n      tag_924\n        /* \"#utility.yul\":8445:8477   */\n      dup2\n        /* \"#utility.yul\":8486:8519   */\n      tag_843\n      jump\t// in\n    tag_924:\n        /* \"#utility.yul\":7987:8758   */\n      swap5\n      swap8\n      swap4\n      swap7\n      pop\n        /* \"#utility.yul\":8538:8545   */\n      swap4\n      swap5\n        /* \"#utility.yul\":8618:8620   */\n      0x60\n        /* \"#utility.yul\":8603:8621   */\n      dup2\n      add\n        /* \"#utility.yul\":8590:8622   */\n      calldataload\n      swap5\n      pop\n        /* \"#utility.yul\":8721:8724   */\n      0x80\n        /* \"#utility.yul\":8706:8725   */\n      add\n        /* \"#utility.yul\":8693:8726   */\n      calldataload\n      swap3\n        /* \"#utility.yul\":7987:8758   */\n      swap2\n      pop\n      pop\n      jump\t// out\n        /* \"#utility.yul\":8763:9444   */\n    tag_224:\n        /* \"#utility.yul\":8857:8863   */\n      0x00\n        /* \"#utility.yul\":8865:8871   */\n      dup1\n        /* \"#utility.yul\":8873:8879   */\n      0x00\n        /* \"#utility.yul\":8881:8887   */\n      dup1\n        /* \"#utility.yul\":8889:8895   */\n      0x00\n        /* \"#utility.yul\":8942:8945   */\n      0xa0\n        /* \"#utility.yul\":8930:8939   */\n      dup7\n        /* \"#utility.yul\":8921:8928   */\n      dup9\n        /* \"#utility.yul\":8917:8940   */\n      sub\n        /* \"#utility.yul\":8913:8946   */\n      slt\n        /* \"#utility.yul\":8910:8963   */\n      iszero\n      tag_926\n      jumpi\n        /* \"#utility.yul\":8959:8960   */\n      0x00\n        /* \"#utility.yul\":8956:8957   */\n      dup1\n        /* \"#utility.yul\":8949:8961   */\n      revert\n        /* \"#utility.yul\":8910:8963   */\n    tag_926:\n        /* \"#utility.yul\":9004:9027   */\n      dup6\n      calldataload\n      swap5\n      pop\n        /* \"#utility.yul\":9124:9126   */\n      0x20\n        /* \"#utility.yul\":9109:9127   */\n      dup7\n      add\n        /* \"#utility.yul\":9096:9128   */\n      calldataload\n      swap4\n      pop\n        /* \"#utility.yul\":9206:9208   */\n      0x40\n        /* \"#utility.yul\":9191:9209   */\n      dup7\n      add\n        /* \"#utility.yul\":9178:9210   */\n      calldataload\n        /* \"#utility.yul\":9219:9252   */\n      tag_927\n        /* \"#utility.yul\":9178:9210   */\n      dup2\n        /* \"#utility.yul\":9219:9252   */\n      tag_843\n      jump\t// in\n    tag_927:\n        /* \"#utility.yul\":9271:9278   */\n      swap3\n      pop\n        /* \"#utility.yul\":9351:9353   */\n      0x60\n        /* \"#utility.yul\":9336:9354   */\n      dup7\n      add\n        /* \"#utility.yul\":9323:9355   */\n      calldataload\n      swap2\n      pop\n        /* \"#utility.yul\":9400:9438   */\n      tag_928\n        /* \"#utility.yul\":9433:9436   */\n      0x80\n        /* \"#utility.yul\":9418:9437   */\n      dup8\n      add\n        /* \"#utility.yul\":9400:9438   */\n      tag_845\n      jump\t// in\n    tag_928:\n        /* \"#utility.yul\":9390:9438   */\n      swap1\n      pop\n        /* \"#utility.yul\":8763:9444   */\n      swap3\n      swap6\n      pop\n      swap3\n      swap6\n      swap1\n      swap4\n      pop\n      jump\t// out\n        /* \"#utility.yul\":9657:10037   */\n    tag_262:\n        /* \"#utility.yul\":9736:9737   */\n      0x01\n        /* \"#utility.yul\":9732:9744   */\n      dup2\n      dup2\n      shr\n      swap1\n        /* \"#utility.yul\":9779:9791   */\n      dup3\n      and\n      dup1\n        /* \"#utility.yul\":9800:9861   */\n      tag_931\n      jumpi\n        /* \"#utility.yul\":9854:9858   */\n      0x7f\n        /* \"#utility.yul\":9846:9852   */\n      dup3\n        /* \"#utility.yul\":9842:9859   */\n      and\n        /* \"#utility.yul\":9832:9859   */\n      swap2\n      pop\n        /* \"#utility.yul\":9800:9861   */\n    tag_931:\n        /* \"#utility.yul\":9907:9909   */\n      0x20\n        /* \"#utility.yul\":9899:9905   */\n      dup3\n        /* \"#utility.yul\":9896:9910   */\n      lt\n        /* \"#utility.yul\":9876:9894   */\n      dup2\n        /* \"#utility.yul\":9873:9911   */\n      sub\n        /* \"#utility.yul\":9870:10031   */\n      tag_932\n      jumpi\n        /* \"#utility.yul\":9953:9963   */\n      0x4e487b71\n        /* \"#utility.yul\":9948:9951   */\n      0xe0\n        /* \"#utility.yul\":9944:9964   */\n      shl\n        /* \"#utility.yul\":9941:9942   */\n      0x00\n        /* \"#utility.yul\":9934:9965   */\n      mstore\n        /* \"#utility.yul\":9988:9992   */\n      0x22\n        /* \"#utility.yul\":9985:9986   */\n      0x04\n        /* \"#utility.yul\":9978:9993   */\n      mstore\n        /* \"#utility.yul\":10016:10020   */\n      0x24\n        /* \"#utility.yul\":10013:10014   */\n      0x00\n        /* \"#utility.yul\":10006:10021   */\n      revert\n        /* \"#utility.yul\":9870:10031   */\n    tag_932:\n      pop\n        /* \"#utility.yul\":9657:10037   */\n      swap2\n      swap1\n      pop\n      jump\t// out\n        /* \"#utility.yul\":10042:10331   */\n    tag_269:\n        /* \"#utility.yul\":10173:10176   */\n      0x00\n        /* \"#utility.yul\":10211:10217   */\n      dup3\n        /* \"#utility.yul\":10205:10218   */\n      mload\n        /* \"#utility.yul\":10227:10293   */\n      tag_934\n        /* \"#utility.yul\":10286:10292   */\n      dup2\n        /* \"#utility.yul\":10281:10284   */\n      dup5\n        /* \"#utility.yul\":10274:10278   */\n      0x20\n        /* \"#utility.yul\":10266:10272   */\n      dup8\n        /* \"#utility.yul\":10262:10279   */\n      add\n        /* \"#utility.yul\":10227:10293   */\n      tag_839\n      jump\t// in\n    tag_934:\n        /* \"#utility.yul\":10309:10325   */\n      swap2\n      swap1\n      swap2\n      add\n      swap3\n        /* \"#utility.yul\":10042:10331   */\n      swap2\n      pop\n      pop\n      jump\t// out\n        /* \"#utility.yul\":10336:10463   */\n    tag_846:\n        /* \"#utility.yul\":10397:10407   */\n      0x4e487b71\n        /* \"#utility.yul\":10392:10395   */\n      0xe0\n        /* \"#utility.yul\":10388:10408   */\n      shl\n        /* \"#utility.yul\":10385:10386   */\n      0x00\n        /* \"#utility.yul\":10378:10409   */\n      mstore\n        /* \"#utility.yul\":10428:10432   */\n      0x11\n        /* \"#utility.yul\":10425:10426   */\n      0x04\n        /* \"#utility.yul\":10418:10433   */\n      mstore\n        /* \"#utility.yul\":10452:10456   */\n      0x24\n        /* \"#utility.yul\":10449:10450   */\n      0x00\n        /* \"#utility.yul\":10442:10457   */\n      revert\n        /* \"#utility.yul\":10468:10596   */\n    tag_271:\n        /* \"#utility.yul\":10535:10544   */\n      dup2\n      dup2\n      sub\n        /* \"#utility.yul\":10556:10567   */\n      dup2\n      dup2\n      gt\n        /* \"#utility.yul\":10553:10590   */\n      iszero\n      tag_257\n      jumpi\n        /* \"#utility.yul\":10570:10588   */\n      tag_257\n      tag_846\n      jump\t// in\n        /* \"#utility.yul\":10601:10728   */\n    tag_274:\n        /* \"#utility.yul\":10662:10672   */\n      0x4e487b71\n        /* \"#utility.yul\":10657:10660   */\n      0xe0\n        /* \"#utility.yul\":10653:10673   */\n      shl\n        /* \"#utility.yul\":10650:10651   */\n      0x00\n        /* \"#utility.yul\":10643:10674   */\n      mstore\n        /* \"#utility.yul\":10693:10697   */\n      0x32\n        /* \"#utility.yul\":10690:10691   */\n      0x04\n        /* \"#utility.yul\":10683:10698   */\n      mstore\n        /* \"#utility.yul\":10717:10721   */\n      0x24\n        /* \"#utility.yul\":10714:10715   */\n      0x00\n        /* \"#utility.yul\":10707:10722   */\n      revert\n        /* \"#utility.yul\":10733:11065   */\n    tag_283:\n        /* \"#utility.yul\":10935:10937   */\n      0x20\n        /* \"#utility.yul\":10917:10938   */\n      dup1\n      dup3\n      mstore\n        /* \"#utility.yul\":10974:10975   */\n      0x09\n        /* \"#utility.yul\":10954:10972   */\n      swap1\n      dup3\n      add\n        /* \"#utility.yul\":10947:10976   */\n      mstore\n      shl(0xb9, 0x3737ba1037bbb732b9)\n        /* \"#utility.yul\":11007:11009   */\n      0x40\n        /* \"#utility.yul\":10992:11010   */\n      dup3\n      add\n        /* \"#utility.yul\":10985:11024   */\n      mstore\n        /* \"#utility.yul\":11056:11058   */\n      0x60\n        /* \"#utility.yul\":11041:11059   */\n      add\n      swap1\n        /* \"#utility.yul\":10733:11065   */\n      jump\t// out\n        /* \"#utility.yul\":11070:11415   */\n    tag_291:\n        /* \"#utility.yul\":11272:11274   */\n      0x20\n        /* \"#utility.yul\":11254:11275   */\n      dup1\n      dup3\n      mstore\n        /* \"#utility.yul\":11311:11313   */\n      0x15\n        /* \"#utility.yul\":11291:11309   */\n      swap1\n      dup3\n      add\n        /* \"#utility.yul\":11284:11314   */\n      mstore\n      shl(0x58, 0x626c6f636b636861696e206e6f7420657869737473)\n        /* \"#utility.yul\":11345:11347   */\n      0x40\n        /* \"#utility.yul\":11330:11348   */\n      dup3\n      add\n        /* \"#utility.yul\":11323:11374   */\n      mstore\n        /* \"#utility.yul\":11406:11408   */\n      0x60\n        /* \"#utility.yul\":11391:11409   */\n      add\n      swap1\n        /* \"#utility.yul\":11070:11415   */\n      jump\t// out\n        /* \"#utility.yul\":11420:11782   */\n    tag_298:\n        /* \"#utility.yul\":11625:11627   */\n      0x60\n        /* \"#utility.yul\":11614:11623   */\n      dup2\n        /* \"#utility.yul\":11607:11628   */\n      mstore\n        /* \"#utility.yul\":11588:11592   */\n      0x00\n        /* \"#utility.yul\":11645:11690   */\n      tag_943\n        /* \"#utility.yul\":11686:11688   */\n      0x60\n        /* \"#utility.yul\":11675:11684   */\n      dup4\n        /* \"#utility.yul\":11671:11689   */\n      add\n        /* \"#utility.yul\":11663:11669   */\n      dup7\n        /* \"#utility.yul\":11645:11690   */\n      tag_840\n      jump\t// in\n    tag_943:\n        /* \"#utility.yul\":11721:11723   */\n      0x20\n        /* \"#utility.yul\":11706:11724   */\n      dup4\n      add\n        /* \"#utility.yul\":11699:11733   */\n      swap5\n      swap1\n      swap5\n      mstore\n      pop\n        /* \"#utility.yul\":11764:11766   */\n      0x40\n        /* \"#utility.yul\":11749:11767   */\n      add\n        /* \"#utility.yul\":11742:11776   */\n      mstore\n        /* \"#utility.yul\":11637:11690   */\n      swap2\n        /* \"#utility.yul\":11420:11782   */\n      swap1\n      pop\n      jump\t// out\n        /* \"#utility.yul\":15178:15362   */\n    tag_391:\n        /* \"#utility.yul\":15248:15254   */\n      0x00\n        /* \"#utility.yul\":15301:15303   */\n      0x20\n        /* \"#utility.yul\":15289:15298   */\n      dup3\n        /* \"#utility.yul\":15280:15287   */\n      dup5\n        /* \"#utility.yul\":15276:15299   */\n      sub\n        /* \"#utility.yul\":15272:15304   */\n      slt\n        /* \"#utility.yul\":15269:15321   */\n      iszero\n      tag_955\n      jumpi\n        /* \"#utility.yul\":15317:15318   */\n      0x00\n        /* \"#utility.yul\":15314:15315   */\n      dup1\n        /* \"#utility.yul\":15307:15319   */\n      revert\n        /* \"#utility.yul\":15269:15321   */\n    tag_955:\n      pop\n        /* \"#utility.yul\":15340:15356   */\n      mload\n      swap2\n        /* \"#utility.yul\":15178:15362   */\n      swap1\n      pop\n      jump\t// out\n        /* \"#utility.yul\":15493:16011   */\n    tag_848:\n        /* \"#utility.yul\":15595:15597   */\n      0x1f\n        /* \"#utility.yul\":15590:15593   */\n      dup3\n        /* \"#utility.yul\":15587:15598   */\n      gt\n        /* \"#utility.yul\":15584:16005   */\n      iszero\n      tag_655\n      jumpi\n        /* \"#utility.yul\":15631:15636   */\n      dup1\n        /* \"#utility.yul\":15628:15629   */\n      0x00\n        /* \"#utility.yul\":15621:15637   */\n      mstore\n        /* \"#utility.yul\":15675:15679   */\n      0x20\n        /* \"#utility.yul\":15672:15673   */\n      0x00\n        /* \"#utility.yul\":15662:15680   */\n      keccak256\n        /* \"#utility.yul\":15745:15747   */\n      0x1f\n        /* \"#utility.yul\":15733:15743   */\n      dup5\n        /* \"#utility.yul\":15729:15748   */\n      add\n        /* \"#utility.yul\":15726:15727   */\n      0x05\n        /* \"#utility.yul\":15722:15749   */\n      shr\n        /* \"#utility.yul\":15716:15720   */\n      dup2\n        /* \"#utility.yul\":15712:15750   */\n      add\n        /* \"#utility.yul\":15781:15785   */\n      0x20\n        /* \"#utility.yul\":15769:15779   */\n      dup6\n        /* \"#utility.yul\":15766:15786   */\n      lt\n        /* \"#utility.yul\":15763:15810   */\n      iszero\n      tag_959\n      jumpi\n      pop\n        /* \"#utility.yul\":15804:15808   */\n      dup1\n        /* \"#utility.yul\":15763:15810   */\n    tag_959:\n        /* \"#utility.yul\":15859:15861   */\n      0x1f\n        /* \"#utility.yul\":15854:15857   */\n      dup5\n        /* \"#utility.yul\":15850:15862   */\n      add\n        /* \"#utility.yul\":15847:15848   */\n      0x05\n        /* \"#utility.yul\":15843:15863   */\n      shr\n        /* \"#utility.yul\":15837:15841   */\n      dup3\n        /* \"#utility.yul\":15833:15864   */\n      add\n        /* \"#utility.yul\":15823:15864   */\n      swap2\n      pop\n        /* \"#utility.yul\":15914:15995   */\n    tag_960:\n        /* \"#utility.yul\":15932:15934   */\n      dup2\n        /* \"#utility.yul\":15925:15930   */\n      dup2\n        /* \"#utility.yul\":15922:15935   */\n      lt\n        /* \"#utility.yul\":15914:15995   */\n      iszero\n      tag_962\n      jumpi\n        /* \"#utility.yul\":15991:15992   */\n      0x00\n        /* \"#utility.yul\":15977:15993   */\n      dup2\n      sstore\n        /* \"#utility.yul\":15958:15959   */\n      0x01\n        /* \"#utility.yul\":15947:15960   */\n      add\n        /* \"#utility.yul\":15914:15995   */\n      jump(tag_960)\n    tag_962:\n        /* \"#utility.yul\":15918:15921   */\n      pop\n      pop\n        /* \"#utility.yul\":15493:16011   */\n      pop\n      pop\n      pop\n      jump\t// out\n        /* \"#utility.yul\":16187:17592   */\n    tag_435:\n        /* \"#utility.yul\":16306:16309   */\n      dup2\n        /* \"#utility.yul\":16300:16304   */\n      dup2\n        /* \"#utility.yul\":16297:16310   */\n      sub\n        /* \"#utility.yul\":16294:16320   */\n      tag_965\n      jumpi\n        /* \"#utility.yul\":16313:16318   */\n      pop\n      pop\n        /* \"#utility.yul\":16187:17592   */\n      jump\t// out\n        /* \"#utility.yul\":16294:16320   */\n    tag_965:\n        /* \"#utility.yul\":16343:16380   */\n      tag_966\n        /* \"#utility.yul\":16375:16378   */\n      dup3\n        /* \"#utility.yul\":16369:16379   */\n      sload\n        /* \"#utility.yul\":16343:16380   */\n      tag_262\n      jump\t// in\n    tag_966:\n        /* \"#utility.yul\":16403:16421   */\n      0xffffffffffffffff\n        /* \"#utility.yul\":16395:16401   */\n      dup2\n        /* \"#utility.yul\":16392:16422   */\n      gt\n        /* \"#utility.yul\":16389:16445   */\n      iszero\n      tag_968\n      jumpi\n        /* \"#utility.yul\":16425:16443   */\n      tag_968\n      tag_841\n      jump\t// in\n    tag_968:\n        /* \"#utility.yul\":16454:16551   */\n      tag_969\n        /* \"#utility.yul\":16544:16550   */\n      dup2\n        /* \"#utility.yul\":16504:16542   */\n      tag_970\n        /* \"#utility.yul\":16536:16540   */\n      dup5\n        /* \"#utility.yul\":16530:16541   */\n      sload\n        /* \"#utility.yul\":16504:16542   */\n      tag_262\n      jump\t// in\n    tag_970:\n        /* \"#utility.yul\":16498:16502   */\n      dup5\n        /* \"#utility.yul\":16454:16551   */\n      tag_848\n      jump\t// in\n    tag_969:\n        /* \"#utility.yul\":16577:16578   */\n      0x00\n        /* \"#utility.yul\":16605:16607   */\n      0x1f\n        /* \"#utility.yul\":16597:16603   */\n      dup3\n        /* \"#utility.yul\":16594:16608   */\n      gt\n        /* \"#utility.yul\":16622:16623   */\n      0x01\n        /* \"#utility.yul\":16617:17335   */\n      dup2\n      eq\n      tag_972\n      jumpi\n        /* \"#utility.yul\":17379:17380   */\n      0x00\n        /* \"#utility.yul\":17396:17402   */\n      dup4\n        /* \"#utility.yul\":17393:17482   */\n      iszero\n      tag_973\n      jumpi\n      pop\n        /* \"#utility.yul\":17448:17467   */\n      dup5\n      dup3\n      add\n        /* \"#utility.yul\":17442:17468   */\n      sload\n        /* \"#utility.yul\":17393:17482   */\n    tag_973:\n        /* \"#utility.yul\":16168:16169   */\n      0x01\n        /* \"#utility.yul\":16164:16175   */\n      dup5\n      swap1\n      shl\n      not(0x00)\n        /* \"#utility.yul\":16144:16145   */\n      0x03\n        /* \"#utility.yul\":16140:16151   */\n      dup7\n      swap1\n      shl\n        /* \"#utility.yul\":16136:16160   */\n      shr\n        /* \"#utility.yul\":16132:16161   */\n      not\n        /* \"#utility.yul\":16122:16162   */\n      dup3\n      and\n        /* \"#utility.yul\":16119:16176   */\n      or\n        /* \"#utility.yul\":17508:17575   */\n    tag_974:\n        /* \"#utility.yul\":17502:17506   */\n      dup6\n        /* \"#utility.yul\":17495:17576   */\n      sstore\n      pop\n        /* \"#utility.yul\":16587:17586   */\n      jump(tag_962)\n        /* \"#utility.yul\":16617:17335   */\n    tag_972:\n        /* \"#utility.yul\":15440:15441   */\n      0x00\n        /* \"#utility.yul\":15433:15447   */\n      dup6\n      dup2\n      mstore\n        /* \"#utility.yul\":15477:15481   */\n      0x20\n        /* \"#utility.yul\":15464:15482   */\n      swap1\n      keccak256\n      not(0x1f)\n        /* \"#utility.yul\":16653:16673   */\n      dup5\n      and\n      swap1\n        /* \"#utility.yul\":15440:15441   */\n      0x00\n        /* \"#utility.yul\":15433:15447   */\n      dup7\n      dup2\n      mstore\n        /* \"#utility.yul\":15477:15481   */\n      0x20\n        /* \"#utility.yul\":15464:15482   */\n      swap1\n      keccak256\n        /* \"#utility.yul\":16817:16826   */\n      dup5\n        /* \"#utility.yul\":16839:17060   */\n    tag_977:\n        /* \"#utility.yul\":16853:16860   */\n      dup4\n        /* \"#utility.yul\":16850:16851   */\n      dup2\n        /* \"#utility.yul\":16847:16861   */\n      lt\n        /* \"#utility.yul\":16839:17060   */\n      iszero\n      tag_979\n      jumpi\n        /* \"#utility.yul\":16935:16956   */\n      dup3\n      dup7\n      add\n        /* \"#utility.yul\":16929:16957   */\n      sload\n        /* \"#utility.yul\":16914:16958   */\n      dup3\n      sstore\n        /* \"#utility.yul\":16997:16998   */\n      0x01\n        /* \"#utility.yul\":17029:17046   */\n      swap6\n      dup7\n      add\n      swap6\n        /* \"#utility.yul\":16985:16999   */\n      swap1\n      swap2\n      add\n      swap1\n        /* \"#utility.yul\":16876:16880   */\n      0x20\n        /* \"#utility.yul\":16869:16881   */\n      add\n        /* \"#utility.yul\":16839:17060   */\n      jump(tag_977)\n    tag_979:\n        /* \"#utility.yul\":16843:16846   */\n      pop\n        /* \"#utility.yul\":17088:17094   */\n      dup6\n        /* \"#utility.yul\":17079:17086   */\n      dup4\n        /* \"#utility.yul\":17076:17095   */\n      lt\n        /* \"#utility.yul\":17073:17276   */\n      iszero\n      tag_980\n      jumpi\n        /* \"#utility.yul\":17149:17170   */\n      dup2\n      dup6\n      add\n        /* \"#utility.yul\":17143:17171   */\n      sload\n      not(0x00)\n        /* \"#utility.yul\":17234:17235   */\n      0x03\n        /* \"#utility.yul\":17230:17244   */\n      dup9\n      swap1\n      shl\n        /* \"#utility.yul\":17246:17249   */\n      0xf8\n        /* \"#utility.yul\":17226:17250   */\n      and\n        /* \"#utility.yul\":17222:17259   */\n      shr\n        /* \"#utility.yul\":17218:17260   */\n      not\n        /* \"#utility.yul\":17203:17261   */\n      and\n        /* \"#utility.yul\":17188:17262   */\n      dup2\n      sstore\n        /* \"#utility.yul\":17073:17276   */\n    tag_980:\n      pop\n      pop\n      pop\n      pop\n      pop\n        /* \"#utility.yul\":17322:17323   */\n      0x01\n        /* \"#utility.yul\":17306:17320   */\n      swap1\n      dup2\n      shl\n        /* \"#utility.yul\":17302:17324   */\n      add\n        /* \"#utility.yul\":17289:17325   */\n      swap1\n      sstore\n      pop\n        /* \"#utility.yul\":16187:17592   */\n      jump\t// out\n        /* \"#utility.yul\":17597:17722   */\n    tag_437:\n        /* \"#utility.yul\":17662:17671   */\n      dup1\n      dup3\n      add\n        /* \"#utility.yul\":17683:17693   */\n      dup1\n      dup3\n      gt\n        /* \"#utility.yul\":17680:17716   */\n      iszero\n      tag_257\n      jumpi\n        /* \"#utility.yul\":17696:17714   */\n      tag_257\n      tag_846\n      jump\t// in\n        /* \"#utility.yul\":17727:17854   */\n    tag_442:\n        /* \"#utility.yul\":17788:17798   */\n      0x4e487b71\n        /* \"#utility.yul\":17783:17786   */\n      0xe0\n        /* \"#utility.yul\":17779:17799   */\n      shl\n        /* \"#utility.yul\":17776:17777   */\n      0x00\n        /* \"#utility.yul\":17769:17800   */\n      mstore\n        /* \"#utility.yul\":17819:17823   */\n      0x31\n        /* \"#utility.yul\":17816:17817   */\n      0x04\n        /* \"#utility.yul\":17809:17824   */\n      mstore\n        /* \"#utility.yul\":17843:17847   */\n      0x24\n        /* \"#utility.yul\":17840:17841   */\n      0x00\n        /* \"#utility.yul\":17833:17848   */\n      revert\n        /* \"#utility.yul\":18205:19504   */\n    tag_467:\n        /* \"#utility.yul\":18331:18334   */\n      dup2\n        /* \"#utility.yul\":18325:18335   */\n      mload\n        /* \"#utility.yul\":18358:18376   */\n      0xffffffffffffffff\n        /* \"#utility.yul\":18350:18356   */\n      dup2\n        /* \"#utility.yul\":18347:18377   */\n      gt\n        /* \"#utility.yul\":18344:18400   */\n      iszero\n      tag_988\n      jumpi\n        /* \"#utility.yul\":18380:18398   */\n      tag_988\n      tag_841\n      jump\t// in\n    tag_988:\n        /* \"#utility.yul\":18409:18506   */\n      tag_989\n        /* \"#utility.yul\":18499:18505   */\n      dup2\n        /* \"#utility.yul\":18459:18497   */\n      tag_970\n        /* \"#utility.yul\":18491:18495   */\n      dup5\n        /* \"#utility.yul\":18485:18496   */\n      sload\n        /* \"#utility.yul\":18459:18497   */\n      tag_262\n      jump\t// in\n        /* \"#utility.yul\":18409:18506   */\n    tag_989:\n        /* \"#utility.yul\":18555:18559   */\n      0x20\n        /* \"#utility.yul\":18586:18588   */\n      0x1f\n        /* \"#utility.yul\":18575:18589   */\n      dup3\n      gt\n        /* \"#utility.yul\":18603:18604   */\n      0x01\n        /* \"#utility.yul\":18598:19247   */\n      dup2\n      eq\n      tag_992\n      jumpi\n        /* \"#utility.yul\":19291:19292   */\n      0x00\n        /* \"#utility.yul\":19308:19314   */\n      dup4\n        /* \"#utility.yul\":19305:19394   */\n      iszero\n      tag_973\n      jumpi\n      pop\n        /* \"#utility.yul\":19360:19379   */\n      dup2\n      dup6\n      add\n        /* \"#utility.yul\":19354:19380   */\n      mload\n        /* \"#utility.yul\":16168:16169   */\n      0x01\n        /* \"#utility.yul\":16164:16175   */\n      dup5\n      swap1\n      shl\n      not(0x00)\n        /* \"#utility.yul\":16144:16145   */\n      0x03\n        /* \"#utility.yul\":16140:16151   */\n      dup7\n      swap1\n      shl\n        /* \"#utility.yul\":16136:16160   */\n      shr\n        /* \"#utility.yul\":16132:16161   */\n      not\n        /* \"#utility.yul\":16122:16162   */\n      dup3\n      and\n        /* \"#utility.yul\":16119:16176   */\n      or\n        /* \"#utility.yul\":19420:19487   */\n      tag_974\n        /* \"#utility.yul\":16016:16182   */\n      jump\n        /* \"#utility.yul\":18598:19247   */\n    tag_992:\n        /* \"#utility.yul\":15440:15441   */\n      0x00\n        /* \"#utility.yul\":15433:15447   */\n      dup5\n      dup2\n      mstore\n        /* \"#utility.yul\":15477:15481   */\n      0x20\n        /* \"#utility.yul\":15464:15482   */\n      dup2\n      keccak256\n      not(0x1f)\n        /* \"#utility.yul\":18634:18654   */\n      dup6\n      and\n      swap2\n        /* \"#utility.yul\":18752:18974   */\n    tag_996:\n        /* \"#utility.yul\":18766:18773   */\n      dup3\n        /* \"#utility.yul\":18763:18764   */\n      dup2\n        /* \"#utility.yul\":18760:18774   */\n      lt\n        /* \"#utility.yul\":18752:18974   */\n      iszero\n      tag_998\n      jumpi\n        /* \"#utility.yul\":18848:18867   */\n      dup8\n      dup6\n      add\n        /* \"#utility.yul\":18842:18868   */\n      mload\n        /* \"#utility.yul\":18827:18869   */\n      dup3\n      sstore\n        /* \"#utility.yul\":18955:18959   */\n      0x20\n        /* \"#utility.yul\":18940:18960   */\n      swap5\n      dup6\n      add\n      swap5\n        /* \"#utility.yul\":18908:18909   */\n      0x01\n        /* \"#utility.yul\":18896:18910   */\n      swap1\n      swap3\n      add\n      swap2\n        /* \"#utility.yul\":18782:18794   */\n      add\n        /* \"#utility.yul\":18752:18974   */\n      jump(tag_996)\n    tag_998:\n        /* \"#utility.yul\":18756:18759   */\n      pop\n        /* \"#utility.yul\":19002:19008   */\n      dup5\n        /* \"#utility.yul\":18993:19000   */\n      dup3\n        /* \"#utility.yul\":18990:19009   */\n      lt\n        /* \"#utility.yul\":18987:19188   */\n      iszero\n      tag_999\n      jumpi\n        /* \"#utility.yul\":19063:19082   */\n      dup7\n      dup5\n      add\n        /* \"#utility.yul\":19057:19083   */\n      mload\n      not(0x00)\n        /* \"#utility.yul\":19146:19147   */\n      0x03\n        /* \"#utility.yul\":19142:19156   */\n      dup8\n      swap1\n      shl\n        /* \"#utility.yul\":19158:19161   */\n      0xf8\n        /* \"#utility.yul\":19138:19162   */\n      and\n        /* \"#utility.yul\":19134:19171   */\n      shr\n        /* \"#utility.yul\":19130:19172   */\n      not\n        /* \"#utility.yul\":19115:19173   */\n      and\n        /* \"#utility.yul\":19100:19174   */\n      dup2\n      sstore\n        /* \"#utility.yul\":18987:19188   */\n    tag_999:\n      pop\n      pop\n      pop\n      pop\n        /* \"#utility.yul\":19234:19235   */\n      0x01\n        /* \"#utility.yul\":19218:19232   */\n      swap1\n      dup2\n      shl\n        /* \"#utility.yul\":19214:19236   */\n      add\n        /* \"#utility.yul\":19201:19237   */\n      swap1\n      sstore\n      pop\n        /* \"#utility.yul\":18205:19504   */\n      jump\t// out\n        /* \"#utility.yul\":20553:20826   */\n    tag_487:\n        /* \"#utility.yul\":20738:20744   */\n      dup2\n        /* \"#utility.yul\":20730:20736   */\n      dup4\n        /* \"#utility.yul\":20725:20728   */\n      dup3\n        /* \"#utility.yul\":20712:20745   */\n      calldatacopy\n        /* \"#utility.yul\":20694:20697   */\n      0x00\n        /* \"#utility.yul\":20764:20780   */\n      swap2\n      add\n        /* \"#utility.yul\":20789:20802   */\n      swap1\n      dup2\n      mstore\n        /* \"#utility.yul\":20764:20780   */\n      swap2\n        /* \"#utility.yul\":20553:20826   */\n      swap1\n      pop\n      jump\t// out\n        /* \"#utility.yul\":22258:22426   */\n    tag_509:\n        /* \"#utility.yul\":22331:22340   */\n      dup1\n      dup3\n      mul\n        /* \"#utility.yul\":22362:22371   */\n      dup2\n      iszero\n        /* \"#utility.yul\":22379:22394   */\n      dup3\n      dup3\n      div\n        /* \"#utility.yul\":22373:22395   */\n      dup5\n      eq\n        /* \"#utility.yul\":22359:22396   */\n      or\n        /* \"#utility.yul\":22349:22420   */\n      tag_257\n      jumpi\n        /* \"#utility.yul\":22400:22418   */\n      tag_257\n      tag_846\n      jump\t// in\n        /* \"#utility.yul\":22431:22648   */\n    tag_511:\n        /* \"#utility.yul\":22471:22472   */\n      0x00\n        /* \"#utility.yul\":22497:22498   */\n      dup3\n        /* \"#utility.yul\":22487:22619   */\n      tag_1012\n      jumpi\n        /* \"#utility.yul\":22541:22551   */\n      0x4e487b71\n        /* \"#utility.yul\":22536:22539   */\n      0xe0\n        /* \"#utility.yul\":22532:22552   */\n      shl\n        /* \"#utility.yul\":22529:22530   */\n      0x00\n        /* \"#utility.yul\":22522:22553   */\n      mstore\n        /* \"#utility.yul\":22576:22580   */\n      0x12\n        /* \"#utility.yul\":22573:22574   */\n      0x04\n        /* \"#utility.yul\":22566:22581   */\n      mstore\n        /* \"#utility.yul\":22604:22608   */\n      0x24\n        /* \"#utility.yul\":22601:22602   */\n      0x00\n        /* \"#utility.yul\":22594:22609   */\n      revert\n        /* \"#utility.yul\":22487:22619   */\n    tag_1012:\n      pop\n        /* \"#utility.yul\":22633:22642   */\n      div\n      swap1\n        /* \"#utility.yul\":22431:22648   */\n      jump\t// out\n        /* \"#utility.yul\":22653:22920   */\n    tag_850:\n        /* \"#utility.yul\":22742:22748   */\n      dup2\n        /* \"#utility.yul\":22737:22740   */\n      dup4\n        /* \"#utility.yul\":22730:22749   */\n      mstore\n        /* \"#utility.yul\":22794:22800   */\n      dup2\n        /* \"#utility.yul\":22787:22792   */\n      dup2\n        /* \"#utility.yul\":22780:22784   */\n      0x20\n        /* \"#utility.yul\":22775:22778   */\n      dup6\n        /* \"#utility.yul\":22771:22785   */\n      add\n        /* \"#utility.yul\":22758:22801   */\n      calldatacopy\n      pop\n        /* \"#utility.yul\":22846:22847   */\n      0x00\n        /* \"#utility.yul\":22821:22837   */\n      dup3\n      dup3\n      add\n        /* \"#utility.yul\":22839:22843   */\n      0x20\n        /* \"#utility.yul\":22817:22844   */\n      swap1\n      dup2\n      add\n        /* \"#utility.yul\":22810:22848   */\n      swap2\n      swap1\n      swap2\n      mstore\n        /* \"#utility.yul\":22902:22904   */\n      0x1f\n        /* \"#utility.yul\":22881:22896   */\n      swap1\n      swap2\n      add\n      not(0x1f)\n        /* \"#utility.yul\":22877:22906   */\n      and\n        /* \"#utility.yul\":22868:22907   */\n      swap1\n      swap2\n      add\n        /* \"#utility.yul\":22864:22914   */\n      add\n      swap1\n        /* \"#utility.yul\":22653:22920   */\n      jump\t// out\n        /* \"#utility.yul\":22925:23532   */\n    tag_536:\n        /* \"#utility.yul\":23227:23228   */\n      0x01\n        /* \"#utility.yul\":23223:23224   */\n      dup1\n        /* \"#utility.yul\":23218:23221   */\n      0xa0\n        /* \"#utility.yul\":23214:23225   */\n      shl\n        /* \"#utility.yul\":23210:23229   */\n      sub\n        /* \"#utility.yul\":23202:23208   */\n      dup8\n        /* \"#utility.yul\":23198:23230   */\n      and\n        /* \"#utility.yul\":23187:23196   */\n      dup2\n        /* \"#utility.yul\":23180:23231   */\n      mstore\n        /* \"#utility.yul\":23267:23273   */\n      dup6\n        /* \"#utility.yul\":23262:23264   */\n      0x20\n        /* \"#utility.yul\":23251:23260   */\n      dup3\n        /* \"#utility.yul\":23247:23265   */\n      add\n        /* \"#utility.yul\":23240:23274   */\n      mstore\n        /* \"#utility.yul\":23310:23313   */\n      0x80\n        /* \"#utility.yul\":23305:23307   */\n      0x40\n        /* \"#utility.yul\":23294:23303   */\n      dup3\n        /* \"#utility.yul\":23290:23308   */\n      add\n        /* \"#utility.yul\":23283:23314   */\n      mstore\n        /* \"#utility.yul\":23161:23165   */\n      0x00\n        /* \"#utility.yul\":23337:23400   */\n      tag_1015\n        /* \"#utility.yul\":23395:23398   */\n      0x80\n        /* \"#utility.yul\":23384:23393   */\n      dup4\n        /* \"#utility.yul\":23380:23399   */\n      add\n        /* \"#utility.yul\":23372:23378   */\n      dup7\n        /* \"#utility.yul\":23364:23370   */\n      dup9\n        /* \"#utility.yul\":23337:23400   */\n      tag_850\n      jump\t// in\n    tag_1015:\n        /* \"#utility.yul\":23448:23457   */\n      dup3\n        /* \"#utility.yul\":23440:23446   */\n      dup2\n        /* \"#utility.yul\":23436:23458   */\n      sub\n        /* \"#utility.yul\":23431:23433   */\n      0x60\n        /* \"#utility.yul\":23420:23429   */\n      dup5\n        /* \"#utility.yul\":23416:23434   */\n      add\n        /* \"#utility.yul\":23409:23459   */\n      mstore\n        /* \"#utility.yul\":23476:23526   */\n      tag_1016\n        /* \"#utility.yul\":23519:23525   */\n      dup2\n        /* \"#utility.yul\":23511:23517   */\n      dup6\n        /* \"#utility.yul\":23503:23509   */\n      dup8\n        /* \"#utility.yul\":23476:23526   */\n      tag_850\n      jump\t// in\n    tag_1016:\n        /* \"#utility.yul\":23468:23526   */\n      swap10\n        /* \"#utility.yul\":22925:23532   */\n      swap9\n      pop\n      pop\n      pop\n      pop\n      pop\n      pop\n      pop\n      pop\n      pop\n      jump\t// out\n        /* \"#utility.yul\":23885:24294   */\n    tag_621:\n        /* \"#utility.yul\":24087:24089   */\n      0x20\n        /* \"#utility.yul\":24069:24090   */\n      dup1\n      dup3\n      mstore\n        /* \"#utility.yul\":24126:24128   */\n      0x2d\n        /* \"#utility.yul\":24106:24124   */\n      swap1\n      dup3\n      add\n        /* \"#utility.yul\":24099:24129   */\n      mstore\n        /* \"#utility.yul\":24165:24199   */\n      0x496e73756666696369656e74206e617469766520746f6b656e2062616c616e63\n        /* \"#utility.yul\":24160:24162   */\n      0x40\n        /* \"#utility.yul\":24145:24163   */\n      dup3\n      add\n        /* \"#utility.yul\":24138:24200   */\n      mstore\n      shl(0x9a, 0x19481a5b8818dbdb9d1c9858dd)\n        /* \"#utility.yul\":24231:24233   */\n      0x60\n        /* \"#utility.yul\":24216:24234   */\n      dup3\n      add\n        /* \"#utility.yul\":24209:24252   */\n      mstore\n        /* \"#utility.yul\":24284:24287   */\n      0x80\n        /* \"#utility.yul\":24269:24288   */\n      add\n      swap1\n        /* \"#utility.yul\":23885:24294   */\n      jump\t// out\n        /* \"#utility.yul\":29804:30081   */\n    tag_805:\n        /* \"#utility.yul\":29871:29877   */\n      0x00\n        /* \"#utility.yul\":29924:29926   */\n      0x20\n        /* \"#utility.yul\":29912:29921   */\n      dup3\n        /* \"#utility.yul\":29903:29910   */\n      dup5\n        /* \"#utility.yul\":29899:29922   */\n      sub\n        /* \"#utility.yul\":29895:29927   */\n      slt\n        /* \"#utility.yul\":29892:29944   */\n      iszero\n      tag_1036\n      jumpi\n        /* \"#utility.yul\":29940:29941   */\n      0x00\n        /* \"#utility.yul\":29937:29938   */\n      dup1\n        /* \"#utility.yul\":29930:29942   */\n      revert\n        /* \"#utility.yul\":29892:29944   */\n    tag_1036:\n        /* \"#utility.yul\":29972:29981   */\n      dup2\n        /* \"#utility.yul\":29966:29982   */\n      mload\n        /* \"#utility.yul\":30025:30030   */\n      dup1\n        /* \"#utility.yul\":30018:30031   */\n      iszero\n        /* \"#utility.yul\":30011:30032   */\n      iszero\n        /* \"#utility.yul\":30004:30009   */\n      dup2\n        /* \"#utility.yul\":30001:30033   */\n      eq\n        /* \"#utility.yul\":29991:30051   */\n      tag_809\n      jumpi\n        /* \"#utility.yul\":30047:30048   */\n      0x00\n        /* \"#utility.yul\":30044:30045   */\n      dup1\n        /* \"#utility.yul\":30037:30049   */\n      revert\n    stop\n    data_d6a6016c81f51cb4dddbbc8ef9ddf0093cf3b17d39f0f71122b555af630af1fe 8227712ef8ad39d0f26f06731ef0df8665eb7ada7f41b1ee089adf3c238862a2\n\n    auxdata: 0xa2646970667358221220d26a9dc39e914ecb47e8b2b09ad46f6fd71dd28d5920d1ad6d695dc7bc58146064736f6c634300081a0033\n}\n",
				"bytecode": {
					"linkReferences": {},
					"object": "6080604052348015600f57600080fd5b50601e6301ffc9a760e01b602c565b6002805460ff1916905560ae565b6001600160e01b0319808216900360895760405162461bcd60e51b815260206004820152601c60248201527f4552433136353a20696e76616c696420696e7465726661636520696400000000604482015260640160405180910390fd5b6001600160e01b0319166000908152602081905260409020805460ff19166001179055565b6133af806100bd6000396000f3fe60806040526004361061024a5760003560e01c80638689b32211610139578063c4251339116100b6578063f11b7c331161007a578063f11b7c33146106a4578063f2e1fa65146106b9578063f2fcdbd3146106d9578063f2fde38b146106f9578063fae36afb14610719578063fc0c546a1461075157600080fd5b8063c425133914610604578063c9b4d65314610624578063d542a50114610644578063d547741f14610664578063e8340a991461068457600080fd5b8063b715f98f116100fd578063b715f98f14610552578063b8c48a2814610574578063bb13ca3b14610594578063be4b1772146105b4578063c1f0808a146105d457600080fd5b80638689b322146104ca57806391d14854146104ea5780639d1e034d1461050a578063a217fddf1461052a578063a36185f41461053f57600080fd5b80634d9b47e2116101c7578063646ac61c1161018b578063646ac61c146104545780636d2133e11461046a5780637dad0d571461048057806382b2e257146104a05780638456cb59146104b557600080fd5b80634d9b47e2146103ba578063525a34e3146103dc5780635a075f92146103fc5780635c975abb1461041c5780635d27fc701461043457600080fd5b806329c9a4da1161020e57806329c9a4da1461032d5780632a76e4811461034d5780632f2ff15d1461036357806336568abe146103855780633f4ba83a146103a557600080fd5b806301c234a81461025657806301ffc9a71461027f5780631d316a5d146102af578063212258a8146102dc578063248a9ca3146102fc57600080fd5b3661025157005b600080fd5b34801561026257600080fd5b5061026c6103e881565b6040519081526020015b60405180910390f35b34801561028b57600080fd5b5061029f61029a366004612a5d565b610776565b6040519015158152602001610276565b3480156102bb57600080fd5b506102cf6102ca366004612a87565b6107b6565b6040516102769190612af0565b3480156102e857600080fd5b5061026c6102f7366004612ba8565b610862565b34801561030857600080fd5b5061026c610317366004612a87565b6000908152600160208190526040909120015490565b34801561033957600080fd5b5061029f610348366004612be5565b6108b3565b34801561035957600080fd5b5061026c60055481565b34801561036f57600080fd5b5061038361037e366004612c3f565b6109c5565b005b34801561039157600080fd5b506103836103a0366004612c3f565b6109f1565b3480156103b157600080fd5b50610383610aa4565b3480156103c657600080fd5b5061026c60008051602061335a83398151915281565b3480156103e857600080fd5b5061029f6103f7366004612a87565b610ad5565b34801561040857600080fd5b5061029f610417366004612a87565b610b92565b34801561042857600080fd5b5060025460ff1661029f565b34801561044057600080fd5b5061029f61044f366004612c6f565b610bc3565b34801561046057600080fd5b5061026c60035481565b34801561047657600080fd5b5061026c60045481565b34801561048c57600080fd5b5061029f61049b366004612ce9565b610c13565b3480156104ac57600080fd5b5061026c610e35565b3480156104c157600080fd5b50610383610ec8565b3480156104d657600080fd5b5061029f6104e5366004612ba8565b610ef7565b3480156104f657600080fd5b5061029f610505366004612c3f565b611173565b34801561051657600080fd5b5061026c610525366004612be5565b61119e565b34801561053657600080fd5b5061026c600081565b61029f61054d366004612d6c565b6112c8565b34801561055e57600080fd5b506105676117b3565b6040516102769190612deb565b34801561058057600080fd5b5061029f61058f366004612c6f565b61188c565b3480156105a057600080fd5b5061029f6105af366004612ba8565b6118d4565b3480156105c057600080fd5b5061029f6105cf366004612c3f565b611b27565b3480156105e057600080fd5b5061029f6105ef366004612a87565b60076020526000908152604090205460ff1681565b34801561061057600080fd5b506102cf61061f366004612a87565b611cc6565b34801561063057600080fd5b5061029f61063f366004612ba8565b611cd6565b34801561065057600080fd5b5061038361065f366004612e50565b611d06565b34801561067057600080fd5b5061038361067f366004612c3f565b611efb565b34801561069057600080fd5b5061026c61069f366004612eab565b611f26565b3480156106b057600080fd5b50610567611f88565b3480156106c557600080fd5b5061029f6106d4366004612ba8565b612058565b3480156106e557600080fd5b5061026c6106f4366004612ba8565b61206a565b34801561070557600080fd5b5061029f610714366004612c6f565b612190565b34801561072557600080fd5b50600654610739906001600160a01b031681565b6040516001600160a01b039091168152602001610276565b34801561075d57600080fd5b506002546107399061010090046001600160a01b031681565b60006001600160e01b03198216637965db0b60e01b14806107b057506001600160e01b0319821660009081526020819052604090205460ff165b92915050565b600c81815481106107c657600080fd5b9060005260206000200160009150905080546107e190612efd565b80601f016020809104026020016040519081016040528092919081815260200182805461080d90612efd565b801561085a5780601f1061082f5761010080835404028352916020019161085a565b820191906000526020600020905b81548152906001019060200180831161083d57829003601f168201915b505050505081565b6000600b60016009846040516108789190612f37565b9081526020016040518091039020546108919190612f69565b815481106108a1576108a1612f7c565b60009182526020909120015492915050565b60006108bf8133611173565b6108e45760405162461bcd60e51b81526004016108db90612f92565b60405180910390fd5b6108ec6122a9565b6108f583612058565b6109115760405162461bcd60e51b81526004016108db90612fb5565b600060016009856040516109259190612f37565b90815260200160405180910390205461093e9190612f69565b90507f4b44a0f1f9ad83f48ce1c55d8b93720658c4dbdd91f7c1d3f22612cd6474ab7b84600b838154811061097557610975612f7c565b90600052602060002001600001548560405161099393929190612fe4565b60405180910390a182600b82815481106109af576109af612f7c565b6000918252602090912001555060019392505050565b600082815260016020819052604090912001546109e1816122ef565b6109eb83836122fc565b50505050565b81610a3e5760405162461bcd60e51b815260206004820152601b60248201527f63616e206e6f742072656e6f756e636520726f6c65206f776e6572000000000060448201526064016108db565b6001600160a01b0381163314610a965760405162461bcd60e51b815260206004820181905260248201527f63616e206f6e6c792072656e6f756e636520726f6c657320666f722073656c6660448201526064016108db565b610aa08282612375565b5050565b610aaf600033611173565b610acb5760405162461bcd60e51b81526004016108db90612f92565b610ad36123a8565b565b6000610ae18133611173565b610afd5760405162461bcd60e51b81526004016108db90612f92565b610b056122a9565b6064821115610b485760405162461bcd60e51b815260206004820152600f60248201526e426967676572207468616e2031302560881b60448201526064016108db565b60055460408051918252602082018490527f423d9a8a1d4011c45245817ab10cc09937b0786496dad82dba18141ca4fb7c8e910160405180910390a150600581905560015b919050565b6000610b9e8133611173565b610bba5760405162461bcd60e51b81526004016108db90612f92565b50600455600190565b6000610bcf8133611173565b610beb5760405162461bcd60e51b81526004016108db90612f92565b610bf36122a9565b610c0b60008051602061335a83398151915283611efb565b506001919050565b6000610c2d60008051602061335a83398151915233611173565b610c675760405162461bcd60e51b815260206004820152600b60248201526a3737ba1036b7b734ba37b960a91b60448201526064016108db565b610c6f6122a9565b6001600160a01b038816610cb85760405162461bcd60e51b815260206004820152601060248201526f7265636569766572206973207a65726f60801b60448201526064016108db565b60008711610cf65760405162461bcd60e51b815260206004820152600b60248201526a0616d6f756e7420697320360ac1b60448201526064016108db565b610d3586868080601f016020809104026020016040519081016040528093929190818152602001838380828437600092019190915250611cd692505050565b610d815760405162461bcd60e51b815260206004820152601960248201527f66726f6d426c6f636b636861696e206e6f74206578697374730000000000000060448201526064016108db565b83610dc25760405162461bcd60e51b8152602060048201526011602482015270189b1bd8dad2185cda081a5cc81b9d5b1b607a1b60448201526064016108db565b82610e0f5760405162461bcd60e51b815260206004820152601760248201527f7472616e73616374696f6e48617368206973206e756c6c00000000000000000060448201526064016108db565b610e1c84848a8a866123fa565b610e268888612477565b50600198975050505050505050565b60025460009061010090046001600160a01b031615610ec3576002546040516370a0823160e01b81523060048201526101009091046001600160a01b0316906370a0823190602401602060405180830381865afa158015610e9a573d6000803e3d6000fd5b505050506040513d601f19601f82011682018060405250810190610ebe9190613009565b905090565b504790565b610ed3600033611173565b610eef5760405162461bcd60e51b81526004016108db90612f92565b610ad361259b565b6000610f038133611173565b610f1f5760405162461bcd60e51b81526004016108db90612f92565b610f276122a9565b610f3082612058565b610f4c5760405162461bcd60e51b81526004016108db90612fb5565b60006001600984604051610f609190612f37565b908152602001604051809103902054610f799190612f69565b600b54909150600090610f8e90600190612f69565b90506000600d8281548110610fa557610fa5612f7c565b906000526020600020018054610fba90612efd565b80601f0160208091040260200160405190810160405280929190818152602001828054610fe690612efd565b80156110335780601f1061100857610100808354040283529160200191611033565b820191906000526020600020905b81548152906001019060200180831161101657829003601f168201915b50505050509050600b828154811061104d5761104d612f7c565b90600052602060002001600b848154811061106a5761106a612f7c565b600091825260209091209154910155600d80548390811061108d5761108d612f7c565b90600052602060002001600d84815481106110aa576110aa612f7c565b9060005260206000200190816110c09190613070565b506110cc836001613150565b6009826040516110dc9190612f37565b9081526020016040518091039020819055506009856040516110fe9190612f37565b908152602001604051809103902060009055600b80548061112157611121613163565b600082815260208120820160001990810191909155019055600d80548061114a5761114a613163565b6001900381819060005260206000200160006111669190612a0f565b9055506001949350505050565b60009182526001602090815260408084206001600160a01b0393909316845291905290205460ff1690565b60006111aa8133611173565b6111c65760405162461bcd60e51b81526004016108db90612f92565b6111ce6122a9565b6111d783612058565b156112185760405162461bcd60e51b8152602060048201526011602482015270626c6f636b636861696e2065786973747360781b60448201526064016108db565b6040805160208101909152828152600b805460018082018355600092835283517f0175b7a638427703f0dbe7bb9bbf987a2551717b34e79f33b5b1008d1fa01db990920191909155600d805491820181559091527fd7b6990105719101dabeb77144f2a3385c8033acd3af97e9423a695e81ad1eb5016112988582613179565b50600b5460405181906009906112af908890612f37565b9081526040519081900360200190205591505092915050565b600033321461130d5760405162461bcd60e51b815260206004820152601160248201527043616c6c6572206973206e6f7420454f4160781b60448201526064016108db565b6113156122a9565b61135485858080601f01602080910402602001604051908101604052809392919081815260200183838082843760009201919091525061205892505050565b6113a05760405162461bcd60e51b815260206004820152601760248201527f746f426c6f636b636861696e206e6f742065786973747300000000000000000060448201526064016108db565b6113ed83838080601f0160208091040260200160405190810160405280939291908181526020018383808284376000920182905250604080516020810190915290815292506125d8915050565b1561142e5760405162461bcd60e51b81526020600482015260116024820152701d1bd059191c995cdcc81a5cc81b9d5b1b607a1b60448201526064016108db565b6000600160098787604051611444929190613230565b90815260200160405180910390205461145d9190612f69565b90506000871161149d5760405162461bcd60e51b815260206004820152600b60248201526a0616d6f756e7420697320360ac1b60448201526064016108db565b600b81815481106114b0576114b0612f7c565b906000526020600020016000015487101561150d5760405162461bcd60e51b815260206004820152601b60248201527f616d6f756e74206973206c657373207468616e206d696e696d756d000000000060448201526064016108db565b602a831461155d5760405162461bcd60e51b815260206004820152601b60248201527f696e76616c69642064657374696e6174696f6e2061646472657373000000000060448201526064016108db565b6004543410156115af5760405162461bcd60e51b815260206004820152601a60248201527f496e76616c696420666565206e6174697665206272696467652e00000000000060448201526064016108db565b60025461010090046001600160a01b031661161f576004546115d19088613150565b341461161f5760405162461bcd60e51b815260206004820152601f60248201527f72657175697265643a20666565206e6174697665206e6f7420656e6f7567680060448201526064016108db565b60006103e8600554896116329190613240565b61163c9190613257565b9050600061164a828a612f69565b9050816003600082825461165e9190613150565b90915550506006546004546001600160a01b03909116901561169157600454611691906001600160a01b03831690612631565b60025461010090046001600160a01b03161561170f576116c43360025461010090046001600160a01b03169030856126c8565b6116e73360065460025461010090046001600160a01b03908116929116866126c8565b6000600454346116f79190612f69565b90508015611709576117093382612631565b50611762565b8215611728576117286001600160a01b03821684612631565b306117338184612631565b6000836004546117439190613150565b61174d9034612f69565b9050801561175f5761175f3382612631565b50505b7f4b07d21301cc34286797eac5a16d2f1c0131fcf7b2051b24457f8d9a0949479d338389898d8d60405161179b969594939291906132a2565b60405180910390a15060019998505050505050505050565b6060600c805480602002602001604051908101604052809291908181526020016000905b828210156118835783829060005260206000200180546117f690612efd565b80601f016020809104026020016040519081016040528092919081815260200182805461182290612efd565b801561186f5780601f106118445761010080835404028352916020019161186f565b820191906000526020600020905b81548152906001019060200180831161185257829003601f168201915b5050505050815260200190600101906117d7565b50505050905090565b60006118988133611173565b6118b45760405162461bcd60e51b81526004016108db90612f92565b6118bc6122a9565b610c0b60008051602061335a833981519152836109c5565b60006118e08133611173565b6118fc5760405162461bcd60e51b81526004016108db90612f92565b6119046122a9565b61190d82611cd6565b6119295760405162461bcd60e51b81526004016108db90612fb5565b6000600160088460405161193d9190612f37565b9081526020016040518091039020546119569190612f69565b600a5490915060009061196b90600190612f69565b90506000600c828154811061198257611982612f7c565b90600052602060002001805461199790612efd565b80601f01602080910402602001604051908101604052809291908181526020018280546119c390612efd565b8015611a105780601f106119e557610100808354040283529160200191611a10565b820191906000526020600020905b8154815290600101906020018083116119f357829003601f168201915b50505050509050600a8281548110611a2a57611a2a612f7c565b90600052602060002001600a8481548110611a4757611a47612f7c565b600091825260209091209154910155600c805483908110611a6a57611a6a612f7c565b90600052602060002001600c8481548110611a8757611a87612f7c565b906000526020600020019081611a9d9190613070565b50611aa9836001613150565b600882604051611ab99190612f37565b908152602001604051809103902081905550600885604051611adb9190612f37565b908152602001604051809103902060009055600a805480611afe57611afe613163565b600082815260208120820160001990810191909155019055600c80548061114a5761114a613163565b6000611b338133611173565b611b4f5760405162461bcd60e51b81526004016108db90612f92565b6001600160a01b038216611b985760405162461bcd60e51b815260206004820152601060248201526f7265636569766572206973207a65726f60801b60448201526064016108db565b60025461010090046001600160a01b031615611c87576002546040516370a0823160e01b81523060048201526101009091046001600160a01b0316906370a0823190602401602060405180830381865afa158015611bfa573d6000803e3d6000fd5b505050506040513d601f19601f82011682018060405250810190611c1e9190613009565b831115611c635760405162461bcd60e51b8152602060048201526013602482015272696e737566696369656e742062616c616e636560681b60448201526064016108db565b600254611c7f9061010090046001600160a01b0316838561272f565b5060016107b0565b82471015611ca75760405162461bcd60e51b81526004016108db906132ea565b81611cbb6001600160a01b03821685612631565b505b50600192915050565b600d81815481106107c657600080fd5b6000600882604051611ce89190612f37565b908152602001604051809103902054600003610c0b57506000919050565b60025461010090046001600160a01b031615611d545760405162461bcd60e51b815260206004820152600d60248201526c2737ba1039b2ba103a37b5b2b760991b60448201526064016108db565b6006546001600160a01b031615611da45760405162461bcd60e51b8152602060048201526014602482015273139bdd081cd95d081bdddb995c881dd85b1b195d60621b60448201526064016108db565b60045415611df45760405162461bcd60e51b815260206004820152601a60248201527f4e6f74207365742061646d696e2064656661756c7420726f6c6500000000000060448201526064016108db565b60055415611e445760405162461bcd60e51b815260206004820152601a60248201527f4e6f74207365742061646d696e2064656661756c7420726f6c6500000000000060448201526064016108db565b6064811115611e895760405162461bcd60e51b81526020600482015260116024820152704665652070657263656e74203e2031302560781b60448201526064016108db565b60028054610100600160a81b0319166101006001600160a01b038881169190910291909117909155600680546001600160a01b031916918616919091179055611ed36000856122fc565b50611eec60008051602061335a833981519152846122fc565b50600491909155600555505050565b60008281526001602081905260409091200154611f17816122ef565b611f218383612760565b505050565b6040805160208082019790975280820195909552606093841b6bffffffffffffffffffffffff191693850193909352607484019190915260e01b6001600160e01b03191660948301528051808303607801815260989092019052805191012090565b6060600d805480602002602001604051908101604052809291908181526020016000905b82821015611883578382906000526020600020018054611fcb90612efd565b80601f0160208091040260200160405190810160405280929190818152602001828054611ff790612efd565b80156120445780601f1061201957610100808354040283529160200191612044565b820191906000526020600020905b81548152906001019060200180831161202757829003601f168201915b505050505081526020019060010190611fac565b6000600982604051611ce89190612f37565b60006120768133611173565b6120925760405162461bcd60e51b81526004016108db90612f92565b61209a6122a9565b6120a382611cd6565b156120e45760405162461bcd60e51b8152602060048201526011602482015270426c6f636b636861696e2065786973747360781b60448201526064016108db565b60408051602081019091526000808252600a80546001808201835591835283517fc65a7bb8d6351c1cf70c95a316cc6a92839c986682d98bc35f958f4883f9d2a890910155600c805491820181559091527fdf6966c971051c3d54ec59162606531493a51404a002842f56009d7e5cf4a8c7016121618482613179565b50600a546040518190600890612178908790612f37565b90815260405190819003602001902055915050919050565b600061219c8133611173565b6121b85760405162461bcd60e51b81526004016108db90612f92565b6121c06122a9565b600680546001600160a01b0319166001600160a01b038416179055336001600160a01b0316826001600160a01b03160361223c5760405162461bcd60e51b815260206004820152601e60248201527f6e65774f776e65722063616e206e6f74206265206d73672e73656e646572000060448201526064016108db565b6001600160a01b0382166122925760405162461bcd60e51b815260206004820152601860248201527f6e65774f776e65722063616e206e6f74206265207a65726f000000000000000060448201526064016108db565b61229d6000836122fc565b50610c0b600033611efb565b60025460ff1615610ad35760405162461bcd60e51b815260206004820152601060248201526f14185d5cd8589b194e881c185d5cd95960821b60448201526064016108db565b6122f98133612786565b50565b60006123088383611173565b61236d5760008381526001602081815260408084206001600160a01b0387168086529252808420805460ff19169093179092559051339286917f2f8788117e7eff1d82e926ec794901d17c78024a50270940304540a733656f0d9190a45060016107b0565b5060006107b0565b6001600160a01b038116331461239e5760405163334bd91960e11b815260040160405180910390fd5b611f2182826127bf565b6123b061282c565b6002805460ff191690557f5db9ee0a495bf2e6ff9c91a7834c1ba4fdd244a5e8aa4e537bd38aeae4b073aa335b6040516001600160a01b03909116815260200160405180910390a1565b60006124098686868686611f26565b60008181526007602052604090205490915060ff16156124575760405162461bcd60e51b81526020600482015260096024820152681c1c9bd8d95cdcd95960ba1b60448201526064016108db565b6000908152600760205260409020805460ff191660011790555050505050565b60025460009061010090046001600160a01b03166124c957814710156124af5760405162461bcd60e51b81526004016108db906132ea565b826124c36001600160a01b03821684612631565b50611cbd565b6002546040516370a0823160e01b8152306004820152839161010090046001600160a01b0316906370a0823190602401602060405180830381865afa158015612516573d6000803e3d6000fd5b505050506040513d601f19601f8201168201806040525081019061253a9190613009565b101561257f5760405162461bcd60e51b8152602060048201526014602482015273696e73756666696369656e742062616c616e636560601b60448201526064016108db565b600254611cbd9061010090046001600160a01b0316848461272f565b6125a36122a9565b6002805460ff191660011790557f62e78cea01bee320cd4e420270b5ea74000d11b0c9f74754ebdbfc544b05a2586123dd3390565b6000816040516020016125eb9190612f37565b60405160208183030381529060405280519060200120836040516020016126129190612f37565b6040516020818303038152906040528051906020012014905092915050565b804710156126545760405163cd78605960e01b81523060048201526024016108db565b6000826001600160a01b03168260405160006040518083038185875af1925050503d80600081146126a1576040519150601f19603f3d011682016040523d82523d6000602084013e6126a6565b606091505b5050905080611f2157604051630a12f52160e11b815260040160405180910390fd5b6040516001600160a01b0384811660248301528381166044830152606482018390526109eb9186918216906323b872dd906084015b604051602081830303815290604052915060e01b6020820180516001600160e01b038381831617835250505050612875565b6040516001600160a01b03838116602483015260448201839052611f2191859182169063a9059cbb906064016126fd565b6000828152600160208190526040909120015461277c816122ef565b6109eb83836127bf565b6127908282611173565b610aa05760405163e2517d3f60e01b81526001600160a01b0382166004820152602481018390526044016108db565b60006127cb8383611173565b1561236d5760008381526001602090815260408083206001600160a01b0386168085529252808320805460ff1916905551339286917ff6391f5c32d9c69d2a47ea670b442974b53935d1edc7fd64eb21e047a839171b9190a45060016107b0565b60025460ff16610ad35760405162461bcd60e51b815260206004820152601460248201527314185d5cd8589b194e881b9bdd081c185d5cd95960621b60448201526064016108db565b600061288a6001600160a01b038416836128d8565b905080516000141580156128af5750808060200190518101906128ad9190613337565b155b15611f2157604051635274afe760e01b81526001600160a01b03841660048201526024016108db565b60606128e6838360006128ed565b9392505050565b6060814710156129125760405163cd78605960e01b81523060048201526024016108db565b600080856001600160a01b0316848660405161292e9190612f37565b60006040518083038185875af1925050503d806000811461296b576040519150601f19603f3d011682016040523d82523d6000602084013e612970565b606091505b509150915061298086838361298a565b9695505050505050565b60608261299f5761299a826129e6565b6128e6565b81511580156129b657506001600160a01b0384163b155b156129df57604051639996b31560e01b81526001600160a01b03851660048201526024016108db565b50806128e6565b8051156129f65780518082602001fd5b604051630a12f52160e11b815260040160405180910390fd5b508054612a1b90612efd565b6000825580601f10612a2b575050565b601f0160209004906000526020600020908101906122f991905b80821115612a595760008155600101612a45565b5090565b600060208284031215612a6f57600080fd5b81356001600160e01b0319811681146128e657600080fd5b600060208284031215612a9957600080fd5b5035919050565b60005b83811015612abb578181015183820152602001612aa3565b50506000910152565b60008151808452612adc816020860160208601612aa0565b601f01601f19169290920160200192915050565b6020815260006128e66020830184612ac4565b634e487b7160e01b600052604160045260246000fd5b600082601f830112612b2a57600080fd5b813567ffffffffffffffff811115612b4457612b44612b03565b604051601f8201601f19908116603f0116810167ffffffffffffffff81118282101715612b7357612b73612b03565b604052818152838201602001851015612b8b57600080fd5b816020850160208301376000918101602001919091529392505050565b600060208284031215612bba57600080fd5b813567ffffffffffffffff811115612bd157600080fd5b612bdd84828501612b19565b949350505050565b60008060408385031215612bf857600080fd5b823567ffffffffffffffff811115612c0f57600080fd5b612c1b85828601612b19565b95602094909401359450505050565b6001600160a01b03811681146122f957600080fd5b60008060408385031215612c5257600080fd5b823591506020830135612c6481612c2a565b809150509250929050565b600060208284031215612c8157600080fd5b81356128e681612c2a565b60008083601f840112612c9e57600080fd5b50813567ffffffffffffffff811115612cb657600080fd5b602083019150836020828501011115612cce57600080fd5b9250929050565b803563ffffffff81168114610b8d57600080fd5b600080600080600080600060c0888a031215612d0457600080fd5b8735612d0f81612c2a565b965060208801359550604088013567ffffffffffffffff811115612d3257600080fd5b612d3e8a828b01612c8c565b9096509450506060880135925060808801359150612d5e60a08901612cd5565b905092959891949750929550565b600080600080600060608688031215612d8457600080fd5b85359450602086013567ffffffffffffffff811115612da257600080fd5b612dae88828901612c8c565b909550935050604086013567ffffffffffffffff811115612dce57600080fd5b612dda88828901612c8c565b969995985093965092949392505050565b6000602082016020835280845180835260408501915060408160051b86010192506020860160005b82811015612e4457603f19878603018452612e2f858351612ac4565b94506020938401939190910190600101612e13565b50929695505050505050565b600080600080600060a08688031215612e6857600080fd5b8535612e7381612c2a565b94506020860135612e8381612c2a565b93506040860135612e9381612c2a565b94979396509394606081013594506080013592915050565b600080600080600060a08688031215612ec357600080fd5b85359450602086013593506040860135612edc81612c2a565b925060608601359150612ef160808701612cd5565b90509295509295909350565b600181811c90821680612f1157607f821691505b602082108103612f3157634e487b7160e01b600052602260045260246000fd5b50919050565b60008251612f49818460208701612aa0565b9190910192915050565b634e487b7160e01b600052601160045260246000fd5b818103818111156107b0576107b0612f53565b634e487b7160e01b600052603260045260246000fd5b6020808252600990820152683737ba1037bbb732b960b91b604082015260600190565b602080825260159082015274626c6f636b636861696e206e6f742065786973747360581b604082015260600190565b606081526000612ff76060830186612ac4565b60208301949094525060400152919050565b60006020828403121561301b57600080fd5b5051919050565b601f821115611f2157806000526020600020601f840160051c810160208510156130495750805b601f840160051c820191505b818110156130695760008155600101613055565b5050505050565b81810361307b575050565b6130858254612efd565b67ffffffffffffffff81111561309d5761309d612b03565b6130b1816130ab8454612efd565b84613022565b6000601f8211600181146130e857600083156130cd5750848201545b600184901b600019600386901b1c198216175b855550613069565b600085815260209020601f19841690600086815260209020845b838110156131225782860154825560019586019590910190602001613102565b50858310156131405781850154600019600388901b60f8161c191681555b5050505050600190811b01905550565b808201808211156107b0576107b0612f53565b634e487b7160e01b600052603160045260246000fd5b815167ffffffffffffffff81111561319357613193612b03565b6131a1816130ab8454612efd565b6020601f8211600181146131d357600083156130cd575081850151600184901b600019600386901b1c198216176130e0565b600084815260208120601f198516915b8281101561320357878501518255602094850194600190920191016131e3565b50848210156132215786840151600019600387901b60f8161c191681555b50505050600190811b01905550565b8183823760009101908152919050565b80820281158282048414176107b0576107b0612f53565b60008261327457634e487b7160e01b600052601260045260246000fd5b500490565b81835281816020850137506000828201602090810191909152601f909101601f19169091010190565b60018060a01b03871681528560208201526080604082015260006132ca608083018688613279565b82810360608401526132dd818587613279565b9998505050505050505050565b6020808252602d908201527f496e73756666696369656e74206e617469766520746f6b656e2062616c616e6360408201526c19481a5b8818dbdb9d1c9858dd609a1b606082015260800190565b60006020828403121561334957600080fd5b815180151581146128e657600080fdfe8227712ef8ad39d0f26f06731ef0df8665eb7ada7f41b1ee089adf3c238862a2a2646970667358221220d26a9dc39e914ecb47e8b2b09ad46f6fd71dd28d5920d1ad6d695dc7bc58146064736f6c634300081a0033",
					"opcodes": "PUSH1 0x80 PUSH1 0x40 MSTORE CALLVALUE DUP1 ISZERO PUSH1 0xF JUMPI PUSH1 0x0 DUP1 REVERT JUMPDEST POP PUSH1 0x1E PUSH4 0x1FFC9A7 PUSH1 0xE0 SHL PUSH1 0x2C JUMP JUMPDEST PUSH1 0x2 DUP1 SLOAD PUSH1 0xFF NOT AND SWAP1 SSTORE PUSH1 0xAE JUMP JUMPDEST PUSH1 0x1 PUSH1 0x1 PUSH1 0xE0 SHL SUB NOT DUP1 DUP3 AND SWAP1 SUB PUSH1 0x89 JUMPI PUSH1 0x40 MLOAD PUSH3 0x461BCD PUSH1 0xE5 SHL DUP2 MSTORE PUSH1 0x20 PUSH1 0x4 DUP3 ADD MSTORE PUSH1 0x1C PUSH1 0x24 DUP3 ADD MSTORE PUSH32 0x4552433136353A20696E76616C696420696E7465726661636520696400000000 PUSH1 0x44 DUP3 ADD MSTORE PUSH1 0x64 ADD PUSH1 0x40 MLOAD DUP1 SWAP2 SUB SWAP1 REVERT JUMPDEST PUSH1 0x1 PUSH1 0x1 PUSH1 0xE0 SHL SUB NOT AND PUSH1 0x0 SWAP1 DUP2 MSTORE PUSH1 0x20 DUP2 SWAP1 MSTORE PUSH1 0x40 SWAP1 KECCAK256 DUP1 SLOAD PUSH1 0xFF NOT AND PUSH1 0x1 OR SWAP1 SSTORE JUMP JUMPDEST PUSH2 0x33AF DUP1 PUSH2 0xBD PUSH1 0x0 CODECOPY PUSH1 0x0 RETURN INVALID PUSH1 0x80 PUSH1 0x40 MSTORE PUSH1 0x4 CALLDATASIZE LT PUSH2 0x24A JUMPI PUSH1 0x0 CALLDATALOAD PUSH1 0xE0 SHR DUP1 PUSH4 0x8689B322 GT PUSH2 0x139 JUMPI DUP1 PUSH4 0xC4251339 GT PUSH2 0xB6 JUMPI DUP1 PUSH4 0xF11B7C33 GT PUSH2 0x7A JUMPI DUP1 PUSH4 0xF11B7C33 EQ PUSH2 0x6A4 JUMPI DUP1 PUSH4 0xF2E1FA65 EQ PUSH2 0x6B9 JUMPI DUP1 PUSH4 0xF2FCDBD3 EQ PUSH2 0x6D9 JUMPI DUP1 PUSH4 0xF2FDE38B EQ PUSH2 0x6F9 JUMPI DUP1 PUSH4 0xFAE36AFB EQ PUSH2 0x719 JUMPI DUP1 PUSH4 0xFC0C546A EQ PUSH2 0x751 JUMPI PUSH1 0x0 DUP1 REVERT JUMPDEST DUP1 PUSH4 0xC4251339 EQ PUSH2 0x604 JUMPI DUP1 PUSH4 0xC9B4D653 EQ PUSH2 0x624 JUMPI DUP1 PUSH4 0xD542A501 EQ PUSH2 0x644 JUMPI DUP1 PUSH4 0xD547741F EQ PUSH2 0x664 JUMPI DUP1 PUSH4 0xE8340A99 EQ PUSH2 0x684 JUMPI PUSH1 0x0 DUP1 REVERT JUMPDEST DUP1 PUSH4 0xB715F98F GT PUSH2 0xFD JUMPI DUP1 PUSH4 0xB715F98F EQ PUSH2 0x552 JUMPI DUP1 PUSH4 0xB8C48A28 EQ PUSH2 0x574 JUMPI DUP1 PUSH4 0xBB13CA3B EQ PUSH2 0x594 JUMPI DUP1 PUSH4 0xBE4B1772 EQ PUSH2 0x5B4 JUMPI DUP1 PUSH4 0xC1F0808A EQ PUSH2 0x5D4 JUMPI PUSH1 0x0 DUP1 REVERT JUMPDEST DUP1 PUSH4 0x8689B322 EQ PUSH2 0x4CA JUMPI DUP1 PUSH4 0x91D14854 EQ PUSH2 0x4EA JUMPI DUP1 PUSH4 0x9D1E034D EQ PUSH2 0x50A JUMPI DUP1 PUSH4 0xA217FDDF EQ PUSH2 0x52A JUMPI DUP1 PUSH4 0xA36185F4 EQ PUSH2 0x53F JUMPI PUSH1 0x0 DUP1 REVERT JUMPDEST DUP1 PUSH4 0x4D9B47E2 GT PUSH2 0x1C7 JUMPI DUP1 PUSH4 0x646AC61C GT PUSH2 0x18B JUMPI DUP1 PUSH4 0x646AC61C EQ PUSH2 0x454 JUMPI DUP1 PUSH4 0x6D2133E1 EQ PUSH2 0x46A JUMPI DUP1 PUSH4 0x7DAD0D57 EQ PUSH2 0x480 JUMPI DUP1 PUSH4 0x82B2E257 EQ PUSH2 0x4A0 JUMPI DUP1 PUSH4 0x8456CB59 EQ PUSH2 0x4B5 JUMPI PUSH1 0x0 DUP1 REVERT JUMPDEST DUP1 PUSH4 0x4D9B47E2 EQ PUSH2 0x3BA JUMPI DUP1 PUSH4 0x525A34E3 EQ PUSH2 0x3DC JUMPI DUP1 PUSH4 0x5A075F92 EQ PUSH2 0x3FC JUMPI DUP1 PUSH4 0x5C975ABB EQ PUSH2 0x41C JUMPI DUP1 PUSH4 0x5D27FC70 EQ PUSH2 0x434 JUMPI PUSH1 0x0 DUP1 REVERT JUMPDEST DUP1 PUSH4 0x29C9A4DA GT PUSH2 0x20E JUMPI DUP1 PUSH4 0x29C9A4DA EQ PUSH2 0x32D JUMPI DUP1 PUSH4 0x2A76E481 EQ PUSH2 0x34D JUMPI DUP1 PUSH4 0x2F2FF15D EQ PUSH2 0x363 JUMPI DUP1 PUSH4 0x36568ABE EQ PUSH2 0x385 JUMPI DUP1 PUSH4 0x3F4BA83A EQ PUSH2 0x3A5 JUMPI PUSH1 0x0 DUP1 REVERT JUMPDEST DUP1 PUSH4 0x1C234A8 EQ PUSH2 0x256 JUMPI DUP1 PUSH4 0x1FFC9A7 EQ PUSH2 0x27F JUMPI DUP1 PUSH4 0x1D316A5D EQ PUSH2 0x2AF JUMPI DUP1 PUSH4 0x212258A8 EQ PUSH2 0x2DC JUMPI DUP1 PUSH4 0x248A9CA3 EQ PUSH2 0x2FC JUMPI PUSH1 0x0 DUP1 REVERT JUMPDEST CALLDATASIZE PUSH2 0x251 JUMPI STOP JUMPDEST PUSH1 0x0 DUP1 REVERT JUMPDEST CALLVALUE DUP1 ISZERO PUSH2 0x262 JUMPI PUSH1 0x0 DUP1 REVERT JUMPDEST POP PUSH2 0x26C PUSH2 0x3E8 DUP2 JUMP JUMPDEST PUSH1 0x40 MLOAD SWAP1 DUP2 MSTORE PUSH1 0x20 ADD JUMPDEST PUSH1 0x40 MLOAD DUP1 SWAP2 SUB SWAP1 RETURN JUMPDEST CALLVALUE DUP1 ISZERO PUSH2 0x28B JUMPI PUSH1 0x0 DUP1 REVERT JUMPDEST POP PUSH2 0x29F PUSH2 0x29A CALLDATASIZE PUSH1 0x4 PUSH2 0x2A5D JUMP JUMPDEST PUSH2 0x776 JUMP JUMPDEST PUSH1 0x40 MLOAD SWAP1 ISZERO ISZERO DUP2 MSTORE PUSH1 0x20 ADD PUSH2 0x276 JUMP JUMPDEST CALLVALUE DUP1 ISZERO PUSH2 0x2BB JUMPI PUSH1 0x0 DUP1 REVERT JUMPDEST POP PUSH2 0x2CF PUSH2 0x2CA CALLDATASIZE PUSH1 0x4 PUSH2 0x2A87 JUMP JUMPDEST PUSH2 0x7B6 JUMP JUMPDEST PUSH1 0x40 MLOAD PUSH2 0x276 SWAP2 SWAP1 PUSH2 0x2AF0 JUMP JUMPDEST CALLVALUE DUP1 ISZERO PUSH2 0x2E8 JUMPI PUSH1 0x0 DUP1 REVERT JUMPDEST POP PUSH2 0x26C PUSH2 0x2F7 CALLDATASIZE PUSH1 0x4 PUSH2 0x2BA8 JUMP JUMPDEST PUSH2 0x862 JUMP JUMPDEST CALLVALUE DUP1 ISZERO PUSH2 0x308 JUMPI PUSH1 0x0 DUP1 REVERT JUMPDEST POP PUSH2 0x26C PUSH2 0x317 CALLDATASIZE PUSH1 0x4 PUSH2 0x2A87 JUMP JUMPDEST PUSH1 0x0 SWAP1 DUP2 MSTORE PUSH1 0x1 PUSH1 0x20 DUP2 SWAP1 MSTORE PUSH1 0x40 SWAP1 SWAP2 KECCAK256 ADD SLOAD SWAP1 JUMP JUMPDEST CALLVALUE DUP1 ISZERO PUSH2 0x339 JUMPI PUSH1 0x0 DUP1 REVERT JUMPDEST POP PUSH2 0x29F PUSH2 0x348 CALLDATASIZE PUSH1 0x4 PUSH2 0x2BE5 JUMP JUMPDEST PUSH2 0x8B3 JUMP JUMPDEST CALLVALUE DUP1 ISZERO PUSH2 0x359 JUMPI PUSH1 0x0 DUP1 REVERT JUMPDEST POP PUSH2 0x26C PUSH1 0x5 SLOAD DUP2 JUMP JUMPDEST CALLVALUE DUP1 ISZERO PUSH2 0x36F JUMPI PUSH1 0x0 DUP1 REVERT JUMPDEST POP PUSH2 0x383 PUSH2 0x37E CALLDATASIZE PUSH1 0x4 PUSH2 0x2C3F JUMP JUMPDEST PUSH2 0x9C5 JUMP JUMPDEST STOP JUMPDEST CALLVALUE DUP1 ISZERO PUSH2 0x391 JUMPI PUSH1 0x0 DUP1 REVERT JUMPDEST POP PUSH2 0x383 PUSH2 0x3A0 CALLDATASIZE PUSH1 0x4 PUSH2 0x2C3F JUMP JUMPDEST PUSH2 0x9F1 JUMP JUMPDEST CALLVALUE DUP1 ISZERO PUSH2 0x3B1 JUMPI PUSH1 0x0 DUP1 REVERT JUMPDEST POP PUSH2 0x383 PUSH2 0xAA4 JUMP JUMPDEST CALLVALUE DUP1 ISZERO PUSH2 0x3C6 JUMPI PUSH1 0x0 DUP1 REVERT JUMPDEST POP PUSH2 0x26C PUSH1 0x0 DUP1 MLOAD PUSH1 0x20 PUSH2 0x335A DUP4 CODECOPY DUP2 MLOAD SWAP2 MSTORE DUP2 JUMP JUMPDEST CALLVALUE DUP1 ISZERO PUSH2 0x3E8 JUMPI PUSH1 0x0 DUP1 REVERT JUMPDEST POP PUSH2 0x29F PUSH2 0x3F7 CALLDATASIZE PUSH1 0x4 PUSH2 0x2A87 JUMP JUMPDEST PUSH2 0xAD5 JUMP JUMPDEST CALLVALUE DUP1 ISZERO PUSH2 0x408 JUMPI PUSH1 0x0 DUP1 REVERT JUMPDEST POP PUSH2 0x29F PUSH2 0x417 CALLDATASIZE PUSH1 0x4 PUSH2 0x2A87 JUMP JUMPDEST PUSH2 0xB92 JUMP JUMPDEST CALLVALUE DUP1 ISZERO PUSH2 0x428 JUMPI PUSH1 0x0 DUP1 REVERT JUMPDEST POP PUSH1 0x2 SLOAD PUSH1 0xFF AND PUSH2 0x29F JUMP JUMPDEST CALLVALUE DUP1 ISZERO PUSH2 0x440 JUMPI PUSH1 0x0 DUP1 REVERT JUMPDEST POP PUSH2 0x29F PUSH2 0x44F CALLDATASIZE PUSH1 0x4 PUSH2 0x2C6F JUMP JUMPDEST PUSH2 0xBC3 JUMP JUMPDEST CALLVALUE DUP1 ISZERO PUSH2 0x460 JUMPI PUSH1 0x0 DUP1 REVERT JUMPDEST POP PUSH2 0x26C PUSH1 0x3 SLOAD DUP2 JUMP JUMPDEST CALLVALUE DUP1 ISZERO PUSH2 0x476 JUMPI PUSH1 0x0 DUP1 REVERT JUMPDEST POP PUSH2 0x26C PUSH1 0x4 SLOAD DUP2 JUMP JUMPDEST CALLVALUE DUP1 ISZERO PUSH2 0x48C JUMPI PUSH1 0x0 DUP1 REVERT JUMPDEST POP PUSH2 0x29F PUSH2 0x49B CALLDATASIZE PUSH1 0x4 PUSH2 0x2CE9 JUMP JUMPDEST PUSH2 0xC13 JUMP JUMPDEST CALLVALUE DUP1 ISZERO PUSH2 0x4AC JUMPI PUSH1 0x0 DUP1 REVERT JUMPDEST POP PUSH2 0x26C PUSH2 0xE35 JUMP JUMPDEST CALLVALUE DUP1 ISZERO PUSH2 0x4C1 JUMPI PUSH1 0x0 DUP1 REVERT JUMPDEST POP PUSH2 0x383 PUSH2 0xEC8 JUMP JUMPDEST CALLVALUE DUP1 ISZERO PUSH2 0x4D6 JUMPI PUSH1 0x0 DUP1 REVERT JUMPDEST POP PUSH2 0x29F PUSH2 0x4E5 CALLDATASIZE PUSH1 0x4 PUSH2 0x2BA8 JUMP JUMPDEST PUSH2 0xEF7 JUMP JUMPDEST CALLVALUE DUP1 ISZERO PUSH2 0x4F6 JUMPI PUSH1 0x0 DUP1 REVERT JUMPDEST POP PUSH2 0x29F PUSH2 0x505 CALLDATASIZE PUSH1 0x4 PUSH2 0x2C3F JUMP JUMPDEST PUSH2 0x1173 JUMP JUMPDEST CALLVALUE DUP1 ISZERO PUSH2 0x516 JUMPI PUSH1 0x0 DUP1 REVERT JUMPDEST POP PUSH2 0x26C PUSH2 0x525 CALLDATASIZE PUSH1 0x4 PUSH2 0x2BE5 JUMP JUMPDEST PUSH2 0x119E JUMP JUMPDEST CALLVALUE DUP1 ISZERO PUSH2 0x536 JUMPI PUSH1 0x0 DUP1 REVERT JUMPDEST POP PUSH2 0x26C PUSH1 0x0 DUP2 JUMP JUMPDEST PUSH2 0x29F PUSH2 0x54D CALLDATASIZE PUSH1 0x4 PUSH2 0x2D6C JUMP JUMPDEST PUSH2 0x12C8 JUMP JUMPDEST CALLVALUE DUP1 ISZERO PUSH2 0x55E JUMPI PUSH1 0x0 DUP1 REVERT JUMPDEST POP PUSH2 0x567 PUSH2 0x17B3 JUMP JUMPDEST PUSH1 0x40 MLOAD PUSH2 0x276 SWAP2 SWAP1 PUSH2 0x2DEB JUMP JUMPDEST CALLVALUE DUP1 ISZERO PUSH2 0x580 JUMPI PUSH1 0x0 DUP1 REVERT JUMPDEST POP PUSH2 0x29F PUSH2 0x58F CALLDATASIZE PUSH1 0x4 PUSH2 0x2C6F JUMP JUMPDEST PUSH2 0x188C JUMP JUMPDEST CALLVALUE DUP1 ISZERO PUSH2 0x5A0 JUMPI PUSH1 0x0 DUP1 REVERT JUMPDEST POP PUSH2 0x29F PUSH2 0x5AF CALLDATASIZE PUSH1 0x4 PUSH2 0x2BA8 JUMP JUMPDEST PUSH2 0x18D4 JUMP JUMPDEST CALLVALUE DUP1 ISZERO PUSH2 0x5C0 JUMPI PUSH1 0x0 DUP1 REVERT JUMPDEST POP PUSH2 0x29F PUSH2 0x5CF CALLDATASIZE PUSH1 0x4 PUSH2 0x2C3F JUMP JUMPDEST PUSH2 0x1B27 JUMP JUMPDEST CALLVALUE DUP1 ISZERO PUSH2 0x5E0 JUMPI PUSH1 0x0 DUP1 REVERT JUMPDEST POP PUSH2 0x29F PUSH2 0x5EF CALLDATASIZE PUSH1 0x4 PUSH2 0x2A87 JUMP JUMPDEST PUSH1 0x7 PUSH1 0x20 MSTORE PUSH1 0x0 SWAP1 DUP2 MSTORE PUSH1 0x40 SWAP1 KECCAK256 SLOAD PUSH1 0xFF AND DUP2 JUMP JUMPDEST CALLVALUE DUP1 ISZERO PUSH2 0x610 JUMPI PUSH1 0x0 DUP1 REVERT JUMPDEST POP PUSH2 0x2CF PUSH2 0x61F CALLDATASIZE PUSH1 0x4 PUSH2 0x2A87 JUMP JUMPDEST PUSH2 0x1CC6 JUMP JUMPDEST CALLVALUE DUP1 ISZERO PUSH2 0x630 JUMPI PUSH1 0x0 DUP1 REVERT JUMPDEST POP PUSH2 0x29F PUSH2 0x63F CALLDATASIZE PUSH1 0x4 PUSH2 0x2BA8 JUMP JUMPDEST PUSH2 0x1CD6 JUMP JUMPDEST CALLVALUE DUP1 ISZERO PUSH2 0x650 JUMPI PUSH1 0x0 DUP1 REVERT JUMPDEST POP PUSH2 0x383 PUSH2 0x65F CALLDATASIZE PUSH1 0x4 PUSH2 0x2E50 JUMP JUMPDEST PUSH2 0x1D06 JUMP JUMPDEST CALLVALUE DUP1 ISZERO PUSH2 0x670 JUMPI PUSH1 0x0 DUP1 REVERT JUMPDEST POP PUSH2 0x383 PUSH2 0x67F CALLDATASIZE PUSH1 0x4 PUSH2 0x2C3F JUMP JUMPDEST PUSH2 0x1EFB JUMP JUMPDEST CALLVALUE DUP1 ISZERO PUSH2 0x690 JUMPI PUSH1 0x0 DUP1 REVERT JUMPDEST POP PUSH2 0x26C PUSH2 0x69F CALLDATASIZE PUSH1 0x4 PUSH2 0x2EAB JUMP JUMPDEST PUSH2 0x1F26 JUMP JUMPDEST CALLVALUE DUP1 ISZERO PUSH2 0x6B0 JUMPI PUSH1 0x0 DUP1 REVERT JUMPDEST POP PUSH2 0x567 PUSH2 0x1F88 JUMP JUMPDEST CALLVALUE DUP1 ISZERO PUSH2 0x6C5 JUMPI PUSH1 0x0 DUP1 REVERT JUMPDEST POP PUSH2 0x29F PUSH2 0x6D4 CALLDATASIZE PUSH1 0x4 PUSH2 0x2BA8 JUMP JUMPDEST PUSH2 0x2058 JUMP JUMPDEST CALLVALUE DUP1 ISZERO PUSH2 0x6E5 JUMPI PUSH1 0x0 DUP1 REVERT JUMPDEST POP PUSH2 0x26C PUSH2 0x6F4 CALLDATASIZE PUSH1 0x4 PUSH2 0x2BA8 JUMP JUMPDEST PUSH2 0x206A JUMP JUMPDEST CALLVALUE DUP1 ISZERO PUSH2 0x705 JUMPI PUSH1 0x0 DUP1 REVERT JUMPDEST POP PUSH2 0x29F PUSH2 0x714 CALLDATASIZE PUSH1 0x4 PUSH2 0x2C6F JUMP JUMPDEST PUSH2 0x2190 JUMP JUMPDEST CALLVALUE DUP1 ISZERO PUSH2 0x725 JUMPI PUSH1 0x0 DUP1 REVERT JUMPDEST POP PUSH1 0x6 SLOAD PUSH2 0x739 SWAP1 PUSH1 0x1 PUSH1 0x1 PUSH1 0xA0 SHL SUB AND DUP2 JUMP JUMPDEST PUSH1 0x40 MLOAD PUSH1 0x1 PUSH1 0x1 PUSH1 0xA0 SHL SUB SWAP1 SWAP2 AND DUP2 MSTORE PUSH1 0x20 ADD PUSH2 0x276 JUMP JUMPDEST CALLVALUE DUP1 ISZERO PUSH2 0x75D JUMPI PUSH1 0x0 DUP1 REVERT JUMPDEST POP PUSH1 0x2 SLOAD PUSH2 0x739 SWAP1 PUSH2 0x100 SWAP1 DIV PUSH1 0x1 PUSH1 0x1 PUSH1 0xA0 SHL SUB AND DUP2 JUMP JUMPDEST PUSH1 0x0 PUSH1 0x1 PUSH1 0x1 PUSH1 0xE0 SHL SUB NOT DUP3 AND PUSH4 0x7965DB0B PUSH1 0xE0 SHL EQ DUP1 PUSH2 0x7B0 JUMPI POP PUSH1 0x1 PUSH1 0x1 PUSH1 0xE0 SHL SUB NOT DUP3 AND PUSH1 0x0 SWAP1 DUP2 MSTORE PUSH1 0x20 DUP2 SWAP1 MSTORE PUSH1 0x40 SWAP1 KECCAK256 SLOAD PUSH1 0xFF AND JUMPDEST SWAP3 SWAP2 POP POP JUMP JUMPDEST PUSH1 0xC DUP2 DUP2 SLOAD DUP2 LT PUSH2 0x7C6 JUMPI PUSH1 0x0 DUP1 REVERT JUMPDEST SWAP1 PUSH1 0x0 MSTORE PUSH1 0x20 PUSH1 0x0 KECCAK256 ADD PUSH1 0x0 SWAP2 POP SWAP1 POP DUP1 SLOAD PUSH2 0x7E1 SWAP1 PUSH2 0x2EFD JUMP JUMPDEST DUP1 PUSH1 0x1F ADD PUSH1 0x20 DUP1 SWAP2 DIV MUL PUSH1 0x20 ADD PUSH1 0x40 MLOAD SWAP1 DUP2 ADD PUSH1 0x40 MSTORE DUP1 SWAP3 SWAP2 SWAP1 DUP2 DUP2 MSTORE PUSH1 0x20 ADD DUP3 DUP1 SLOAD PUSH2 0x80D SWAP1 PUSH2 0x2EFD JUMP JUMPDEST DUP1 ISZERO PUSH2 0x85A JUMPI DUP1 PUSH1 0x1F LT PUSH2 0x82F JUMPI PUSH2 0x100 DUP1 DUP4 SLOAD DIV MUL DUP4 MSTORE SWAP2 PUSH1 0x20 ADD SWAP2 PUSH2 0x85A JUMP JUMPDEST DUP3 ADD SWAP2 SWAP1 PUSH1 0x0 MSTORE PUSH1 0x20 PUSH1 0x0 KECCAK256 SWAP1 JUMPDEST DUP2 SLOAD DUP2 MSTORE SWAP1 PUSH1 0x1 ADD SWAP1 PUSH1 0x20 ADD DUP1 DUP4 GT PUSH2 0x83D JUMPI DUP3 SWAP1 SUB PUSH1 0x1F AND DUP3 ADD SWAP2 JUMPDEST POP POP POP POP POP DUP2 JUMP JUMPDEST PUSH1 0x0 PUSH1 0xB PUSH1 0x1 PUSH1 0x9 DUP5 PUSH1 0x40 MLOAD PUSH2 0x878 SWAP2 SWAP1 PUSH2 0x2F37 JUMP JUMPDEST SWAP1 DUP2 MSTORE PUSH1 0x20 ADD PUSH1 0x40 MLOAD DUP1 SWAP2 SUB SWAP1 KECCAK256 SLOAD PUSH2 0x891 SWAP2 SWAP1 PUSH2 0x2F69 JUMP JUMPDEST DUP2 SLOAD DUP2 LT PUSH2 0x8A1 JUMPI PUSH2 0x8A1 PUSH2 0x2F7C JUMP JUMPDEST PUSH1 0x0 SWAP2 DUP3 MSTORE PUSH1 0x20 SWAP1 SWAP2 KECCAK256 ADD SLOAD SWAP3 SWAP2 POP POP JUMP JUMPDEST PUSH1 0x0 PUSH2 0x8BF DUP2 CALLER PUSH2 0x1173 JUMP JUMPDEST PUSH2 0x8E4 JUMPI PUSH1 0x40 MLOAD PUSH3 0x461BCD PUSH1 0xE5 SHL DUP2 MSTORE PUSH1 0x4 ADD PUSH2 0x8DB SWAP1 PUSH2 0x2F92 JUMP JUMPDEST PUSH1 0x40 MLOAD DUP1 SWAP2 SUB SWAP1 REVERT JUMPDEST PUSH2 0x8EC PUSH2 0x22A9 JUMP JUMPDEST PUSH2 0x8F5 DUP4 PUSH2 0x2058 JUMP JUMPDEST PUSH2 0x911 JUMPI PUSH1 0x40 MLOAD PUSH3 0x461BCD PUSH1 0xE5 SHL DUP2 MSTORE PUSH1 0x4 ADD PUSH2 0x8DB SWAP1 PUSH2 0x2FB5 JUMP JUMPDEST PUSH1 0x0 PUSH1 0x1 PUSH1 0x9 DUP6 PUSH1 0x40 MLOAD PUSH2 0x925 SWAP2 SWAP1 PUSH2 0x2F37 JUMP JUMPDEST SWAP1 DUP2 MSTORE PUSH1 0x20 ADD PUSH1 0x40 MLOAD DUP1 SWAP2 SUB SWAP1 KECCAK256 SLOAD PUSH2 0x93E SWAP2 SWAP1 PUSH2 0x2F69 JUMP JUMPDEST SWAP1 POP PUSH32 0x4B44A0F1F9AD83F48CE1C55D8B93720658C4DBDD91F7C1D3F22612CD6474AB7B DUP5 PUSH1 0xB DUP4 DUP2 SLOAD DUP2 LT PUSH2 0x975 JUMPI PUSH2 0x975 PUSH2 0x2F7C JUMP JUMPDEST SWAP1 PUSH1 0x0 MSTORE PUSH1 0x20 PUSH1 0x0 KECCAK256 ADD PUSH1 0x0 ADD SLOAD DUP6 PUSH1 0x40 MLOAD PUSH2 0x993 SWAP4 SWAP3 SWAP2 SWAP1 PUSH2 0x2FE4 JUMP JUMPDEST PUSH1 0x40 MLOAD DUP1 SWAP2 SUB SWAP1 LOG1 DUP3 PUSH1 0xB DUP3 DUP2 SLOAD DUP2 LT PUSH2 0x9AF JUMPI PUSH2 0x9AF PUSH2 0x2F7C JUMP JUMPDEST PUSH1 0x0 SWAP2 DUP3 MSTORE PUSH1 0x20 SWAP1 SWAP2 KECCAK256 ADD SSTORE POP PUSH1 0x1 SWAP4 SWAP3 POP POP POP JUMP JUMPDEST PUSH1 0x0 DUP3 DUP2 MSTORE PUSH1 0x1 PUSH1 0x20 DUP2 SWAP1 MSTORE PUSH1 0x40 SWAP1 SWAP2 KECCAK256 ADD SLOAD PUSH2 0x9E1 DUP2 PUSH2 0x22EF JUMP JUMPDEST PUSH2 0x9EB DUP4 DUP4 PUSH2 0x22FC JUMP JUMPDEST POP POP POP POP JUMP JUMPDEST DUP2 PUSH2 0xA3E JUMPI PUSH1 0x40 MLOAD PUSH3 0x461BCD PUSH1 0xE5 SHL DUP2 MSTORE PUSH1 0x20 PUSH1 0x4 DUP3 ADD MSTORE PUSH1 0x1B PUSH1 0x24 DUP3 ADD MSTORE PUSH32 0x63616E206E6F742072656E6F756E636520726F6C65206F776E65720000000000 PUSH1 0x44 DUP3 ADD MSTORE PUSH1 0x64 ADD PUSH2 0x8DB JUMP JUMPDEST PUSH1 0x1 PUSH1 0x1 PUSH1 0xA0 SHL SUB DUP2 AND CALLER EQ PUSH2 0xA96 JUMPI PUSH1 0x40 MLOAD PUSH3 0x461BCD PUSH1 0xE5 SHL DUP2 MSTORE PUSH1 0x20 PUSH1 0x4 DUP3 ADD DUP2 SWAP1 MSTORE PUSH1 0x24 DUP3 ADD MSTORE PUSH32 0x63616E206F6E6C792072656E6F756E636520726F6C657320666F722073656C66 PUSH1 0x44 DUP3 ADD MSTORE PUSH1 0x64 ADD PUSH2 0x8DB JUMP JUMPDEST PUSH2 0xAA0 DUP3 DUP3 PUSH2 0x2375 JUMP JUMPDEST POP POP JUMP JUMPDEST PUSH2 0xAAF PUSH1 0x0 CALLER PUSH2 0x1173 JUMP JUMPDEST PUSH2 0xACB JUMPI PUSH1 0x40 MLOAD PUSH3 0x461BCD PUSH1 0xE5 SHL DUP2 MSTORE PUSH1 0x4 ADD PUSH2 0x8DB SWAP1 PUSH2 0x2F92 JUMP JUMPDEST PUSH2 0xAD3 PUSH2 0x23A8 JUMP JUMPDEST JUMP JUMPDEST PUSH1 0x0 PUSH2 0xAE1 DUP2 CALLER PUSH2 0x1173 JUMP JUMPDEST PUSH2 0xAFD JUMPI PUSH1 0x40 MLOAD PUSH3 0x461BCD PUSH1 0xE5 SHL DUP2 MSTORE PUSH1 0x4 ADD PUSH2 0x8DB SWAP1 PUSH2 0x2F92 JUMP JUMPDEST PUSH2 0xB05 PUSH2 0x22A9 JUMP JUMPDEST PUSH1 0x64 DUP3 GT ISZERO PUSH2 0xB48 JUMPI PUSH1 0x40 MLOAD PUSH3 0x461BCD PUSH1 0xE5 SHL DUP2 MSTORE PUSH1 0x20 PUSH1 0x4 DUP3 ADD MSTORE PUSH1 0xF PUSH1 0x24 DUP3 ADD MSTORE PUSH15 0x426967676572207468616E20313025 PUSH1 0x88 SHL PUSH1 0x44 DUP3 ADD MSTORE PUSH1 0x64 ADD PUSH2 0x8DB JUMP JUMPDEST PUSH1 0x5 SLOAD PUSH1 0x40 DUP1 MLOAD SWAP2 DUP3 MSTORE PUSH1 0x20 DUP3 ADD DUP5 SWAP1 MSTORE PUSH32 0x423D9A8A1D4011C45245817AB10CC09937B0786496DAD82DBA18141CA4FB7C8E SWAP2 ADD PUSH1 0x40 MLOAD DUP1 SWAP2 SUB SWAP1 LOG1 POP PUSH1 0x5 DUP2 SWAP1 SSTORE PUSH1 0x1 JUMPDEST SWAP2 SWAP1 POP JUMP JUMPDEST PUSH1 0x0 PUSH2 0xB9E DUP2 CALLER PUSH2 0x1173 JUMP JUMPDEST PUSH2 0xBBA JUMPI PUSH1 0x40 MLOAD PUSH3 0x461BCD PUSH1 0xE5 SHL DUP2 MSTORE PUSH1 0x4 ADD PUSH2 0x8DB SWAP1 PUSH2 0x2F92 JUMP JUMPDEST POP PUSH1 0x4 SSTORE PUSH1 0x1 SWAP1 JUMP JUMPDEST PUSH1 0x0 PUSH2 0xBCF DUP2 CALLER PUSH2 0x1173 JUMP JUMPDEST PUSH2 0xBEB JUMPI PUSH1 0x40 MLOAD PUSH3 0x461BCD PUSH1 0xE5 SHL DUP2 MSTORE PUSH1 0x4 ADD PUSH2 0x8DB SWAP1 PUSH2 0x2F92 JUMP JUMPDEST PUSH2 0xBF3 PUSH2 0x22A9 JUMP JUMPDEST PUSH2 0xC0B PUSH1 0x0 DUP1 MLOAD PUSH1 0x20 PUSH2 0x335A DUP4 CODECOPY DUP2 MLOAD SWAP2 MSTORE DUP4 PUSH2 0x1EFB JUMP JUMPDEST POP PUSH1 0x1 SWAP2 SWAP1 POP JUMP JUMPDEST PUSH1 0x0 PUSH2 0xC2D PUSH1 0x0 DUP1 MLOAD PUSH1 0x20 PUSH2 0x335A DUP4 CODECOPY DUP2 MLOAD SWAP2 MSTORE CALLER PUSH2 0x1173 JUMP JUMPDEST PUSH2 0xC67 JUMPI PUSH1 0x40 MLOAD PUSH3 0x461BCD PUSH1 0xE5 SHL DUP2 MSTORE PUSH1 0x20 PUSH1 0x4 DUP3 ADD MSTORE PUSH1 0xB PUSH1 0x24 DUP3 ADD MSTORE PUSH11 0x3737BA1036B7B734BA37B9 PUSH1 0xA9 SHL PUSH1 0x44 DUP3 ADD MSTORE PUSH1 0x64 ADD PUSH2 0x8DB JUMP JUMPDEST PUSH2 0xC6F PUSH2 0x22A9 JUMP JUMPDEST PUSH1 0x1 PUSH1 0x1 PUSH1 0xA0 SHL SUB DUP9 AND PUSH2 0xCB8 JUMPI PUSH1 0x40 MLOAD PUSH3 0x461BCD PUSH1 0xE5 SHL DUP2 MSTORE PUSH1 0x20 PUSH1 0x4 DUP3 ADD MSTORE PUSH1 0x10 PUSH1 0x24 DUP3 ADD MSTORE PUSH16 0x7265636569766572206973207A65726F PUSH1 0x80 SHL PUSH1 0x44 DUP3 ADD MSTORE PUSH1 0x64 ADD PUSH2 0x8DB JUMP JUMPDEST PUSH1 0x0 DUP8 GT PUSH2 0xCF6 JUMPI PUSH1 0x40 MLOAD PUSH3 0x461BCD PUSH1 0xE5 SHL DUP2 MSTORE PUSH1 0x20 PUSH1 0x4 DUP3 ADD MSTORE PUSH1 0xB PUSH1 0x24 DUP3 ADD MSTORE PUSH11 0x616D6F756E74206973203 PUSH1 0xAC SHL PUSH1 0x44 DUP3 ADD MSTORE PUSH1 0x64 ADD PUSH2 0x8DB JUMP JUMPDEST PUSH2 0xD35 DUP7 DUP7 DUP1 DUP1 PUSH1 0x1F ADD PUSH1 0x20 DUP1 SWAP2 DIV MUL PUSH1 0x20 ADD PUSH1 0x40 MLOAD SWAP1 DUP2 ADD PUSH1 0x40 MSTORE DUP1 SWAP4 SWAP3 SWAP2 SWAP1 DUP2 DUP2 MSTORE PUSH1 0x20 ADD DUP4 DUP4 DUP1 DUP3 DUP5 CALLDATACOPY PUSH1 0x0 SWAP3 ADD SWAP2 SWAP1 SWAP2 MSTORE POP PUSH2 0x1CD6 SWAP3 POP POP POP JUMP JUMPDEST PUSH2 0xD81 JUMPI PUSH1 0x40 MLOAD PUSH3 0x461BCD PUSH1 0xE5 SHL DUP2 MSTORE PUSH1 0x20 PUSH1 0x4 DUP3 ADD MSTORE PUSH1 0x19 PUSH1 0x24 DUP3 ADD MSTORE PUSH32 0x66726F6D426C6F636B636861696E206E6F742065786973747300000000000000 PUSH1 0x44 DUP3 ADD MSTORE PUSH1 0x64 ADD PUSH2 0x8DB JUMP JUMPDEST DUP4 PUSH2 0xDC2 JUMPI PUSH1 0x40 MLOAD PUSH3 0x461BCD PUSH1 0xE5 SHL DUP2 MSTORE PUSH1 0x20 PUSH1 0x4 DUP3 ADD MSTORE PUSH1 0x11 PUSH1 0x24 DUP3 ADD MSTORE PUSH17 0x189B1BD8DAD2185CDA081A5CC81B9D5B1B PUSH1 0x7A SHL PUSH1 0x44 DUP3 ADD MSTORE PUSH1 0x64 ADD PUSH2 0x8DB JUMP JUMPDEST DUP3 PUSH2 0xE0F JUMPI PUSH1 0x40 MLOAD PUSH3 0x461BCD PUSH1 0xE5 SHL DUP2 MSTORE PUSH1 0x20 PUSH1 0x4 DUP3 ADD MSTORE PUSH1 0x17 PUSH1 0x24 DUP3 ADD MSTORE PUSH32 0x7472616E73616374696F6E48617368206973206E756C6C000000000000000000 PUSH1 0x44 DUP3 ADD MSTORE PUSH1 0x64 ADD PUSH2 0x8DB JUMP JUMPDEST PUSH2 0xE1C DUP5 DUP5 DUP11 DUP11 DUP7 PUSH2 0x23FA JUMP JUMPDEST PUSH2 0xE26 DUP9 DUP9 PUSH2 0x2477 JUMP JUMPDEST POP PUSH1 0x1 SWAP9 SWAP8 POP POP POP POP POP POP POP POP JUMP JUMPDEST PUSH1 0x2 SLOAD PUSH1 0x0 SWAP1 PUSH2 0x100 SWAP1 DIV PUSH1 0x1 PUSH1 0x1 PUSH1 0xA0 SHL SUB AND ISZERO PUSH2 0xEC3 JUMPI PUSH1 0x2 SLOAD PUSH1 0x40 MLOAD PUSH4 0x70A08231 PUSH1 0xE0 SHL DUP2 MSTORE ADDRESS PUSH1 0x4 DUP3 ADD MSTORE PUSH2 0x100 SWAP1 SWAP2 DIV PUSH1 0x1 PUSH1 0x1 PUSH1 0xA0 SHL SUB AND SWAP1 PUSH4 0x70A08231 SWAP1 PUSH1 0x24 ADD PUSH1 0x20 PUSH1 0x40 MLOAD DUP1 DUP4 SUB DUP2 DUP7 GAS STATICCALL ISZERO DUP1 ISZERO PUSH2 0xE9A JUMPI RETURNDATASIZE PUSH1 0x0 DUP1 RETURNDATACOPY RETURNDATASIZE PUSH1 0x0 REVERT JUMPDEST POP POP POP POP PUSH1 0x40 MLOAD RETURNDATASIZE PUSH1 0x1F NOT PUSH1 0x1F DUP3 ADD AND DUP3 ADD DUP1 PUSH1 0x40 MSTORE POP DUP2 ADD SWAP1 PUSH2 0xEBE SWAP2 SWAP1 PUSH2 0x3009 JUMP JUMPDEST SWAP1 POP SWAP1 JUMP JUMPDEST POP SELFBALANCE SWAP1 JUMP JUMPDEST PUSH2 0xED3 PUSH1 0x0 CALLER PUSH2 0x1173 JUMP JUMPDEST PUSH2 0xEEF JUMPI PUSH1 0x40 MLOAD PUSH3 0x461BCD PUSH1 0xE5 SHL DUP2 MSTORE PUSH1 0x4 ADD PUSH2 0x8DB SWAP1 PUSH2 0x2F92 JUMP JUMPDEST PUSH2 0xAD3 PUSH2 0x259B JUMP JUMPDEST PUSH1 0x0 PUSH2 0xF03 DUP2 CALLER PUSH2 0x1173 JUMP JUMPDEST PUSH2 0xF1F JUMPI PUSH1 0x40 MLOAD PUSH3 0x461BCD PUSH1 0xE5 SHL DUP2 MSTORE PUSH1 0x4 ADD PUSH2 0x8DB SWAP1 PUSH2 0x2F92 JUMP JUMPDEST PUSH2 0xF27 PUSH2 0x22A9 JUMP JUMPDEST PUSH2 0xF30 DUP3 PUSH2 0x2058 JUMP JUMPDEST PUSH2 0xF4C JUMPI PUSH1 0x40 MLOAD PUSH3 0x461BCD PUSH1 0xE5 SHL DUP2 MSTORE PUSH1 0x4 ADD PUSH2 0x8DB SWAP1 PUSH2 0x2FB5 JUMP JUMPDEST PUSH1 0x0 PUSH1 0x1 PUSH1 0x9 DUP5 PUSH1 0x40 MLOAD PUSH2 0xF60 SWAP2 SWAP1 PUSH2 0x2F37 JUMP JUMPDEST SWAP1 DUP2 MSTORE PUSH1 0x20 ADD PUSH1 0x40 MLOAD DUP1 SWAP2 SUB SWAP1 KECCAK256 SLOAD PUSH2 0xF79 SWAP2 SWAP1 PUSH2 0x2F69 JUMP JUMPDEST PUSH1 0xB SLOAD SWAP1 SWAP2 POP PUSH1 0x0 SWAP1 PUSH2 0xF8E SWAP1 PUSH1 0x1 SWAP1 PUSH2 0x2F69 JUMP JUMPDEST SWAP1 POP PUSH1 0x0 PUSH1 0xD DUP3 DUP2 SLOAD DUP2 LT PUSH2 0xFA5 JUMPI PUSH2 0xFA5 PUSH2 0x2F7C JUMP JUMPDEST SWAP1 PUSH1 0x0 MSTORE PUSH1 0x20 PUSH1 0x0 KECCAK256 ADD DUP1 SLOAD PUSH2 0xFBA SWAP1 PUSH2 0x2EFD JUMP JUMPDEST DUP1 PUSH1 0x1F ADD PUSH1 0x20 DUP1 SWAP2 DIV MUL PUSH1 0x20 ADD PUSH1 0x40 MLOAD SWAP1 DUP2 ADD PUSH1 0x40 MSTORE DUP1 SWAP3 SWAP2 SWAP1 DUP2 DUP2 MSTORE PUSH1 0x20 ADD DUP3 DUP1 SLOAD PUSH2 0xFE6 SWAP1 PUSH2 0x2EFD JUMP JUMPDEST DUP1 ISZERO PUSH2 0x1033 JUMPI DUP1 PUSH1 0x1F LT PUSH2 0x1008 JUMPI PUSH2 0x100 DUP1 DUP4 SLOAD DIV MUL DUP4 MSTORE SWAP2 PUSH1 0x20 ADD SWAP2 PUSH2 0x1033 JUMP JUMPDEST DUP3 ADD SWAP2 SWAP1 PUSH1 0x0 MSTORE PUSH1 0x20 PUSH1 0x0 KECCAK256 SWAP1 JUMPDEST DUP2 SLOAD DUP2 MSTORE SWAP1 PUSH1 0x1 ADD SWAP1 PUSH1 0x20 ADD DUP1 DUP4 GT PUSH2 0x1016 JUMPI DUP3 SWAP1 SUB PUSH1 0x1F AND DUP3 ADD SWAP2 JUMPDEST POP POP POP POP POP SWAP1 POP PUSH1 0xB DUP3 DUP2 SLOAD DUP2 LT PUSH2 0x104D JUMPI PUSH2 0x104D PUSH2 0x2F7C JUMP JUMPDEST SWAP1 PUSH1 0x0 MSTORE PUSH1 0x20 PUSH1 0x0 KECCAK256 ADD PUSH1 0xB DUP5 DUP2 SLOAD DUP2 LT PUSH2 0x106A JUMPI PUSH2 0x106A PUSH2 0x2F7C JUMP JUMPDEST PUSH1 0x0 SWAP2 DUP3 MSTORE PUSH1 0x20 SWAP1 SWAP2 KECCAK256 SWAP2 SLOAD SWAP2 ADD SSTORE PUSH1 0xD DUP1 SLOAD DUP4 SWAP1 DUP2 LT PUSH2 0x108D JUMPI PUSH2 0x108D PUSH2 0x2F7C JUMP JUMPDEST SWAP1 PUSH1 0x0 MSTORE PUSH1 0x20 PUSH1 0x0 KECCAK256 ADD PUSH1 0xD DUP5 DUP2 SLOAD DUP2 LT PUSH2 0x10AA JUMPI PUSH2 0x10AA PUSH2 0x2F7C JUMP JUMPDEST SWAP1 PUSH1 0x0 MSTORE PUSH1 0x20 PUSH1 0x0 KECCAK256 ADD SWAP1 DUP2 PUSH2 0x10C0 SWAP2 SWAP1 PUSH2 0x3070 JUMP JUMPDEST POP PUSH2 0x10CC DUP4 PUSH1 0x1 PUSH2 0x3150 JUMP JUMPDEST PUSH1 0x9 DUP3 PUSH1 0x40 MLOAD PUSH2 0x10DC SWAP2 SWAP1 PUSH2 0x2F37 JUMP JUMPDEST SWAP1 DUP2 MSTORE PUSH1 0x20 ADD PUSH1 0x40 MLOAD DUP1 SWAP2 SUB SWAP1 KECCAK256 DUP2 SWAP1 SSTORE POP PUSH1 0x9 DUP6 PUSH1 0x40 MLOAD PUSH2 0x10FE SWAP2 SWAP1 PUSH2 0x2F37 JUMP JUMPDEST SWAP1 DUP2 MSTORE PUSH1 0x20 ADD PUSH1 0x40 MLOAD DUP1 SWAP2 SUB SWAP1 KECCAK256 PUSH1 0x0 SWAP1 SSTORE PUSH1 0xB DUP1 SLOAD DUP1 PUSH2 0x1121 JUMPI PUSH2 0x1121 PUSH2 0x3163 JUMP JUMPDEST PUSH1 0x0 DUP3 DUP2 MSTORE PUSH1 0x20 DUP2 KECCAK256 DUP3 ADD PUSH1 0x0 NOT SWAP1 DUP2 ADD SWAP2 SWAP1 SWAP2 SSTORE ADD SWAP1 SSTORE PUSH1 0xD DUP1 SLOAD DUP1 PUSH2 0x114A JUMPI PUSH2 0x114A PUSH2 0x3163 JUMP JUMPDEST PUSH1 0x1 SWAP1 SUB DUP2 DUP2 SWAP1 PUSH1 0x0 MSTORE PUSH1 0x20 PUSH1 0x0 KECCAK256 ADD PUSH1 0x0 PUSH2 0x1166 SWAP2 SWAP1 PUSH2 0x2A0F JUMP JUMPDEST SWAP1 SSTORE POP PUSH1 0x1 SWAP5 SWAP4 POP POP POP POP JUMP JUMPDEST PUSH1 0x0 SWAP2 DUP3 MSTORE PUSH1 0x1 PUSH1 0x20 SWAP1 DUP2 MSTORE PUSH1 0x40 DUP1 DUP5 KECCAK256 PUSH1 0x1 PUSH1 0x1 PUSH1 0xA0 SHL SUB SWAP4 SWAP1 SWAP4 AND DUP5 MSTORE SWAP2 SWAP1 MSTORE SWAP1 KECCAK256 SLOAD PUSH1 0xFF AND SWAP1 JUMP JUMPDEST PUSH1 0x0 PUSH2 0x11AA DUP2 CALLER PUSH2 0x1173 JUMP JUMPDEST PUSH2 0x11C6 JUMPI PUSH1 0x40 MLOAD PUSH3 0x461BCD PUSH1 0xE5 SHL DUP2 MSTORE PUSH1 0x4 ADD PUSH2 0x8DB SWAP1 PUSH2 0x2F92 JUMP JUMPDEST PUSH2 0x11CE PUSH2 0x22A9 JUMP JUMPDEST PUSH2 0x11D7 DUP4 PUSH2 0x2058 JUMP JUMPDEST ISZERO PUSH2 0x1218 JUMPI PUSH1 0x40 MLOAD PUSH3 0x461BCD PUSH1 0xE5 SHL DUP2 MSTORE PUSH1 0x20 PUSH1 0x4 DUP3 ADD MSTORE PUSH1 0x11 PUSH1 0x24 DUP3 ADD MSTORE PUSH17 0x626C6F636B636861696E20657869737473 PUSH1 0x78 SHL PUSH1 0x44 DUP3 ADD MSTORE PUSH1 0x64 ADD PUSH2 0x8DB JUMP JUMPDEST PUSH1 0x40 DUP1 MLOAD PUSH1 0x20 DUP2 ADD SWAP1 SWAP2 MSTORE DUP3 DUP2 MSTORE PUSH1 0xB DUP1 SLOAD PUSH1 0x1 DUP1 DUP3 ADD DUP4 SSTORE PUSH1 0x0 SWAP3 DUP4 MSTORE DUP4 MLOAD PUSH32 0x175B7A638427703F0DBE7BB9BBF987A2551717B34E79F33B5B1008D1FA01DB9 SWAP1 SWAP3 ADD SWAP2 SWAP1 SWAP2 SSTORE PUSH1 0xD DUP1 SLOAD SWAP2 DUP3 ADD DUP2 SSTORE SWAP1 SWAP2 MSTORE PUSH32 0xD7B6990105719101DABEB77144F2A3385C8033ACD3AF97E9423A695E81AD1EB5 ADD PUSH2 0x1298 DUP6 DUP3 PUSH2 0x3179 JUMP JUMPDEST POP PUSH1 0xB SLOAD PUSH1 0x40 MLOAD DUP2 SWAP1 PUSH1 0x9 SWAP1 PUSH2 0x12AF SWAP1 DUP9 SWAP1 PUSH2 0x2F37 JUMP JUMPDEST SWAP1 DUP2 MSTORE PUSH1 0x40 MLOAD SWAP1 DUP2 SWAP1 SUB PUSH1 0x20 ADD SWAP1 KECCAK256 SSTORE SWAP2 POP POP SWAP3 SWAP2 POP POP JUMP JUMPDEST PUSH1 0x0 CALLER ORIGIN EQ PUSH2 0x130D JUMPI PUSH1 0x40 MLOAD PUSH3 0x461BCD PUSH1 0xE5 SHL DUP2 MSTORE PUSH1 0x20 PUSH1 0x4 DUP3 ADD MSTORE PUSH1 0x11 PUSH1 0x24 DUP3 ADD MSTORE PUSH17 0x43616C6C6572206973206E6F7420454F41 PUSH1 0x78 SHL PUSH1 0x44 DUP3 ADD MSTORE PUSH1 0x64 ADD PUSH2 0x8DB JUMP JUMPDEST PUSH2 0x1315 PUSH2 0x22A9 JUMP JUMPDEST PUSH2 0x1354 DUP6 DUP6 DUP1 DUP1 PUSH1 0x1F ADD PUSH1 0x20 DUP1 SWAP2 DIV MUL PUSH1 0x20 ADD PUSH1 0x40 MLOAD SWAP1 DUP2 ADD PUSH1 0x40 MSTORE DUP1 SWAP4 SWAP3 SWAP2 SWAP1 DUP2 DUP2 MSTORE PUSH1 0x20 ADD DUP4 DUP4 DUP1 DUP3 DUP5 CALLDATACOPY PUSH1 0x0 SWAP3 ADD SWAP2 SWAP1 SWAP2 MSTORE POP PUSH2 0x2058 SWAP3 POP POP POP JUMP JUMPDEST PUSH2 0x13A0 JUMPI PUSH1 0x40 MLOAD PUSH3 0x461BCD PUSH1 0xE5 SHL DUP2 MSTORE PUSH1 0x20 PUSH1 0x4 DUP3 ADD MSTORE PUSH1 0x17 PUSH1 0x24 DUP3 ADD MSTORE PUSH32 0x746F426C6F636B636861696E206E6F7420657869737473000000000000000000 PUSH1 0x44 DUP3 ADD MSTORE PUSH1 0x64 ADD PUSH2 0x8DB JUMP JUMPDEST PUSH2 0x13ED DUP4 DUP4 DUP1 DUP1 PUSH1 0x1F ADD PUSH1 0x20 DUP1 SWAP2 DIV MUL PUSH1 0x20 ADD PUSH1 0x40 MLOAD SWAP1 DUP2 ADD PUSH1 0x40 MSTORE DUP1 SWAP4 SWAP3 SWAP2 SWAP1 DUP2 DUP2 MSTORE PUSH1 0x20 ADD DUP4 DUP4 DUP1 DUP3 DUP5 CALLDATACOPY PUSH1 0x0 SWAP3 ADD DUP3 SWAP1 MSTORE POP PUSH1 0x40 DUP1 MLOAD PUSH1 0x20 DUP2 ADD SWAP1 SWAP2 MSTORE SWAP1 DUP2 MSTORE SWAP3 POP PUSH2 0x25D8 SWAP2 POP POP JUMP JUMPDEST ISZERO PUSH2 0x142E JUMPI PUSH1 0x40 MLOAD PUSH3 0x461BCD PUSH1 0xE5 SHL DUP2 MSTORE PUSH1 0x20 PUSH1 0x4 DUP3 ADD MSTORE PUSH1 0x11 PUSH1 0x24 DUP3 ADD MSTORE PUSH17 0x1D1BD059191C995CDCC81A5CC81B9D5B1B PUSH1 0x7A SHL PUSH1 0x44 DUP3 ADD MSTORE PUSH1 0x64 ADD PUSH2 0x8DB JUMP JUMPDEST PUSH1 0x0 PUSH1 0x1 PUSH1 0x9 DUP8 DUP8 PUSH1 0x40 MLOAD PUSH2 0x1444 SWAP3 SWAP2 SWAP1 PUSH2 0x3230 JUMP JUMPDEST SWAP1 DUP2 MSTORE PUSH1 0x20 ADD PUSH1 0x40 MLOAD DUP1 SWAP2 SUB SWAP1 KECCAK256 SLOAD PUSH2 0x145D SWAP2 SWAP1 PUSH2 0x2F69 JUMP JUMPDEST SWAP1 POP PUSH1 0x0 DUP8 GT PUSH2 0x149D JUMPI PUSH1 0x40 MLOAD PUSH3 0x461BCD PUSH1 0xE5 SHL DUP2 MSTORE PUSH1 0x20 PUSH1 0x4 DUP3 ADD MSTORE PUSH1 0xB PUSH1 0x24 DUP3 ADD MSTORE PUSH11 0x616D6F756E74206973203 PUSH1 0xAC SHL PUSH1 0x44 DUP3 ADD MSTORE PUSH1 0x64 ADD PUSH2 0x8DB JUMP JUMPDEST PUSH1 0xB DUP2 DUP2 SLOAD DUP2 LT PUSH2 0x14B0 JUMPI PUSH2 0x14B0 PUSH2 0x2F7C JUMP JUMPDEST SWAP1 PUSH1 0x0 MSTORE PUSH1 0x20 PUSH1 0x0 KECCAK256 ADD PUSH1 0x0 ADD SLOAD DUP8 LT ISZERO PUSH2 0x150D JUMPI PUSH1 0x40 MLOAD PUSH3 0x461BCD PUSH1 0xE5 SHL DUP2 MSTORE PUSH1 0x20 PUSH1 0x4 DUP3 ADD MSTORE PUSH1 0x1B PUSH1 0x24 DUP3 ADD MSTORE PUSH32 0x616D6F756E74206973206C657373207468616E206D696E696D756D0000000000 PUSH1 0x44 DUP3 ADD MSTORE PUSH1 0x64 ADD PUSH2 0x8DB JUMP JUMPDEST PUSH1 0x2A DUP4 EQ PUSH2 0x155D JUMPI PUSH1 0x40 MLOAD PUSH3 0x461BCD PUSH1 0xE5 SHL DUP2 MSTORE PUSH1 0x20 PUSH1 0x4 DUP3 ADD MSTORE PUSH1 0x1B PUSH1 0x24 DUP3 ADD MSTORE PUSH32 0x696E76616C69642064657374696E6174696F6E20616464726573730000000000 PUSH1 0x44 DUP3 ADD MSTORE PUSH1 0x64 ADD PUSH2 0x8DB JUMP JUMPDEST PUSH1 0x4 SLOAD CALLVALUE LT ISZERO PUSH2 0x15AF JUMPI PUSH1 0x40 MLOAD PUSH3 0x461BCD PUSH1 0xE5 SHL DUP2 MSTORE PUSH1 0x20 PUSH1 0x4 DUP3 ADD MSTORE PUSH1 0x1A PUSH1 0x24 DUP3 ADD MSTORE PUSH32 0x496E76616C696420666565206E6174697665206272696467652E000000000000 PUSH1 0x44 DUP3 ADD MSTORE PUSH1 0x64 ADD PUSH2 0x8DB JUMP JUMPDEST PUSH1 0x2 SLOAD PUSH2 0x100 SWAP1 DIV PUSH1 0x1 PUSH1 0x1 PUSH1 0xA0 SHL SUB AND PUSH2 0x161F JUMPI PUSH1 0x4 SLOAD PUSH2 0x15D1 SWAP1 DUP9 PUSH2 0x3150 JUMP JUMPDEST CALLVALUE EQ PUSH2 0x161F JUMPI PUSH1 0x40 MLOAD PUSH3 0x461BCD PUSH1 0xE5 SHL DUP2 MSTORE PUSH1 0x20 PUSH1 0x4 DUP3 ADD MSTORE PUSH1 0x1F PUSH1 0x24 DUP3 ADD MSTORE PUSH32 0x72657175697265643A20666565206E6174697665206E6F7420656E6F75676800 PUSH1 0x44 DUP3 ADD MSTORE PUSH1 0x64 ADD PUSH2 0x8DB JUMP JUMPDEST PUSH1 0x0 PUSH2 0x3E8 PUSH1 0x5 SLOAD DUP10 PUSH2 0x1632 SWAP2 SWAP1 PUSH2 0x3240 JUMP JUMPDEST PUSH2 0x163C SWAP2 SWAP1 PUSH2 0x3257 JUMP JUMPDEST SWAP1 POP PUSH1 0x0 PUSH2 0x164A DUP3 DUP11 PUSH2 0x2F69 JUMP JUMPDEST SWAP1 POP DUP2 PUSH1 0x3 PUSH1 0x0 DUP3 DUP3 SLOAD PUSH2 0x165E SWAP2 SWAP1 PUSH2 0x3150 JUMP JUMPDEST SWAP1 SWAP2 SSTORE POP POP PUSH1 0x6 SLOAD PUSH1 0x4 SLOAD PUSH1 0x1 PUSH1 0x1 PUSH1 0xA0 SHL SUB SWAP1 SWAP2 AND SWAP1 ISZERO PUSH2 0x1691 JUMPI PUSH1 0x4 SLOAD PUSH2 0x1691 SWAP1 PUSH1 0x1 PUSH1 0x1 PUSH1 0xA0 SHL SUB DUP4 AND SWAP1 PUSH2 0x2631 JUMP JUMPDEST PUSH1 0x2 SLOAD PUSH2 0x100 SWAP1 DIV PUSH1 0x1 PUSH1 0x1 PUSH1 0xA0 SHL SUB AND ISZERO PUSH2 0x170F JUMPI PUSH2 0x16C4 CALLER PUSH1 0x2 SLOAD PUSH2 0x100 SWAP1 DIV PUSH1 0x1 PUSH1 0x1 PUSH1 0xA0 SHL SUB AND SWAP1 ADDRESS DUP6 PUSH2 0x26C8 JUMP JUMPDEST PUSH2 0x16E7 CALLER PUSH1 0x6 SLOAD PUSH1 0x2 SLOAD PUSH2 0x100 SWAP1 DIV PUSH1 0x1 PUSH1 0x1 PUSH1 0xA0 SHL SUB SWAP1 DUP2 AND SWAP3 SWAP2 AND DUP7 PUSH2 0x26C8 JUMP JUMPDEST PUSH1 0x0 PUSH1 0x4 SLOAD CALLVALUE PUSH2 0x16F7 SWAP2 SWAP1 PUSH2 0x2F69 JUMP JUMPDEST SWAP1 POP DUP1 ISZERO PUSH2 0x1709 JUMPI PUSH2 0x1709 CALLER DUP3 PUSH2 0x2631 JUMP JUMPDEST POP PUSH2 0x1762 JUMP JUMPDEST DUP3 ISZERO PUSH2 0x1728 JUMPI PUSH2 0x1728 PUSH1 0x1 PUSH1 0x1 PUSH1 0xA0 SHL SUB DUP3 AND DUP5 PUSH2 0x2631 JUMP JUMPDEST ADDRESS PUSH2 0x1733 DUP2 DUP5 PUSH2 0x2631 JUMP JUMPDEST PUSH1 0x0 DUP4 PUSH1 0x4 SLOAD PUSH2 0x1743 SWAP2 SWAP1 PUSH2 0x3150 JUMP JUMPDEST PUSH2 0x174D SWAP1 CALLVALUE PUSH2 0x2F69 JUMP JUMPDEST SWAP1 POP DUP1 ISZERO PUSH2 0x175F JUMPI PUSH2 0x175F CALLER DUP3 PUSH2 0x2631 JUMP JUMPDEST POP POP JUMPDEST PUSH32 0x4B07D21301CC34286797EAC5A16D2F1C0131FCF7B2051B24457F8D9A0949479D CALLER DUP4 DUP10 DUP10 DUP14 DUP14 PUSH1 0x40 MLOAD PUSH2 0x179B SWAP7 SWAP6 SWAP5 SWAP4 SWAP3 SWAP2 SWAP1 PUSH2 0x32A2 JUMP JUMPDEST PUSH1 0x40 MLOAD DUP1 SWAP2 SUB SWAP1 LOG1 POP PUSH1 0x1 SWAP10 SWAP9 POP POP POP POP POP POP POP POP POP JUMP JUMPDEST PUSH1 0x60 PUSH1 0xC DUP1 SLOAD DUP1 PUSH1 0x20 MUL PUSH1 0x20 ADD PUSH1 0x40 MLOAD SWAP1 DUP2 ADD PUSH1 0x40 MSTORE DUP1 SWAP3 SWAP2 SWAP1 DUP2 DUP2 MSTORE PUSH1 0x20 ADD PUSH1 0x0 SWAP1 JUMPDEST DUP3 DUP3 LT ISZERO PUSH2 0x1883 JUMPI DUP4 DUP3 SWAP1 PUSH1 0x0 MSTORE PUSH1 0x20 PUSH1 0x0 KECCAK256 ADD DUP1 SLOAD PUSH2 0x17F6 SWAP1 PUSH2 0x2EFD JUMP JUMPDEST DUP1 PUSH1 0x1F ADD PUSH1 0x20 DUP1 SWAP2 DIV MUL PUSH1 0x20 ADD PUSH1 0x40 MLOAD SWAP1 DUP2 ADD PUSH1 0x40 MSTORE DUP1 SWAP3 SWAP2 SWAP1 DUP2 DUP2 MSTORE PUSH1 0x20 ADD DUP3 DUP1 SLOAD PUSH2 0x1822 SWAP1 PUSH2 0x2EFD JUMP JUMPDEST DUP1 ISZERO PUSH2 0x186F JUMPI DUP1 PUSH1 0x1F LT PUSH2 0x1844 JUMPI PUSH2 0x100 DUP1 DUP4 SLOAD DIV MUL DUP4 MSTORE SWAP2 PUSH1 0x20 ADD SWAP2 PUSH2 0x186F JUMP JUMPDEST DUP3 ADD SWAP2 SWAP1 PUSH1 0x0 MSTORE PUSH1 0x20 PUSH1 0x0 KECCAK256 SWAP1 JUMPDEST DUP2 SLOAD DUP2 MSTORE SWAP1 PUSH1 0x1 ADD SWAP1 PUSH1 0x20 ADD DUP1 DUP4 GT PUSH2 0x1852 JUMPI DUP3 SWAP1 SUB PUSH1 0x1F AND DUP3 ADD SWAP2 JUMPDEST POP POP POP POP POP DUP2 MSTORE PUSH1 0x20 ADD SWAP1 PUSH1 0x1 ADD SWAP1 PUSH2 0x17D7 JUMP JUMPDEST POP POP POP POP SWAP1 POP SWAP1 JUMP JUMPDEST PUSH1 0x0 PUSH2 0x1898 DUP2 CALLER PUSH2 0x1173 JUMP JUMPDEST PUSH2 0x18B4 JUMPI PUSH1 0x40 MLOAD PUSH3 0x461BCD PUSH1 0xE5 SHL DUP2 MSTORE PUSH1 0x4 ADD PUSH2 0x8DB SWAP1 PUSH2 0x2F92 JUMP JUMPDEST PUSH2 0x18BC PUSH2 0x22A9 JUMP JUMPDEST PUSH2 0xC0B PUSH1 0x0 DUP1 MLOAD PUSH1 0x20 PUSH2 0x335A DUP4 CODECOPY DUP2 MLOAD SWAP2 MSTORE DUP4 PUSH2 0x9C5 JUMP JUMPDEST PUSH1 0x0 PUSH2 0x18E0 DUP2 CALLER PUSH2 0x1173 JUMP JUMPDEST PUSH2 0x18FC JUMPI PUSH1 0x40 MLOAD PUSH3 0x461BCD PUSH1 0xE5 SHL DUP2 MSTORE PUSH1 0x4 ADD PUSH2 0x8DB SWAP1 PUSH2 0x2F92 JUMP JUMPDEST PUSH2 0x1904 PUSH2 0x22A9 JUMP JUMPDEST PUSH2 0x190D DUP3 PUSH2 0x1CD6 JUMP JUMPDEST PUSH2 0x1929 JUMPI PUSH1 0x40 MLOAD PUSH3 0x461BCD PUSH1 0xE5 SHL DUP2 MSTORE PUSH1 0x4 ADD PUSH2 0x8DB SWAP1 PUSH2 0x2FB5 JUMP JUMPDEST PUSH1 0x0 PUSH1 0x1 PUSH1 0x8 DUP5 PUSH1 0x40 MLOAD PUSH2 0x193D SWAP2 SWAP1 PUSH2 0x2F37 JUMP JUMPDEST SWAP1 DUP2 MSTORE PUSH1 0x20 ADD PUSH1 0x40 MLOAD DUP1 SWAP2 SUB SWAP1 KECCAK256 SLOAD PUSH2 0x1956 SWAP2 SWAP1 PUSH2 0x2F69 JUMP JUMPDEST PUSH1 0xA SLOAD SWAP1 SWAP2 POP PUSH1 0x0 SWAP1 PUSH2 0x196B SWAP1 PUSH1 0x1 SWAP1 PUSH2 0x2F69 JUMP JUMPDEST SWAP1 POP PUSH1 0x0 PUSH1 0xC DUP3 DUP2 SLOAD DUP2 LT PUSH2 0x1982 JUMPI PUSH2 0x1982 PUSH2 0x2F7C JUMP JUMPDEST SWAP1 PUSH1 0x0 MSTORE PUSH1 0x20 PUSH1 0x0 KECCAK256 ADD DUP1 SLOAD PUSH2 0x1997 SWAP1 PUSH2 0x2EFD JUMP JUMPDEST DUP1 PUSH1 0x1F ADD PUSH1 0x20 DUP1 SWAP2 DIV MUL PUSH1 0x20 ADD PUSH1 0x40 MLOAD SWAP1 DUP2 ADD PUSH1 0x40 MSTORE DUP1 SWAP3 SWAP2 SWAP1 DUP2 DUP2 MSTORE PUSH1 0x20 ADD DUP3 DUP1 SLOAD PUSH2 0x19C3 SWAP1 PUSH2 0x2EFD JUMP JUMPDEST DUP1 ISZERO PUSH2 0x1A10 JUMPI DUP1 PUSH1 0x1F LT PUSH2 0x19E5 JUMPI PUSH2 0x100 DUP1 DUP4 SLOAD DIV MUL DUP4 MSTORE SWAP2 PUSH1 0x20 ADD SWAP2 PUSH2 0x1A10 JUMP JUMPDEST DUP3 ADD SWAP2 SWAP1 PUSH1 0x0 MSTORE PUSH1 0x20 PUSH1 0x0 KECCAK256 SWAP1 JUMPDEST DUP2 SLOAD DUP2 MSTORE SWAP1 PUSH1 0x1 ADD SWAP1 PUSH1 0x20 ADD DUP1 DUP4 GT PUSH2 0x19F3 JUMPI DUP3 SWAP1 SUB PUSH1 0x1F AND DUP3 ADD SWAP2 JUMPDEST POP POP POP POP POP SWAP1 POP PUSH1 0xA DUP3 DUP2 SLOAD DUP2 LT PUSH2 0x1A2A JUMPI PUSH2 0x1A2A PUSH2 0x2F7C JUMP JUMPDEST SWAP1 PUSH1 0x0 MSTORE PUSH1 0x20 PUSH1 0x0 KECCAK256 ADD PUSH1 0xA DUP5 DUP2 SLOAD DUP2 LT PUSH2 0x1A47 JUMPI PUSH2 0x1A47 PUSH2 0x2F7C JUMP JUMPDEST PUSH1 0x0 SWAP2 DUP3 MSTORE PUSH1 0x20 SWAP1 SWAP2 KECCAK256 SWAP2 SLOAD SWAP2 ADD SSTORE PUSH1 0xC DUP1 SLOAD DUP4 SWAP1 DUP2 LT PUSH2 0x1A6A JUMPI PUSH2 0x1A6A PUSH2 0x2F7C JUMP JUMPDEST SWAP1 PUSH1 0x0 MSTORE PUSH1 0x20 PUSH1 0x0 KECCAK256 ADD PUSH1 0xC DUP5 DUP2 SLOAD DUP2 LT PUSH2 0x1A87 JUMPI PUSH2 0x1A87 PUSH2 0x2F7C JUMP JUMPDEST SWAP1 PUSH1 0x0 MSTORE PUSH1 0x20 PUSH1 0x0 KECCAK256 ADD SWAP1 DUP2 PUSH2 0x1A9D SWAP2 SWAP1 PUSH2 0x3070 JUMP JUMPDEST POP PUSH2 0x1AA9 DUP4 PUSH1 0x1 PUSH2 0x3150 JUMP JUMPDEST PUSH1 0x8 DUP3 PUSH1 0x40 MLOAD PUSH2 0x1AB9 SWAP2 SWAP1 PUSH2 0x2F37 JUMP JUMPDEST SWAP1 DUP2 MSTORE PUSH1 0x20 ADD PUSH1 0x40 MLOAD DUP1 SWAP2 SUB SWAP1 KECCAK256 DUP2 SWAP1 SSTORE POP PUSH1 0x8 DUP6 PUSH1 0x40 MLOAD PUSH2 0x1ADB SWAP2 SWAP1 PUSH2 0x2F37 JUMP JUMPDEST SWAP1 DUP2 MSTORE PUSH1 0x20 ADD PUSH1 0x40 MLOAD DUP1 SWAP2 SUB SWAP1 KECCAK256 PUSH1 0x0 SWAP1 SSTORE PUSH1 0xA DUP1 SLOAD DUP1 PUSH2 0x1AFE JUMPI PUSH2 0x1AFE PUSH2 0x3163 JUMP JUMPDEST PUSH1 0x0 DUP3 DUP2 MSTORE PUSH1 0x20 DUP2 KECCAK256 DUP3 ADD PUSH1 0x0 NOT SWAP1 DUP2 ADD SWAP2 SWAP1 SWAP2 SSTORE ADD SWAP1 SSTORE PUSH1 0xC DUP1 SLOAD DUP1 PUSH2 0x114A JUMPI PUSH2 0x114A PUSH2 0x3163 JUMP JUMPDEST PUSH1 0x0 PUSH2 0x1B33 DUP2 CALLER PUSH2 0x1173 JUMP JUMPDEST PUSH2 0x1B4F JUMPI PUSH1 0x40 MLOAD PUSH3 0x461BCD PUSH1 0xE5 SHL DUP2 MSTORE PUSH1 0x4 ADD PUSH2 0x8DB SWAP1 PUSH2 0x2F92 JUMP JUMPDEST PUSH1 0x1 PUSH1 0x1 PUSH1 0xA0 SHL SUB DUP3 AND PUSH2 0x1B98 JUMPI PUSH1 0x40 MLOAD PUSH3 0x461BCD PUSH1 0xE5 SHL DUP2 MSTORE PUSH1 0x20 PUSH1 0x4 DUP3 ADD MSTORE PUSH1 0x10 PUSH1 0x24 DUP3 ADD MSTORE PUSH16 0x7265636569766572206973207A65726F PUSH1 0x80 SHL PUSH1 0x44 DUP3 ADD MSTORE PUSH1 0x64 ADD PUSH2 0x8DB JUMP JUMPDEST PUSH1 0x2 SLOAD PUSH2 0x100 SWAP1 DIV PUSH1 0x1 PUSH1 0x1 PUSH1 0xA0 SHL SUB AND ISZERO PUSH2 0x1C87 JUMPI PUSH1 0x2 SLOAD PUSH1 0x40 MLOAD PUSH4 0x70A08231 PUSH1 0xE0 SHL DUP2 MSTORE ADDRESS PUSH1 0x4 DUP3 ADD MSTORE PUSH2 0x100 SWAP1 SWAP2 DIV PUSH1 0x1 PUSH1 0x1 PUSH1 0xA0 SHL SUB AND SWAP1 PUSH4 0x70A08231 SWAP1 PUSH1 0x24 ADD PUSH1 0x20 PUSH1 0x40 MLOAD DUP1 DUP4 SUB DUP2 DUP7 GAS STATICCALL ISZERO DUP1 ISZERO PUSH2 0x1BFA JUMPI RETURNDATASIZE PUSH1 0x0 DUP1 RETURNDATACOPY RETURNDATASIZE PUSH1 0x0 REVERT JUMPDEST POP POP POP POP PUSH1 0x40 MLOAD RETURNDATASIZE PUSH1 0x1F NOT PUSH1 0x1F DUP3 ADD AND DUP3 ADD DUP1 PUSH1 0x40 MSTORE POP DUP2 ADD SWAP1 PUSH2 0x1C1E SWAP2 SWAP1 PUSH2 0x3009 JUMP JUMPDEST DUP4 GT ISZERO PUSH2 0x1C63 JUMPI PUSH1 0x40 MLOAD PUSH3 0x461BCD PUSH1 0xE5 SHL DUP2 MSTORE PUSH1 0x20 PUSH1 0x4 DUP3 ADD MSTORE PUSH1 0x13 PUSH1 0x24 DUP3 ADD MSTORE PUSH19 0x696E737566696369656E742062616C616E6365 PUSH1 0x68 SHL PUSH1 0x44 DUP3 ADD MSTORE PUSH1 0x64 ADD PUSH2 0x8DB JUMP JUMPDEST PUSH1 0x2 SLOAD PUSH2 0x1C7F SWAP1 PUSH2 0x100 SWAP1 DIV PUSH1 0x1 PUSH1 0x1 PUSH1 0xA0 SHL SUB AND DUP4 DUP6 PUSH2 0x272F JUMP JUMPDEST POP PUSH1 0x1 PUSH2 0x7B0 JUMP JUMPDEST DUP3 SELFBALANCE LT ISZERO PUSH2 0x1CA7 JUMPI PUSH1 0x40 MLOAD PUSH3 0x461BCD PUSH1 0xE5 SHL DUP2 MSTORE PUSH1 0x4 ADD PUSH2 0x8DB SWAP1 PUSH2 0x32EA JUMP JUMPDEST DUP2 PUSH2 0x1CBB PUSH1 0x1 PUSH1 0x1 PUSH1 0xA0 SHL SUB DUP3 AND DUP6 PUSH2 0x2631 JUMP JUMPDEST POP JUMPDEST POP PUSH1 0x1 SWAP3 SWAP2 POP POP JUMP JUMPDEST PUSH1 0xD DUP2 DUP2 SLOAD DUP2 LT PUSH2 0x7C6 JUMPI PUSH1 0x0 DUP1 REVERT JUMPDEST PUSH1 0x0 PUSH1 0x8 DUP3 PUSH1 0x40 MLOAD PUSH2 0x1CE8 SWAP2 SWAP1 PUSH2 0x2F37 JUMP JUMPDEST SWAP1 DUP2 MSTORE PUSH1 0x20 ADD PUSH1 0x40 MLOAD DUP1 SWAP2 SUB SWAP1 KECCAK256 SLOAD PUSH1 0x0 SUB PUSH2 0xC0B JUMPI POP PUSH1 0x0 SWAP2 SWAP1 POP JUMP JUMPDEST PUSH1 0x2 SLOAD PUSH2 0x100 SWAP1 DIV PUSH1 0x1 PUSH1 0x1 PUSH1 0xA0 SHL SUB AND ISZERO PUSH2 0x1D54 JUMPI PUSH1 0x40 MLOAD PUSH3 0x461BCD PUSH1 0xE5 SHL DUP2 MSTORE PUSH1 0x20 PUSH1 0x4 DUP3 ADD MSTORE PUSH1 0xD PUSH1 0x24 DUP3 ADD MSTORE PUSH13 0x2737BA1039B2BA103A37B5B2B7 PUSH1 0x99 SHL PUSH1 0x44 DUP3 ADD MSTORE PUSH1 0x64 ADD PUSH2 0x8DB JUMP JUMPDEST PUSH1 0x6 SLOAD PUSH1 0x1 PUSH1 0x1 PUSH1 0xA0 SHL SUB AND ISZERO PUSH2 0x1DA4 JUMPI PUSH1 0x40 MLOAD PUSH3 0x461BCD PUSH1 0xE5 SHL DUP2 MSTORE PUSH1 0x20 PUSH1 0x4 DUP3 ADD MSTORE PUSH1 0x14 PUSH1 0x24 DUP3 ADD MSTORE PUSH20 0x139BDD081CD95D081BDDDB995C881DD85B1B195D PUSH1 0x62 SHL PUSH1 0x44 DUP3 ADD MSTORE PUSH1 0x64 ADD PUSH2 0x8DB JUMP JUMPDEST PUSH1 0x4 SLOAD ISZERO PUSH2 0x1DF4 JUMPI PUSH1 0x40 MLOAD PUSH3 0x461BCD PUSH1 0xE5 SHL DUP2 MSTORE PUSH1 0x20 PUSH1 0x4 DUP3 ADD MSTORE PUSH1 0x1A PUSH1 0x24 DUP3 ADD MSTORE PUSH32 0x4E6F74207365742061646D696E2064656661756C7420726F6C65000000000000 PUSH1 0x44 DUP3 ADD MSTORE PUSH1 0x64 ADD PUSH2 0x8DB JUMP JUMPDEST PUSH1 0x5 SLOAD ISZERO PUSH2 0x1E44 JUMPI PUSH1 0x40 MLOAD PUSH3 0x461BCD PUSH1 0xE5 SHL DUP2 MSTORE PUSH1 0x20 PUSH1 0x4 DUP3 ADD MSTORE PUSH1 0x1A PUSH1 0x24 DUP3 ADD MSTORE PUSH32 0x4E6F74207365742061646D696E2064656661756C7420726F6C65000000000000 PUSH1 0x44 DUP3 ADD MSTORE PUSH1 0x64 ADD PUSH2 0x8DB JUMP JUMPDEST PUSH1 0x64 DUP2 GT ISZERO PUSH2 0x1E89 JUMPI PUSH1 0x40 MLOAD PUSH3 0x461BCD PUSH1 0xE5 SHL DUP2 MSTORE PUSH1 0x20 PUSH1 0x4 DUP3 ADD MSTORE PUSH1 0x11 PUSH1 0x24 DUP3 ADD MSTORE PUSH17 0x4665652070657263656E74203E20313025 PUSH1 0x78 SHL PUSH1 0x44 DUP3 ADD MSTORE PUSH1 0x64 ADD PUSH2 0x8DB JUMP JUMPDEST PUSH1 0x2 DUP1 SLOAD PUSH2 0x100 PUSH1 0x1 PUSH1 0xA8 SHL SUB NOT AND PUSH2 0x100 PUSH1 0x1 PUSH1 0x1 PUSH1 0xA0 SHL SUB DUP9 DUP2 AND SWAP2 SWAP1 SWAP2 MUL SWAP2 SWAP1 SWAP2 OR SWAP1 SWAP2 SSTORE PUSH1 0x6 DUP1 SLOAD PUSH1 0x1 PUSH1 0x1 PUSH1 0xA0 SHL SUB NOT AND SWAP2 DUP7 AND SWAP2 SWAP1 SWAP2 OR SWAP1 SSTORE PUSH2 0x1ED3 PUSH1 0x0 DUP6 PUSH2 0x22FC JUMP JUMPDEST POP PUSH2 0x1EEC PUSH1 0x0 DUP1 MLOAD PUSH1 0x20 PUSH2 0x335A DUP4 CODECOPY DUP2 MLOAD SWAP2 MSTORE DUP5 PUSH2 0x22FC JUMP JUMPDEST POP PUSH1 0x4 SWAP2 SWAP1 SWAP2 SSTORE PUSH1 0x5 SSTORE POP POP POP JUMP JUMPDEST PUSH1 0x0 DUP3 DUP2 MSTORE PUSH1 0x1 PUSH1 0x20 DUP2 SWAP1 MSTORE PUSH1 0x40 SWAP1 SWAP2 KECCAK256 ADD SLOAD PUSH2 0x1F17 DUP2 PUSH2 0x22EF JUMP JUMPDEST PUSH2 0x1F21 DUP4 DUP4 PUSH2 0x2760 JUMP JUMPDEST POP POP POP JUMP JUMPDEST PUSH1 0x40 DUP1 MLOAD PUSH1 0x20 DUP1 DUP3 ADD SWAP8 SWAP1 SWAP8 MSTORE DUP1 DUP3 ADD SWAP6 SWAP1 SWAP6 MSTORE PUSH1 0x60 SWAP4 DUP5 SHL PUSH12 0xFFFFFFFFFFFFFFFFFFFFFFFF NOT AND SWAP4 DUP6 ADD SWAP4 SWAP1 SWAP4 MSTORE PUSH1 0x74 DUP5 ADD SWAP2 SWAP1 SWAP2 MSTORE PUSH1 0xE0 SHL PUSH1 0x1 PUSH1 0x1 PUSH1 0xE0 SHL SUB NOT AND PUSH1 0x94 DUP4 ADD MSTORE DUP1 MLOAD DUP1 DUP4 SUB PUSH1 0x78 ADD DUP2 MSTORE PUSH1 0x98 SWAP1 SWAP3 ADD SWAP1 MSTORE DUP1 MLOAD SWAP2 ADD KECCAK256 SWAP1 JUMP JUMPDEST PUSH1 0x60 PUSH1 0xD DUP1 SLOAD DUP1 PUSH1 0x20 MUL PUSH1 0x20 ADD PUSH1 0x40 MLOAD SWAP1 DUP2 ADD PUSH1 0x40 MSTORE DUP1 SWAP3 SWAP2 SWAP1 DUP2 DUP2 MSTORE PUSH1 0x20 ADD PUSH1 0x0 SWAP1 JUMPDEST DUP3 DUP3 LT ISZERO PUSH2 0x1883 JUMPI DUP4 DUP3 SWAP1 PUSH1 0x0 MSTORE PUSH1 0x20 PUSH1 0x0 KECCAK256 ADD DUP1 SLOAD PUSH2 0x1FCB SWAP1 PUSH2 0x2EFD JUMP JUMPDEST DUP1 PUSH1 0x1F ADD PUSH1 0x20 DUP1 SWAP2 DIV MUL PUSH1 0x20 ADD PUSH1 0x40 MLOAD SWAP1 DUP2 ADD PUSH1 0x40 MSTORE DUP1 SWAP3 SWAP2 SWAP1 DUP2 DUP2 MSTORE PUSH1 0x20 ADD DUP3 DUP1 SLOAD PUSH2 0x1FF7 SWAP1 PUSH2 0x2EFD JUMP JUMPDEST DUP1 ISZERO PUSH2 0x2044 JUMPI DUP1 PUSH1 0x1F LT PUSH2 0x2019 JUMPI PUSH2 0x100 DUP1 DUP4 SLOAD DIV MUL DUP4 MSTORE SWAP2 PUSH1 0x20 ADD SWAP2 PUSH2 0x2044 JUMP JUMPDEST DUP3 ADD SWAP2 SWAP1 PUSH1 0x0 MSTORE PUSH1 0x20 PUSH1 0x0 KECCAK256 SWAP1 JUMPDEST DUP2 SLOAD DUP2 MSTORE SWAP1 PUSH1 0x1 ADD SWAP1 PUSH1 0x20 ADD DUP1 DUP4 GT PUSH2 0x2027 JUMPI DUP3 SWAP1 SUB PUSH1 0x1F AND DUP3 ADD SWAP2 JUMPDEST POP POP POP POP POP DUP2 MSTORE PUSH1 0x20 ADD SWAP1 PUSH1 0x1 ADD SWAP1 PUSH2 0x1FAC JUMP JUMPDEST PUSH1 0x0 PUSH1 0x9 DUP3 PUSH1 0x40 MLOAD PUSH2 0x1CE8 SWAP2 SWAP1 PUSH2 0x2F37 JUMP JUMPDEST PUSH1 0x0 PUSH2 0x2076 DUP2 CALLER PUSH2 0x1173 JUMP JUMPDEST PUSH2 0x2092 JUMPI PUSH1 0x40 MLOAD PUSH3 0x461BCD PUSH1 0xE5 SHL DUP2 MSTORE PUSH1 0x4 ADD PUSH2 0x8DB SWAP1 PUSH2 0x2F92 JUMP JUMPDEST PUSH2 0x209A PUSH2 0x22A9 JUMP JUMPDEST PUSH2 0x20A3 DUP3 PUSH2 0x1CD6 JUMP JUMPDEST ISZERO PUSH2 0x20E4 JUMPI PUSH1 0x40 MLOAD PUSH3 0x461BCD PUSH1 0xE5 SHL DUP2 MSTORE PUSH1 0x20 PUSH1 0x4 DUP3 ADD MSTORE PUSH1 0x11 PUSH1 0x24 DUP3 ADD MSTORE PUSH17 0x426C6F636B636861696E20657869737473 PUSH1 0x78 SHL PUSH1 0x44 DUP3 ADD MSTORE PUSH1 0x64 ADD PUSH2 0x8DB JUMP JUMPDEST PUSH1 0x40 DUP1 MLOAD PUSH1 0x20 DUP2 ADD SWAP1 SWAP2 MSTORE PUSH1 0x0 DUP1 DUP3 MSTORE PUSH1 0xA DUP1 SLOAD PUSH1 0x1 DUP1 DUP3 ADD DUP4 SSTORE SWAP2 DUP4 MSTORE DUP4 MLOAD PUSH32 0xC65A7BB8D6351C1CF70C95A316CC6A92839C986682D98BC35F958F4883F9D2A8 SWAP1 SWAP2 ADD SSTORE PUSH1 0xC DUP1 SLOAD SWAP2 DUP3 ADD DUP2 SSTORE SWAP1 SWAP2 MSTORE PUSH32 0xDF6966C971051C3D54EC59162606531493A51404A002842F56009D7E5CF4A8C7 ADD PUSH2 0x2161 DUP5 DUP3 PUSH2 0x3179 JUMP JUMPDEST POP PUSH1 0xA SLOAD PUSH1 0x40 MLOAD DUP2 SWAP1 PUSH1 0x8 SWAP1 PUSH2 0x2178 SWAP1 DUP8 SWAP1 PUSH2 0x2F37 JUMP JUMPDEST SWAP1 DUP2 MSTORE PUSH1 0x40 MLOAD SWAP1 DUP2 SWAP1 SUB PUSH1 0x20 ADD SWAP1 KECCAK256 SSTORE SWAP2 POP POP SWAP2 SWAP1 POP JUMP JUMPDEST PUSH1 0x0 PUSH2 0x219C DUP2 CALLER PUSH2 0x1173 JUMP JUMPDEST PUSH2 0x21B8 JUMPI PUSH1 0x40 MLOAD PUSH3 0x461BCD PUSH1 0xE5 SHL DUP2 MSTORE PUSH1 0x4 ADD PUSH2 0x8DB SWAP1 PUSH2 0x2F92 JUMP JUMPDEST PUSH2 0x21C0 PUSH2 0x22A9 JUMP JUMPDEST PUSH1 0x6 DUP1 SLOAD PUSH1 0x1 PUSH1 0x1 PUSH1 0xA0 SHL SUB NOT AND PUSH1 0x1 PUSH1 0x1 PUSH1 0xA0 SHL SUB DUP5 AND OR SWAP1 SSTORE CALLER PUSH1 0x1 PUSH1 0x1 PUSH1 0xA0 SHL SUB AND DUP3 PUSH1 0x1 PUSH1 0x1 PUSH1 0xA0 SHL SUB AND SUB PUSH2 0x223C JUMPI PUSH1 0x40 MLOAD PUSH3 0x461BCD PUSH1 0xE5 SHL DUP2 MSTORE PUSH1 0x20 PUSH1 0x4 DUP3 ADD MSTORE PUSH1 0x1E PUSH1 0x24 DUP3 ADD MSTORE PUSH32 0x6E65774F776E65722063616E206E6F74206265206D73672E73656E6465720000 PUSH1 0x44 DUP3 ADD MSTORE PUSH1 0x64 ADD PUSH2 0x8DB JUMP JUMPDEST PUSH1 0x1 PUSH1 0x1 PUSH1 0xA0 SHL SUB DUP3 AND PUSH2 0x2292 JUMPI PUSH1 0x40 MLOAD PUSH3 0x461BCD PUSH1 0xE5 SHL DUP2 MSTORE PUSH1 0x20 PUSH1 0x4 DUP3 ADD MSTORE PUSH1 0x18 PUSH1 0x24 DUP3 ADD MSTORE PUSH32 0x6E65774F776E65722063616E206E6F74206265207A65726F0000000000000000 PUSH1 0x44 DUP3 ADD MSTORE PUSH1 0x64 ADD PUSH2 0x8DB JUMP JUMPDEST PUSH2 0x229D PUSH1 0x0 DUP4 PUSH2 0x22FC JUMP JUMPDEST POP PUSH2 0xC0B PUSH1 0x0 CALLER PUSH2 0x1EFB JUMP JUMPDEST PUSH1 0x2 SLOAD PUSH1 0xFF AND ISZERO PUSH2 0xAD3 JUMPI PUSH1 0x40 MLOAD PUSH3 0x461BCD PUSH1 0xE5 SHL DUP2 MSTORE PUSH1 0x20 PUSH1 0x4 DUP3 ADD MSTORE PUSH1 0x10 PUSH1 0x24 DUP3 ADD MSTORE PUSH16 0x14185D5CD8589B194E881C185D5CD959 PUSH1 0x82 SHL PUSH1 0x44 DUP3 ADD MSTORE PUSH1 0x64 ADD PUSH2 0x8DB JUMP JUMPDEST PUSH2 0x22F9 DUP2 CALLER PUSH2 0x2786 JUMP JUMPDEST POP JUMP JUMPDEST PUSH1 0x0 PUSH2 0x2308 DUP4 DUP4 PUSH2 0x1173 JUMP JUMPDEST PUSH2 0x236D JUMPI PUSH1 0x0 DUP4 DUP2 MSTORE PUSH1 0x1 PUSH1 0x20 DUP2 DUP2 MSTORE PUSH1 0x40 DUP1 DUP5 KECCAK256 PUSH1 0x1 PUSH1 0x1 PUSH1 0xA0 SHL SUB DUP8 AND DUP1 DUP7 MSTORE SWAP3 MSTORE DUP1 DUP5 KECCAK256 DUP1 SLOAD PUSH1 0xFF NOT AND SWAP1 SWAP4 OR SWAP1 SWAP3 SSTORE SWAP1 MLOAD CALLER SWAP3 DUP7 SWAP2 PUSH32 0x2F8788117E7EFF1D82E926EC794901D17C78024A50270940304540A733656F0D SWAP2 SWAP1 LOG4 POP PUSH1 0x1 PUSH2 0x7B0 JUMP JUMPDEST POP PUSH1 0x0 PUSH2 0x7B0 JUMP JUMPDEST PUSH1 0x1 PUSH1 0x1 PUSH1 0xA0 SHL SUB DUP2 AND CALLER EQ PUSH2 0x239E JUMPI PUSH1 0x40 MLOAD PUSH4 0x334BD919 PUSH1 0xE1 SHL DUP2 MSTORE PUSH1 0x4 ADD PUSH1 0x40 MLOAD DUP1 SWAP2 SUB SWAP1 REVERT JUMPDEST PUSH2 0x1F21 DUP3 DUP3 PUSH2 0x27BF JUMP JUMPDEST PUSH2 0x23B0 PUSH2 0x282C JUMP JUMPDEST PUSH1 0x2 DUP1 SLOAD PUSH1 0xFF NOT AND SWAP1 SSTORE PUSH32 0x5DB9EE0A495BF2E6FF9C91A7834C1BA4FDD244A5E8AA4E537BD38AEAE4B073AA CALLER JUMPDEST PUSH1 0x40 MLOAD PUSH1 0x1 PUSH1 0x1 PUSH1 0xA0 SHL SUB SWAP1 SWAP2 AND DUP2 MSTORE PUSH1 0x20 ADD PUSH1 0x40 MLOAD DUP1 SWAP2 SUB SWAP1 LOG1 JUMP JUMPDEST PUSH1 0x0 PUSH2 0x2409 DUP7 DUP7 DUP7 DUP7 DUP7 PUSH2 0x1F26 JUMP JUMPDEST PUSH1 0x0 DUP2 DUP2 MSTORE PUSH1 0x7 PUSH1 0x20 MSTORE PUSH1 0x40 SWAP1 KECCAK256 SLOAD SWAP1 SWAP2 POP PUSH1 0xFF AND ISZERO PUSH2 0x2457 JUMPI PUSH1 0x40 MLOAD PUSH3 0x461BCD PUSH1 0xE5 SHL DUP2 MSTORE PUSH1 0x20 PUSH1 0x4 DUP3 ADD MSTORE PUSH1 0x9 PUSH1 0x24 DUP3 ADD MSTORE PUSH9 0x1C1C9BD8D95CDCD959 PUSH1 0xBA SHL PUSH1 0x44 DUP3 ADD MSTORE PUSH1 0x64 ADD PUSH2 0x8DB JUMP JUMPDEST PUSH1 0x0 SWAP1 DUP2 MSTORE PUSH1 0x7 PUSH1 0x20 MSTORE PUSH1 0x40 SWAP1 KECCAK256 DUP1 SLOAD PUSH1 0xFF NOT AND PUSH1 0x1 OR SWAP1 SSTORE POP POP POP POP POP JUMP JUMPDEST PUSH1 0x2 SLOAD PUSH1 0x0 SWAP1 PUSH2 0x100 SWAP1 DIV PUSH1 0x1 PUSH1 0x1 PUSH1 0xA0 SHL SUB AND PUSH2 0x24C9 JUMPI DUP2 SELFBALANCE LT ISZERO PUSH2 0x24AF JUMPI PUSH1 0x40 MLOAD PUSH3 0x461BCD PUSH1 0xE5 SHL DUP2 MSTORE PUSH1 0x4 ADD PUSH2 0x8DB SWAP1 PUSH2 0x32EA JUMP JUMPDEST DUP3 PUSH2 0x24C3 PUSH1 0x1 PUSH1 0x1 PUSH1 0xA0 SHL SUB DUP3 AND DUP5 PUSH2 0x2631 JUMP JUMPDEST POP PUSH2 0x1CBD JUMP JUMPDEST PUSH1 0x2 SLOAD PUSH1 0x40 MLOAD PUSH4 0x70A08231 PUSH1 0xE0 SHL DUP2 MSTORE ADDRESS PUSH1 0x4 DUP3 ADD MSTORE DUP4 SWAP2 PUSH2 0x100 SWAP1 DIV PUSH1 0x1 PUSH1 0x1 PUSH1 0xA0 SHL SUB AND SWAP1 PUSH4 0x70A08231 SWAP1 PUSH1 0x24 ADD PUSH1 0x20 PUSH1 0x40 MLOAD DUP1 DUP4 SUB DUP2 DUP7 GAS STATICCALL ISZERO DUP1 ISZERO PUSH2 0x2516 JUMPI RETURNDATASIZE PUSH1 0x0 DUP1 RETURNDATACOPY RETURNDATASIZE PUSH1 0x0 REVERT JUMPDEST POP POP POP POP PUSH1 0x40 MLOAD RETURNDATASIZE PUSH1 0x1F NOT PUSH1 0x1F DUP3 ADD AND DUP3 ADD DUP1 PUSH1 0x40 MSTORE POP DUP2 ADD SWAP1 PUSH2 0x253A SWAP2 SWAP1 PUSH2 0x3009 JUMP JUMPDEST LT ISZERO PUSH2 0x257F JUMPI PUSH1 0x40 MLOAD PUSH3 0x461BCD PUSH1 0xE5 SHL DUP2 MSTORE PUSH1 0x20 PUSH1 0x4 DUP3 ADD MSTORE PUSH1 0x14 PUSH1 0x24 DUP3 ADD MSTORE PUSH20 0x696E73756666696369656E742062616C616E6365 PUSH1 0x60 SHL PUSH1 0x44 DUP3 ADD MSTORE PUSH1 0x64 ADD PUSH2 0x8DB JUMP JUMPDEST PUSH1 0x2 SLOAD PUSH2 0x1CBD SWAP1 PUSH2 0x100 SWAP1 DIV PUSH1 0x1 PUSH1 0x1 PUSH1 0xA0 SHL SUB AND DUP5 DUP5 PUSH2 0x272F JUMP JUMPDEST PUSH2 0x25A3 PUSH2 0x22A9 JUMP JUMPDEST PUSH1 0x2 DUP1 SLOAD PUSH1 0xFF NOT AND PUSH1 0x1 OR SWAP1 SSTORE PUSH32 0x62E78CEA01BEE320CD4E420270B5EA74000D11B0C9F74754EBDBFC544B05A258 PUSH2 0x23DD CALLER SWAP1 JUMP JUMPDEST PUSH1 0x0 DUP2 PUSH1 0x40 MLOAD PUSH1 0x20 ADD PUSH2 0x25EB SWAP2 SWAP1 PUSH2 0x2F37 JUMP JUMPDEST PUSH1 0x40 MLOAD PUSH1 0x20 DUP2 DUP4 SUB SUB DUP2 MSTORE SWAP1 PUSH1 0x40 MSTORE DUP1 MLOAD SWAP1 PUSH1 0x20 ADD KECCAK256 DUP4 PUSH1 0x40 MLOAD PUSH1 0x20 ADD PUSH2 0x2612 SWAP2 SWAP1 PUSH2 0x2F37 JUMP JUMPDEST PUSH1 0x40 MLOAD PUSH1 0x20 DUP2 DUP4 SUB SUB DUP2 MSTORE SWAP1 PUSH1 0x40 MSTORE DUP1 MLOAD SWAP1 PUSH1 0x20 ADD KECCAK256 EQ SWAP1 POP SWAP3 SWAP2 POP POP JUMP JUMPDEST DUP1 SELFBALANCE LT ISZERO PUSH2 0x2654 JUMPI PUSH1 0x40 MLOAD PUSH4 0xCD786059 PUSH1 0xE0 SHL DUP2 MSTORE ADDRESS PUSH1 0x4 DUP3 ADD MSTORE PUSH1 0x24 ADD PUSH2 0x8DB JUMP JUMPDEST PUSH1 0x0 DUP3 PUSH1 0x1 PUSH1 0x1 PUSH1 0xA0 SHL SUB AND DUP3 PUSH1 0x40 MLOAD PUSH1 0x0 PUSH1 0x40 MLOAD DUP1 DUP4 SUB DUP2 DUP6 DUP8 GAS CALL SWAP3 POP POP POP RETURNDATASIZE DUP1 PUSH1 0x0 DUP2 EQ PUSH2 0x26A1 JUMPI PUSH1 0x40 MLOAD SWAP2 POP PUSH1 0x1F NOT PUSH1 0x3F RETURNDATASIZE ADD AND DUP3 ADD PUSH1 0x40 MSTORE RETURNDATASIZE DUP3 MSTORE RETURNDATASIZE PUSH1 0x0 PUSH1 0x20 DUP5 ADD RETURNDATACOPY PUSH2 0x26A6 JUMP JUMPDEST PUSH1 0x60 SWAP2 POP JUMPDEST POP POP SWAP1 POP DUP1 PUSH2 0x1F21 JUMPI PUSH1 0x40 MLOAD PUSH4 0xA12F521 PUSH1 0xE1 SHL DUP2 MSTORE PUSH1 0x4 ADD PUSH1 0x40 MLOAD DUP1 SWAP2 SUB SWAP1 REVERT JUMPDEST PUSH1 0x40 MLOAD PUSH1 0x1 PUSH1 0x1 PUSH1 0xA0 SHL SUB DUP5 DUP2 AND PUSH1 0x24 DUP4 ADD MSTORE DUP4 DUP2 AND PUSH1 0x44 DUP4 ADD MSTORE PUSH1 0x64 DUP3 ADD DUP4 SWAP1 MSTORE PUSH2 0x9EB SWAP2 DUP7 SWAP2 DUP3 AND SWAP1 PUSH4 0x23B872DD SWAP1 PUSH1 0x84 ADD JUMPDEST PUSH1 0x40 MLOAD PUSH1 0x20 DUP2 DUP4 SUB SUB DUP2 MSTORE SWAP1 PUSH1 0x40 MSTORE SWAP2 POP PUSH1 0xE0 SHL PUSH1 0x20 DUP3 ADD DUP1 MLOAD PUSH1 0x1 PUSH1 0x1 PUSH1 0xE0 SHL SUB DUP4 DUP2 DUP4 AND OR DUP4 MSTORE POP POP POP POP PUSH2 0x2875 JUMP JUMPDEST PUSH1 0x40 MLOAD PUSH1 0x1 PUSH1 0x1 PUSH1 0xA0 SHL SUB DUP4 DUP2 AND PUSH1 0x24 DUP4 ADD MSTORE PUSH1 0x44 DUP3 ADD DUP4 SWAP1 MSTORE PUSH2 0x1F21 SWAP2 DUP6 SWAP2 DUP3 AND SWAP1 PUSH4 0xA9059CBB SWAP1 PUSH1 0x64 ADD PUSH2 0x26FD JUMP JUMPDEST PUSH1 0x0 DUP3 DUP2 MSTORE PUSH1 0x1 PUSH1 0x20 DUP2 SWAP1 MSTORE PUSH1 0x40 SWAP1 SWAP2 KECCAK256 ADD SLOAD PUSH2 0x277C DUP2 PUSH2 0x22EF JUMP JUMPDEST PUSH2 0x9EB DUP4 DUP4 PUSH2 0x27BF JUMP JUMPDEST PUSH2 0x2790 DUP3 DUP3 PUSH2 0x1173 JUMP JUMPDEST PUSH2 0xAA0 JUMPI PUSH1 0x40 MLOAD PUSH4 0xE2517D3F PUSH1 0xE0 SHL DUP2 MSTORE PUSH1 0x1 PUSH1 0x1 PUSH1 0xA0 SHL SUB DUP3 AND PUSH1 0x4 DUP3 ADD MSTORE PUSH1 0x24 DUP2 ADD DUP4 SWAP1 MSTORE PUSH1 0x44 ADD PUSH2 0x8DB JUMP JUMPDEST PUSH1 0x0 PUSH2 0x27CB DUP4 DUP4 PUSH2 0x1173 JUMP JUMPDEST ISZERO PUSH2 0x236D JUMPI PUSH1 0x0 DUP4 DUP2 MSTORE PUSH1 0x1 PUSH1 0x20 SWAP1 DUP2 MSTORE PUSH1 0x40 DUP1 DUP4 KECCAK256 PUSH1 0x1 PUSH1 0x1 PUSH1 0xA0 SHL SUB DUP7 AND DUP1 DUP6 MSTORE SWAP3 MSTORE DUP1 DUP4 KECCAK256 DUP1 SLOAD PUSH1 0xFF NOT AND SWAP1 SSTORE MLOAD CALLER SWAP3 DUP7 SWAP2 PUSH32 0xF6391F5C32D9C69D2A47EA670B442974B53935D1EDC7FD64EB21E047A839171B SWAP2 SWAP1 LOG4 POP PUSH1 0x1 PUSH2 0x7B0 JUMP JUMPDEST PUSH1 0x2 SLOAD PUSH1 0xFF AND PUSH2 0xAD3 JUMPI PUSH1 0x40 MLOAD PUSH3 0x461BCD PUSH1 0xE5 SHL DUP2 MSTORE PUSH1 0x20 PUSH1 0x4 DUP3 ADD MSTORE PUSH1 0x14 PUSH1 0x24 DUP3 ADD MSTORE PUSH20 0x14185D5CD8589B194E881B9BDD081C185D5CD959 PUSH1 0x62 SHL PUSH1 0x44 DUP3 ADD MSTORE PUSH1 0x64 ADD PUSH2 0x8DB JUMP JUMPDEST PUSH1 0x0 PUSH2 0x288A PUSH1 0x1 PUSH1 0x1 PUSH1 0xA0 SHL SUB DUP5 AND DUP4 PUSH2 0x28D8 JUMP JUMPDEST SWAP1 POP DUP1 MLOAD PUSH1 0x0 EQ ISZERO DUP1 ISZERO PUSH2 0x28AF JUMPI POP DUP1 DUP1 PUSH1 0x20 ADD SWAP1 MLOAD DUP2 ADD SWAP1 PUSH2 0x28AD SWAP2 SWAP1 PUSH2 0x3337 JUMP JUMPDEST ISZERO JUMPDEST ISZERO PUSH2 0x1F21 JUMPI PUSH1 0x40 MLOAD PUSH4 0x5274AFE7 PUSH1 0xE0 SHL DUP2 MSTORE PUSH1 0x1 PUSH1 0x1 PUSH1 0xA0 SHL SUB DUP5 AND PUSH1 0x4 DUP3 ADD MSTORE PUSH1 0x24 ADD PUSH2 0x8DB JUMP JUMPDEST PUSH1 0x60 PUSH2 0x28E6 DUP4 DUP4 PUSH1 0x0 PUSH2 0x28ED JUMP JUMPDEST SWAP4 SWAP3 POP POP POP JUMP JUMPDEST PUSH1 0x60 DUP2 SELFBALANCE LT ISZERO PUSH2 0x2912 JUMPI PUSH1 0x40 MLOAD PUSH4 0xCD786059 PUSH1 0xE0 SHL DUP2 MSTORE ADDRESS PUSH1 0x4 DUP3 ADD MSTORE PUSH1 0x24 ADD PUSH2 0x8DB JUMP JUMPDEST PUSH1 0x0 DUP1 DUP6 PUSH1 0x1 PUSH1 0x1 PUSH1 0xA0 SHL SUB AND DUP5 DUP7 PUSH1 0x40 MLOAD PUSH2 0x292E SWAP2 SWAP1 PUSH2 0x2F37 JUMP JUMPDEST PUSH1 0x0 PUSH1 0x40 MLOAD DUP1 DUP4 SUB DUP2 DUP6 DUP8 GAS CALL SWAP3 POP POP POP RETURNDATASIZE DUP1 PUSH1 0x0 DUP2 EQ PUSH2 0x296B JUMPI PUSH1 0x40 MLOAD SWAP2 POP PUSH1 0x1F NOT PUSH1 0x3F RETURNDATASIZE ADD AND DUP3 ADD PUSH1 0x40 MSTORE RETURNDATASIZE DUP3 MSTORE RETURNDATASIZE PUSH1 0x0 PUSH1 0x20 DUP5 ADD RETURNDATACOPY PUSH2 0x2970 JUMP JUMPDEST PUSH1 0x60 SWAP2 POP JUMPDEST POP SWAP2 POP SWAP2 POP PUSH2 0x2980 DUP7 DUP4 DUP4 PUSH2 0x298A JUMP JUMPDEST SWAP7 SWAP6 POP POP POP POP POP POP JUMP JUMPDEST PUSH1 0x60 DUP3 PUSH2 0x299F JUMPI PUSH2 0x299A DUP3 PUSH2 0x29E6 JUMP JUMPDEST PUSH2 0x28E6 JUMP JUMPDEST DUP2 MLOAD ISZERO DUP1 ISZERO PUSH2 0x29B6 JUMPI POP PUSH1 0x1 PUSH1 0x1 PUSH1 0xA0 SHL SUB DUP5 AND EXTCODESIZE ISZERO JUMPDEST ISZERO PUSH2 0x29DF JUMPI PUSH1 0x40 MLOAD PUSH4 0x9996B315 PUSH1 0xE0 SHL DUP2 MSTORE PUSH1 0x1 PUSH1 0x1 PUSH1 0xA0 SHL SUB DUP6 AND PUSH1 0x4 DUP3 ADD MSTORE PUSH1 0x24 ADD PUSH2 0x8DB JUMP JUMPDEST POP DUP1 PUSH2 0x28E6 JUMP JUMPDEST DUP1 MLOAD ISZERO PUSH2 0x29F6 JUMPI DUP1 MLOAD DUP1 DUP3 PUSH1 0x20 ADD REVERT JUMPDEST PUSH1 0x40 MLOAD PUSH4 0xA12F521 PUSH1 0xE1 SHL DUP2 MSTORE PUSH1 0x4 ADD PUSH1 0x40 MLOAD DUP1 SWAP2 SUB SWAP1 REVERT JUMPDEST POP DUP1 SLOAD PUSH2 0x2A1B SWAP1 PUSH2 0x2EFD JUMP JUMPDEST PUSH1 0x0 DUP3 SSTORE DUP1 PUSH1 0x1F LT PUSH2 0x2A2B JUMPI POP POP JUMP JUMPDEST PUSH1 0x1F ADD PUSH1 0x20 SWAP1 DIV SWAP1 PUSH1 0x0 MSTORE PUSH1 0x20 PUSH1 0x0 KECCAK256 SWAP1 DUP2 ADD SWAP1 PUSH2 0x22F9 SWAP2 SWAP1 JUMPDEST DUP1 DUP3 GT ISZERO PUSH2 0x2A59 JUMPI PUSH1 0x0 DUP2 SSTORE PUSH1 0x1 ADD PUSH2 0x2A45 JUMP JUMPDEST POP SWAP1 JUMP JUMPDEST PUSH1 0x0 PUSH1 0x20 DUP3 DUP5 SUB SLT ISZERO PUSH2 0x2A6F JUMPI PUSH1 0x0 DUP1 REVERT JUMPDEST DUP2 CALLDATALOAD PUSH1 0x1 PUSH1 0x1 PUSH1 0xE0 SHL SUB NOT DUP2 AND DUP2 EQ PUSH2 0x28E6 JUMPI PUSH1 0x0 DUP1 REVERT JUMPDEST PUSH1 0x0 PUSH1 0x20 DUP3 DUP5 SUB SLT ISZERO PUSH2 0x2A99 JUMPI PUSH1 0x0 DUP1 REVERT JUMPDEST POP CALLDATALOAD SWAP2 SWAP1 POP JUMP JUMPDEST PUSH1 0x0 JUMPDEST DUP4 DUP2 LT ISZERO PUSH2 0x2ABB JUMPI DUP2 DUP2 ADD MLOAD DUP4 DUP3 ADD MSTORE PUSH1 0x20 ADD PUSH2 0x2AA3 JUMP JUMPDEST POP POP PUSH1 0x0 SWAP2 ADD MSTORE JUMP JUMPDEST PUSH1 0x0 DUP2 MLOAD DUP1 DUP5 MSTORE PUSH2 0x2ADC DUP2 PUSH1 0x20 DUP7 ADD PUSH1 0x20 DUP7 ADD PUSH2 0x2AA0 JUMP JUMPDEST PUSH1 0x1F ADD PUSH1 0x1F NOT AND SWAP3 SWAP1 SWAP3 ADD PUSH1 0x20 ADD SWAP3 SWAP2 POP POP JUMP JUMPDEST PUSH1 0x20 DUP2 MSTORE PUSH1 0x0 PUSH2 0x28E6 PUSH1 0x20 DUP4 ADD DUP5 PUSH2 0x2AC4 JUMP JUMPDEST PUSH4 0x4E487B71 PUSH1 0xE0 SHL PUSH1 0x0 MSTORE PUSH1 0x41 PUSH1 0x4 MSTORE PUSH1 0x24 PUSH1 0x0 REVERT JUMPDEST PUSH1 0x0 DUP3 PUSH1 0x1F DUP4 ADD SLT PUSH2 0x2B2A JUMPI PUSH1 0x0 DUP1 REVERT JUMPDEST DUP2 CALLDATALOAD PUSH8 0xFFFFFFFFFFFFFFFF DUP2 GT ISZERO PUSH2 0x2B44 JUMPI PUSH2 0x2B44 PUSH2 0x2B03 JUMP JUMPDEST PUSH1 0x40 MLOAD PUSH1 0x1F DUP3 ADD PUSH1 0x1F NOT SWAP1 DUP2 AND PUSH1 0x3F ADD AND DUP2 ADD PUSH8 0xFFFFFFFFFFFFFFFF DUP2 GT DUP3 DUP3 LT OR ISZERO PUSH2 0x2B73 JUMPI PUSH2 0x2B73 PUSH2 0x2B03 JUMP JUMPDEST PUSH1 0x40 MSTORE DUP2 DUP2 MSTORE DUP4 DUP3 ADD PUSH1 0x20 ADD DUP6 LT ISZERO PUSH2 0x2B8B JUMPI PUSH1 0x0 DUP1 REVERT JUMPDEST DUP2 PUSH1 0x20 DUP6 ADD PUSH1 0x20 DUP4 ADD CALLDATACOPY PUSH1 0x0 SWAP2 DUP2 ADD PUSH1 0x20 ADD SWAP2 SWAP1 SWAP2 MSTORE SWAP4 SWAP3 POP POP POP JUMP JUMPDEST PUSH1 0x0 PUSH1 0x20 DUP3 DUP5 SUB SLT ISZERO PUSH2 0x2BBA JUMPI PUSH1 0x0 DUP1 REVERT JUMPDEST DUP2 CALLDATALOAD PUSH8 0xFFFFFFFFFFFFFFFF DUP2 GT ISZERO PUSH2 0x2BD1 JUMPI PUSH1 0x0 DUP1 REVERT JUMPDEST PUSH2 0x2BDD DUP5 DUP3 DUP6 ADD PUSH2 0x2B19 JUMP JUMPDEST SWAP5 SWAP4 POP POP POP POP JUMP JUMPDEST PUSH1 0x0 DUP1 PUSH1 0x40 DUP4 DUP6 SUB SLT ISZERO PUSH2 0x2BF8 JUMPI PUSH1 0x0 DUP1 REVERT JUMPDEST DUP3 CALLDATALOAD PUSH8 0xFFFFFFFFFFFFFFFF DUP2 GT ISZERO PUSH2 0x2C0F JUMPI PUSH1 0x0 DUP1 REVERT JUMPDEST PUSH2 0x2C1B DUP6 DUP3 DUP7 ADD PUSH2 0x2B19 JUMP JUMPDEST SWAP6 PUSH1 0x20 SWAP5 SWAP1 SWAP5 ADD CALLDATALOAD SWAP5 POP POP POP POP JUMP JUMPDEST PUSH1 0x1 PUSH1 0x1 PUSH1 0xA0 SHL SUB DUP2 AND DUP2 EQ PUSH2 0x22F9 JUMPI PUSH1 0x0 DUP1 REVERT JUMPDEST PUSH1 0x0 DUP1 PUSH1 0x40 DUP4 DUP6 SUB SLT ISZERO PUSH2 0x2C52 JUMPI PUSH1 0x0 DUP1 REVERT JUMPDEST DUP3 CALLDATALOAD SWAP2 POP PUSH1 0x20 DUP4 ADD CALLDATALOAD PUSH2 0x2C64 DUP2 PUSH2 0x2C2A JUMP JUMPDEST DUP1 SWAP2 POP POP SWAP3 POP SWAP3 SWAP1 POP JUMP JUMPDEST PUSH1 0x0 PUSH1 0x20 DUP3 DUP5 SUB SLT ISZERO PUSH2 0x2C81 JUMPI PUSH1 0x0 DUP1 REVERT JUMPDEST DUP2 CALLDATALOAD PUSH2 0x28E6 DUP2 PUSH2 0x2C2A JUMP JUMPDEST PUSH1 0x0 DUP1 DUP4 PUSH1 0x1F DUP5 ADD SLT PUSH2 0x2C9E JUMPI PUSH1 0x0 DUP1 REVERT JUMPDEST POP DUP2 CALLDATALOAD PUSH8 0xFFFFFFFFFFFFFFFF DUP2 GT ISZERO PUSH2 0x2CB6 JUMPI PUSH1 0x0 DUP1 REVERT JUMPDEST PUSH1 0x20 DUP4 ADD SWAP2 POP DUP4 PUSH1 0x20 DUP3 DUP6 ADD ADD GT ISZERO PUSH2 0x2CCE JUMPI PUSH1 0x0 DUP1 REVERT JUMPDEST SWAP3 POP SWAP3 SWAP1 POP JUMP JUMPDEST DUP1 CALLDATALOAD PUSH4 0xFFFFFFFF DUP2 AND DUP2 EQ PUSH2 0xB8D JUMPI PUSH1 0x0 DUP1 REVERT JUMPDEST PUSH1 0x0 DUP1 PUSH1 0x0 DUP1 PUSH1 0x0 DUP1 PUSH1 0x0 PUSH1 0xC0 DUP9 DUP11 SUB SLT ISZERO PUSH2 0x2D04 JUMPI PUSH1 0x0 DUP1 REVERT JUMPDEST DUP8 CALLDATALOAD PUSH2 0x2D0F DUP2 PUSH2 0x2C2A JUMP JUMPDEST SWAP7 POP PUSH1 0x20 DUP9 ADD CALLDATALOAD SWAP6 POP PUSH1 0x40 DUP9 ADD CALLDATALOAD PUSH8 0xFFFFFFFFFFFFFFFF DUP2 GT ISZERO PUSH2 0x2D32 JUMPI PUSH1 0x0 DUP1 REVERT JUMPDEST PUSH2 0x2D3E DUP11 DUP3 DUP12 ADD PUSH2 0x2C8C JUMP JUMPDEST SWAP1 SWAP7 POP SWAP5 POP POP PUSH1 0x60 DUP9 ADD CALLDATALOAD SWAP3 POP PUSH1 0x80 DUP9 ADD CALLDATALOAD SWAP2 POP PUSH2 0x2D5E PUSH1 0xA0 DUP10 ADD PUSH2 0x2CD5 JUMP JUMPDEST SWAP1 POP SWAP3 SWAP6 SWAP9 SWAP2 SWAP5 SWAP8 POP SWAP3 SWAP6 POP JUMP JUMPDEST PUSH1 0x0 DUP1 PUSH1 0x0 DUP1 PUSH1 0x0 PUSH1 0x60 DUP7 DUP9 SUB SLT ISZERO PUSH2 0x2D84 JUMPI PUSH1 0x0 DUP1 REVERT JUMPDEST DUP6 CALLDATALOAD SWAP5 POP PUSH1 0x20 DUP7 ADD CALLDATALOAD PUSH8 0xFFFFFFFFFFFFFFFF DUP2 GT ISZERO PUSH2 0x2DA2 JUMPI PUSH1 0x0 DUP1 REVERT JUMPDEST PUSH2 0x2DAE DUP9 DUP3 DUP10 ADD PUSH2 0x2C8C JUMP JUMPDEST SWAP1 SWAP6 POP SWAP4 POP POP PUSH1 0x40 DUP7 ADD CALLDATALOAD PUSH8 0xFFFFFFFFFFFFFFFF DUP2 GT ISZERO PUSH2 0x2DCE JUMPI PUSH1 0x0 DUP1 REVERT JUMPDEST PUSH2 0x2DDA DUP9 DUP3 DUP10 ADD PUSH2 0x2C8C JUMP JUMPDEST SWAP7 SWAP10 SWAP6 SWAP9 POP SWAP4 SWAP7 POP SWAP3 SWAP5 SWAP4 SWAP3 POP POP POP JUMP JUMPDEST PUSH1 0x0 PUSH1 0x20 DUP3 ADD PUSH1 0x20 DUP4 MSTORE DUP1 DUP5 MLOAD DUP1 DUP4 MSTORE PUSH1 0x40 DUP6 ADD SWAP2 POP PUSH1 0x40 DUP2 PUSH1 0x5 SHL DUP7 ADD ADD SWAP3 POP PUSH1 0x20 DUP7 ADD PUSH1 0x0 JUMPDEST DUP3 DUP2 LT ISZERO PUSH2 0x2E44 JUMPI PUSH1 0x3F NOT DUP8 DUP7 SUB ADD DUP5 MSTORE PUSH2 0x2E2F DUP6 DUP4 MLOAD PUSH2 0x2AC4 JUMP JUMPDEST SWAP5 POP PUSH1 0x20 SWAP4 DUP5 ADD SWAP4 SWAP2 SWAP1 SWAP2 ADD SWAP1 PUSH1 0x1 ADD PUSH2 0x2E13 JUMP JUMPDEST POP SWAP3 SWAP7 SWAP6 POP POP POP POP POP POP JUMP JUMPDEST PUSH1 0x0 DUP1 PUSH1 0x0 DUP1 PUSH1 0x0 PUSH1 0xA0 DUP7 DUP9 SUB SLT ISZERO PUSH2 0x2E68 JUMPI PUSH1 0x0 DUP1 REVERT JUMPDEST DUP6 CALLDATALOAD PUSH2 0x2E73 DUP2 PUSH2 0x2C2A JUMP JUMPDEST SWAP5 POP PUSH1 0x20 DUP7 ADD CALLDATALOAD PUSH2 0x2E83 DUP2 PUSH2 0x2C2A JUMP JUMPDEST SWAP4 POP PUSH1 0x40 DUP7 ADD CALLDATALOAD PUSH2 0x2E93 DUP2 PUSH2 0x2C2A JUMP JUMPDEST SWAP5 SWAP8 SWAP4 SWAP7 POP SWAP4 SWAP5 PUSH1 0x60 DUP2 ADD CALLDATALOAD SWAP5 POP PUSH1 0x80 ADD CALLDATALOAD SWAP3 SWAP2 POP POP JUMP JUMPDEST PUSH1 0x0 DUP1 PUSH1 0x0 DUP1 PUSH1 0x0 PUSH1 0xA0 DUP7 DUP9 SUB SLT ISZERO PUSH2 0x2EC3 JUMPI PUSH1 0x0 DUP1 REVERT JUMPDEST DUP6 CALLDATALOAD SWAP5 POP PUSH1 0x20 DUP7 ADD CALLDATALOAD SWAP4 POP PUSH1 0x40 DUP7 ADD CALLDATALOAD PUSH2 0x2EDC DUP2 PUSH2 0x2C2A JUMP JUMPDEST SWAP3 POP PUSH1 0x60 DUP7 ADD CALLDATALOAD SWAP2 POP PUSH2 0x2EF1 PUSH1 0x80 DUP8 ADD PUSH2 0x2CD5 JUMP JUMPDEST SWAP1 POP SWAP3 SWAP6 POP SWAP3 SWAP6 SWAP1 SWAP4 POP JUMP JUMPDEST PUSH1 0x1 DUP2 DUP2 SHR SWAP1 DUP3 AND DUP1 PUSH2 0x2F11 JUMPI PUSH1 0x7F DUP3 AND SWAP2 POP JUMPDEST PUSH1 0x20 DUP3 LT DUP2 SUB PUSH2 0x2F31 JUMPI PUSH4 0x4E487B71 PUSH1 0xE0 SHL PUSH1 0x0 MSTORE PUSH1 0x22 PUSH1 0x4 MSTORE PUSH1 0x24 PUSH1 0x0 REVERT JUMPDEST POP SWAP2 SWAP1 POP JUMP JUMPDEST PUSH1 0x0 DUP3 MLOAD PUSH2 0x2F49 DUP2 DUP5 PUSH1 0x20 DUP8 ADD PUSH2 0x2AA0 JUMP JUMPDEST SWAP2 SWAP1 SWAP2 ADD SWAP3 SWAP2 POP POP JUMP JUMPDEST PUSH4 0x4E487B71 PUSH1 0xE0 SHL PUSH1 0x0 MSTORE PUSH1 0x11 PUSH1 0x4 MSTORE PUSH1 0x24 PUSH1 0x0 REVERT JUMPDEST DUP2 DUP2 SUB DUP2 DUP2 GT ISZERO PUSH2 0x7B0 JUMPI PUSH2 0x7B0 PUSH2 0x2F53 JUMP JUMPDEST PUSH4 0x4E487B71 PUSH1 0xE0 SHL PUSH1 0x0 MSTORE PUSH1 0x32 PUSH1 0x4 MSTORE PUSH1 0x24 PUSH1 0x0 REVERT JUMPDEST PUSH1 0x20 DUP1 DUP3 MSTORE PUSH1 0x9 SWAP1 DUP3 ADD MSTORE PUSH9 0x3737BA1037BBB732B9 PUSH1 0xB9 SHL PUSH1 0x40 DUP3 ADD MSTORE PUSH1 0x60 ADD SWAP1 JUMP JUMPDEST PUSH1 0x20 DUP1 DUP3 MSTORE PUSH1 0x15 SWAP1 DUP3 ADD MSTORE PUSH21 0x626C6F636B636861696E206E6F7420657869737473 PUSH1 0x58 SHL PUSH1 0x40 DUP3 ADD MSTORE PUSH1 0x60 ADD SWAP1 JUMP JUMPDEST PUSH1 0x60 DUP2 MSTORE PUSH1 0x0 PUSH2 0x2FF7 PUSH1 0x60 DUP4 ADD DUP7 PUSH2 0x2AC4 JUMP JUMPDEST PUSH1 0x20 DUP4 ADD SWAP5 SWAP1 SWAP5 MSTORE POP PUSH1 0x40 ADD MSTORE SWAP2 SWAP1 POP JUMP JUMPDEST PUSH1 0x0 PUSH1 0x20 DUP3 DUP5 SUB SLT ISZERO PUSH2 0x301B JUMPI PUSH1 0x0 DUP1 REVERT JUMPDEST POP MLOAD SWAP2 SWAP1 POP JUMP JUMPDEST PUSH1 0x1F DUP3 GT ISZERO PUSH2 0x1F21 JUMPI DUP1 PUSH1 0x0 MSTORE PUSH1 0x20 PUSH1 0x0 KECCAK256 PUSH1 0x1F DUP5 ADD PUSH1 0x5 SHR DUP2 ADD PUSH1 0x20 DUP6 LT ISZERO PUSH2 0x3049 JUMPI POP DUP1 JUMPDEST PUSH1 0x1F DUP5 ADD PUSH1 0x5 SHR DUP3 ADD SWAP2 POP JUMPDEST DUP2 DUP2 LT ISZERO PUSH2 0x3069 JUMPI PUSH1 0x0 DUP2 SSTORE PUSH1 0x1 ADD PUSH2 0x3055 JUMP JUMPDEST POP POP POP POP POP JUMP JUMPDEST DUP2 DUP2 SUB PUSH2 0x307B JUMPI POP POP JUMP JUMPDEST PUSH2 0x3085 DUP3 SLOAD PUSH2 0x2EFD JUMP JUMPDEST PUSH8 0xFFFFFFFFFFFFFFFF DUP2 GT ISZERO PUSH2 0x309D JUMPI PUSH2 0x309D PUSH2 0x2B03 JUMP JUMPDEST PUSH2 0x30B1 DUP2 PUSH2 0x30AB DUP5 SLOAD PUSH2 0x2EFD JUMP JUMPDEST DUP5 PUSH2 0x3022 JUMP JUMPDEST PUSH1 0x0 PUSH1 0x1F DUP3 GT PUSH1 0x1 DUP2 EQ PUSH2 0x30E8 JUMPI PUSH1 0x0 DUP4 ISZERO PUSH2 0x30CD JUMPI POP DUP5 DUP3 ADD SLOAD JUMPDEST PUSH1 0x1 DUP5 SWAP1 SHL PUSH1 0x0 NOT PUSH1 0x3 DUP7 SWAP1 SHL SHR NOT DUP3 AND OR JUMPDEST DUP6 SSTORE POP PUSH2 0x3069 JUMP JUMPDEST PUSH1 0x0 DUP6 DUP2 MSTORE PUSH1 0x20 SWAP1 KECCAK256 PUSH1 0x1F NOT DUP5 AND SWAP1 PUSH1 0x0 DUP7 DUP2 MSTORE PUSH1 0x20 SWAP1 KECCAK256 DUP5 JUMPDEST DUP4 DUP2 LT ISZERO PUSH2 0x3122 JUMPI DUP3 DUP7 ADD SLOAD DUP3 SSTORE PUSH1 0x1 SWAP6 DUP7 ADD SWAP6 SWAP1 SWAP2 ADD SWAP1 PUSH1 0x20 ADD PUSH2 0x3102 JUMP JUMPDEST POP DUP6 DUP4 LT ISZERO PUSH2 0x3140 JUMPI DUP2 DUP6 ADD SLOAD PUSH1 0x0 NOT PUSH1 0x3 DUP9 SWAP1 SHL PUSH1 0xF8 AND SHR NOT AND DUP2 SSTORE JUMPDEST POP POP POP POP POP PUSH1 0x1 SWAP1 DUP2 SHL ADD SWAP1 SSTORE POP JUMP JUMPDEST DUP1 DUP3 ADD DUP1 DUP3 GT ISZERO PUSH2 0x7B0 JUMPI PUSH2 0x7B0 PUSH2 0x2F53 JUMP JUMPDEST PUSH4 0x4E487B71 PUSH1 0xE0 SHL PUSH1 0x0 MSTORE PUSH1 0x31 PUSH1 0x4 MSTORE PUSH1 0x24 PUSH1 0x0 REVERT JUMPDEST DUP2 MLOAD PUSH8 0xFFFFFFFFFFFFFFFF DUP2 GT ISZERO PUSH2 0x3193 JUMPI PUSH2 0x3193 PUSH2 0x2B03 JUMP JUMPDEST PUSH2 0x31A1 DUP2 PUSH2 0x30AB DUP5 SLOAD PUSH2 0x2EFD JUMP JUMPDEST PUSH1 0x20 PUSH1 0x1F DUP3 GT PUSH1 0x1 DUP2 EQ PUSH2 0x31D3 JUMPI PUSH1 0x0 DUP4 ISZERO PUSH2 0x30CD JUMPI POP DUP2 DUP6 ADD MLOAD PUSH1 0x1 DUP5 SWAP1 SHL PUSH1 0x0 NOT PUSH1 0x3 DUP7 SWAP1 SHL SHR NOT DUP3 AND OR PUSH2 0x30E0 JUMP JUMPDEST PUSH1 0x0 DUP5 DUP2 MSTORE PUSH1 0x20 DUP2 KECCAK256 PUSH1 0x1F NOT DUP6 AND SWAP2 JUMPDEST DUP3 DUP2 LT ISZERO PUSH2 0x3203 JUMPI DUP8 DUP6 ADD MLOAD DUP3 SSTORE PUSH1 0x20 SWAP5 DUP6 ADD SWAP5 PUSH1 0x1 SWAP1 SWAP3 ADD SWAP2 ADD PUSH2 0x31E3 JUMP JUMPDEST POP DUP5 DUP3 LT ISZERO PUSH2 0x3221 JUMPI DUP7 DUP5 ADD MLOAD PUSH1 0x0 NOT PUSH1 0x3 DUP8 SWAP1 SHL PUSH1 0xF8 AND SHR NOT AND DUP2 SSTORE JUMPDEST POP POP POP POP PUSH1 0x1 SWAP1 DUP2 SHL ADD SWAP1 SSTORE POP JUMP JUMPDEST DUP2 DUP4 DUP3 CALLDATACOPY PUSH1 0x0 SWAP2 ADD SWAP1 DUP2 MSTORE SWAP2 SWAP1 POP JUMP JUMPDEST DUP1 DUP3 MUL DUP2 ISZERO DUP3 DUP3 DIV DUP5 EQ OR PUSH2 0x7B0 JUMPI PUSH2 0x7B0 PUSH2 0x2F53 JUMP JUMPDEST PUSH1 0x0 DUP3 PUSH2 0x3274 JUMPI PUSH4 0x4E487B71 PUSH1 0xE0 SHL PUSH1 0x0 MSTORE PUSH1 0x12 PUSH1 0x4 MSTORE PUSH1 0x24 PUSH1 0x0 REVERT JUMPDEST POP DIV SWAP1 JUMP JUMPDEST DUP2 DUP4 MSTORE DUP2 DUP2 PUSH1 0x20 DUP6 ADD CALLDATACOPY POP PUSH1 0x0 DUP3 DUP3 ADD PUSH1 0x20 SWAP1 DUP2 ADD SWAP2 SWAP1 SWAP2 MSTORE PUSH1 0x1F SWAP1 SWAP2 ADD PUSH1 0x1F NOT AND SWAP1 SWAP2 ADD ADD SWAP1 JUMP JUMPDEST PUSH1 0x1 DUP1 PUSH1 0xA0 SHL SUB DUP8 AND DUP2 MSTORE DUP6 PUSH1 0x20 DUP3 ADD MSTORE PUSH1 0x80 PUSH1 0x40 DUP3 ADD MSTORE PUSH1 0x0 PUSH2 0x32CA PUSH1 0x80 DUP4 ADD DUP7 DUP9 PUSH2 0x3279 JUMP JUMPDEST DUP3 DUP2 SUB PUSH1 0x60 DUP5 ADD MSTORE PUSH2 0x32DD DUP2 DUP6 DUP8 PUSH2 0x3279 JUMP JUMPDEST SWAP10 SWAP9 POP POP POP POP POP POP POP POP POP JUMP JUMPDEST PUSH1 0x20 DUP1 DUP3 MSTORE PUSH1 0x2D SWAP1 DUP3 ADD MSTORE PUSH32 0x496E73756666696369656E74206E617469766520746F6B656E2062616C616E63 PUSH1 0x40 DUP3 ADD MSTORE PUSH13 0x19481A5B8818DBDB9D1C9858DD PUSH1 0x9A SHL PUSH1 0x60 DUP3 ADD MSTORE PUSH1 0x80 ADD SWAP1 JUMP JUMPDEST PUSH1 0x0 PUSH1 0x20 DUP3 DUP5 SUB SLT ISZERO PUSH2 0x3349 JUMPI PUSH1 0x0 DUP1 REVERT JUMPDEST DUP2 MLOAD DUP1 ISZERO ISZERO DUP2 EQ PUSH2 0x28E6 JUMPI PUSH1 0x0 DUP1 REVERT INVALID DUP3 0x27 PUSH18 0x2EF8AD39D0F26F06731EF0DF8665EB7ADA7F COINBASE 0xB1 0xEE ADDMOD SWAP11 0xDF EXTCODECOPY 0x23 DUP9 PUSH3 0xA2A264 PUSH10 0x70667358221220D26A9D 0xC3 SWAP15 SWAP2 0x4E 0xCB SELFBALANCE 0xE8 0xB2 0xB0 SWAP11 0xD4 PUSH16 0x6FD71DD28D5920D1AD6D695DC7BC5814 PUSH1 0x64 PUSH20 0x6F6C634300081A00330000000000000000000000 "
				},
				"gasEstimates": {
					"creation": {
						"codeDepositCost": "2646200",
						"executionCost": "44693",
						"totalCost": "2690893"
					},
					"external": {
						"DEFAULT_ADMIN_ROLE()": "296",
						"FEE_NATIVE()": "1051",
						"MONITOR_ROLE()": "infinite",
						"OWNER_WALLET()": "1169",
						"PERCENTS_DIVIDER()": "231",
						"acceptTransfer(address,uint256,string,bytes32,bytes32,uint32)": "infinite",
						"addBlockchainFrom(string)": "infinite",
						"addBlockchainTo(string,uint256)": "infinite",
						"addMonitor(address)": "infinite",
						"delBlockchainFrom(string)": "infinite",
						"delBlockchainTo(string)": "infinite",
						"delMonitor(address)": "infinite",
						"existsBlockchainFrom(string)": "infinite",
						"existsBlockchainTo(string)": "infinite",
						"feePercentageBridge()": "1052",
						"fromBlockchainReceive(uint256)": "infinite",
						"getMinTokenAmount(string)": "infinite",
						"getRoleAdmin(bytes32)": "1274",
						"getTokenBalance()": "infinite",
						"getTransactionId(bytes32,bytes32,address,uint256,uint32)": "919",
						"grantRole(bytes32,address)": "infinite",
						"hasRole(bytes32,address)": "1432",
						"listBlockchainFrom()": "infinite",
						"listBlockchainTo()": "infinite",
						"pause()": "infinite",
						"paused()": "1116",
						"processed(bytes32)": "1283",
						"receiveTokens(uint256,string,string)": "infinite",
						"renounceRole(bytes32,address)": "24531",
						"revokeRole(bytes32,address)": "infinite",
						"setDeployBridge(address,address,address,uint256,uint256)": "infinite",
						"setFeeNative(uint256)": "21405",
						"setFeePercentageBridge(uint256)": "24402",
						"setMinTokenAmount(string,uint256)": "infinite",
						"supportsInterface(bytes4)": "1372",
						"toBlockchainTransfer(uint256)": "infinite",
						"token()": "1202",
						"totalFeeReceivedBridge()": "1029",
						"transferOwnership(address)": "infinite",
						"unpause()": "infinite",
						"withdrawToken(uint256,address)": "infinite"
					},
					"internal": {
						"_processTransaction(bytes32,bytes32,address,uint256,uint32)": "infinite",
						"_sendToken(address payable,uint256)": "infinite",
						"compareStrings(string memory,string memory)": "infinite"
					}
				},
				"methodIdentifiers": {
					"DEFAULT_ADMIN_ROLE()": "a217fddf",
					"FEE_NATIVE()": "6d2133e1",
					"MONITOR_ROLE()": "4d9b47e2",
					"OWNER_WALLET()": "fae36afb",
					"PERCENTS_DIVIDER()": "01c234a8",
					"acceptTransfer(address,uint256,string,bytes32,bytes32,uint32)": "7dad0d57",
					"addBlockchainFrom(string)": "f2fcdbd3",
					"addBlockchainTo(string,uint256)": "9d1e034d",
					"addMonitor(address)": "b8c48a28",
					"delBlockchainFrom(string)": "bb13ca3b",
					"delBlockchainTo(string)": "8689b322",
					"delMonitor(address)": "5d27fc70",
					"existsBlockchainFrom(string)": "c9b4d653",
					"existsBlockchainTo(string)": "f2e1fa65",
					"feePercentageBridge()": "2a76e481",
					"fromBlockchainReceive(uint256)": "1d316a5d",
					"getMinTokenAmount(string)": "212258a8",
					"getRoleAdmin(bytes32)": "248a9ca3",
					"getTokenBalance()": "82b2e257",
					"getTransactionId(bytes32,bytes32,address,uint256,uint32)": "e8340a99",
					"grantRole(bytes32,address)": "2f2ff15d",
					"hasRole(bytes32,address)": "91d14854",
					"listBlockchainFrom()": "b715f98f",
					"listBlockchainTo()": "f11b7c33",
					"pause()": "8456cb59",
					"paused()": "5c975abb",
					"processed(bytes32)": "c1f0808a",
					"receiveTokens(uint256,string,string)": "a36185f4",
					"renounceRole(bytes32,address)": "36568abe",
					"revokeRole(bytes32,address)": "d547741f",
					"setDeployBridge(address,address,address,uint256,uint256)": "d542a501",
					"setFeeNative(uint256)": "5a075f92",
					"setFeePercentageBridge(uint256)": "525a34e3",
					"setMinTokenAmount(string,uint256)": "29c9a4da",
					"supportsInterface(bytes4)": "01ffc9a7",
					"toBlockchainTransfer(uint256)": "c4251339",
					"token()": "fc0c546a",
					"totalFeeReceivedBridge()": "646ac61c",
					"transferOwnership(address)": "f2fde38b",
					"unpause()": "3f4ba83a",
					"withdrawToken(uint256,address)": "be4b1772"
				}
			},
			"storageLayout": {
				"storage": [
					{
						"astId": 2353,
						"contract": "contracts/Bridge.sol:Bridge",
						"label": "_supportedInterfaces",
						"offset": 0,
						"slot": "0",
						"type": "t_mapping(t_bytes4,t_bool)"
					},
					{
						"astId": 683,
						"contract": "contracts/Bridge.sol:Bridge",
						"label": "_roles",
						"offset": 0,
						"slot": "1",
						"type": "t_mapping(t_bytes32,t_struct(RoleData)678_storage)"
					},
					{
						"astId": 2638,
						"contract": "contracts/Bridge.sol:Bridge",
						"label": "_paused",
						"offset": 0,
						"slot": "2",
						"type": "t_bool"
					},
					{
						"astId": 998,
						"contract": "contracts/Bridge.sol:Bridge",
						"label": "token",
						"offset": 1,
						"slot": "2",
						"type": "t_address"
					},
					{
						"astId": 1000,
						"contract": "contracts/Bridge.sol:Bridge",
						"label": "totalFeeReceivedBridge",
						"offset": 0,
						"slot": "3",
						"type": "t_uint256"
					},
					{
						"astId": 1002,
						"contract": "contracts/Bridge.sol:Bridge",
						"label": "FEE_NATIVE",
						"offset": 0,
						"slot": "4",
						"type": "t_uint256"
					},
					{
						"astId": 1004,
						"contract": "contracts/Bridge.sol:Bridge",
						"label": "feePercentageBridge",
						"offset": 0,
						"slot": "5",
						"type": "t_uint256"
					},
					{
						"astId": 1006,
						"contract": "contracts/Bridge.sol:Bridge",
						"label": "OWNER_WALLET",
						"offset": 0,
						"slot": "6",
						"type": "t_address"
					},
					{
						"astId": 1010,
						"contract": "contracts/Bridge.sol:Bridge",
						"label": "processed",
						"offset": 0,
						"slot": "7",
						"type": "t_mapping(t_bytes32,t_bool)"
					},
					{
						"astId": 1014,
						"contract": "contracts/Bridge.sol:Bridge",
						"label": "blockchainIndexFrom",
						"offset": 0,
						"slot": "8",
						"type": "t_mapping(t_string_memory_ptr,t_uint256)"
					},
					{
						"astId": 1018,
						"contract": "contracts/Bridge.sol:Bridge",
						"label": "blockchainIndexTo",
						"offset": 0,
						"slot": "9",
						"type": "t_mapping(t_string_memory_ptr,t_uint256)"
					},
					{
						"astId": 1022,
						"contract": "contracts/Bridge.sol:Bridge",
						"label": "blockchainInfoFrom",
						"offset": 0,
						"slot": "10",
						"type": "t_array(t_struct(BlockchainStruct)976_storage)dyn_storage"
					},
					{
						"astId": 1026,
						"contract": "contracts/Bridge.sol:Bridge",
						"label": "blockchainInfoTo",
						"offset": 0,
						"slot": "11",
						"type": "t_array(t_struct(BlockchainStruct)976_storage)dyn_storage"
					},
					{
						"astId": 1029,
						"contract": "contracts/Bridge.sol:Bridge",
						"label": "fromBlockchainReceive",
						"offset": 0,
						"slot": "12",
						"type": "t_array(t_string_storage)dyn_storage"
					},
					{
						"astId": 1032,
						"contract": "contracts/Bridge.sol:Bridge",
						"label": "toBlockchainTransfer",
						"offset": 0,
						"slot": "13",
						"type": "t_array(t_string_storage)dyn_storage"
					}
				],
				"types": {
					"t_address": {
						"encoding": "inplace",
						"label": "address",
						"numberOfBytes": "20"
					},
					"t_array(t_string_storage)dyn_storage": {
						"base": "t_string_storage",
						"encoding": "dynamic_array",
						"label": "string[]",
						"numberOfBytes": "32"
					},
					"t_array(t_struct(BlockchainStruct)976_storage)dyn_storage": {
						"base": "t_struct(BlockchainStruct)976_storage",
						"encoding": "dynamic_array",
						"label": "struct Bridge.BlockchainStruct[]",
						"numberOfBytes": "32"
					},
					"t_bool": {
						"encoding": "inplace",
						"label": "bool",
						"numberOfBytes": "1"
					},
					"t_bytes32": {
						"encoding": "inplace",
						"label": "bytes32",
						"numberOfBytes": "32"
					},
					"t_bytes4": {
						"encoding": "inplace",
						"label": "bytes4",
						"numberOfBytes": "4"
					},
					"t_mapping(t_address,t_bool)": {
						"encoding": "mapping",
						"key": "t_address",
						"label": "mapping(address => bool)",
						"numberOfBytes": "32",
						"value": "t_bool"
					},
					"t_mapping(t_bytes32,t_bool)": {
						"encoding": "mapping",
						"key": "t_bytes32",
						"label": "mapping(bytes32 => bool)",
						"numberOfBytes": "32",
						"value": "t_bool"
					},
					"t_mapping(t_bytes32,t_struct(RoleData)678_storage)": {
						"encoding": "mapping",
						"key": "t_bytes32",
						"label": "mapping(bytes32 => struct AccessControl.RoleData)",
						"numberOfBytes": "32",
						"value": "t_struct(RoleData)678_storage"
					},
					"t_mapping(t_bytes4,t_bool)": {
						"encoding": "mapping",
						"key": "t_bytes4",
						"label": "mapping(bytes4 => bool)",
						"numberOfBytes": "32",
						"value": "t_bool"
					},
					"t_mapping(t_string_memory_ptr,t_uint256)": {
						"encoding": "mapping",
						"key": "t_string_memory_ptr",
						"label": "mapping(string => uint256)",
						"numberOfBytes": "32",
						"value": "t_uint256"
					},
					"t_string_memory_ptr": {
						"encoding": "bytes",
						"label": "string",
						"numberOfBytes": "32"
					},
					"t_string_storage": {
						"encoding": "bytes",
						"label": "string",
						"numberOfBytes": "32"
					},
					"t_struct(BlockchainStruct)976_storage": {
						"encoding": "inplace",
						"label": "struct Bridge.BlockchainStruct",
						"members": [
							{
								"astId": 975,
								"contract": "contracts/Bridge.sol:Bridge",
								"label": "minTokenAmount",
								"offset": 0,
								"slot": "0",
								"type": "t_uint256"
							}
						],
						"numberOfBytes": "32"
					},
					"t_struct(RoleData)678_storage": {
						"encoding": "inplace",
						"label": "struct AccessControl.RoleData",
						"members": [
							{
								"astId": 675,
								"contract": "contracts/Bridge.sol:Bridge",
								"label": "hasRole",
								"offset": 0,
								"slot": "0",
								"type": "t_mapping(t_address,t_bool)"
							},
							{
								"astId": 677,
								"contract": "contracts/Bridge.sol:Bridge",
								"label": "adminRole",
								"offset": 0,
								"slot": "1",
								"type": "t_bytes32"
							}
						],
						"numberOfBytes": "64"
					},
					"t_uint256": {
						"encoding": "inplace",
						"label": "uint256",
						"numberOfBytes": "32"
					}
				}
			},
			"userdoc": {
				"kind": "user",
				"methods": {},
				"version": 1
			}
		}
	}
}