{
	"data": {
		"bytecode": {
			"linkReferences": {},
			"object": "6080604052348015600f57600080fd5b50601e6301ffc9a760e01b602c565b6002805460ff1916905560ae565b6001600160e01b0319808216900360895760405162461bcd60e51b815260206004820152601c60248201527f4552433136353a20696e76616c696420696e7465726661636520696400000000604482015260640160405180910390fd5b6001600160e01b0319166000908152602081905260409020805460ff19166001179055565b6133af806100bd6000396000f3fe60806040526004361061024a5760003560e01c80638689b32211610139578063c4251339116100b6578063f11b7c331161007a578063f11b7c33146106a4578063f2e1fa65146106b9578063f2fcdbd3146106d9578063f2fde38b146106f9578063fae36afb14610719578063fc0c546a1461075157600080fd5b8063c425133914610604578063c9b4d65314610624578063d542a50114610644578063d547741f14610664578063e8340a991461068457600080fd5b8063b715f98f116100fd578063b715f98f14610552578063b8c48a2814610574578063bb13ca3b14610594578063be4b1772146105b4578063c1f0808a146105d457600080fd5b80638689b322146104ca57806391d14854146104ea5780639d1e034d1461050a578063a217fddf1461052a578063a36185f41461053f57600080fd5b80634d9b47e2116101c7578063646ac61c1161018b578063646ac61c146104545780636d2133e11461046a5780637dad0d571461048057806382b2e257146104a05780638456cb59146104b557600080fd5b80634d9b47e2146103ba578063525a34e3146103dc5780635a075f92146103fc5780635c975abb1461041c5780635d27fc701461043457600080fd5b806329c9a4da1161020e57806329c9a4da1461032d5780632a76e4811461034d5780632f2ff15d1461036357806336568abe146103855780633f4ba83a146103a557600080fd5b806301c234a81461025657806301ffc9a71461027f5780631d316a5d146102af578063212258a8146102dc578063248a9ca3146102fc57600080fd5b3661025157005b600080fd5b34801561026257600080fd5b5061026c6103e881565b6040519081526020015b60405180910390f35b34801561028b57600080fd5b5061029f61029a366004612a5d565b610776565b6040519015158152602001610276565b3480156102bb57600080fd5b506102cf6102ca366004612a87565b6107b6565b6040516102769190612af0565b3480156102e857600080fd5b5061026c6102f7366004612ba8565b610862565b34801561030857600080fd5b5061026c610317366004612a87565b6000908152600160208190526040909120015490565b34801561033957600080fd5b5061029f610348366004612be5565b6108b3565b34801561035957600080fd5b5061026c60055481565b34801561036f57600080fd5b5061038361037e366004612c3f565b6109c5565b005b34801561039157600080fd5b506103836103a0366004612c3f565b6109f1565b3480156103b157600080fd5b50610383610aa4565b3480156103c657600080fd5b5061026c60008051602061335a83398151915281565b3480156103e857600080fd5b5061029f6103f7366004612a87565b610ad5565b34801561040857600080fd5b5061029f610417366004612a87565b610b92565b34801561042857600080fd5b5060025460ff1661029f565b34801561044057600080fd5b5061029f61044f366004612c6f565b610bc3565b34801561046057600080fd5b5061026c60035481565b34801561047657600080fd5b5061026c60045481565b34801561048c57600080fd5b5061029f61049b366004612ce9565b610c13565b3480156104ac57600080fd5b5061026c610e35565b3480156104c157600080fd5b50610383610ec8565b3480156104d657600080fd5b5061029f6104e5366004612ba8565b610ef7565b3480156104f657600080fd5b5061029f610505366004612c3f565b611173565b34801561051657600080fd5b5061026c610525366004612be5565b61119e565b34801561053657600080fd5b5061026c600081565b61029f61054d366004612d6c565b6112c8565b34801561055e57600080fd5b506105676117b3565b6040516102769190612deb565b34801561058057600080fd5b5061029f61058f366004612c6f565b61188c565b3480156105a057600080fd5b5061029f6105af366004612ba8565b6118d4565b3480156105c057600080fd5b5061029f6105cf366004612c3f565b611b27565b3480156105e057600080fd5b5061029f6105ef366004612a87565b60076020526000908152604090205460ff1681565b34801561061057600080fd5b506102cf61061f366004612a87565b611cc6565b34801561063057600080fd5b5061029f61063f366004612ba8565b611cd6565b34801561065057600080fd5b5061038361065f366004612e50565b611d06565b34801561067057600080fd5b5061038361067f366004612c3f565b611efb565b34801561069057600080fd5b5061026c61069f366004612eab565b611f26565b3480156106b057600080fd5b50610567611f88565b3480156106c557600080fd5b5061029f6106d4366004612ba8565b612058565b3480156106e557600080fd5b5061026c6106f4366004612ba8565b61206a565b34801561070557600080fd5b5061029f610714366004612c6f565b612190565b34801561072557600080fd5b50600654610739906001600160a01b031681565b6040516001600160a01b039091168152602001610276565b34801561075d57600080fd5b506002546107399061010090046001600160a01b031681565b60006001600160e01b03198216637965db0b60e01b14806107b057506001600160e01b0319821660009081526020819052604090205460ff165b92915050565b600c81815481106107c657600080fd5b9060005260206000200160009150905080546107e190612efd565b80601f016020809104026020016040519081016040528092919081815260200182805461080d90612efd565b801561085a5780601f1061082f5761010080835404028352916020019161085a565b820191906000526020600020905b81548152906001019060200180831161083d57829003601f168201915b505050505081565b6000600b60016009846040516108789190612f37565b9081526020016040518091039020546108919190612f69565b815481106108a1576108a1612f7c565b60009182526020909120015492915050565b60006108bf8133611173565b6108e45760405162461bcd60e51b81526004016108db90612f92565b60405180910390fd5b6108ec6122a9565b6108f583612058565b6109115760405162461bcd60e51b81526004016108db90612fb5565b600060016009856040516109259190612f37565b90815260200160405180910390205461093e9190612f69565b90507f4b44a0f1f9ad83f48ce1c55d8b93720658c4dbdd91f7c1d3f22612cd6474ab7b84600b838154811061097557610975612f7c565b90600052602060002001600001548560405161099393929190612fe4565b60405180910390a182600b82815481106109af576109af612f7c565b6000918252602090912001555060019392505050565b600082815260016020819052604090912001546109e1816122ef565b6109eb83836122fc565b50505050565b81610a3e5760405162461bcd60e51b815260206004820152601b60248201527f63616e206e6f742072656e6f756e636520726f6c65206f776e6572000000000060448201526064016108db565b6001600160a01b0381163314610a965760405162461bcd60e51b815260206004820181905260248201527f63616e206f6e6c792072656e6f756e636520726f6c657320666f722073656c6660448201526064016108db565b610aa08282612375565b5050565b610aaf600033611173565b610acb5760405162461bcd60e51b81526004016108db90612f92565b610ad36123a8565b565b6000610ae18133611173565b610afd5760405162461bcd60e51b81526004016108db90612f92565b610b056122a9565b6064821115610b485760405162461bcd60e51b815260206004820152600f60248201526e426967676572207468616e2031302560881b60448201526064016108db565b60055460408051918252602082018490527f423d9a8a1d4011c45245817ab10cc09937b0786496dad82dba18141ca4fb7c8e910160405180910390a150600581905560015b919050565b6000610b9e8133611173565b610bba5760405162461bcd60e51b81526004016108db90612f92565b50600455600190565b6000610bcf8133611173565b610beb5760405162461bcd60e51b81526004016108db90612f92565b610bf36122a9565b610c0b60008051602061335a83398151915283611efb565b506001919050565b6000610c2d60008051602061335a83398151915233611173565b610c675760405162461bcd60e51b815260206004820152600b60248201526a3737ba1036b7b734ba37b960a91b60448201526064016108db565b610c6f6122a9565b6001600160a01b038816610cb85760405162461bcd60e51b815260206004820152601060248201526f7265636569766572206973207a65726f60801b60448201526064016108db565b60008711610cf65760405162461bcd60e51b815260206004820152600b60248201526a0616d6f756e7420697320360ac1b60448201526064016108db565b610d3586868080601f016020809104026020016040519081016040528093929190818152602001838380828437600092019190915250611cd692505050565b610d815760405162461bcd60e51b815260206004820152601960248201527f66726f6d426c6f636b636861696e206e6f74206578697374730000000000000060448201526064016108db565b83610dc25760405162461bcd60e51b8152602060048201526011602482015270189b1bd8dad2185cda081a5cc81b9d5b1b607a1b60448201526064016108db565b82610e0f5760405162461bcd60e51b815260206004820152601760248201527f7472616e73616374696f6e48617368206973206e756c6c00000000000000000060448201526064016108db565b610e1c84848a8a866123fa565b610e268888612477565b50600198975050505050505050565b60025460009061010090046001600160a01b031615610ec3576002546040516370a0823160e01b81523060048201526101009091046001600160a01b0316906370a0823190602401602060405180830381865afa158015610e9a573d6000803e3d6000fd5b505050506040513d601f19601f82011682018060405250810190610ebe9190613009565b905090565b504790565b610ed3600033611173565b610eef5760405162461bcd60e51b81526004016108db90612f92565b610ad361259b565b6000610f038133611173565b610f1f5760405162461bcd60e51b81526004016108db90612f92565b610f276122a9565b610f3082612058565b610f4c5760405162461bcd60e51b81526004016108db90612fb5565b60006001600984604051610f609190612f37565b908152602001604051809103902054610f799190612f69565b600b54909150600090610f8e90600190612f69565b90506000600d8281548110610fa557610fa5612f7c565b906000526020600020018054610fba90612efd565b80601f0160208091040260200160405190810160405280929190818152602001828054610fe690612efd565b80156110335780601f1061100857610100808354040283529160200191611033565b820191906000526020600020905b81548152906001019060200180831161101657829003601f168201915b50505050509050600b828154811061104d5761104d612f7c565b90600052602060002001600b848154811061106a5761106a612f7c565b600091825260209091209154910155600d80548390811061108d5761108d612f7c565b90600052602060002001600d84815481106110aa576110aa612f7c565b9060005260206000200190816110c09190613070565b506110cc836001613150565b6009826040516110dc9190612f37565b9081526020016040518091039020819055506009856040516110fe9190612f37565b908152602001604051809103902060009055600b80548061112157611121613163565b600082815260208120820160001990810191909155019055600d80548061114a5761114a613163565b6001900381819060005260206000200160006111669190612a0f565b9055506001949350505050565b60009182526001602090815260408084206001600160a01b0393909316845291905290205460ff1690565b60006111aa8133611173565b6111c65760405162461bcd60e51b81526004016108db90612f92565b6111ce6122a9565b6111d783612058565b156112185760405162461bcd60e51b8152602060048201526011602482015270626c6f636b636861696e2065786973747360781b60448201526064016108db565b6040805160208101909152828152600b805460018082018355600092835283517f0175b7a638427703f0dbe7bb9bbf987a2551717b34e79f33b5b1008d1fa01db990920191909155600d805491820181559091527fd7b6990105719101dabeb77144f2a3385c8033acd3af97e9423a695e81ad1eb5016112988582613179565b50600b5460405181906009906112af908890612f37565b9081526040519081900360200190205591505092915050565b600033321461130d5760405162461bcd60e51b815260206004820152601160248201527043616c6c6572206973206e6f7420454f4160781b60448201526064016108db565b6113156122a9565b61135485858080601f01602080910402602001604051908101604052809392919081815260200183838082843760009201919091525061205892505050565b6113a05760405162461bcd60e51b815260206004820152601760248201527f746f426c6f636b636861696e206e6f742065786973747300000000000000000060448201526064016108db565b6113ed83838080601f0160208091040260200160405190810160405280939291908181526020018383808284376000920182905250604080516020810190915290815292506125d8915050565b1561142e5760405162461bcd60e51b81526020600482015260116024820152701d1bd059191c995cdcc81a5cc81b9d5b1b607a1b60448201526064016108db565b6000600160098787604051611444929190613230565b90815260200160405180910390205461145d9190612f69565b90506000871161149d5760405162461bcd60e51b815260206004820152600b60248201526a0616d6f756e7420697320360ac1b60448201526064016108db565b600b81815481106114b0576114b0612f7c565b906000526020600020016000015487101561150d5760405162461bcd60e51b815260206004820152601b60248201527f616d6f756e74206973206c657373207468616e206d696e696d756d000000000060448201526064016108db565b602a831461155d5760405162461bcd60e51b815260206004820152601b60248201527f696e76616c69642064657374696e6174696f6e2061646472657373000000000060448201526064016108db565b6004543410156115af5760405162461bcd60e51b815260206004820152601a60248201527f496e76616c696420666565206e6174697665206272696467652e00000000000060448201526064016108db565b60025461010090046001600160a01b031661161f576004546115d19088613150565b341461161f5760405162461bcd60e51b815260206004820152601f60248201527f72657175697265643a20666565206e6174697665206e6f7420656e6f7567680060448201526064016108db565b60006103e8600554896116329190613240565b61163c9190613257565b9050600061164a828a612f69565b9050816003600082825461165e9190613150565b90915550506006546004546001600160a01b03909116901561169157600454611691906001600160a01b03831690612631565b60025461010090046001600160a01b03161561170f576116c43360025461010090046001600160a01b03169030856126c8565b6116e73360065460025461010090046001600160a01b03908116929116866126c8565b6000600454346116f79190612f69565b90508015611709576117093382612631565b50611762565b8215611728576117286001600160a01b03821684612631565b306117338184612631565b6000836004546117439190613150565b61174d9034612f69565b9050801561175f5761175f3382612631565b50505b7f4b07d21301cc34286797eac5a16d2f1c0131fcf7b2051b24457f8d9a0949479d338389898d8d60405161179b969594939291906132a2565b60405180910390a15060019998505050505050505050565b6060600c805480602002602001604051908101604052809291908181526020016000905b828210156118835783829060005260206000200180546117f690612efd565b80601f016020809104026020016040519081016040528092919081815260200182805461182290612efd565b801561186f5780601f106118445761010080835404028352916020019161186f565b820191906000526020600020905b81548152906001019060200180831161185257829003601f168201915b5050505050815260200190600101906117d7565b50505050905090565b60006118988133611173565b6118b45760405162461bcd60e51b81526004016108db90612f92565b6118bc6122a9565b610c0b60008051602061335a833981519152836109c5565b60006118e08133611173565b6118fc5760405162461bcd60e51b81526004016108db90612f92565b6119046122a9565b61190d82611cd6565b6119295760405162461bcd60e51b81526004016108db90612fb5565b6000600160088460405161193d9190612f37565b9081526020016040518091039020546119569190612f69565b600a5490915060009061196b90600190612f69565b90506000600c828154811061198257611982612f7c565b90600052602060002001805461199790612efd565b80601f01602080910402602001604051908101604052809291908181526020018280546119c390612efd565b8015611a105780601f106119e557610100808354040283529160200191611a10565b820191906000526020600020905b8154815290600101906020018083116119f357829003601f168201915b50505050509050600a8281548110611a2a57611a2a612f7c565b90600052602060002001600a8481548110611a4757611a47612f7c565b600091825260209091209154910155600c805483908110611a6a57611a6a612f7c565b90600052602060002001600c8481548110611a8757611a87612f7c565b906000526020600020019081611a9d9190613070565b50611aa9836001613150565b600882604051611ab99190612f37565b908152602001604051809103902081905550600885604051611adb9190612f37565b908152602001604051809103902060009055600a805480611afe57611afe613163565b600082815260208120820160001990810191909155019055600c80548061114a5761114a613163565b6000611b338133611173565b611b4f5760405162461bcd60e51b81526004016108db90612f92565b6001600160a01b038216611b985760405162461bcd60e51b815260206004820152601060248201526f7265636569766572206973207a65726f60801b60448201526064016108db565b60025461010090046001600160a01b031615611c87576002546040516370a0823160e01b81523060048201526101009091046001600160a01b0316906370a0823190602401602060405180830381865afa158015611bfa573d6000803e3d6000fd5b505050506040513d601f19601f82011682018060405250810190611c1e9190613009565b831115611c635760405162461bcd60e51b8152602060048201526013602482015272696e737566696369656e742062616c616e636560681b60448201526064016108db565b600254611c7f9061010090046001600160a01b0316838561272f565b5060016107b0565b82471015611ca75760405162461bcd60e51b81526004016108db906132ea565b81611cbb6001600160a01b03821685612631565b505b50600192915050565b600d81815481106107c657600080fd5b6000600882604051611ce89190612f37565b908152602001604051809103902054600003610c0b57506000919050565b60025461010090046001600160a01b031615611d545760405162461bcd60e51b815260206004820152600d60248201526c2737ba1039b2ba103a37b5b2b760991b60448201526064016108db565b6006546001600160a01b031615611da45760405162461bcd60e51b8152602060048201526014602482015273139bdd081cd95d081bdddb995c881dd85b1b195d60621b60448201526064016108db565b60045415611df45760405162461bcd60e51b815260206004820152601a60248201527f4e6f74207365742061646d696e2064656661756c7420726f6c6500000000000060448201526064016108db565b60055415611e445760405162461bcd60e51b815260206004820152601a60248201527f4e6f74207365742061646d696e2064656661756c7420726f6c6500000000000060448201526064016108db565b6064811115611e895760405162461bcd60e51b81526020600482015260116024820152704665652070657263656e74203e2031302560781b60448201526064016108db565b60028054610100600160a81b0319166101006001600160a01b038881169190910291909117909155600680546001600160a01b031916918616919091179055611ed36000856122fc565b50611eec60008051602061335a833981519152846122fc565b50600491909155600555505050565b60008281526001602081905260409091200154611f17816122ef565b611f218383612760565b505050565b6040805160208082019790975280820195909552606093841b6bffffffffffffffffffffffff191693850193909352607484019190915260e01b6001600160e01b03191660948301528051808303607801815260989092019052805191012090565b6060600d805480602002602001604051908101604052809291908181526020016000905b82821015611883578382906000526020600020018054611fcb90612efd565b80601f0160208091040260200160405190810160405280929190818152602001828054611ff790612efd565b80156120445780601f1061201957610100808354040283529160200191612044565b820191906000526020600020905b81548152906001019060200180831161202757829003601f168201915b505050505081526020019060010190611fac565b6000600982604051611ce89190612f37565b60006120768133611173565b6120925760405162461bcd60e51b81526004016108db90612f92565b61209a6122a9565b6120a382611cd6565b156120e45760405162461bcd60e51b8152602060048201526011602482015270426c6f636b636861696e2065786973747360781b60448201526064016108db565b60408051602081019091526000808252600a80546001808201835591835283517fc65a7bb8d6351c1cf70c95a316cc6a92839c986682d98bc35f958f4883f9d2a890910155600c805491820181559091527fdf6966c971051c3d54ec59162606531493a51404a002842f56009d7e5cf4a8c7016121618482613179565b50600a546040518190600890612178908790612f37565b90815260405190819003602001902055915050919050565b600061219c8133611173565b6121b85760405162461bcd60e51b81526004016108db90612f92565b6121c06122a9565b600680546001600160a01b0319166001600160a01b038416179055336001600160a01b0316826001600160a01b03160361223c5760405162461bcd60e51b815260206004820152601e60248201527f6e65774f776e65722063616e206e6f74206265206d73672e73656e646572000060448201526064016108db565b6001600160a01b0382166122925760405162461bcd60e51b815260206004820152601860248201527f6e65774f776e65722063616e206e6f74206265207a65726f000000000000000060448201526064016108db565b61229d6000836122fc565b50610c0b600033611efb565b60025460ff1615610ad35760405162461bcd60e51b815260206004820152601060248201526f14185d5cd8589b194e881c185d5cd95960821b60448201526064016108db565b6122f98133612786565b50565b60006123088383611173565b61236d5760008381526001602081815260408084206001600160a01b0387168086529252808420805460ff19169093179092559051339286917f2f8788117e7eff1d82e926ec794901d17c78024a50270940304540a733656f0d9190a45060016107b0565b5060006107b0565b6001600160a01b038116331461239e5760405163334bd91960e11b815260040160405180910390fd5b611f2182826127bf565b6123b061282c565b6002805460ff191690557f5db9ee0a495bf2e6ff9c91a7834c1ba4fdd244a5e8aa4e537bd38aeae4b073aa335b6040516001600160a01b03909116815260200160405180910390a1565b60006124098686868686611f26565b60008181526007602052604090205490915060ff16156124575760405162461bcd60e51b81526020600482015260096024820152681c1c9bd8d95cdcd95960ba1b60448201526064016108db565b6000908152600760205260409020805460ff191660011790555050505050565b60025460009061010090046001600160a01b03166124c957814710156124af5760405162461bcd60e51b81526004016108db906132ea565b826124c36001600160a01b03821684612631565b50611cbd565b6002546040516370a0823160e01b8152306004820152839161010090046001600160a01b0316906370a0823190602401602060405180830381865afa158015612516573d6000803e3d6000fd5b505050506040513d601f19601f8201168201806040525081019061253a9190613009565b101561257f5760405162461bcd60e51b8152602060048201526014602482015273696e73756666696369656e742062616c616e636560601b60448201526064016108db565b600254611cbd9061010090046001600160a01b0316848461272f565b6125a36122a9565b6002805460ff191660011790557f62e78cea01bee320cd4e420270b5ea74000d11b0c9f74754ebdbfc544b05a2586123dd3390565b6000816040516020016125eb9190612f37565b60405160208183030381529060405280519060200120836040516020016126129190612f37565b6040516020818303038152906040528051906020012014905092915050565b804710156126545760405163cd78605960e01b81523060048201526024016108db565b6000826001600160a01b03168260405160006040518083038185875af1925050503d80600081146126a1576040519150601f19603f3d011682016040523d82523d6000602084013e6126a6565b606091505b5050905080611f2157604051630a12f52160e11b815260040160405180910390fd5b6040516001600160a01b0384811660248301528381166044830152606482018390526109eb9186918216906323b872dd906084015b604051602081830303815290604052915060e01b6020820180516001600160e01b038381831617835250505050612875565b6040516001600160a01b03838116602483015260448201839052611f2191859182169063a9059cbb906064016126fd565b6000828152600160208190526040909120015461277c816122ef565b6109eb83836127bf565b6127908282611173565b610aa05760405163e2517d3f60e01b81526001600160a01b0382166004820152602481018390526044016108db565b60006127cb8383611173565b1561236d5760008381526001602090815260408083206001600160a01b0386168085529252808320805460ff1916905551339286917ff6391f5c32d9c69d2a47ea670b442974b53935d1edc7fd64eb21e047a839171b9190a45060016107b0565b60025460ff16610ad35760405162461bcd60e51b815260206004820152601460248201527314185d5cd8589b194e881b9bdd081c185d5cd95960621b60448201526064016108db565b600061288a6001600160a01b038416836128d8565b905080516000141580156128af5750808060200190518101906128ad9190613337565b155b15611f2157604051635274afe760e01b81526001600160a01b03841660048201526024016108db565b60606128e6838360006128ed565b9392505050565b6060814710156129125760405163cd78605960e01b81523060048201526024016108db565b600080856001600160a01b0316848660405161292e9190612f37565b60006040518083038185875af1925050503d806000811461296b576040519150601f19603f3d011682016040523d82523d6000602084013e612970565b606091505b509150915061298086838361298a565b9695505050505050565b60608261299f5761299a826129e6565b6128e6565b81511580156129b657506001600160a01b0384163b155b156129df57604051639996b31560e01b81526001600160a01b03851660048201526024016108db565b50806128e6565b8051156129f65780518082602001fd5b604051630a12f52160e11b815260040160405180910390fd5b508054612a1b90612efd565b6000825580601f10612a2b575050565b601f0160209004906000526020600020908101906122f991905b80821115612a595760008155600101612a45565b5090565b600060208284031215612a6f57600080fd5b81356001600160e01b0319811681146128e657600080fd5b600060208284031215612a9957600080fd5b5035919050565b60005b83811015612abb578181015183820152602001612aa3565b50506000910152565b60008151808452612adc816020860160208601612aa0565b601f01601f19169290920160200192915050565b6020815260006128e66020830184612ac4565b634e487b7160e01b600052604160045260246000fd5b600082601f830112612b2a57600080fd5b813567ffffffffffffffff811115612b4457612b44612b03565b604051601f8201601f19908116603f0116810167ffffffffffffffff81118282101715612b7357612b73612b03565b604052818152838201602001851015612b8b57600080fd5b816020850160208301376000918101602001919091529392505050565b600060208284031215612bba57600080fd5b813567ffffffffffffffff811115612bd157600080fd5b612bdd84828501612b19565b949350505050565b60008060408385031215612bf857600080fd5b823567ffffffffffffffff811115612c0f57600080fd5b612c1b85828601612b19565b95602094909401359450505050565b6001600160a01b03811681146122f957600080fd5b60008060408385031215612c5257600080fd5b823591506020830135612c6481612c2a565b809150509250929050565b600060208284031215612c8157600080fd5b81356128e681612c2a565b60008083601f840112612c9e57600080fd5b50813567ffffffffffffffff811115612cb657600080fd5b602083019150836020828501011115612cce57600080fd5b9250929050565b803563ffffffff81168114610b8d57600080fd5b600080600080600080600060c0888a031215612d0457600080fd5b8735612d0f81612c2a565b965060208801359550604088013567ffffffffffffffff811115612d3257600080fd5b612d3e8a828b01612c8c565b9096509450506060880135925060808801359150612d5e60a08901612cd5565b905092959891949750929550565b600080600080600060608688031215612d8457600080fd5b85359450602086013567ffffffffffffffff811115612da257600080fd5b612dae88828901612c8c565b909550935050604086013567ffffffffffffffff811115612dce57600080fd5b612dda88828901612c8c565b969995985093965092949392505050565b6000602082016020835280845180835260408501915060408160051b86010192506020860160005b82811015612e4457603f19878603018452612e2f858351612ac4565b94506020938401939190910190600101612e13565b50929695505050505050565b600080600080600060a08688031215612e6857600080fd5b8535612e7381612c2a565b94506020860135612e8381612c2a565b93506040860135612e9381612c2a565b94979396509394606081013594506080013592915050565b600080600080600060a08688031215612ec357600080fd5b85359450602086013593506040860135612edc81612c2a565b925060608601359150612ef160808701612cd5565b90509295509295909350565b600181811c90821680612f1157607f821691505b602082108103612f3157634e487b7160e01b600052602260045260246000fd5b50919050565b60008251612f49818460208701612aa0565b9190910192915050565b634e487b7160e01b600052601160045260246000fd5b818103818111156107b0576107b0612f53565b634e487b7160e01b600052603260045260246000fd5b6020808252600990820152683737ba1037bbb732b960b91b604082015260600190565b602080825260159082015274626c6f636b636861696e206e6f742065786973747360581b604082015260600190565b606081526000612ff76060830186612ac4565b60208301949094525060400152919050565b60006020828403121561301b57600080fd5b5051919050565b601f821115611f2157806000526020600020601f840160051c810160208510156130495750805b601f840160051c820191505b818110156130695760008155600101613055565b5050505050565b81810361307b575050565b6130858254612efd565b67ffffffffffffffff81111561309d5761309d612b03565b6130b1816130ab8454612efd565b84613022565b6000601f8211600181146130e857600083156130cd5750848201545b600184901b600019600386901b1c198216175b855550613069565b600085815260209020601f19841690600086815260209020845b838110156131225782860154825560019586019590910190602001613102565b50858310156131405781850154600019600388901b60f8161c191681555b5050505050600190811b01905550565b808201808211156107b0576107b0612f53565b634e487b7160e01b600052603160045260246000fd5b815167ffffffffffffffff81111561319357613193612b03565b6131a1816130ab8454612efd565b6020601f8211600181146131d357600083156130cd575081850151600184901b600019600386901b1c198216176130e0565b600084815260208120601f198516915b8281101561320357878501518255602094850194600190920191016131e3565b50848210156132215786840151600019600387901b60f8161c191681555b50505050600190811b01905550565b8183823760009101908152919050565b80820281158282048414176107b0576107b0612f53565b60008261327457634e487b7160e01b600052601260045260246000fd5b500490565b81835281816020850137506000828201602090810191909152601f909101601f19169091010190565b60018060a01b03871681528560208201526080604082015260006132ca608083018688613279565b82810360608401526132dd818587613279565b9998505050505050505050565b6020808252602d908201527f496e73756666696369656e74206e617469766520746f6b656e2062616c616e6360408201526c19481a5b8818dbdb9d1c9858dd609a1b606082015260800190565b60006020828403121561334957600080fd5b815180151581146128e657600080fdfe8227712ef8ad39d0f26f06731ef0df8665eb7ada7f41b1ee089adf3c238862a2a2646970667358221220d26a9dc39e914ecb47e8b2b09ad46f6fd71dd28d5920d1ad6d695dc7bc58146064736f6c634300081a0033",
			"opcodes": "PUSH1 0x80 PUSH1 0x40 MSTORE CALLVALUE DUP1 ISZERO PUSH1 0xF JUMPI PUSH1 0x0 DUP1 REVERT JUMPDEST POP PUSH1 0x1E PUSH4 0x1FFC9A7 PUSH1 0xE0 SHL PUSH1 0x2C JUMP JUMPDEST PUSH1 0x2 DUP1 SLOAD PUSH1 0xFF NOT AND SWAP1 SSTORE PUSH1 0xAE JUMP JUMPDEST PUSH1 0x1 PUSH1 0x1 PUSH1 0xE0 SHL SUB NOT DUP1 DUP3 AND SWAP1 SUB PUSH1 0x89 JUMPI PUSH1 0x40 MLOAD PUSH3 0x461BCD PUSH1 0xE5 SHL DUP2 MSTORE PUSH1 0x20 PUSH1 0x4 DUP3 ADD MSTORE PUSH1 0x1C PUSH1 0x24 DUP3 ADD MSTORE PUSH32 0x4552433136353A20696E76616C696420696E7465726661636520696400000000 PUSH1 0x44 DUP3 ADD MSTORE PUSH1 0x64 ADD PUSH1 0x40 MLOAD DUP1 SWAP2 SUB SWAP1 REVERT JUMPDEST PUSH1 0x1 PUSH1 0x1 PUSH1 0xE0 SHL SUB NOT AND PUSH1 0x0 SWAP1 DUP2 MSTORE PUSH1 0x20 DUP2 SWAP1 MSTORE PUSH1 0x40 SWAP1 KECCAK256 DUP1 SLOAD PUSH1 0xFF NOT AND PUSH1 0x1 OR SWAP1 SSTORE JUMP JUMPDEST PUSH2 0x33AF DUP1 PUSH2 0xBD PUSH1 0x0 CODECOPY PUSH1 0x0 RETURN INVALID PUSH1 0x80 PUSH1 0x40 MSTORE PUSH1 0x4 CALLDATASIZE LT PUSH2 0x24A JUMPI PUSH1 0x0 CALLDATALOAD PUSH1 0xE0 SHR DUP1 PUSH4 0x8689B322 GT PUSH2 0x139 JUMPI DUP1 PUSH4 0xC4251339 GT PUSH2 0xB6 JUMPI DUP1 PUSH4 0xF11B7C33 GT PUSH2 0x7A JUMPI DUP1 PUSH4 0xF11B7C33 EQ PUSH2 0x6A4 JUMPI DUP1 PUSH4 0xF2E1FA65 EQ PUSH2 0x6B9 JUMPI DUP1 PUSH4 0xF2FCDBD3 EQ PUSH2 0x6D9 JUMPI DUP1 PUSH4 0xF2FDE38B EQ PUSH2 0x6F9 JUMPI DUP1 PUSH4 0xFAE36AFB EQ PUSH2 0x719 JUMPI DUP1 PUSH4 0xFC0C546A EQ PUSH2 0x751 JUMPI PUSH1 0x0 DUP1 REVERT JUMPDEST DUP1 PUSH4 0xC4251339 EQ PUSH2 0x604 JUMPI DUP1 PUSH4 0xC9B4D653 EQ PUSH2 0x624 JUMPI DUP1 PUSH4 0xD542A501 EQ PUSH2 0x644 JUMPI DUP1 PUSH4 0xD547741F EQ PUSH2 0x664 JUMPI DUP1 PUSH4 0xE8340A99 EQ PUSH2 0x684 JUMPI PUSH1 0x0 DUP1 REVERT JUMPDEST DUP1 PUSH4 0xB715F98F GT PUSH2 0xFD JUMPI DUP1 PUSH4 0xB715F98F EQ PUSH2 0x552 JUMPI DUP1 PUSH4 0xB8C48A28 EQ PUSH2 0x574 JUMPI DUP1 PUSH4 0xBB13CA3B EQ PUSH2 0x594 JUMPI DUP1 PUSH4 0xBE4B1772 EQ PUSH2 0x5B4 JUMPI DUP1 PUSH4 0xC1F0808A EQ PUSH2 0x5D4 JUMPI PUSH1 0x0 DUP1 REVERT JUMPDEST DUP1 PUSH4 0x8689B322 EQ PUSH2 0x4CA JUMPI DUP1 PUSH4 0x91D14854 EQ PUSH2 0x4EA JUMPI DUP1 PUSH4 0x9D1E034D EQ PUSH2 0x50A JUMPI DUP1 PUSH4 0xA217FDDF EQ PUSH2 0x52A JUMPI DUP1 PUSH4 0xA36185F4 EQ PUSH2 0x53F JUMPI PUSH1 0x0 DUP1 REVERT JUMPDEST DUP1 PUSH4 0x4D9B47E2 GT PUSH2 0x1C7 JUMPI DUP1 PUSH4 0x646AC61C GT PUSH2 0x18B JUMPI DUP1 PUSH4 0x646AC61C EQ PUSH2 0x454 JUMPI DUP1 PUSH4 0x6D2133E1 EQ PUSH2 0x46A JUMPI DUP1 PUSH4 0x7DAD0D57 EQ PUSH2 0x480 JUMPI DUP1 PUSH4 0x82B2E257 EQ PUSH2 0x4A0 JUMPI DUP1 PUSH4 0x8456CB59 EQ PUSH2 0x4B5 JUMPI PUSH1 0x0 DUP1 REVERT JUMPDEST DUP1 PUSH4 0x4D9B47E2 EQ PUSH2 0x3BA JUMPI DUP1 PUSH4 0x525A34E3 EQ PUSH2 0x3DC JUMPI DUP1 PUSH4 0x5A075F92 EQ PUSH2 0x3FC JUMPI DUP1 PUSH4 0x5C975ABB EQ PUSH2 0x41C JUMPI DUP1 PUSH4 0x5D27FC70 EQ PUSH2 0x434 JUMPI PUSH1 0x0 DUP1 REVERT JUMPDEST DUP1 PUSH4 0x29C9A4DA GT PUSH2 0x20E JUMPI DUP1 PUSH4 0x29C9A4DA EQ PUSH2 0x32D JUMPI DUP1 PUSH4 0x2A76E481 EQ PUSH2 0x34D JUMPI DUP1 PUSH4 0x2F2FF15D EQ PUSH2 0x363 JUMPI DUP1 PUSH4 0x36568ABE EQ PUSH2 0x385 JUMPI DUP1 PUSH4 0x3F4BA83A EQ PUSH2 0x3A5 JUMPI PUSH1 0x0 DUP1 REVERT JUMPDEST DUP1 PUSH4 0x1C234A8 EQ PUSH2 0x256 JUMPI DUP1 PUSH4 0x1FFC9A7 EQ PUSH2 0x27F JUMPI DUP1 PUSH4 0x1D316A5D EQ PUSH2 0x2AF JUMPI DUP1 PUSH4 0x212258A8 EQ PUSH2 0x2DC JUMPI DUP1 PUSH4 0x248A9CA3 EQ PUSH2 0x2FC JUMPI PUSH1 0x0 DUP1 REVERT JUMPDEST CALLDATASIZE PUSH2 0x251 JUMPI STOP JUMPDEST PUSH1 0x0 DUP1 REVERT JUMPDEST CALLVALUE DUP1 ISZERO PUSH2 0x262 JUMPI PUSH1 0x0 DUP1 REVERT JUMPDEST POP PUSH2 0x26C PUSH2 0x3E8 DUP2 JUMP JUMPDEST PUSH1 0x40 MLOAD SWAP1 DUP2 MSTORE PUSH1 0x20 ADD JUMPDEST PUSH1 0x40 MLOAD DUP1 SWAP2 SUB SWAP1 RETURN JUMPDEST CALLVALUE DUP1 ISZERO PUSH2 0x28B JUMPI PUSH1 0x0 DUP1 REVERT JUMPDEST POP PUSH2 0x29F PUSH2 0x29A CALLDATASIZE PUSH1 0x4 PUSH2 0x2A5D JUMP JUMPDEST PUSH2 0x776 JUMP JUMPDEST PUSH1 0x40 MLOAD SWAP1 ISZERO ISZERO DUP2 MSTORE PUSH1 0x20 ADD PUSH2 0x276 JUMP JUMPDEST CALLVALUE DUP1 ISZERO PUSH2 0x2BB JUMPI PUSH1 0x0 DUP1 REVERT JUMPDEST POP PUSH2 0x2CF PUSH2 0x2CA CALLDATASIZE PUSH1 0x4 PUSH2 0x2A87 JUMP JUMPDEST PUSH2 0x7B6 JUMP JUMPDEST PUSH1 0x40 MLOAD PUSH2 0x276 SWAP2 SWAP1 PUSH2 0x2AF0 JUMP JUMPDEST CALLVALUE DUP1 ISZERO PUSH2 0x2E8 JUMPI PUSH1 0x0 DUP1 REVERT JUMPDEST POP PUSH2 0x26C PUSH2 0x2F7 CALLDATASIZE PUSH1 0x4 PUSH2 0x2BA8 JUMP JUMPDEST PUSH2 0x862 JUMP JUMPDEST CALLVALUE DUP1 ISZERO PUSH2 0x308 JUMPI PUSH1 0x0 DUP1 REVERT JUMPDEST POP PUSH2 0x26C PUSH2 0x317 CALLDATASIZE PUSH1 0x4 PUSH2 0x2A87 JUMP JUMPDEST PUSH1 0x0 SWAP1 DUP2 MSTORE PUSH1 0x1 PUSH1 0x20 DUP2 SWAP1 MSTORE PUSH1 0x40 SWAP1 SWAP2 KECCAK256 ADD SLOAD SWAP1 JUMP JUMPDEST CALLVALUE DUP1 ISZERO PUSH2 0x339 JUMPI PUSH1 0x0 DUP1 REVERT JUMPDEST POP PUSH2 0x29F PUSH2 0x348 CALLDATASIZE PUSH1 0x4 PUSH2 0x2BE5 JUMP JUMPDEST PUSH2 0x8B3 JUMP JUMPDEST CALLVALUE DUP1 ISZERO PUSH2 0x359 JUMPI PUSH1 0x0 DUP1 REVERT JUMPDEST POP PUSH2 0x26C PUSH1 0x5 SLOAD DUP2 JUMP JUMPDEST CALLVALUE DUP1 ISZERO PUSH2 0x36F JUMPI PUSH1 0x0 DUP1 REVERT JUMPDEST POP PUSH2 0x383 PUSH2 0x37E CALLDATASIZE PUSH1 0x4 PUSH2 0x2C3F JUMP JUMPDEST PUSH2 0x9C5 JUMP JUMPDEST STOP JUMPDEST CALLVALUE DUP1 ISZERO PUSH2 0x391 JUMPI PUSH1 0x0 DUP1 REVERT JUMPDEST POP PUSH2 0x383 PUSH2 0x3A0 CALLDATASIZE PUSH1 0x4 PUSH2 0x2C3F JUMP JUMPDEST PUSH2 0x9F1 JUMP JUMPDEST CALLVALUE DUP1 ISZERO PUSH2 0x3B1 JUMPI PUSH1 0x0 DUP1 REVERT JUMPDEST POP PUSH2 0x383 PUSH2 0xAA4 JUMP JUMPDEST CALLVALUE DUP1 ISZERO PUSH2 0x3C6 JUMPI PUSH1 0x0 DUP1 REVERT JUMPDEST POP PUSH2 0x26C PUSH1 0x0 DUP1 MLOAD PUSH1 0x20 PUSH2 0x335A DUP4 CODECOPY DUP2 MLOAD SWAP2 MSTORE DUP2 JUMP JUMPDEST CALLVALUE DUP1 ISZERO PUSH2 0x3E8 JUMPI PUSH1 0x0 DUP1 REVERT JUMPDEST POP PUSH2 0x29F PUSH2 0x3F7 CALLDATASIZE PUSH1 0x4 PUSH2 0x2A87 JUMP JUMPDEST PUSH2 0xAD5 JUMP JUMPDEST CALLVALUE DUP1 ISZERO PUSH2 0x408 JUMPI PUSH1 0x0 DUP1 REVERT JUMPDEST POP PUSH2 0x29F PUSH2 0x417 CALLDATASIZE PUSH1 0x4 PUSH2 0x2A87 JUMP JUMPDEST PUSH2 0xB92 JUMP JUMPDEST CALLVALUE DUP1 ISZERO PUSH2 0x428 JUMPI PUSH1 0x0 DUP1 REVERT JUMPDEST POP PUSH1 0x2 SLOAD PUSH1 0xFF AND PUSH2 0x29F JUMP JUMPDEST CALLVALUE DUP1 ISZERO PUSH2 0x440 JUMPI PUSH1 0x0 DUP1 REVERT JUMPDEST POP PUSH2 0x29F PUSH2 0x44F CALLDATASIZE PUSH1 0x4 PUSH2 0x2C6F JUMP JUMPDEST PUSH2 0xBC3 JUMP JUMPDEST CALLVALUE DUP1 ISZERO PUSH2 0x460 JUMPI PUSH1 0x0 DUP1 REVERT JUMPDEST POP PUSH2 0x26C PUSH1 0x3 SLOAD DUP2 JUMP JUMPDEST CALLVALUE DUP1 ISZERO PUSH2 0x476 JUMPI PUSH1 0x0 DUP1 REVERT JUMPDEST POP PUSH2 0x26C PUSH1 0x4 SLOAD DUP2 JUMP JUMPDEST CALLVALUE DUP1 ISZERO PUSH2 0x48C JUMPI PUSH1 0x0 DUP1 REVERT JUMPDEST POP PUSH2 0x29F PUSH2 0x49B CALLDATASIZE PUSH1 0x4 PUSH2 0x2CE9 JUMP JUMPDEST PUSH2 0xC13 JUMP JUMPDEST CALLVALUE DUP1 ISZERO PUSH2 0x4AC JUMPI PUSH1 0x0 DUP1 REVERT JUMPDEST POP PUSH2 0x26C PUSH2 0xE35 JUMP JUMPDEST CALLVALUE DUP1 ISZERO PUSH2 0x4C1 JUMPI PUSH1 0x0 DUP1 REVERT JUMPDEST POP PUSH2 0x383 PUSH2 0xEC8 JUMP JUMPDEST CALLVALUE DUP1 ISZERO PUSH2 0x4D6 JUMPI PUSH1 0x0 DUP1 REVERT JUMPDEST POP PUSH2 0x29F PUSH2 0x4E5 CALLDATASIZE PUSH1 0x4 PUSH2 0x2BA8 JUMP JUMPDEST PUSH2 0xEF7 JUMP JUMPDEST CALLVALUE DUP1 ISZERO PUSH2 0x4F6 JUMPI PUSH1 0x0 DUP1 REVERT JUMPDEST POP PUSH2 0x29F PUSH2 0x505 CALLDATASIZE PUSH1 0x4 PUSH2 0x2C3F JUMP JUMPDEST PUSH2 0x1173 JUMP JUMPDEST CALLVALUE DUP1 ISZERO PUSH2 0x516 JUMPI PUSH1 0x0 DUP1 REVERT JUMPDEST POP PUSH2 0x26C PUSH2 0x525 CALLDATASIZE PUSH1 0x4 PUSH2 0x2BE5 JUMP JUMPDEST PUSH2 0x119E JUMP JUMPDEST CALLVALUE DUP1 ISZERO PUSH2 0x536 JUMPI PUSH1 0x0 DUP1 REVERT JUMPDEST POP PUSH2 0x26C PUSH1 0x0 DUP2 JUMP JUMPDEST PUSH2 0x29F PUSH2 0x54D CALLDATASIZE PUSH1 0x4 PUSH2 0x2D6C JUMP JUMPDEST PUSH2 0x12C8 JUMP JUMPDEST CALLVALUE DUP1 ISZERO PUSH2 0x55E JUMPI PUSH1 0x0 DUP1 REVERT JUMPDEST POP PUSH2 0x567 PUSH2 0x17B3 JUMP JUMPDEST PUSH1 0x40 MLOAD PUSH2 0x276 SWAP2 SWAP1 PUSH2 0x2DEB JUMP JUMPDEST CALLVALUE DUP1 ISZERO PUSH2 0x580 JUMPI PUSH1 0x0 DUP1 REVERT JUMPDEST POP PUSH2 0x29F PUSH2 0x58F CALLDATASIZE PUSH1 0x4 PUSH2 0x2C6F JUMP JUMPDEST PUSH2 0x188C JUMP JUMPDEST CALLVALUE DUP1 ISZERO PUSH2 0x5A0 JUMPI PUSH1 0x0 DUP1 REVERT JUMPDEST POP PUSH2 0x29F PUSH2 0x5AF CALLDATASIZE PUSH1 0x4 PUSH2 0x2BA8 JUMP JUMPDEST PUSH2 0x18D4 JUMP JUMPDEST CALLVALUE DUP1 ISZERO PUSH2 0x5C0 JUMPI PUSH1 0x0 DUP1 REVERT JUMPDEST POP PUSH2 0x29F PUSH2 0x5CF CALLDATASIZE PUSH1 0x4 PUSH2 0x2C3F JUMP JUMPDEST PUSH2 0x1B27 JUMP JUMPDEST CALLVALUE DUP1 ISZERO PUSH2 0x5E0 JUMPI PUSH1 0x0 DUP1 REVERT JUMPDEST POP PUSH2 0x29F PUSH2 0x5EF CALLDATASIZE PUSH1 0x4 PUSH2 0x2A87 JUMP JUMPDEST PUSH1 0x7 PUSH1 0x20 MSTORE PUSH1 0x0 SWAP1 DUP2 MSTORE PUSH1 0x40 SWAP1 KECCAK256 SLOAD PUSH1 0xFF AND DUP2 JUMP JUMPDEST CALLVALUE DUP1 ISZERO PUSH2 0x610 JUMPI PUSH1 0x0 DUP1 REVERT JUMPDEST POP PUSH2 0x2CF PUSH2 0x61F CALLDATASIZE PUSH1 0x4 PUSH2 0x2A87 JUMP JUMPDEST PUSH2 0x1CC6 JUMP JUMPDEST CALLVALUE DUP1 ISZERO PUSH2 0x630 JUMPI PUSH1 0x0 DUP1 REVERT JUMPDEST POP PUSH2 0x29F PUSH2 0x63F CALLDATASIZE PUSH1 0x4 PUSH2 0x2BA8 JUMP JUMPDEST PUSH2 0x1CD6 JUMP JUMPDEST CALLVALUE DUP1 ISZERO PUSH2 0x650 JUMPI PUSH1 0x0 DUP1 REVERT JUMPDEST POP PUSH2 0x383 PUSH2 0x65F CALLDATASIZE PUSH1 0x4 PUSH2 0x2E50 JUMP JUMPDEST PUSH2 0x1D06 JUMP JUMPDEST CALLVALUE DUP1 ISZERO PUSH2 0x670 JUMPI PUSH1 0x0 DUP1 REVERT JUMPDEST POP PUSH2 0x383 PUSH2 0x67F CALLDATASIZE PUSH1 0x4 PUSH2 0x2C3F JUMP JUMPDEST PUSH2 0x1EFB JUMP JUMPDEST CALLVALUE DUP1 ISZERO PUSH2 0x690 JUMPI PUSH1 0x0 DUP1 REVERT JUMPDEST POP PUSH2 0x26C PUSH2 0x69F CALLDATASIZE PUSH1 0x4 PUSH2 0x2EAB JUMP JUMPDEST PUSH2 0x1F26 JUMP JUMPDEST CALLVALUE DUP1 ISZERO PUSH2 0x6B0 JUMPI PUSH1 0x0 DUP1 REVERT JUMPDEST POP PUSH2 0x567 PUSH2 0x1F88 JUMP JUMPDEST CALLVALUE DUP1 ISZERO PUSH2 0x6C5 JUMPI PUSH1 0x0 DUP1 REVERT JUMPDEST POP PUSH2 0x29F PUSH2 0x6D4 CALLDATASIZE PUSH1 0x4 PUSH2 0x2BA8 JUMP JUMPDEST PUSH2 0x2058 JUMP JUMPDEST CALLVALUE DUP1 ISZERO PUSH2 0x6E5 JUMPI PUSH1 0x0 DUP1 REVERT JUMPDEST POP PUSH2 0x26C PUSH2 0x6F4 CALLDATASIZE PUSH1 0x4 PUSH2 0x2BA8 JUMP JUMPDEST PUSH2 0x206A JUMP JUMPDEST CALLVALUE DUP1 ISZERO PUSH2 0x705 JUMPI PUSH1 0x0 DUP1 REVERT JUMPDEST POP PUSH2 0x29F PUSH2 0x714 CALLDATASIZE PUSH1 0x4 PUSH2 0x2C6F JUMP JUMPDEST PUSH2 0x2190 JUMP JUMPDEST CALLVALUE DUP1 ISZERO PUSH2 0x725 JUMPI PUSH1 0x0 DUP1 REVERT JUMPDEST POP PUSH1 0x6 SLOAD PUSH2 0x739 SWAP1 PUSH1 0x1 PUSH1 0x1 PUSH1 0xA0 SHL SUB AND DUP2 JUMP JUMPDEST PUSH1 0x40 MLOAD PUSH1 0x1 PUSH1 0x1 PUSH1 0xA0 SHL SUB SWAP1 SWAP2 AND DUP2 MSTORE PUSH1 0x20 ADD PUSH2 0x276 JUMP JUMPDEST CALLVALUE DUP1 ISZERO PUSH2 0x75D JUMPI PUSH1 0x0 DUP1 REVERT JUMPDEST POP PUSH1 0x2 SLOAD PUSH2 0x739 SWAP1 PUSH2 0x100 SWAP1 DIV PUSH1 0x1 PUSH1 0x1 PUSH1 0xA0 SHL SUB AND DUP2 JUMP JUMPDEST PUSH1 0x0 PUSH1 0x1 PUSH1 0x1 PUSH1 0xE0 SHL SUB NOT DUP3 AND PUSH4 0x7965DB0B PUSH1 0xE0 SHL EQ DUP1 PUSH2 0x7B0 JUMPI POP PUSH1 0x1 PUSH1 0x1 PUSH1 0xE0 SHL SUB NOT DUP3 AND PUSH1 0x0 SWAP1 DUP2 MSTORE PUSH1 0x20 DUP2 SWAP1 MSTORE PUSH1 0x40 SWAP1 KECCAK256 SLOAD PUSH1 0xFF AND JUMPDEST SWAP3 SWAP2 POP POP JUMP JUMPDEST PUSH1 0xC DUP2 DUP2 SLOAD DUP2 LT PUSH2 0x7C6 JUMPI PUSH1 0x0 DUP1 REVERT JUMPDEST SWAP1 PUSH1 0x0 MSTORE PUSH1 0x20 PUSH1 0x0 KECCAK256 ADD PUSH1 0x0 SWAP2 POP SWAP1 POP DUP1 SLOAD PUSH2 0x7E1 SWAP1 PUSH2 0x2EFD JUMP JUMPDEST DUP1 PUSH1 0x1F ADD PUSH1 0x20 DUP1 SWAP2 DIV MUL PUSH1 0x20 ADD PUSH1 0x40 MLOAD SWAP1 DUP2 ADD PUSH1 0x40 MSTORE DUP1 SWAP3 SWAP2 SWAP1 DUP2 DUP2 MSTORE PUSH1 0x20 ADD DUP3 DUP1 SLOAD PUSH2 0x80D SWAP1 PUSH2 0x2EFD JUMP JUMPDEST DUP1 ISZERO PUSH2 0x85A JUMPI DUP1 PUSH1 0x1F LT PUSH2 0x82F JUMPI PUSH2 0x100 DUP1 DUP4 SLOAD DIV MUL DUP4 MSTORE SWAP2 PUSH1 0x20 ADD SWAP2 PUSH2 0x85A JUMP JUMPDEST DUP3 ADD SWAP2 SWAP1 PUSH1 0x0 MSTORE PUSH1 0x20 PUSH1 0x0 KECCAK256 SWAP1 JUMPDEST DUP2 SLOAD DUP2 MSTORE SWAP1 PUSH1 0x1 ADD SWAP1 PUSH1 0x20 ADD DUP1 DUP4 GT PUSH2 0x83D JUMPI DUP3 SWAP1 SUB PUSH1 0x1F AND DUP3 ADD SWAP2 JUMPDEST POP POP POP POP POP DUP2 JUMP JUMPDEST PUSH1 0x0 PUSH1 0xB PUSH1 0x1 PUSH1 0x9 DUP5 PUSH1 0x40 MLOAD PUSH2 0x878 SWAP2 SWAP1 PUSH2 0x2F37 JUMP JUMPDEST SWAP1 DUP2 MSTORE PUSH1 0x20 ADD PUSH1 0x40 MLOAD DUP1 SWAP2 SUB SWAP1 KECCAK256 SLOAD PUSH2 0x891 SWAP2 SWAP1 PUSH2 0x2F69 JUMP JUMPDEST DUP2 SLOAD DUP2 LT PUSH2 0x8A1 JUMPI PUSH2 0x8A1 PUSH2 0x2F7C JUMP JUMPDEST PUSH1 0x0 SWAP2 DUP3 MSTORE PUSH1 0x20 SWAP1 SWAP2 KECCAK256 ADD SLOAD SWAP3 SWAP2 POP POP JUMP JUMPDEST PUSH1 0x0 PUSH2 0x8BF DUP2 CALLER PUSH2 0x1173 JUMP JUMPDEST PUSH2 0x8E4 JUMPI PUSH1 0x40 MLOAD PUSH3 0x461BCD PUSH1 0xE5 SHL DUP2 MSTORE PUSH1 0x4 ADD PUSH2 0x8DB SWAP1 PUSH2 0x2F92 JUMP JUMPDEST PUSH1 0x40 MLOAD DUP1 SWAP2 SUB SWAP1 REVERT JUMPDEST PUSH2 0x8EC PUSH2 0x22A9 JUMP JUMPDEST PUSH2 0x8F5 DUP4 PUSH2 0x2058 JUMP JUMPDEST PUSH2 0x911 JUMPI PUSH1 0x40 MLOAD PUSH3 0x461BCD PUSH1 0xE5 SHL DUP2 MSTORE PUSH1 0x4 ADD PUSH2 0x8DB SWAP1 PUSH2 0x2FB5 JUMP JUMPDEST PUSH1 0x0 PUSH1 0x1 PUSH1 0x9 DUP6 PUSH1 0x40 MLOAD PUSH2 0x925 SWAP2 SWAP1 PUSH2 0x2F37 JUMP JUMPDEST SWAP1 DUP2 MSTORE PUSH1 0x20 ADD PUSH1 0x40 MLOAD DUP1 SWAP2 SUB SWAP1 KECCAK256 SLOAD PUSH2 0x93E SWAP2 SWAP1 PUSH2 0x2F69 JUMP JUMPDEST SWAP1 POP PUSH32 0x4B44A0F1F9AD83F48CE1C55D8B93720658C4DBDD91F7C1D3F22612CD6474AB7B DUP5 PUSH1 0xB DUP4 DUP2 SLOAD DUP2 LT PUSH2 0x975 JUMPI PUSH2 0x975 PUSH2 0x2F7C JUMP JUMPDEST SWAP1 PUSH1 0x0 MSTORE PUSH1 0x20 PUSH1 0x0 KECCAK256 ADD PUSH1 0x0 ADD SLOAD DUP6 PUSH1 0x40 MLOAD PUSH2 0x993 SWAP4 SWAP3 SWAP2 SWAP1 PUSH2 0x2FE4 JUMP JUMPDEST PUSH1 0x40 MLOAD DUP1 SWAP2 SUB SWAP1 LOG1 DUP3 PUSH1 0xB DUP3 DUP2 SLOAD DUP2 LT PUSH2 0x9AF JUMPI PUSH2 0x9AF PUSH2 0x2F7C JUMP JUMPDEST PUSH1 0x0 SWAP2 DUP3 MSTORE PUSH1 0x20 SWAP1 SWAP2 KECCAK256 ADD SSTORE POP PUSH1 0x1 SWAP4 SWAP3 POP POP POP JUMP JUMPDEST PUSH1 0x0 DUP3 DUP2 MSTORE PUSH1 0x1 PUSH1 0x20 DUP2 SWAP1 MSTORE PUSH1 0x40 SWAP1 SWAP2 KECCAK256 ADD SLOAD PUSH2 0x9E1 DUP2 PUSH2 0x22EF JUMP JUMPDEST PUSH2 0x9EB DUP4 DUP4 PUSH2 0x22FC JUMP JUMPDEST POP POP POP POP JUMP JUMPDEST DUP2 PUSH2 0xA3E JUMPI PUSH1 0x40 MLOAD PUSH3 0x461BCD PUSH1 0xE5 SHL DUP2 MSTORE PUSH1 0x20 PUSH1 0x4 DUP3 ADD MSTORE PUSH1 0x1B PUSH1 0x24 DUP3 ADD MSTORE PUSH32 0x63616E206E6F742072656E6F756E636520726F6C65206F776E65720000000000 PUSH1 0x44 DUP3 ADD MSTORE PUSH1 0x64 ADD PUSH2 0x8DB JUMP JUMPDEST PUSH1 0x1 PUSH1 0x1 PUSH1 0xA0 SHL SUB DUP2 AND CALLER EQ PUSH2 0xA96 JUMPI PUSH1 0x40 MLOAD PUSH3 0x461BCD PUSH1 0xE5 SHL DUP2 MSTORE PUSH1 0x20 PUSH1 0x4 DUP3 ADD DUP2 SWAP1 MSTORE PUSH1 0x24 DUP3 ADD MSTORE PUSH32 0x63616E206F6E6C792072656E6F756E636520726F6C657320666F722073656C66 PUSH1 0x44 DUP3 ADD MSTORE PUSH1 0x64 ADD PUSH2 0x8DB JUMP JUMPDEST PUSH2 0xAA0 DUP3 DUP3 PUSH2 0x2375 JUMP JUMPDEST POP POP JUMP JUMPDEST PUSH2 0xAAF PUSH1 0x0 CALLER PUSH2 0x1173 JUMP JUMPDEST PUSH2 0xACB JUMPI PUSH1 0x40 MLOAD PUSH3 0x461BCD PUSH1 0xE5 SHL DUP2 MSTORE PUSH1 0x4 ADD PUSH2 0x8DB SWAP1 PUSH2 0x2F92 JUMP JUMPDEST PUSH2 0xAD3 PUSH2 0x23A8 JUMP JUMPDEST JUMP JUMPDEST PUSH1 0x0 PUSH2 0xAE1 DUP2 CALLER PUSH2 0x1173 JUMP JUMPDEST PUSH2 0xAFD JUMPI PUSH1 0x40 MLOAD PUSH3 0x461BCD PUSH1 0xE5 SHL DUP2 MSTORE PUSH1 0x4 ADD PUSH2 0x8DB SWAP1 PUSH2 0x2F92 JUMP JUMPDEST PUSH2 0xB05 PUSH2 0x22A9 JUMP JUMPDEST PUSH1 0x64 DUP3 GT ISZERO PUSH2 0xB48 JUMPI PUSH1 0x40 MLOAD PUSH3 0x461BCD PUSH1 0xE5 SHL DUP2 MSTORE PUSH1 0x20 PUSH1 0x4 DUP3 ADD MSTORE PUSH1 0xF PUSH1 0x24 DUP3 ADD MSTORE PUSH15 0x426967676572207468616E20313025 PUSH1 0x88 SHL PUSH1 0x44 DUP3 ADD MSTORE PUSH1 0x64 ADD PUSH2 0x8DB JUMP JUMPDEST PUSH1 0x5 SLOAD PUSH1 0x40 DUP1 MLOAD SWAP2 DUP3 MSTORE PUSH1 0x20 DUP3 ADD DUP5 SWAP1 MSTORE PUSH32 0x423D9A8A1D4011C45245817AB10CC09937B0786496DAD82DBA18141CA4FB7C8E SWAP2 ADD PUSH1 0x40 MLOAD DUP1 SWAP2 SUB SWAP1 LOG1 POP PUSH1 0x5 DUP2 SWAP1 SSTORE PUSH1 0x1 JUMPDEST SWAP2 SWAP1 POP JUMP JUMPDEST PUSH1 0x0 PUSH2 0xB9E DUP2 CALLER PUSH2 0x1173 JUMP JUMPDEST PUSH2 0xBBA JUMPI PUSH1 0x40 MLOAD PUSH3 0x461BCD PUSH1 0xE5 SHL DUP2 MSTORE PUSH1 0x4 ADD PUSH2 0x8DB SWAP1 PUSH2 0x2F92 JUMP JUMPDEST POP PUSH1 0x4 SSTORE PUSH1 0x1 SWAP1 JUMP JUMPDEST PUSH1 0x0 PUSH2 0xBCF DUP2 CALLER PUSH2 0x1173 JUMP JUMPDEST PUSH2 0xBEB JUMPI PUSH1 0x40 MLOAD PUSH3 0x461BCD PUSH1 0xE5 SHL DUP2 MSTORE PUSH1 0x4 ADD PUSH2 0x8DB SWAP1 PUSH2 0x2F92 JUMP JUMPDEST PUSH2 0xBF3 PUSH2 0x22A9 JUMP JUMPDEST PUSH2 0xC0B PUSH1 0x0 DUP1 MLOAD PUSH1 0x20 PUSH2 0x335A DUP4 CODECOPY DUP2 MLOAD SWAP2 MSTORE DUP4 PUSH2 0x1EFB JUMP JUMPDEST POP PUSH1 0x1 SWAP2 SWAP1 POP JUMP JUMPDEST PUSH1 0x0 PUSH2 0xC2D PUSH1 0x0 DUP1 MLOAD PUSH1 0x20 PUSH2 0x335A DUP4 CODECOPY DUP2 MLOAD SWAP2 MSTORE CALLER PUSH2 0x1173 JUMP JUMPDEST PUSH2 0xC67 JUMPI PUSH1 0x40 MLOAD PUSH3 0x461BCD PUSH1 0xE5 SHL DUP2 MSTORE PUSH1 0x20 PUSH1 0x4 DUP3 ADD MSTORE PUSH1 0xB PUSH1 0x24 DUP3 ADD MSTORE PUSH11 0x3737BA1036B7B734BA37B9 PUSH1 0xA9 SHL PUSH1 0x44 DUP3 ADD MSTORE PUSH1 0x64 ADD PUSH2 0x8DB JUMP JUMPDEST PUSH2 0xC6F PUSH2 0x22A9 JUMP JUMPDEST PUSH1 0x1 PUSH1 0x1 PUSH1 0xA0 SHL SUB DUP9 AND PUSH2 0xCB8 JUMPI PUSH1 0x40 MLOAD PUSH3 0x461BCD PUSH1 0xE5 SHL DUP2 MSTORE PUSH1 0x20 PUSH1 0x4 DUP3 ADD MSTORE PUSH1 0x10 PUSH1 0x24 DUP3 ADD MSTORE PUSH16 0x7265636569766572206973207A65726F PUSH1 0x80 SHL PUSH1 0x44 DUP3 ADD MSTORE PUSH1 0x64 ADD PUSH2 0x8DB JUMP JUMPDEST PUSH1 0x0 DUP8 GT PUSH2 0xCF6 JUMPI PUSH1 0x40 MLOAD PUSH3 0x461BCD PUSH1 0xE5 SHL DUP2 MSTORE PUSH1 0x20 PUSH1 0x4 DUP3 ADD MSTORE PUSH1 0xB PUSH1 0x24 DUP3 ADD MSTORE PUSH11 0x616D6F756E74206973203 PUSH1 0xAC SHL PUSH1 0x44 DUP3 ADD MSTORE PUSH1 0x64 ADD PUSH2 0x8DB JUMP JUMPDEST PUSH2 0xD35 DUP7 DUP7 DUP1 DUP1 PUSH1 0x1F ADD PUSH1 0x20 DUP1 SWAP2 DIV MUL PUSH1 0x20 ADD PUSH1 0x40 MLOAD SWAP1 DUP2 ADD PUSH1 0x40 MSTORE DUP1 SWAP4 SWAP3 SWAP2 SWAP1 DUP2 DUP2 MSTORE PUSH1 0x20 ADD DUP4 DUP4 DUP1 DUP3 DUP5 CALLDATACOPY PUSH1 0x0 SWAP3 ADD SWAP2 SWAP1 SWAP2 MSTORE POP PUSH2 0x1CD6 SWAP3 POP POP POP JUMP JUMPDEST PUSH2 0xD81 JUMPI PUSH1 0x40 MLOAD PUSH3 0x461BCD PUSH1 0xE5 SHL DUP2 MSTORE PUSH1 0x20 PUSH1 0x4 DUP3 ADD MSTORE PUSH1 0x19 PUSH1 0x24 DUP3 ADD MSTORE PUSH32 0x66726F6D426C6F636B636861696E206E6F742065786973747300000000000000 PUSH1 0x44 DUP3 ADD MSTORE PUSH1 0x64 ADD PUSH2 0x8DB JUMP JUMPDEST DUP4 PUSH2 0xDC2 JUMPI PUSH1 0x40 MLOAD PUSH3 0x461BCD PUSH1 0xE5 SHL DUP2 MSTORE PUSH1 0x20 PUSH1 0x4 DUP3 ADD MSTORE PUSH1 0x11 PUSH1 0x24 DUP3 ADD MSTORE PUSH17 0x189B1BD8DAD2185CDA081A5CC81B9D5B1B PUSH1 0x7A SHL PUSH1 0x44 DUP3 ADD MSTORE PUSH1 0x64 ADD PUSH2 0x8DB JUMP JUMPDEST DUP3 PUSH2 0xE0F JUMPI PUSH1 0x40 MLOAD PUSH3 0x461BCD PUSH1 0xE5 SHL DUP2 MSTORE PUSH1 0x20 PUSH1 0x4 DUP3 ADD MSTORE PUSH1 0x17 PUSH1 0x24 DUP3 ADD MSTORE PUSH32 0x7472616E73616374696F6E48617368206973206E756C6C000000000000000000 PUSH1 0x44 DUP3 ADD MSTORE PUSH1 0x64 ADD PUSH2 0x8DB JUMP JUMPDEST PUSH2 0xE1C DUP5 DUP5 DUP11 DUP11 DUP7 PUSH2 0x23FA JUMP JUMPDEST PUSH2 0xE26 DUP9 DUP9 PUSH2 0x2477 JUMP JUMPDEST POP PUSH1 0x1 SWAP9 SWAP8 POP POP POP POP POP POP POP POP JUMP JUMPDEST PUSH1 0x2 SLOAD PUSH1 0x0 SWAP1 PUSH2 0x100 SWAP1 DIV PUSH1 0x1 PUSH1 0x1 PUSH1 0xA0 SHL SUB AND ISZERO PUSH2 0xEC3 JUMPI PUSH1 0x2 SLOAD PUSH1 0x40 MLOAD PUSH4 0x70A08231 PUSH1 0xE0 SHL DUP2 MSTORE ADDRESS PUSH1 0x4 DUP3 ADD MSTORE PUSH2 0x100 SWAP1 SWAP2 DIV PUSH1 0x1 PUSH1 0x1 PUSH1 0xA0 SHL SUB AND SWAP1 PUSH4 0x70A08231 SWAP1 PUSH1 0x24 ADD PUSH1 0x20 PUSH1 0x40 MLOAD DUP1 DUP4 SUB DUP2 DUP7 GAS STATICCALL ISZERO DUP1 ISZERO PUSH2 0xE9A JUMPI RETURNDATASIZE PUSH1 0x0 DUP1 RETURNDATACOPY RETURNDATASIZE PUSH1 0x0 REVERT JUMPDEST POP POP POP POP PUSH1 0x40 MLOAD RETURNDATASIZE PUSH1 0x1F NOT PUSH1 0x1F DUP3 ADD AND DUP3 ADD DUP1 PUSH1 0x40 MSTORE POP DUP2 ADD SWAP1 PUSH2 0xEBE SWAP2 SWAP1 PUSH2 0x3009 JUMP JUMPDEST SWAP1 POP SWAP1 JUMP JUMPDEST POP SELFBALANCE SWAP1 JUMP JUMPDEST PUSH2 0xED3 PUSH1 0x0 CALLER PUSH2 0x1173 JUMP JUMPDEST PUSH2 0xEEF JUMPI PUSH1 0x40 MLOAD PUSH3 0x461BCD PUSH1 0xE5 SHL DUP2 MSTORE PUSH1 0x4 ADD PUSH2 0x8DB SWAP1 PUSH2 0x2F92 JUMP JUMPDEST PUSH2 0xAD3 PUSH2 0x259B JUMP JUMPDEST PUSH1 0x0 PUSH2 0xF03 DUP2 CALLER PUSH2 0x1173 JUMP JUMPDEST PUSH2 0xF1F JUMPI PUSH1 0x40 MLOAD PUSH3 0x461BCD PUSH1 0xE5 SHL DUP2 MSTORE PUSH1 0x4 ADD PUSH2 0x8DB SWAP1 PUSH2 0x2F92 JUMP JUMPDEST PUSH2 0xF27 PUSH2 0x22A9 JUMP JUMPDEST PUSH2 0xF30 DUP3 PUSH2 0x2058 JUMP JUMPDEST PUSH2 0xF4C JUMPI PUSH1 0x40 MLOAD PUSH3 0x461BCD PUSH1 0xE5 SHL DUP2 MSTORE PUSH1 0x4 ADD PUSH2 0x8DB SWAP1 PUSH2 0x2FB5 JUMP JUMPDEST PUSH1 0x0 PUSH1 0x1 PUSH1 0x9 DUP5 PUSH1 0x40 MLOAD PUSH2 0xF60 SWAP2 SWAP1 PUSH2 0x2F37 JUMP JUMPDEST SWAP1 DUP2 MSTORE PUSH1 0x20 ADD PUSH1 0x40 MLOAD DUP1 SWAP2 SUB SWAP1 KECCAK256 SLOAD PUSH2 0xF79 SWAP2 SWAP1 PUSH2 0x2F69 JUMP JUMPDEST PUSH1 0xB SLOAD SWAP1 SWAP2 POP PUSH1 0x0 SWAP1 PUSH2 0xF8E SWAP1 PUSH1 0x1 SWAP1 PUSH2 0x2F69 JUMP JUMPDEST SWAP1 POP PUSH1 0x0 PUSH1 0xD DUP3 DUP2 SLOAD DUP2 LT PUSH2 0xFA5 JUMPI PUSH2 0xFA5 PUSH2 0x2F7C JUMP JUMPDEST SWAP1 PUSH1 0x0 MSTORE PUSH1 0x20 PUSH1 0x0 KECCAK256 ADD DUP1 SLOAD PUSH2 0xFBA SWAP1 PUSH2 0x2EFD JUMP JUMPDEST DUP1 PUSH1 0x1F ADD PUSH1 0x20 DUP1 SWAP2 DIV MUL PUSH1 0x20 ADD PUSH1 0x40 MLOAD SWAP1 DUP2 ADD PUSH1 0x40 MSTORE DUP1 SWAP3 SWAP2 SWAP1 DUP2 DUP2 MSTORE PUSH1 0x20 ADD DUP3 DUP1 SLOAD PUSH2 0xFE6 SWAP1 PUSH2 0x2EFD JUMP JUMPDEST DUP1 ISZERO PUSH2 0x1033 JUMPI DUP1 PUSH1 0x1F LT PUSH2 0x1008 JUMPI PUSH2 0x100 DUP1 DUP4 SLOAD DIV MUL DUP4 MSTORE SWAP2 PUSH1 0x20 ADD SWAP2 PUSH2 0x1033 JUMP JUMPDEST DUP3 ADD SWAP2 SWAP1 PUSH1 0x0 MSTORE PUSH1 0x20 PUSH1 0x0 KECCAK256 SWAP1 JUMPDEST DUP2 SLOAD DUP2 MSTORE SWAP1 PUSH1 0x1 ADD SWAP1 PUSH1 0x20 ADD DUP1 DUP4 GT PUSH2 0x1016 JUMPI DUP3 SWAP1 SUB PUSH1 0x1F AND DUP3 ADD SWAP2 JUMPDEST POP POP POP POP POP SWAP1 POP PUSH1 0xB DUP3 DUP2 SLOAD DUP2 LT PUSH2 0x104D JUMPI PUSH2 0x104D PUSH2 0x2F7C JUMP JUMPDEST SWAP1 PUSH1 0x0 MSTORE PUSH1 0x20 PUSH1 0x0 KECCAK256 ADD PUSH1 0xB DUP5 DUP2 SLOAD DUP2 LT PUSH2 0x106A JUMPI PUSH2 0x106A PUSH2 0x2F7C JUMP JUMPDEST PUSH1 0x0 SWAP2 DUP3 MSTORE PUSH1 0x20 SWAP1 SWAP2 KECCAK256 SWAP2 SLOAD SWAP2 ADD SSTORE PUSH1 0xD DUP1 SLOAD DUP4 SWAP1 DUP2 LT PUSH2 0x108D JUMPI PUSH2 0x108D PUSH2 0x2F7C JUMP JUMPDEST SWAP1 PUSH1 0x0 MSTORE PUSH1 0x20 PUSH1 0x0 KECCAK256 ADD PUSH1 0xD DUP5 DUP2 SLOAD DUP2 LT PUSH2 0x10AA JUMPI PUSH2 0x10AA PUSH2 0x2F7C JUMP JUMPDEST SWAP1 PUSH1 0x0 MSTORE PUSH1 0x20 PUSH1 0x0 KECCAK256 ADD SWAP1 DUP2 PUSH2 0x10C0 SWAP2 SWAP1 PUSH2 0x3070 JUMP JUMPDEST POP PUSH2 0x10CC DUP4 PUSH1 0x1 PUSH2 0x3150 JUMP JUMPDEST PUSH1 0x9 DUP3 PUSH1 0x40 MLOAD PUSH2 0x10DC SWAP2 SWAP1 PUSH2 0x2F37 JUMP JUMPDEST SWAP1 DUP2 MSTORE PUSH1 0x20 ADD PUSH1 0x40 MLOAD DUP1 SWAP2 SUB SWAP1 KECCAK256 DUP2 SWAP1 SSTORE POP PUSH1 0x9 DUP6 PUSH1 0x40 MLOAD PUSH2 0x10FE SWAP2 SWAP1 PUSH2 0x2F37 JUMP JUMPDEST SWAP1 DUP2 MSTORE PUSH1 0x20 ADD PUSH1 0x40 MLOAD DUP1 SWAP2 SUB SWAP1 KECCAK256 PUSH1 0x0 SWAP1 SSTORE PUSH1 0xB DUP1 SLOAD DUP1 PUSH2 0x1121 JUMPI PUSH2 0x1121 PUSH2 0x3163 JUMP JUMPDEST PUSH1 0x0 DUP3 DUP2 MSTORE PUSH1 0x20 DUP2 KECCAK256 DUP3 ADD PUSH1 0x0 NOT SWAP1 DUP2 ADD SWAP2 SWAP1 SWAP2 SSTORE ADD SWAP1 SSTORE PUSH1 0xD DUP1 SLOAD DUP1 PUSH2 0x114A JUMPI PUSH2 0x114A PUSH2 0x3163 JUMP JUMPDEST PUSH1 0x1 SWAP1 SUB DUP2 DUP2 SWAP1 PUSH1 0x0 MSTORE PUSH1 0x20 PUSH1 0x0 KECCAK256 ADD PUSH1 0x0 PUSH2 0x1166 SWAP2 SWAP1 PUSH2 0x2A0F JUMP JUMPDEST SWAP1 SSTORE POP PUSH1 0x1 SWAP5 SWAP4 POP POP POP POP JUMP JUMPDEST PUSH1 0x0 SWAP2 DUP3 MSTORE PUSH1 0x1 PUSH1 0x20 SWAP1 DUP2 MSTORE PUSH1 0x40 DUP1 DUP5 KECCAK256 PUSH1 0x1 PUSH1 0x1 PUSH1 0xA0 SHL SUB SWAP4 SWAP1 SWAP4 AND DUP5 MSTORE SWAP2 SWAP1 MSTORE SWAP1 KECCAK256 SLOAD PUSH1 0xFF AND SWAP1 JUMP JUMPDEST PUSH1 0x0 PUSH2 0x11AA DUP2 CALLER PUSH2 0x1173 JUMP JUMPDEST PUSH2 0x11C6 JUMPI PUSH1 0x40 MLOAD PUSH3 0x461BCD PUSH1 0xE5 SHL DUP2 MSTORE PUSH1 0x4 ADD PUSH2 0x8DB SWAP1 PUSH2 0x2F92 JUMP JUMPDEST PUSH2 0x11CE PUSH2 0x22A9 JUMP JUMPDEST PUSH2 0x11D7 DUP4 PUSH2 0x2058 JUMP JUMPDEST ISZERO PUSH2 0x1218 JUMPI PUSH1 0x40 MLOAD PUSH3 0x461BCD PUSH1 0xE5 SHL DUP2 MSTORE PUSH1 0x20 PUSH1 0x4 DUP3 ADD MSTORE PUSH1 0x11 PUSH1 0x24 DUP3 ADD MSTORE PUSH17 0x626C6F636B636861696E20657869737473 PUSH1 0x78 SHL PUSH1 0x44 DUP3 ADD MSTORE PUSH1 0x64 ADD PUSH2 0x8DB JUMP JUMPDEST PUSH1 0x40 DUP1 MLOAD PUSH1 0x20 DUP2 ADD SWAP1 SWAP2 MSTORE DUP3 DUP2 MSTORE PUSH1 0xB DUP1 SLOAD PUSH1 0x1 DUP1 DUP3 ADD DUP4 SSTORE PUSH1 0x0 SWAP3 DUP4 MSTORE DUP4 MLOAD PUSH32 0x175B7A638427703F0DBE7BB9BBF987A2551717B34E79F33B5B1008D1FA01DB9 SWAP1 SWAP3 ADD SWAP2 SWAP1 SWAP2 SSTORE PUSH1 0xD DUP1 SLOAD SWAP2 DUP3 ADD DUP2 SSTORE SWAP1 SWAP2 MSTORE PUSH32 0xD7B6990105719101DABEB77144F2A3385C8033ACD3AF97E9423A695E81AD1EB5 ADD PUSH2 0x1298 DUP6 DUP3 PUSH2 0x3179 JUMP JUMPDEST POP PUSH1 0xB SLOAD PUSH1 0x40 MLOAD DUP2 SWAP1 PUSH1 0x9 SWAP1 PUSH2 0x12AF SWAP1 DUP9 SWAP1 PUSH2 0x2F37 JUMP JUMPDEST SWAP1 DUP2 MSTORE PUSH1 0x40 MLOAD SWAP1 DUP2 SWAP1 SUB PUSH1 0x20 ADD SWAP1 KECCAK256 SSTORE SWAP2 POP POP SWAP3 SWAP2 POP POP JUMP JUMPDEST PUSH1 0x0 CALLER ORIGIN EQ PUSH2 0x130D JUMPI PUSH1 0x40 MLOAD PUSH3 0x461BCD PUSH1 0xE5 SHL DUP2 MSTORE PUSH1 0x20 PUSH1 0x4 DUP3 ADD MSTORE PUSH1 0x11 PUSH1 0x24 DUP3 ADD MSTORE PUSH17 0x43616C6C6572206973206E6F7420454F41 PUSH1 0x78 SHL PUSH1 0x44 DUP3 ADD MSTORE PUSH1 0x64 ADD PUSH2 0x8DB JUMP JUMPDEST PUSH2 0x1315 PUSH2 0x22A9 JUMP JUMPDEST PUSH2 0x1354 DUP6 DUP6 DUP1 DUP1 PUSH1 0x1F ADD PUSH1 0x20 DUP1 SWAP2 DIV MUL PUSH1 0x20 ADD PUSH1 0x40 MLOAD SWAP1 DUP2 ADD PUSH1 0x40 MSTORE DUP1 SWAP4 SWAP3 SWAP2 SWAP1 DUP2 DUP2 MSTORE PUSH1 0x20 ADD DUP4 DUP4 DUP1 DUP3 DUP5 CALLDATACOPY PUSH1 0x0 SWAP3 ADD SWAP2 SWAP1 SWAP2 MSTORE POP PUSH2 0x2058 SWAP3 POP POP POP JUMP JUMPDEST PUSH2 0x13A0 JUMPI PUSH1 0x40 MLOAD PUSH3 0x461BCD PUSH1 0xE5 SHL DUP2 MSTORE PUSH1 0x20 PUSH1 0x4 DUP3 ADD MSTORE PUSH1 0x17 PUSH1 0x24 DUP3 ADD MSTORE PUSH32 0x746F426C6F636B636861696E206E6F7420657869737473000000000000000000 PUSH1 0x44 DUP3 ADD MSTORE PUSH1 0x64 ADD PUSH2 0x8DB JUMP JUMPDEST PUSH2 0x13ED DUP4 DUP4 DUP1 DUP1 PUSH1 0x1F ADD PUSH1 0x20 DUP1 SWAP2 DIV MUL PUSH1 0x20 ADD PUSH1 0x40 MLOAD SWAP1 DUP2 ADD PUSH1 0x40 MSTORE DUP1 SWAP4 SWAP3 SWAP2 SWAP1 DUP2 DUP2 MSTORE PUSH1 0x20 ADD DUP4 DUP4 DUP1 DUP3 DUP5 CALLDATACOPY PUSH1 0x0 SWAP3 ADD DUP3 SWAP1 MSTORE POP PUSH1 0x40 DUP1 MLOAD PUSH1 0x20 DUP2 ADD SWAP1 SWAP2 MSTORE SWAP1 DUP2 MSTORE SWAP3 POP PUSH2 0x25D8 SWAP2 POP POP JUMP JUMPDEST ISZERO PUSH2 0x142E JUMPI PUSH1 0x40 MLOAD PUSH3 0x461BCD PUSH1 0xE5 SHL DUP2 MSTORE PUSH1 0x20 PUSH1 0x4 DUP3 ADD MSTORE PUSH1 0x11 PUSH1 0x24 DUP3 ADD MSTORE PUSH17 0x1D1BD059191C995CDCC81A5CC81B9D5B1B PUSH1 0x7A SHL PUSH1 0x44 DUP3 ADD MSTORE PUSH1 0x64 ADD PUSH2 0x8DB JUMP JUMPDEST PUSH1 0x0 PUSH1 0x1 PUSH1 0x9 DUP8 DUP8 PUSH1 0x40 MLOAD PUSH2 0x1444 SWAP3 SWAP2 SWAP1 PUSH2 0x3230 JUMP JUMPDEST SWAP1 DUP2 MSTORE PUSH1 0x20 ADD PUSH1 0x40 MLOAD DUP1 SWAP2 SUB SWAP1 KECCAK256 SLOAD PUSH2 0x145D SWAP2 SWAP1 PUSH2 0x2F69 JUMP JUMPDEST SWAP1 POP PUSH1 0x0 DUP8 GT PUSH2 0x149D JUMPI PUSH1 0x40 MLOAD PUSH3 0x461BCD PUSH1 0xE5 SHL DUP2 MSTORE PUSH1 0x20 PUSH1 0x4 DUP3 ADD MSTORE PUSH1 0xB PUSH1 0x24 DUP3 ADD MSTORE PUSH11 0x616D6F756E74206973203 PUSH1 0xAC SHL PUSH1 0x44 DUP3 ADD MSTORE PUSH1 0x64 ADD PUSH2 0x8DB JUMP JUMPDEST PUSH1 0xB DUP2 DUP2 SLOAD DUP2 LT PUSH2 0x14B0 JUMPI PUSH2 0x14B0 PUSH2 0x2F7C JUMP JUMPDEST SWAP1 PUSH1 0x0 MSTORE PUSH1 0x20 PUSH1 0x0 KECCAK256 ADD PUSH1 0x0 ADD SLOAD DUP8 LT ISZERO PUSH2 0x150D JUMPI PUSH1 0x40 MLOAD PUSH3 0x461BCD PUSH1 0xE5 SHL DUP2 MSTORE PUSH1 0x20 PUSH1 0x4 DUP3 ADD MSTORE PUSH1 0x1B PUSH1 0x24 DUP3 ADD MSTORE PUSH32 0x616D6F756E74206973206C657373207468616E206D696E696D756D0000000000 PUSH1 0x44 DUP3 ADD MSTORE PUSH1 0x64 ADD PUSH2 0x8DB JUMP JUMPDEST PUSH1 0x2A DUP4 EQ PUSH2 0x155D JUMPI PUSH1 0x40 MLOAD PUSH3 0x461BCD PUSH1 0xE5 SHL DUP2 MSTORE PUSH1 0x20 PUSH1 0x4 DUP3 ADD MSTORE PUSH1 0x1B PUSH1 0x24 DUP3 ADD MSTORE PUSH32 0x696E76616C69642064657374696E6174696F6E20616464726573730000000000 PUSH1 0x44 DUP3 ADD MSTORE PUSH1 0x64 ADD PUSH2 0x8DB JUMP JUMPDEST PUSH1 0x4 SLOAD CALLVALUE LT ISZERO PUSH2 0x15AF JUMPI PUSH1 0x40 MLOAD PUSH3 0x461BCD PUSH1 0xE5 SHL DUP2 MSTORE PUSH1 0x20 PUSH1 0x4 DUP3 ADD MSTORE PUSH1 0x1A PUSH1 0x24 DUP3 ADD MSTORE PUSH32 0x496E76616C696420666565206E6174697665206272696467652E000000000000 PUSH1 0x44 DUP3 ADD MSTORE PUSH1 0x64 ADD PUSH2 0x8DB JUMP JUMPDEST PUSH1 0x2 SLOAD PUSH2 0x100 SWAP1 DIV PUSH1 0x1 PUSH1 0x1 PUSH1 0xA0 SHL SUB AND PUSH2 0x161F JUMPI PUSH1 0x4 SLOAD PUSH2 0x15D1 SWAP1 DUP9 PUSH2 0x3150 JUMP JUMPDEST CALLVALUE EQ PUSH2 0x161F JUMPI PUSH1 0x40 MLOAD PUSH3 0x461BCD PUSH1 0xE5 SHL DUP2 MSTORE PUSH1 0x20 PUSH1 0x4 DUP3 ADD MSTORE PUSH1 0x1F PUSH1 0x24 DUP3 ADD MSTORE PUSH32 0x72657175697265643A20666565206E6174697665206E6F7420656E6F75676800 PUSH1 0x44 DUP3 ADD MSTORE PUSH1 0x64 ADD PUSH2 0x8DB JUMP JUMPDEST PUSH1 0x0 PUSH2 0x3E8 PUSH1 0x5 SLOAD DUP10 PUSH2 0x1632 SWAP2 SWAP1 PUSH2 0x3240 JUMP JUMPDEST PUSH2 0x163C SWAP2 SWAP1 PUSH2 0x3257 JUMP JUMPDEST SWAP1 POP PUSH1 0x0 PUSH2 0x164A DUP3 DUP11 PUSH2 0x2F69 JUMP JUMPDEST SWAP1 POP DUP2 PUSH1 0x3 PUSH1 0x0 DUP3 DUP3 SLOAD PUSH2 0x165E SWAP2 SWAP1 PUSH2 0x3150 JUMP JUMPDEST SWAP1 SWAP2 SSTORE POP POP PUSH1 0x6 SLOAD PUSH1 0x4 SLOAD PUSH1 0x1 PUSH1 0x1 PUSH1 0xA0 SHL SUB SWAP1 SWAP2 AND SWAP1 ISZERO PUSH2 0x1691 JUMPI PUSH1 0x4 SLOAD PUSH2 0x1691 SWAP1 PUSH1 0x1 PUSH1 0x1 PUSH1 0xA0 SHL SUB DUP4 AND SWAP1 PUSH2 0x2631 JUMP JUMPDEST PUSH1 0x2 SLOAD PUSH2 0x100 SWAP1 DIV PUSH1 0x1 PUSH1 0x1 PUSH1 0xA0 SHL SUB AND ISZERO PUSH2 0x170F JUMPI PUSH2 0x16C4 CALLER PUSH1 0x2 SLOAD PUSH2 0x100 SWAP1 DIV PUSH1 0x1 PUSH1 0x1 PUSH1 0xA0 SHL SUB AND SWAP1 ADDRESS DUP6 PUSH2 0x26C8 JUMP JUMPDEST PUSH2 0x16E7 CALLER PUSH1 0x6 SLOAD PUSH1 0x2 SLOAD PUSH2 0x100 SWAP1 DIV PUSH1 0x1 PUSH1 0x1 PUSH1 0xA0 SHL SUB SWAP1 DUP2 AND SWAP3 SWAP2 AND DUP7 PUSH2 0x26C8 JUMP JUMPDEST PUSH1 0x0 PUSH1 0x4 SLOAD CALLVALUE PUSH2 0x16F7 SWAP2 SWAP1 PUSH2 0x2F69 JUMP JUMPDEST SWAP1 POP DUP1 ISZERO PUSH2 0x1709 JUMPI PUSH2 0x1709 CALLER DUP3 PUSH2 0x2631 JUMP JUMPDEST POP PUSH2 0x1762 JUMP JUMPDEST DUP3 ISZERO PUSH2 0x1728 JUMPI PUSH2 0x1728 PUSH1 0x1 PUSH1 0x1 PUSH1 0xA0 SHL SUB DUP3 AND DUP5 PUSH2 0x2631 JUMP JUMPDEST ADDRESS PUSH2 0x1733 DUP2 DUP5 PUSH2 0x2631 JUMP JUMPDEST PUSH1 0x0 DUP4 PUSH1 0x4 SLOAD PUSH2 0x1743 SWAP2 SWAP1 PUSH2 0x3150 JUMP JUMPDEST PUSH2 0x174D SWAP1 CALLVALUE PUSH2 0x2F69 JUMP JUMPDEST SWAP1 POP DUP1 ISZERO PUSH2 0x175F JUMPI PUSH2 0x175F CALLER DUP3 PUSH2 0x2631 JUMP JUMPDEST POP POP JUMPDEST PUSH32 0x4B07D21301CC34286797EAC5A16D2F1C0131FCF7B2051B24457F8D9A0949479D CALLER DUP4 DUP10 DUP10 DUP14 DUP14 PUSH1 0x40 MLOAD PUSH2 0x179B SWAP7 SWAP6 SWAP5 SWAP4 SWAP3 SWAP2 SWAP1 PUSH2 0x32A2 JUMP JUMPDEST PUSH1 0x40 MLOAD DUP1 SWAP2 SUB SWAP1 LOG1 POP PUSH1 0x1 SWAP10 SWAP9 POP POP POP POP POP POP POP POP POP JUMP JUMPDEST PUSH1 0x60 PUSH1 0xC DUP1 SLOAD DUP1 PUSH1 0x20 MUL PUSH1 0x20 ADD PUSH1 0x40 MLOAD SWAP1 DUP2 ADD PUSH1 0x40 MSTORE DUP1 SWAP3 SWAP2 SWAP1 DUP2 DUP2 MSTORE PUSH1 0x20 ADD PUSH1 0x0 SWAP1 JUMPDEST DUP3 DUP3 LT ISZERO PUSH2 0x1883 JUMPI DUP4 DUP3 SWAP1 PUSH1 0x0 MSTORE PUSH1 0x20 PUSH1 0x0 KECCAK256 ADD DUP1 SLOAD PUSH2 0x17F6 SWAP1 PUSH2 0x2EFD JUMP JUMPDEST DUP1 PUSH1 0x1F ADD PUSH1 0x20 DUP1 SWAP2 DIV MUL PUSH1 0x20 ADD PUSH1 0x40 MLOAD SWAP1 DUP2 ADD PUSH1 0x40 MSTORE DUP1 SWAP3 SWAP2 SWAP1 DUP2 DUP2 MSTORE PUSH1 0x20 ADD DUP3 DUP1 SLOAD PUSH2 0x1822 SWAP1 PUSH2 0x2EFD JUMP JUMPDEST DUP1 ISZERO PUSH2 0x186F JUMPI DUP1 PUSH1 0x1F LT PUSH2 0x1844 JUMPI PUSH2 0x100 DUP1 DUP4 SLOAD DIV MUL DUP4 MSTORE SWAP2 PUSH1 0x20 ADD SWAP2 PUSH2 0x186F JUMP JUMPDEST DUP3 ADD SWAP2 SWAP1 PUSH1 0x0 MSTORE PUSH1 0x20 PUSH1 0x0 KECCAK256 SWAP1 JUMPDEST DUP2 SLOAD DUP2 MSTORE SWAP1 PUSH1 0x1 ADD SWAP1 PUSH1 0x20 ADD DUP1 DUP4 GT PUSH2 0x1852 JUMPI DUP3 SWAP1 SUB PUSH1 0x1F AND DUP3 ADD SWAP2 JUMPDEST POP POP POP POP POP DUP2 MSTORE PUSH1 0x20 ADD SWAP1 PUSH1 0x1 ADD SWAP1 PUSH2 0x17D7 JUMP JUMPDEST POP POP POP POP SWAP1 POP SWAP1 JUMP JUMPDEST PUSH1 0x0 PUSH2 0x1898 DUP2 CALLER PUSH2 0x1173 JUMP JUMPDEST PUSH2 0x18B4 JUMPI PUSH1 0x40 MLOAD PUSH3 0x461BCD PUSH1 0xE5 SHL DUP2 MSTORE PUSH1 0x4 ADD PUSH2 0x8DB SWAP1 PUSH2 0x2F92 JUMP JUMPDEST PUSH2 0x18BC PUSH2 0x22A9 JUMP JUMPDEST PUSH2 0xC0B PUSH1 0x0 DUP1 MLOAD PUSH1 0x20 PUSH2 0x335A DUP4 CODECOPY DUP2 MLOAD SWAP2 MSTORE DUP4 PUSH2 0x9C5 JUMP JUMPDEST PUSH1 0x0 PUSH2 0x18E0 DUP2 CALLER PUSH2 0x1173 JUMP JUMPDEST PUSH2 0x18FC JUMPI PUSH1 0x40 MLOAD PUSH3 0x461BCD PUSH1 0xE5 SHL DUP2 MSTORE PUSH1 0x4 ADD PUSH2 0x8DB SWAP1 PUSH2 0x2F92 JUMP JUMPDEST PUSH2 0x1904 PUSH2 0x22A9 JUMP JUMPDEST PUSH2 0x190D DUP3 PUSH2 0x1CD6 JUMP JUMPDEST PUSH2 0x1929 JUMPI PUSH1 0x40 MLOAD PUSH3 0x461BCD PUSH1 0xE5 SHL DUP2 MSTORE PUSH1 0x4 ADD PUSH2 0x8DB SWAP1 PUSH2 0x2FB5 JUMP JUMPDEST PUSH1 0x0 PUSH1 0x1 PUSH1 0x8 DUP5 PUSH1 0x40 MLOAD PUSH2 0x193D SWAP2 SWAP1 PUSH2 0x2F37 JUMP JUMPDEST SWAP1 DUP2 MSTORE PUSH1 0x20 ADD PUSH1 0x40 MLOAD DUP1 SWAP2 SUB SWAP1 KECCAK256 SLOAD PUSH2 0x1956 SWAP2 SWAP1 PUSH2 0x2F69 JUMP JUMPDEST PUSH1 0xA SLOAD SWAP1 SWAP2 POP PUSH1 0x0 SWAP1 PUSH2 0x196B SWAP1 PUSH1 0x1 SWAP1 PUSH2 0x2F69 JUMP JUMPDEST SWAP1 POP PUSH1 0x0 PUSH1 0xC DUP3 DUP2 SLOAD DUP2 LT PUSH2 0x1982 JUMPI PUSH2 0x1982 PUSH2 0x2F7C JUMP JUMPDEST SWAP1 PUSH1 0x0 MSTORE PUSH1 0x20 PUSH1 0x0 KECCAK256 ADD DUP1 SLOAD PUSH2 0x1997 SWAP1 PUSH2 0x2EFD JUMP JUMPDEST DUP1 PUSH1 0x1F ADD PUSH1 0x20 DUP1 SWAP2 DIV MUL PUSH1 0x20 ADD PUSH1 0x40 MLOAD SWAP1 DUP2 ADD PUSH1 0x40 MSTORE DUP1 SWAP3 SWAP2 SWAP1 DUP2 DUP2 MSTORE PUSH1 0x20 ADD DUP3 DUP1 SLOAD PUSH2 0x19C3 SWAP1 PUSH2 0x2EFD JUMP JUMPDEST DUP1 ISZERO PUSH2 0x1A10 JUMPI DUP1 PUSH1 0x1F LT PUSH2 0x19E5 JUMPI PUSH2 0x100 DUP1 DUP4 SLOAD DIV MUL DUP4 MSTORE SWAP2 PUSH1 0x20 ADD SWAP2 PUSH2 0x1A10 JUMP JUMPDEST DUP3 ADD SWAP2 SWAP1 PUSH1 0x0 MSTORE PUSH1 0x20 PUSH1 0x0 KECCAK256 SWAP1 JUMPDEST DUP2 SLOAD DUP2 MSTORE SWAP1 PUSH1 0x1 ADD SWAP1 PUSH1 0x20 ADD DUP1 DUP4 GT PUSH2 0x19F3 JUMPI DUP3 SWAP1 SUB PUSH1 0x1F AND DUP3 ADD SWAP2 JUMPDEST POP POP POP POP POP SWAP1 POP PUSH1 0xA DUP3 DUP2 SLOAD DUP2 LT PUSH2 0x1A2A JUMPI PUSH2 0x1A2A PUSH2 0x2F7C JUMP JUMPDEST SWAP1 PUSH1 0x0 MSTORE PUSH1 0x20 PUSH1 0x0 KECCAK256 ADD PUSH1 0xA DUP5 DUP2 SLOAD DUP2 LT PUSH2 0x1A47 JUMPI PUSH2 0x1A47 PUSH2 0x2F7C JUMP JUMPDEST PUSH1 0x0 SWAP2 DUP3 MSTORE PUSH1 0x20 SWAP1 SWAP2 KECCAK256 SWAP2 SLOAD SWAP2 ADD SSTORE PUSH1 0xC DUP1 SLOAD DUP4 SWAP1 DUP2 LT PUSH2 0x1A6A JUMPI PUSH2 0x1A6A PUSH2 0x2F7C JUMP JUMPDEST SWAP1 PUSH1 0x0 MSTORE PUSH1 0x20 PUSH1 0x0 KECCAK256 ADD PUSH1 0xC DUP5 DUP2 SLOAD DUP2 LT PUSH2 0x1A87 JUMPI PUSH2 0x1A87 PUSH2 0x2F7C JUMP JUMPDEST SWAP1 PUSH1 0x0 MSTORE PUSH1 0x20 PUSH1 0x0 KECCAK256 ADD SWAP1 DUP2 PUSH2 0x1A9D SWAP2 SWAP1 PUSH2 0x3070 JUMP JUMPDEST POP PUSH2 0x1AA9 DUP4 PUSH1 0x1 PUSH2 0x3150 JUMP JUMPDEST PUSH1 0x8 DUP3 PUSH1 0x40 MLOAD PUSH2 0x1AB9 SWAP2 SWAP1 PUSH2 0x2F37 JUMP JUMPDEST SWAP1 DUP2 MSTORE PUSH1 0x20 ADD PUSH1 0x40 MLOAD DUP1 SWAP2 SUB SWAP1 KECCAK256 DUP2 SWAP1 SSTORE POP PUSH1 0x8 DUP6 PUSH1 0x40 MLOAD PUSH2 0x1ADB SWAP2 SWAP1 PUSH2 0x2F37 JUMP JUMPDEST SWAP1 DUP2 MSTORE PUSH1 0x20 ADD PUSH1 0x40 MLOAD DUP1 SWAP2 SUB SWAP1 KECCAK256 PUSH1 0x0 SWAP1 SSTORE PUSH1 0xA DUP1 SLOAD DUP1 PUSH2 0x1AFE JUMPI PUSH2 0x1AFE PUSH2 0x3163 JUMP JUMPDEST PUSH1 0x0 DUP3 DUP2 MSTORE PUSH1 0x20 DUP2 KECCAK256 DUP3 ADD PUSH1 0x0 NOT SWAP1 DUP2 ADD SWAP2 SWAP1 SWAP2 SSTORE ADD SWAP1 SSTORE PUSH1 0xC DUP1 SLOAD DUP1 PUSH2 0x114A JUMPI PUSH2 0x114A PUSH2 0x3163 JUMP JUMPDEST PUSH1 0x0 PUSH2 0x1B33 DUP2 CALLER PUSH2 0x1173 JUMP JUMPDEST PUSH2 0x1B4F JUMPI PUSH1 0x40 MLOAD PUSH3 0x461BCD PUSH1 0xE5 SHL DUP2 MSTORE PUSH1 0x4 ADD PUSH2 0x8DB SWAP1 PUSH2 0x2F92 JUMP JUMPDEST PUSH1 0x1 PUSH1 0x1 PUSH1 0xA0 SHL SUB DUP3 AND PUSH2 0x1B98 JUMPI PUSH1 0x40 MLOAD PUSH3 0x461BCD PUSH1 0xE5 SHL DUP2 MSTORE PUSH1 0x20 PUSH1 0x4 DUP3 ADD MSTORE PUSH1 0x10 PUSH1 0x24 DUP3 ADD MSTORE PUSH16 0x7265636569766572206973207A65726F PUSH1 0x80 SHL PUSH1 0x44 DUP3 ADD MSTORE PUSH1 0x64 ADD PUSH2 0x8DB JUMP JUMPDEST PUSH1 0x2 SLOAD PUSH2 0x100 SWAP1 DIV PUSH1 0x1 PUSH1 0x1 PUSH1 0xA0 SHL SUB AND ISZERO PUSH2 0x1C87 JUMPI PUSH1 0x2 SLOAD PUSH1 0x40 MLOAD PUSH4 0x70A08231 PUSH1 0xE0 SHL DUP2 MSTORE ADDRESS PUSH1 0x4 DUP3 ADD MSTORE PUSH2 0x100 SWAP1 SWAP2 DIV PUSH1 0x1 PUSH1 0x1 PUSH1 0xA0 SHL SUB AND SWAP1 PUSH4 0x70A08231 SWAP1 PUSH1 0x24 ADD PUSH1 0x20 PUSH1 0x40 MLOAD DUP1 DUP4 SUB DUP2 DUP7 GAS STATICCALL ISZERO DUP1 ISZERO PUSH2 0x1BFA JUMPI RETURNDATASIZE PUSH1 0x0 DUP1 RETURNDATACOPY RETURNDATASIZE PUSH1 0x0 REVERT JUMPDEST POP POP POP POP PUSH1 0x40 MLOAD RETURNDATASIZE PUSH1 0x1F NOT PUSH1 0x1F DUP3 ADD AND DUP3 ADD DUP1 PUSH1 0x40 MSTORE POP DUP2 ADD SWAP1 PUSH2 0x1C1E SWAP2 SWAP1 PUSH2 0x3009 JUMP JUMPDEST DUP4 GT ISZERO PUSH2 0x1C63 JUMPI PUSH1 0x40 MLOAD PUSH3 0x461BCD PUSH1 0xE5 SHL DUP2 MSTORE PUSH1 0x20 PUSH1 0x4 DUP3 ADD MSTORE PUSH1 0x13 PUSH1 0x24 DUP3 ADD MSTORE PUSH19 0x696E737566696369656E742062616C616E6365 PUSH1 0x68 SHL PUSH1 0x44 DUP3 ADD MSTORE PUSH1 0x64 ADD PUSH2 0x8DB JUMP JUMPDEST PUSH1 0x2 SLOAD PUSH2 0x1C7F SWAP1 PUSH2 0x100 SWAP1 DIV PUSH1 0x1 PUSH1 0x1 PUSH1 0xA0 SHL SUB AND DUP4 DUP6 PUSH2 0x272F JUMP JUMPDEST POP PUSH1 0x1 PUSH2 0x7B0 JUMP JUMPDEST DUP3 SELFBALANCE LT ISZERO PUSH2 0x1CA7 JUMPI PUSH1 0x40 MLOAD PUSH3 0x461BCD PUSH1 0xE5 SHL DUP2 MSTORE PUSH1 0x4 ADD PUSH2 0x8DB SWAP1 PUSH2 0x32EA JUMP JUMPDEST DUP2 PUSH2 0x1CBB PUSH1 0x1 PUSH1 0x1 PUSH1 0xA0 SHL SUB DUP3 AND DUP6 PUSH2 0x2631 JUMP JUMPDEST POP JUMPDEST POP PUSH1 0x1 SWAP3 SWAP2 POP POP JUMP JUMPDEST PUSH1 0xD DUP2 DUP2 SLOAD DUP2 LT PUSH2 0x7C6 JUMPI PUSH1 0x0 DUP1 REVERT JUMPDEST PUSH1 0x0 PUSH1 0x8 DUP3 PUSH1 0x40 MLOAD PUSH2 0x1CE8 SWAP2 SWAP1 PUSH2 0x2F37 JUMP JUMPDEST SWAP1 DUP2 MSTORE PUSH1 0x20 ADD PUSH1 0x40 MLOAD DUP1 SWAP2 SUB SWAP1 KECCAK256 SLOAD PUSH1 0x0 SUB PUSH2 0xC0B JUMPI POP PUSH1 0x0 SWAP2 SWAP1 POP JUMP JUMPDEST PUSH1 0x2 SLOAD PUSH2 0x100 SWAP1 DIV PUSH1 0x1 PUSH1 0x1 PUSH1 0xA0 SHL SUB AND ISZERO PUSH2 0x1D54 JUMPI PUSH1 0x40 MLOAD PUSH3 0x461BCD PUSH1 0xE5 SHL DUP2 MSTORE PUSH1 0x20 PUSH1 0x4 DUP3 ADD MSTORE PUSH1 0xD PUSH1 0x24 DUP3 ADD MSTORE PUSH13 0x2737BA1039B2BA103A37B5B2B7 PUSH1 0x99 SHL PUSH1 0x44 DUP3 ADD MSTORE PUSH1 0x64 ADD PUSH2 0x8DB JUMP JUMPDEST PUSH1 0x6 SLOAD PUSH1 0x1 PUSH1 0x1 PUSH1 0xA0 SHL SUB AND ISZERO PUSH2 0x1DA4 JUMPI PUSH1 0x40 MLOAD PUSH3 0x461BCD PUSH1 0xE5 SHL DUP2 MSTORE PUSH1 0x20 PUSH1 0x4 DUP3 ADD MSTORE PUSH1 0x14 PUSH1 0x24 DUP3 ADD MSTORE PUSH20 0x139BDD081CD95D081BDDDB995C881DD85B1B195D PUSH1 0x62 SHL PUSH1 0x44 DUP3 ADD MSTORE PUSH1 0x64 ADD PUSH2 0x8DB JUMP JUMPDEST PUSH1 0x4 SLOAD ISZERO PUSH2 0x1DF4 JUMPI PUSH1 0x40 MLOAD PUSH3 0x461BCD PUSH1 0xE5 SHL DUP2 MSTORE PUSH1 0x20 PUSH1 0x4 DUP3 ADD MSTORE PUSH1 0x1A PUSH1 0x24 DUP3 ADD MSTORE PUSH32 0x4E6F74207365742061646D696E2064656661756C7420726F6C65000000000000 PUSH1 0x44 DUP3 ADD MSTORE PUSH1 0x64 ADD PUSH2 0x8DB JUMP JUMPDEST PUSH1 0x5 SLOAD ISZERO PUSH2 0x1E44 JUMPI PUSH1 0x40 MLOAD PUSH3 0x461BCD PUSH1 0xE5 SHL DUP2 MSTORE PUSH1 0x20 PUSH1 0x4 DUP3 ADD MSTORE PUSH1 0x1A PUSH1 0x24 DUP3 ADD MSTORE PUSH32 0x4E6F74207365742061646D696E2064656661756C7420726F6C65000000000000 PUSH1 0x44 DUP3 ADD MSTORE PUSH1 0x64 ADD PUSH2 0x8DB JUMP JUMPDEST PUSH1 0x64 DUP2 GT ISZERO PUSH2 0x1E89 JUMPI PUSH1 0x40 MLOAD PUSH3 0x461BCD PUSH1 0xE5 SHL DUP2 MSTORE PUSH1 0x20 PUSH1 0x4 DUP3 ADD MSTORE PUSH1 0x11 PUSH1 0x24 DUP3 ADD MSTORE PUSH17 0x4665652070657263656E74203E20313025 PUSH1 0x78 SHL PUSH1 0x44 DUP3 ADD MSTORE PUSH1 0x64 ADD PUSH2 0x8DB JUMP JUMPDEST PUSH1 0x2 DUP1 SLOAD PUSH2 0x100 PUSH1 0x1 PUSH1 0xA8 SHL SUB NOT AND PUSH2 0x100 PUSH1 0x1 PUSH1 0x1 PUSH1 0xA0 SHL SUB DUP9 DUP2 AND SWAP2 SWAP1 SWAP2 MUL SWAP2 SWAP1 SWAP2 OR SWAP1 SWAP2 SSTORE PUSH1 0x6 DUP1 SLOAD PUSH1 0x1 PUSH1 0x1 PUSH1 0xA0 SHL SUB NOT AND SWAP2 DUP7 AND SWAP2 SWAP1 SWAP2 OR SWAP1 SSTORE PUSH2 0x1ED3 PUSH1 0x0 DUP6 PUSH2 0x22FC JUMP JUMPDEST POP PUSH2 0x1EEC PUSH1 0x0 DUP1 MLOAD PUSH1 0x20 PUSH2 0x335A DUP4 CODECOPY DUP2 MLOAD SWAP2 MSTORE DUP5 PUSH2 0x22FC JUMP JUMPDEST POP PUSH1 0x4 SWAP2 SWAP1 SWAP2 SSTORE PUSH1 0x5 SSTORE POP POP POP JUMP JUMPDEST PUSH1 0x0 DUP3 DUP2 MSTORE PUSH1 0x1 PUSH1 0x20 DUP2 SWAP1 MSTORE PUSH1 0x40 SWAP1 SWAP2 KECCAK256 ADD SLOAD PUSH2 0x1F17 DUP2 PUSH2 0x22EF JUMP JUMPDEST PUSH2 0x1F21 DUP4 DUP4 PUSH2 0x2760 JUMP JUMPDEST POP POP POP JUMP JUMPDEST PUSH1 0x40 DUP1 MLOAD PUSH1 0x20 DUP1 DUP3 ADD SWAP8 SWAP1 SWAP8 MSTORE DUP1 DUP3 ADD SWAP6 SWAP1 SWAP6 MSTORE PUSH1 0x60 SWAP4 DUP5 SHL PUSH12 0xFFFFFFFFFFFFFFFFFFFFFFFF NOT AND SWAP4 DUP6 ADD SWAP4 SWAP1 SWAP4 MSTORE PUSH1 0x74 DUP5 ADD SWAP2 SWAP1 SWAP2 MSTORE PUSH1 0xE0 SHL PUSH1 0x1 PUSH1 0x1 PUSH1 0xE0 SHL SUB NOT AND PUSH1 0x94 DUP4 ADD MSTORE DUP1 MLOAD DUP1 DUP4 SUB PUSH1 0x78 ADD DUP2 MSTORE PUSH1 0x98 SWAP1 SWAP3 ADD SWAP1 MSTORE DUP1 MLOAD SWAP2 ADD KECCAK256 SWAP1 JUMP JUMPDEST PUSH1 0x60 PUSH1 0xD DUP1 SLOAD DUP1 PUSH1 0x20 MUL PUSH1 0x20 ADD PUSH1 0x40 MLOAD SWAP1 DUP2 ADD PUSH1 0x40 MSTORE DUP1 SWAP3 SWAP2 SWAP1 DUP2 DUP2 MSTORE PUSH1 0x20 ADD PUSH1 0x0 SWAP1 JUMPDEST DUP3 DUP3 LT ISZERO PUSH2 0x1883 JUMPI DUP4 DUP3 SWAP1 PUSH1 0x0 MSTORE PUSH1 0x20 PUSH1 0x0 KECCAK256 ADD DUP1 SLOAD PUSH2 0x1FCB SWAP1 PUSH2 0x2EFD JUMP JUMPDEST DUP1 PUSH1 0x1F ADD PUSH1 0x20 DUP1 SWAP2 DIV MUL PUSH1 0x20 ADD PUSH1 0x40 MLOAD SWAP1 DUP2 ADD PUSH1 0x40 MSTORE DUP1 SWAP3 SWAP2 SWAP1 DUP2 DUP2 MSTORE PUSH1 0x20 ADD DUP3 DUP1 SLOAD PUSH2 0x1FF7 SWAP1 PUSH2 0x2EFD JUMP JUMPDEST DUP1 ISZERO PUSH2 0x2044 JUMPI DUP1 PUSH1 0x1F LT PUSH2 0x2019 JUMPI PUSH2 0x100 DUP1 DUP4 SLOAD DIV MUL DUP4 MSTORE SWAP2 PUSH1 0x20 ADD SWAP2 PUSH2 0x2044 JUMP JUMPDEST DUP3 ADD SWAP2 SWAP1 PUSH1 0x0 MSTORE PUSH1 0x20 PUSH1 0x0 KECCAK256 SWAP1 JUMPDEST DUP2 SLOAD DUP2 MSTORE SWAP1 PUSH1 0x1 ADD SWAP1 PUSH1 0x20 ADD DUP1 DUP4 GT PUSH2 0x2027 JUMPI DUP3 SWAP1 SUB PUSH1 0x1F AND DUP3 ADD SWAP2 JUMPDEST POP POP POP POP POP DUP2 MSTORE PUSH1 0x20 ADD SWAP1 PUSH1 0x1 ADD SWAP1 PUSH2 0x1FAC JUMP JUMPDEST PUSH1 0x0 PUSH1 0x9 DUP3 PUSH1 0x40 MLOAD PUSH2 0x1CE8 SWAP2 SWAP1 PUSH2 0x2F37 JUMP JUMPDEST PUSH1 0x0 PUSH2 0x2076 DUP2 CALLER PUSH2 0x1173 JUMP JUMPDEST PUSH2 0x2092 JUMPI PUSH1 0x40 MLOAD PUSH3 0x461BCD PUSH1 0xE5 SHL DUP2 MSTORE PUSH1 0x4 ADD PUSH2 0x8DB SWAP1 PUSH2 0x2F92 JUMP JUMPDEST PUSH2 0x209A PUSH2 0x22A9 JUMP JUMPDEST PUSH2 0x20A3 DUP3 PUSH2 0x1CD6 JUMP JUMPDEST ISZERO PUSH2 0x20E4 JUMPI PUSH1 0x40 MLOAD PUSH3 0x461BCD PUSH1 0xE5 SHL DUP2 MSTORE PUSH1 0x20 PUSH1 0x4 DUP3 ADD MSTORE PUSH1 0x11 PUSH1 0x24 DUP3 ADD MSTORE PUSH17 0x426C6F636B636861696E20657869737473 PUSH1 0x78 SHL PUSH1 0x44 DUP3 ADD MSTORE PUSH1 0x64 ADD PUSH2 0x8DB JUMP JUMPDEST PUSH1 0x40 DUP1 MLOAD PUSH1 0x20 DUP2 ADD SWAP1 SWAP2 MSTORE PUSH1 0x0 DUP1 DUP3 MSTORE PUSH1 0xA DUP1 SLOAD PUSH1 0x1 DUP1 DUP3 ADD DUP4 SSTORE SWAP2 DUP4 MSTORE DUP4 MLOAD PUSH32 0xC65A7BB8D6351C1CF70C95A316CC6A92839C986682D98BC35F958F4883F9D2A8 SWAP1 SWAP2 ADD SSTORE PUSH1 0xC DUP1 SLOAD SWAP2 DUP3 ADD DUP2 SSTORE SWAP1 SWAP2 MSTORE PUSH32 0xDF6966C971051C3D54EC59162606531493A51404A002842F56009D7E5CF4A8C7 ADD PUSH2 0x2161 DUP5 DUP3 PUSH2 0x3179 JUMP JUMPDEST POP PUSH1 0xA SLOAD PUSH1 0x40 MLOAD DUP2 SWAP1 PUSH1 0x8 SWAP1 PUSH2 0x2178 SWAP1 DUP8 SWAP1 PUSH2 0x2F37 JUMP JUMPDEST SWAP1 DUP2 MSTORE PUSH1 0x40 MLOAD SWAP1 DUP2 SWAP1 SUB PUSH1 0x20 ADD SWAP1 KECCAK256 SSTORE SWAP2 POP POP SWAP2 SWAP1 POP JUMP JUMPDEST PUSH1 0x0 PUSH2 0x219C DUP2 CALLER PUSH2 0x1173 JUMP JUMPDEST PUSH2 0x21B8 JUMPI PUSH1 0x40 MLOAD PUSH3 0x461BCD PUSH1 0xE5 SHL DUP2 MSTORE PUSH1 0x4 ADD PUSH2 0x8DB SWAP1 PUSH2 0x2F92 JUMP JUMPDEST PUSH2 0x21C0 PUSH2 0x22A9 JUMP JUMPDEST PUSH1 0x6 DUP1 SLOAD PUSH1 0x1 PUSH1 0x1 PUSH1 0xA0 SHL SUB NOT AND PUSH1 0x1 PUSH1 0x1 PUSH1 0xA0 SHL SUB DUP5 AND OR SWAP1 SSTORE CALLER PUSH1 0x1 PUSH1 0x1 PUSH1 0xA0 SHL SUB AND DUP3 PUSH1 0x1 PUSH1 0x1 PUSH1 0xA0 SHL SUB AND SUB PUSH2 0x223C JUMPI PUSH1 0x40 MLOAD PUSH3 0x461BCD PUSH1 0xE5 SHL DUP2 MSTORE PUSH1 0x20 PUSH1 0x4 DUP3 ADD MSTORE PUSH1 0x1E PUSH1 0x24 DUP3 ADD MSTORE PUSH32 0x6E65774F776E65722063616E206E6F74206265206D73672E73656E6465720000 PUSH1 0x44 DUP3 ADD MSTORE PUSH1 0x64 ADD PUSH2 0x8DB JUMP JUMPDEST PUSH1 0x1 PUSH1 0x1 PUSH1 0xA0 SHL SUB DUP3 AND PUSH2 0x2292 JUMPI PUSH1 0x40 MLOAD PUSH3 0x461BCD PUSH1 0xE5 SHL DUP2 MSTORE PUSH1 0x20 PUSH1 0x4 DUP3 ADD MSTORE PUSH1 0x18 PUSH1 0x24 DUP3 ADD MSTORE PUSH32 0x6E65774F776E65722063616E206E6F74206265207A65726F0000000000000000 PUSH1 0x44 DUP3 ADD MSTORE PUSH1 0x64 ADD PUSH2 0x8DB JUMP JUMPDEST PUSH2 0x229D PUSH1 0x0 DUP4 PUSH2 0x22FC JUMP JUMPDEST POP PUSH2 0xC0B PUSH1 0x0 CALLER PUSH2 0x1EFB JUMP JUMPDEST PUSH1 0x2 SLOAD PUSH1 0xFF AND ISZERO PUSH2 0xAD3 JUMPI PUSH1 0x40 MLOAD PUSH3 0x461BCD PUSH1 0xE5 SHL DUP2 MSTORE PUSH1 0x20 PUSH1 0x4 DUP3 ADD MSTORE PUSH1 0x10 PUSH1 0x24 DUP3 ADD MSTORE PUSH16 0x14185D5CD8589B194E881C185D5CD959 PUSH1 0x82 SHL PUSH1 0x44 DUP3 ADD MSTORE PUSH1 0x64 ADD PUSH2 0x8DB JUMP JUMPDEST PUSH2 0x22F9 DUP2 CALLER PUSH2 0x2786 JUMP JUMPDEST POP JUMP JUMPDEST PUSH1 0x0 PUSH2 0x2308 DUP4 DUP4 PUSH2 0x1173 JUMP JUMPDEST PUSH2 0x236D JUMPI PUSH1 0x0 DUP4 DUP2 MSTORE PUSH1 0x1 PUSH1 0x20 DUP2 DUP2 MSTORE PUSH1 0x40 DUP1 DUP5 KECCAK256 PUSH1 0x1 PUSH1 0x1 PUSH1 0xA0 SHL SUB DUP8 AND DUP1 DUP7 MSTORE SWAP3 MSTORE DUP1 DUP5 KECCAK256 DUP1 SLOAD PUSH1 0xFF NOT AND SWAP1 SWAP4 OR SWAP1 SWAP3 SSTORE SWAP1 MLOAD CALLER SWAP3 DUP7 SWAP2 PUSH32 0x2F8788117E7EFF1D82E926EC794901D17C78024A50270940304540A733656F0D SWAP2 SWAP1 LOG4 POP PUSH1 0x1 PUSH2 0x7B0 JUMP JUMPDEST POP PUSH1 0x0 PUSH2 0x7B0 JUMP JUMPDEST PUSH1 0x1 PUSH1 0x1 PUSH1 0xA0 SHL SUB DUP2 AND CALLER EQ PUSH2 0x239E JUMPI PUSH1 0x40 MLOAD PUSH4 0x334BD919 PUSH1 0xE1 SHL DUP2 MSTORE PUSH1 0x4 ADD PUSH1 0x40 MLOAD DUP1 SWAP2 SUB SWAP1 REVERT JUMPDEST PUSH2 0x1F21 DUP3 DUP3 PUSH2 0x27BF JUMP JUMPDEST PUSH2 0x23B0 PUSH2 0x282C JUMP JUMPDEST PUSH1 0x2 DUP1 SLOAD PUSH1 0xFF NOT AND SWAP1 SSTORE PUSH32 0x5DB9EE0A495BF2E6FF9C91A7834C1BA4FDD244A5E8AA4E537BD38AEAE4B073AA CALLER JUMPDEST PUSH1 0x40 MLOAD PUSH1 0x1 PUSH1 0x1 PUSH1 0xA0 SHL SUB SWAP1 SWAP2 AND DUP2 MSTORE PUSH1 0x20 ADD PUSH1 0x40 MLOAD DUP1 SWAP2 SUB SWAP1 LOG1 JUMP JUMPDEST PUSH1 0x0 PUSH2 0x2409 DUP7 DUP7 DUP7 DUP7 DUP7 PUSH2 0x1F26 JUMP JUMPDEST PUSH1 0x0 DUP2 DUP2 MSTORE PUSH1 0x7 PUSH1 0x20 MSTORE PUSH1 0x40 SWAP1 KECCAK256 SLOAD SWAP1 SWAP2 POP PUSH1 0xFF AND ISZERO PUSH2 0x2457 JUMPI PUSH1 0x40 MLOAD PUSH3 0x461BCD PUSH1 0xE5 SHL DUP2 MSTORE PUSH1 0x20 PUSH1 0x4 DUP3 ADD MSTORE PUSH1 0x9 PUSH1 0x24 DUP3 ADD MSTORE PUSH9 0x1C1C9BD8D95CDCD959 PUSH1 0xBA SHL PUSH1 0x44 DUP3 ADD MSTORE PUSH1 0x64 ADD PUSH2 0x8DB JUMP JUMPDEST PUSH1 0x0 SWAP1 DUP2 MSTORE PUSH1 0x7 PUSH1 0x20 MSTORE PUSH1 0x40 SWAP1 KECCAK256 DUP1 SLOAD PUSH1 0xFF NOT AND PUSH1 0x1 OR SWAP1 SSTORE POP POP POP POP POP JUMP JUMPDEST PUSH1 0x2 SLOAD PUSH1 0x0 SWAP1 PUSH2 0x100 SWAP1 DIV PUSH1 0x1 PUSH1 0x1 PUSH1 0xA0 SHL SUB AND PUSH2 0x24C9 JUMPI DUP2 SELFBALANCE LT ISZERO PUSH2 0x24AF JUMPI PUSH1 0x40 MLOAD PUSH3 0x461BCD PUSH1 0xE5 SHL DUP2 MSTORE PUSH1 0x4 ADD PUSH2 0x8DB SWAP1 PUSH2 0x32EA JUMP JUMPDEST DUP3 PUSH2 0x24C3 PUSH1 0x1 PUSH1 0x1 PUSH1 0xA0 SHL SUB DUP3 AND DUP5 PUSH2 0x2631 JUMP JUMPDEST POP PUSH2 0x1CBD JUMP JUMPDEST PUSH1 0x2 SLOAD PUSH1 0x40 MLOAD PUSH4 0x70A08231 PUSH1 0xE0 SHL DUP2 MSTORE ADDRESS PUSH1 0x4 DUP3 ADD MSTORE DUP4 SWAP2 PUSH2 0x100 SWAP1 DIV PUSH1 0x1 PUSH1 0x1 PUSH1 0xA0 SHL SUB AND SWAP1 PUSH4 0x70A08231 SWAP1 PUSH1 0x24 ADD PUSH1 0x20 PUSH1 0x40 MLOAD DUP1 DUP4 SUB DUP2 DUP7 GAS STATICCALL ISZERO DUP1 ISZERO PUSH2 0x2516 JUMPI RETURNDATASIZE PUSH1 0x0 DUP1 RETURNDATACOPY RETURNDATASIZE PUSH1 0x0 REVERT JUMPDEST POP POP POP POP PUSH1 0x40 MLOAD RETURNDATASIZE PUSH1 0x1F NOT PUSH1 0x1F DUP3 ADD AND DUP3 ADD DUP1 PUSH1 0x40 MSTORE POP DUP2 ADD SWAP1 PUSH2 0x253A SWAP2 SWAP1 PUSH2 0x3009 JUMP JUMPDEST LT ISZERO PUSH2 0x257F JUMPI PUSH1 0x40 MLOAD PUSH3 0x461BCD PUSH1 0xE5 SHL DUP2 MSTORE PUSH1 0x20 PUSH1 0x4 DUP3 ADD MSTORE PUSH1 0x14 PUSH1 0x24 DUP3 ADD MSTORE PUSH20 0x696E73756666696369656E742062616C616E6365 PUSH1 0x60 SHL PUSH1 0x44 DUP3 ADD MSTORE PUSH1 0x64 ADD PUSH2 0x8DB JUMP JUMPDEST PUSH1 0x2 SLOAD PUSH2 0x1CBD SWAP1 PUSH2 0x100 SWAP1 DIV PUSH1 0x1 PUSH1 0x1 PUSH1 0xA0 SHL SUB AND DUP5 DUP5 PUSH2 0x272F JUMP JUMPDEST PUSH2 0x25A3 PUSH2 0x22A9 JUMP JUMPDEST PUSH1 0x2 DUP1 SLOAD PUSH1 0xFF NOT AND PUSH1 0x1 OR SWAP1 SSTORE PUSH32 0x62E78CEA01BEE320CD4E420270B5EA74000D11B0C9F74754EBDBFC544B05A258 PUSH2 0x23DD CALLER SWAP1 JUMP JUMPDEST PUSH1 0x0 DUP2 PUSH1 0x40 MLOAD PUSH1 0x20 ADD PUSH2 0x25EB SWAP2 SWAP1 PUSH2 0x2F37 JUMP JUMPDEST PUSH1 0x40 MLOAD PUSH1 0x20 DUP2 DUP4 SUB SUB DUP2 MSTORE SWAP1 PUSH1 0x40 MSTORE DUP1 MLOAD SWAP1 PUSH1 0x20 ADD KECCAK256 DUP4 PUSH1 0x40 MLOAD PUSH1 0x20 ADD PUSH2 0x2612 SWAP2 SWAP1 PUSH2 0x2F37 JUMP JUMPDEST PUSH1 0x40 MLOAD PUSH1 0x20 DUP2 DUP4 SUB SUB DUP2 MSTORE SWAP1 PUSH1 0x40 MSTORE DUP1 MLOAD SWAP1 PUSH1 0x20 ADD KECCAK256 EQ SWAP1 POP SWAP3 SWAP2 POP POP JUMP JUMPDEST DUP1 SELFBALANCE LT ISZERO PUSH2 0x2654 JUMPI PUSH1 0x40 MLOAD PUSH4 0xCD786059 PUSH1 0xE0 SHL DUP2 MSTORE ADDRESS PUSH1 0x4 DUP3 ADD MSTORE PUSH1 0x24 ADD PUSH2 0x8DB JUMP JUMPDEST PUSH1 0x0 DUP3 PUSH1 0x1 PUSH1 0x1 PUSH1 0xA0 SHL SUB AND DUP3 PUSH1 0x40 MLOAD PUSH1 0x0 PUSH1 0x40 MLOAD DUP1 DUP4 SUB DUP2 DUP6 DUP8 GAS CALL SWAP3 POP POP POP RETURNDATASIZE DUP1 PUSH1 0x0 DUP2 EQ PUSH2 0x26A1 JUMPI PUSH1 0x40 MLOAD SWAP2 POP PUSH1 0x1F NOT PUSH1 0x3F RETURNDATASIZE ADD AND DUP3 ADD PUSH1 0x40 MSTORE RETURNDATASIZE DUP3 MSTORE RETURNDATASIZE PUSH1 0x0 PUSH1 0x20 DUP5 ADD RETURNDATACOPY PUSH2 0x26A6 JUMP JUMPDEST PUSH1 0x60 SWAP2 POP JUMPDEST POP POP SWAP1 POP DUP1 PUSH2 0x1F21 JUMPI PUSH1 0x40 MLOAD PUSH4 0xA12F521 PUSH1 0xE1 SHL DUP2 MSTORE PUSH1 0x4 ADD PUSH1 0x40 MLOAD DUP1 SWAP2 SUB SWAP1 REVERT JUMPDEST PUSH1 0x40 MLOAD PUSH1 0x1 PUSH1 0x1 PUSH1 0xA0 SHL SUB DUP5 DUP2 AND PUSH1 0x24 DUP4 ADD MSTORE DUP4 DUP2 AND PUSH1 0x44 DUP4 ADD MSTORE PUSH1 0x64 DUP3 ADD DUP4 SWAP1 MSTORE PUSH2 0x9EB SWAP2 DUP7 SWAP2 DUP3 AND SWAP1 PUSH4 0x23B872DD SWAP1 PUSH1 0x84 ADD JUMPDEST PUSH1 0x40 MLOAD PUSH1 0x20 DUP2 DUP4 SUB SUB DUP2 MSTORE SWAP1 PUSH1 0x40 MSTORE SWAP2 POP PUSH1 0xE0 SHL PUSH1 0x20 DUP3 ADD DUP1 MLOAD PUSH1 0x1 PUSH1 0x1 PUSH1 0xE0 SHL SUB DUP4 DUP2 DUP4 AND OR DUP4 MSTORE POP POP POP POP PUSH2 0x2875 JUMP JUMPDEST PUSH1 0x40 MLOAD PUSH1 0x1 PUSH1 0x1 PUSH1 0xA0 SHL SUB DUP4 DUP2 AND PUSH1 0x24 DUP4 ADD MSTORE PUSH1 0x44 DUP3 ADD DUP4 SWAP1 MSTORE PUSH2 0x1F21 SWAP2 DUP6 SWAP2 DUP3 AND SWAP1 PUSH4 0xA9059CBB SWAP1 PUSH1 0x64 ADD PUSH2 0x26FD JUMP JUMPDEST PUSH1 0x0 DUP3 DUP2 MSTORE PUSH1 0x1 PUSH1 0x20 DUP2 SWAP1 MSTORE PUSH1 0x40 SWAP1 SWAP2 KECCAK256 ADD SLOAD PUSH2 0x277C DUP2 PUSH2 0x22EF JUMP JUMPDEST PUSH2 0x9EB DUP4 DUP4 PUSH2 0x27BF JUMP JUMPDEST PUSH2 0x2790 DUP3 DUP3 PUSH2 0x1173 JUMP JUMPDEST PUSH2 0xAA0 JUMPI PUSH1 0x40 MLOAD PUSH4 0xE2517D3F PUSH1 0xE0 SHL DUP2 MSTORE PUSH1 0x1 PUSH1 0x1 PUSH1 0xA0 SHL SUB DUP3 AND PUSH1 0x4 DUP3 ADD MSTORE PUSH1 0x24 DUP2 ADD DUP4 SWAP1 MSTORE PUSH1 0x44 ADD PUSH2 0x8DB JUMP JUMPDEST PUSH1 0x0 PUSH2 0x27CB DUP4 DUP4 PUSH2 0x1173 JUMP JUMPDEST ISZERO PUSH2 0x236D JUMPI PUSH1 0x0 DUP4 DUP2 MSTORE PUSH1 0x1 PUSH1 0x20 SWAP1 DUP2 MSTORE PUSH1 0x40 DUP1 DUP4 KECCAK256 PUSH1 0x1 PUSH1 0x1 PUSH1 0xA0 SHL SUB DUP7 AND DUP1 DUP6 MSTORE SWAP3 MSTORE DUP1 DUP4 KECCAK256 DUP1 SLOAD PUSH1 0xFF NOT AND SWAP1 SSTORE MLOAD CALLER SWAP3 DUP7 SWAP2 PUSH32 0xF6391F5C32D9C69D2A47EA670B442974B53935D1EDC7FD64EB21E047A839171B SWAP2 SWAP1 LOG4 POP PUSH1 0x1 PUSH2 0x7B0 JUMP JUMPDEST PUSH1 0x2 SLOAD PUSH1 0xFF AND PUSH2 0xAD3 JUMPI PUSH1 0x40 MLOAD PUSH3 0x461BCD PUSH1 0xE5 SHL DUP2 MSTORE PUSH1 0x20 PUSH1 0x4 DUP3 ADD MSTORE PUSH1 0x14 PUSH1 0x24 DUP3 ADD MSTORE PUSH20 0x14185D5CD8589B194E881B9BDD081C185D5CD959 PUSH1 0x62 SHL PUSH1 0x44 DUP3 ADD MSTORE PUSH1 0x64 ADD PUSH2 0x8DB JUMP JUMPDEST PUSH1 0x0 PUSH2 0x288A PUSH1 0x1 PUSH1 0x1 PUSH1 0xA0 SHL SUB DUP5 AND DUP4 PUSH2 0x28D8 JUMP JUMPDEST SWAP1 POP DUP1 MLOAD PUSH1 0x0 EQ ISZERO DUP1 ISZERO PUSH2 0x28AF JUMPI POP DUP1 DUP1 PUSH1 0x20 ADD SWAP1 MLOAD DUP2 ADD SWAP1 PUSH2 0x28AD SWAP2 SWAP1 PUSH2 0x3337 JUMP JUMPDEST ISZERO JUMPDEST ISZERO PUSH2 0x1F21 JUMPI PUSH1 0x40 MLOAD PUSH4 0x5274AFE7 PUSH1 0xE0 SHL DUP2 MSTORE PUSH1 0x1 PUSH1 0x1 PUSH1 0xA0 SHL SUB DUP5 AND PUSH1 0x4 DUP3 ADD MSTORE PUSH1 0x24 ADD PUSH2 0x8DB JUMP JUMPDEST PUSH1 0x60 PUSH2 0x28E6 DUP4 DUP4 PUSH1 0x0 PUSH2 0x28ED JUMP JUMPDEST SWAP4 SWAP3 POP POP POP JUMP JUMPDEST PUSH1 0x60 DUP2 SELFBALANCE LT ISZERO PUSH2 0x2912 JUMPI PUSH1 0x40 MLOAD PUSH4 0xCD786059 PUSH1 0xE0 SHL DUP2 MSTORE ADDRESS PUSH1 0x4 DUP3 ADD MSTORE PUSH1 0x24 ADD PUSH2 0x8DB JUMP JUMPDEST PUSH1 0x0 DUP1 DUP6 PUSH1 0x1 PUSH1 0x1 PUSH1 0xA0 SHL SUB AND DUP5 DUP7 PUSH1 0x40 MLOAD PUSH2 0x292E SWAP2 SWAP1 PUSH2 0x2F37 JUMP JUMPDEST PUSH1 0x0 PUSH1 0x40 MLOAD DUP1 DUP4 SUB DUP2 DUP6 DUP8 GAS CALL SWAP3 POP POP POP RETURNDATASIZE DUP1 PUSH1 0x0 DUP2 EQ PUSH2 0x296B JUMPI PUSH1 0x40 MLOAD SWAP2 POP PUSH1 0x1F NOT PUSH1 0x3F RETURNDATASIZE ADD AND DUP3 ADD PUSH1 0x40 MSTORE RETURNDATASIZE DUP3 MSTORE RETURNDATASIZE PUSH1 0x0 PUSH1 0x20 DUP5 ADD RETURNDATACOPY PUSH2 0x2970 JUMP JUMPDEST PUSH1 0x60 SWAP2 POP JUMPDEST POP SWAP2 POP SWAP2 POP PUSH2 0x2980 DUP7 DUP4 DUP4 PUSH2 0x298A JUMP JUMPDEST SWAP7 SWAP6 POP POP POP POP POP POP JUMP JUMPDEST PUSH1 0x60 DUP3 PUSH2 0x299F JUMPI PUSH2 0x299A DUP3 PUSH2 0x29E6 JUMP JUMPDEST PUSH2 0x28E6 JUMP JUMPDEST DUP2 MLOAD ISZERO DUP1 ISZERO PUSH2 0x29B6 JUMPI POP PUSH1 0x1 PUSH1 0x1 PUSH1 0xA0 SHL SUB DUP5 AND EXTCODESIZE ISZERO JUMPDEST ISZERO PUSH2 0x29DF JUMPI PUSH1 0x40 MLOAD PUSH4 0x9996B315 PUSH1 0xE0 SHL DUP2 MSTORE PUSH1 0x1 PUSH1 0x1 PUSH1 0xA0 SHL SUB DUP6 AND PUSH1 0x4 DUP3 ADD MSTORE PUSH1 0x24 ADD PUSH2 0x8DB JUMP JUMPDEST POP DUP1 PUSH2 0x28E6 JUMP JUMPDEST DUP1 MLOAD ISZERO PUSH2 0x29F6 JUMPI DUP1 MLOAD DUP1 DUP3 PUSH1 0x20 ADD REVERT JUMPDEST PUSH1 0x40 MLOAD PUSH4 0xA12F521 PUSH1 0xE1 SHL DUP2 MSTORE PUSH1 0x4 ADD PUSH1 0x40 MLOAD DUP1 SWAP2 SUB SWAP1 REVERT JUMPDEST POP DUP1 SLOAD PUSH2 0x2A1B SWAP1 PUSH2 0x2EFD JUMP JUMPDEST PUSH1 0x0 DUP3 SSTORE DUP1 PUSH1 0x1F LT PUSH2 0x2A2B JUMPI POP POP JUMP JUMPDEST PUSH1 0x1F ADD PUSH1 0x20 SWAP1 DIV SWAP1 PUSH1 0x0 MSTORE PUSH1 0x20 PUSH1 0x0 KECCAK256 SWAP1 DUP2 ADD SWAP1 PUSH2 0x22F9 SWAP2 SWAP1 JUMPDEST DUP1 DUP3 GT ISZERO PUSH2 0x2A59 JUMPI PUSH1 0x0 DUP2 SSTORE PUSH1 0x1 ADD PUSH2 0x2A45 JUMP JUMPDEST POP SWAP1 JUMP JUMPDEST PUSH1 0x0 PUSH1 0x20 DUP3 DUP5 SUB SLT ISZERO PUSH2 0x2A6F JUMPI PUSH1 0x0 DUP1 REVERT JUMPDEST DUP2 CALLDATALOAD PUSH1 0x1 PUSH1 0x1 PUSH1 0xE0 SHL SUB NOT DUP2 AND DUP2 EQ PUSH2 0x28E6 JUMPI PUSH1 0x0 DUP1 REVERT JUMPDEST PUSH1 0x0 PUSH1 0x20 DUP3 DUP5 SUB SLT ISZERO PUSH2 0x2A99 JUMPI PUSH1 0x0 DUP1 REVERT JUMPDEST POP CALLDATALOAD SWAP2 SWAP1 POP JUMP JUMPDEST PUSH1 0x0 JUMPDEST DUP4 DUP2 LT ISZERO PUSH2 0x2ABB JUMPI DUP2 DUP2 ADD MLOAD DUP4 DUP3 ADD MSTORE PUSH1 0x20 ADD PUSH2 0x2AA3 JUMP JUMPDEST POP POP PUSH1 0x0 SWAP2 ADD MSTORE JUMP JUMPDEST PUSH1 0x0 DUP2 MLOAD DUP1 DUP5 MSTORE PUSH2 0x2ADC DUP2 PUSH1 0x20 DUP7 ADD PUSH1 0x20 DUP7 ADD PUSH2 0x2AA0 JUMP JUMPDEST PUSH1 0x1F ADD PUSH1 0x1F NOT AND SWAP3 SWAP1 SWAP3 ADD PUSH1 0x20 ADD SWAP3 SWAP2 POP POP JUMP JUMPDEST PUSH1 0x20 DUP2 MSTORE PUSH1 0x0 PUSH2 0x28E6 PUSH1 0x20 DUP4 ADD DUP5 PUSH2 0x2AC4 JUMP JUMPDEST PUSH4 0x4E487B71 PUSH1 0xE0 SHL PUSH1 0x0 MSTORE PUSH1 0x41 PUSH1 0x4 MSTORE PUSH1 0x24 PUSH1 0x0 REVERT JUMPDEST PUSH1 0x0 DUP3 PUSH1 0x1F DUP4 ADD SLT PUSH2 0x2B2A JUMPI PUSH1 0x0 DUP1 REVERT JUMPDEST DUP2 CALLDATALOAD PUSH8 0xFFFFFFFFFFFFFFFF DUP2 GT ISZERO PUSH2 0x2B44 JUMPI PUSH2 0x2B44 PUSH2 0x2B03 JUMP JUMPDEST PUSH1 0x40 MLOAD PUSH1 0x1F DUP3 ADD PUSH1 0x1F NOT SWAP1 DUP2 AND PUSH1 0x3F ADD AND DUP2 ADD PUSH8 0xFFFFFFFFFFFFFFFF DUP2 GT DUP3 DUP3 LT OR ISZERO PUSH2 0x2B73 JUMPI PUSH2 0x2B73 PUSH2 0x2B03 JUMP JUMPDEST PUSH1 0x40 MSTORE DUP2 DUP2 MSTORE DUP4 DUP3 ADD PUSH1 0x20 ADD DUP6 LT ISZERO PUSH2 0x2B8B JUMPI PUSH1 0x0 DUP1 REVERT JUMPDEST DUP2 PUSH1 0x20 DUP6 ADD PUSH1 0x20 DUP4 ADD CALLDATACOPY PUSH1 0x0 SWAP2 DUP2 ADD PUSH1 0x20 ADD SWAP2 SWAP1 SWAP2 MSTORE SWAP4 SWAP3 POP POP POP JUMP JUMPDEST PUSH1 0x0 PUSH1 0x20 DUP3 DUP5 SUB SLT ISZERO PUSH2 0x2BBA JUMPI PUSH1 0x0 DUP1 REVERT JUMPDEST DUP2 CALLDATALOAD PUSH8 0xFFFFFFFFFFFFFFFF DUP2 GT ISZERO PUSH2 0x2BD1 JUMPI PUSH1 0x0 DUP1 REVERT JUMPDEST PUSH2 0x2BDD DUP5 DUP3 DUP6 ADD PUSH2 0x2B19 JUMP JUMPDEST SWAP5 SWAP4 POP POP POP POP JUMP JUMPDEST PUSH1 0x0 DUP1 PUSH1 0x40 DUP4 DUP6 SUB SLT ISZERO PUSH2 0x2BF8 JUMPI PUSH1 0x0 DUP1 REVERT JUMPDEST DUP3 CALLDATALOAD PUSH8 0xFFFFFFFFFFFFFFFF DUP2 GT ISZERO PUSH2 0x2C0F JUMPI PUSH1 0x0 DUP1 REVERT JUMPDEST PUSH2 0x2C1B DUP6 DUP3 DUP7 ADD PUSH2 0x2B19 JUMP JUMPDEST SWAP6 PUSH1 0x20 SWAP5 SWAP1 SWAP5 ADD CALLDATALOAD SWAP5 POP POP POP POP JUMP JUMPDEST PUSH1 0x1 PUSH1 0x1 PUSH1 0xA0 SHL SUB DUP2 AND DUP2 EQ PUSH2 0x22F9 JUMPI PUSH1 0x0 DUP1 REVERT JUMPDEST PUSH1 0x0 DUP1 PUSH1 0x40 DUP4 DUP6 SUB SLT ISZERO PUSH2 0x2C52 JUMPI PUSH1 0x0 DUP1 REVERT JUMPDEST DUP3 CALLDATALOAD SWAP2 POP PUSH1 0x20 DUP4 ADD CALLDATALOAD PUSH2 0x2C64 DUP2 PUSH2 0x2C2A JUMP JUMPDEST DUP1 SWAP2 POP POP SWAP3 POP SWAP3 SWAP1 POP JUMP JUMPDEST PUSH1 0x0 PUSH1 0x20 DUP3 DUP5 SUB SLT ISZERO PUSH2 0x2C81 JUMPI PUSH1 0x0 DUP1 REVERT JUMPDEST DUP2 CALLDATALOAD PUSH2 0x28E6 DUP2 PUSH2 0x2C2A JUMP JUMPDEST PUSH1 0x0 DUP1 DUP4 PUSH1 0x1F DUP5 ADD SLT PUSH2 0x2C9E JUMPI PUSH1 0x0 DUP1 REVERT JUMPDEST POP DUP2 CALLDATALOAD PUSH8 0xFFFFFFFFFFFFFFFF DUP2 GT ISZERO PUSH2 0x2CB6 JUMPI PUSH1 0x0 DUP1 REVERT JUMPDEST PUSH1 0x20 DUP4 ADD SWAP2 POP DUP4 PUSH1 0x20 DUP3 DUP6 ADD ADD GT ISZERO PUSH2 0x2CCE JUMPI PUSH1 0x0 DUP1 REVERT JUMPDEST SWAP3 POP SWAP3 SWAP1 POP JUMP JUMPDEST DUP1 CALLDATALOAD PUSH4 0xFFFFFFFF DUP2 AND DUP2 EQ PUSH2 0xB8D JUMPI PUSH1 0x0 DUP1 REVERT JUMPDEST PUSH1 0x0 DUP1 PUSH1 0x0 DUP1 PUSH1 0x0 DUP1 PUSH1 0x0 PUSH1 0xC0 DUP9 DUP11 SUB SLT ISZERO PUSH2 0x2D04 JUMPI PUSH1 0x0 DUP1 REVERT JUMPDEST DUP8 CALLDATALOAD PUSH2 0x2D0F DUP2 PUSH2 0x2C2A JUMP JUMPDEST SWAP7 POP PUSH1 0x20 DUP9 ADD CALLDATALOAD SWAP6 POP PUSH1 0x40 DUP9 ADD CALLDATALOAD PUSH8 0xFFFFFFFFFFFFFFFF DUP2 GT ISZERO PUSH2 0x2D32 JUMPI PUSH1 0x0 DUP1 REVERT JUMPDEST PUSH2 0x2D3E DUP11 DUP3 DUP12 ADD PUSH2 0x2C8C JUMP JUMPDEST SWAP1 SWAP7 POP SWAP5 POP POP PUSH1 0x60 DUP9 ADD CALLDATALOAD SWAP3 POP PUSH1 0x80 DUP9 ADD CALLDATALOAD SWAP2 POP PUSH2 0x2D5E PUSH1 0xA0 DUP10 ADD PUSH2 0x2CD5 JUMP JUMPDEST SWAP1 POP SWAP3 SWAP6 SWAP9 SWAP2 SWAP5 SWAP8 POP SWAP3 SWAP6 POP JUMP JUMPDEST PUSH1 0x0 DUP1 PUSH1 0x0 DUP1 PUSH1 0x0 PUSH1 0x60 DUP7 DUP9 SUB SLT ISZERO PUSH2 0x2D84 JUMPI PUSH1 0x0 DUP1 REVERT JUMPDEST DUP6 CALLDATALOAD SWAP5 POP PUSH1 0x20 DUP7 ADD CALLDATALOAD PUSH8 0xFFFFFFFFFFFFFFFF DUP2 GT ISZERO PUSH2 0x2DA2 JUMPI PUSH1 0x0 DUP1 REVERT JUMPDEST PUSH2 0x2DAE DUP9 DUP3 DUP10 ADD PUSH2 0x2C8C JUMP JUMPDEST SWAP1 SWAP6 POP SWAP4 POP POP PUSH1 0x40 DUP7 ADD CALLDATALOAD PUSH8 0xFFFFFFFFFFFFFFFF DUP2 GT ISZERO PUSH2 0x2DCE JUMPI PUSH1 0x0 DUP1 REVERT JUMPDEST PUSH2 0x2DDA DUP9 DUP3 DUP10 ADD PUSH2 0x2C8C JUMP JUMPDEST SWAP7 SWAP10 SWAP6 SWAP9 POP SWAP4 SWAP7 POP SWAP3 SWAP5 SWAP4 SWAP3 POP POP POP JUMP JUMPDEST PUSH1 0x0 PUSH1 0x20 DUP3 ADD PUSH1 0x20 DUP4 MSTORE DUP1 DUP5 MLOAD DUP1 DUP4 MSTORE PUSH1 0x40 DUP6 ADD SWAP2 POP PUSH1 0x40 DUP2 PUSH1 0x5 SHL DUP7 ADD ADD SWAP3 POP PUSH1 0x20 DUP7 ADD PUSH1 0x0 JUMPDEST DUP3 DUP2 LT ISZERO PUSH2 0x2E44 JUMPI PUSH1 0x3F NOT DUP8 DUP7 SUB ADD DUP5 MSTORE PUSH2 0x2E2F DUP6 DUP4 MLOAD PUSH2 0x2AC4 JUMP JUMPDEST SWAP5 POP PUSH1 0x20 SWAP4 DUP5 ADD SWAP4 SWAP2 SWAP1 SWAP2 ADD SWAP1 PUSH1 0x1 ADD PUSH2 0x2E13 JUMP JUMPDEST POP SWAP3 SWAP7 SWAP6 POP POP POP POP POP POP JUMP JUMPDEST PUSH1 0x0 DUP1 PUSH1 0x0 DUP1 PUSH1 0x0 PUSH1 0xA0 DUP7 DUP9 SUB SLT ISZERO PUSH2 0x2E68 JUMPI PUSH1 0x0 DUP1 REVERT JUMPDEST DUP6 CALLDATALOAD PUSH2 0x2E73 DUP2 PUSH2 0x2C2A JUMP JUMPDEST SWAP5 POP PUSH1 0x20 DUP7 ADD CALLDATALOAD PUSH2 0x2E83 DUP2 PUSH2 0x2C2A JUMP JUMPDEST SWAP4 POP PUSH1 0x40 DUP7 ADD CALLDATALOAD PUSH2 0x2E93 DUP2 PUSH2 0x2C2A JUMP JUMPDEST SWAP5 SWAP8 SWAP4 SWAP7 POP SWAP4 SWAP5 PUSH1 0x60 DUP2 ADD CALLDATALOAD SWAP5 POP PUSH1 0x80 ADD CALLDATALOAD SWAP3 SWAP2 POP POP JUMP JUMPDEST PUSH1 0x0 DUP1 PUSH1 0x0 DUP1 PUSH1 0x0 PUSH1 0xA0 DUP7 DUP9 SUB SLT ISZERO PUSH2 0x2EC3 JUMPI PUSH1 0x0 DUP1 REVERT JUMPDEST DUP6 CALLDATALOAD SWAP5 POP PUSH1 0x20 DUP7 ADD CALLDATALOAD SWAP4 POP PUSH1 0x40 DUP7 ADD CALLDATALOAD PUSH2 0x2EDC DUP2 PUSH2 0x2C2A JUMP JUMPDEST SWAP3 POP PUSH1 0x60 DUP7 ADD CALLDATALOAD SWAP2 POP PUSH2 0x2EF1 PUSH1 0x80 DUP8 ADD PUSH2 0x2CD5 JUMP JUMPDEST SWAP1 POP SWAP3 SWAP6 POP SWAP3 SWAP6 SWAP1 SWAP4 POP JUMP JUMPDEST PUSH1 0x1 DUP2 DUP2 SHR SWAP1 DUP3 AND DUP1 PUSH2 0x2F11 JUMPI PUSH1 0x7F DUP3 AND SWAP2 POP JUMPDEST PUSH1 0x20 DUP3 LT DUP2 SUB PUSH2 0x2F31 JUMPI PUSH4 0x4E487B71 PUSH1 0xE0 SHL PUSH1 0x0 MSTORE PUSH1 0x22 PUSH1 0x4 MSTORE PUSH1 0x24 PUSH1 0x0 REVERT JUMPDEST POP SWAP2 SWAP1 POP JUMP JUMPDEST PUSH1 0x0 DUP3 MLOAD PUSH2 0x2F49 DUP2 DUP5 PUSH1 0x20 DUP8 ADD PUSH2 0x2AA0 JUMP JUMPDEST SWAP2 SWAP1 SWAP2 ADD SWAP3 SWAP2 POP POP JUMP JUMPDEST PUSH4 0x4E487B71 PUSH1 0xE0 SHL PUSH1 0x0 MSTORE PUSH1 0x11 PUSH1 0x4 MSTORE PUSH1 0x24 PUSH1 0x0 REVERT JUMPDEST DUP2 DUP2 SUB DUP2 DUP2 GT ISZERO PUSH2 0x7B0 JUMPI PUSH2 0x7B0 PUSH2 0x2F53 JUMP JUMPDEST PUSH4 0x4E487B71 PUSH1 0xE0 SHL PUSH1 0x0 MSTORE PUSH1 0x32 PUSH1 0x4 MSTORE PUSH1 0x24 PUSH1 0x0 REVERT JUMPDEST PUSH1 0x20 DUP1 DUP3 MSTORE PUSH1 0x9 SWAP1 DUP3 ADD MSTORE PUSH9 0x3737BA1037BBB732B9 PUSH1 0xB9 SHL PUSH1 0x40 DUP3 ADD MSTORE PUSH1 0x60 ADD SWAP1 JUMP JUMPDEST PUSH1 0x20 DUP1 DUP3 MSTORE PUSH1 0x15 SWAP1 DUP3 ADD MSTORE PUSH21 0x626C6F636B636861696E206E6F7420657869737473 PUSH1 0x58 SHL PUSH1 0x40 DUP3 ADD MSTORE PUSH1 0x60 ADD SWAP1 JUMP JUMPDEST PUSH1 0x60 DUP2 MSTORE PUSH1 0x0 PUSH2 0x2FF7 PUSH1 0x60 DUP4 ADD DUP7 PUSH2 0x2AC4 JUMP JUMPDEST PUSH1 0x20 DUP4 ADD SWAP5 SWAP1 SWAP5 MSTORE POP PUSH1 0x40 ADD MSTORE SWAP2 SWAP1 POP JUMP JUMPDEST PUSH1 0x0 PUSH1 0x20 DUP3 DUP5 SUB SLT ISZERO PUSH2 0x301B JUMPI PUSH1 0x0 DUP1 REVERT JUMPDEST POP MLOAD SWAP2 SWAP1 POP JUMP JUMPDEST PUSH1 0x1F DUP3 GT ISZERO PUSH2 0x1F21 JUMPI DUP1 PUSH1 0x0 MSTORE PUSH1 0x20 PUSH1 0x0 KECCAK256 PUSH1 0x1F DUP5 ADD PUSH1 0x5 SHR DUP2 ADD PUSH1 0x20 DUP6 LT ISZERO PUSH2 0x3049 JUMPI POP DUP1 JUMPDEST PUSH1 0x1F DUP5 ADD PUSH1 0x5 SHR DUP3 ADD SWAP2 POP JUMPDEST DUP2 DUP2 LT ISZERO PUSH2 0x3069 JUMPI PUSH1 0x0 DUP2 SSTORE PUSH1 0x1 ADD PUSH2 0x3055 JUMP JUMPDEST POP POP POP POP POP JUMP JUMPDEST DUP2 DUP2 SUB PUSH2 0x307B JUMPI POP POP JUMP JUMPDEST PUSH2 0x3085 DUP3 SLOAD PUSH2 0x2EFD JUMP JUMPDEST PUSH8 0xFFFFFFFFFFFFFFFF DUP2 GT ISZERO PUSH2 0x309D JUMPI PUSH2 0x309D PUSH2 0x2B03 JUMP JUMPDEST PUSH2 0x30B1 DUP2 PUSH2 0x30AB DUP5 SLOAD PUSH2 0x2EFD JUMP JUMPDEST DUP5 PUSH2 0x3022 JUMP JUMPDEST PUSH1 0x0 PUSH1 0x1F DUP3 GT PUSH1 0x1 DUP2 EQ PUSH2 0x30E8 JUMPI PUSH1 0x0 DUP4 ISZERO PUSH2 0x30CD JUMPI POP DUP5 DUP3 ADD SLOAD JUMPDEST PUSH1 0x1 DUP5 SWAP1 SHL PUSH1 0x0 NOT PUSH1 0x3 DUP7 SWAP1 SHL SHR NOT DUP3 AND OR JUMPDEST DUP6 SSTORE POP PUSH2 0x3069 JUMP JUMPDEST PUSH1 0x0 DUP6 DUP2 MSTORE PUSH1 0x20 SWAP1 KECCAK256 PUSH1 0x1F NOT DUP5 AND SWAP1 PUSH1 0x0 DUP7 DUP2 MSTORE PUSH1 0x20 SWAP1 KECCAK256 DUP5 JUMPDEST DUP4 DUP2 LT ISZERO PUSH2 0x3122 JUMPI DUP3 DUP7 ADD SLOAD DUP3 SSTORE PUSH1 0x1 SWAP6 DUP7 ADD SWAP6 SWAP1 SWAP2 ADD SWAP1 PUSH1 0x20 ADD PUSH2 0x3102 JUMP JUMPDEST POP DUP6 DUP4 LT ISZERO PUSH2 0x3140 JUMPI DUP2 DUP6 ADD SLOAD PUSH1 0x0 NOT PUSH1 0x3 DUP9 SWAP1 SHL PUSH1 0xF8 AND SHR NOT AND DUP2 SSTORE JUMPDEST POP POP POP POP POP PUSH1 0x1 SWAP1 DUP2 SHL ADD SWAP1 SSTORE POP JUMP JUMPDEST DUP1 DUP3 ADD DUP1 DUP3 GT ISZERO PUSH2 0x7B0 JUMPI PUSH2 0x7B0 PUSH2 0x2F53 JUMP JUMPDEST PUSH4 0x4E487B71 PUSH1 0xE0 SHL PUSH1 0x0 MSTORE PUSH1 0x31 PUSH1 0x4 MSTORE PUSH1 0x24 PUSH1 0x0 REVERT JUMPDEST DUP2 MLOAD PUSH8 0xFFFFFFFFFFFFFFFF DUP2 GT ISZERO PUSH2 0x3193 JUMPI PUSH2 0x3193 PUSH2 0x2B03 JUMP JUMPDEST PUSH2 0x31A1 DUP2 PUSH2 0x30AB DUP5 SLOAD PUSH2 0x2EFD JUMP JUMPDEST PUSH1 0x20 PUSH1 0x1F DUP3 GT PUSH1 0x1 DUP2 EQ PUSH2 0x31D3 JUMPI PUSH1 0x0 DUP4 ISZERO PUSH2 0x30CD JUMPI POP DUP2 DUP6 ADD MLOAD PUSH1 0x1 DUP5 SWAP1 SHL PUSH1 0x0 NOT PUSH1 0x3 DUP7 SWAP1 SHL SHR NOT DUP3 AND OR PUSH2 0x30E0 JUMP JUMPDEST PUSH1 0x0 DUP5 DUP2 MSTORE PUSH1 0x20 DUP2 KECCAK256 PUSH1 0x1F NOT DUP6 AND SWAP2 JUMPDEST DUP3 DUP2 LT ISZERO PUSH2 0x3203 JUMPI DUP8 DUP6 ADD MLOAD DUP3 SSTORE PUSH1 0x20 SWAP5 DUP6 ADD SWAP5 PUSH1 0x1 SWAP1 SWAP3 ADD SWAP2 ADD PUSH2 0x31E3 JUMP JUMPDEST POP DUP5 DUP3 LT ISZERO PUSH2 0x3221 JUMPI DUP7 DUP5 ADD MLOAD PUSH1 0x0 NOT PUSH1 0x3 DUP8 SWAP1 SHL PUSH1 0xF8 AND SHR NOT AND DUP2 SSTORE JUMPDEST POP POP POP POP PUSH1 0x1 SWAP1 DUP2 SHL ADD SWAP1 SSTORE POP JUMP JUMPDEST DUP2 DUP4 DUP3 CALLDATACOPY PUSH1 0x0 SWAP2 ADD SWAP1 DUP2 MSTORE SWAP2 SWAP1 POP JUMP JUMPDEST DUP1 DUP3 MUL DUP2 ISZERO DUP3 DUP3 DIV DUP5 EQ OR PUSH2 0x7B0 JUMPI PUSH2 0x7B0 PUSH2 0x2F53 JUMP JUMPDEST PUSH1 0x0 DUP3 PUSH2 0x3274 JUMPI PUSH4 0x4E487B71 PUSH1 0xE0 SHL PUSH1 0x0 MSTORE PUSH1 0x12 PUSH1 0x4 MSTORE PUSH1 0x24 PUSH1 0x0 REVERT JUMPDEST POP DIV SWAP1 JUMP JUMPDEST DUP2 DUP4 MSTORE DUP2 DUP2 PUSH1 0x20 DUP6 ADD CALLDATACOPY POP PUSH1 0x0 DUP3 DUP3 ADD PUSH1 0x20 SWAP1 DUP2 ADD SWAP2 SWAP1 SWAP2 MSTORE PUSH1 0x1F SWAP1 SWAP2 ADD PUSH1 0x1F NOT AND SWAP1 SWAP2 ADD ADD SWAP1 JUMP JUMPDEST PUSH1 0x1 DUP1 PUSH1 0xA0 SHL SUB DUP8 AND DUP2 MSTORE DUP6 PUSH1 0x20 DUP3 ADD MSTORE PUSH1 0x80 PUSH1 0x40 DUP3 ADD MSTORE PUSH1 0x0 PUSH2 0x32CA PUSH1 0x80 DUP4 ADD DUP7 DUP9 PUSH2 0x3279 JUMP JUMPDEST DUP3 DUP2 SUB PUSH1 0x60 DUP5 ADD MSTORE PUSH2 0x32DD DUP2 DUP6 DUP8 PUSH2 0x3279 JUMP JUMPDEST SWAP10 SWAP9 POP POP POP POP POP POP POP POP POP JUMP JUMPDEST PUSH1 0x20 DUP1 DUP3 MSTORE PUSH1 0x2D SWAP1 DUP3 ADD MSTORE PUSH32 0x496E73756666696369656E74206E617469766520746F6B656E2062616C616E63 PUSH1 0x40 DUP3 ADD MSTORE PUSH13 0x19481A5B8818DBDB9D1C9858DD PUSH1 0x9A SHL PUSH1 0x60 DUP3 ADD MSTORE PUSH1 0x80 ADD SWAP1 JUMP JUMPDEST PUSH1 0x0 PUSH1 0x20 DUP3 DUP5 SUB SLT ISZERO PUSH2 0x3349 JUMPI PUSH1 0x0 DUP1 REVERT JUMPDEST DUP2 MLOAD DUP1 ISZERO ISZERO DUP2 EQ PUSH2 0x28E6 JUMPI PUSH1 0x0 DUP1 REVERT INVALID DUP3 0x27 PUSH18 0x2EF8AD39D0F26F06731EF0DF8665EB7ADA7F COINBASE 0xB1 0xEE ADDMOD SWAP11 0xDF EXTCODECOPY 0x23 DUP9 PUSH3 0xA2A264 PUSH10 0x70667358221220D26A9D 0xC3 SWAP15 SWAP2 0x4E 0xCB SELFBALANCE 0xE8 0xB2 0xB0 SWAP11 0xD4 PUSH16 0x6FD71DD28D5920D1AD6D695DC7BC5814 PUSH1 0x64 PUSH20 0x6F6C634300081A00330000000000000000000000 "
		},
		"gasEstimates": {
			"creation": {
				"codeDepositCost": "2646200",
				"executionCost": "44693",
				"totalCost": "2690893"
			},
			"external": {
				"DEFAULT_ADMIN_ROLE()": "296",
				"FEE_NATIVE()": "1051",
				"MONITOR_ROLE()": "infinite",
				"OWNER_WALLET()": "1169",
				"PERCENTS_DIVIDER()": "231",
				"acceptTransfer(address,uint256,string,bytes32,bytes32,uint32)": "infinite",
				"addBlockchainFrom(string)": "infinite",
				"addBlockchainTo(string,uint256)": "infinite",
				"addMonitor(address)": "infinite",
				"delBlockchainFrom(string)": "infinite",
				"delBlockchainTo(string)": "infinite",
				"delMonitor(address)": "infinite",
				"existsBlockchainFrom(string)": "infinite",
				"existsBlockchainTo(string)": "infinite",
				"feePercentageBridge()": "1052",
				"fromBlockchainReceive(uint256)": "infinite",
				"getMinTokenAmount(string)": "infinite",
				"getRoleAdmin(bytes32)": "1274",
				"getTokenBalance()": "infinite",
				"getTransactionId(bytes32,bytes32,address,uint256,uint32)": "919",
				"grantRole(bytes32,address)": "infinite",
				"hasRole(bytes32,address)": "1432",
				"listBlockchainFrom()": "infinite",
				"listBlockchainTo()": "infinite",
				"pause()": "infinite",
				"paused()": "1116",
				"processed(bytes32)": "1283",
				"receiveTokens(uint256,string,string)": "infinite",
				"renounceRole(bytes32,address)": "24531",
				"revokeRole(bytes32,address)": "infinite",
				"setDeployBridge(address,address,address,uint256,uint256)": "infinite",
				"setFeeNative(uint256)": "21405",
				"setFeePercentageBridge(uint256)": "24402",
				"setMinTokenAmount(string,uint256)": "infinite",
				"supportsInterface(bytes4)": "1372",
				"toBlockchainTransfer(uint256)": "infinite",
				"token()": "1202",
				"totalFeeReceivedBridge()": "1029",
				"transferOwnership(address)": "infinite",
				"unpause()": "infinite",
				"withdrawToken(uint256,address)": "infinite"
			},
			"internal": {
				"_processTransaction(bytes32,bytes32,address,uint256,uint32)": "infinite",
				"_sendToken(address payable,uint256)": "infinite",
				"compareStrings(string memory,string memory)": "infinite"
			}
		},
		"methodIdentifiers": {
			"DEFAULT_ADMIN_ROLE()": "a217fddf",
			"FEE_NATIVE()": "6d2133e1",
			"MONITOR_ROLE()": "4d9b47e2",
			"OWNER_WALLET()": "fae36afb",
			"PERCENTS_DIVIDER()": "01c234a8",
			"acceptTransfer(address,uint256,string,bytes32,bytes32,uint32)": "7dad0d57",
			"addBlockchainFrom(string)": "f2fcdbd3",
			"addBlockchainTo(string,uint256)": "9d1e034d",
			"addMonitor(address)": "b8c48a28",
			"delBlockchainFrom(string)": "bb13ca3b",
			"delBlockchainTo(string)": "8689b322",
			"delMonitor(address)": "5d27fc70",
			"existsBlockchainFrom(string)": "c9b4d653",
			"existsBlockchainTo(string)": "f2e1fa65",
			"feePercentageBridge()": "2a76e481",
			"fromBlockchainReceive(uint256)": "1d316a5d",
			"getMinTokenAmount(string)": "212258a8",
			"getRoleAdmin(bytes32)": "248a9ca3",
			"getTokenBalance()": "82b2e257",
			"getTransactionId(bytes32,bytes32,address,uint256,uint32)": "e8340a99",
			"grantRole(bytes32,address)": "2f2ff15d",
			"hasRole(bytes32,address)": "91d14854",
			"listBlockchainFrom()": "b715f98f",
			"listBlockchainTo()": "f11b7c33",
			"pause()": "8456cb59",
			"paused()": "5c975abb",
			"processed(bytes32)": "c1f0808a",
			"receiveTokens(uint256,string,string)": "a36185f4",
			"renounceRole(bytes32,address)": "36568abe",
			"revokeRole(bytes32,address)": "d547741f",
			"setDeployBridge(address,address,address,uint256,uint256)": "d542a501",
			"setFeeNative(uint256)": "5a075f92",
			"setFeePercentageBridge(uint256)": "525a34e3",
			"setMinTokenAmount(string,uint256)": "29c9a4da",
			"supportsInterface(bytes4)": "01ffc9a7",
			"toBlockchainTransfer(uint256)": "c4251339",
			"token()": "fc0c546a",
			"totalFeeReceivedBridge()": "646ac61c",
			"transferOwnership(address)": "f2fde38b",
			"unpause()": "3f4ba83a",
			"withdrawToken(uint256,address)": "be4b1772"
		}
	},
	"abi": [
		{
			"inputs": [],
			"name": "AccessControlBadConfirmation",
			"type": "error"
		},
		{
			"inputs": [
				{
					"internalType": "address",
					"name": "account",
					"type": "address"
				},
				{
					"internalType": "bytes32",
					"name": "neededRole",
					"type": "bytes32"
				}
			],
			"name": "AccessControlUnauthorizedAccount",
			"type": "error"
		},
		{
			"inputs": [
				{
					"internalType": "address",
					"name": "target",
					"type": "address"
				}
			],
			"name": "AddressEmptyCode",
			"type": "error"
		},
		{
			"inputs": [
				{
					"internalType": "address",
					"name": "account",
					"type": "address"
				}
			],
			"name": "AddressInsufficientBalance",
			"type": "error"
		},
		{
			"inputs": [],
			"name": "FailedInnerCall",
			"type": "error"
		},
		{
			"inputs": [
				{
					"internalType": "address",
					"name": "token",
					"type": "address"
				}
			],
			"name": "SafeERC20FailedOperation",
			"type": "error"
		},
		{
			"anonymous": false,
			"inputs": [
				{
					"indexed": false,
					"internalType": "address",
					"name": "from",
					"type": "address"
				},
				{
					"indexed": false,
					"internalType": "uint256",
					"name": "amount",
					"type": "uint256"
				},
				{
					"indexed": false,
					"internalType": "string",
					"name": "toAddress",
					"type": "string"
				},
				{
					"indexed": false,
					"internalType": "string",
					"name": "toBlockchain",
					"type": "string"
				}
			],
			"name": "CrossRequest",
			"type": "event"
		},
		{
			"anonymous": false,
			"inputs": [
				{
					"indexed": false,
					"internalType": "uint256",
					"name": "oldFee",
					"type": "uint256"
				},
				{
					"indexed": false,
					"internalType": "uint256",
					"name": "newFee",
					"type": "uint256"
				}
			],
			"name": "FeePercentageBridgeChanged",
			"type": "event"
		},
		{
			"anonymous": false,
			"inputs": [
				{
					"indexed": false,
					"internalType": "string",
					"name": "blockchainName",
					"type": "string"
				},
				{
					"indexed": false,
					"internalType": "uint256",
					"name": "oldAmount",
					"type": "uint256"
				},
				{
					"indexed": false,
					"internalType": "uint256",
					"name": "newAmount",
					"type": "uint256"
				}
			],
			"name": "MinTokenAmountChanged",
			"type": "event"
		},
		{
			"anonymous": false,
			"inputs": [
				{
					"indexed": false,
					"internalType": "address",
					"name": "owner",
					"type": "address"
				}
			],
			"name": "OwnerChanged",
			"type": "event"
		},
		{
			"anonymous": false,
			"inputs": [
				{
					"indexed": false,
					"internalType": "address",
					"name": "account",
					"type": "address"
				}
			],
			"name": "Paused",
			"type": "event"
		},
		{
			"anonymous": false,
			"inputs": [
				{
					"indexed": true,
					"internalType": "bytes32",
					"name": "role",
					"type": "bytes32"
				},
				{
					"indexed": true,
					"internalType": "bytes32",
					"name": "previousAdminRole",
					"type": "bytes32"
				},
				{
					"indexed": true,
					"internalType": "bytes32",
					"name": "newAdminRole",
					"type": "bytes32"
				}
			],
			"name": "RoleAdminChanged",
			"type": "event"
		},
		{
			"anonymous": false,
			"inputs": [
				{
					"indexed": true,
					"internalType": "bytes32",
					"name": "role",
					"type": "bytes32"
				},
				{
					"indexed": true,
					"internalType": "address",
					"name": "account",
					"type": "address"
				},
				{
					"indexed": true,
					"internalType": "address",
					"name": "sender",
					"type": "address"
				}
			],
			"name": "RoleGranted",
			"type": "event"
		},
		{
			"anonymous": false,
			"inputs": [
				{
					"indexed": true,
					"internalType": "bytes32",
					"name": "role",
					"type": "bytes32"
				},
				{
					"indexed": true,
					"internalType": "address",
					"name": "account",
					"type": "address"
				},
				{
					"indexed": true,
					"internalType": "address",
					"name": "sender",
					"type": "address"
				}
			],
			"name": "RoleRevoked",
			"type": "event"
		},
		{
			"anonymous": false,
			"inputs": [
				{
					"indexed": false,
					"internalType": "address",
					"name": "tokenAddress",
					"type": "address"
				}
			],
			"name": "TokenChanged",
			"type": "event"
		},
		{
			"anonymous": false,
			"inputs": [
				{
					"indexed": false,
					"internalType": "address",
					"name": "account",
					"type": "address"
				}
			],
			"name": "Unpaused",
			"type": "event"
		},
		{
			"inputs": [],
			"name": "DEFAULT_ADMIN_ROLE",
			"outputs": [
				{
					"internalType": "bytes32",
					"name": "",
					"type": "bytes32"
				}
			],
			"stateMutability": "view",
			"type": "function"
		},
		{
			"inputs": [],
			"name": "FEE_NATIVE",
			"outputs": [
				{
					"internalType": "uint256",
					"name": "",
					"type": "uint256"
				}
			],
			"stateMutability": "view",
			"type": "function"
		},
		{
			"inputs": [],
			"name": "MONITOR_ROLE",
			"outputs": [
				{
					"internalType": "bytes32",
					"name": "",
					"type": "bytes32"
				}
			],
			"stateMutability": "view",
			"type": "function"
		},
		{
			"inputs": [],
			"name": "OWNER_WALLET",
			"outputs": [
				{
					"internalType": "address",
					"name": "",
					"type": "address"
				}
			],
			"stateMutability": "view",
			"type": "function"
		},
		{
			"inputs": [],
			"name": "PERCENTS_DIVIDER",
			"outputs": [
				{
					"internalType": "uint256",
					"name": "",
					"type": "uint256"
				}
			],
			"stateMutability": "view",
			"type": "function"
		},
		{
			"inputs": [
				{
					"internalType": "address payable",
					"name": "receiver",
					"type": "address"
				},
				{
					"internalType": "uint256",
					"name": "amount",
					"type": "uint256"
				},
				{
					"internalType": "string",
					"name": "fromBlockchain",
					"type": "string"
				},
				{
					"internalType": "bytes32",
					"name": "blockHash",
					"type": "bytes32"
				},
				{
					"internalType": "bytes32",
					"name": "transactionHash",
					"type": "bytes32"
				},
				{
					"internalType": "uint32",
					"name": "logIndex",
					"type": "uint32"
				}
			],
			"name": "acceptTransfer",
			"outputs": [
				{
					"internalType": "bool",
					"name": "",
					"type": "bool"
				}
			],
			"stateMutability": "nonpayable",
			"type": "function"
		},
		{
			"inputs": [
				{
					"internalType": "string",
					"name": "name",
					"type": "string"
				}
			],
			"name": "addBlockchainFrom",
			"outputs": [
				{
					"internalType": "uint256",
					"name": "",
					"type": "uint256"
				}
			],
			"stateMutability": "nonpayable",
			"type": "function"
		},
		{
			"inputs": [
				{
					"internalType": "string",
					"name": "name",
					"type": "string"
				},
				{
					"internalType": "uint256",
					"name": "minTokenAmount",
					"type": "uint256"
				}
			],
			"name": "addBlockchainTo",
			"outputs": [
				{
					"internalType": "uint256",
					"name": "",
					"type": "uint256"
				}
			],
			"stateMutability": "nonpayable",
			"type": "function"
		},
		{
			"inputs": [
				{
					"internalType": "address",
					"name": "account",
					"type": "address"
				}
			],
			"name": "addMonitor",
			"outputs": [
				{
					"internalType": "bool",
					"name": "",
					"type": "bool"
				}
			],
			"stateMutability": "nonpayable",
			"type": "function"
		},
		{
			"inputs": [
				{
					"internalType": "string",
					"name": "name",
					"type": "string"
				}
			],
			"name": "delBlockchainFrom",
			"outputs": [
				{
					"internalType": "bool",
					"name": "",
					"type": "bool"
				}
			],
			"stateMutability": "nonpayable",
			"type": "function"
		},
		{
			"inputs": [
				{
					"internalType": "string",
					"name": "name",
					"type": "string"
				}
			],
			"name": "delBlockchainTo",
			"outputs": [
				{
					"internalType": "bool",
					"name": "",
					"type": "bool"
				}
			],
			"stateMutability": "nonpayable",
			"type": "function"
		},
		{
			"inputs": [
				{
					"internalType": "address",
					"name": "account",
					"type": "address"
				}
			],
			"name": "delMonitor",
			"outputs": [
				{
					"internalType": "bool",
					"name": "",
					"type": "bool"
				}
			],
			"stateMutability": "nonpayable",
			"type": "function"
		},
		{
			"inputs": [
				{
					"internalType": "string",
					"name": "name",
					"type": "string"
				}
			],
			"name": "existsBlockchainFrom",
			"outputs": [
				{
					"internalType": "bool",
					"name": "",
					"type": "bool"
				}
			],
			"stateMutability": "view",
			"type": "function"
		},
		{
			"inputs": [
				{
					"internalType": "string",
					"name": "name",
					"type": "string"
				}
			],
			"name": "existsBlockchainTo",
			"outputs": [
				{
					"internalType": "bool",
					"name": "",
					"type": "bool"
				}
			],
			"stateMutability": "view",
			"type": "function"
		},
		{
			"inputs": [],
			"name": "feePercentageBridge",
			"outputs": [
				{
					"internalType": "uint256",
					"name": "",
					"type": "uint256"
				}
			],
			"stateMutability": "view",
			"type": "function"
		},
		{
			"inputs": [
				{
					"internalType": "uint256",
					"name": "",
					"type": "uint256"
				}
			],
			"name": "fromBlockchainReceive",
			"outputs": [
				{
					"internalType": "string",
					"name": "",
					"type": "string"
				}
			],
			"stateMutability": "view",
			"type": "function"
		},
		{
			"inputs": [
				{
					"internalType": "string",
					"name": "blockchainName",
					"type": "string"
				}
			],
			"name": "getMinTokenAmount",
			"outputs": [
				{
					"internalType": "uint256",
					"name": "",
					"type": "uint256"
				}
			],
			"stateMutability": "view",
			"type": "function"
		},
		{
			"inputs": [
				{
					"internalType": "bytes32",
					"name": "role",
					"type": "bytes32"
				}
			],
			"name": "getRoleAdmin",
			"outputs": [
				{
					"internalType": "bytes32",
					"name": "",
					"type": "bytes32"
				}
			],
			"stateMutability": "view",
			"type": "function"
		},
		{
			"inputs": [],
			"name": "getTokenBalance",
			"outputs": [
				{
					"internalType": "uint256",
					"name": "",
					"type": "uint256"
				}
			],
			"stateMutability": "view",
			"type": "function"
		},
		{
			"inputs": [
				{
					"internalType": "bytes32",
					"name": "blockHash",
					"type": "bytes32"
				},
				{
					"internalType": "bytes32",
					"name": "transactionHash",
					"type": "bytes32"
				},
				{
					"internalType": "address",
					"name": "receiver",
					"type": "address"
				},
				{
					"internalType": "uint256",
					"name": "amount",
					"type": "uint256"
				},
				{
					"internalType": "uint32",
					"name": "logIndex",
					"type": "uint32"
				}
			],
			"name": "getTransactionId",
			"outputs": [
				{
					"internalType": "bytes32",
					"name": "",
					"type": "bytes32"
				}
			],
			"stateMutability": "pure",
			"type": "function"
		},
		{
			"inputs": [
				{
					"internalType": "bytes32",
					"name": "role",
					"type": "bytes32"
				},
				{
					"internalType": "address",
					"name": "account",
					"type": "address"
				}
			],
			"name": "grantRole",
			"outputs": [],
			"stateMutability": "nonpayable",
			"type": "function"
		},
		{
			"inputs": [
				{
					"internalType": "bytes32",
					"name": "role",
					"type": "bytes32"
				},
				{
					"internalType": "address",
					"name": "account",
					"type": "address"
				}
			],
			"name": "hasRole",
			"outputs": [
				{
					"internalType": "bool",
					"name": "",
					"type": "bool"
				}
			],
			"stateMutability": "view",
			"type": "function"
		},
		{
			"inputs": [],
			"name": "listBlockchainFrom",
			"outputs": [
				{
					"internalType": "string[]",
					"name": "",
					"type": "string[]"
				}
			],
			"stateMutability": "view",
			"type": "function"
		},
		{
			"inputs": [],
			"name": "listBlockchainTo",
			"outputs": [
				{
					"internalType": "string[]",
					"name": "",
					"type": "string[]"
				}
			],
			"stateMutability": "view",
			"type": "function"
		},
		{
			"inputs": [],
			"name": "pause",
			"outputs": [],
			"stateMutability": "nonpayable",
			"type": "function"
		},
		{
			"inputs": [],
			"name": "paused",
			"outputs": [
				{
					"internalType": "bool",
					"name": "",
					"type": "bool"
				}
			],
			"stateMutability": "view",
			"type": "function"
		},
		{
			"inputs": [
				{
					"internalType": "bytes32",
					"name": "",
					"type": "bytes32"
				}
			],
			"name": "processed",
			"outputs": [
				{
					"internalType": "bool",
					"name": "",
					"type": "bool"
				}
			],
			"stateMutability": "view",
			"type": "function"
		},
		{
			"inputs": [
				{
					"internalType": "uint256",
					"name": "amount",
					"type": "uint256"
				},
				{
					"internalType": "string",
					"name": "toBlockchain",
					"type": "string"
				},
				{
					"internalType": "string",
					"name": "toAddress",
					"type": "string"
				}
			],
			"name": "receiveTokens",
			"outputs": [
				{
					"internalType": "bool",
					"name": "",
					"type": "bool"
				}
			],
			"stateMutability": "payable",
			"type": "function"
		},
		{
			"inputs": [
				{
					"internalType": "bytes32",
					"name": "role",
					"type": "bytes32"
				},
				{
					"internalType": "address",
					"name": "account",
					"type": "address"
				}
			],
			"name": "renounceRole",
			"outputs": [],
			"stateMutability": "nonpayable",
			"type": "function"
		},
		{
			"inputs": [
				{
					"internalType": "bytes32",
					"name": "role",
					"type": "bytes32"
				},
				{
					"internalType": "address",
					"name": "account",
					"type": "address"
				}
			],
			"name": "revokeRole",
			"outputs": [],
			"stateMutability": "nonpayable",
			"type": "function"
		},
		{
			"inputs": [
				{
					"internalType": "address",
					"name": "tokenAddress",
					"type": "address"
				},
				{
					"internalType": "address",
					"name": "owner",
					"type": "address"
				},
				{
					"internalType": "address",
					"name": "monitor",
					"type": "address"
				},
				{
					"internalType": "uint256",
					"name": "feeNative",
					"type": "uint256"
				},
				{
					"internalType": "uint256",
					"name": "feePercentage",
					"type": "uint256"
				}
			],
			"name": "setDeployBridge",
			"outputs": [],
			"stateMutability": "nonpayable",
			"type": "function"
		},
		{
			"inputs": [
				{
					"internalType": "uint256",
					"name": "amount",
					"type": "uint256"
				}
			],
			"name": "setFeeNative",
			"outputs": [
				{
					"internalType": "bool",
					"name": "",
					"type": "bool"
				}
			],
			"stateMutability": "nonpayable",
			"type": "function"
		},
		{
			"inputs": [
				{
					"internalType": "uint256",
					"name": "newFee",
					"type": "uint256"
				}
			],
			"name": "setFeePercentageBridge",
			"outputs": [
				{
					"internalType": "bool",
					"name": "",
					"type": "bool"
				}
			],
			"stateMutability": "nonpayable",
			"type": "function"
		},
		{
			"inputs": [
				{
					"internalType": "string",
					"name": "blockchainName",
					"type": "string"
				},
				{
					"internalType": "uint256",
					"name": "newAmount",
					"type": "uint256"
				}
			],
			"name": "setMinTokenAmount",
			"outputs": [
				{
					"internalType": "bool",
					"name": "",
					"type": "bool"
				}
			],
			"stateMutability": "nonpayable",
			"type": "function"
		},
		{
			"inputs": [
				{
					"internalType": "bytes4",
					"name": "interfaceId",
					"type": "bytes4"
				}
			],
			"name": "supportsInterface",
			"outputs": [
				{
					"internalType": "bool",
					"name": "",
					"type": "bool"
				}
			],
			"stateMutability": "view",
			"type": "function"
		},
		{
			"inputs": [
				{
					"internalType": "uint256",
					"name": "",
					"type": "uint256"
				}
			],
			"name": "toBlockchainTransfer",
			"outputs": [
				{
					"internalType": "string",
					"name": "",
					"type": "string"
				}
			],
			"stateMutability": "view",
			"type": "function"
		},
		{
			"inputs": [],
			"name": "token",
			"outputs": [
				{
					"internalType": "address",
					"name": "",
					"type": "address"
				}
			],
			"stateMutability": "view",
			"type": "function"
		},
		{
			"inputs": [],
			"name": "totalFeeReceivedBridge",
			"outputs": [
				{
					"internalType": "uint256",
					"name": "",
					"type": "uint256"
				}
			],
			"stateMutability": "view",
			"type": "function"
		},
		{
			"inputs": [
				{
					"internalType": "address",
					"name": "newOwner",
					"type": "address"
				}
			],
			"name": "transferOwnership",
			"outputs": [
				{
					"internalType": "bool",
					"name": "",
					"type": "bool"
				}
			],
			"stateMutability": "nonpayable",
			"type": "function"
		},
		{
			"inputs": [],
			"name": "unpause",
			"outputs": [],
			"stateMutability": "nonpayable",
			"type": "function"
		},
		{
			"inputs": [
				{
					"internalType": "uint256",
					"name": "amount",
					"type": "uint256"
				},
				{
					"internalType": "address payable",
					"name": "receiverWallet",
					"type": "address"
				}
			],
			"name": "withdrawToken",
			"outputs": [
				{
					"internalType": "bool",
					"name": "",
					"type": "bool"
				}
			],
			"stateMutability": "nonpayable",
			"type": "function"
		},
		{
			"stateMutability": "payable",
			"type": "receive"
		}
	]
}