{
	"data": {
		"bytecode": {
			"linkReferences": {},
			"object": "608060405234801561000f575f80fd5b506100266301ffc9a760e01b61004460201b60201c565b5f60025f6101000a81548160ff02191690831515021790555061018d565b63ffffffff60e01b817bffffffffffffffffffffffffffffffffffffffffffffffffffffffff1916036100ac576040517f08c379a00000000000000000000000000000000000000000000000000000000081526004016100a39061016f565b60405180910390fd5b60015f80837bffffffffffffffffffffffffffffffffffffffffffffffffffffffff19167bffffffffffffffffffffffffffffffffffffffffffffffffffffffff191681526020019081526020015f205f6101000a81548160ff02191690831515021790555050565b5f82825260208201905092915050565b7f4552433136353a20696e76616c696420696e74657266616365206964000000005f82015250565b5f610159601c83610115565b915061016482610125565b602082019050919050565b5f6020820190508181035f8301526101868161014d565b9050919050565b615aeb8061019a5f395ff3fe608060405260043610610249575f3560e01c80638689b32211610138578063c4251339116100b5578063f11b7c3311610079578063f11b7c331461093e578063f2e1fa6514610968578063f2fcdbd3146109a4578063f2fde38b146109e0578063fae36afb14610a1c578063fc0c546a14610a4657610250565b8063c42513391461083a578063c9b4d65314610876578063d542a501146108b2578063d547741f146108da578063e8340a991461090257610250565b8063b715f98f116100fc578063b715f98f14610720578063b8c48a281461074a578063bb13ca3b14610786578063be4b1772146107c2578063c1f0808a146107fe57610250565b80638689b3221461061257806391d148541461064e5780639d1e034d1461068a578063a217fddf146106c6578063a36185f4146106f057610250565b80634d9b47e2116101c6578063646ac61c1161018a578063646ac61c146105425780636d2133e11461056c5780637dad0d571461059657806382b2e257146105d25780638456cb59146105fc57610250565b80634d9b47e21461043a578063525a34e3146104645780635a075f92146104a05780635c975abb146104dc5780635d27fc701461050657610250565b806329c9a4da1161020d57806329c9a4da1461036e5780632a76e481146103aa5780632f2ff15d146103d457806336568abe146103fc5780633f4ba83a1461042457610250565b806301c234a81461025457806301ffc9a71461027e5780631d316a5d146102ba578063212258a8146102f6578063248a9ca31461033257610250565b3661025057005b5f80fd5b34801561025f575f80fd5b50610268610a70565b6040516102759190613aa5565b60405180910390f35b348015610289575f80fd5b506102a4600480360381019061029f9190613b24565b610a76565b6040516102b19190613b69565b60405180910390f35b3480156102c5575f80fd5b506102e060048036038101906102db9190613bac565b610aef565b6040516102ed9190613c47565b60405180910390f35b348015610301575f80fd5b5061031c60048036038101906103179190613d93565b610b95565b6040516103299190613aa5565b60405180910390f35b34801561033d575f80fd5b5061035860048036038101906103539190613e0d565b610be6565b6040516103659190613e47565b60405180910390f35b348015610379575f80fd5b50610394600480360381019061038f9190613e60565b610c03565b6040516103a19190613b69565b60405180910390f35b3480156103b5575f80fd5b506103be610d5b565b6040516103cb9190613aa5565b60405180910390f35b3480156103df575f80fd5b506103fa60048036038101906103f59190613f14565b610d61565b005b348015610407575f80fd5b50610422600480360381019061041d9190613f14565b610d83565b005b34801561042f575f80fd5b50610438610e4a565b005b348015610445575f80fd5b5061044e610ea6565b60405161045b9190613e47565b60405180910390f35b34801561046f575f80fd5b5061048a60048036038101906104859190613bac565b610eca565b6040516104979190613b69565b60405180910390f35b3480156104ab575f80fd5b506104c660048036038101906104c19190613bac565b610fb4565b6040516104d39190613b69565b60405180910390f35b3480156104e7575f80fd5b506104f0611017565b6040516104fd9190613b69565b60405180910390f35b348015610511575f80fd5b5061052c60048036038101906105279190613f52565b61102c565b6040516105399190613b69565b60405180910390f35b34801561054d575f80fd5b506105566110ba565b6040516105639190613aa5565b60405180910390f35b348015610577575f80fd5b506105806110c0565b60405161058d9190613aa5565b60405180910390f35b3480156105a1575f80fd5b506105bc60048036038101906105b7919061404e565b6110c6565b6040516105c99190613b69565b60405180910390f35b3480156105dd575f80fd5b506105e6611329565b6040516105f39190613aa5565b60405180910390f35b348015610607575f80fd5b50610610611427565b005b34801561061d575f80fd5b5061063860048036038101906106339190613d93565b611483565b6040516106459190613b69565b60405180910390f35b348015610659575f80fd5b50610674600480360381019061066f9190613f14565b61174b565b6040516106819190613b69565b60405180910390f35b348015610695575f80fd5b506106b060048036038101906106ab9190613e60565b6117af565b6040516106bd9190613aa5565b60405180910390f35b3480156106d1575f80fd5b506106da6118fc565b6040516106e79190613e47565b60405180910390f35b61070a600480360381019061070591906140f8565b611902565b6040516107179190613b69565b60405180910390f35b34801561072b575f80fd5b50610734611f2a565b604051610741919061428c565b60405180910390f35b348015610755575f80fd5b50610770600480360381019061076b9190613f52565b611ffe565b60405161077d9190613b69565b60405180910390f35b348015610791575f80fd5b506107ac60048036038101906107a79190613d93565b61208c565b6040516107b99190613b69565b60405180910390f35b3480156107cd575f80fd5b506107e860048036038101906107e391906142ac565b612354565b6040516107f59190613b69565b60405180910390f35b348015610809575f80fd5b50610824600480360381019061081f9190613e0d565b612618565b6040516108319190613b69565b60405180910390f35b348015610845575f80fd5b50610860600480360381019061085b9190613bac565b612635565b60405161086d9190613c47565b60405180910390f35b348015610881575f80fd5b5061089c60048036038101906108979190613d93565b6126db565b6040516108a99190613b69565b60405180910390f35b3480156108bd575f80fd5b506108d860048036038101906108d391906142ea565b612713565b005b3480156108e5575f80fd5b5061090060048036038101906108fb9190613f14565b6129cc565b005b34801561090d575f80fd5b5061092860048036038101906109239190614361565b6129ed565b6040516109359190613e47565b60405180910390f35b348015610949575f80fd5b50610952612a28565b60405161095f919061428c565b60405180910390f35b348015610973575f80fd5b5061098e60048036038101906109899190613d93565b612afc565b60405161099b9190613b69565b60405180910390f35b3480156109af575f80fd5b506109ca60048036038101906109c59190613d93565b612b34565b6040516109d79190613aa5565b60405180910390f35b3480156109eb575f80fd5b50610a066004803603810190610a019190613f52565b612c77565b604051610a139190613b69565b60405180910390f35b348015610a27575f80fd5b50610a30612e1e565b604051610a3d91906143e7565b60405180910390f35b348015610a51575f80fd5b50610a5a612e43565b604051610a6791906143e7565b60405180910390f35b6103e881565b5f7f7965db0b000000000000000000000000000000000000000000000000000000007bffffffffffffffffffffffffffffffffffffffffffffffffffffffff1916827bffffffffffffffffffffffffffffffffffffffffffffffffffffffff19161480610ae85750610ae782612e69565b5b9050919050565b600c8181548110610afe575f80fd5b905f5260205f20015f915090508054610b169061442d565b80601f0160208091040260200160405190810160405280929190818152602001828054610b429061442d565b8015610b8d5780601f10610b6457610100808354040283529160200191610b8d565b820191905f5260205f20905b815481529060010190602001808311610b7057829003601f168201915b505050505081565b5f600b6001600984604051610baa9190614497565b908152602001604051809103902054610bc391906144da565b81548110610bd457610bd361450d565b5b905f5260205f20015f01549050919050565b5f60015f8381526020019081526020015f20600101549050919050565b5f610c175f801b610c12612ecc565b61174b565b610c56576040517f08c379a0000000000000000000000000000000000000000000000000000000008152600401610c4d90614584565b60405180910390fd5b610c5e612ed3565b610c6783612afc565b610ca6576040517f08c379a0000000000000000000000000000000000000000000000000000000008152600401610c9d906145ec565b60405180910390fd5b5f6001600985604051610cb99190614497565b908152602001604051809103902054610cd291906144da565b90507f4b44a0f1f9ad83f48ce1c55d8b93720658c4dbdd91f7c1d3f22612cd6474ab7b84600b8381548110610d0a57610d0961450d565b5b905f5260205f20015f015485604051610d259392919061460a565b60405180910390a182600b8281548110610d4257610d4161450d565b5b905f5260205f20015f0181905550600191505092915050565b60055481565b610d6a82610be6565b610d7381612f1d565b610d7d8383612f31565b50505050565b5f801b8203610dc7576040517f08c379a0000000000000000000000000000000000000000000000000000000008152600401610dbe90614690565b60405180910390fd5b610dcf612ecc565b73ffffffffffffffffffffffffffffffffffffffff168173ffffffffffffffffffffffffffffffffffffffff1614610e3c576040517f08c379a0000000000000000000000000000000000000000000000000000000008152600401610e33906146f8565b60405180910390fd5b610e46828261301a565b5050565b610e5d5f801b610e58612ecc565b61174b565b610e9c576040517f08c379a0000000000000000000000000000000000000000000000000000000008152600401610e9390614584565b60405180910390fd5b610ea4613095565b565b7f8227712ef8ad39d0f26f06731ef0df8665eb7ada7f41b1ee089adf3c238862a281565b5f610ede5f801b610ed9612ecc565b61174b565b610f1d576040517f08c379a0000000000000000000000000000000000000000000000000000000008152600401610f1490614584565b60405180910390fd5b610f25612ed3565b6064821115610f69576040517f08c379a0000000000000000000000000000000000000000000000000000000008152600401610f6090614760565b60405180910390fd5b7f423d9a8a1d4011c45245817ab10cc09937b0786496dad82dba18141ca4fb7c8e60055483604051610f9c92919061477e565b60405180910390a18160058190555060019050919050565b5f610fc85f801b610fc3612ecc565b61174b565b611007576040517f08c379a0000000000000000000000000000000000000000000000000000000008152600401610ffe90614584565b60405180910390fd5b8160048190555060019050919050565b5f60025f9054906101000a900460ff16905090565b5f6110405f801b61103b612ecc565b61174b565b61107f576040517f08c379a000000000000000000000000000000000000000000000000000000000815260040161107690614584565b60405180910390fd5b611087612ed3565b6110b17f8227712ef8ad39d0f26f06731ef0df8665eb7ada7f41b1ee089adf3c238862a2836129cc565b60019050919050565b60035481565b60045481565b5f6110f87f8227712ef8ad39d0f26f06731ef0df8665eb7ada7f41b1ee089adf3c238862a26110f3612ecc565b61174b565b611137576040517f08c379a000000000000000000000000000000000000000000000000000000000815260040161112e906147ef565b60405180910390fd5b61113f612ed3565b5f73ffffffffffffffffffffffffffffffffffffffff168873ffffffffffffffffffffffffffffffffffffffff16036111ad576040517f08c379a00000000000000000000000000000000000000000000000000000000081526004016111a490614857565b60405180910390fd5b5f87116111ef576040517f08c379a00000000000000000000000000000000000000000000000000000000081526004016111e6906148bf565b60405180910390fd5b61123b86868080601f0160208091040260200160405190810160405280939291908181526020018383808284375f81840152601f19601f820116905080830192505050505050506126db565b61127a576040517f08c379a000000000000000000000000000000000000000000000000000000000815260040161127190614927565b60405180910390fd5b5f801b84036112be576040517f08c379a00000000000000000000000000000000000000000000000000000000081526004016112b59061498f565b60405180910390fd5b5f801b8303611302576040517f08c379a00000000000000000000000000000000000000000000000000000000081526004016112f9906149f7565b60405180910390fd5b61130f84848a8a866130f6565b6113198888613195565b5060019050979650505050505050565b5f8073ffffffffffffffffffffffffffffffffffffffff16600260019054906101000a900473ffffffffffffffffffffffffffffffffffffffff1673ffffffffffffffffffffffffffffffffffffffff161461142057600260019054906101000a900473ffffffffffffffffffffffffffffffffffffffff1673ffffffffffffffffffffffffffffffffffffffff166370a08231306040518263ffffffff1660e01b81526004016113da91906143e7565b602060405180830381865afa1580156113f5573d5f803e3d5ffd5b505050506040513d601f19601f820116820180604052508101906114199190614a29565b9050611424565b4790505b90565b61143a5f801b611435612ecc565b61174b565b611479576040517f08c379a000000000000000000000000000000000000000000000000000000000815260040161147090614584565b60405180910390fd5b611481613395565b565b5f6114975f801b611492612ecc565b61174b565b6114d6576040517f08c379a00000000000000000000000000000000000000000000000000000000081526004016114cd90614584565b60405180910390fd5b6114de612ed3565b6114e782612afc565b611526576040517f08c379a000000000000000000000000000000000000000000000000000000000815260040161151d906145ec565b60405180910390fd5b5f60016009846040516115399190614497565b90815260200160405180910390205461155291906144da565b90505f6001600b8054905061156791906144da565b90505f600d828154811061157e5761157d61450d565b5b905f5260205f200180546115919061442d565b80601f01602080910402602001604051908101604052809291908181526020018280546115bd9061442d565b80156116085780601f106115df57610100808354040283529160200191611608565b820191905f5260205f20905b8154815290600101906020018083116115eb57829003601f168201915b50505050509050600b82815481106116235761162261450d565b5b905f5260205f2001600b848154811061163f5761163e61450d565b5b905f5260205f20015f820154815f0155905050600d82815481106116665761166561450d565b5b905f5260205f2001600d84815481106116825761168161450d565b5b905f5260205f200190816116969190614c18565b506001836116a49190614cfd565b6009826040516116b49190614497565b9081526020016040518091039020819055506009856040516116d69190614497565b90815260200160405180910390205f9055600b8054806116f9576116f8614d30565b5b600190038181905f5260205f20015f8082015f905550509055600d80548061172457611723614d30565b5b600190038181905f5260205f20015f61173d9190613a23565b905560019350505050919050565b5f60015f8481526020019081526020015f205f015f8373ffffffffffffffffffffffffffffffffffffffff1673ffffffffffffffffffffffffffffffffffffffff1681526020019081526020015f205f9054906101000a900460ff16905092915050565b5f6117c35f801b6117be612ecc565b61174b565b611802576040517f08c379a00000000000000000000000000000000000000000000000000000000081526004016117f990614584565b60405180910390fd5b61180a612ed3565b61181383612afc565b15611853576040517f08c379a000000000000000000000000000000000000000000000000000000000815260040161184a90614da7565b60405180910390fd5b61185b613a60565b82815f018181525050600b81908060018154018082558091505060019003905f5260205f20015f909190919091505f820151815f01555050600d84908060018154018082558091505060019003905f5260205f20015f9091909190915090816118c49190614dc5565b505f600b805490509050806009866040516118df9190614497565b908152602001604051809103902081905550809250505092915050565b5f801b81565b5f3273ffffffffffffffffffffffffffffffffffffffff16611922612ecc565b73ffffffffffffffffffffffffffffffffffffffff1614611978576040517f08c379a000000000000000000000000000000000000000000000000000000000815260040161196f90614ede565b60405180910390fd5b611980612ed3565b6119cc85858080601f0160208091040260200160405190810160405280939291908181526020018383808284375f81840152601f19601f82011690508083019250505050505050612afc565b611a0b576040517f08c379a0000000000000000000000000000000000000000000000000000000008152600401611a0290614f46565b60405180910390fd5b611a6683838080601f0160208091040260200160405190810160405280939291908181526020018383808284375f81840152601f19601f8201169050808301925050505050505060405180602001604052805f8152506133f7565b15611aa6576040517f08c379a0000000000000000000000000000000000000000000000000000000008152600401611a9d90614fae565b60405180910390fd5b5f600160098787604051611abb929190614ff0565b908152602001604051809103902054611ad491906144da565b90505f8711611b18576040517f08c379a0000000000000000000000000000000000000000000000000000000008152600401611b0f906148bf565b60405180910390fd5b600b8181548110611b2c57611b2b61450d565b5b905f5260205f20015f0154871015611b79576040517f08c379a0000000000000000000000000000000000000000000000000000000008152600401611b7090615052565b60405180910390fd5b602a8484905014611bbf576040517f08c379a0000000000000000000000000000000000000000000000000000000008152600401611bb6906150ba565b60405180910390fd5b600454341015611c04576040517f08c379a0000000000000000000000000000000000000000000000000000000008152600401611bfb90615122565b60405180910390fd5b5f73ffffffffffffffffffffffffffffffffffffffff16600260019054906101000a900473ffffffffffffffffffffffffffffffffffffffff1673ffffffffffffffffffffffffffffffffffffffff1603611ca95760045487611c679190614cfd565b3414611ca8576040517f08c379a0000000000000000000000000000000000000000000000000000000008152600401611c9f9061518a565b60405180910390fd5b5b5f6103e860055489611cbb91906151a8565b611cc59190615216565b90505f8189611cd491906144da565b90508160035f828254611ce79190614cfd565b925050819055505f60065f9054906101000a900473ffffffffffffffffffffffffffffffffffffffff1690505f6004541115611d4957611d486004548273ffffffffffffffffffffffffffffffffffffffff1661344f90919063ffffffff16565b5b5f73ffffffffffffffffffffffffffffffffffffffff16600260019054906101000a900473ffffffffffffffffffffffffffffffffffffffff1673ffffffffffffffffffffffffffffffffffffffff1614611e7057611df4611da9612ecc565b3084600260019054906101000a900473ffffffffffffffffffffffffffffffffffffffff1673ffffffffffffffffffffffffffffffffffffffff16613538909392919063ffffffff16565b611e6b611dff612ecc565b60065f9054906101000a900473ffffffffffffffffffffffffffffffffffffffff1685600260019054906101000a900473ffffffffffffffffffffffffffffffffffffffff1673ffffffffffffffffffffffffffffffffffffffff16613538909392919063ffffffff16565b611ed1565b5f831115611ea257611ea1838273ffffffffffffffffffffffffffffffffffffffff1661344f90919063ffffffff16565b5b5f309050611ecf838273ffffffffffffffffffffffffffffffffffffffff1661344f90919063ffffffff16565b505b7f4b07d21301cc34286797eac5a16d2f1c0131fcf7b2051b24457f8d9a0949479d611efa612ecc565b8389898d8d604051611f1196959493929190615272565b60405180910390a1600194505050505095945050505050565b6060600c805480602002602001604051908101604052809291908181526020015f905b82821015611ff5578382905f5260205f20018054611f6a9061442d565b80601f0160208091040260200160405190810160405280929190818152602001828054611f969061442d565b8015611fe15780601f10611fb857610100808354040283529160200191611fe1565b820191905f5260205f20905b815481529060010190602001808311611fc457829003601f168201915b505050505081526020019060010190611f4d565b50505050905090565b5f6120125f801b61200d612ecc565b61174b565b612051576040517f08c379a000000000000000000000000000000000000000000000000000000000815260040161204890614584565b60405180910390fd5b612059612ed3565b6120837f8227712ef8ad39d0f26f06731ef0df8665eb7ada7f41b1ee089adf3c238862a283610d61565b60019050919050565b5f6120a05f801b61209b612ecc565b61174b565b6120df576040517f08c379a00000000000000000000000000000000000000000000000000000000081526004016120d690614584565b60405180910390fd5b6120e7612ed3565b6120f0826126db565b61212f576040517f08c379a0000000000000000000000000000000000000000000000000000000008152600401612126906145ec565b60405180910390fd5b5f60016008846040516121429190614497565b90815260200160405180910390205461215b91906144da565b90505f6001600a8054905061217091906144da565b90505f600c82815481106121875761218661450d565b5b905f5260205f2001805461219a9061442d565b80601f01602080910402602001604051908101604052809291908181526020018280546121c69061442d565b80156122115780601f106121e857610100808354040283529160200191612211565b820191905f5260205f20905b8154815290600101906020018083116121f457829003601f168201915b50505050509050600a828154811061222c5761222b61450d565b5b905f5260205f2001600a84815481106122485761224761450d565b5b905f5260205f20015f820154815f0155905050600c828154811061226f5761226e61450d565b5b905f5260205f2001600c848154811061228b5761228a61450d565b5b905f5260205f2001908161229f9190614c18565b506001836122ad9190614cfd565b6008826040516122bd9190614497565b9081526020016040518091039020819055506008856040516122df9190614497565b90815260200160405180910390205f9055600a80548061230257612301614d30565b5b600190038181905f5260205f20015f8082015f905550509055600c80548061232d5761232c614d30565b5b600190038181905f5260205f20015f6123469190613a23565b905560019350505050919050565b5f6123685f801b612363612ecc565b61174b565b6123a7576040517f08c379a000000000000000000000000000000000000000000000000000000000815260040161239e90614584565b60405180910390fd5b5f73ffffffffffffffffffffffffffffffffffffffff168273ffffffffffffffffffffffffffffffffffffffff1603612415576040517f08c379a000000000000000000000000000000000000000000000000000000000815260040161240c90614857565b60405180910390fd5b5f73ffffffffffffffffffffffffffffffffffffffff16600260019054906101000a900473ffffffffffffffffffffffffffffffffffffffff1673ffffffffffffffffffffffffffffffffffffffff161461259c57600260019054906101000a900473ffffffffffffffffffffffffffffffffffffffff1673ffffffffffffffffffffffffffffffffffffffff166370a08231306040518263ffffffff1660e01b81526004016124c591906143e7565b602060405180830381865afa1580156124e0573d5f803e3d5ffd5b505050506040513d601f19601f820116820180604052508101906125049190614a29565b831115612546576040517f08c379a000000000000000000000000000000000000000000000000000000000815260040161253d90615311565b60405180910390fd5b6125938284600260019054906101000a900473ffffffffffffffffffffffffffffffffffffffff1673ffffffffffffffffffffffffffffffffffffffff166135ba9092919063ffffffff16565b60019050612612565b824710156125df576040517f08c379a00000000000000000000000000000000000000000000000000000000081526004016125d69061539f565b60405180910390fd5b5f82905061260c848273ffffffffffffffffffffffffffffffffffffffff1661344f90919063ffffffff16565b50600190505b92915050565b6007602052805f5260405f205f915054906101000a900460ff1681565b600d8181548110612644575f80fd5b905f5260205f20015f91509050805461265c9061442d565b80601f01602080910402602001604051908101604052809291908181526020018280546126889061442d565b80156126d35780601f106126aa576101008083540402835291602001916126d3565b820191905f5260205f20905b8154815290600101906020018083116126b657829003601f168201915b505050505081565b5f806008836040516126ed9190614497565b90815260200160405180910390205403612709575f905061270e565b600190505b919050565b5f73ffffffffffffffffffffffffffffffffffffffff16600260019054906101000a900473ffffffffffffffffffffffffffffffffffffffff1673ffffffffffffffffffffffffffffffffffffffff16146127a3576040517f08c379a000000000000000000000000000000000000000000000000000000000815260040161279a90615407565b60405180910390fd5b5f73ffffffffffffffffffffffffffffffffffffffff1660065f9054906101000a900473ffffffffffffffffffffffffffffffffffffffff1673ffffffffffffffffffffffffffffffffffffffff1614612832576040517f08c379a00000000000000000000000000000000000000000000000000000000081526004016128299061546f565b60405180910390fd5b5f60045414612876576040517f08c379a000000000000000000000000000000000000000000000000000000000815260040161286d906154d7565b60405180910390fd5b5f600554146128ba576040517f08c379a00000000000000000000000000000000000000000000000000000000081526004016128b1906154d7565b60405180910390fd5b60648111156128fe576040517f08c379a00000000000000000000000000000000000000000000000000000000081526004016128f59061553f565b60405180910390fd5b84600260016101000a81548173ffffffffffffffffffffffffffffffffffffffff021916908373ffffffffffffffffffffffffffffffffffffffff1602179055508360065f6101000a81548173ffffffffffffffffffffffffffffffffffffffff021916908373ffffffffffffffffffffffffffffffffffffffff16021790555061298b5f801b85612f31565b506129b67f8227712ef8ad39d0f26f06731ef0df8665eb7ada7f41b1ee089adf3c238862a284612f31565b5081600481905550806005819055505050505050565b6129d582610be6565b6129de81612f1d565b6129e88383613639565b505050565b5f8585858585604051602001612a07959493929190615616565b60405160208183030381529060405280519060200120905095945050505050565b6060600d805480602002602001604051908101604052809291908181526020015f905b82821015612af3578382905f5260205f20018054612a689061442d565b80601f0160208091040260200160405190810160405280929190818152602001828054612a949061442d565b8015612adf5780601f10612ab657610100808354040283529160200191612adf565b820191905f5260205f20905b815481529060010190602001808311612ac257829003601f168201915b505050505081526020019060010190612a4b565b50505050905090565b5f80600983604051612b0e9190614497565b90815260200160405180910390205403612b2a575f9050612b2f565b600190505b919050565b5f612b485f801b612b43612ecc565b61174b565b612b87576040517f08c379a0000000000000000000000000000000000000000000000000000000008152600401612b7e90614584565b60405180910390fd5b612b8f612ed3565b612b98826126db565b15612bd8576040517f08c379a0000000000000000000000000000000000000000000000000000000008152600401612bcf906156be565b60405180910390fd5b612be0613a60565b600a81908060018154018082558091505060019003905f5260205f20015f909190919091505f820151815f01555050600c83908060018154018082558091505060019003905f5260205f20015f909190919091509081612c409190614dc5565b505f600a80549050905080600885604051612c5b9190614497565b9081526020016040518091039020819055508092505050919050565b5f612c8b5f801b612c86612ecc565b61174b565b612cca576040517f08c379a0000000000000000000000000000000000000000000000000000000008152600401612cc190614584565b60405180910390fd5b612cd2612ed3565b8160065f6101000a81548173ffffffffffffffffffffffffffffffffffffffff021916908373ffffffffffffffffffffffffffffffffffffffff160217905550612d1a612ecc565b73ffffffffffffffffffffffffffffffffffffffff168273ffffffffffffffffffffffffffffffffffffffff1603612d87576040517f08c379a0000000000000000000000000000000000000000000000000000000008152600401612d7e90615726565b60405180910390fd5b5f73ffffffffffffffffffffffffffffffffffffffff168273ffffffffffffffffffffffffffffffffffffffff1603612df5576040517f08c379a0000000000000000000000000000000000000000000000000000000008152600401612dec9061578e565b60405180910390fd5b612e015f801b83612f31565b50612e155f801b612e10612ecc565b6129cc565b60019050919050565b60065f9054906101000a900473ffffffffffffffffffffffffffffffffffffffff1681565b600260019054906101000a900473ffffffffffffffffffffffffffffffffffffffff1681565b5f805f837bffffffffffffffffffffffffffffffffffffffffffffffffffffffff19167bffffffffffffffffffffffffffffffffffffffffffffffffffffffff191681526020019081526020015f205f9054906101000a900460ff169050919050565b5f33905090565b612edb611017565b15612f1b576040517f08c379a0000000000000000000000000000000000000000000000000000000008152600401612f12906157f6565b60405180910390fd5b565b612f2e81612f29612ecc565b61365b565b50565b5f612f3c838361174b565b613010576001805f8581526020019081526020015f205f015f8473ffffffffffffffffffffffffffffffffffffffff1673ffffffffffffffffffffffffffffffffffffffff1681526020019081526020015f205f6101000a81548160ff021916908315150217905550612fad612ecc565b73ffffffffffffffffffffffffffffffffffffffff168273ffffffffffffffffffffffffffffffffffffffff16847f2f8788117e7eff1d82e926ec794901d17c78024a50270940304540a733656f0d60405160405180910390a460019050613014565b5f90505b92915050565b613022612ecc565b73ffffffffffffffffffffffffffffffffffffffff168173ffffffffffffffffffffffffffffffffffffffff1614613086576040517f6697b23200000000000000000000000000000000000000000000000000000000815260040160405180910390fd5b61309082826136ac565b505050565b61309d613796565b5f60025f6101000a81548160ff0219169083151502179055507f5db9ee0a495bf2e6ff9c91a7834c1ba4fdd244a5e8aa4e537bd38aeae4b073aa6130df612ecc565b6040516130ec91906143e7565b60405180910390a1565b5f61310486868686866129ed565b905060075f8281526020019081526020015f205f9054906101000a900460ff1615613164576040517f08c379a000000000000000000000000000000000000000000000000000000000815260040161315b9061585e565b60405180910390fd5b600160075f8381526020019081526020015f205f6101000a81548160ff021916908315150217905550505050505050565b5f8073ffffffffffffffffffffffffffffffffffffffff16600260019054906101000a900473ffffffffffffffffffffffffffffffffffffffff1673ffffffffffffffffffffffffffffffffffffffff1603613261578147101561322e576040517f08c379a00000000000000000000000000000000000000000000000000000000081526004016132259061539f565b60405180910390fd5b5f83905061325b838273ffffffffffffffffffffffffffffffffffffffff1661344f90919063ffffffff16565b5061338b565b81600260019054906101000a900473ffffffffffffffffffffffffffffffffffffffff1673ffffffffffffffffffffffffffffffffffffffff166370a08231306040518263ffffffff1660e01b81526004016132bd91906143e7565b602060405180830381865afa1580156132d8573d5f803e3d5ffd5b505050506040513d601f19601f820116820180604052508101906132fc9190614a29565b101561333d576040517f08c379a0000000000000000000000000000000000000000000000000000000008152600401613334906158c6565b60405180910390fd5b61338a8383600260019054906101000a900473ffffffffffffffffffffffffffffffffffffffff1673ffffffffffffffffffffffffffffffffffffffff166135ba9092919063ffffffff16565b5b6001905092915050565b61339d612ed3565b600160025f6101000a81548160ff0219169083151502179055507f62e78cea01bee320cd4e420270b5ea74000d11b0c9f74754ebdbfc544b05a2586133e0612ecc565b6040516133ed91906143e7565b60405180910390a1565b5f816040516020016134099190614497565b60405160208183030381529060405280519060200120836040516020016134309190614497565b6040516020818303038152906040528051906020012014905092915050565b8047101561349457306040517fcd78605900000000000000000000000000000000000000000000000000000000815260040161348b91906143e7565b60405180910390fd5b5f8273ffffffffffffffffffffffffffffffffffffffff16826040516134b990615911565b5f6040518083038185875af1925050503d805f81146134f3576040519150601f19603f3d011682016040523d82523d5f602084013e6134f8565b606091505b5050905080613533576040517f1425ea4200000000000000000000000000000000000000000000000000000000815260040160405180910390fd5b505050565b6135b4848573ffffffffffffffffffffffffffffffffffffffff166323b872dd86868660405160240161356d93929190615925565b604051602081830303815290604052915060e01b6020820180517bffffffffffffffffffffffffffffffffffffffffffffffffffffffff83818316178352505050506137df565b50505050565b613634838473ffffffffffffffffffffffffffffffffffffffff1663a9059cbb85856040516024016135ed92919061595a565b604051602081830303815290604052915060e01b6020820180517bffffffffffffffffffffffffffffffffffffffffffffffffffffffff83818316178352505050506137df565b505050565b61364282610be6565b61364b81612f1d565b61365583836136ac565b50505050565b613665828261174b565b6136a85780826040517fe2517d3f00000000000000000000000000000000000000000000000000000000815260040161369f929190615981565b60405180910390fd5b5050565b5f6136b7838361174b565b1561378c575f60015f8581526020019081526020015f205f015f8473ffffffffffffffffffffffffffffffffffffffff1673ffffffffffffffffffffffffffffffffffffffff1681526020019081526020015f205f6101000a81548160ff021916908315150217905550613729612ecc565b73ffffffffffffffffffffffffffffffffffffffff168273ffffffffffffffffffffffffffffffffffffffff16847ff6391f5c32d9c69d2a47ea670b442974b53935d1edc7fd64eb21e047a839171b60405160405180910390a460019050613790565b5f90505b92915050565b61379e611017565b6137dd576040517f08c379a00000000000000000000000000000000000000000000000000000000081526004016137d4906159f2565b60405180910390fd5b565b5f613809828473ffffffffffffffffffffffffffffffffffffffff1661387490919063ffffffff16565b90505f81511415801561382d57508080602001905181019061382b9190615a3a565b155b1561386f57826040517f5274afe700000000000000000000000000000000000000000000000000000000815260040161386691906143e7565b60405180910390fd5b505050565b606061388183835f613889565b905092915050565b6060814710156138d057306040517fcd7860590000000000000000000000000000000000000000000000000000000081526004016138c791906143e7565b60405180910390fd5b5f808573ffffffffffffffffffffffffffffffffffffffff1684866040516138f89190615a9f565b5f6040518083038185875af1925050503d805f8114613932576040519150601f19603f3d011682016040523d82523d5f602084013e613937565b606091505b5091509150613947868383613952565b925050509392505050565b60608261396757613962826139df565b6139d7565b5f825114801561398d57505f8473ffffffffffffffffffffffffffffffffffffffff163b145b156139cf57836040517f9996b3150000000000000000000000000000000000000000000000000000000081526004016139c691906143e7565b60405180910390fd5b8190506139d8565b5b9392505050565b5f815111156139f15780518082602001fd5b6040517f1425ea4200000000000000000000000000000000000000000000000000000000815260040160405180910390fd5b508054613a2f9061442d565b5f825580601f10613a405750613a5d565b601f0160209004905f5260205f2090810190613a5c9190613a72565b5b50565b60405180602001604052805f81525090565b5b80821115613a89575f815f905550600101613a73565b5090565b5f819050919050565b613a9f81613a8d565b82525050565b5f602082019050613ab85f830184613a96565b92915050565b5f604051905090565b5f80fd5b5f80fd5b5f7fffffffff0000000000000000000000000000000000000000000000000000000082169050919050565b613b0381613acf565b8114613b0d575f80fd5b50565b5f81359050613b1e81613afa565b92915050565b5f60208284031215613b3957613b38613ac7565b5b5f613b4684828501613b10565b91505092915050565b5f8115159050919050565b613b6381613b4f565b82525050565b5f602082019050613b7c5f830184613b5a565b92915050565b613b8b81613a8d565b8114613b95575f80fd5b50565b5f81359050613ba681613b82565b92915050565b5f60208284031215613bc157613bc0613ac7565b5b5f613bce84828501613b98565b91505092915050565b5f81519050919050565b5f82825260208201905092915050565b8281835e5f83830152505050565b5f601f19601f8301169050919050565b5f613c1982613bd7565b613c238185613be1565b9350613c33818560208601613bf1565b613c3c81613bff565b840191505092915050565b5f6020820190508181035f830152613c5f8184613c0f565b905092915050565b5f80fd5b5f80fd5b7f4e487b71000000000000000000000000000000000000000000000000000000005f52604160045260245ffd5b613ca582613bff565b810181811067ffffffffffffffff82111715613cc457613cc3613c6f565b5b80604052505050565b5f613cd6613abe565b9050613ce28282613c9c565b919050565b5f67ffffffffffffffff821115613d0157613d00613c6f565b5b613d0a82613bff565b9050602081019050919050565b828183375f83830152505050565b5f613d37613d3284613ce7565b613ccd565b905082815260208101848484011115613d5357613d52613c6b565b5b613d5e848285613d17565b509392505050565b5f82601f830112613d7a57613d79613c67565b5b8135613d8a848260208601613d25565b91505092915050565b5f60208284031215613da857613da7613ac7565b5b5f82013567ffffffffffffffff811115613dc557613dc4613acb565b5b613dd184828501613d66565b91505092915050565b5f819050919050565b613dec81613dda565b8114613df6575f80fd5b50565b5f81359050613e0781613de3565b92915050565b5f60208284031215613e2257613e21613ac7565b5b5f613e2f84828501613df9565b91505092915050565b613e4181613dda565b82525050565b5f602082019050613e5a5f830184613e38565b92915050565b5f8060408385031215613e7657613e75613ac7565b5b5f83013567ffffffffffffffff811115613e9357613e92613acb565b5b613e9f85828601613d66565b9250506020613eb085828601613b98565b9150509250929050565b5f73ffffffffffffffffffffffffffffffffffffffff82169050919050565b5f613ee382613eba565b9050919050565b613ef381613ed9565b8114613efd575f80fd5b50565b5f81359050613f0e81613eea565b92915050565b5f8060408385031215613f2a57613f29613ac7565b5b5f613f3785828601613df9565b9250506020613f4885828601613f00565b9150509250929050565b5f60208284031215613f6757613f66613ac7565b5b5f613f7484828501613f00565b91505092915050565b5f613f8782613eba565b9050919050565b613f9781613f7d565b8114613fa1575f80fd5b50565b5f81359050613fb281613f8e565b92915050565b5f80fd5b5f80fd5b5f8083601f840112613fd557613fd4613c67565b5b8235905067ffffffffffffffff811115613ff257613ff1613fb8565b5b60208301915083600182028301111561400e5761400d613fbc565b5b9250929050565b5f63ffffffff82169050919050565b61402d81614015565b8114614037575f80fd5b50565b5f8135905061404881614024565b92915050565b5f805f805f805f60c0888a03121561406957614068613ac7565b5b5f6140768a828b01613fa4565b97505060206140878a828b01613b98565b965050604088013567ffffffffffffffff8111156140a8576140a7613acb565b5b6140b48a828b01613fc0565b955095505060606140c78a828b01613df9565b93505060806140d88a828b01613df9565b92505060a06140e98a828b0161403a565b91505092959891949750929550565b5f805f805f6060868803121561411157614110613ac7565b5b5f61411e88828901613b98565b955050602086013567ffffffffffffffff81111561413f5761413e613acb565b5b61414b88828901613fc0565b9450945050604086013567ffffffffffffffff81111561416e5761416d613acb565b5b61417a88828901613fc0565b92509250509295509295909350565b5f81519050919050565b5f82825260208201905092915050565b5f819050602082019050919050565b5f82825260208201905092915050565b5f6141cc82613bd7565b6141d681856141b2565b93506141e6818560208601613bf1565b6141ef81613bff565b840191505092915050565b5f61420583836141c2565b905092915050565b5f602082019050919050565b5f61422382614189565b61422d8185614193565b93508360208202850161423f856141a3565b805f5b8581101561427a578484038952815161425b85826141fa565b94506142668361420d565b925060208a01995050600181019050614242565b50829750879550505050505092915050565b5f6020820190508181035f8301526142a48184614219565b905092915050565b5f80604083850312156142c2576142c1613ac7565b5b5f6142cf85828601613b98565b92505060206142e085828601613fa4565b9150509250929050565b5f805f805f60a0868803121561430357614302613ac7565b5b5f61431088828901613f00565b955050602061432188828901613f00565b945050604061433288828901613f00565b935050606061434388828901613b98565b925050608061435488828901613b98565b9150509295509295909350565b5f805f805f60a0868803121561437a57614379613ac7565b5b5f61438788828901613df9565b955050602061439888828901613df9565b94505060406143a988828901613f00565b93505060606143ba88828901613b98565b92505060806143cb8882890161403a565b9150509295509295909350565b6143e181613ed9565b82525050565b5f6020820190506143fa5f8301846143d8565b92915050565b7f4e487b71000000000000000000000000000000000000000000000000000000005f52602260045260245ffd5b5f600282049050600182168061444457607f821691505b60208210810361445757614456614400565b5b50919050565b5f81905092915050565b5f61447182613bd7565b61447b818561445d565b935061448b818560208601613bf1565b80840191505092915050565b5f6144a28284614467565b915081905092915050565b7f4e487b71000000000000000000000000000000000000000000000000000000005f52601160045260245ffd5b5f6144e482613a8d565b91506144ef83613a8d565b9250828203905081811115614507576145066144ad565b5b92915050565b7f4e487b71000000000000000000000000000000000000000000000000000000005f52603260045260245ffd5b7f6e6f74206f776e657200000000000000000000000000000000000000000000005f82015250565b5f61456e600983613be1565b91506145798261453a565b602082019050919050565b5f6020820190508181035f83015261459b81614562565b9050919050565b7f626c6f636b636861696e206e6f742065786973747300000000000000000000005f82015250565b5f6145d6601583613be1565b91506145e1826145a2565b602082019050919050565b5f6020820190508181035f830152614603816145ca565b9050919050565b5f6060820190508181035f8301526146228186613c0f565b90506146316020830185613a96565b61463e6040830184613a96565b949350505050565b7f63616e206e6f742072656e6f756e636520726f6c65206f776e657200000000005f82015250565b5f61467a601b83613be1565b915061468582614646565b602082019050919050565b5f6020820190508181035f8301526146a78161466e565b9050919050565b7f63616e206f6e6c792072656e6f756e636520726f6c657320666f722073656c665f82015250565b5f6146e2602083613be1565b91506146ed826146ae565b602082019050919050565b5f6020820190508181035f83015261470f816146d6565b9050919050565b7f426967676572207468616e2031302500000000000000000000000000000000005f82015250565b5f61474a600f83613be1565b915061475582614716565b602082019050919050565b5f6020820190508181035f8301526147778161473e565b9050919050565b5f6040820190506147915f830185613a96565b61479e6020830184613a96565b9392505050565b7f6e6f74206d6f6e69746f720000000000000000000000000000000000000000005f82015250565b5f6147d9600b83613be1565b91506147e4826147a5565b602082019050919050565b5f6020820190508181035f830152614806816147cd565b9050919050565b7f7265636569766572206973207a65726f000000000000000000000000000000005f82015250565b5f614841601083613be1565b915061484c8261480d565b602082019050919050565b5f6020820190508181035f83015261486e81614835565b9050919050565b7f616d6f756e7420697320300000000000000000000000000000000000000000005f82015250565b5f6148a9600b83613be1565b91506148b482614875565b602082019050919050565b5f6020820190508181035f8301526148d68161489d565b9050919050565b7f66726f6d426c6f636b636861696e206e6f7420657869737473000000000000005f82015250565b5f614911601983613be1565b915061491c826148dd565b602082019050919050565b5f6020820190508181035f83015261493e81614905565b9050919050565b7f626c6f636b48617368206973206e756c6c0000000000000000000000000000005f82015250565b5f614979601183613be1565b915061498482614945565b602082019050919050565b5f6020820190508181035f8301526149a68161496d565b9050919050565b7f7472616e73616374696f6e48617368206973206e756c6c0000000000000000005f82015250565b5f6149e1601783613be1565b91506149ec826149ad565b602082019050919050565b5f6020820190508181035f830152614a0e816149d5565b9050919050565b5f81519050614a2381613b82565b92915050565b5f60208284031215614a3e57614a3d613ac7565b5b5f614a4b84828501614a15565b91505092915050565b5f81549050614a628161442d565b9050919050565b5f819050815f5260205f209050919050565b5f819050815f5260205f209050919050565b5f6020601f8301049050919050565b5f82821b905092915050565b5f60088302614ad77fffffffffffffffffffffffffffffffffffffffffffffffffffffffffffffffff82614a9c565b614ae18683614a9c565b95508019841693508086168417925050509392505050565b5f819050919050565b5f614b1c614b17614b1284613a8d565b614af9565b613a8d565b9050919050565b5f819050919050565b614b3583614b02565b614b49614b4182614b23565b848454614aa8565b825550505050565b5f90565b614b5d614b51565b614b68818484614b2c565b505050565b5b81811015614b8b57614b805f82614b55565b600181019050614b6e565b5050565b601f821115614bd057614ba181614a69565b614baa84614a8d565b81016020851015614bb9578190505b614bcd614bc585614a8d565b830182614b6d565b50505b505050565b5f82821c905092915050565b5f614bf05f1984600802614bd5565b1980831691505092915050565b5f614c088383614be1565b9150826002028217905092915050565b818103614c26575050614cfb565b614c2f82614a54565b67ffffffffffffffff811115614c4857614c47613c6f565b5b614c52825461442d565b614c5d828285614b8f565b5f601f831160018114614c8a575f8415614c78578287015490505b614c828582614bfd565b865550614cf4565b601f198416614c9887614a7b565b9650614ca386614a69565b5f5b82811015614cca57848901548255600182019150600185019450602081019050614ca5565b86831015614ce75784890154614ce3601f891682614be1565b8355505b6001600288020188555050505b5050505050505b565b5f614d0782613a8d565b9150614d1283613a8d565b9250828201905080821115614d2a57614d296144ad565b5b92915050565b7f4e487b71000000000000000000000000000000000000000000000000000000005f52603160045260245ffd5b7f626c6f636b636861696e206578697374730000000000000000000000000000005f82015250565b5f614d91601183613be1565b9150614d9c82614d5d565b602082019050919050565b5f6020820190508181035f830152614dbe81614d85565b9050919050565b614dce82613bd7565b67ffffffffffffffff811115614de757614de6613c6f565b5b614df1825461442d565b614dfc828285614b8f565b5f60209050601f831160018114614e2d575f8415614e1b578287015190505b614e258582614bfd565b865550614e8c565b601f198416614e3b86614a69565b5f5b82811015614e6257848901518255600182019150602085019450602081019050614e3d565b86831015614e7f5784890151614e7b601f891682614be1565b8355505b6001600288020188555050505b505050505050565b7f43616c6c6572206973206e6f7420454f410000000000000000000000000000005f82015250565b5f614ec8601183613be1565b9150614ed382614e94565b602082019050919050565b5f6020820190508181035f830152614ef581614ebc565b9050919050565b7f746f426c6f636b636861696e206e6f74206578697374730000000000000000005f82015250565b5f614f30601783613be1565b9150614f3b82614efc565b602082019050919050565b5f6020820190508181035f830152614f5d81614f24565b9050919050565b7f746f41646472657373206973206e756c6c0000000000000000000000000000005f82015250565b5f614f98601183613be1565b9150614fa382614f64565b602082019050919050565b5f6020820190508181035f830152614fc581614f8c565b9050919050565b5f614fd7838561445d565b9350614fe4838584613d17565b82840190509392505050565b5f614ffc828486614fcc565b91508190509392505050565b7f616d6f756e74206973206c657373207468616e206d696e696d756d00000000005f82015250565b5f61503c601b83613be1565b915061504782615008565b602082019050919050565b5f6020820190508181035f83015261506981615030565b9050919050565b7f696e76616c69642064657374696e6174696f6e206164647265737300000000005f82015250565b5f6150a4601b83613be1565b91506150af82615070565b602082019050919050565b5f6020820190508181035f8301526150d181615098565b9050919050565b7f496e76616c696420666565206e6174697665206272696467652e0000000000005f82015250565b5f61510c601a83613be1565b9150615117826150d8565b602082019050919050565b5f6020820190508181035f83015261513981615100565b9050919050565b7f72657175697265643a20666565206e6174697665206e6f7420656e6f756768005f82015250565b5f615174601f83613be1565b915061517f82615140565b602082019050919050565b5f6020820190508181035f8301526151a181615168565b9050919050565b5f6151b282613a8d565b91506151bd83613a8d565b92508282026151cb81613a8d565b915082820484148315176151e2576151e16144ad565b5b5092915050565b7f4e487b71000000000000000000000000000000000000000000000000000000005f52601260045260245ffd5b5f61522082613a8d565b915061522b83613a8d565b92508261523b5761523a6151e9565b5b828204905092915050565b5f6152518385613be1565b935061525e838584613d17565b61526783613bff565b840190509392505050565b5f6080820190506152855f8301896143d8565b6152926020830188613a96565b81810360408301526152a5818688615246565b905081810360608301526152ba818486615246565b9050979650505050505050565b7f696e737566696369656e742062616c616e6365000000000000000000000000005f82015250565b5f6152fb601383613be1565b9150615306826152c7565b602082019050919050565b5f6020820190508181035f830152615328816152ef565b9050919050565b7f496e73756666696369656e74206e617469766520746f6b656e2062616c616e635f8201527f6520696e20636f6e747261637400000000000000000000000000000000000000602082015250565b5f615389602d83613be1565b91506153948261532f565b604082019050919050565b5f6020820190508181035f8301526153b68161537d565b9050919050565b7f4e6f742073657420746f6b656e000000000000000000000000000000000000005f82015250565b5f6153f1600d83613be1565b91506153fc826153bd565b602082019050919050565b5f6020820190508181035f83015261541e816153e5565b9050919050565b7f4e6f7420736574206f776e65722077616c6c65740000000000000000000000005f82015250565b5f615459601483613be1565b915061546482615425565b602082019050919050565b5f6020820190508181035f8301526154868161544d565b9050919050565b7f4e6f74207365742061646d696e2064656661756c7420726f6c650000000000005f82015250565b5f6154c1601a83613be1565b91506154cc8261548d565b602082019050919050565b5f6020820190508181035f8301526154ee816154b5565b9050919050565b7f4665652070657263656e74203e203130250000000000000000000000000000005f82015250565b5f615529601183613be1565b9150615534826154f5565b602082019050919050565b5f6020820190508181035f8301526155568161551d565b9050919050565b5f819050919050565b61557761557282613dda565b61555d565b82525050565b5f8160601b9050919050565b5f6155938261557d565b9050919050565b5f6155a482615589565b9050919050565b6155bc6155b782613ed9565b61559a565b82525050565b5f819050919050565b6155dc6155d782613a8d565b6155c2565b82525050565b5f8160e01b9050919050565b5f6155f8826155e2565b9050919050565b61561061560b82614015565b6155ee565b82525050565b5f6156218288615566565b6020820191506156318287615566565b60208201915061564182866155ab565b60148201915061565182856155cb565b60208201915061566182846155ff565b6004820191508190509695505050505050565b7f426c6f636b636861696e206578697374730000000000000000000000000000005f82015250565b5f6156a8601183613be1565b91506156b382615674565b602082019050919050565b5f6020820190508181035f8301526156d58161569c565b9050919050565b7f6e65774f776e65722063616e206e6f74206265206d73672e73656e64657200005f82015250565b5f615710601e83613be1565b915061571b826156dc565b602082019050919050565b5f6020820190508181035f83015261573d81615704565b9050919050565b7f6e65774f776e65722063616e206e6f74206265207a65726f00000000000000005f82015250565b5f615778601883613be1565b915061578382615744565b602082019050919050565b5f6020820190508181035f8301526157a58161576c565b9050919050565b7f5061757361626c653a20706175736564000000000000000000000000000000005f82015250565b5f6157e0601083613be1565b91506157eb826157ac565b602082019050919050565b5f6020820190508181035f83015261580d816157d4565b9050919050565b7f70726f63657373656400000000000000000000000000000000000000000000005f82015250565b5f615848600983613be1565b915061585382615814565b602082019050919050565b5f6020820190508181035f8301526158758161583c565b9050919050565b7f696e73756666696369656e742062616c616e63650000000000000000000000005f82015250565b5f6158b0601483613be1565b91506158bb8261587c565b602082019050919050565b5f6020820190508181035f8301526158dd816158a4565b9050919050565b5f81905092915050565b50565b5f6158fc5f836158e4565b9150615907826158ee565b5f82019050919050565b5f61591b826158f1565b9150819050919050565b5f6060820190506159385f8301866143d8565b61594560208301856143d8565b6159526040830184613a96565b949350505050565b5f60408201905061596d5f8301856143d8565b61597a6020830184613a96565b9392505050565b5f6040820190506159945f8301856143d8565b6159a16020830184613e38565b9392505050565b7f5061757361626c653a206e6f74207061757365640000000000000000000000005f82015250565b5f6159dc601483613be1565b91506159e7826159a8565b602082019050919050565b5f6020820190508181035f830152615a09816159d0565b9050919050565b615a1981613b4f565b8114615a23575f80fd5b50565b5f81519050615a3481615a10565b92915050565b5f60208284031215615a4f57615a4e613ac7565b5b5f615a5c84828501615a26565b91505092915050565b5f81519050919050565b5f615a7982615a65565b615a8381856158e4565b9350615a93818560208601613bf1565b80840191505092915050565b5f615aaa8284615a6f565b91508190509291505056fea264697066735822122093ee27abea846586607cdc86c8481e9fc8940c0ed08ad90c2daf6f982a34aa8564736f6c634300081a0033",
			"opcodes": "PUSH1 0x80 PUSH1 0x40 MSTORE CALLVALUE DUP1 ISZERO PUSH2 0xF JUMPI PUSH0 DUP1 REVERT JUMPDEST POP PUSH2 0x26 PUSH4 0x1FFC9A7 PUSH1 0xE0 SHL PUSH2 0x44 PUSH1 0x20 SHL PUSH1 0x20 SHR JUMP JUMPDEST PUSH0 PUSH1 0x2 PUSH0 PUSH2 0x100 EXP DUP2 SLOAD DUP2 PUSH1 0xFF MUL NOT AND SWAP1 DUP4 ISZERO ISZERO MUL OR SWAP1 SSTORE POP PUSH2 0x18D JUMP JUMPDEST PUSH4 0xFFFFFFFF PUSH1 0xE0 SHL DUP2 PUSH28 0xFFFFFFFFFFFFFFFFFFFFFFFFFFFFFFFFFFFFFFFFFFFFFFFFFFFFFFFF NOT AND SUB PUSH2 0xAC JUMPI PUSH1 0x40 MLOAD PUSH32 0x8C379A000000000000000000000000000000000000000000000000000000000 DUP2 MSTORE PUSH1 0x4 ADD PUSH2 0xA3 SWAP1 PUSH2 0x16F JUMP JUMPDEST PUSH1 0x40 MLOAD DUP1 SWAP2 SUB SWAP1 REVERT JUMPDEST PUSH1 0x1 PUSH0 DUP1 DUP4 PUSH28 0xFFFFFFFFFFFFFFFFFFFFFFFFFFFFFFFFFFFFFFFFFFFFFFFFFFFFFFFF NOT AND PUSH28 0xFFFFFFFFFFFFFFFFFFFFFFFFFFFFFFFFFFFFFFFFFFFFFFFFFFFFFFFF NOT AND DUP2 MSTORE PUSH1 0x20 ADD SWAP1 DUP2 MSTORE PUSH1 0x20 ADD PUSH0 KECCAK256 PUSH0 PUSH2 0x100 EXP DUP2 SLOAD DUP2 PUSH1 0xFF MUL NOT AND SWAP1 DUP4 ISZERO ISZERO MUL OR SWAP1 SSTORE POP POP JUMP JUMPDEST PUSH0 DUP3 DUP3 MSTORE PUSH1 0x20 DUP3 ADD SWAP1 POP SWAP3 SWAP2 POP POP JUMP JUMPDEST PUSH32 0x4552433136353A20696E76616C696420696E7465726661636520696400000000 PUSH0 DUP3 ADD MSTORE POP JUMP JUMPDEST PUSH0 PUSH2 0x159 PUSH1 0x1C DUP4 PUSH2 0x115 JUMP JUMPDEST SWAP2 POP PUSH2 0x164 DUP3 PUSH2 0x125 JUMP JUMPDEST PUSH1 0x20 DUP3 ADD SWAP1 POP SWAP2 SWAP1 POP JUMP JUMPDEST PUSH0 PUSH1 0x20 DUP3 ADD SWAP1 POP DUP2 DUP2 SUB PUSH0 DUP4 ADD MSTORE PUSH2 0x186 DUP2 PUSH2 0x14D JUMP JUMPDEST SWAP1 POP SWAP2 SWAP1 POP JUMP JUMPDEST PUSH2 0x5AEB DUP1 PUSH2 0x19A PUSH0 CODECOPY PUSH0 RETURN INVALID PUSH1 0x80 PUSH1 0x40 MSTORE PUSH1 0x4 CALLDATASIZE LT PUSH2 0x249 JUMPI PUSH0 CALLDATALOAD PUSH1 0xE0 SHR DUP1 PUSH4 0x8689B322 GT PUSH2 0x138 JUMPI DUP1 PUSH4 0xC4251339 GT PUSH2 0xB5 JUMPI DUP1 PUSH4 0xF11B7C33 GT PUSH2 0x79 JUMPI DUP1 PUSH4 0xF11B7C33 EQ PUSH2 0x93E JUMPI DUP1 PUSH4 0xF2E1FA65 EQ PUSH2 0x968 JUMPI DUP1 PUSH4 0xF2FCDBD3 EQ PUSH2 0x9A4 JUMPI DUP1 PUSH4 0xF2FDE38B EQ PUSH2 0x9E0 JUMPI DUP1 PUSH4 0xFAE36AFB EQ PUSH2 0xA1C JUMPI DUP1 PUSH4 0xFC0C546A EQ PUSH2 0xA46 JUMPI PUSH2 0x250 JUMP JUMPDEST DUP1 PUSH4 0xC4251339 EQ PUSH2 0x83A JUMPI DUP1 PUSH4 0xC9B4D653 EQ PUSH2 0x876 JUMPI DUP1 PUSH4 0xD542A501 EQ PUSH2 0x8B2 JUMPI DUP1 PUSH4 0xD547741F EQ PUSH2 0x8DA JUMPI DUP1 PUSH4 0xE8340A99 EQ PUSH2 0x902 JUMPI PUSH2 0x250 JUMP JUMPDEST DUP1 PUSH4 0xB715F98F GT PUSH2 0xFC JUMPI DUP1 PUSH4 0xB715F98F EQ PUSH2 0x720 JUMPI DUP1 PUSH4 0xB8C48A28 EQ PUSH2 0x74A JUMPI DUP1 PUSH4 0xBB13CA3B EQ PUSH2 0x786 JUMPI DUP1 PUSH4 0xBE4B1772 EQ PUSH2 0x7C2 JUMPI DUP1 PUSH4 0xC1F0808A EQ PUSH2 0x7FE JUMPI PUSH2 0x250 JUMP JUMPDEST DUP1 PUSH4 0x8689B322 EQ PUSH2 0x612 JUMPI DUP1 PUSH4 0x91D14854 EQ PUSH2 0x64E JUMPI DUP1 PUSH4 0x9D1E034D EQ PUSH2 0x68A JUMPI DUP1 PUSH4 0xA217FDDF EQ PUSH2 0x6C6 JUMPI DUP1 PUSH4 0xA36185F4 EQ PUSH2 0x6F0 JUMPI PUSH2 0x250 JUMP JUMPDEST DUP1 PUSH4 0x4D9B47E2 GT PUSH2 0x1C6 JUMPI DUP1 PUSH4 0x646AC61C GT PUSH2 0x18A JUMPI DUP1 PUSH4 0x646AC61C EQ PUSH2 0x542 JUMPI DUP1 PUSH4 0x6D2133E1 EQ PUSH2 0x56C JUMPI DUP1 PUSH4 0x7DAD0D57 EQ PUSH2 0x596 JUMPI DUP1 PUSH4 0x82B2E257 EQ PUSH2 0x5D2 JUMPI DUP1 PUSH4 0x8456CB59 EQ PUSH2 0x5FC JUMPI PUSH2 0x250 JUMP JUMPDEST DUP1 PUSH4 0x4D9B47E2 EQ PUSH2 0x43A JUMPI DUP1 PUSH4 0x525A34E3 EQ PUSH2 0x464 JUMPI DUP1 PUSH4 0x5A075F92 EQ PUSH2 0x4A0 JUMPI DUP1 PUSH4 0x5C975ABB EQ PUSH2 0x4DC JUMPI DUP1 PUSH4 0x5D27FC70 EQ PUSH2 0x506 JUMPI PUSH2 0x250 JUMP JUMPDEST DUP1 PUSH4 0x29C9A4DA GT PUSH2 0x20D JUMPI DUP1 PUSH4 0x29C9A4DA EQ PUSH2 0x36E JUMPI DUP1 PUSH4 0x2A76E481 EQ PUSH2 0x3AA JUMPI DUP1 PUSH4 0x2F2FF15D EQ PUSH2 0x3D4 JUMPI DUP1 PUSH4 0x36568ABE EQ PUSH2 0x3FC JUMPI DUP1 PUSH4 0x3F4BA83A EQ PUSH2 0x424 JUMPI PUSH2 0x250 JUMP JUMPDEST DUP1 PUSH4 0x1C234A8 EQ PUSH2 0x254 JUMPI DUP1 PUSH4 0x1FFC9A7 EQ PUSH2 0x27E JUMPI DUP1 PUSH4 0x1D316A5D EQ PUSH2 0x2BA JUMPI DUP1 PUSH4 0x212258A8 EQ PUSH2 0x2F6 JUMPI DUP1 PUSH4 0x248A9CA3 EQ PUSH2 0x332 JUMPI PUSH2 0x250 JUMP JUMPDEST CALLDATASIZE PUSH2 0x250 JUMPI STOP JUMPDEST PUSH0 DUP1 REVERT JUMPDEST CALLVALUE DUP1 ISZERO PUSH2 0x25F JUMPI PUSH0 DUP1 REVERT JUMPDEST POP PUSH2 0x268 PUSH2 0xA70 JUMP JUMPDEST PUSH1 0x40 MLOAD PUSH2 0x275 SWAP2 SWAP1 PUSH2 0x3AA5 JUMP JUMPDEST PUSH1 0x40 MLOAD DUP1 SWAP2 SUB SWAP1 RETURN JUMPDEST CALLVALUE DUP1 ISZERO PUSH2 0x289 JUMPI PUSH0 DUP1 REVERT JUMPDEST POP PUSH2 0x2A4 PUSH1 0x4 DUP1 CALLDATASIZE SUB DUP2 ADD SWAP1 PUSH2 0x29F SWAP2 SWAP1 PUSH2 0x3B24 JUMP JUMPDEST PUSH2 0xA76 JUMP JUMPDEST PUSH1 0x40 MLOAD PUSH2 0x2B1 SWAP2 SWAP1 PUSH2 0x3B69 JUMP JUMPDEST PUSH1 0x40 MLOAD DUP1 SWAP2 SUB SWAP1 RETURN JUMPDEST CALLVALUE DUP1 ISZERO PUSH2 0x2C5 JUMPI PUSH0 DUP1 REVERT JUMPDEST POP PUSH2 0x2E0 PUSH1 0x4 DUP1 CALLDATASIZE SUB DUP2 ADD SWAP1 PUSH2 0x2DB SWAP2 SWAP1 PUSH2 0x3BAC JUMP JUMPDEST PUSH2 0xAEF JUMP JUMPDEST PUSH1 0x40 MLOAD PUSH2 0x2ED SWAP2 SWAP1 PUSH2 0x3C47 JUMP JUMPDEST PUSH1 0x40 MLOAD DUP1 SWAP2 SUB SWAP1 RETURN JUMPDEST CALLVALUE DUP1 ISZERO PUSH2 0x301 JUMPI PUSH0 DUP1 REVERT JUMPDEST POP PUSH2 0x31C PUSH1 0x4 DUP1 CALLDATASIZE SUB DUP2 ADD SWAP1 PUSH2 0x317 SWAP2 SWAP1 PUSH2 0x3D93 JUMP JUMPDEST PUSH2 0xB95 JUMP JUMPDEST PUSH1 0x40 MLOAD PUSH2 0x329 SWAP2 SWAP1 PUSH2 0x3AA5 JUMP JUMPDEST PUSH1 0x40 MLOAD DUP1 SWAP2 SUB SWAP1 RETURN JUMPDEST CALLVALUE DUP1 ISZERO PUSH2 0x33D JUMPI PUSH0 DUP1 REVERT JUMPDEST POP PUSH2 0x358 PUSH1 0x4 DUP1 CALLDATASIZE SUB DUP2 ADD SWAP1 PUSH2 0x353 SWAP2 SWAP1 PUSH2 0x3E0D JUMP JUMPDEST PUSH2 0xBE6 JUMP JUMPDEST PUSH1 0x40 MLOAD PUSH2 0x365 SWAP2 SWAP1 PUSH2 0x3E47 JUMP JUMPDEST PUSH1 0x40 MLOAD DUP1 SWAP2 SUB SWAP1 RETURN JUMPDEST CALLVALUE DUP1 ISZERO PUSH2 0x379 JUMPI PUSH0 DUP1 REVERT JUMPDEST POP PUSH2 0x394 PUSH1 0x4 DUP1 CALLDATASIZE SUB DUP2 ADD SWAP1 PUSH2 0x38F SWAP2 SWAP1 PUSH2 0x3E60 JUMP JUMPDEST PUSH2 0xC03 JUMP JUMPDEST PUSH1 0x40 MLOAD PUSH2 0x3A1 SWAP2 SWAP1 PUSH2 0x3B69 JUMP JUMPDEST PUSH1 0x40 MLOAD DUP1 SWAP2 SUB SWAP1 RETURN JUMPDEST CALLVALUE DUP1 ISZERO PUSH2 0x3B5 JUMPI PUSH0 DUP1 REVERT JUMPDEST POP PUSH2 0x3BE PUSH2 0xD5B JUMP JUMPDEST PUSH1 0x40 MLOAD PUSH2 0x3CB SWAP2 SWAP1 PUSH2 0x3AA5 JUMP JUMPDEST PUSH1 0x40 MLOAD DUP1 SWAP2 SUB SWAP1 RETURN JUMPDEST CALLVALUE DUP1 ISZERO PUSH2 0x3DF JUMPI PUSH0 DUP1 REVERT JUMPDEST POP PUSH2 0x3FA PUSH1 0x4 DUP1 CALLDATASIZE SUB DUP2 ADD SWAP1 PUSH2 0x3F5 SWAP2 SWAP1 PUSH2 0x3F14 JUMP JUMPDEST PUSH2 0xD61 JUMP JUMPDEST STOP JUMPDEST CALLVALUE DUP1 ISZERO PUSH2 0x407 JUMPI PUSH0 DUP1 REVERT JUMPDEST POP PUSH2 0x422 PUSH1 0x4 DUP1 CALLDATASIZE SUB DUP2 ADD SWAP1 PUSH2 0x41D SWAP2 SWAP1 PUSH2 0x3F14 JUMP JUMPDEST PUSH2 0xD83 JUMP JUMPDEST STOP JUMPDEST CALLVALUE DUP1 ISZERO PUSH2 0x42F JUMPI PUSH0 DUP1 REVERT JUMPDEST POP PUSH2 0x438 PUSH2 0xE4A JUMP JUMPDEST STOP JUMPDEST CALLVALUE DUP1 ISZERO PUSH2 0x445 JUMPI PUSH0 DUP1 REVERT JUMPDEST POP PUSH2 0x44E PUSH2 0xEA6 JUMP JUMPDEST PUSH1 0x40 MLOAD PUSH2 0x45B SWAP2 SWAP1 PUSH2 0x3E47 JUMP JUMPDEST PUSH1 0x40 MLOAD DUP1 SWAP2 SUB SWAP1 RETURN JUMPDEST CALLVALUE DUP1 ISZERO PUSH2 0x46F JUMPI PUSH0 DUP1 REVERT JUMPDEST POP PUSH2 0x48A PUSH1 0x4 DUP1 CALLDATASIZE SUB DUP2 ADD SWAP1 PUSH2 0x485 SWAP2 SWAP1 PUSH2 0x3BAC JUMP JUMPDEST PUSH2 0xECA JUMP JUMPDEST PUSH1 0x40 MLOAD PUSH2 0x497 SWAP2 SWAP1 PUSH2 0x3B69 JUMP JUMPDEST PUSH1 0x40 MLOAD DUP1 SWAP2 SUB SWAP1 RETURN JUMPDEST CALLVALUE DUP1 ISZERO PUSH2 0x4AB JUMPI PUSH0 DUP1 REVERT JUMPDEST POP PUSH2 0x4C6 PUSH1 0x4 DUP1 CALLDATASIZE SUB DUP2 ADD SWAP1 PUSH2 0x4C1 SWAP2 SWAP1 PUSH2 0x3BAC JUMP JUMPDEST PUSH2 0xFB4 JUMP JUMPDEST PUSH1 0x40 MLOAD PUSH2 0x4D3 SWAP2 SWAP1 PUSH2 0x3B69 JUMP JUMPDEST PUSH1 0x40 MLOAD DUP1 SWAP2 SUB SWAP1 RETURN JUMPDEST CALLVALUE DUP1 ISZERO PUSH2 0x4E7 JUMPI PUSH0 DUP1 REVERT JUMPDEST POP PUSH2 0x4F0 PUSH2 0x1017 JUMP JUMPDEST PUSH1 0x40 MLOAD PUSH2 0x4FD SWAP2 SWAP1 PUSH2 0x3B69 JUMP JUMPDEST PUSH1 0x40 MLOAD DUP1 SWAP2 SUB SWAP1 RETURN JUMPDEST CALLVALUE DUP1 ISZERO PUSH2 0x511 JUMPI PUSH0 DUP1 REVERT JUMPDEST POP PUSH2 0x52C PUSH1 0x4 DUP1 CALLDATASIZE SUB DUP2 ADD SWAP1 PUSH2 0x527 SWAP2 SWAP1 PUSH2 0x3F52 JUMP JUMPDEST PUSH2 0x102C JUMP JUMPDEST PUSH1 0x40 MLOAD PUSH2 0x539 SWAP2 SWAP1 PUSH2 0x3B69 JUMP JUMPDEST PUSH1 0x40 MLOAD DUP1 SWAP2 SUB SWAP1 RETURN JUMPDEST CALLVALUE DUP1 ISZERO PUSH2 0x54D JUMPI PUSH0 DUP1 REVERT JUMPDEST POP PUSH2 0x556 PUSH2 0x10BA JUMP JUMPDEST PUSH1 0x40 MLOAD PUSH2 0x563 SWAP2 SWAP1 PUSH2 0x3AA5 JUMP JUMPDEST PUSH1 0x40 MLOAD DUP1 SWAP2 SUB SWAP1 RETURN JUMPDEST CALLVALUE DUP1 ISZERO PUSH2 0x577 JUMPI PUSH0 DUP1 REVERT JUMPDEST POP PUSH2 0x580 PUSH2 0x10C0 JUMP JUMPDEST PUSH1 0x40 MLOAD PUSH2 0x58D SWAP2 SWAP1 PUSH2 0x3AA5 JUMP JUMPDEST PUSH1 0x40 MLOAD DUP1 SWAP2 SUB SWAP1 RETURN JUMPDEST CALLVALUE DUP1 ISZERO PUSH2 0x5A1 JUMPI PUSH0 DUP1 REVERT JUMPDEST POP PUSH2 0x5BC PUSH1 0x4 DUP1 CALLDATASIZE SUB DUP2 ADD SWAP1 PUSH2 0x5B7 SWAP2 SWAP1 PUSH2 0x404E JUMP JUMPDEST PUSH2 0x10C6 JUMP JUMPDEST PUSH1 0x40 MLOAD PUSH2 0x5C9 SWAP2 SWAP1 PUSH2 0x3B69 JUMP JUMPDEST PUSH1 0x40 MLOAD DUP1 SWAP2 SUB SWAP1 RETURN JUMPDEST CALLVALUE DUP1 ISZERO PUSH2 0x5DD JUMPI PUSH0 DUP1 REVERT JUMPDEST POP PUSH2 0x5E6 PUSH2 0x1329 JUMP JUMPDEST PUSH1 0x40 MLOAD PUSH2 0x5F3 SWAP2 SWAP1 PUSH2 0x3AA5 JUMP JUMPDEST PUSH1 0x40 MLOAD DUP1 SWAP2 SUB SWAP1 RETURN JUMPDEST CALLVALUE DUP1 ISZERO PUSH2 0x607 JUMPI PUSH0 DUP1 REVERT JUMPDEST POP PUSH2 0x610 PUSH2 0x1427 JUMP JUMPDEST STOP JUMPDEST CALLVALUE DUP1 ISZERO PUSH2 0x61D JUMPI PUSH0 DUP1 REVERT JUMPDEST POP PUSH2 0x638 PUSH1 0x4 DUP1 CALLDATASIZE SUB DUP2 ADD SWAP1 PUSH2 0x633 SWAP2 SWAP1 PUSH2 0x3D93 JUMP JUMPDEST PUSH2 0x1483 JUMP JUMPDEST PUSH1 0x40 MLOAD PUSH2 0x645 SWAP2 SWAP1 PUSH2 0x3B69 JUMP JUMPDEST PUSH1 0x40 MLOAD DUP1 SWAP2 SUB SWAP1 RETURN JUMPDEST CALLVALUE DUP1 ISZERO PUSH2 0x659 JUMPI PUSH0 DUP1 REVERT JUMPDEST POP PUSH2 0x674 PUSH1 0x4 DUP1 CALLDATASIZE SUB DUP2 ADD SWAP1 PUSH2 0x66F SWAP2 SWAP1 PUSH2 0x3F14 JUMP JUMPDEST PUSH2 0x174B JUMP JUMPDEST PUSH1 0x40 MLOAD PUSH2 0x681 SWAP2 SWAP1 PUSH2 0x3B69 JUMP JUMPDEST PUSH1 0x40 MLOAD DUP1 SWAP2 SUB SWAP1 RETURN JUMPDEST CALLVALUE DUP1 ISZERO PUSH2 0x695 JUMPI PUSH0 DUP1 REVERT JUMPDEST POP PUSH2 0x6B0 PUSH1 0x4 DUP1 CALLDATASIZE SUB DUP2 ADD SWAP1 PUSH2 0x6AB SWAP2 SWAP1 PUSH2 0x3E60 JUMP JUMPDEST PUSH2 0x17AF JUMP JUMPDEST PUSH1 0x40 MLOAD PUSH2 0x6BD SWAP2 SWAP1 PUSH2 0x3AA5 JUMP JUMPDEST PUSH1 0x40 MLOAD DUP1 SWAP2 SUB SWAP1 RETURN JUMPDEST CALLVALUE DUP1 ISZERO PUSH2 0x6D1 JUMPI PUSH0 DUP1 REVERT JUMPDEST POP PUSH2 0x6DA PUSH2 0x18FC JUMP JUMPDEST PUSH1 0x40 MLOAD PUSH2 0x6E7 SWAP2 SWAP1 PUSH2 0x3E47 JUMP JUMPDEST PUSH1 0x40 MLOAD DUP1 SWAP2 SUB SWAP1 RETURN JUMPDEST PUSH2 0x70A PUSH1 0x4 DUP1 CALLDATASIZE SUB DUP2 ADD SWAP1 PUSH2 0x705 SWAP2 SWAP1 PUSH2 0x40F8 JUMP JUMPDEST PUSH2 0x1902 JUMP JUMPDEST PUSH1 0x40 MLOAD PUSH2 0x717 SWAP2 SWAP1 PUSH2 0x3B69 JUMP JUMPDEST PUSH1 0x40 MLOAD DUP1 SWAP2 SUB SWAP1 RETURN JUMPDEST CALLVALUE DUP1 ISZERO PUSH2 0x72B JUMPI PUSH0 DUP1 REVERT JUMPDEST POP PUSH2 0x734 PUSH2 0x1F2A JUMP JUMPDEST PUSH1 0x40 MLOAD PUSH2 0x741 SWAP2 SWAP1 PUSH2 0x428C JUMP JUMPDEST PUSH1 0x40 MLOAD DUP1 SWAP2 SUB SWAP1 RETURN JUMPDEST CALLVALUE DUP1 ISZERO PUSH2 0x755 JUMPI PUSH0 DUP1 REVERT JUMPDEST POP PUSH2 0x770 PUSH1 0x4 DUP1 CALLDATASIZE SUB DUP2 ADD SWAP1 PUSH2 0x76B SWAP2 SWAP1 PUSH2 0x3F52 JUMP JUMPDEST PUSH2 0x1FFE JUMP JUMPDEST PUSH1 0x40 MLOAD PUSH2 0x77D SWAP2 SWAP1 PUSH2 0x3B69 JUMP JUMPDEST PUSH1 0x40 MLOAD DUP1 SWAP2 SUB SWAP1 RETURN JUMPDEST CALLVALUE DUP1 ISZERO PUSH2 0x791 JUMPI PUSH0 DUP1 REVERT JUMPDEST POP PUSH2 0x7AC PUSH1 0x4 DUP1 CALLDATASIZE SUB DUP2 ADD SWAP1 PUSH2 0x7A7 SWAP2 SWAP1 PUSH2 0x3D93 JUMP JUMPDEST PUSH2 0x208C JUMP JUMPDEST PUSH1 0x40 MLOAD PUSH2 0x7B9 SWAP2 SWAP1 PUSH2 0x3B69 JUMP JUMPDEST PUSH1 0x40 MLOAD DUP1 SWAP2 SUB SWAP1 RETURN JUMPDEST CALLVALUE DUP1 ISZERO PUSH2 0x7CD JUMPI PUSH0 DUP1 REVERT JUMPDEST POP PUSH2 0x7E8 PUSH1 0x4 DUP1 CALLDATASIZE SUB DUP2 ADD SWAP1 PUSH2 0x7E3 SWAP2 SWAP1 PUSH2 0x42AC JUMP JUMPDEST PUSH2 0x2354 JUMP JUMPDEST PUSH1 0x40 MLOAD PUSH2 0x7F5 SWAP2 SWAP1 PUSH2 0x3B69 JUMP JUMPDEST PUSH1 0x40 MLOAD DUP1 SWAP2 SUB SWAP1 RETURN JUMPDEST CALLVALUE DUP1 ISZERO PUSH2 0x809 JUMPI PUSH0 DUP1 REVERT JUMPDEST POP PUSH2 0x824 PUSH1 0x4 DUP1 CALLDATASIZE SUB DUP2 ADD SWAP1 PUSH2 0x81F SWAP2 SWAP1 PUSH2 0x3E0D JUMP JUMPDEST PUSH2 0x2618 JUMP JUMPDEST PUSH1 0x40 MLOAD PUSH2 0x831 SWAP2 SWAP1 PUSH2 0x3B69 JUMP JUMPDEST PUSH1 0x40 MLOAD DUP1 SWAP2 SUB SWAP1 RETURN JUMPDEST CALLVALUE DUP1 ISZERO PUSH2 0x845 JUMPI PUSH0 DUP1 REVERT JUMPDEST POP PUSH2 0x860 PUSH1 0x4 DUP1 CALLDATASIZE SUB DUP2 ADD SWAP1 PUSH2 0x85B SWAP2 SWAP1 PUSH2 0x3BAC JUMP JUMPDEST PUSH2 0x2635 JUMP JUMPDEST PUSH1 0x40 MLOAD PUSH2 0x86D SWAP2 SWAP1 PUSH2 0x3C47 JUMP JUMPDEST PUSH1 0x40 MLOAD DUP1 SWAP2 SUB SWAP1 RETURN JUMPDEST CALLVALUE DUP1 ISZERO PUSH2 0x881 JUMPI PUSH0 DUP1 REVERT JUMPDEST POP PUSH2 0x89C PUSH1 0x4 DUP1 CALLDATASIZE SUB DUP2 ADD SWAP1 PUSH2 0x897 SWAP2 SWAP1 PUSH2 0x3D93 JUMP JUMPDEST PUSH2 0x26DB JUMP JUMPDEST PUSH1 0x40 MLOAD PUSH2 0x8A9 SWAP2 SWAP1 PUSH2 0x3B69 JUMP JUMPDEST PUSH1 0x40 MLOAD DUP1 SWAP2 SUB SWAP1 RETURN JUMPDEST CALLVALUE DUP1 ISZERO PUSH2 0x8BD JUMPI PUSH0 DUP1 REVERT JUMPDEST POP PUSH2 0x8D8 PUSH1 0x4 DUP1 CALLDATASIZE SUB DUP2 ADD SWAP1 PUSH2 0x8D3 SWAP2 SWAP1 PUSH2 0x42EA JUMP JUMPDEST PUSH2 0x2713 JUMP JUMPDEST STOP JUMPDEST CALLVALUE DUP1 ISZERO PUSH2 0x8E5 JUMPI PUSH0 DUP1 REVERT JUMPDEST POP PUSH2 0x900 PUSH1 0x4 DUP1 CALLDATASIZE SUB DUP2 ADD SWAP1 PUSH2 0x8FB SWAP2 SWAP1 PUSH2 0x3F14 JUMP JUMPDEST PUSH2 0x29CC JUMP JUMPDEST STOP JUMPDEST CALLVALUE DUP1 ISZERO PUSH2 0x90D JUMPI PUSH0 DUP1 REVERT JUMPDEST POP PUSH2 0x928 PUSH1 0x4 DUP1 CALLDATASIZE SUB DUP2 ADD SWAP1 PUSH2 0x923 SWAP2 SWAP1 PUSH2 0x4361 JUMP JUMPDEST PUSH2 0x29ED JUMP JUMPDEST PUSH1 0x40 MLOAD PUSH2 0x935 SWAP2 SWAP1 PUSH2 0x3E47 JUMP JUMPDEST PUSH1 0x40 MLOAD DUP1 SWAP2 SUB SWAP1 RETURN JUMPDEST CALLVALUE DUP1 ISZERO PUSH2 0x949 JUMPI PUSH0 DUP1 REVERT JUMPDEST POP PUSH2 0x952 PUSH2 0x2A28 JUMP JUMPDEST PUSH1 0x40 MLOAD PUSH2 0x95F SWAP2 SWAP1 PUSH2 0x428C JUMP JUMPDEST PUSH1 0x40 MLOAD DUP1 SWAP2 SUB SWAP1 RETURN JUMPDEST CALLVALUE DUP1 ISZERO PUSH2 0x973 JUMPI PUSH0 DUP1 REVERT JUMPDEST POP PUSH2 0x98E PUSH1 0x4 DUP1 CALLDATASIZE SUB DUP2 ADD SWAP1 PUSH2 0x989 SWAP2 SWAP1 PUSH2 0x3D93 JUMP JUMPDEST PUSH2 0x2AFC JUMP JUMPDEST PUSH1 0x40 MLOAD PUSH2 0x99B SWAP2 SWAP1 PUSH2 0x3B69 JUMP JUMPDEST PUSH1 0x40 MLOAD DUP1 SWAP2 SUB SWAP1 RETURN JUMPDEST CALLVALUE DUP1 ISZERO PUSH2 0x9AF JUMPI PUSH0 DUP1 REVERT JUMPDEST POP PUSH2 0x9CA PUSH1 0x4 DUP1 CALLDATASIZE SUB DUP2 ADD SWAP1 PUSH2 0x9C5 SWAP2 SWAP1 PUSH2 0x3D93 JUMP JUMPDEST PUSH2 0x2B34 JUMP JUMPDEST PUSH1 0x40 MLOAD PUSH2 0x9D7 SWAP2 SWAP1 PUSH2 0x3AA5 JUMP JUMPDEST PUSH1 0x40 MLOAD DUP1 SWAP2 SUB SWAP1 RETURN JUMPDEST CALLVALUE DUP1 ISZERO PUSH2 0x9EB JUMPI PUSH0 DUP1 REVERT JUMPDEST POP PUSH2 0xA06 PUSH1 0x4 DUP1 CALLDATASIZE SUB DUP2 ADD SWAP1 PUSH2 0xA01 SWAP2 SWAP1 PUSH2 0x3F52 JUMP JUMPDEST PUSH2 0x2C77 JUMP JUMPDEST PUSH1 0x40 MLOAD PUSH2 0xA13 SWAP2 SWAP1 PUSH2 0x3B69 JUMP JUMPDEST PUSH1 0x40 MLOAD DUP1 SWAP2 SUB SWAP1 RETURN JUMPDEST CALLVALUE DUP1 ISZERO PUSH2 0xA27 JUMPI PUSH0 DUP1 REVERT JUMPDEST POP PUSH2 0xA30 PUSH2 0x2E1E JUMP JUMPDEST PUSH1 0x40 MLOAD PUSH2 0xA3D SWAP2 SWAP1 PUSH2 0x43E7 JUMP JUMPDEST PUSH1 0x40 MLOAD DUP1 SWAP2 SUB SWAP1 RETURN JUMPDEST CALLVALUE DUP1 ISZERO PUSH2 0xA51 JUMPI PUSH0 DUP1 REVERT JUMPDEST POP PUSH2 0xA5A PUSH2 0x2E43 JUMP JUMPDEST PUSH1 0x40 MLOAD PUSH2 0xA67 SWAP2 SWAP1 PUSH2 0x43E7 JUMP JUMPDEST PUSH1 0x40 MLOAD DUP1 SWAP2 SUB SWAP1 RETURN JUMPDEST PUSH2 0x3E8 DUP2 JUMP JUMPDEST PUSH0 PUSH32 0x7965DB0B00000000000000000000000000000000000000000000000000000000 PUSH28 0xFFFFFFFFFFFFFFFFFFFFFFFFFFFFFFFFFFFFFFFFFFFFFFFFFFFFFFFF NOT AND DUP3 PUSH28 0xFFFFFFFFFFFFFFFFFFFFFFFFFFFFFFFFFFFFFFFFFFFFFFFFFFFFFFFF NOT AND EQ DUP1 PUSH2 0xAE8 JUMPI POP PUSH2 0xAE7 DUP3 PUSH2 0x2E69 JUMP JUMPDEST JUMPDEST SWAP1 POP SWAP2 SWAP1 POP JUMP JUMPDEST PUSH1 0xC DUP2 DUP2 SLOAD DUP2 LT PUSH2 0xAFE JUMPI PUSH0 DUP1 REVERT JUMPDEST SWAP1 PUSH0 MSTORE PUSH1 0x20 PUSH0 KECCAK256 ADD PUSH0 SWAP2 POP SWAP1 POP DUP1 SLOAD PUSH2 0xB16 SWAP1 PUSH2 0x442D JUMP JUMPDEST DUP1 PUSH1 0x1F ADD PUSH1 0x20 DUP1 SWAP2 DIV MUL PUSH1 0x20 ADD PUSH1 0x40 MLOAD SWAP1 DUP2 ADD PUSH1 0x40 MSTORE DUP1 SWAP3 SWAP2 SWAP1 DUP2 DUP2 MSTORE PUSH1 0x20 ADD DUP3 DUP1 SLOAD PUSH2 0xB42 SWAP1 PUSH2 0x442D JUMP JUMPDEST DUP1 ISZERO PUSH2 0xB8D JUMPI DUP1 PUSH1 0x1F LT PUSH2 0xB64 JUMPI PUSH2 0x100 DUP1 DUP4 SLOAD DIV MUL DUP4 MSTORE SWAP2 PUSH1 0x20 ADD SWAP2 PUSH2 0xB8D JUMP JUMPDEST DUP3 ADD SWAP2 SWAP1 PUSH0 MSTORE PUSH1 0x20 PUSH0 KECCAK256 SWAP1 JUMPDEST DUP2 SLOAD DUP2 MSTORE SWAP1 PUSH1 0x1 ADD SWAP1 PUSH1 0x20 ADD DUP1 DUP4 GT PUSH2 0xB70 JUMPI DUP3 SWAP1 SUB PUSH1 0x1F AND DUP3 ADD SWAP2 JUMPDEST POP POP POP POP POP DUP2 JUMP JUMPDEST PUSH0 PUSH1 0xB PUSH1 0x1 PUSH1 0x9 DUP5 PUSH1 0x40 MLOAD PUSH2 0xBAA SWAP2 SWAP1 PUSH2 0x4497 JUMP JUMPDEST SWAP1 DUP2 MSTORE PUSH1 0x20 ADD PUSH1 0x40 MLOAD DUP1 SWAP2 SUB SWAP1 KECCAK256 SLOAD PUSH2 0xBC3 SWAP2 SWAP1 PUSH2 0x44DA JUMP JUMPDEST DUP2 SLOAD DUP2 LT PUSH2 0xBD4 JUMPI PUSH2 0xBD3 PUSH2 0x450D JUMP JUMPDEST JUMPDEST SWAP1 PUSH0 MSTORE PUSH1 0x20 PUSH0 KECCAK256 ADD PUSH0 ADD SLOAD SWAP1 POP SWAP2 SWAP1 POP JUMP JUMPDEST PUSH0 PUSH1 0x1 PUSH0 DUP4 DUP2 MSTORE PUSH1 0x20 ADD SWAP1 DUP2 MSTORE PUSH1 0x20 ADD PUSH0 KECCAK256 PUSH1 0x1 ADD SLOAD SWAP1 POP SWAP2 SWAP1 POP JUMP JUMPDEST PUSH0 PUSH2 0xC17 PUSH0 DUP1 SHL PUSH2 0xC12 PUSH2 0x2ECC JUMP JUMPDEST PUSH2 0x174B JUMP JUMPDEST PUSH2 0xC56 JUMPI PUSH1 0x40 MLOAD PUSH32 0x8C379A000000000000000000000000000000000000000000000000000000000 DUP2 MSTORE PUSH1 0x4 ADD PUSH2 0xC4D SWAP1 PUSH2 0x4584 JUMP JUMPDEST PUSH1 0x40 MLOAD DUP1 SWAP2 SUB SWAP1 REVERT JUMPDEST PUSH2 0xC5E PUSH2 0x2ED3 JUMP JUMPDEST PUSH2 0xC67 DUP4 PUSH2 0x2AFC JUMP JUMPDEST PUSH2 0xCA6 JUMPI PUSH1 0x40 MLOAD PUSH32 0x8C379A000000000000000000000000000000000000000000000000000000000 DUP2 MSTORE PUSH1 0x4 ADD PUSH2 0xC9D SWAP1 PUSH2 0x45EC JUMP JUMPDEST PUSH1 0x40 MLOAD DUP1 SWAP2 SUB SWAP1 REVERT JUMPDEST PUSH0 PUSH1 0x1 PUSH1 0x9 DUP6 PUSH1 0x40 MLOAD PUSH2 0xCB9 SWAP2 SWAP1 PUSH2 0x4497 JUMP JUMPDEST SWAP1 DUP2 MSTORE PUSH1 0x20 ADD PUSH1 0x40 MLOAD DUP1 SWAP2 SUB SWAP1 KECCAK256 SLOAD PUSH2 0xCD2 SWAP2 SWAP1 PUSH2 0x44DA JUMP JUMPDEST SWAP1 POP PUSH32 0x4B44A0F1F9AD83F48CE1C55D8B93720658C4DBDD91F7C1D3F22612CD6474AB7B DUP5 PUSH1 0xB DUP4 DUP2 SLOAD DUP2 LT PUSH2 0xD0A JUMPI PUSH2 0xD09 PUSH2 0x450D JUMP JUMPDEST JUMPDEST SWAP1 PUSH0 MSTORE PUSH1 0x20 PUSH0 KECCAK256 ADD PUSH0 ADD SLOAD DUP6 PUSH1 0x40 MLOAD PUSH2 0xD25 SWAP4 SWAP3 SWAP2 SWAP1 PUSH2 0x460A JUMP JUMPDEST PUSH1 0x40 MLOAD DUP1 SWAP2 SUB SWAP1 LOG1 DUP3 PUSH1 0xB DUP3 DUP2 SLOAD DUP2 LT PUSH2 0xD42 JUMPI PUSH2 0xD41 PUSH2 0x450D JUMP JUMPDEST JUMPDEST SWAP1 PUSH0 MSTORE PUSH1 0x20 PUSH0 KECCAK256 ADD PUSH0 ADD DUP2 SWAP1 SSTORE POP PUSH1 0x1 SWAP2 POP POP SWAP3 SWAP2 POP POP JUMP JUMPDEST PUSH1 0x5 SLOAD DUP2 JUMP JUMPDEST PUSH2 0xD6A DUP3 PUSH2 0xBE6 JUMP JUMPDEST PUSH2 0xD73 DUP2 PUSH2 0x2F1D JUMP JUMPDEST PUSH2 0xD7D DUP4 DUP4 PUSH2 0x2F31 JUMP JUMPDEST POP POP POP POP JUMP JUMPDEST PUSH0 DUP1 SHL DUP3 SUB PUSH2 0xDC7 JUMPI PUSH1 0x40 MLOAD PUSH32 0x8C379A000000000000000000000000000000000000000000000000000000000 DUP2 MSTORE PUSH1 0x4 ADD PUSH2 0xDBE SWAP1 PUSH2 0x4690 JUMP JUMPDEST PUSH1 0x40 MLOAD DUP1 SWAP2 SUB SWAP1 REVERT JUMPDEST PUSH2 0xDCF PUSH2 0x2ECC JUMP JUMPDEST PUSH20 0xFFFFFFFFFFFFFFFFFFFFFFFFFFFFFFFFFFFFFFFF AND DUP2 PUSH20 0xFFFFFFFFFFFFFFFFFFFFFFFFFFFFFFFFFFFFFFFF AND EQ PUSH2 0xE3C JUMPI PUSH1 0x40 MLOAD PUSH32 0x8C379A000000000000000000000000000000000000000000000000000000000 DUP2 MSTORE PUSH1 0x4 ADD PUSH2 0xE33 SWAP1 PUSH2 0x46F8 JUMP JUMPDEST PUSH1 0x40 MLOAD DUP1 SWAP2 SUB SWAP1 REVERT JUMPDEST PUSH2 0xE46 DUP3 DUP3 PUSH2 0x301A JUMP JUMPDEST POP POP JUMP JUMPDEST PUSH2 0xE5D PUSH0 DUP1 SHL PUSH2 0xE58 PUSH2 0x2ECC JUMP JUMPDEST PUSH2 0x174B JUMP JUMPDEST PUSH2 0xE9C JUMPI PUSH1 0x40 MLOAD PUSH32 0x8C379A000000000000000000000000000000000000000000000000000000000 DUP2 MSTORE PUSH1 0x4 ADD PUSH2 0xE93 SWAP1 PUSH2 0x4584 JUMP JUMPDEST PUSH1 0x40 MLOAD DUP1 SWAP2 SUB SWAP1 REVERT JUMPDEST PUSH2 0xEA4 PUSH2 0x3095 JUMP JUMPDEST JUMP JUMPDEST PUSH32 0x8227712EF8AD39D0F26F06731EF0DF8665EB7ADA7F41B1EE089ADF3C238862A2 DUP2 JUMP JUMPDEST PUSH0 PUSH2 0xEDE PUSH0 DUP1 SHL PUSH2 0xED9 PUSH2 0x2ECC JUMP JUMPDEST PUSH2 0x174B JUMP JUMPDEST PUSH2 0xF1D JUMPI PUSH1 0x40 MLOAD PUSH32 0x8C379A000000000000000000000000000000000000000000000000000000000 DUP2 MSTORE PUSH1 0x4 ADD PUSH2 0xF14 SWAP1 PUSH2 0x4584 JUMP JUMPDEST PUSH1 0x40 MLOAD DUP1 SWAP2 SUB SWAP1 REVERT JUMPDEST PUSH2 0xF25 PUSH2 0x2ED3 JUMP JUMPDEST PUSH1 0x64 DUP3 GT ISZERO PUSH2 0xF69 JUMPI PUSH1 0x40 MLOAD PUSH32 0x8C379A000000000000000000000000000000000000000000000000000000000 DUP2 MSTORE PUSH1 0x4 ADD PUSH2 0xF60 SWAP1 PUSH2 0x4760 JUMP JUMPDEST PUSH1 0x40 MLOAD DUP1 SWAP2 SUB SWAP1 REVERT JUMPDEST PUSH32 0x423D9A8A1D4011C45245817AB10CC09937B0786496DAD82DBA18141CA4FB7C8E PUSH1 0x5 SLOAD DUP4 PUSH1 0x40 MLOAD PUSH2 0xF9C SWAP3 SWAP2 SWAP1 PUSH2 0x477E JUMP JUMPDEST PUSH1 0x40 MLOAD DUP1 SWAP2 SUB SWAP1 LOG1 DUP2 PUSH1 0x5 DUP2 SWAP1 SSTORE POP PUSH1 0x1 SWAP1 POP SWAP2 SWAP1 POP JUMP JUMPDEST PUSH0 PUSH2 0xFC8 PUSH0 DUP1 SHL PUSH2 0xFC3 PUSH2 0x2ECC JUMP JUMPDEST PUSH2 0x174B JUMP JUMPDEST PUSH2 0x1007 JUMPI PUSH1 0x40 MLOAD PUSH32 0x8C379A000000000000000000000000000000000000000000000000000000000 DUP2 MSTORE PUSH1 0x4 ADD PUSH2 0xFFE SWAP1 PUSH2 0x4584 JUMP JUMPDEST PUSH1 0x40 MLOAD DUP1 SWAP2 SUB SWAP1 REVERT JUMPDEST DUP2 PUSH1 0x4 DUP2 SWAP1 SSTORE POP PUSH1 0x1 SWAP1 POP SWAP2 SWAP1 POP JUMP JUMPDEST PUSH0 PUSH1 0x2 PUSH0 SWAP1 SLOAD SWAP1 PUSH2 0x100 EXP SWAP1 DIV PUSH1 0xFF AND SWAP1 POP SWAP1 JUMP JUMPDEST PUSH0 PUSH2 0x1040 PUSH0 DUP1 SHL PUSH2 0x103B PUSH2 0x2ECC JUMP JUMPDEST PUSH2 0x174B JUMP JUMPDEST PUSH2 0x107F JUMPI PUSH1 0x40 MLOAD PUSH32 0x8C379A000000000000000000000000000000000000000000000000000000000 DUP2 MSTORE PUSH1 0x4 ADD PUSH2 0x1076 SWAP1 PUSH2 0x4584 JUMP JUMPDEST PUSH1 0x40 MLOAD DUP1 SWAP2 SUB SWAP1 REVERT JUMPDEST PUSH2 0x1087 PUSH2 0x2ED3 JUMP JUMPDEST PUSH2 0x10B1 PUSH32 0x8227712EF8AD39D0F26F06731EF0DF8665EB7ADA7F41B1EE089ADF3C238862A2 DUP4 PUSH2 0x29CC JUMP JUMPDEST PUSH1 0x1 SWAP1 POP SWAP2 SWAP1 POP JUMP JUMPDEST PUSH1 0x3 SLOAD DUP2 JUMP JUMPDEST PUSH1 0x4 SLOAD DUP2 JUMP JUMPDEST PUSH0 PUSH2 0x10F8 PUSH32 0x8227712EF8AD39D0F26F06731EF0DF8665EB7ADA7F41B1EE089ADF3C238862A2 PUSH2 0x10F3 PUSH2 0x2ECC JUMP JUMPDEST PUSH2 0x174B JUMP JUMPDEST PUSH2 0x1137 JUMPI PUSH1 0x40 MLOAD PUSH32 0x8C379A000000000000000000000000000000000000000000000000000000000 DUP2 MSTORE PUSH1 0x4 ADD PUSH2 0x112E SWAP1 PUSH2 0x47EF JUMP JUMPDEST PUSH1 0x40 MLOAD DUP1 SWAP2 SUB SWAP1 REVERT JUMPDEST PUSH2 0x113F PUSH2 0x2ED3 JUMP JUMPDEST PUSH0 PUSH20 0xFFFFFFFFFFFFFFFFFFFFFFFFFFFFFFFFFFFFFFFF AND DUP9 PUSH20 0xFFFFFFFFFFFFFFFFFFFFFFFFFFFFFFFFFFFFFFFF AND SUB PUSH2 0x11AD JUMPI PUSH1 0x40 MLOAD PUSH32 0x8C379A000000000000000000000000000000000000000000000000000000000 DUP2 MSTORE PUSH1 0x4 ADD PUSH2 0x11A4 SWAP1 PUSH2 0x4857 JUMP JUMPDEST PUSH1 0x40 MLOAD DUP1 SWAP2 SUB SWAP1 REVERT JUMPDEST PUSH0 DUP8 GT PUSH2 0x11EF JUMPI PUSH1 0x40 MLOAD PUSH32 0x8C379A000000000000000000000000000000000000000000000000000000000 DUP2 MSTORE PUSH1 0x4 ADD PUSH2 0x11E6 SWAP1 PUSH2 0x48BF JUMP JUMPDEST PUSH1 0x40 MLOAD DUP1 SWAP2 SUB SWAP1 REVERT JUMPDEST PUSH2 0x123B DUP7 DUP7 DUP1 DUP1 PUSH1 0x1F ADD PUSH1 0x20 DUP1 SWAP2 DIV MUL PUSH1 0x20 ADD PUSH1 0x40 MLOAD SWAP1 DUP2 ADD PUSH1 0x40 MSTORE DUP1 SWAP4 SWAP3 SWAP2 SWAP1 DUP2 DUP2 MSTORE PUSH1 0x20 ADD DUP4 DUP4 DUP1 DUP3 DUP5 CALLDATACOPY PUSH0 DUP2 DUP5 ADD MSTORE PUSH1 0x1F NOT PUSH1 0x1F DUP3 ADD AND SWAP1 POP DUP1 DUP4 ADD SWAP3 POP POP POP POP POP POP POP PUSH2 0x26DB JUMP JUMPDEST PUSH2 0x127A JUMPI PUSH1 0x40 MLOAD PUSH32 0x8C379A000000000000000000000000000000000000000000000000000000000 DUP2 MSTORE PUSH1 0x4 ADD PUSH2 0x1271 SWAP1 PUSH2 0x4927 JUMP JUMPDEST PUSH1 0x40 MLOAD DUP1 SWAP2 SUB SWAP1 REVERT JUMPDEST PUSH0 DUP1 SHL DUP5 SUB PUSH2 0x12BE JUMPI PUSH1 0x40 MLOAD PUSH32 0x8C379A000000000000000000000000000000000000000000000000000000000 DUP2 MSTORE PUSH1 0x4 ADD PUSH2 0x12B5 SWAP1 PUSH2 0x498F JUMP JUMPDEST PUSH1 0x40 MLOAD DUP1 SWAP2 SUB SWAP1 REVERT JUMPDEST PUSH0 DUP1 SHL DUP4 SUB PUSH2 0x1302 JUMPI PUSH1 0x40 MLOAD PUSH32 0x8C379A000000000000000000000000000000000000000000000000000000000 DUP2 MSTORE PUSH1 0x4 ADD PUSH2 0x12F9 SWAP1 PUSH2 0x49F7 JUMP JUMPDEST PUSH1 0x40 MLOAD DUP1 SWAP2 SUB SWAP1 REVERT JUMPDEST PUSH2 0x130F DUP5 DUP5 DUP11 DUP11 DUP7 PUSH2 0x30F6 JUMP JUMPDEST PUSH2 0x1319 DUP9 DUP9 PUSH2 0x3195 JUMP JUMPDEST POP PUSH1 0x1 SWAP1 POP SWAP8 SWAP7 POP POP POP POP POP POP POP JUMP JUMPDEST PUSH0 DUP1 PUSH20 0xFFFFFFFFFFFFFFFFFFFFFFFFFFFFFFFFFFFFFFFF AND PUSH1 0x2 PUSH1 0x1 SWAP1 SLOAD SWAP1 PUSH2 0x100 EXP SWAP1 DIV PUSH20 0xFFFFFFFFFFFFFFFFFFFFFFFFFFFFFFFFFFFFFFFF AND PUSH20 0xFFFFFFFFFFFFFFFFFFFFFFFFFFFFFFFFFFFFFFFF AND EQ PUSH2 0x1420 JUMPI PUSH1 0x2 PUSH1 0x1 SWAP1 SLOAD SWAP1 PUSH2 0x100 EXP SWAP1 DIV PUSH20 0xFFFFFFFFFFFFFFFFFFFFFFFFFFFFFFFFFFFFFFFF AND PUSH20 0xFFFFFFFFFFFFFFFFFFFFFFFFFFFFFFFFFFFFFFFF AND PUSH4 0x70A08231 ADDRESS PUSH1 0x40 MLOAD DUP3 PUSH4 0xFFFFFFFF AND PUSH1 0xE0 SHL DUP2 MSTORE PUSH1 0x4 ADD PUSH2 0x13DA SWAP2 SWAP1 PUSH2 0x43E7 JUMP JUMPDEST PUSH1 0x20 PUSH1 0x40 MLOAD DUP1 DUP4 SUB DUP2 DUP7 GAS STATICCALL ISZERO DUP1 ISZERO PUSH2 0x13F5 JUMPI RETURNDATASIZE PUSH0 DUP1 RETURNDATACOPY RETURNDATASIZE PUSH0 REVERT JUMPDEST POP POP POP POP PUSH1 0x40 MLOAD RETURNDATASIZE PUSH1 0x1F NOT PUSH1 0x1F DUP3 ADD AND DUP3 ADD DUP1 PUSH1 0x40 MSTORE POP DUP2 ADD SWAP1 PUSH2 0x1419 SWAP2 SWAP1 PUSH2 0x4A29 JUMP JUMPDEST SWAP1 POP PUSH2 0x1424 JUMP JUMPDEST SELFBALANCE SWAP1 POP JUMPDEST SWAP1 JUMP JUMPDEST PUSH2 0x143A PUSH0 DUP1 SHL PUSH2 0x1435 PUSH2 0x2ECC JUMP JUMPDEST PUSH2 0x174B JUMP JUMPDEST PUSH2 0x1479 JUMPI PUSH1 0x40 MLOAD PUSH32 0x8C379A000000000000000000000000000000000000000000000000000000000 DUP2 MSTORE PUSH1 0x4 ADD PUSH2 0x1470 SWAP1 PUSH2 0x4584 JUMP JUMPDEST PUSH1 0x40 MLOAD DUP1 SWAP2 SUB SWAP1 REVERT JUMPDEST PUSH2 0x1481 PUSH2 0x3395 JUMP JUMPDEST JUMP JUMPDEST PUSH0 PUSH2 0x1497 PUSH0 DUP1 SHL PUSH2 0x1492 PUSH2 0x2ECC JUMP JUMPDEST PUSH2 0x174B JUMP JUMPDEST PUSH2 0x14D6 JUMPI PUSH1 0x40 MLOAD PUSH32 0x8C379A000000000000000000000000000000000000000000000000000000000 DUP2 MSTORE PUSH1 0x4 ADD PUSH2 0x14CD SWAP1 PUSH2 0x4584 JUMP JUMPDEST PUSH1 0x40 MLOAD DUP1 SWAP2 SUB SWAP1 REVERT JUMPDEST PUSH2 0x14DE PUSH2 0x2ED3 JUMP JUMPDEST PUSH2 0x14E7 DUP3 PUSH2 0x2AFC JUMP JUMPDEST PUSH2 0x1526 JUMPI PUSH1 0x40 MLOAD PUSH32 0x8C379A000000000000000000000000000000000000000000000000000000000 DUP2 MSTORE PUSH1 0x4 ADD PUSH2 0x151D SWAP1 PUSH2 0x45EC JUMP JUMPDEST PUSH1 0x40 MLOAD DUP1 SWAP2 SUB SWAP1 REVERT JUMPDEST PUSH0 PUSH1 0x1 PUSH1 0x9 DUP5 PUSH1 0x40 MLOAD PUSH2 0x1539 SWAP2 SWAP1 PUSH2 0x4497 JUMP JUMPDEST SWAP1 DUP2 MSTORE PUSH1 0x20 ADD PUSH1 0x40 MLOAD DUP1 SWAP2 SUB SWAP1 KECCAK256 SLOAD PUSH2 0x1552 SWAP2 SWAP1 PUSH2 0x44DA JUMP JUMPDEST SWAP1 POP PUSH0 PUSH1 0x1 PUSH1 0xB DUP1 SLOAD SWAP1 POP PUSH2 0x1567 SWAP2 SWAP1 PUSH2 0x44DA JUMP JUMPDEST SWAP1 POP PUSH0 PUSH1 0xD DUP3 DUP2 SLOAD DUP2 LT PUSH2 0x157E JUMPI PUSH2 0x157D PUSH2 0x450D JUMP JUMPDEST JUMPDEST SWAP1 PUSH0 MSTORE PUSH1 0x20 PUSH0 KECCAK256 ADD DUP1 SLOAD PUSH2 0x1591 SWAP1 PUSH2 0x442D JUMP JUMPDEST DUP1 PUSH1 0x1F ADD PUSH1 0x20 DUP1 SWAP2 DIV MUL PUSH1 0x20 ADD PUSH1 0x40 MLOAD SWAP1 DUP2 ADD PUSH1 0x40 MSTORE DUP1 SWAP3 SWAP2 SWAP1 DUP2 DUP2 MSTORE PUSH1 0x20 ADD DUP3 DUP1 SLOAD PUSH2 0x15BD SWAP1 PUSH2 0x442D JUMP JUMPDEST DUP1 ISZERO PUSH2 0x1608 JUMPI DUP1 PUSH1 0x1F LT PUSH2 0x15DF JUMPI PUSH2 0x100 DUP1 DUP4 SLOAD DIV MUL DUP4 MSTORE SWAP2 PUSH1 0x20 ADD SWAP2 PUSH2 0x1608 JUMP JUMPDEST DUP3 ADD SWAP2 SWAP1 PUSH0 MSTORE PUSH1 0x20 PUSH0 KECCAK256 SWAP1 JUMPDEST DUP2 SLOAD DUP2 MSTORE SWAP1 PUSH1 0x1 ADD SWAP1 PUSH1 0x20 ADD DUP1 DUP4 GT PUSH2 0x15EB JUMPI DUP3 SWAP1 SUB PUSH1 0x1F AND DUP3 ADD SWAP2 JUMPDEST POP POP POP POP POP SWAP1 POP PUSH1 0xB DUP3 DUP2 SLOAD DUP2 LT PUSH2 0x1623 JUMPI PUSH2 0x1622 PUSH2 0x450D JUMP JUMPDEST JUMPDEST SWAP1 PUSH0 MSTORE PUSH1 0x20 PUSH0 KECCAK256 ADD PUSH1 0xB DUP5 DUP2 SLOAD DUP2 LT PUSH2 0x163F JUMPI PUSH2 0x163E PUSH2 0x450D JUMP JUMPDEST JUMPDEST SWAP1 PUSH0 MSTORE PUSH1 0x20 PUSH0 KECCAK256 ADD PUSH0 DUP3 ADD SLOAD DUP2 PUSH0 ADD SSTORE SWAP1 POP POP PUSH1 0xD DUP3 DUP2 SLOAD DUP2 LT PUSH2 0x1666 JUMPI PUSH2 0x1665 PUSH2 0x450D JUMP JUMPDEST JUMPDEST SWAP1 PUSH0 MSTORE PUSH1 0x20 PUSH0 KECCAK256 ADD PUSH1 0xD DUP5 DUP2 SLOAD DUP2 LT PUSH2 0x1682 JUMPI PUSH2 0x1681 PUSH2 0x450D JUMP JUMPDEST JUMPDEST SWAP1 PUSH0 MSTORE PUSH1 0x20 PUSH0 KECCAK256 ADD SWAP1 DUP2 PUSH2 0x1696 SWAP2 SWAP1 PUSH2 0x4C18 JUMP JUMPDEST POP PUSH1 0x1 DUP4 PUSH2 0x16A4 SWAP2 SWAP1 PUSH2 0x4CFD JUMP JUMPDEST PUSH1 0x9 DUP3 PUSH1 0x40 MLOAD PUSH2 0x16B4 SWAP2 SWAP1 PUSH2 0x4497 JUMP JUMPDEST SWAP1 DUP2 MSTORE PUSH1 0x20 ADD PUSH1 0x40 MLOAD DUP1 SWAP2 SUB SWAP1 KECCAK256 DUP2 SWAP1 SSTORE POP PUSH1 0x9 DUP6 PUSH1 0x40 MLOAD PUSH2 0x16D6 SWAP2 SWAP1 PUSH2 0x4497 JUMP JUMPDEST SWAP1 DUP2 MSTORE PUSH1 0x20 ADD PUSH1 0x40 MLOAD DUP1 SWAP2 SUB SWAP1 KECCAK256 PUSH0 SWAP1 SSTORE PUSH1 0xB DUP1 SLOAD DUP1 PUSH2 0x16F9 JUMPI PUSH2 0x16F8 PUSH2 0x4D30 JUMP JUMPDEST JUMPDEST PUSH1 0x1 SWAP1 SUB DUP2 DUP2 SWAP1 PUSH0 MSTORE PUSH1 0x20 PUSH0 KECCAK256 ADD PUSH0 DUP1 DUP3 ADD PUSH0 SWAP1 SSTORE POP POP SWAP1 SSTORE PUSH1 0xD DUP1 SLOAD DUP1 PUSH2 0x1724 JUMPI PUSH2 0x1723 PUSH2 0x4D30 JUMP JUMPDEST JUMPDEST PUSH1 0x1 SWAP1 SUB DUP2 DUP2 SWAP1 PUSH0 MSTORE PUSH1 0x20 PUSH0 KECCAK256 ADD PUSH0 PUSH2 0x173D SWAP2 SWAP1 PUSH2 0x3A23 JUMP JUMPDEST SWAP1 SSTORE PUSH1 0x1 SWAP4 POP POP POP POP SWAP2 SWAP1 POP JUMP JUMPDEST PUSH0 PUSH1 0x1 PUSH0 DUP5 DUP2 MSTORE PUSH1 0x20 ADD SWAP1 DUP2 MSTORE PUSH1 0x20 ADD PUSH0 KECCAK256 PUSH0 ADD PUSH0 DUP4 PUSH20 0xFFFFFFFFFFFFFFFFFFFFFFFFFFFFFFFFFFFFFFFF AND PUSH20 0xFFFFFFFFFFFFFFFFFFFFFFFFFFFFFFFFFFFFFFFF AND DUP2 MSTORE PUSH1 0x20 ADD SWAP1 DUP2 MSTORE PUSH1 0x20 ADD PUSH0 KECCAK256 PUSH0 SWAP1 SLOAD SWAP1 PUSH2 0x100 EXP SWAP1 DIV PUSH1 0xFF AND SWAP1 POP SWAP3 SWAP2 POP POP JUMP JUMPDEST PUSH0 PUSH2 0x17C3 PUSH0 DUP1 SHL PUSH2 0x17BE PUSH2 0x2ECC JUMP JUMPDEST PUSH2 0x174B JUMP JUMPDEST PUSH2 0x1802 JUMPI PUSH1 0x40 MLOAD PUSH32 0x8C379A000000000000000000000000000000000000000000000000000000000 DUP2 MSTORE PUSH1 0x4 ADD PUSH2 0x17F9 SWAP1 PUSH2 0x4584 JUMP JUMPDEST PUSH1 0x40 MLOAD DUP1 SWAP2 SUB SWAP1 REVERT JUMPDEST PUSH2 0x180A PUSH2 0x2ED3 JUMP JUMPDEST PUSH2 0x1813 DUP4 PUSH2 0x2AFC JUMP JUMPDEST ISZERO PUSH2 0x1853 JUMPI PUSH1 0x40 MLOAD PUSH32 0x8C379A000000000000000000000000000000000000000000000000000000000 DUP2 MSTORE PUSH1 0x4 ADD PUSH2 0x184A SWAP1 PUSH2 0x4DA7 JUMP JUMPDEST PUSH1 0x40 MLOAD DUP1 SWAP2 SUB SWAP1 REVERT JUMPDEST PUSH2 0x185B PUSH2 0x3A60 JUMP JUMPDEST DUP3 DUP2 PUSH0 ADD DUP2 DUP2 MSTORE POP POP PUSH1 0xB DUP2 SWAP1 DUP1 PUSH1 0x1 DUP2 SLOAD ADD DUP1 DUP3 SSTORE DUP1 SWAP2 POP POP PUSH1 0x1 SWAP1 SUB SWAP1 PUSH0 MSTORE PUSH1 0x20 PUSH0 KECCAK256 ADD PUSH0 SWAP1 SWAP2 SWAP1 SWAP2 SWAP1 SWAP2 POP PUSH0 DUP3 ADD MLOAD DUP2 PUSH0 ADD SSTORE POP POP PUSH1 0xD DUP5 SWAP1 DUP1 PUSH1 0x1 DUP2 SLOAD ADD DUP1 DUP3 SSTORE DUP1 SWAP2 POP POP PUSH1 0x1 SWAP1 SUB SWAP1 PUSH0 MSTORE PUSH1 0x20 PUSH0 KECCAK256 ADD PUSH0 SWAP1 SWAP2 SWAP1 SWAP2 SWAP1 SWAP2 POP SWAP1 DUP2 PUSH2 0x18C4 SWAP2 SWAP1 PUSH2 0x4DC5 JUMP JUMPDEST POP PUSH0 PUSH1 0xB DUP1 SLOAD SWAP1 POP SWAP1 POP DUP1 PUSH1 0x9 DUP7 PUSH1 0x40 MLOAD PUSH2 0x18DF SWAP2 SWAP1 PUSH2 0x4497 JUMP JUMPDEST SWAP1 DUP2 MSTORE PUSH1 0x20 ADD PUSH1 0x40 MLOAD DUP1 SWAP2 SUB SWAP1 KECCAK256 DUP2 SWAP1 SSTORE POP DUP1 SWAP3 POP POP POP SWAP3 SWAP2 POP POP JUMP JUMPDEST PUSH0 DUP1 SHL DUP2 JUMP JUMPDEST PUSH0 ORIGIN PUSH20 0xFFFFFFFFFFFFFFFFFFFFFFFFFFFFFFFFFFFFFFFF AND PUSH2 0x1922 PUSH2 0x2ECC JUMP JUMPDEST PUSH20 0xFFFFFFFFFFFFFFFFFFFFFFFFFFFFFFFFFFFFFFFF AND EQ PUSH2 0x1978 JUMPI PUSH1 0x40 MLOAD PUSH32 0x8C379A000000000000000000000000000000000000000000000000000000000 DUP2 MSTORE PUSH1 0x4 ADD PUSH2 0x196F SWAP1 PUSH2 0x4EDE JUMP JUMPDEST PUSH1 0x40 MLOAD DUP1 SWAP2 SUB SWAP1 REVERT JUMPDEST PUSH2 0x1980 PUSH2 0x2ED3 JUMP JUMPDEST PUSH2 0x19CC DUP6 DUP6 DUP1 DUP1 PUSH1 0x1F ADD PUSH1 0x20 DUP1 SWAP2 DIV MUL PUSH1 0x20 ADD PUSH1 0x40 MLOAD SWAP1 DUP2 ADD PUSH1 0x40 MSTORE DUP1 SWAP4 SWAP3 SWAP2 SWAP1 DUP2 DUP2 MSTORE PUSH1 0x20 ADD DUP4 DUP4 DUP1 DUP3 DUP5 CALLDATACOPY PUSH0 DUP2 DUP5 ADD MSTORE PUSH1 0x1F NOT PUSH1 0x1F DUP3 ADD AND SWAP1 POP DUP1 DUP4 ADD SWAP3 POP POP POP POP POP POP POP PUSH2 0x2AFC JUMP JUMPDEST PUSH2 0x1A0B JUMPI PUSH1 0x40 MLOAD PUSH32 0x8C379A000000000000000000000000000000000000000000000000000000000 DUP2 MSTORE PUSH1 0x4 ADD PUSH2 0x1A02 SWAP1 PUSH2 0x4F46 JUMP JUMPDEST PUSH1 0x40 MLOAD DUP1 SWAP2 SUB SWAP1 REVERT JUMPDEST PUSH2 0x1A66 DUP4 DUP4 DUP1 DUP1 PUSH1 0x1F ADD PUSH1 0x20 DUP1 SWAP2 DIV MUL PUSH1 0x20 ADD PUSH1 0x40 MLOAD SWAP1 DUP2 ADD PUSH1 0x40 MSTORE DUP1 SWAP4 SWAP3 SWAP2 SWAP1 DUP2 DUP2 MSTORE PUSH1 0x20 ADD DUP4 DUP4 DUP1 DUP3 DUP5 CALLDATACOPY PUSH0 DUP2 DUP5 ADD MSTORE PUSH1 0x1F NOT PUSH1 0x1F DUP3 ADD AND SWAP1 POP DUP1 DUP4 ADD SWAP3 POP POP POP POP POP POP POP PUSH1 0x40 MLOAD DUP1 PUSH1 0x20 ADD PUSH1 0x40 MSTORE DUP1 PUSH0 DUP2 MSTORE POP PUSH2 0x33F7 JUMP JUMPDEST ISZERO PUSH2 0x1AA6 JUMPI PUSH1 0x40 MLOAD PUSH32 0x8C379A000000000000000000000000000000000000000000000000000000000 DUP2 MSTORE PUSH1 0x4 ADD PUSH2 0x1A9D SWAP1 PUSH2 0x4FAE JUMP JUMPDEST PUSH1 0x40 MLOAD DUP1 SWAP2 SUB SWAP1 REVERT JUMPDEST PUSH0 PUSH1 0x1 PUSH1 0x9 DUP8 DUP8 PUSH1 0x40 MLOAD PUSH2 0x1ABB SWAP3 SWAP2 SWAP1 PUSH2 0x4FF0 JUMP JUMPDEST SWAP1 DUP2 MSTORE PUSH1 0x20 ADD PUSH1 0x40 MLOAD DUP1 SWAP2 SUB SWAP1 KECCAK256 SLOAD PUSH2 0x1AD4 SWAP2 SWAP1 PUSH2 0x44DA JUMP JUMPDEST SWAP1 POP PUSH0 DUP8 GT PUSH2 0x1B18 JUMPI PUSH1 0x40 MLOAD PUSH32 0x8C379A000000000000000000000000000000000000000000000000000000000 DUP2 MSTORE PUSH1 0x4 ADD PUSH2 0x1B0F SWAP1 PUSH2 0x48BF JUMP JUMPDEST PUSH1 0x40 MLOAD DUP1 SWAP2 SUB SWAP1 REVERT JUMPDEST PUSH1 0xB DUP2 DUP2 SLOAD DUP2 LT PUSH2 0x1B2C JUMPI PUSH2 0x1B2B PUSH2 0x450D JUMP JUMPDEST JUMPDEST SWAP1 PUSH0 MSTORE PUSH1 0x20 PUSH0 KECCAK256 ADD PUSH0 ADD SLOAD DUP8 LT ISZERO PUSH2 0x1B79 JUMPI PUSH1 0x40 MLOAD PUSH32 0x8C379A000000000000000000000000000000000000000000000000000000000 DUP2 MSTORE PUSH1 0x4 ADD PUSH2 0x1B70 SWAP1 PUSH2 0x5052 JUMP JUMPDEST PUSH1 0x40 MLOAD DUP1 SWAP2 SUB SWAP1 REVERT JUMPDEST PUSH1 0x2A DUP5 DUP5 SWAP1 POP EQ PUSH2 0x1BBF JUMPI PUSH1 0x40 MLOAD PUSH32 0x8C379A000000000000000000000000000000000000000000000000000000000 DUP2 MSTORE PUSH1 0x4 ADD PUSH2 0x1BB6 SWAP1 PUSH2 0x50BA JUMP JUMPDEST PUSH1 0x40 MLOAD DUP1 SWAP2 SUB SWAP1 REVERT JUMPDEST PUSH1 0x4 SLOAD CALLVALUE LT ISZERO PUSH2 0x1C04 JUMPI PUSH1 0x40 MLOAD PUSH32 0x8C379A000000000000000000000000000000000000000000000000000000000 DUP2 MSTORE PUSH1 0x4 ADD PUSH2 0x1BFB SWAP1 PUSH2 0x5122 JUMP JUMPDEST PUSH1 0x40 MLOAD DUP1 SWAP2 SUB SWAP1 REVERT JUMPDEST PUSH0 PUSH20 0xFFFFFFFFFFFFFFFFFFFFFFFFFFFFFFFFFFFFFFFF AND PUSH1 0x2 PUSH1 0x1 SWAP1 SLOAD SWAP1 PUSH2 0x100 EXP SWAP1 DIV PUSH20 0xFFFFFFFFFFFFFFFFFFFFFFFFFFFFFFFFFFFFFFFF AND PUSH20 0xFFFFFFFFFFFFFFFFFFFFFFFFFFFFFFFFFFFFFFFF AND SUB PUSH2 0x1CA9 JUMPI PUSH1 0x4 SLOAD DUP8 PUSH2 0x1C67 SWAP2 SWAP1 PUSH2 0x4CFD JUMP JUMPDEST CALLVALUE EQ PUSH2 0x1CA8 JUMPI PUSH1 0x40 MLOAD PUSH32 0x8C379A000000000000000000000000000000000000000000000000000000000 DUP2 MSTORE PUSH1 0x4 ADD PUSH2 0x1C9F SWAP1 PUSH2 0x518A JUMP JUMPDEST PUSH1 0x40 MLOAD DUP1 SWAP2 SUB SWAP1 REVERT JUMPDEST JUMPDEST PUSH0 PUSH2 0x3E8 PUSH1 0x5 SLOAD DUP10 PUSH2 0x1CBB SWAP2 SWAP1 PUSH2 0x51A8 JUMP JUMPDEST PUSH2 0x1CC5 SWAP2 SWAP1 PUSH2 0x5216 JUMP JUMPDEST SWAP1 POP PUSH0 DUP2 DUP10 PUSH2 0x1CD4 SWAP2 SWAP1 PUSH2 0x44DA JUMP JUMPDEST SWAP1 POP DUP2 PUSH1 0x3 PUSH0 DUP3 DUP3 SLOAD PUSH2 0x1CE7 SWAP2 SWAP1 PUSH2 0x4CFD JUMP JUMPDEST SWAP3 POP POP DUP2 SWAP1 SSTORE POP PUSH0 PUSH1 0x6 PUSH0 SWAP1 SLOAD SWAP1 PUSH2 0x100 EXP SWAP1 DIV PUSH20 0xFFFFFFFFFFFFFFFFFFFFFFFFFFFFFFFFFFFFFFFF AND SWAP1 POP PUSH0 PUSH1 0x4 SLOAD GT ISZERO PUSH2 0x1D49 JUMPI PUSH2 0x1D48 PUSH1 0x4 SLOAD DUP3 PUSH20 0xFFFFFFFFFFFFFFFFFFFFFFFFFFFFFFFFFFFFFFFF AND PUSH2 0x344F SWAP1 SWAP2 SWAP1 PUSH4 0xFFFFFFFF AND JUMP JUMPDEST JUMPDEST PUSH0 PUSH20 0xFFFFFFFFFFFFFFFFFFFFFFFFFFFFFFFFFFFFFFFF AND PUSH1 0x2 PUSH1 0x1 SWAP1 SLOAD SWAP1 PUSH2 0x100 EXP SWAP1 DIV PUSH20 0xFFFFFFFFFFFFFFFFFFFFFFFFFFFFFFFFFFFFFFFF AND PUSH20 0xFFFFFFFFFFFFFFFFFFFFFFFFFFFFFFFFFFFFFFFF AND EQ PUSH2 0x1E70 JUMPI PUSH2 0x1DF4 PUSH2 0x1DA9 PUSH2 0x2ECC JUMP JUMPDEST ADDRESS DUP5 PUSH1 0x2 PUSH1 0x1 SWAP1 SLOAD SWAP1 PUSH2 0x100 EXP SWAP1 DIV PUSH20 0xFFFFFFFFFFFFFFFFFFFFFFFFFFFFFFFFFFFFFFFF AND PUSH20 0xFFFFFFFFFFFFFFFFFFFFFFFFFFFFFFFFFFFFFFFF AND PUSH2 0x3538 SWAP1 SWAP4 SWAP3 SWAP2 SWAP1 PUSH4 0xFFFFFFFF AND JUMP JUMPDEST PUSH2 0x1E6B PUSH2 0x1DFF PUSH2 0x2ECC JUMP JUMPDEST PUSH1 0x6 PUSH0 SWAP1 SLOAD SWAP1 PUSH2 0x100 EXP SWAP1 DIV PUSH20 0xFFFFFFFFFFFFFFFFFFFFFFFFFFFFFFFFFFFFFFFF AND DUP6 PUSH1 0x2 PUSH1 0x1 SWAP1 SLOAD SWAP1 PUSH2 0x100 EXP SWAP1 DIV PUSH20 0xFFFFFFFFFFFFFFFFFFFFFFFFFFFFFFFFFFFFFFFF AND PUSH20 0xFFFFFFFFFFFFFFFFFFFFFFFFFFFFFFFFFFFFFFFF AND PUSH2 0x3538 SWAP1 SWAP4 SWAP3 SWAP2 SWAP1 PUSH4 0xFFFFFFFF AND JUMP JUMPDEST PUSH2 0x1ED1 JUMP JUMPDEST PUSH0 DUP4 GT ISZERO PUSH2 0x1EA2 JUMPI PUSH2 0x1EA1 DUP4 DUP3 PUSH20 0xFFFFFFFFFFFFFFFFFFFFFFFFFFFFFFFFFFFFFFFF AND PUSH2 0x344F SWAP1 SWAP2 SWAP1 PUSH4 0xFFFFFFFF AND JUMP JUMPDEST JUMPDEST PUSH0 ADDRESS SWAP1 POP PUSH2 0x1ECF DUP4 DUP3 PUSH20 0xFFFFFFFFFFFFFFFFFFFFFFFFFFFFFFFFFFFFFFFF AND PUSH2 0x344F SWAP1 SWAP2 SWAP1 PUSH4 0xFFFFFFFF AND JUMP JUMPDEST POP JUMPDEST PUSH32 0x4B07D21301CC34286797EAC5A16D2F1C0131FCF7B2051B24457F8D9A0949479D PUSH2 0x1EFA PUSH2 0x2ECC JUMP JUMPDEST DUP4 DUP10 DUP10 DUP14 DUP14 PUSH1 0x40 MLOAD PUSH2 0x1F11 SWAP7 SWAP6 SWAP5 SWAP4 SWAP3 SWAP2 SWAP1 PUSH2 0x5272 JUMP JUMPDEST PUSH1 0x40 MLOAD DUP1 SWAP2 SUB SWAP1 LOG1 PUSH1 0x1 SWAP5 POP POP POP POP POP SWAP6 SWAP5 POP POP POP POP POP JUMP JUMPDEST PUSH1 0x60 PUSH1 0xC DUP1 SLOAD DUP1 PUSH1 0x20 MUL PUSH1 0x20 ADD PUSH1 0x40 MLOAD SWAP1 DUP2 ADD PUSH1 0x40 MSTORE DUP1 SWAP3 SWAP2 SWAP1 DUP2 DUP2 MSTORE PUSH1 0x20 ADD PUSH0 SWAP1 JUMPDEST DUP3 DUP3 LT ISZERO PUSH2 0x1FF5 JUMPI DUP4 DUP3 SWAP1 PUSH0 MSTORE PUSH1 0x20 PUSH0 KECCAK256 ADD DUP1 SLOAD PUSH2 0x1F6A SWAP1 PUSH2 0x442D JUMP JUMPDEST DUP1 PUSH1 0x1F ADD PUSH1 0x20 DUP1 SWAP2 DIV MUL PUSH1 0x20 ADD PUSH1 0x40 MLOAD SWAP1 DUP2 ADD PUSH1 0x40 MSTORE DUP1 SWAP3 SWAP2 SWAP1 DUP2 DUP2 MSTORE PUSH1 0x20 ADD DUP3 DUP1 SLOAD PUSH2 0x1F96 SWAP1 PUSH2 0x442D JUMP JUMPDEST DUP1 ISZERO PUSH2 0x1FE1 JUMPI DUP1 PUSH1 0x1F LT PUSH2 0x1FB8 JUMPI PUSH2 0x100 DUP1 DUP4 SLOAD DIV MUL DUP4 MSTORE SWAP2 PUSH1 0x20 ADD SWAP2 PUSH2 0x1FE1 JUMP JUMPDEST DUP3 ADD SWAP2 SWAP1 PUSH0 MSTORE PUSH1 0x20 PUSH0 KECCAK256 SWAP1 JUMPDEST DUP2 SLOAD DUP2 MSTORE SWAP1 PUSH1 0x1 ADD SWAP1 PUSH1 0x20 ADD DUP1 DUP4 GT PUSH2 0x1FC4 JUMPI DUP3 SWAP1 SUB PUSH1 0x1F AND DUP3 ADD SWAP2 JUMPDEST POP POP POP POP POP DUP2 MSTORE PUSH1 0x20 ADD SWAP1 PUSH1 0x1 ADD SWAP1 PUSH2 0x1F4D JUMP JUMPDEST POP POP POP POP SWAP1 POP SWAP1 JUMP JUMPDEST PUSH0 PUSH2 0x2012 PUSH0 DUP1 SHL PUSH2 0x200D PUSH2 0x2ECC JUMP JUMPDEST PUSH2 0x174B JUMP JUMPDEST PUSH2 0x2051 JUMPI PUSH1 0x40 MLOAD PUSH32 0x8C379A000000000000000000000000000000000000000000000000000000000 DUP2 MSTORE PUSH1 0x4 ADD PUSH2 0x2048 SWAP1 PUSH2 0x4584 JUMP JUMPDEST PUSH1 0x40 MLOAD DUP1 SWAP2 SUB SWAP1 REVERT JUMPDEST PUSH2 0x2059 PUSH2 0x2ED3 JUMP JUMPDEST PUSH2 0x2083 PUSH32 0x8227712EF8AD39D0F26F06731EF0DF8665EB7ADA7F41B1EE089ADF3C238862A2 DUP4 PUSH2 0xD61 JUMP JUMPDEST PUSH1 0x1 SWAP1 POP SWAP2 SWAP1 POP JUMP JUMPDEST PUSH0 PUSH2 0x20A0 PUSH0 DUP1 SHL PUSH2 0x209B PUSH2 0x2ECC JUMP JUMPDEST PUSH2 0x174B JUMP JUMPDEST PUSH2 0x20DF JUMPI PUSH1 0x40 MLOAD PUSH32 0x8C379A000000000000000000000000000000000000000000000000000000000 DUP2 MSTORE PUSH1 0x4 ADD PUSH2 0x20D6 SWAP1 PUSH2 0x4584 JUMP JUMPDEST PUSH1 0x40 MLOAD DUP1 SWAP2 SUB SWAP1 REVERT JUMPDEST PUSH2 0x20E7 PUSH2 0x2ED3 JUMP JUMPDEST PUSH2 0x20F0 DUP3 PUSH2 0x26DB JUMP JUMPDEST PUSH2 0x212F JUMPI PUSH1 0x40 MLOAD PUSH32 0x8C379A000000000000000000000000000000000000000000000000000000000 DUP2 MSTORE PUSH1 0x4 ADD PUSH2 0x2126 SWAP1 PUSH2 0x45EC JUMP JUMPDEST PUSH1 0x40 MLOAD DUP1 SWAP2 SUB SWAP1 REVERT JUMPDEST PUSH0 PUSH1 0x1 PUSH1 0x8 DUP5 PUSH1 0x40 MLOAD PUSH2 0x2142 SWAP2 SWAP1 PUSH2 0x4497 JUMP JUMPDEST SWAP1 DUP2 MSTORE PUSH1 0x20 ADD PUSH1 0x40 MLOAD DUP1 SWAP2 SUB SWAP1 KECCAK256 SLOAD PUSH2 0x215B SWAP2 SWAP1 PUSH2 0x44DA JUMP JUMPDEST SWAP1 POP PUSH0 PUSH1 0x1 PUSH1 0xA DUP1 SLOAD SWAP1 POP PUSH2 0x2170 SWAP2 SWAP1 PUSH2 0x44DA JUMP JUMPDEST SWAP1 POP PUSH0 PUSH1 0xC DUP3 DUP2 SLOAD DUP2 LT PUSH2 0x2187 JUMPI PUSH2 0x2186 PUSH2 0x450D JUMP JUMPDEST JUMPDEST SWAP1 PUSH0 MSTORE PUSH1 0x20 PUSH0 KECCAK256 ADD DUP1 SLOAD PUSH2 0x219A SWAP1 PUSH2 0x442D JUMP JUMPDEST DUP1 PUSH1 0x1F ADD PUSH1 0x20 DUP1 SWAP2 DIV MUL PUSH1 0x20 ADD PUSH1 0x40 MLOAD SWAP1 DUP2 ADD PUSH1 0x40 MSTORE DUP1 SWAP3 SWAP2 SWAP1 DUP2 DUP2 MSTORE PUSH1 0x20 ADD DUP3 DUP1 SLOAD PUSH2 0x21C6 SWAP1 PUSH2 0x442D JUMP JUMPDEST DUP1 ISZERO PUSH2 0x2211 JUMPI DUP1 PUSH1 0x1F LT PUSH2 0x21E8 JUMPI PUSH2 0x100 DUP1 DUP4 SLOAD DIV MUL DUP4 MSTORE SWAP2 PUSH1 0x20 ADD SWAP2 PUSH2 0x2211 JUMP JUMPDEST DUP3 ADD SWAP2 SWAP1 PUSH0 MSTORE PUSH1 0x20 PUSH0 KECCAK256 SWAP1 JUMPDEST DUP2 SLOAD DUP2 MSTORE SWAP1 PUSH1 0x1 ADD SWAP1 PUSH1 0x20 ADD DUP1 DUP4 GT PUSH2 0x21F4 JUMPI DUP3 SWAP1 SUB PUSH1 0x1F AND DUP3 ADD SWAP2 JUMPDEST POP POP POP POP POP SWAP1 POP PUSH1 0xA DUP3 DUP2 SLOAD DUP2 LT PUSH2 0x222C JUMPI PUSH2 0x222B PUSH2 0x450D JUMP JUMPDEST JUMPDEST SWAP1 PUSH0 MSTORE PUSH1 0x20 PUSH0 KECCAK256 ADD PUSH1 0xA DUP5 DUP2 SLOAD DUP2 LT PUSH2 0x2248 JUMPI PUSH2 0x2247 PUSH2 0x450D JUMP JUMPDEST JUMPDEST SWAP1 PUSH0 MSTORE PUSH1 0x20 PUSH0 KECCAK256 ADD PUSH0 DUP3 ADD SLOAD DUP2 PUSH0 ADD SSTORE SWAP1 POP POP PUSH1 0xC DUP3 DUP2 SLOAD DUP2 LT PUSH2 0x226F JUMPI PUSH2 0x226E PUSH2 0x450D JUMP JUMPDEST JUMPDEST SWAP1 PUSH0 MSTORE PUSH1 0x20 PUSH0 KECCAK256 ADD PUSH1 0xC DUP5 DUP2 SLOAD DUP2 LT PUSH2 0x228B JUMPI PUSH2 0x228A PUSH2 0x450D JUMP JUMPDEST JUMPDEST SWAP1 PUSH0 MSTORE PUSH1 0x20 PUSH0 KECCAK256 ADD SWAP1 DUP2 PUSH2 0x229F SWAP2 SWAP1 PUSH2 0x4C18 JUMP JUMPDEST POP PUSH1 0x1 DUP4 PUSH2 0x22AD SWAP2 SWAP1 PUSH2 0x4CFD JUMP JUMPDEST PUSH1 0x8 DUP3 PUSH1 0x40 MLOAD PUSH2 0x22BD SWAP2 SWAP1 PUSH2 0x4497 JUMP JUMPDEST SWAP1 DUP2 MSTORE PUSH1 0x20 ADD PUSH1 0x40 MLOAD DUP1 SWAP2 SUB SWAP1 KECCAK256 DUP2 SWAP1 SSTORE POP PUSH1 0x8 DUP6 PUSH1 0x40 MLOAD PUSH2 0x22DF SWAP2 SWAP1 PUSH2 0x4497 JUMP JUMPDEST SWAP1 DUP2 MSTORE PUSH1 0x20 ADD PUSH1 0x40 MLOAD DUP1 SWAP2 SUB SWAP1 KECCAK256 PUSH0 SWAP1 SSTORE PUSH1 0xA DUP1 SLOAD DUP1 PUSH2 0x2302 JUMPI PUSH2 0x2301 PUSH2 0x4D30 JUMP JUMPDEST JUMPDEST PUSH1 0x1 SWAP1 SUB DUP2 DUP2 SWAP1 PUSH0 MSTORE PUSH1 0x20 PUSH0 KECCAK256 ADD PUSH0 DUP1 DUP3 ADD PUSH0 SWAP1 SSTORE POP POP SWAP1 SSTORE PUSH1 0xC DUP1 SLOAD DUP1 PUSH2 0x232D JUMPI PUSH2 0x232C PUSH2 0x4D30 JUMP JUMPDEST JUMPDEST PUSH1 0x1 SWAP1 SUB DUP2 DUP2 SWAP1 PUSH0 MSTORE PUSH1 0x20 PUSH0 KECCAK256 ADD PUSH0 PUSH2 0x2346 SWAP2 SWAP1 PUSH2 0x3A23 JUMP JUMPDEST SWAP1 SSTORE PUSH1 0x1 SWAP4 POP POP POP POP SWAP2 SWAP1 POP JUMP JUMPDEST PUSH0 PUSH2 0x2368 PUSH0 DUP1 SHL PUSH2 0x2363 PUSH2 0x2ECC JUMP JUMPDEST PUSH2 0x174B JUMP JUMPDEST PUSH2 0x23A7 JUMPI PUSH1 0x40 MLOAD PUSH32 0x8C379A000000000000000000000000000000000000000000000000000000000 DUP2 MSTORE PUSH1 0x4 ADD PUSH2 0x239E SWAP1 PUSH2 0x4584 JUMP JUMPDEST PUSH1 0x40 MLOAD DUP1 SWAP2 SUB SWAP1 REVERT JUMPDEST PUSH0 PUSH20 0xFFFFFFFFFFFFFFFFFFFFFFFFFFFFFFFFFFFFFFFF AND DUP3 PUSH20 0xFFFFFFFFFFFFFFFFFFFFFFFFFFFFFFFFFFFFFFFF AND SUB PUSH2 0x2415 JUMPI PUSH1 0x40 MLOAD PUSH32 0x8C379A000000000000000000000000000000000000000000000000000000000 DUP2 MSTORE PUSH1 0x4 ADD PUSH2 0x240C SWAP1 PUSH2 0x4857 JUMP JUMPDEST PUSH1 0x40 MLOAD DUP1 SWAP2 SUB SWAP1 REVERT JUMPDEST PUSH0 PUSH20 0xFFFFFFFFFFFFFFFFFFFFFFFFFFFFFFFFFFFFFFFF AND PUSH1 0x2 PUSH1 0x1 SWAP1 SLOAD SWAP1 PUSH2 0x100 EXP SWAP1 DIV PUSH20 0xFFFFFFFFFFFFFFFFFFFFFFFFFFFFFFFFFFFFFFFF AND PUSH20 0xFFFFFFFFFFFFFFFFFFFFFFFFFFFFFFFFFFFFFFFF AND EQ PUSH2 0x259C JUMPI PUSH1 0x2 PUSH1 0x1 SWAP1 SLOAD SWAP1 PUSH2 0x100 EXP SWAP1 DIV PUSH20 0xFFFFFFFFFFFFFFFFFFFFFFFFFFFFFFFFFFFFFFFF AND PUSH20 0xFFFFFFFFFFFFFFFFFFFFFFFFFFFFFFFFFFFFFFFF AND PUSH4 0x70A08231 ADDRESS PUSH1 0x40 MLOAD DUP3 PUSH4 0xFFFFFFFF AND PUSH1 0xE0 SHL DUP2 MSTORE PUSH1 0x4 ADD PUSH2 0x24C5 SWAP2 SWAP1 PUSH2 0x43E7 JUMP JUMPDEST PUSH1 0x20 PUSH1 0x40 MLOAD DUP1 DUP4 SUB DUP2 DUP7 GAS STATICCALL ISZERO DUP1 ISZERO PUSH2 0x24E0 JUMPI RETURNDATASIZE PUSH0 DUP1 RETURNDATACOPY RETURNDATASIZE PUSH0 REVERT JUMPDEST POP POP POP POP PUSH1 0x40 MLOAD RETURNDATASIZE PUSH1 0x1F NOT PUSH1 0x1F DUP3 ADD AND DUP3 ADD DUP1 PUSH1 0x40 MSTORE POP DUP2 ADD SWAP1 PUSH2 0x2504 SWAP2 SWAP1 PUSH2 0x4A29 JUMP JUMPDEST DUP4 GT ISZERO PUSH2 0x2546 JUMPI PUSH1 0x40 MLOAD PUSH32 0x8C379A000000000000000000000000000000000000000000000000000000000 DUP2 MSTORE PUSH1 0x4 ADD PUSH2 0x253D SWAP1 PUSH2 0x5311 JUMP JUMPDEST PUSH1 0x40 MLOAD DUP1 SWAP2 SUB SWAP1 REVERT JUMPDEST PUSH2 0x2593 DUP3 DUP5 PUSH1 0x2 PUSH1 0x1 SWAP1 SLOAD SWAP1 PUSH2 0x100 EXP SWAP1 DIV PUSH20 0xFFFFFFFFFFFFFFFFFFFFFFFFFFFFFFFFFFFFFFFF AND PUSH20 0xFFFFFFFFFFFFFFFFFFFFFFFFFFFFFFFFFFFFFFFF AND PUSH2 0x35BA SWAP1 SWAP3 SWAP2 SWAP1 PUSH4 0xFFFFFFFF AND JUMP JUMPDEST PUSH1 0x1 SWAP1 POP PUSH2 0x2612 JUMP JUMPDEST DUP3 SELFBALANCE LT ISZERO PUSH2 0x25DF JUMPI PUSH1 0x40 MLOAD PUSH32 0x8C379A000000000000000000000000000000000000000000000000000000000 DUP2 MSTORE PUSH1 0x4 ADD PUSH2 0x25D6 SWAP1 PUSH2 0x539F JUMP JUMPDEST PUSH1 0x40 MLOAD DUP1 SWAP2 SUB SWAP1 REVERT JUMPDEST PUSH0 DUP3 SWAP1 POP PUSH2 0x260C DUP5 DUP3 PUSH20 0xFFFFFFFFFFFFFFFFFFFFFFFFFFFFFFFFFFFFFFFF AND PUSH2 0x344F SWAP1 SWAP2 SWAP1 PUSH4 0xFFFFFFFF AND JUMP JUMPDEST POP PUSH1 0x1 SWAP1 POP JUMPDEST SWAP3 SWAP2 POP POP JUMP JUMPDEST PUSH1 0x7 PUSH1 0x20 MSTORE DUP1 PUSH0 MSTORE PUSH1 0x40 PUSH0 KECCAK256 PUSH0 SWAP2 POP SLOAD SWAP1 PUSH2 0x100 EXP SWAP1 DIV PUSH1 0xFF AND DUP2 JUMP JUMPDEST PUSH1 0xD DUP2 DUP2 SLOAD DUP2 LT PUSH2 0x2644 JUMPI PUSH0 DUP1 REVERT JUMPDEST SWAP1 PUSH0 MSTORE PUSH1 0x20 PUSH0 KECCAK256 ADD PUSH0 SWAP2 POP SWAP1 POP DUP1 SLOAD PUSH2 0x265C SWAP1 PUSH2 0x442D JUMP JUMPDEST DUP1 PUSH1 0x1F ADD PUSH1 0x20 DUP1 SWAP2 DIV MUL PUSH1 0x20 ADD PUSH1 0x40 MLOAD SWAP1 DUP2 ADD PUSH1 0x40 MSTORE DUP1 SWAP3 SWAP2 SWAP1 DUP2 DUP2 MSTORE PUSH1 0x20 ADD DUP3 DUP1 SLOAD PUSH2 0x2688 SWAP1 PUSH2 0x442D JUMP JUMPDEST DUP1 ISZERO PUSH2 0x26D3 JUMPI DUP1 PUSH1 0x1F LT PUSH2 0x26AA JUMPI PUSH2 0x100 DUP1 DUP4 SLOAD DIV MUL DUP4 MSTORE SWAP2 PUSH1 0x20 ADD SWAP2 PUSH2 0x26D3 JUMP JUMPDEST DUP3 ADD SWAP2 SWAP1 PUSH0 MSTORE PUSH1 0x20 PUSH0 KECCAK256 SWAP1 JUMPDEST DUP2 SLOAD DUP2 MSTORE SWAP1 PUSH1 0x1 ADD SWAP1 PUSH1 0x20 ADD DUP1 DUP4 GT PUSH2 0x26B6 JUMPI DUP3 SWAP1 SUB PUSH1 0x1F AND DUP3 ADD SWAP2 JUMPDEST POP POP POP POP POP DUP2 JUMP JUMPDEST PUSH0 DUP1 PUSH1 0x8 DUP4 PUSH1 0x40 MLOAD PUSH2 0x26ED SWAP2 SWAP1 PUSH2 0x4497 JUMP JUMPDEST SWAP1 DUP2 MSTORE PUSH1 0x20 ADD PUSH1 0x40 MLOAD DUP1 SWAP2 SUB SWAP1 KECCAK256 SLOAD SUB PUSH2 0x2709 JUMPI PUSH0 SWAP1 POP PUSH2 0x270E JUMP JUMPDEST PUSH1 0x1 SWAP1 POP JUMPDEST SWAP2 SWAP1 POP JUMP JUMPDEST PUSH0 PUSH20 0xFFFFFFFFFFFFFFFFFFFFFFFFFFFFFFFFFFFFFFFF AND PUSH1 0x2 PUSH1 0x1 SWAP1 SLOAD SWAP1 PUSH2 0x100 EXP SWAP1 DIV PUSH20 0xFFFFFFFFFFFFFFFFFFFFFFFFFFFFFFFFFFFFFFFF AND PUSH20 0xFFFFFFFFFFFFFFFFFFFFFFFFFFFFFFFFFFFFFFFF AND EQ PUSH2 0x27A3 JUMPI PUSH1 0x40 MLOAD PUSH32 0x8C379A000000000000000000000000000000000000000000000000000000000 DUP2 MSTORE PUSH1 0x4 ADD PUSH2 0x279A SWAP1 PUSH2 0x5407 JUMP JUMPDEST PUSH1 0x40 MLOAD DUP1 SWAP2 SUB SWAP1 REVERT JUMPDEST PUSH0 PUSH20 0xFFFFFFFFFFFFFFFFFFFFFFFFFFFFFFFFFFFFFFFF AND PUSH1 0x6 PUSH0 SWAP1 SLOAD SWAP1 PUSH2 0x100 EXP SWAP1 DIV PUSH20 0xFFFFFFFFFFFFFFFFFFFFFFFFFFFFFFFFFFFFFFFF AND PUSH20 0xFFFFFFFFFFFFFFFFFFFFFFFFFFFFFFFFFFFFFFFF AND EQ PUSH2 0x2832 JUMPI PUSH1 0x40 MLOAD PUSH32 0x8C379A000000000000000000000000000000000000000000000000000000000 DUP2 MSTORE PUSH1 0x4 ADD PUSH2 0x2829 SWAP1 PUSH2 0x546F JUMP JUMPDEST PUSH1 0x40 MLOAD DUP1 SWAP2 SUB SWAP1 REVERT JUMPDEST PUSH0 PUSH1 0x4 SLOAD EQ PUSH2 0x2876 JUMPI PUSH1 0x40 MLOAD PUSH32 0x8C379A000000000000000000000000000000000000000000000000000000000 DUP2 MSTORE PUSH1 0x4 ADD PUSH2 0x286D SWAP1 PUSH2 0x54D7 JUMP JUMPDEST PUSH1 0x40 MLOAD DUP1 SWAP2 SUB SWAP1 REVERT JUMPDEST PUSH0 PUSH1 0x5 SLOAD EQ PUSH2 0x28BA JUMPI PUSH1 0x40 MLOAD PUSH32 0x8C379A000000000000000000000000000000000000000000000000000000000 DUP2 MSTORE PUSH1 0x4 ADD PUSH2 0x28B1 SWAP1 PUSH2 0x54D7 JUMP JUMPDEST PUSH1 0x40 MLOAD DUP1 SWAP2 SUB SWAP1 REVERT JUMPDEST PUSH1 0x64 DUP2 GT ISZERO PUSH2 0x28FE JUMPI PUSH1 0x40 MLOAD PUSH32 0x8C379A000000000000000000000000000000000000000000000000000000000 DUP2 MSTORE PUSH1 0x4 ADD PUSH2 0x28F5 SWAP1 PUSH2 0x553F JUMP JUMPDEST PUSH1 0x40 MLOAD DUP1 SWAP2 SUB SWAP1 REVERT JUMPDEST DUP5 PUSH1 0x2 PUSH1 0x1 PUSH2 0x100 EXP DUP2 SLOAD DUP2 PUSH20 0xFFFFFFFFFFFFFFFFFFFFFFFFFFFFFFFFFFFFFFFF MUL NOT AND SWAP1 DUP4 PUSH20 0xFFFFFFFFFFFFFFFFFFFFFFFFFFFFFFFFFFFFFFFF AND MUL OR SWAP1 SSTORE POP DUP4 PUSH1 0x6 PUSH0 PUSH2 0x100 EXP DUP2 SLOAD DUP2 PUSH20 0xFFFFFFFFFFFFFFFFFFFFFFFFFFFFFFFFFFFFFFFF MUL NOT AND SWAP1 DUP4 PUSH20 0xFFFFFFFFFFFFFFFFFFFFFFFFFFFFFFFFFFFFFFFF AND MUL OR SWAP1 SSTORE POP PUSH2 0x298B PUSH0 DUP1 SHL DUP6 PUSH2 0x2F31 JUMP JUMPDEST POP PUSH2 0x29B6 PUSH32 0x8227712EF8AD39D0F26F06731EF0DF8665EB7ADA7F41B1EE089ADF3C238862A2 DUP5 PUSH2 0x2F31 JUMP JUMPDEST POP DUP2 PUSH1 0x4 DUP2 SWAP1 SSTORE POP DUP1 PUSH1 0x5 DUP2 SWAP1 SSTORE POP POP POP POP POP POP JUMP JUMPDEST PUSH2 0x29D5 DUP3 PUSH2 0xBE6 JUMP JUMPDEST PUSH2 0x29DE DUP2 PUSH2 0x2F1D JUMP JUMPDEST PUSH2 0x29E8 DUP4 DUP4 PUSH2 0x3639 JUMP JUMPDEST POP POP POP JUMP JUMPDEST PUSH0 DUP6 DUP6 DUP6 DUP6 DUP6 PUSH1 0x40 MLOAD PUSH1 0x20 ADD PUSH2 0x2A07 SWAP6 SWAP5 SWAP4 SWAP3 SWAP2 SWAP1 PUSH2 0x5616 JUMP JUMPDEST PUSH1 0x40 MLOAD PUSH1 0x20 DUP2 DUP4 SUB SUB DUP2 MSTORE SWAP1 PUSH1 0x40 MSTORE DUP1 MLOAD SWAP1 PUSH1 0x20 ADD KECCAK256 SWAP1 POP SWAP6 SWAP5 POP POP POP POP POP JUMP JUMPDEST PUSH1 0x60 PUSH1 0xD DUP1 SLOAD DUP1 PUSH1 0x20 MUL PUSH1 0x20 ADD PUSH1 0x40 MLOAD SWAP1 DUP2 ADD PUSH1 0x40 MSTORE DUP1 SWAP3 SWAP2 SWAP1 DUP2 DUP2 MSTORE PUSH1 0x20 ADD PUSH0 SWAP1 JUMPDEST DUP3 DUP3 LT ISZERO PUSH2 0x2AF3 JUMPI DUP4 DUP3 SWAP1 PUSH0 MSTORE PUSH1 0x20 PUSH0 KECCAK256 ADD DUP1 SLOAD PUSH2 0x2A68 SWAP1 PUSH2 0x442D JUMP JUMPDEST DUP1 PUSH1 0x1F ADD PUSH1 0x20 DUP1 SWAP2 DIV MUL PUSH1 0x20 ADD PUSH1 0x40 MLOAD SWAP1 DUP2 ADD PUSH1 0x40 MSTORE DUP1 SWAP3 SWAP2 SWAP1 DUP2 DUP2 MSTORE PUSH1 0x20 ADD DUP3 DUP1 SLOAD PUSH2 0x2A94 SWAP1 PUSH2 0x442D JUMP JUMPDEST DUP1 ISZERO PUSH2 0x2ADF JUMPI DUP1 PUSH1 0x1F LT PUSH2 0x2AB6 JUMPI PUSH2 0x100 DUP1 DUP4 SLOAD DIV MUL DUP4 MSTORE SWAP2 PUSH1 0x20 ADD SWAP2 PUSH2 0x2ADF JUMP JUMPDEST DUP3 ADD SWAP2 SWAP1 PUSH0 MSTORE PUSH1 0x20 PUSH0 KECCAK256 SWAP1 JUMPDEST DUP2 SLOAD DUP2 MSTORE SWAP1 PUSH1 0x1 ADD SWAP1 PUSH1 0x20 ADD DUP1 DUP4 GT PUSH2 0x2AC2 JUMPI DUP3 SWAP1 SUB PUSH1 0x1F AND DUP3 ADD SWAP2 JUMPDEST POP POP POP POP POP DUP2 MSTORE PUSH1 0x20 ADD SWAP1 PUSH1 0x1 ADD SWAP1 PUSH2 0x2A4B JUMP JUMPDEST POP POP POP POP SWAP1 POP SWAP1 JUMP JUMPDEST PUSH0 DUP1 PUSH1 0x9 DUP4 PUSH1 0x40 MLOAD PUSH2 0x2B0E SWAP2 SWAP1 PUSH2 0x4497 JUMP JUMPDEST SWAP1 DUP2 MSTORE PUSH1 0x20 ADD PUSH1 0x40 MLOAD DUP1 SWAP2 SUB SWAP1 KECCAK256 SLOAD SUB PUSH2 0x2B2A JUMPI PUSH0 SWAP1 POP PUSH2 0x2B2F JUMP JUMPDEST PUSH1 0x1 SWAP1 POP JUMPDEST SWAP2 SWAP1 POP JUMP JUMPDEST PUSH0 PUSH2 0x2B48 PUSH0 DUP1 SHL PUSH2 0x2B43 PUSH2 0x2ECC JUMP JUMPDEST PUSH2 0x174B JUMP JUMPDEST PUSH2 0x2B87 JUMPI PUSH1 0x40 MLOAD PUSH32 0x8C379A000000000000000000000000000000000000000000000000000000000 DUP2 MSTORE PUSH1 0x4 ADD PUSH2 0x2B7E SWAP1 PUSH2 0x4584 JUMP JUMPDEST PUSH1 0x40 MLOAD DUP1 SWAP2 SUB SWAP1 REVERT JUMPDEST PUSH2 0x2B8F PUSH2 0x2ED3 JUMP JUMPDEST PUSH2 0x2B98 DUP3 PUSH2 0x26DB JUMP JUMPDEST ISZERO PUSH2 0x2BD8 JUMPI PUSH1 0x40 MLOAD PUSH32 0x8C379A000000000000000000000000000000000000000000000000000000000 DUP2 MSTORE PUSH1 0x4 ADD PUSH2 0x2BCF SWAP1 PUSH2 0x56BE JUMP JUMPDEST PUSH1 0x40 MLOAD DUP1 SWAP2 SUB SWAP1 REVERT JUMPDEST PUSH2 0x2BE0 PUSH2 0x3A60 JUMP JUMPDEST PUSH1 0xA DUP2 SWAP1 DUP1 PUSH1 0x1 DUP2 SLOAD ADD DUP1 DUP3 SSTORE DUP1 SWAP2 POP POP PUSH1 0x1 SWAP1 SUB SWAP1 PUSH0 MSTORE PUSH1 0x20 PUSH0 KECCAK256 ADD PUSH0 SWAP1 SWAP2 SWAP1 SWAP2 SWAP1 SWAP2 POP PUSH0 DUP3 ADD MLOAD DUP2 PUSH0 ADD SSTORE POP POP PUSH1 0xC DUP4 SWAP1 DUP1 PUSH1 0x1 DUP2 SLOAD ADD DUP1 DUP3 SSTORE DUP1 SWAP2 POP POP PUSH1 0x1 SWAP1 SUB SWAP1 PUSH0 MSTORE PUSH1 0x20 PUSH0 KECCAK256 ADD PUSH0 SWAP1 SWAP2 SWAP1 SWAP2 SWAP1 SWAP2 POP SWAP1 DUP2 PUSH2 0x2C40 SWAP2 SWAP1 PUSH2 0x4DC5 JUMP JUMPDEST POP PUSH0 PUSH1 0xA DUP1 SLOAD SWAP1 POP SWAP1 POP DUP1 PUSH1 0x8 DUP6 PUSH1 0x40 MLOAD PUSH2 0x2C5B SWAP2 SWAP1 PUSH2 0x4497 JUMP JUMPDEST SWAP1 DUP2 MSTORE PUSH1 0x20 ADD PUSH1 0x40 MLOAD DUP1 SWAP2 SUB SWAP1 KECCAK256 DUP2 SWAP1 SSTORE POP DUP1 SWAP3 POP POP POP SWAP2 SWAP1 POP JUMP JUMPDEST PUSH0 PUSH2 0x2C8B PUSH0 DUP1 SHL PUSH2 0x2C86 PUSH2 0x2ECC JUMP JUMPDEST PUSH2 0x174B JUMP JUMPDEST PUSH2 0x2CCA JUMPI PUSH1 0x40 MLOAD PUSH32 0x8C379A000000000000000000000000000000000000000000000000000000000 DUP2 MSTORE PUSH1 0x4 ADD PUSH2 0x2CC1 SWAP1 PUSH2 0x4584 JUMP JUMPDEST PUSH1 0x40 MLOAD DUP1 SWAP2 SUB SWAP1 REVERT JUMPDEST PUSH2 0x2CD2 PUSH2 0x2ED3 JUMP JUMPDEST DUP2 PUSH1 0x6 PUSH0 PUSH2 0x100 EXP DUP2 SLOAD DUP2 PUSH20 0xFFFFFFFFFFFFFFFFFFFFFFFFFFFFFFFFFFFFFFFF MUL NOT AND SWAP1 DUP4 PUSH20 0xFFFFFFFFFFFFFFFFFFFFFFFFFFFFFFFFFFFFFFFF AND MUL OR SWAP1 SSTORE POP PUSH2 0x2D1A PUSH2 0x2ECC JUMP JUMPDEST PUSH20 0xFFFFFFFFFFFFFFFFFFFFFFFFFFFFFFFFFFFFFFFF AND DUP3 PUSH20 0xFFFFFFFFFFFFFFFFFFFFFFFFFFFFFFFFFFFFFFFF AND SUB PUSH2 0x2D87 JUMPI PUSH1 0x40 MLOAD PUSH32 0x8C379A000000000000000000000000000000000000000000000000000000000 DUP2 MSTORE PUSH1 0x4 ADD PUSH2 0x2D7E SWAP1 PUSH2 0x5726 JUMP JUMPDEST PUSH1 0x40 MLOAD DUP1 SWAP2 SUB SWAP1 REVERT JUMPDEST PUSH0 PUSH20 0xFFFFFFFFFFFFFFFFFFFFFFFFFFFFFFFFFFFFFFFF AND DUP3 PUSH20 0xFFFFFFFFFFFFFFFFFFFFFFFFFFFFFFFFFFFFFFFF AND SUB PUSH2 0x2DF5 JUMPI PUSH1 0x40 MLOAD PUSH32 0x8C379A000000000000000000000000000000000000000000000000000000000 DUP2 MSTORE PUSH1 0x4 ADD PUSH2 0x2DEC SWAP1 PUSH2 0x578E JUMP JUMPDEST PUSH1 0x40 MLOAD DUP1 SWAP2 SUB SWAP1 REVERT JUMPDEST PUSH2 0x2E01 PUSH0 DUP1 SHL DUP4 PUSH2 0x2F31 JUMP JUMPDEST POP PUSH2 0x2E15 PUSH0 DUP1 SHL PUSH2 0x2E10 PUSH2 0x2ECC JUMP JUMPDEST PUSH2 0x29CC JUMP JUMPDEST PUSH1 0x1 SWAP1 POP SWAP2 SWAP1 POP JUMP JUMPDEST PUSH1 0x6 PUSH0 SWAP1 SLOAD SWAP1 PUSH2 0x100 EXP SWAP1 DIV PUSH20 0xFFFFFFFFFFFFFFFFFFFFFFFFFFFFFFFFFFFFFFFF AND DUP2 JUMP JUMPDEST PUSH1 0x2 PUSH1 0x1 SWAP1 SLOAD SWAP1 PUSH2 0x100 EXP SWAP1 DIV PUSH20 0xFFFFFFFFFFFFFFFFFFFFFFFFFFFFFFFFFFFFFFFF AND DUP2 JUMP JUMPDEST PUSH0 DUP1 PUSH0 DUP4 PUSH28 0xFFFFFFFFFFFFFFFFFFFFFFFFFFFFFFFFFFFFFFFFFFFFFFFFFFFFFFFF NOT AND PUSH28 0xFFFFFFFFFFFFFFFFFFFFFFFFFFFFFFFFFFFFFFFFFFFFFFFFFFFFFFFF NOT AND DUP2 MSTORE PUSH1 0x20 ADD SWAP1 DUP2 MSTORE PUSH1 0x20 ADD PUSH0 KECCAK256 PUSH0 SWAP1 SLOAD SWAP1 PUSH2 0x100 EXP SWAP1 DIV PUSH1 0xFF AND SWAP1 POP SWAP2 SWAP1 POP JUMP JUMPDEST PUSH0 CALLER SWAP1 POP SWAP1 JUMP JUMPDEST PUSH2 0x2EDB PUSH2 0x1017 JUMP JUMPDEST ISZERO PUSH2 0x2F1B JUMPI PUSH1 0x40 MLOAD PUSH32 0x8C379A000000000000000000000000000000000000000000000000000000000 DUP2 MSTORE PUSH1 0x4 ADD PUSH2 0x2F12 SWAP1 PUSH2 0x57F6 JUMP JUMPDEST PUSH1 0x40 MLOAD DUP1 SWAP2 SUB SWAP1 REVERT JUMPDEST JUMP JUMPDEST PUSH2 0x2F2E DUP2 PUSH2 0x2F29 PUSH2 0x2ECC JUMP JUMPDEST PUSH2 0x365B JUMP JUMPDEST POP JUMP JUMPDEST PUSH0 PUSH2 0x2F3C DUP4 DUP4 PUSH2 0x174B JUMP JUMPDEST PUSH2 0x3010 JUMPI PUSH1 0x1 DUP1 PUSH0 DUP6 DUP2 MSTORE PUSH1 0x20 ADD SWAP1 DUP2 MSTORE PUSH1 0x20 ADD PUSH0 KECCAK256 PUSH0 ADD PUSH0 DUP5 PUSH20 0xFFFFFFFFFFFFFFFFFFFFFFFFFFFFFFFFFFFFFFFF AND PUSH20 0xFFFFFFFFFFFFFFFFFFFFFFFFFFFFFFFFFFFFFFFF AND DUP2 MSTORE PUSH1 0x20 ADD SWAP1 DUP2 MSTORE PUSH1 0x20 ADD PUSH0 KECCAK256 PUSH0 PUSH2 0x100 EXP DUP2 SLOAD DUP2 PUSH1 0xFF MUL NOT AND SWAP1 DUP4 ISZERO ISZERO MUL OR SWAP1 SSTORE POP PUSH2 0x2FAD PUSH2 0x2ECC JUMP JUMPDEST PUSH20 0xFFFFFFFFFFFFFFFFFFFFFFFFFFFFFFFFFFFFFFFF AND DUP3 PUSH20 0xFFFFFFFFFFFFFFFFFFFFFFFFFFFFFFFFFFFFFFFF AND DUP5 PUSH32 0x2F8788117E7EFF1D82E926EC794901D17C78024A50270940304540A733656F0D PUSH1 0x40 MLOAD PUSH1 0x40 MLOAD DUP1 SWAP2 SUB SWAP1 LOG4 PUSH1 0x1 SWAP1 POP PUSH2 0x3014 JUMP JUMPDEST PUSH0 SWAP1 POP JUMPDEST SWAP3 SWAP2 POP POP JUMP JUMPDEST PUSH2 0x3022 PUSH2 0x2ECC JUMP JUMPDEST PUSH20 0xFFFFFFFFFFFFFFFFFFFFFFFFFFFFFFFFFFFFFFFF AND DUP2 PUSH20 0xFFFFFFFFFFFFFFFFFFFFFFFFFFFFFFFFFFFFFFFF AND EQ PUSH2 0x3086 JUMPI PUSH1 0x40 MLOAD PUSH32 0x6697B23200000000000000000000000000000000000000000000000000000000 DUP2 MSTORE PUSH1 0x4 ADD PUSH1 0x40 MLOAD DUP1 SWAP2 SUB SWAP1 REVERT JUMPDEST PUSH2 0x3090 DUP3 DUP3 PUSH2 0x36AC JUMP JUMPDEST POP POP POP JUMP JUMPDEST PUSH2 0x309D PUSH2 0x3796 JUMP JUMPDEST PUSH0 PUSH1 0x2 PUSH0 PUSH2 0x100 EXP DUP2 SLOAD DUP2 PUSH1 0xFF MUL NOT AND SWAP1 DUP4 ISZERO ISZERO MUL OR SWAP1 SSTORE POP PUSH32 0x5DB9EE0A495BF2E6FF9C91A7834C1BA4FDD244A5E8AA4E537BD38AEAE4B073AA PUSH2 0x30DF PUSH2 0x2ECC JUMP JUMPDEST PUSH1 0x40 MLOAD PUSH2 0x30EC SWAP2 SWAP1 PUSH2 0x43E7 JUMP JUMPDEST PUSH1 0x40 MLOAD DUP1 SWAP2 SUB SWAP1 LOG1 JUMP JUMPDEST PUSH0 PUSH2 0x3104 DUP7 DUP7 DUP7 DUP7 DUP7 PUSH2 0x29ED JUMP JUMPDEST SWAP1 POP PUSH1 0x7 PUSH0 DUP3 DUP2 MSTORE PUSH1 0x20 ADD SWAP1 DUP2 MSTORE PUSH1 0x20 ADD PUSH0 KECCAK256 PUSH0 SWAP1 SLOAD SWAP1 PUSH2 0x100 EXP SWAP1 DIV PUSH1 0xFF AND ISZERO PUSH2 0x3164 JUMPI PUSH1 0x40 MLOAD PUSH32 0x8C379A000000000000000000000000000000000000000000000000000000000 DUP2 MSTORE PUSH1 0x4 ADD PUSH2 0x315B SWAP1 PUSH2 0x585E JUMP JUMPDEST PUSH1 0x40 MLOAD DUP1 SWAP2 SUB SWAP1 REVERT JUMPDEST PUSH1 0x1 PUSH1 0x7 PUSH0 DUP4 DUP2 MSTORE PUSH1 0x20 ADD SWAP1 DUP2 MSTORE PUSH1 0x20 ADD PUSH0 KECCAK256 PUSH0 PUSH2 0x100 EXP DUP2 SLOAD DUP2 PUSH1 0xFF MUL NOT AND SWAP1 DUP4 ISZERO ISZERO MUL OR SWAP1 SSTORE POP POP POP POP POP POP POP JUMP JUMPDEST PUSH0 DUP1 PUSH20 0xFFFFFFFFFFFFFFFFFFFFFFFFFFFFFFFFFFFFFFFF AND PUSH1 0x2 PUSH1 0x1 SWAP1 SLOAD SWAP1 PUSH2 0x100 EXP SWAP1 DIV PUSH20 0xFFFFFFFFFFFFFFFFFFFFFFFFFFFFFFFFFFFFFFFF AND PUSH20 0xFFFFFFFFFFFFFFFFFFFFFFFFFFFFFFFFFFFFFFFF AND SUB PUSH2 0x3261 JUMPI DUP2 SELFBALANCE LT ISZERO PUSH2 0x322E JUMPI PUSH1 0x40 MLOAD PUSH32 0x8C379A000000000000000000000000000000000000000000000000000000000 DUP2 MSTORE PUSH1 0x4 ADD PUSH2 0x3225 SWAP1 PUSH2 0x539F JUMP JUMPDEST PUSH1 0x40 MLOAD DUP1 SWAP2 SUB SWAP1 REVERT JUMPDEST PUSH0 DUP4 SWAP1 POP PUSH2 0x325B DUP4 DUP3 PUSH20 0xFFFFFFFFFFFFFFFFFFFFFFFFFFFFFFFFFFFFFFFF AND PUSH2 0x344F SWAP1 SWAP2 SWAP1 PUSH4 0xFFFFFFFF AND JUMP JUMPDEST POP PUSH2 0x338B JUMP JUMPDEST DUP2 PUSH1 0x2 PUSH1 0x1 SWAP1 SLOAD SWAP1 PUSH2 0x100 EXP SWAP1 DIV PUSH20 0xFFFFFFFFFFFFFFFFFFFFFFFFFFFFFFFFFFFFFFFF AND PUSH20 0xFFFFFFFFFFFFFFFFFFFFFFFFFFFFFFFFFFFFFFFF AND PUSH4 0x70A08231 ADDRESS PUSH1 0x40 MLOAD DUP3 PUSH4 0xFFFFFFFF AND PUSH1 0xE0 SHL DUP2 MSTORE PUSH1 0x4 ADD PUSH2 0x32BD SWAP2 SWAP1 PUSH2 0x43E7 JUMP JUMPDEST PUSH1 0x20 PUSH1 0x40 MLOAD DUP1 DUP4 SUB DUP2 DUP7 GAS STATICCALL ISZERO DUP1 ISZERO PUSH2 0x32D8 JUMPI RETURNDATASIZE PUSH0 DUP1 RETURNDATACOPY RETURNDATASIZE PUSH0 REVERT JUMPDEST POP POP POP POP PUSH1 0x40 MLOAD RETURNDATASIZE PUSH1 0x1F NOT PUSH1 0x1F DUP3 ADD AND DUP3 ADD DUP1 PUSH1 0x40 MSTORE POP DUP2 ADD SWAP1 PUSH2 0x32FC SWAP2 SWAP1 PUSH2 0x4A29 JUMP JUMPDEST LT ISZERO PUSH2 0x333D JUMPI PUSH1 0x40 MLOAD PUSH32 0x8C379A000000000000000000000000000000000000000000000000000000000 DUP2 MSTORE PUSH1 0x4 ADD PUSH2 0x3334 SWAP1 PUSH2 0x58C6 JUMP JUMPDEST PUSH1 0x40 MLOAD DUP1 SWAP2 SUB SWAP1 REVERT JUMPDEST PUSH2 0x338A DUP4 DUP4 PUSH1 0x2 PUSH1 0x1 SWAP1 SLOAD SWAP1 PUSH2 0x100 EXP SWAP1 DIV PUSH20 0xFFFFFFFFFFFFFFFFFFFFFFFFFFFFFFFFFFFFFFFF AND PUSH20 0xFFFFFFFFFFFFFFFFFFFFFFFFFFFFFFFFFFFFFFFF AND PUSH2 0x35BA SWAP1 SWAP3 SWAP2 SWAP1 PUSH4 0xFFFFFFFF AND JUMP JUMPDEST JUMPDEST PUSH1 0x1 SWAP1 POP SWAP3 SWAP2 POP POP JUMP JUMPDEST PUSH2 0x339D PUSH2 0x2ED3 JUMP JUMPDEST PUSH1 0x1 PUSH1 0x2 PUSH0 PUSH2 0x100 EXP DUP2 SLOAD DUP2 PUSH1 0xFF MUL NOT AND SWAP1 DUP4 ISZERO ISZERO MUL OR SWAP1 SSTORE POP PUSH32 0x62E78CEA01BEE320CD4E420270B5EA74000D11B0C9F74754EBDBFC544B05A258 PUSH2 0x33E0 PUSH2 0x2ECC JUMP JUMPDEST PUSH1 0x40 MLOAD PUSH2 0x33ED SWAP2 SWAP1 PUSH2 0x43E7 JUMP JUMPDEST PUSH1 0x40 MLOAD DUP1 SWAP2 SUB SWAP1 LOG1 JUMP JUMPDEST PUSH0 DUP2 PUSH1 0x40 MLOAD PUSH1 0x20 ADD PUSH2 0x3409 SWAP2 SWAP1 PUSH2 0x4497 JUMP JUMPDEST PUSH1 0x40 MLOAD PUSH1 0x20 DUP2 DUP4 SUB SUB DUP2 MSTORE SWAP1 PUSH1 0x40 MSTORE DUP1 MLOAD SWAP1 PUSH1 0x20 ADD KECCAK256 DUP4 PUSH1 0x40 MLOAD PUSH1 0x20 ADD PUSH2 0x3430 SWAP2 SWAP1 PUSH2 0x4497 JUMP JUMPDEST PUSH1 0x40 MLOAD PUSH1 0x20 DUP2 DUP4 SUB SUB DUP2 MSTORE SWAP1 PUSH1 0x40 MSTORE DUP1 MLOAD SWAP1 PUSH1 0x20 ADD KECCAK256 EQ SWAP1 POP SWAP3 SWAP2 POP POP JUMP JUMPDEST DUP1 SELFBALANCE LT ISZERO PUSH2 0x3494 JUMPI ADDRESS PUSH1 0x40 MLOAD PUSH32 0xCD78605900000000000000000000000000000000000000000000000000000000 DUP2 MSTORE PUSH1 0x4 ADD PUSH2 0x348B SWAP2 SWAP1 PUSH2 0x43E7 JUMP JUMPDEST PUSH1 0x40 MLOAD DUP1 SWAP2 SUB SWAP1 REVERT JUMPDEST PUSH0 DUP3 PUSH20 0xFFFFFFFFFFFFFFFFFFFFFFFFFFFFFFFFFFFFFFFF AND DUP3 PUSH1 0x40 MLOAD PUSH2 0x34B9 SWAP1 PUSH2 0x5911 JUMP JUMPDEST PUSH0 PUSH1 0x40 MLOAD DUP1 DUP4 SUB DUP2 DUP6 DUP8 GAS CALL SWAP3 POP POP POP RETURNDATASIZE DUP1 PUSH0 DUP2 EQ PUSH2 0x34F3 JUMPI PUSH1 0x40 MLOAD SWAP2 POP PUSH1 0x1F NOT PUSH1 0x3F RETURNDATASIZE ADD AND DUP3 ADD PUSH1 0x40 MSTORE RETURNDATASIZE DUP3 MSTORE RETURNDATASIZE PUSH0 PUSH1 0x20 DUP5 ADD RETURNDATACOPY PUSH2 0x34F8 JUMP JUMPDEST PUSH1 0x60 SWAP2 POP JUMPDEST POP POP SWAP1 POP DUP1 PUSH2 0x3533 JUMPI PUSH1 0x40 MLOAD PUSH32 0x1425EA4200000000000000000000000000000000000000000000000000000000 DUP2 MSTORE PUSH1 0x4 ADD PUSH1 0x40 MLOAD DUP1 SWAP2 SUB SWAP1 REVERT JUMPDEST POP POP POP JUMP JUMPDEST PUSH2 0x35B4 DUP5 DUP6 PUSH20 0xFFFFFFFFFFFFFFFFFFFFFFFFFFFFFFFFFFFFFFFF AND PUSH4 0x23B872DD DUP7 DUP7 DUP7 PUSH1 0x40 MLOAD PUSH1 0x24 ADD PUSH2 0x356D SWAP4 SWAP3 SWAP2 SWAP1 PUSH2 0x5925 JUMP JUMPDEST PUSH1 0x40 MLOAD PUSH1 0x20 DUP2 DUP4 SUB SUB DUP2 MSTORE SWAP1 PUSH1 0x40 MSTORE SWAP2 POP PUSH1 0xE0 SHL PUSH1 0x20 DUP3 ADD DUP1 MLOAD PUSH28 0xFFFFFFFFFFFFFFFFFFFFFFFFFFFFFFFFFFFFFFFFFFFFFFFFFFFFFFFF DUP4 DUP2 DUP4 AND OR DUP4 MSTORE POP POP POP POP PUSH2 0x37DF JUMP JUMPDEST POP POP POP POP JUMP JUMPDEST PUSH2 0x3634 DUP4 DUP5 PUSH20 0xFFFFFFFFFFFFFFFFFFFFFFFFFFFFFFFFFFFFFFFF AND PUSH4 0xA9059CBB DUP6 DUP6 PUSH1 0x40 MLOAD PUSH1 0x24 ADD PUSH2 0x35ED SWAP3 SWAP2 SWAP1 PUSH2 0x595A JUMP JUMPDEST PUSH1 0x40 MLOAD PUSH1 0x20 DUP2 DUP4 SUB SUB DUP2 MSTORE SWAP1 PUSH1 0x40 MSTORE SWAP2 POP PUSH1 0xE0 SHL PUSH1 0x20 DUP3 ADD DUP1 MLOAD PUSH28 0xFFFFFFFFFFFFFFFFFFFFFFFFFFFFFFFFFFFFFFFFFFFFFFFFFFFFFFFF DUP4 DUP2 DUP4 AND OR DUP4 MSTORE POP POP POP POP PUSH2 0x37DF JUMP JUMPDEST POP POP POP JUMP JUMPDEST PUSH2 0x3642 DUP3 PUSH2 0xBE6 JUMP JUMPDEST PUSH2 0x364B DUP2 PUSH2 0x2F1D JUMP JUMPDEST PUSH2 0x3655 DUP4 DUP4 PUSH2 0x36AC JUMP JUMPDEST POP POP POP POP JUMP JUMPDEST PUSH2 0x3665 DUP3 DUP3 PUSH2 0x174B JUMP JUMPDEST PUSH2 0x36A8 JUMPI DUP1 DUP3 PUSH1 0x40 MLOAD PUSH32 0xE2517D3F00000000000000000000000000000000000000000000000000000000 DUP2 MSTORE PUSH1 0x4 ADD PUSH2 0x369F SWAP3 SWAP2 SWAP1 PUSH2 0x5981 JUMP JUMPDEST PUSH1 0x40 MLOAD DUP1 SWAP2 SUB SWAP1 REVERT JUMPDEST POP POP JUMP JUMPDEST PUSH0 PUSH2 0x36B7 DUP4 DUP4 PUSH2 0x174B JUMP JUMPDEST ISZERO PUSH2 0x378C JUMPI PUSH0 PUSH1 0x1 PUSH0 DUP6 DUP2 MSTORE PUSH1 0x20 ADD SWAP1 DUP2 MSTORE PUSH1 0x20 ADD PUSH0 KECCAK256 PUSH0 ADD PUSH0 DUP5 PUSH20 0xFFFFFFFFFFFFFFFFFFFFFFFFFFFFFFFFFFFFFFFF AND PUSH20 0xFFFFFFFFFFFFFFFFFFFFFFFFFFFFFFFFFFFFFFFF AND DUP2 MSTORE PUSH1 0x20 ADD SWAP1 DUP2 MSTORE PUSH1 0x20 ADD PUSH0 KECCAK256 PUSH0 PUSH2 0x100 EXP DUP2 SLOAD DUP2 PUSH1 0xFF MUL NOT AND SWAP1 DUP4 ISZERO ISZERO MUL OR SWAP1 SSTORE POP PUSH2 0x3729 PUSH2 0x2ECC JUMP JUMPDEST PUSH20 0xFFFFFFFFFFFFFFFFFFFFFFFFFFFFFFFFFFFFFFFF AND DUP3 PUSH20 0xFFFFFFFFFFFFFFFFFFFFFFFFFFFFFFFFFFFFFFFF AND DUP5 PUSH32 0xF6391F5C32D9C69D2A47EA670B442974B53935D1EDC7FD64EB21E047A839171B PUSH1 0x40 MLOAD PUSH1 0x40 MLOAD DUP1 SWAP2 SUB SWAP1 LOG4 PUSH1 0x1 SWAP1 POP PUSH2 0x3790 JUMP JUMPDEST PUSH0 SWAP1 POP JUMPDEST SWAP3 SWAP2 POP POP JUMP JUMPDEST PUSH2 0x379E PUSH2 0x1017 JUMP JUMPDEST PUSH2 0x37DD JUMPI PUSH1 0x40 MLOAD PUSH32 0x8C379A000000000000000000000000000000000000000000000000000000000 DUP2 MSTORE PUSH1 0x4 ADD PUSH2 0x37D4 SWAP1 PUSH2 0x59F2 JUMP JUMPDEST PUSH1 0x40 MLOAD DUP1 SWAP2 SUB SWAP1 REVERT JUMPDEST JUMP JUMPDEST PUSH0 PUSH2 0x3809 DUP3 DUP5 PUSH20 0xFFFFFFFFFFFFFFFFFFFFFFFFFFFFFFFFFFFFFFFF AND PUSH2 0x3874 SWAP1 SWAP2 SWAP1 PUSH4 0xFFFFFFFF AND JUMP JUMPDEST SWAP1 POP PUSH0 DUP2 MLOAD EQ ISZERO DUP1 ISZERO PUSH2 0x382D JUMPI POP DUP1 DUP1 PUSH1 0x20 ADD SWAP1 MLOAD DUP2 ADD SWAP1 PUSH2 0x382B SWAP2 SWAP1 PUSH2 0x5A3A JUMP JUMPDEST ISZERO JUMPDEST ISZERO PUSH2 0x386F JUMPI DUP3 PUSH1 0x40 MLOAD PUSH32 0x5274AFE700000000000000000000000000000000000000000000000000000000 DUP2 MSTORE PUSH1 0x4 ADD PUSH2 0x3866 SWAP2 SWAP1 PUSH2 0x43E7 JUMP JUMPDEST PUSH1 0x40 MLOAD DUP1 SWAP2 SUB SWAP1 REVERT JUMPDEST POP POP POP JUMP JUMPDEST PUSH1 0x60 PUSH2 0x3881 DUP4 DUP4 PUSH0 PUSH2 0x3889 JUMP JUMPDEST SWAP1 POP SWAP3 SWAP2 POP POP JUMP JUMPDEST PUSH1 0x60 DUP2 SELFBALANCE LT ISZERO PUSH2 0x38D0 JUMPI ADDRESS PUSH1 0x40 MLOAD PUSH32 0xCD78605900000000000000000000000000000000000000000000000000000000 DUP2 MSTORE PUSH1 0x4 ADD PUSH2 0x38C7 SWAP2 SWAP1 PUSH2 0x43E7 JUMP JUMPDEST PUSH1 0x40 MLOAD DUP1 SWAP2 SUB SWAP1 REVERT JUMPDEST PUSH0 DUP1 DUP6 PUSH20 0xFFFFFFFFFFFFFFFFFFFFFFFFFFFFFFFFFFFFFFFF AND DUP5 DUP7 PUSH1 0x40 MLOAD PUSH2 0x38F8 SWAP2 SWAP1 PUSH2 0x5A9F JUMP JUMPDEST PUSH0 PUSH1 0x40 MLOAD DUP1 DUP4 SUB DUP2 DUP6 DUP8 GAS CALL SWAP3 POP POP POP RETURNDATASIZE DUP1 PUSH0 DUP2 EQ PUSH2 0x3932 JUMPI PUSH1 0x40 MLOAD SWAP2 POP PUSH1 0x1F NOT PUSH1 0x3F RETURNDATASIZE ADD AND DUP3 ADD PUSH1 0x40 MSTORE RETURNDATASIZE DUP3 MSTORE RETURNDATASIZE PUSH0 PUSH1 0x20 DUP5 ADD RETURNDATACOPY PUSH2 0x3937 JUMP JUMPDEST PUSH1 0x60 SWAP2 POP JUMPDEST POP SWAP2 POP SWAP2 POP PUSH2 0x3947 DUP7 DUP4 DUP4 PUSH2 0x3952 JUMP JUMPDEST SWAP3 POP POP POP SWAP4 SWAP3 POP POP POP JUMP JUMPDEST PUSH1 0x60 DUP3 PUSH2 0x3967 JUMPI PUSH2 0x3962 DUP3 PUSH2 0x39DF JUMP JUMPDEST PUSH2 0x39D7 JUMP JUMPDEST PUSH0 DUP3 MLOAD EQ DUP1 ISZERO PUSH2 0x398D JUMPI POP PUSH0 DUP5 PUSH20 0xFFFFFFFFFFFFFFFFFFFFFFFFFFFFFFFFFFFFFFFF AND EXTCODESIZE EQ JUMPDEST ISZERO PUSH2 0x39CF JUMPI DUP4 PUSH1 0x40 MLOAD PUSH32 0x9996B31500000000000000000000000000000000000000000000000000000000 DUP2 MSTORE PUSH1 0x4 ADD PUSH2 0x39C6 SWAP2 SWAP1 PUSH2 0x43E7 JUMP JUMPDEST PUSH1 0x40 MLOAD DUP1 SWAP2 SUB SWAP1 REVERT JUMPDEST DUP2 SWAP1 POP PUSH2 0x39D8 JUMP JUMPDEST JUMPDEST SWAP4 SWAP3 POP POP POP JUMP JUMPDEST PUSH0 DUP2 MLOAD GT ISZERO PUSH2 0x39F1 JUMPI DUP1 MLOAD DUP1 DUP3 PUSH1 0x20 ADD REVERT JUMPDEST PUSH1 0x40 MLOAD PUSH32 0x1425EA4200000000000000000000000000000000000000000000000000000000 DUP2 MSTORE PUSH1 0x4 ADD PUSH1 0x40 MLOAD DUP1 SWAP2 SUB SWAP1 REVERT JUMPDEST POP DUP1 SLOAD PUSH2 0x3A2F SWAP1 PUSH2 0x442D JUMP JUMPDEST PUSH0 DUP3 SSTORE DUP1 PUSH1 0x1F LT PUSH2 0x3A40 JUMPI POP PUSH2 0x3A5D JUMP JUMPDEST PUSH1 0x1F ADD PUSH1 0x20 SWAP1 DIV SWAP1 PUSH0 MSTORE PUSH1 0x20 PUSH0 KECCAK256 SWAP1 DUP2 ADD SWAP1 PUSH2 0x3A5C SWAP2 SWAP1 PUSH2 0x3A72 JUMP JUMPDEST JUMPDEST POP JUMP JUMPDEST PUSH1 0x40 MLOAD DUP1 PUSH1 0x20 ADD PUSH1 0x40 MSTORE DUP1 PUSH0 DUP2 MSTORE POP SWAP1 JUMP JUMPDEST JUMPDEST DUP1 DUP3 GT ISZERO PUSH2 0x3A89 JUMPI PUSH0 DUP2 PUSH0 SWAP1 SSTORE POP PUSH1 0x1 ADD PUSH2 0x3A73 JUMP JUMPDEST POP SWAP1 JUMP JUMPDEST PUSH0 DUP2 SWAP1 POP SWAP2 SWAP1 POP JUMP JUMPDEST PUSH2 0x3A9F DUP2 PUSH2 0x3A8D JUMP JUMPDEST DUP3 MSTORE POP POP JUMP JUMPDEST PUSH0 PUSH1 0x20 DUP3 ADD SWAP1 POP PUSH2 0x3AB8 PUSH0 DUP4 ADD DUP5 PUSH2 0x3A96 JUMP JUMPDEST SWAP3 SWAP2 POP POP JUMP JUMPDEST PUSH0 PUSH1 0x40 MLOAD SWAP1 POP SWAP1 JUMP JUMPDEST PUSH0 DUP1 REVERT JUMPDEST PUSH0 DUP1 REVERT JUMPDEST PUSH0 PUSH32 0xFFFFFFFF00000000000000000000000000000000000000000000000000000000 DUP3 AND SWAP1 POP SWAP2 SWAP1 POP JUMP JUMPDEST PUSH2 0x3B03 DUP2 PUSH2 0x3ACF JUMP JUMPDEST DUP2 EQ PUSH2 0x3B0D JUMPI PUSH0 DUP1 REVERT JUMPDEST POP JUMP JUMPDEST PUSH0 DUP2 CALLDATALOAD SWAP1 POP PUSH2 0x3B1E DUP2 PUSH2 0x3AFA JUMP JUMPDEST SWAP3 SWAP2 POP POP JUMP JUMPDEST PUSH0 PUSH1 0x20 DUP3 DUP5 SUB SLT ISZERO PUSH2 0x3B39 JUMPI PUSH2 0x3B38 PUSH2 0x3AC7 JUMP JUMPDEST JUMPDEST PUSH0 PUSH2 0x3B46 DUP5 DUP3 DUP6 ADD PUSH2 0x3B10 JUMP JUMPDEST SWAP2 POP POP SWAP3 SWAP2 POP POP JUMP JUMPDEST PUSH0 DUP2 ISZERO ISZERO SWAP1 POP SWAP2 SWAP1 POP JUMP JUMPDEST PUSH2 0x3B63 DUP2 PUSH2 0x3B4F JUMP JUMPDEST DUP3 MSTORE POP POP JUMP JUMPDEST PUSH0 PUSH1 0x20 DUP3 ADD SWAP1 POP PUSH2 0x3B7C PUSH0 DUP4 ADD DUP5 PUSH2 0x3B5A JUMP JUMPDEST SWAP3 SWAP2 POP POP JUMP JUMPDEST PUSH2 0x3B8B DUP2 PUSH2 0x3A8D JUMP JUMPDEST DUP2 EQ PUSH2 0x3B95 JUMPI PUSH0 DUP1 REVERT JUMPDEST POP JUMP JUMPDEST PUSH0 DUP2 CALLDATALOAD SWAP1 POP PUSH2 0x3BA6 DUP2 PUSH2 0x3B82 JUMP JUMPDEST SWAP3 SWAP2 POP POP JUMP JUMPDEST PUSH0 PUSH1 0x20 DUP3 DUP5 SUB SLT ISZERO PUSH2 0x3BC1 JUMPI PUSH2 0x3BC0 PUSH2 0x3AC7 JUMP JUMPDEST JUMPDEST PUSH0 PUSH2 0x3BCE DUP5 DUP3 DUP6 ADD PUSH2 0x3B98 JUMP JUMPDEST SWAP2 POP POP SWAP3 SWAP2 POP POP JUMP JUMPDEST PUSH0 DUP2 MLOAD SWAP1 POP SWAP2 SWAP1 POP JUMP JUMPDEST PUSH0 DUP3 DUP3 MSTORE PUSH1 0x20 DUP3 ADD SWAP1 POP SWAP3 SWAP2 POP POP JUMP JUMPDEST DUP3 DUP2 DUP4 MCOPY PUSH0 DUP4 DUP4 ADD MSTORE POP POP POP JUMP JUMPDEST PUSH0 PUSH1 0x1F NOT PUSH1 0x1F DUP4 ADD AND SWAP1 POP SWAP2 SWAP1 POP JUMP JUMPDEST PUSH0 PUSH2 0x3C19 DUP3 PUSH2 0x3BD7 JUMP JUMPDEST PUSH2 0x3C23 DUP2 DUP6 PUSH2 0x3BE1 JUMP JUMPDEST SWAP4 POP PUSH2 0x3C33 DUP2 DUP6 PUSH1 0x20 DUP7 ADD PUSH2 0x3BF1 JUMP JUMPDEST PUSH2 0x3C3C DUP2 PUSH2 0x3BFF JUMP JUMPDEST DUP5 ADD SWAP2 POP POP SWAP3 SWAP2 POP POP JUMP JUMPDEST PUSH0 PUSH1 0x20 DUP3 ADD SWAP1 POP DUP2 DUP2 SUB PUSH0 DUP4 ADD MSTORE PUSH2 0x3C5F DUP2 DUP5 PUSH2 0x3C0F JUMP JUMPDEST SWAP1 POP SWAP3 SWAP2 POP POP JUMP JUMPDEST PUSH0 DUP1 REVERT JUMPDEST PUSH0 DUP1 REVERT JUMPDEST PUSH32 0x4E487B7100000000000000000000000000000000000000000000000000000000 PUSH0 MSTORE PUSH1 0x41 PUSH1 0x4 MSTORE PUSH1 0x24 PUSH0 REVERT JUMPDEST PUSH2 0x3CA5 DUP3 PUSH2 0x3BFF JUMP JUMPDEST DUP2 ADD DUP2 DUP2 LT PUSH8 0xFFFFFFFFFFFFFFFF DUP3 GT OR ISZERO PUSH2 0x3CC4 JUMPI PUSH2 0x3CC3 PUSH2 0x3C6F JUMP JUMPDEST JUMPDEST DUP1 PUSH1 0x40 MSTORE POP POP POP JUMP JUMPDEST PUSH0 PUSH2 0x3CD6 PUSH2 0x3ABE JUMP JUMPDEST SWAP1 POP PUSH2 0x3CE2 DUP3 DUP3 PUSH2 0x3C9C JUMP JUMPDEST SWAP2 SWAP1 POP JUMP JUMPDEST PUSH0 PUSH8 0xFFFFFFFFFFFFFFFF DUP3 GT ISZERO PUSH2 0x3D01 JUMPI PUSH2 0x3D00 PUSH2 0x3C6F JUMP JUMPDEST JUMPDEST PUSH2 0x3D0A DUP3 PUSH2 0x3BFF JUMP JUMPDEST SWAP1 POP PUSH1 0x20 DUP2 ADD SWAP1 POP SWAP2 SWAP1 POP JUMP JUMPDEST DUP3 DUP2 DUP4 CALLDATACOPY PUSH0 DUP4 DUP4 ADD MSTORE POP POP POP JUMP JUMPDEST PUSH0 PUSH2 0x3D37 PUSH2 0x3D32 DUP5 PUSH2 0x3CE7 JUMP JUMPDEST PUSH2 0x3CCD JUMP JUMPDEST SWAP1 POP DUP3 DUP2 MSTORE PUSH1 0x20 DUP2 ADD DUP5 DUP5 DUP5 ADD GT ISZERO PUSH2 0x3D53 JUMPI PUSH2 0x3D52 PUSH2 0x3C6B JUMP JUMPDEST JUMPDEST PUSH2 0x3D5E DUP5 DUP3 DUP6 PUSH2 0x3D17 JUMP JUMPDEST POP SWAP4 SWAP3 POP POP POP JUMP JUMPDEST PUSH0 DUP3 PUSH1 0x1F DUP4 ADD SLT PUSH2 0x3D7A JUMPI PUSH2 0x3D79 PUSH2 0x3C67 JUMP JUMPDEST JUMPDEST DUP2 CALLDATALOAD PUSH2 0x3D8A DUP5 DUP3 PUSH1 0x20 DUP7 ADD PUSH2 0x3D25 JUMP JUMPDEST SWAP2 POP POP SWAP3 SWAP2 POP POP JUMP JUMPDEST PUSH0 PUSH1 0x20 DUP3 DUP5 SUB SLT ISZERO PUSH2 0x3DA8 JUMPI PUSH2 0x3DA7 PUSH2 0x3AC7 JUMP JUMPDEST JUMPDEST PUSH0 DUP3 ADD CALLDATALOAD PUSH8 0xFFFFFFFFFFFFFFFF DUP2 GT ISZERO PUSH2 0x3DC5 JUMPI PUSH2 0x3DC4 PUSH2 0x3ACB JUMP JUMPDEST JUMPDEST PUSH2 0x3DD1 DUP5 DUP3 DUP6 ADD PUSH2 0x3D66 JUMP JUMPDEST SWAP2 POP POP SWAP3 SWAP2 POP POP JUMP JUMPDEST PUSH0 DUP2 SWAP1 POP SWAP2 SWAP1 POP JUMP JUMPDEST PUSH2 0x3DEC DUP2 PUSH2 0x3DDA JUMP JUMPDEST DUP2 EQ PUSH2 0x3DF6 JUMPI PUSH0 DUP1 REVERT JUMPDEST POP JUMP JUMPDEST PUSH0 DUP2 CALLDATALOAD SWAP1 POP PUSH2 0x3E07 DUP2 PUSH2 0x3DE3 JUMP JUMPDEST SWAP3 SWAP2 POP POP JUMP JUMPDEST PUSH0 PUSH1 0x20 DUP3 DUP5 SUB SLT ISZERO PUSH2 0x3E22 JUMPI PUSH2 0x3E21 PUSH2 0x3AC7 JUMP JUMPDEST JUMPDEST PUSH0 PUSH2 0x3E2F DUP5 DUP3 DUP6 ADD PUSH2 0x3DF9 JUMP JUMPDEST SWAP2 POP POP SWAP3 SWAP2 POP POP JUMP JUMPDEST PUSH2 0x3E41 DUP2 PUSH2 0x3DDA JUMP JUMPDEST DUP3 MSTORE POP POP JUMP JUMPDEST PUSH0 PUSH1 0x20 DUP3 ADD SWAP1 POP PUSH2 0x3E5A PUSH0 DUP4 ADD DUP5 PUSH2 0x3E38 JUMP JUMPDEST SWAP3 SWAP2 POP POP JUMP JUMPDEST PUSH0 DUP1 PUSH1 0x40 DUP4 DUP6 SUB SLT ISZERO PUSH2 0x3E76 JUMPI PUSH2 0x3E75 PUSH2 0x3AC7 JUMP JUMPDEST JUMPDEST PUSH0 DUP4 ADD CALLDATALOAD PUSH8 0xFFFFFFFFFFFFFFFF DUP2 GT ISZERO PUSH2 0x3E93 JUMPI PUSH2 0x3E92 PUSH2 0x3ACB JUMP JUMPDEST JUMPDEST PUSH2 0x3E9F DUP6 DUP3 DUP7 ADD PUSH2 0x3D66 JUMP JUMPDEST SWAP3 POP POP PUSH1 0x20 PUSH2 0x3EB0 DUP6 DUP3 DUP7 ADD PUSH2 0x3B98 JUMP JUMPDEST SWAP2 POP POP SWAP3 POP SWAP3 SWAP1 POP JUMP JUMPDEST PUSH0 PUSH20 0xFFFFFFFFFFFFFFFFFFFFFFFFFFFFFFFFFFFFFFFF DUP3 AND SWAP1 POP SWAP2 SWAP1 POP JUMP JUMPDEST PUSH0 PUSH2 0x3EE3 DUP3 PUSH2 0x3EBA JUMP JUMPDEST SWAP1 POP SWAP2 SWAP1 POP JUMP JUMPDEST PUSH2 0x3EF3 DUP2 PUSH2 0x3ED9 JUMP JUMPDEST DUP2 EQ PUSH2 0x3EFD JUMPI PUSH0 DUP1 REVERT JUMPDEST POP JUMP JUMPDEST PUSH0 DUP2 CALLDATALOAD SWAP1 POP PUSH2 0x3F0E DUP2 PUSH2 0x3EEA JUMP JUMPDEST SWAP3 SWAP2 POP POP JUMP JUMPDEST PUSH0 DUP1 PUSH1 0x40 DUP4 DUP6 SUB SLT ISZERO PUSH2 0x3F2A JUMPI PUSH2 0x3F29 PUSH2 0x3AC7 JUMP JUMPDEST JUMPDEST PUSH0 PUSH2 0x3F37 DUP6 DUP3 DUP7 ADD PUSH2 0x3DF9 JUMP JUMPDEST SWAP3 POP POP PUSH1 0x20 PUSH2 0x3F48 DUP6 DUP3 DUP7 ADD PUSH2 0x3F00 JUMP JUMPDEST SWAP2 POP POP SWAP3 POP SWAP3 SWAP1 POP JUMP JUMPDEST PUSH0 PUSH1 0x20 DUP3 DUP5 SUB SLT ISZERO PUSH2 0x3F67 JUMPI PUSH2 0x3F66 PUSH2 0x3AC7 JUMP JUMPDEST JUMPDEST PUSH0 PUSH2 0x3F74 DUP5 DUP3 DUP6 ADD PUSH2 0x3F00 JUMP JUMPDEST SWAP2 POP POP SWAP3 SWAP2 POP POP JUMP JUMPDEST PUSH0 PUSH2 0x3F87 DUP3 PUSH2 0x3EBA JUMP JUMPDEST SWAP1 POP SWAP2 SWAP1 POP JUMP JUMPDEST PUSH2 0x3F97 DUP2 PUSH2 0x3F7D JUMP JUMPDEST DUP2 EQ PUSH2 0x3FA1 JUMPI PUSH0 DUP1 REVERT JUMPDEST POP JUMP JUMPDEST PUSH0 DUP2 CALLDATALOAD SWAP1 POP PUSH2 0x3FB2 DUP2 PUSH2 0x3F8E JUMP JUMPDEST SWAP3 SWAP2 POP POP JUMP JUMPDEST PUSH0 DUP1 REVERT JUMPDEST PUSH0 DUP1 REVERT JUMPDEST PUSH0 DUP1 DUP4 PUSH1 0x1F DUP5 ADD SLT PUSH2 0x3FD5 JUMPI PUSH2 0x3FD4 PUSH2 0x3C67 JUMP JUMPDEST JUMPDEST DUP3 CALLDATALOAD SWAP1 POP PUSH8 0xFFFFFFFFFFFFFFFF DUP2 GT ISZERO PUSH2 0x3FF2 JUMPI PUSH2 0x3FF1 PUSH2 0x3FB8 JUMP JUMPDEST JUMPDEST PUSH1 0x20 DUP4 ADD SWAP2 POP DUP4 PUSH1 0x1 DUP3 MUL DUP4 ADD GT ISZERO PUSH2 0x400E JUMPI PUSH2 0x400D PUSH2 0x3FBC JUMP JUMPDEST JUMPDEST SWAP3 POP SWAP3 SWAP1 POP JUMP JUMPDEST PUSH0 PUSH4 0xFFFFFFFF DUP3 AND SWAP1 POP SWAP2 SWAP1 POP JUMP JUMPDEST PUSH2 0x402D DUP2 PUSH2 0x4015 JUMP JUMPDEST DUP2 EQ PUSH2 0x4037 JUMPI PUSH0 DUP1 REVERT JUMPDEST POP JUMP JUMPDEST PUSH0 DUP2 CALLDATALOAD SWAP1 POP PUSH2 0x4048 DUP2 PUSH2 0x4024 JUMP JUMPDEST SWAP3 SWAP2 POP POP JUMP JUMPDEST PUSH0 DUP1 PUSH0 DUP1 PUSH0 DUP1 PUSH0 PUSH1 0xC0 DUP9 DUP11 SUB SLT ISZERO PUSH2 0x4069 JUMPI PUSH2 0x4068 PUSH2 0x3AC7 JUMP JUMPDEST JUMPDEST PUSH0 PUSH2 0x4076 DUP11 DUP3 DUP12 ADD PUSH2 0x3FA4 JUMP JUMPDEST SWAP8 POP POP PUSH1 0x20 PUSH2 0x4087 DUP11 DUP3 DUP12 ADD PUSH2 0x3B98 JUMP JUMPDEST SWAP7 POP POP PUSH1 0x40 DUP9 ADD CALLDATALOAD PUSH8 0xFFFFFFFFFFFFFFFF DUP2 GT ISZERO PUSH2 0x40A8 JUMPI PUSH2 0x40A7 PUSH2 0x3ACB JUMP JUMPDEST JUMPDEST PUSH2 0x40B4 DUP11 DUP3 DUP12 ADD PUSH2 0x3FC0 JUMP JUMPDEST SWAP6 POP SWAP6 POP POP PUSH1 0x60 PUSH2 0x40C7 DUP11 DUP3 DUP12 ADD PUSH2 0x3DF9 JUMP JUMPDEST SWAP4 POP POP PUSH1 0x80 PUSH2 0x40D8 DUP11 DUP3 DUP12 ADD PUSH2 0x3DF9 JUMP JUMPDEST SWAP3 POP POP PUSH1 0xA0 PUSH2 0x40E9 DUP11 DUP3 DUP12 ADD PUSH2 0x403A JUMP JUMPDEST SWAP2 POP POP SWAP3 SWAP6 SWAP9 SWAP2 SWAP5 SWAP8 POP SWAP3 SWAP6 POP JUMP JUMPDEST PUSH0 DUP1 PUSH0 DUP1 PUSH0 PUSH1 0x60 DUP7 DUP9 SUB SLT ISZERO PUSH2 0x4111 JUMPI PUSH2 0x4110 PUSH2 0x3AC7 JUMP JUMPDEST JUMPDEST PUSH0 PUSH2 0x411E DUP9 DUP3 DUP10 ADD PUSH2 0x3B98 JUMP JUMPDEST SWAP6 POP POP PUSH1 0x20 DUP7 ADD CALLDATALOAD PUSH8 0xFFFFFFFFFFFFFFFF DUP2 GT ISZERO PUSH2 0x413F JUMPI PUSH2 0x413E PUSH2 0x3ACB JUMP JUMPDEST JUMPDEST PUSH2 0x414B DUP9 DUP3 DUP10 ADD PUSH2 0x3FC0 JUMP JUMPDEST SWAP5 POP SWAP5 POP POP PUSH1 0x40 DUP7 ADD CALLDATALOAD PUSH8 0xFFFFFFFFFFFFFFFF DUP2 GT ISZERO PUSH2 0x416E JUMPI PUSH2 0x416D PUSH2 0x3ACB JUMP JUMPDEST JUMPDEST PUSH2 0x417A DUP9 DUP3 DUP10 ADD PUSH2 0x3FC0 JUMP JUMPDEST SWAP3 POP SWAP3 POP POP SWAP3 SWAP6 POP SWAP3 SWAP6 SWAP1 SWAP4 POP JUMP JUMPDEST PUSH0 DUP2 MLOAD SWAP1 POP SWAP2 SWAP1 POP JUMP JUMPDEST PUSH0 DUP3 DUP3 MSTORE PUSH1 0x20 DUP3 ADD SWAP1 POP SWAP3 SWAP2 POP POP JUMP JUMPDEST PUSH0 DUP2 SWAP1 POP PUSH1 0x20 DUP3 ADD SWAP1 POP SWAP2 SWAP1 POP JUMP JUMPDEST PUSH0 DUP3 DUP3 MSTORE PUSH1 0x20 DUP3 ADD SWAP1 POP SWAP3 SWAP2 POP POP JUMP JUMPDEST PUSH0 PUSH2 0x41CC DUP3 PUSH2 0x3BD7 JUMP JUMPDEST PUSH2 0x41D6 DUP2 DUP6 PUSH2 0x41B2 JUMP JUMPDEST SWAP4 POP PUSH2 0x41E6 DUP2 DUP6 PUSH1 0x20 DUP7 ADD PUSH2 0x3BF1 JUMP JUMPDEST PUSH2 0x41EF DUP2 PUSH2 0x3BFF JUMP JUMPDEST DUP5 ADD SWAP2 POP POP SWAP3 SWAP2 POP POP JUMP JUMPDEST PUSH0 PUSH2 0x4205 DUP4 DUP4 PUSH2 0x41C2 JUMP JUMPDEST SWAP1 POP SWAP3 SWAP2 POP POP JUMP JUMPDEST PUSH0 PUSH1 0x20 DUP3 ADD SWAP1 POP SWAP2 SWAP1 POP JUMP JUMPDEST PUSH0 PUSH2 0x4223 DUP3 PUSH2 0x4189 JUMP JUMPDEST PUSH2 0x422D DUP2 DUP6 PUSH2 0x4193 JUMP JUMPDEST SWAP4 POP DUP4 PUSH1 0x20 DUP3 MUL DUP6 ADD PUSH2 0x423F DUP6 PUSH2 0x41A3 JUMP JUMPDEST DUP1 PUSH0 JUMPDEST DUP6 DUP2 LT ISZERO PUSH2 0x427A JUMPI DUP5 DUP5 SUB DUP10 MSTORE DUP2 MLOAD PUSH2 0x425B DUP6 DUP3 PUSH2 0x41FA JUMP JUMPDEST SWAP5 POP PUSH2 0x4266 DUP4 PUSH2 0x420D JUMP JUMPDEST SWAP3 POP PUSH1 0x20 DUP11 ADD SWAP10 POP POP PUSH1 0x1 DUP2 ADD SWAP1 POP PUSH2 0x4242 JUMP JUMPDEST POP DUP3 SWAP8 POP DUP8 SWAP6 POP POP POP POP POP POP SWAP3 SWAP2 POP POP JUMP JUMPDEST PUSH0 PUSH1 0x20 DUP3 ADD SWAP1 POP DUP2 DUP2 SUB PUSH0 DUP4 ADD MSTORE PUSH2 0x42A4 DUP2 DUP5 PUSH2 0x4219 JUMP JUMPDEST SWAP1 POP SWAP3 SWAP2 POP POP JUMP JUMPDEST PUSH0 DUP1 PUSH1 0x40 DUP4 DUP6 SUB SLT ISZERO PUSH2 0x42C2 JUMPI PUSH2 0x42C1 PUSH2 0x3AC7 JUMP JUMPDEST JUMPDEST PUSH0 PUSH2 0x42CF DUP6 DUP3 DUP7 ADD PUSH2 0x3B98 JUMP JUMPDEST SWAP3 POP POP PUSH1 0x20 PUSH2 0x42E0 DUP6 DUP3 DUP7 ADD PUSH2 0x3FA4 JUMP JUMPDEST SWAP2 POP POP SWAP3 POP SWAP3 SWAP1 POP JUMP JUMPDEST PUSH0 DUP1 PUSH0 DUP1 PUSH0 PUSH1 0xA0 DUP7 DUP9 SUB SLT ISZERO PUSH2 0x4303 JUMPI PUSH2 0x4302 PUSH2 0x3AC7 JUMP JUMPDEST JUMPDEST PUSH0 PUSH2 0x4310 DUP9 DUP3 DUP10 ADD PUSH2 0x3F00 JUMP JUMPDEST SWAP6 POP POP PUSH1 0x20 PUSH2 0x4321 DUP9 DUP3 DUP10 ADD PUSH2 0x3F00 JUMP JUMPDEST SWAP5 POP POP PUSH1 0x40 PUSH2 0x4332 DUP9 DUP3 DUP10 ADD PUSH2 0x3F00 JUMP JUMPDEST SWAP4 POP POP PUSH1 0x60 PUSH2 0x4343 DUP9 DUP3 DUP10 ADD PUSH2 0x3B98 JUMP JUMPDEST SWAP3 POP POP PUSH1 0x80 PUSH2 0x4354 DUP9 DUP3 DUP10 ADD PUSH2 0x3B98 JUMP JUMPDEST SWAP2 POP POP SWAP3 SWAP6 POP SWAP3 SWAP6 SWAP1 SWAP4 POP JUMP JUMPDEST PUSH0 DUP1 PUSH0 DUP1 PUSH0 PUSH1 0xA0 DUP7 DUP9 SUB SLT ISZERO PUSH2 0x437A JUMPI PUSH2 0x4379 PUSH2 0x3AC7 JUMP JUMPDEST JUMPDEST PUSH0 PUSH2 0x4387 DUP9 DUP3 DUP10 ADD PUSH2 0x3DF9 JUMP JUMPDEST SWAP6 POP POP PUSH1 0x20 PUSH2 0x4398 DUP9 DUP3 DUP10 ADD PUSH2 0x3DF9 JUMP JUMPDEST SWAP5 POP POP PUSH1 0x40 PUSH2 0x43A9 DUP9 DUP3 DUP10 ADD PUSH2 0x3F00 JUMP JUMPDEST SWAP4 POP POP PUSH1 0x60 PUSH2 0x43BA DUP9 DUP3 DUP10 ADD PUSH2 0x3B98 JUMP JUMPDEST SWAP3 POP POP PUSH1 0x80 PUSH2 0x43CB DUP9 DUP3 DUP10 ADD PUSH2 0x403A JUMP JUMPDEST SWAP2 POP POP SWAP3 SWAP6 POP SWAP3 SWAP6 SWAP1 SWAP4 POP JUMP JUMPDEST PUSH2 0x43E1 DUP2 PUSH2 0x3ED9 JUMP JUMPDEST DUP3 MSTORE POP POP JUMP JUMPDEST PUSH0 PUSH1 0x20 DUP3 ADD SWAP1 POP PUSH2 0x43FA PUSH0 DUP4 ADD DUP5 PUSH2 0x43D8 JUMP JUMPDEST SWAP3 SWAP2 POP POP JUMP JUMPDEST PUSH32 0x4E487B7100000000000000000000000000000000000000000000000000000000 PUSH0 MSTORE PUSH1 0x22 PUSH1 0x4 MSTORE PUSH1 0x24 PUSH0 REVERT JUMPDEST PUSH0 PUSH1 0x2 DUP3 DIV SWAP1 POP PUSH1 0x1 DUP3 AND DUP1 PUSH2 0x4444 JUMPI PUSH1 0x7F DUP3 AND SWAP2 POP JUMPDEST PUSH1 0x20 DUP3 LT DUP2 SUB PUSH2 0x4457 JUMPI PUSH2 0x4456 PUSH2 0x4400 JUMP JUMPDEST JUMPDEST POP SWAP2 SWAP1 POP JUMP JUMPDEST PUSH0 DUP2 SWAP1 POP SWAP3 SWAP2 POP POP JUMP JUMPDEST PUSH0 PUSH2 0x4471 DUP3 PUSH2 0x3BD7 JUMP JUMPDEST PUSH2 0x447B DUP2 DUP6 PUSH2 0x445D JUMP JUMPDEST SWAP4 POP PUSH2 0x448B DUP2 DUP6 PUSH1 0x20 DUP7 ADD PUSH2 0x3BF1 JUMP JUMPDEST DUP1 DUP5 ADD SWAP2 POP POP SWAP3 SWAP2 POP POP JUMP JUMPDEST PUSH0 PUSH2 0x44A2 DUP3 DUP5 PUSH2 0x4467 JUMP JUMPDEST SWAP2 POP DUP2 SWAP1 POP SWAP3 SWAP2 POP POP JUMP JUMPDEST PUSH32 0x4E487B7100000000000000000000000000000000000000000000000000000000 PUSH0 MSTORE PUSH1 0x11 PUSH1 0x4 MSTORE PUSH1 0x24 PUSH0 REVERT JUMPDEST PUSH0 PUSH2 0x44E4 DUP3 PUSH2 0x3A8D JUMP JUMPDEST SWAP2 POP PUSH2 0x44EF DUP4 PUSH2 0x3A8D JUMP JUMPDEST SWAP3 POP DUP3 DUP3 SUB SWAP1 POP DUP2 DUP2 GT ISZERO PUSH2 0x4507 JUMPI PUSH2 0x4506 PUSH2 0x44AD JUMP JUMPDEST JUMPDEST SWAP3 SWAP2 POP POP JUMP JUMPDEST PUSH32 0x4E487B7100000000000000000000000000000000000000000000000000000000 PUSH0 MSTORE PUSH1 0x32 PUSH1 0x4 MSTORE PUSH1 0x24 PUSH0 REVERT JUMPDEST PUSH32 0x6E6F74206F776E65720000000000000000000000000000000000000000000000 PUSH0 DUP3 ADD MSTORE POP JUMP JUMPDEST PUSH0 PUSH2 0x456E PUSH1 0x9 DUP4 PUSH2 0x3BE1 JUMP JUMPDEST SWAP2 POP PUSH2 0x4579 DUP3 PUSH2 0x453A JUMP JUMPDEST PUSH1 0x20 DUP3 ADD SWAP1 POP SWAP2 SWAP1 POP JUMP JUMPDEST PUSH0 PUSH1 0x20 DUP3 ADD SWAP1 POP DUP2 DUP2 SUB PUSH0 DUP4 ADD MSTORE PUSH2 0x459B DUP2 PUSH2 0x4562 JUMP JUMPDEST SWAP1 POP SWAP2 SWAP1 POP JUMP JUMPDEST PUSH32 0x626C6F636B636861696E206E6F74206578697374730000000000000000000000 PUSH0 DUP3 ADD MSTORE POP JUMP JUMPDEST PUSH0 PUSH2 0x45D6 PUSH1 0x15 DUP4 PUSH2 0x3BE1 JUMP JUMPDEST SWAP2 POP PUSH2 0x45E1 DUP3 PUSH2 0x45A2 JUMP JUMPDEST PUSH1 0x20 DUP3 ADD SWAP1 POP SWAP2 SWAP1 POP JUMP JUMPDEST PUSH0 PUSH1 0x20 DUP3 ADD SWAP1 POP DUP2 DUP2 SUB PUSH0 DUP4 ADD MSTORE PUSH2 0x4603 DUP2 PUSH2 0x45CA JUMP JUMPDEST SWAP1 POP SWAP2 SWAP1 POP JUMP JUMPDEST PUSH0 PUSH1 0x60 DUP3 ADD SWAP1 POP DUP2 DUP2 SUB PUSH0 DUP4 ADD MSTORE PUSH2 0x4622 DUP2 DUP7 PUSH2 0x3C0F JUMP JUMPDEST SWAP1 POP PUSH2 0x4631 PUSH1 0x20 DUP4 ADD DUP6 PUSH2 0x3A96 JUMP JUMPDEST PUSH2 0x463E PUSH1 0x40 DUP4 ADD DUP5 PUSH2 0x3A96 JUMP JUMPDEST SWAP5 SWAP4 POP POP POP POP JUMP JUMPDEST PUSH32 0x63616E206E6F742072656E6F756E636520726F6C65206F776E65720000000000 PUSH0 DUP3 ADD MSTORE POP JUMP JUMPDEST PUSH0 PUSH2 0x467A PUSH1 0x1B DUP4 PUSH2 0x3BE1 JUMP JUMPDEST SWAP2 POP PUSH2 0x4685 DUP3 PUSH2 0x4646 JUMP JUMPDEST PUSH1 0x20 DUP3 ADD SWAP1 POP SWAP2 SWAP1 POP JUMP JUMPDEST PUSH0 PUSH1 0x20 DUP3 ADD SWAP1 POP DUP2 DUP2 SUB PUSH0 DUP4 ADD MSTORE PUSH2 0x46A7 DUP2 PUSH2 0x466E JUMP JUMPDEST SWAP1 POP SWAP2 SWAP1 POP JUMP JUMPDEST PUSH32 0x63616E206F6E6C792072656E6F756E636520726F6C657320666F722073656C66 PUSH0 DUP3 ADD MSTORE POP JUMP JUMPDEST PUSH0 PUSH2 0x46E2 PUSH1 0x20 DUP4 PUSH2 0x3BE1 JUMP JUMPDEST SWAP2 POP PUSH2 0x46ED DUP3 PUSH2 0x46AE JUMP JUMPDEST PUSH1 0x20 DUP3 ADD SWAP1 POP SWAP2 SWAP1 POP JUMP JUMPDEST PUSH0 PUSH1 0x20 DUP3 ADD SWAP1 POP DUP2 DUP2 SUB PUSH0 DUP4 ADD MSTORE PUSH2 0x470F DUP2 PUSH2 0x46D6 JUMP JUMPDEST SWAP1 POP SWAP2 SWAP1 POP JUMP JUMPDEST PUSH32 0x426967676572207468616E203130250000000000000000000000000000000000 PUSH0 DUP3 ADD MSTORE POP JUMP JUMPDEST PUSH0 PUSH2 0x474A PUSH1 0xF DUP4 PUSH2 0x3BE1 JUMP JUMPDEST SWAP2 POP PUSH2 0x4755 DUP3 PUSH2 0x4716 JUMP JUMPDEST PUSH1 0x20 DUP3 ADD SWAP1 POP SWAP2 SWAP1 POP JUMP JUMPDEST PUSH0 PUSH1 0x20 DUP3 ADD SWAP1 POP DUP2 DUP2 SUB PUSH0 DUP4 ADD MSTORE PUSH2 0x4777 DUP2 PUSH2 0x473E JUMP JUMPDEST SWAP1 POP SWAP2 SWAP1 POP JUMP JUMPDEST PUSH0 PUSH1 0x40 DUP3 ADD SWAP1 POP PUSH2 0x4791 PUSH0 DUP4 ADD DUP6 PUSH2 0x3A96 JUMP JUMPDEST PUSH2 0x479E PUSH1 0x20 DUP4 ADD DUP5 PUSH2 0x3A96 JUMP JUMPDEST SWAP4 SWAP3 POP POP POP JUMP JUMPDEST PUSH32 0x6E6F74206D6F6E69746F72000000000000000000000000000000000000000000 PUSH0 DUP3 ADD MSTORE POP JUMP JUMPDEST PUSH0 PUSH2 0x47D9 PUSH1 0xB DUP4 PUSH2 0x3BE1 JUMP JUMPDEST SWAP2 POP PUSH2 0x47E4 DUP3 PUSH2 0x47A5 JUMP JUMPDEST PUSH1 0x20 DUP3 ADD SWAP1 POP SWAP2 SWAP1 POP JUMP JUMPDEST PUSH0 PUSH1 0x20 DUP3 ADD SWAP1 POP DUP2 DUP2 SUB PUSH0 DUP4 ADD MSTORE PUSH2 0x4806 DUP2 PUSH2 0x47CD JUMP JUMPDEST SWAP1 POP SWAP2 SWAP1 POP JUMP JUMPDEST PUSH32 0x7265636569766572206973207A65726F00000000000000000000000000000000 PUSH0 DUP3 ADD MSTORE POP JUMP JUMPDEST PUSH0 PUSH2 0x4841 PUSH1 0x10 DUP4 PUSH2 0x3BE1 JUMP JUMPDEST SWAP2 POP PUSH2 0x484C DUP3 PUSH2 0x480D JUMP JUMPDEST PUSH1 0x20 DUP3 ADD SWAP1 POP SWAP2 SWAP1 POP JUMP JUMPDEST PUSH0 PUSH1 0x20 DUP3 ADD SWAP1 POP DUP2 DUP2 SUB PUSH0 DUP4 ADD MSTORE PUSH2 0x486E DUP2 PUSH2 0x4835 JUMP JUMPDEST SWAP1 POP SWAP2 SWAP1 POP JUMP JUMPDEST PUSH32 0x616D6F756E742069732030000000000000000000000000000000000000000000 PUSH0 DUP3 ADD MSTORE POP JUMP JUMPDEST PUSH0 PUSH2 0x48A9 PUSH1 0xB DUP4 PUSH2 0x3BE1 JUMP JUMPDEST SWAP2 POP PUSH2 0x48B4 DUP3 PUSH2 0x4875 JUMP JUMPDEST PUSH1 0x20 DUP3 ADD SWAP1 POP SWAP2 SWAP1 POP JUMP JUMPDEST PUSH0 PUSH1 0x20 DUP3 ADD SWAP1 POP DUP2 DUP2 SUB PUSH0 DUP4 ADD MSTORE PUSH2 0x48D6 DUP2 PUSH2 0x489D JUMP JUMPDEST SWAP1 POP SWAP2 SWAP1 POP JUMP JUMPDEST PUSH32 0x66726F6D426C6F636B636861696E206E6F742065786973747300000000000000 PUSH0 DUP3 ADD MSTORE POP JUMP JUMPDEST PUSH0 PUSH2 0x4911 PUSH1 0x19 DUP4 PUSH2 0x3BE1 JUMP JUMPDEST SWAP2 POP PUSH2 0x491C DUP3 PUSH2 0x48DD JUMP JUMPDEST PUSH1 0x20 DUP3 ADD SWAP1 POP SWAP2 SWAP1 POP JUMP JUMPDEST PUSH0 PUSH1 0x20 DUP3 ADD SWAP1 POP DUP2 DUP2 SUB PUSH0 DUP4 ADD MSTORE PUSH2 0x493E DUP2 PUSH2 0x4905 JUMP JUMPDEST SWAP1 POP SWAP2 SWAP1 POP JUMP JUMPDEST PUSH32 0x626C6F636B48617368206973206E756C6C000000000000000000000000000000 PUSH0 DUP3 ADD MSTORE POP JUMP JUMPDEST PUSH0 PUSH2 0x4979 PUSH1 0x11 DUP4 PUSH2 0x3BE1 JUMP JUMPDEST SWAP2 POP PUSH2 0x4984 DUP3 PUSH2 0x4945 JUMP JUMPDEST PUSH1 0x20 DUP3 ADD SWAP1 POP SWAP2 SWAP1 POP JUMP JUMPDEST PUSH0 PUSH1 0x20 DUP3 ADD SWAP1 POP DUP2 DUP2 SUB PUSH0 DUP4 ADD MSTORE PUSH2 0x49A6 DUP2 PUSH2 0x496D JUMP JUMPDEST SWAP1 POP SWAP2 SWAP1 POP JUMP JUMPDEST PUSH32 0x7472616E73616374696F6E48617368206973206E756C6C000000000000000000 PUSH0 DUP3 ADD MSTORE POP JUMP JUMPDEST PUSH0 PUSH2 0x49E1 PUSH1 0x17 DUP4 PUSH2 0x3BE1 JUMP JUMPDEST SWAP2 POP PUSH2 0x49EC DUP3 PUSH2 0x49AD JUMP JUMPDEST PUSH1 0x20 DUP3 ADD SWAP1 POP SWAP2 SWAP1 POP JUMP JUMPDEST PUSH0 PUSH1 0x20 DUP3 ADD SWAP1 POP DUP2 DUP2 SUB PUSH0 DUP4 ADD MSTORE PUSH2 0x4A0E DUP2 PUSH2 0x49D5 JUMP JUMPDEST SWAP1 POP SWAP2 SWAP1 POP JUMP JUMPDEST PUSH0 DUP2 MLOAD SWAP1 POP PUSH2 0x4A23 DUP2 PUSH2 0x3B82 JUMP JUMPDEST SWAP3 SWAP2 POP POP JUMP JUMPDEST PUSH0 PUSH1 0x20 DUP3 DUP5 SUB SLT ISZERO PUSH2 0x4A3E JUMPI PUSH2 0x4A3D PUSH2 0x3AC7 JUMP JUMPDEST JUMPDEST PUSH0 PUSH2 0x4A4B DUP5 DUP3 DUP6 ADD PUSH2 0x4A15 JUMP JUMPDEST SWAP2 POP POP SWAP3 SWAP2 POP POP JUMP JUMPDEST PUSH0 DUP2 SLOAD SWAP1 POP PUSH2 0x4A62 DUP2 PUSH2 0x442D JUMP JUMPDEST SWAP1 POP SWAP2 SWAP1 POP JUMP JUMPDEST PUSH0 DUP2 SWAP1 POP DUP2 PUSH0 MSTORE PUSH1 0x20 PUSH0 KECCAK256 SWAP1 POP SWAP2 SWAP1 POP JUMP JUMPDEST PUSH0 DUP2 SWAP1 POP DUP2 PUSH0 MSTORE PUSH1 0x20 PUSH0 KECCAK256 SWAP1 POP SWAP2 SWAP1 POP JUMP JUMPDEST PUSH0 PUSH1 0x20 PUSH1 0x1F DUP4 ADD DIV SWAP1 POP SWAP2 SWAP1 POP JUMP JUMPDEST PUSH0 DUP3 DUP3 SHL SWAP1 POP SWAP3 SWAP2 POP POP JUMP JUMPDEST PUSH0 PUSH1 0x8 DUP4 MUL PUSH2 0x4AD7 PUSH32 0xFFFFFFFFFFFFFFFFFFFFFFFFFFFFFFFFFFFFFFFFFFFFFFFFFFFFFFFFFFFFFFFF DUP3 PUSH2 0x4A9C JUMP JUMPDEST PUSH2 0x4AE1 DUP7 DUP4 PUSH2 0x4A9C JUMP JUMPDEST SWAP6 POP DUP1 NOT DUP5 AND SWAP4 POP DUP1 DUP7 AND DUP5 OR SWAP3 POP POP POP SWAP4 SWAP3 POP POP POP JUMP JUMPDEST PUSH0 DUP2 SWAP1 POP SWAP2 SWAP1 POP JUMP JUMPDEST PUSH0 PUSH2 0x4B1C PUSH2 0x4B17 PUSH2 0x4B12 DUP5 PUSH2 0x3A8D JUMP JUMPDEST PUSH2 0x4AF9 JUMP JUMPDEST PUSH2 0x3A8D JUMP JUMPDEST SWAP1 POP SWAP2 SWAP1 POP JUMP JUMPDEST PUSH0 DUP2 SWAP1 POP SWAP2 SWAP1 POP JUMP JUMPDEST PUSH2 0x4B35 DUP4 PUSH2 0x4B02 JUMP JUMPDEST PUSH2 0x4B49 PUSH2 0x4B41 DUP3 PUSH2 0x4B23 JUMP JUMPDEST DUP5 DUP5 SLOAD PUSH2 0x4AA8 JUMP JUMPDEST DUP3 SSTORE POP POP POP POP JUMP JUMPDEST PUSH0 SWAP1 JUMP JUMPDEST PUSH2 0x4B5D PUSH2 0x4B51 JUMP JUMPDEST PUSH2 0x4B68 DUP2 DUP5 DUP5 PUSH2 0x4B2C JUMP JUMPDEST POP POP POP JUMP JUMPDEST JUMPDEST DUP2 DUP2 LT ISZERO PUSH2 0x4B8B JUMPI PUSH2 0x4B80 PUSH0 DUP3 PUSH2 0x4B55 JUMP JUMPDEST PUSH1 0x1 DUP2 ADD SWAP1 POP PUSH2 0x4B6E JUMP JUMPDEST POP POP JUMP JUMPDEST PUSH1 0x1F DUP3 GT ISZERO PUSH2 0x4BD0 JUMPI PUSH2 0x4BA1 DUP2 PUSH2 0x4A69 JUMP JUMPDEST PUSH2 0x4BAA DUP5 PUSH2 0x4A8D JUMP JUMPDEST DUP2 ADD PUSH1 0x20 DUP6 LT ISZERO PUSH2 0x4BB9 JUMPI DUP2 SWAP1 POP JUMPDEST PUSH2 0x4BCD PUSH2 0x4BC5 DUP6 PUSH2 0x4A8D JUMP JUMPDEST DUP4 ADD DUP3 PUSH2 0x4B6D JUMP JUMPDEST POP POP JUMPDEST POP POP POP JUMP JUMPDEST PUSH0 DUP3 DUP3 SHR SWAP1 POP SWAP3 SWAP2 POP POP JUMP JUMPDEST PUSH0 PUSH2 0x4BF0 PUSH0 NOT DUP5 PUSH1 0x8 MUL PUSH2 0x4BD5 JUMP JUMPDEST NOT DUP1 DUP4 AND SWAP2 POP POP SWAP3 SWAP2 POP POP JUMP JUMPDEST PUSH0 PUSH2 0x4C08 DUP4 DUP4 PUSH2 0x4BE1 JUMP JUMPDEST SWAP2 POP DUP3 PUSH1 0x2 MUL DUP3 OR SWAP1 POP SWAP3 SWAP2 POP POP JUMP JUMPDEST DUP2 DUP2 SUB PUSH2 0x4C26 JUMPI POP POP PUSH2 0x4CFB JUMP JUMPDEST PUSH2 0x4C2F DUP3 PUSH2 0x4A54 JUMP JUMPDEST PUSH8 0xFFFFFFFFFFFFFFFF DUP2 GT ISZERO PUSH2 0x4C48 JUMPI PUSH2 0x4C47 PUSH2 0x3C6F JUMP JUMPDEST JUMPDEST PUSH2 0x4C52 DUP3 SLOAD PUSH2 0x442D JUMP JUMPDEST PUSH2 0x4C5D DUP3 DUP3 DUP6 PUSH2 0x4B8F JUMP JUMPDEST PUSH0 PUSH1 0x1F DUP4 GT PUSH1 0x1 DUP2 EQ PUSH2 0x4C8A JUMPI PUSH0 DUP5 ISZERO PUSH2 0x4C78 JUMPI DUP3 DUP8 ADD SLOAD SWAP1 POP JUMPDEST PUSH2 0x4C82 DUP6 DUP3 PUSH2 0x4BFD JUMP JUMPDEST DUP7 SSTORE POP PUSH2 0x4CF4 JUMP JUMPDEST PUSH1 0x1F NOT DUP5 AND PUSH2 0x4C98 DUP8 PUSH2 0x4A7B JUMP JUMPDEST SWAP7 POP PUSH2 0x4CA3 DUP7 PUSH2 0x4A69 JUMP JUMPDEST PUSH0 JUMPDEST DUP3 DUP2 LT ISZERO PUSH2 0x4CCA JUMPI DUP5 DUP10 ADD SLOAD DUP3 SSTORE PUSH1 0x1 DUP3 ADD SWAP2 POP PUSH1 0x1 DUP6 ADD SWAP5 POP PUSH1 0x20 DUP2 ADD SWAP1 POP PUSH2 0x4CA5 JUMP JUMPDEST DUP7 DUP4 LT ISZERO PUSH2 0x4CE7 JUMPI DUP5 DUP10 ADD SLOAD PUSH2 0x4CE3 PUSH1 0x1F DUP10 AND DUP3 PUSH2 0x4BE1 JUMP JUMPDEST DUP4 SSTORE POP JUMPDEST PUSH1 0x1 PUSH1 0x2 DUP9 MUL ADD DUP9 SSTORE POP POP POP JUMPDEST POP POP POP POP POP POP JUMPDEST JUMP JUMPDEST PUSH0 PUSH2 0x4D07 DUP3 PUSH2 0x3A8D JUMP JUMPDEST SWAP2 POP PUSH2 0x4D12 DUP4 PUSH2 0x3A8D JUMP JUMPDEST SWAP3 POP DUP3 DUP3 ADD SWAP1 POP DUP1 DUP3 GT ISZERO PUSH2 0x4D2A JUMPI PUSH2 0x4D29 PUSH2 0x44AD JUMP JUMPDEST JUMPDEST SWAP3 SWAP2 POP POP JUMP JUMPDEST PUSH32 0x4E487B7100000000000000000000000000000000000000000000000000000000 PUSH0 MSTORE PUSH1 0x31 PUSH1 0x4 MSTORE PUSH1 0x24 PUSH0 REVERT JUMPDEST PUSH32 0x626C6F636B636861696E20657869737473000000000000000000000000000000 PUSH0 DUP3 ADD MSTORE POP JUMP JUMPDEST PUSH0 PUSH2 0x4D91 PUSH1 0x11 DUP4 PUSH2 0x3BE1 JUMP JUMPDEST SWAP2 POP PUSH2 0x4D9C DUP3 PUSH2 0x4D5D JUMP JUMPDEST PUSH1 0x20 DUP3 ADD SWAP1 POP SWAP2 SWAP1 POP JUMP JUMPDEST PUSH0 PUSH1 0x20 DUP3 ADD SWAP1 POP DUP2 DUP2 SUB PUSH0 DUP4 ADD MSTORE PUSH2 0x4DBE DUP2 PUSH2 0x4D85 JUMP JUMPDEST SWAP1 POP SWAP2 SWAP1 POP JUMP JUMPDEST PUSH2 0x4DCE DUP3 PUSH2 0x3BD7 JUMP JUMPDEST PUSH8 0xFFFFFFFFFFFFFFFF DUP2 GT ISZERO PUSH2 0x4DE7 JUMPI PUSH2 0x4DE6 PUSH2 0x3C6F JUMP JUMPDEST JUMPDEST PUSH2 0x4DF1 DUP3 SLOAD PUSH2 0x442D JUMP JUMPDEST PUSH2 0x4DFC DUP3 DUP3 DUP6 PUSH2 0x4B8F JUMP JUMPDEST PUSH0 PUSH1 0x20 SWAP1 POP PUSH1 0x1F DUP4 GT PUSH1 0x1 DUP2 EQ PUSH2 0x4E2D JUMPI PUSH0 DUP5 ISZERO PUSH2 0x4E1B JUMPI DUP3 DUP8 ADD MLOAD SWAP1 POP JUMPDEST PUSH2 0x4E25 DUP6 DUP3 PUSH2 0x4BFD JUMP JUMPDEST DUP7 SSTORE POP PUSH2 0x4E8C JUMP JUMPDEST PUSH1 0x1F NOT DUP5 AND PUSH2 0x4E3B DUP7 PUSH2 0x4A69 JUMP JUMPDEST PUSH0 JUMPDEST DUP3 DUP2 LT ISZERO PUSH2 0x4E62 JUMPI DUP5 DUP10 ADD MLOAD DUP3 SSTORE PUSH1 0x1 DUP3 ADD SWAP2 POP PUSH1 0x20 DUP6 ADD SWAP5 POP PUSH1 0x20 DUP2 ADD SWAP1 POP PUSH2 0x4E3D JUMP JUMPDEST DUP7 DUP4 LT ISZERO PUSH2 0x4E7F JUMPI DUP5 DUP10 ADD MLOAD PUSH2 0x4E7B PUSH1 0x1F DUP10 AND DUP3 PUSH2 0x4BE1 JUMP JUMPDEST DUP4 SSTORE POP JUMPDEST PUSH1 0x1 PUSH1 0x2 DUP9 MUL ADD DUP9 SSTORE POP POP POP JUMPDEST POP POP POP POP POP POP JUMP JUMPDEST PUSH32 0x43616C6C6572206973206E6F7420454F41000000000000000000000000000000 PUSH0 DUP3 ADD MSTORE POP JUMP JUMPDEST PUSH0 PUSH2 0x4EC8 PUSH1 0x11 DUP4 PUSH2 0x3BE1 JUMP JUMPDEST SWAP2 POP PUSH2 0x4ED3 DUP3 PUSH2 0x4E94 JUMP JUMPDEST PUSH1 0x20 DUP3 ADD SWAP1 POP SWAP2 SWAP1 POP JUMP JUMPDEST PUSH0 PUSH1 0x20 DUP3 ADD SWAP1 POP DUP2 DUP2 SUB PUSH0 DUP4 ADD MSTORE PUSH2 0x4EF5 DUP2 PUSH2 0x4EBC JUMP JUMPDEST SWAP1 POP SWAP2 SWAP1 POP JUMP JUMPDEST PUSH32 0x746F426C6F636B636861696E206E6F7420657869737473000000000000000000 PUSH0 DUP3 ADD MSTORE POP JUMP JUMPDEST PUSH0 PUSH2 0x4F30 PUSH1 0x17 DUP4 PUSH2 0x3BE1 JUMP JUMPDEST SWAP2 POP PUSH2 0x4F3B DUP3 PUSH2 0x4EFC JUMP JUMPDEST PUSH1 0x20 DUP3 ADD SWAP1 POP SWAP2 SWAP1 POP JUMP JUMPDEST PUSH0 PUSH1 0x20 DUP3 ADD SWAP1 POP DUP2 DUP2 SUB PUSH0 DUP4 ADD MSTORE PUSH2 0x4F5D DUP2 PUSH2 0x4F24 JUMP JUMPDEST SWAP1 POP SWAP2 SWAP1 POP JUMP JUMPDEST PUSH32 0x746F41646472657373206973206E756C6C000000000000000000000000000000 PUSH0 DUP3 ADD MSTORE POP JUMP JUMPDEST PUSH0 PUSH2 0x4F98 PUSH1 0x11 DUP4 PUSH2 0x3BE1 JUMP JUMPDEST SWAP2 POP PUSH2 0x4FA3 DUP3 PUSH2 0x4F64 JUMP JUMPDEST PUSH1 0x20 DUP3 ADD SWAP1 POP SWAP2 SWAP1 POP JUMP JUMPDEST PUSH0 PUSH1 0x20 DUP3 ADD SWAP1 POP DUP2 DUP2 SUB PUSH0 DUP4 ADD MSTORE PUSH2 0x4FC5 DUP2 PUSH2 0x4F8C JUMP JUMPDEST SWAP1 POP SWAP2 SWAP1 POP JUMP JUMPDEST PUSH0 PUSH2 0x4FD7 DUP4 DUP6 PUSH2 0x445D JUMP JUMPDEST SWAP4 POP PUSH2 0x4FE4 DUP4 DUP6 DUP5 PUSH2 0x3D17 JUMP JUMPDEST DUP3 DUP5 ADD SWAP1 POP SWAP4 SWAP3 POP POP POP JUMP JUMPDEST PUSH0 PUSH2 0x4FFC DUP3 DUP5 DUP7 PUSH2 0x4FCC JUMP JUMPDEST SWAP2 POP DUP2 SWAP1 POP SWAP4 SWAP3 POP POP POP JUMP JUMPDEST PUSH32 0x616D6F756E74206973206C657373207468616E206D696E696D756D0000000000 PUSH0 DUP3 ADD MSTORE POP JUMP JUMPDEST PUSH0 PUSH2 0x503C PUSH1 0x1B DUP4 PUSH2 0x3BE1 JUMP JUMPDEST SWAP2 POP PUSH2 0x5047 DUP3 PUSH2 0x5008 JUMP JUMPDEST PUSH1 0x20 DUP3 ADD SWAP1 POP SWAP2 SWAP1 POP JUMP JUMPDEST PUSH0 PUSH1 0x20 DUP3 ADD SWAP1 POP DUP2 DUP2 SUB PUSH0 DUP4 ADD MSTORE PUSH2 0x5069 DUP2 PUSH2 0x5030 JUMP JUMPDEST SWAP1 POP SWAP2 SWAP1 POP JUMP JUMPDEST PUSH32 0x696E76616C69642064657374696E6174696F6E20616464726573730000000000 PUSH0 DUP3 ADD MSTORE POP JUMP JUMPDEST PUSH0 PUSH2 0x50A4 PUSH1 0x1B DUP4 PUSH2 0x3BE1 JUMP JUMPDEST SWAP2 POP PUSH2 0x50AF DUP3 PUSH2 0x5070 JUMP JUMPDEST PUSH1 0x20 DUP3 ADD SWAP1 POP SWAP2 SWAP1 POP JUMP JUMPDEST PUSH0 PUSH1 0x20 DUP3 ADD SWAP1 POP DUP2 DUP2 SUB PUSH0 DUP4 ADD MSTORE PUSH2 0x50D1 DUP2 PUSH2 0x5098 JUMP JUMPDEST SWAP1 POP SWAP2 SWAP1 POP JUMP JUMPDEST PUSH32 0x496E76616C696420666565206E6174697665206272696467652E000000000000 PUSH0 DUP3 ADD MSTORE POP JUMP JUMPDEST PUSH0 PUSH2 0x510C PUSH1 0x1A DUP4 PUSH2 0x3BE1 JUMP JUMPDEST SWAP2 POP PUSH2 0x5117 DUP3 PUSH2 0x50D8 JUMP JUMPDEST PUSH1 0x20 DUP3 ADD SWAP1 POP SWAP2 SWAP1 POP JUMP JUMPDEST PUSH0 PUSH1 0x20 DUP3 ADD SWAP1 POP DUP2 DUP2 SUB PUSH0 DUP4 ADD MSTORE PUSH2 0x5139 DUP2 PUSH2 0x5100 JUMP JUMPDEST SWAP1 POP SWAP2 SWAP1 POP JUMP JUMPDEST PUSH32 0x72657175697265643A20666565206E6174697665206E6F7420656E6F75676800 PUSH0 DUP3 ADD MSTORE POP JUMP JUMPDEST PUSH0 PUSH2 0x5174 PUSH1 0x1F DUP4 PUSH2 0x3BE1 JUMP JUMPDEST SWAP2 POP PUSH2 0x517F DUP3 PUSH2 0x5140 JUMP JUMPDEST PUSH1 0x20 DUP3 ADD SWAP1 POP SWAP2 SWAP1 POP JUMP JUMPDEST PUSH0 PUSH1 0x20 DUP3 ADD SWAP1 POP DUP2 DUP2 SUB PUSH0 DUP4 ADD MSTORE PUSH2 0x51A1 DUP2 PUSH2 0x5168 JUMP JUMPDEST SWAP1 POP SWAP2 SWAP1 POP JUMP JUMPDEST PUSH0 PUSH2 0x51B2 DUP3 PUSH2 0x3A8D JUMP JUMPDEST SWAP2 POP PUSH2 0x51BD DUP4 PUSH2 0x3A8D JUMP JUMPDEST SWAP3 POP DUP3 DUP3 MUL PUSH2 0x51CB DUP2 PUSH2 0x3A8D JUMP JUMPDEST SWAP2 POP DUP3 DUP3 DIV DUP5 EQ DUP4 ISZERO OR PUSH2 0x51E2 JUMPI PUSH2 0x51E1 PUSH2 0x44AD JUMP JUMPDEST JUMPDEST POP SWAP3 SWAP2 POP POP JUMP JUMPDEST PUSH32 0x4E487B7100000000000000000000000000000000000000000000000000000000 PUSH0 MSTORE PUSH1 0x12 PUSH1 0x4 MSTORE PUSH1 0x24 PUSH0 REVERT JUMPDEST PUSH0 PUSH2 0x5220 DUP3 PUSH2 0x3A8D JUMP JUMPDEST SWAP2 POP PUSH2 0x522B DUP4 PUSH2 0x3A8D JUMP JUMPDEST SWAP3 POP DUP3 PUSH2 0x523B JUMPI PUSH2 0x523A PUSH2 0x51E9 JUMP JUMPDEST JUMPDEST DUP3 DUP3 DIV SWAP1 POP SWAP3 SWAP2 POP POP JUMP JUMPDEST PUSH0 PUSH2 0x5251 DUP4 DUP6 PUSH2 0x3BE1 JUMP JUMPDEST SWAP4 POP PUSH2 0x525E DUP4 DUP6 DUP5 PUSH2 0x3D17 JUMP JUMPDEST PUSH2 0x5267 DUP4 PUSH2 0x3BFF JUMP JUMPDEST DUP5 ADD SWAP1 POP SWAP4 SWAP3 POP POP POP JUMP JUMPDEST PUSH0 PUSH1 0x80 DUP3 ADD SWAP1 POP PUSH2 0x5285 PUSH0 DUP4 ADD DUP10 PUSH2 0x43D8 JUMP JUMPDEST PUSH2 0x5292 PUSH1 0x20 DUP4 ADD DUP9 PUSH2 0x3A96 JUMP JUMPDEST DUP2 DUP2 SUB PUSH1 0x40 DUP4 ADD MSTORE PUSH2 0x52A5 DUP2 DUP7 DUP9 PUSH2 0x5246 JUMP JUMPDEST SWAP1 POP DUP2 DUP2 SUB PUSH1 0x60 DUP4 ADD MSTORE PUSH2 0x52BA DUP2 DUP5 DUP7 PUSH2 0x5246 JUMP JUMPDEST SWAP1 POP SWAP8 SWAP7 POP POP POP POP POP POP POP JUMP JUMPDEST PUSH32 0x696E737566696369656E742062616C616E636500000000000000000000000000 PUSH0 DUP3 ADD MSTORE POP JUMP JUMPDEST PUSH0 PUSH2 0x52FB PUSH1 0x13 DUP4 PUSH2 0x3BE1 JUMP JUMPDEST SWAP2 POP PUSH2 0x5306 DUP3 PUSH2 0x52C7 JUMP JUMPDEST PUSH1 0x20 DUP3 ADD SWAP1 POP SWAP2 SWAP1 POP JUMP JUMPDEST PUSH0 PUSH1 0x20 DUP3 ADD SWAP1 POP DUP2 DUP2 SUB PUSH0 DUP4 ADD MSTORE PUSH2 0x5328 DUP2 PUSH2 0x52EF JUMP JUMPDEST SWAP1 POP SWAP2 SWAP1 POP JUMP JUMPDEST PUSH32 0x496E73756666696369656E74206E617469766520746F6B656E2062616C616E63 PUSH0 DUP3 ADD MSTORE PUSH32 0x6520696E20636F6E747261637400000000000000000000000000000000000000 PUSH1 0x20 DUP3 ADD MSTORE POP JUMP JUMPDEST PUSH0 PUSH2 0x5389 PUSH1 0x2D DUP4 PUSH2 0x3BE1 JUMP JUMPDEST SWAP2 POP PUSH2 0x5394 DUP3 PUSH2 0x532F JUMP JUMPDEST PUSH1 0x40 DUP3 ADD SWAP1 POP SWAP2 SWAP1 POP JUMP JUMPDEST PUSH0 PUSH1 0x20 DUP3 ADD SWAP1 POP DUP2 DUP2 SUB PUSH0 DUP4 ADD MSTORE PUSH2 0x53B6 DUP2 PUSH2 0x537D JUMP JUMPDEST SWAP1 POP SWAP2 SWAP1 POP JUMP JUMPDEST PUSH32 0x4E6F742073657420746F6B656E00000000000000000000000000000000000000 PUSH0 DUP3 ADD MSTORE POP JUMP JUMPDEST PUSH0 PUSH2 0x53F1 PUSH1 0xD DUP4 PUSH2 0x3BE1 JUMP JUMPDEST SWAP2 POP PUSH2 0x53FC DUP3 PUSH2 0x53BD JUMP JUMPDEST PUSH1 0x20 DUP3 ADD SWAP1 POP SWAP2 SWAP1 POP JUMP JUMPDEST PUSH0 PUSH1 0x20 DUP3 ADD SWAP1 POP DUP2 DUP2 SUB PUSH0 DUP4 ADD MSTORE PUSH2 0x541E DUP2 PUSH2 0x53E5 JUMP JUMPDEST SWAP1 POP SWAP2 SWAP1 POP JUMP JUMPDEST PUSH32 0x4E6F7420736574206F776E65722077616C6C6574000000000000000000000000 PUSH0 DUP3 ADD MSTORE POP JUMP JUMPDEST PUSH0 PUSH2 0x5459 PUSH1 0x14 DUP4 PUSH2 0x3BE1 JUMP JUMPDEST SWAP2 POP PUSH2 0x5464 DUP3 PUSH2 0x5425 JUMP JUMPDEST PUSH1 0x20 DUP3 ADD SWAP1 POP SWAP2 SWAP1 POP JUMP JUMPDEST PUSH0 PUSH1 0x20 DUP3 ADD SWAP1 POP DUP2 DUP2 SUB PUSH0 DUP4 ADD MSTORE PUSH2 0x5486 DUP2 PUSH2 0x544D JUMP JUMPDEST SWAP1 POP SWAP2 SWAP1 POP JUMP JUMPDEST PUSH32 0x4E6F74207365742061646D696E2064656661756C7420726F6C65000000000000 PUSH0 DUP3 ADD MSTORE POP JUMP JUMPDEST PUSH0 PUSH2 0x54C1 PUSH1 0x1A DUP4 PUSH2 0x3BE1 JUMP JUMPDEST SWAP2 POP PUSH2 0x54CC DUP3 PUSH2 0x548D JUMP JUMPDEST PUSH1 0x20 DUP3 ADD SWAP1 POP SWAP2 SWAP1 POP JUMP JUMPDEST PUSH0 PUSH1 0x20 DUP3 ADD SWAP1 POP DUP2 DUP2 SUB PUSH0 DUP4 ADD MSTORE PUSH2 0x54EE DUP2 PUSH2 0x54B5 JUMP JUMPDEST SWAP1 POP SWAP2 SWAP1 POP JUMP JUMPDEST PUSH32 0x4665652070657263656E74203E20313025000000000000000000000000000000 PUSH0 DUP3 ADD MSTORE POP JUMP JUMPDEST PUSH0 PUSH2 0x5529 PUSH1 0x11 DUP4 PUSH2 0x3BE1 JUMP JUMPDEST SWAP2 POP PUSH2 0x5534 DUP3 PUSH2 0x54F5 JUMP JUMPDEST PUSH1 0x20 DUP3 ADD SWAP1 POP SWAP2 SWAP1 POP JUMP JUMPDEST PUSH0 PUSH1 0x20 DUP3 ADD SWAP1 POP DUP2 DUP2 SUB PUSH0 DUP4 ADD MSTORE PUSH2 0x5556 DUP2 PUSH2 0x551D JUMP JUMPDEST SWAP1 POP SWAP2 SWAP1 POP JUMP JUMPDEST PUSH0 DUP2 SWAP1 POP SWAP2 SWAP1 POP JUMP JUMPDEST PUSH2 0x5577 PUSH2 0x5572 DUP3 PUSH2 0x3DDA JUMP JUMPDEST PUSH2 0x555D JUMP JUMPDEST DUP3 MSTORE POP POP JUMP JUMPDEST PUSH0 DUP2 PUSH1 0x60 SHL SWAP1 POP SWAP2 SWAP1 POP JUMP JUMPDEST PUSH0 PUSH2 0x5593 DUP3 PUSH2 0x557D JUMP JUMPDEST SWAP1 POP SWAP2 SWAP1 POP JUMP JUMPDEST PUSH0 PUSH2 0x55A4 DUP3 PUSH2 0x5589 JUMP JUMPDEST SWAP1 POP SWAP2 SWAP1 POP JUMP JUMPDEST PUSH2 0x55BC PUSH2 0x55B7 DUP3 PUSH2 0x3ED9 JUMP JUMPDEST PUSH2 0x559A JUMP JUMPDEST DUP3 MSTORE POP POP JUMP JUMPDEST PUSH0 DUP2 SWAP1 POP SWAP2 SWAP1 POP JUMP JUMPDEST PUSH2 0x55DC PUSH2 0x55D7 DUP3 PUSH2 0x3A8D JUMP JUMPDEST PUSH2 0x55C2 JUMP JUMPDEST DUP3 MSTORE POP POP JUMP JUMPDEST PUSH0 DUP2 PUSH1 0xE0 SHL SWAP1 POP SWAP2 SWAP1 POP JUMP JUMPDEST PUSH0 PUSH2 0x55F8 DUP3 PUSH2 0x55E2 JUMP JUMPDEST SWAP1 POP SWAP2 SWAP1 POP JUMP JUMPDEST PUSH2 0x5610 PUSH2 0x560B DUP3 PUSH2 0x4015 JUMP JUMPDEST PUSH2 0x55EE JUMP JUMPDEST DUP3 MSTORE POP POP JUMP JUMPDEST PUSH0 PUSH2 0x5621 DUP3 DUP9 PUSH2 0x5566 JUMP JUMPDEST PUSH1 0x20 DUP3 ADD SWAP2 POP PUSH2 0x5631 DUP3 DUP8 PUSH2 0x5566 JUMP JUMPDEST PUSH1 0x20 DUP3 ADD SWAP2 POP PUSH2 0x5641 DUP3 DUP7 PUSH2 0x55AB JUMP JUMPDEST PUSH1 0x14 DUP3 ADD SWAP2 POP PUSH2 0x5651 DUP3 DUP6 PUSH2 0x55CB JUMP JUMPDEST PUSH1 0x20 DUP3 ADD SWAP2 POP PUSH2 0x5661 DUP3 DUP5 PUSH2 0x55FF JUMP JUMPDEST PUSH1 0x4 DUP3 ADD SWAP2 POP DUP2 SWAP1 POP SWAP7 SWAP6 POP POP POP POP POP POP JUMP JUMPDEST PUSH32 0x426C6F636B636861696E20657869737473000000000000000000000000000000 PUSH0 DUP3 ADD MSTORE POP JUMP JUMPDEST PUSH0 PUSH2 0x56A8 PUSH1 0x11 DUP4 PUSH2 0x3BE1 JUMP JUMPDEST SWAP2 POP PUSH2 0x56B3 DUP3 PUSH2 0x5674 JUMP JUMPDEST PUSH1 0x20 DUP3 ADD SWAP1 POP SWAP2 SWAP1 POP JUMP JUMPDEST PUSH0 PUSH1 0x20 DUP3 ADD SWAP1 POP DUP2 DUP2 SUB PUSH0 DUP4 ADD MSTORE PUSH2 0x56D5 DUP2 PUSH2 0x569C JUMP JUMPDEST SWAP1 POP SWAP2 SWAP1 POP JUMP JUMPDEST PUSH32 0x6E65774F776E65722063616E206E6F74206265206D73672E73656E6465720000 PUSH0 DUP3 ADD MSTORE POP JUMP JUMPDEST PUSH0 PUSH2 0x5710 PUSH1 0x1E DUP4 PUSH2 0x3BE1 JUMP JUMPDEST SWAP2 POP PUSH2 0x571B DUP3 PUSH2 0x56DC JUMP JUMPDEST PUSH1 0x20 DUP3 ADD SWAP1 POP SWAP2 SWAP1 POP JUMP JUMPDEST PUSH0 PUSH1 0x20 DUP3 ADD SWAP1 POP DUP2 DUP2 SUB PUSH0 DUP4 ADD MSTORE PUSH2 0x573D DUP2 PUSH2 0x5704 JUMP JUMPDEST SWAP1 POP SWAP2 SWAP1 POP JUMP JUMPDEST PUSH32 0x6E65774F776E65722063616E206E6F74206265207A65726F0000000000000000 PUSH0 DUP3 ADD MSTORE POP JUMP JUMPDEST PUSH0 PUSH2 0x5778 PUSH1 0x18 DUP4 PUSH2 0x3BE1 JUMP JUMPDEST SWAP2 POP PUSH2 0x5783 DUP3 PUSH2 0x5744 JUMP JUMPDEST PUSH1 0x20 DUP3 ADD SWAP1 POP SWAP2 SWAP1 POP JUMP JUMPDEST PUSH0 PUSH1 0x20 DUP3 ADD SWAP1 POP DUP2 DUP2 SUB PUSH0 DUP4 ADD MSTORE PUSH2 0x57A5 DUP2 PUSH2 0x576C JUMP JUMPDEST SWAP1 POP SWAP2 SWAP1 POP JUMP JUMPDEST PUSH32 0x5061757361626C653A2070617573656400000000000000000000000000000000 PUSH0 DUP3 ADD MSTORE POP JUMP JUMPDEST PUSH0 PUSH2 0x57E0 PUSH1 0x10 DUP4 PUSH2 0x3BE1 JUMP JUMPDEST SWAP2 POP PUSH2 0x57EB DUP3 PUSH2 0x57AC JUMP JUMPDEST PUSH1 0x20 DUP3 ADD SWAP1 POP SWAP2 SWAP1 POP JUMP JUMPDEST PUSH0 PUSH1 0x20 DUP3 ADD SWAP1 POP DUP2 DUP2 SUB PUSH0 DUP4 ADD MSTORE PUSH2 0x580D DUP2 PUSH2 0x57D4 JUMP JUMPDEST SWAP1 POP SWAP2 SWAP1 POP JUMP JUMPDEST PUSH32 0x70726F6365737365640000000000000000000000000000000000000000000000 PUSH0 DUP3 ADD MSTORE POP JUMP JUMPDEST PUSH0 PUSH2 0x5848 PUSH1 0x9 DUP4 PUSH2 0x3BE1 JUMP JUMPDEST SWAP2 POP PUSH2 0x5853 DUP3 PUSH2 0x5814 JUMP JUMPDEST PUSH1 0x20 DUP3 ADD SWAP1 POP SWAP2 SWAP1 POP JUMP JUMPDEST PUSH0 PUSH1 0x20 DUP3 ADD SWAP1 POP DUP2 DUP2 SUB PUSH0 DUP4 ADD MSTORE PUSH2 0x5875 DUP2 PUSH2 0x583C JUMP JUMPDEST SWAP1 POP SWAP2 SWAP1 POP JUMP JUMPDEST PUSH32 0x696E73756666696369656E742062616C616E6365000000000000000000000000 PUSH0 DUP3 ADD MSTORE POP JUMP JUMPDEST PUSH0 PUSH2 0x58B0 PUSH1 0x14 DUP4 PUSH2 0x3BE1 JUMP JUMPDEST SWAP2 POP PUSH2 0x58BB DUP3 PUSH2 0x587C JUMP JUMPDEST PUSH1 0x20 DUP3 ADD SWAP1 POP SWAP2 SWAP1 POP JUMP JUMPDEST PUSH0 PUSH1 0x20 DUP3 ADD SWAP1 POP DUP2 DUP2 SUB PUSH0 DUP4 ADD MSTORE PUSH2 0x58DD DUP2 PUSH2 0x58A4 JUMP JUMPDEST SWAP1 POP SWAP2 SWAP1 POP JUMP JUMPDEST PUSH0 DUP2 SWAP1 POP SWAP3 SWAP2 POP POP JUMP JUMPDEST POP JUMP JUMPDEST PUSH0 PUSH2 0x58FC PUSH0 DUP4 PUSH2 0x58E4 JUMP JUMPDEST SWAP2 POP PUSH2 0x5907 DUP3 PUSH2 0x58EE JUMP JUMPDEST PUSH0 DUP3 ADD SWAP1 POP SWAP2 SWAP1 POP JUMP JUMPDEST PUSH0 PUSH2 0x591B DUP3 PUSH2 0x58F1 JUMP JUMPDEST SWAP2 POP DUP2 SWAP1 POP SWAP2 SWAP1 POP JUMP JUMPDEST PUSH0 PUSH1 0x60 DUP3 ADD SWAP1 POP PUSH2 0x5938 PUSH0 DUP4 ADD DUP7 PUSH2 0x43D8 JUMP JUMPDEST PUSH2 0x5945 PUSH1 0x20 DUP4 ADD DUP6 PUSH2 0x43D8 JUMP JUMPDEST PUSH2 0x5952 PUSH1 0x40 DUP4 ADD DUP5 PUSH2 0x3A96 JUMP JUMPDEST SWAP5 SWAP4 POP POP POP POP JUMP JUMPDEST PUSH0 PUSH1 0x40 DUP3 ADD SWAP1 POP PUSH2 0x596D PUSH0 DUP4 ADD DUP6 PUSH2 0x43D8 JUMP JUMPDEST PUSH2 0x597A PUSH1 0x20 DUP4 ADD DUP5 PUSH2 0x3A96 JUMP JUMPDEST SWAP4 SWAP3 POP POP POP JUMP JUMPDEST PUSH0 PUSH1 0x40 DUP3 ADD SWAP1 POP PUSH2 0x5994 PUSH0 DUP4 ADD DUP6 PUSH2 0x43D8 JUMP JUMPDEST PUSH2 0x59A1 PUSH1 0x20 DUP4 ADD DUP5 PUSH2 0x3E38 JUMP JUMPDEST SWAP4 SWAP3 POP POP POP JUMP JUMPDEST PUSH32 0x5061757361626C653A206E6F7420706175736564000000000000000000000000 PUSH0 DUP3 ADD MSTORE POP JUMP JUMPDEST PUSH0 PUSH2 0x59DC PUSH1 0x14 DUP4 PUSH2 0x3BE1 JUMP JUMPDEST SWAP2 POP PUSH2 0x59E7 DUP3 PUSH2 0x59A8 JUMP JUMPDEST PUSH1 0x20 DUP3 ADD SWAP1 POP SWAP2 SWAP1 POP JUMP JUMPDEST PUSH0 PUSH1 0x20 DUP3 ADD SWAP1 POP DUP2 DUP2 SUB PUSH0 DUP4 ADD MSTORE PUSH2 0x5A09 DUP2 PUSH2 0x59D0 JUMP JUMPDEST SWAP1 POP SWAP2 SWAP1 POP JUMP JUMPDEST PUSH2 0x5A19 DUP2 PUSH2 0x3B4F JUMP JUMPDEST DUP2 EQ PUSH2 0x5A23 JUMPI PUSH0 DUP1 REVERT JUMPDEST POP JUMP JUMPDEST PUSH0 DUP2 MLOAD SWAP1 POP PUSH2 0x5A34 DUP2 PUSH2 0x5A10 JUMP JUMPDEST SWAP3 SWAP2 POP POP JUMP JUMPDEST PUSH0 PUSH1 0x20 DUP3 DUP5 SUB SLT ISZERO PUSH2 0x5A4F JUMPI PUSH2 0x5A4E PUSH2 0x3AC7 JUMP JUMPDEST JUMPDEST PUSH0 PUSH2 0x5A5C DUP5 DUP3 DUP6 ADD PUSH2 0x5A26 JUMP JUMPDEST SWAP2 POP POP SWAP3 SWAP2 POP POP JUMP JUMPDEST PUSH0 DUP2 MLOAD SWAP1 POP SWAP2 SWAP1 POP JUMP JUMPDEST PUSH0 PUSH2 0x5A79 DUP3 PUSH2 0x5A65 JUMP JUMPDEST PUSH2 0x5A83 DUP2 DUP6 PUSH2 0x58E4 JUMP JUMPDEST SWAP4 POP PUSH2 0x5A93 DUP2 DUP6 PUSH1 0x20 DUP7 ADD PUSH2 0x3BF1 JUMP JUMPDEST DUP1 DUP5 ADD SWAP2 POP POP SWAP3 SWAP2 POP POP JUMP JUMPDEST PUSH0 PUSH2 0x5AAA DUP3 DUP5 PUSH2 0x5A6F JUMP JUMPDEST SWAP2 POP DUP2 SWAP1 POP SWAP3 SWAP2 POP POP JUMP INVALID LOG2 PUSH5 0x6970667358 0x22 SLT KECCAK256 SWAP4 0xEE 0x27 0xAB 0xEA DUP5 PUSH6 0x86607CDC86C8 BASEFEE 0x1E SWAP16 0xC8 SWAP5 0xC 0xE 0xD0 DUP11 0xD9 0xC 0x2D 0xAF PUSH16 0x982A34AA8564736F6C634300081A0033 "
		},
		"gasEstimates": {
			"creation": {
				"codeDepositCost": "4655000",
				"executionCost": "infinite",
				"totalCost": "infinite"
			},
			"external": {
				"DEFAULT_ADMIN_ROLE()": "442",
				"FEE_NATIVE()": "2492",
				"MONITOR_ROLE()": "371",
				"OWNER_WALLET()": "2640",
				"PERCENTS_DIVIDER()": "372",
				"acceptTransfer(address,uint256,string,bytes32,bytes32,uint32)": "infinite",
				"addBlockchainFrom(string)": "infinite",
				"addBlockchainTo(string,uint256)": "infinite",
				"addMonitor(address)": "infinite",
				"delBlockchainFrom(string)": "infinite",
				"delBlockchainTo(string)": "infinite",
				"delMonitor(address)": "infinite",
				"existsBlockchainFrom(string)": "infinite",
				"existsBlockchainTo(string)": "infinite",
				"feePercentageBridge()": "2493",
				"fromBlockchainReceive(uint256)": "infinite",
				"getMinTokenAmount(string)": "infinite",
				"getRoleAdmin(bytes32)": "infinite",
				"getTokenBalance()": "infinite",
				"getTransactionId(bytes32,bytes32,address,uint256,uint32)": "infinite",
				"grantRole(bytes32,address)": "infinite",
				"hasRole(bytes32,address)": "3190",
				"listBlockchainFrom()": "infinite",
				"listBlockchainTo()": "infinite",
				"pause()": "infinite",
				"paused()": "2585",
				"processed(bytes32)": "2918",
				"receiveTokens(uint256,string,string)": "infinite",
				"renounceRole(bytes32,address)": "infinite",
				"revokeRole(bytes32,address)": "infinite",
				"setDeployBridge(address,address,address,uint256,uint256)": "infinite",
				"setFeeNative(uint256)": "25209",
				"setFeePercentageBridge(uint256)": "infinite",
				"setMinTokenAmount(string,uint256)": "infinite",
				"supportsInterface(bytes4)": "2991",
				"toBlockchainTransfer(uint256)": "infinite",
				"token()": "2713",
				"totalFeeReceivedBridge()": "2470",
				"transferOwnership(address)": "infinite",
				"unpause()": "infinite",
				"withdrawToken(uint256,address)": "infinite"
			},
			"internal": {
				"_processTransaction(bytes32,bytes32,address,uint256,uint32)": "infinite",
				"_sendToken(address payable,uint256)": "infinite",
				"compareStrings(string memory,string memory)": "infinite"
			}
		},
		"methodIdentifiers": {
			"DEFAULT_ADMIN_ROLE()": "a217fddf",
			"FEE_NATIVE()": "6d2133e1",
			"MONITOR_ROLE()": "4d9b47e2",
			"OWNER_WALLET()": "fae36afb",
			"PERCENTS_DIVIDER()": "01c234a8",
			"acceptTransfer(address,uint256,string,bytes32,bytes32,uint32)": "7dad0d57",
			"addBlockchainFrom(string)": "f2fcdbd3",
			"addBlockchainTo(string,uint256)": "9d1e034d",
			"addMonitor(address)": "b8c48a28",
			"delBlockchainFrom(string)": "bb13ca3b",
			"delBlockchainTo(string)": "8689b322",
			"delMonitor(address)": "5d27fc70",
			"existsBlockchainFrom(string)": "c9b4d653",
			"existsBlockchainTo(string)": "f2e1fa65",
			"feePercentageBridge()": "2a76e481",
			"fromBlockchainReceive(uint256)": "1d316a5d",
			"getMinTokenAmount(string)": "212258a8",
			"getRoleAdmin(bytes32)": "248a9ca3",
			"getTokenBalance()": "82b2e257",
			"getTransactionId(bytes32,bytes32,address,uint256,uint32)": "e8340a99",
			"grantRole(bytes32,address)": "2f2ff15d",
			"hasRole(bytes32,address)": "91d14854",
			"listBlockchainFrom()": "b715f98f",
			"listBlockchainTo()": "f11b7c33",
			"pause()": "8456cb59",
			"paused()": "5c975abb",
			"processed(bytes32)": "c1f0808a",
			"receiveTokens(uint256,string,string)": "a36185f4",
			"renounceRole(bytes32,address)": "36568abe",
			"revokeRole(bytes32,address)": "d547741f",
			"setDeployBridge(address,address,address,uint256,uint256)": "d542a501",
			"setFeeNative(uint256)": "5a075f92",
			"setFeePercentageBridge(uint256)": "525a34e3",
			"setMinTokenAmount(string,uint256)": "29c9a4da",
			"supportsInterface(bytes4)": "01ffc9a7",
			"toBlockchainTransfer(uint256)": "c4251339",
			"token()": "fc0c546a",
			"totalFeeReceivedBridge()": "646ac61c",
			"transferOwnership(address)": "f2fde38b",
			"unpause()": "3f4ba83a",
			"withdrawToken(uint256,address)": "be4b1772"
		}
	},
	"abi": [
		{
			"inputs": [],
			"name": "AccessControlBadConfirmation",
			"type": "error"
		},
		{
			"inputs": [
				{
					"internalType": "address",
					"name": "account",
					"type": "address"
				},
				{
					"internalType": "bytes32",
					"name": "neededRole",
					"type": "bytes32"
				}
			],
			"name": "AccessControlUnauthorizedAccount",
			"type": "error"
		},
		{
			"inputs": [
				{
					"internalType": "address",
					"name": "target",
					"type": "address"
				}
			],
			"name": "AddressEmptyCode",
			"type": "error"
		},
		{
			"inputs": [
				{
					"internalType": "address",
					"name": "account",
					"type": "address"
				}
			],
			"name": "AddressInsufficientBalance",
			"type": "error"
		},
		{
			"inputs": [],
			"name": "FailedInnerCall",
			"type": "error"
		},
		{
			"inputs": [
				{
					"internalType": "address",
					"name": "token",
					"type": "address"
				}
			],
			"name": "SafeERC20FailedOperation",
			"type": "error"
		},
		{
			"anonymous": false,
			"inputs": [
				{
					"indexed": false,
					"internalType": "address",
					"name": "from",
					"type": "address"
				},
				{
					"indexed": false,
					"internalType": "uint256",
					"name": "amount",
					"type": "uint256"
				},
				{
					"indexed": false,
					"internalType": "string",
					"name": "toAddress",
					"type": "string"
				},
				{
					"indexed": false,
					"internalType": "string",
					"name": "toBlockchain",
					"type": "string"
				}
			],
			"name": "CrossRequest",
			"type": "event"
		},
		{
			"anonymous": false,
			"inputs": [
				{
					"indexed": false,
					"internalType": "uint256",
					"name": "oldFee",
					"type": "uint256"
				},
				{
					"indexed": false,
					"internalType": "uint256",
					"name": "newFee",
					"type": "uint256"
				}
			],
			"name": "FeePercentageBridgeChanged",
			"type": "event"
		},
		{
			"anonymous": false,
			"inputs": [
				{
					"indexed": false,
					"internalType": "string",
					"name": "blockchainName",
					"type": "string"
				},
				{
					"indexed": false,
					"internalType": "uint256",
					"name": "oldAmount",
					"type": "uint256"
				},
				{
					"indexed": false,
					"internalType": "uint256",
					"name": "newAmount",
					"type": "uint256"
				}
			],
			"name": "MinTokenAmountChanged",
			"type": "event"
		},
		{
			"anonymous": false,
			"inputs": [
				{
					"indexed": false,
					"internalType": "address",
					"name": "owner",
					"type": "address"
				}
			],
			"name": "OwnerChanged",
			"type": "event"
		},
		{
			"anonymous": false,
			"inputs": [
				{
					"indexed": false,
					"internalType": "address",
					"name": "account",
					"type": "address"
				}
			],
			"name": "Paused",
			"type": "event"
		},
		{
			"anonymous": false,
			"inputs": [
				{
					"indexed": true,
					"internalType": "bytes32",
					"name": "role",
					"type": "bytes32"
				},
				{
					"indexed": true,
					"internalType": "bytes32",
					"name": "previousAdminRole",
					"type": "bytes32"
				},
				{
					"indexed": true,
					"internalType": "bytes32",
					"name": "newAdminRole",
					"type": "bytes32"
				}
			],
			"name": "RoleAdminChanged",
			"type": "event"
		},
		{
			"anonymous": false,
			"inputs": [
				{
					"indexed": true,
					"internalType": "bytes32",
					"name": "role",
					"type": "bytes32"
				},
				{
					"indexed": true,
					"internalType": "address",
					"name": "account",
					"type": "address"
				},
				{
					"indexed": true,
					"internalType": "address",
					"name": "sender",
					"type": "address"
				}
			],
			"name": "RoleGranted",
			"type": "event"
		},
		{
			"anonymous": false,
			"inputs": [
				{
					"indexed": true,
					"internalType": "bytes32",
					"name": "role",
					"type": "bytes32"
				},
				{
					"indexed": true,
					"internalType": "address",
					"name": "account",
					"type": "address"
				},
				{
					"indexed": true,
					"internalType": "address",
					"name": "sender",
					"type": "address"
				}
			],
			"name": "RoleRevoked",
			"type": "event"
		},
		{
			"anonymous": false,
			"inputs": [
				{
					"indexed": false,
					"internalType": "address",
					"name": "tokenAddress",
					"type": "address"
				}
			],
			"name": "TokenChanged",
			"type": "event"
		},
		{
			"anonymous": false,
			"inputs": [
				{
					"indexed": false,
					"internalType": "address",
					"name": "account",
					"type": "address"
				}
			],
			"name": "Unpaused",
			"type": "event"
		},
		{
			"inputs": [],
			"name": "DEFAULT_ADMIN_ROLE",
			"outputs": [
				{
					"internalType": "bytes32",
					"name": "",
					"type": "bytes32"
				}
			],
			"stateMutability": "view",
			"type": "function"
		},
		{
			"inputs": [],
			"name": "FEE_NATIVE",
			"outputs": [
				{
					"internalType": "uint256",
					"name": "",
					"type": "uint256"
				}
			],
			"stateMutability": "view",
			"type": "function"
		},
		{
			"inputs": [],
			"name": "MONITOR_ROLE",
			"outputs": [
				{
					"internalType": "bytes32",
					"name": "",
					"type": "bytes32"
				}
			],
			"stateMutability": "view",
			"type": "function"
		},
		{
			"inputs": [],
			"name": "OWNER_WALLET",
			"outputs": [
				{
					"internalType": "address",
					"name": "",
					"type": "address"
				}
			],
			"stateMutability": "view",
			"type": "function"
		},
		{
			"inputs": [],
			"name": "PERCENTS_DIVIDER",
			"outputs": [
				{
					"internalType": "uint256",
					"name": "",
					"type": "uint256"
				}
			],
			"stateMutability": "view",
			"type": "function"
		},
		{
			"inputs": [
				{
					"internalType": "address payable",
					"name": "receiver",
					"type": "address"
				},
				{
					"internalType": "uint256",
					"name": "amount",
					"type": "uint256"
				},
				{
					"internalType": "string",
					"name": "fromBlockchain",
					"type": "string"
				},
				{
					"internalType": "bytes32",
					"name": "blockHash",
					"type": "bytes32"
				},
				{
					"internalType": "bytes32",
					"name": "transactionHash",
					"type": "bytes32"
				},
				{
					"internalType": "uint32",
					"name": "logIndex",
					"type": "uint32"
				}
			],
			"name": "acceptTransfer",
			"outputs": [
				{
					"internalType": "bool",
					"name": "",
					"type": "bool"
				}
			],
			"stateMutability": "nonpayable",
			"type": "function"
		},
		{
			"inputs": [
				{
					"internalType": "string",
					"name": "name",
					"type": "string"
				}
			],
			"name": "addBlockchainFrom",
			"outputs": [
				{
					"internalType": "uint256",
					"name": "",
					"type": "uint256"
				}
			],
			"stateMutability": "nonpayable",
			"type": "function"
		},
		{
			"inputs": [
				{
					"internalType": "string",
					"name": "name",
					"type": "string"
				},
				{
					"internalType": "uint256",
					"name": "minTokenAmount",
					"type": "uint256"
				}
			],
			"name": "addBlockchainTo",
			"outputs": [
				{
					"internalType": "uint256",
					"name": "",
					"type": "uint256"
				}
			],
			"stateMutability": "nonpayable",
			"type": "function"
		},
		{
			"inputs": [
				{
					"internalType": "address",
					"name": "account",
					"type": "address"
				}
			],
			"name": "addMonitor",
			"outputs": [
				{
					"internalType": "bool",
					"name": "",
					"type": "bool"
				}
			],
			"stateMutability": "nonpayable",
			"type": "function"
		},
		{
			"inputs": [
				{
					"internalType": "string",
					"name": "name",
					"type": "string"
				}
			],
			"name": "delBlockchainFrom",
			"outputs": [
				{
					"internalType": "bool",
					"name": "",
					"type": "bool"
				}
			],
			"stateMutability": "nonpayable",
			"type": "function"
		},
		{
			"inputs": [
				{
					"internalType": "string",
					"name": "name",
					"type": "string"
				}
			],
			"name": "delBlockchainTo",
			"outputs": [
				{
					"internalType": "bool",
					"name": "",
					"type": "bool"
				}
			],
			"stateMutability": "nonpayable",
			"type": "function"
		},
		{
			"inputs": [
				{
					"internalType": "address",
					"name": "account",
					"type": "address"
				}
			],
			"name": "delMonitor",
			"outputs": [
				{
					"internalType": "bool",
					"name": "",
					"type": "bool"
				}
			],
			"stateMutability": "nonpayable",
			"type": "function"
		},
		{
			"inputs": [
				{
					"internalType": "string",
					"name": "name",
					"type": "string"
				}
			],
			"name": "existsBlockchainFrom",
			"outputs": [
				{
					"internalType": "bool",
					"name": "",
					"type": "bool"
				}
			],
			"stateMutability": "view",
			"type": "function"
		},
		{
			"inputs": [
				{
					"internalType": "string",
					"name": "name",
					"type": "string"
				}
			],
			"name": "existsBlockchainTo",
			"outputs": [
				{
					"internalType": "bool",
					"name": "",
					"type": "bool"
				}
			],
			"stateMutability": "view",
			"type": "function"
		},
		{
			"inputs": [],
			"name": "feePercentageBridge",
			"outputs": [
				{
					"internalType": "uint256",
					"name": "",
					"type": "uint256"
				}
			],
			"stateMutability": "view",
			"type": "function"
		},
		{
			"inputs": [
				{
					"internalType": "uint256",
					"name": "",
					"type": "uint256"
				}
			],
			"name": "fromBlockchainReceive",
			"outputs": [
				{
					"internalType": "string",
					"name": "",
					"type": "string"
				}
			],
			"stateMutability": "view",
			"type": "function"
		},
		{
			"inputs": [
				{
					"internalType": "string",
					"name": "blockchainName",
					"type": "string"
				}
			],
			"name": "getMinTokenAmount",
			"outputs": [
				{
					"internalType": "uint256",
					"name": "",
					"type": "uint256"
				}
			],
			"stateMutability": "view",
			"type": "function"
		},
		{
			"inputs": [
				{
					"internalType": "bytes32",
					"name": "role",
					"type": "bytes32"
				}
			],
			"name": "getRoleAdmin",
			"outputs": [
				{
					"internalType": "bytes32",
					"name": "",
					"type": "bytes32"
				}
			],
			"stateMutability": "view",
			"type": "function"
		},
		{
			"inputs": [],
			"name": "getTokenBalance",
			"outputs": [
				{
					"internalType": "uint256",
					"name": "",
					"type": "uint256"
				}
			],
			"stateMutability": "view",
			"type": "function"
		},
		{
			"inputs": [
				{
					"internalType": "bytes32",
					"name": "blockHash",
					"type": "bytes32"
				},
				{
					"internalType": "bytes32",
					"name": "transactionHash",
					"type": "bytes32"
				},
				{
					"internalType": "address",
					"name": "receiver",
					"type": "address"
				},
				{
					"internalType": "uint256",
					"name": "amount",
					"type": "uint256"
				},
				{
					"internalType": "uint32",
					"name": "logIndex",
					"type": "uint32"
				}
			],
			"name": "getTransactionId",
			"outputs": [
				{
					"internalType": "bytes32",
					"name": "",
					"type": "bytes32"
				}
			],
			"stateMutability": "pure",
			"type": "function"
		},
		{
			"inputs": [
				{
					"internalType": "bytes32",
					"name": "role",
					"type": "bytes32"
				},
				{
					"internalType": "address",
					"name": "account",
					"type": "address"
				}
			],
			"name": "grantRole",
			"outputs": [],
			"stateMutability": "nonpayable",
			"type": "function"
		},
		{
			"inputs": [
				{
					"internalType": "bytes32",
					"name": "role",
					"type": "bytes32"
				},
				{
					"internalType": "address",
					"name": "account",
					"type": "address"
				}
			],
			"name": "hasRole",
			"outputs": [
				{
					"internalType": "bool",
					"name": "",
					"type": "bool"
				}
			],
			"stateMutability": "view",
			"type": "function"
		},
		{
			"inputs": [],
			"name": "listBlockchainFrom",
			"outputs": [
				{
					"internalType": "string[]",
					"name": "",
					"type": "string[]"
				}
			],
			"stateMutability": "view",
			"type": "function"
		},
		{
			"inputs": [],
			"name": "listBlockchainTo",
			"outputs": [
				{
					"internalType": "string[]",
					"name": "",
					"type": "string[]"
				}
			],
			"stateMutability": "view",
			"type": "function"
		},
		{
			"inputs": [],
			"name": "pause",
			"outputs": [],
			"stateMutability": "nonpayable",
			"type": "function"
		},
		{
			"inputs": [],
			"name": "paused",
			"outputs": [
				{
					"internalType": "bool",
					"name": "",
					"type": "bool"
				}
			],
			"stateMutability": "view",
			"type": "function"
		},
		{
			"inputs": [
				{
					"internalType": "bytes32",
					"name": "",
					"type": "bytes32"
				}
			],
			"name": "processed",
			"outputs": [
				{
					"internalType": "bool",
					"name": "",
					"type": "bool"
				}
			],
			"stateMutability": "view",
			"type": "function"
		},
		{
			"inputs": [
				{
					"internalType": "uint256",
					"name": "amount",
					"type": "uint256"
				},
				{
					"internalType": "string",
					"name": "toBlockchain",
					"type": "string"
				},
				{
					"internalType": "string",
					"name": "toAddress",
					"type": "string"
				}
			],
			"name": "receiveTokens",
			"outputs": [
				{
					"internalType": "bool",
					"name": "",
					"type": "bool"
				}
			],
			"stateMutability": "payable",
			"type": "function"
		},
		{
			"inputs": [
				{
					"internalType": "bytes32",
					"name": "role",
					"type": "bytes32"
				},
				{
					"internalType": "address",
					"name": "account",
					"type": "address"
				}
			],
			"name": "renounceRole",
			"outputs": [],
			"stateMutability": "nonpayable",
			"type": "function"
		},
		{
			"inputs": [
				{
					"internalType": "bytes32",
					"name": "role",
					"type": "bytes32"
				},
				{
					"internalType": "address",
					"name": "account",
					"type": "address"
				}
			],
			"name": "revokeRole",
			"outputs": [],
			"stateMutability": "nonpayable",
			"type": "function"
		},
		{
			"inputs": [
				{
					"internalType": "address",
					"name": "tokenAddress",
					"type": "address"
				},
				{
					"internalType": "address",
					"name": "owner",
					"type": "address"
				},
				{
					"internalType": "address",
					"name": "monitor",
					"type": "address"
				},
				{
					"internalType": "uint256",
					"name": "feeNative",
					"type": "uint256"
				},
				{
					"internalType": "uint256",
					"name": "feePercentage",
					"type": "uint256"
				}
			],
			"name": "setDeployBridge",
			"outputs": [],
			"stateMutability": "nonpayable",
			"type": "function"
		},
		{
			"inputs": [
				{
					"internalType": "uint256",
					"name": "amount",
					"type": "uint256"
				}
			],
			"name": "setFeeNative",
			"outputs": [
				{
					"internalType": "bool",
					"name": "",
					"type": "bool"
				}
			],
			"stateMutability": "nonpayable",
			"type": "function"
		},
		{
			"inputs": [
				{
					"internalType": "uint256",
					"name": "newFee",
					"type": "uint256"
				}
			],
			"name": "setFeePercentageBridge",
			"outputs": [
				{
					"internalType": "bool",
					"name": "",
					"type": "bool"
				}
			],
			"stateMutability": "nonpayable",
			"type": "function"
		},
		{
			"inputs": [
				{
					"internalType": "string",
					"name": "blockchainName",
					"type": "string"
				},
				{
					"internalType": "uint256",
					"name": "newAmount",
					"type": "uint256"
				}
			],
			"name": "setMinTokenAmount",
			"outputs": [
				{
					"internalType": "bool",
					"name": "",
					"type": "bool"
				}
			],
			"stateMutability": "nonpayable",
			"type": "function"
		},
		{
			"inputs": [
				{
					"internalType": "bytes4",
					"name": "interfaceId",
					"type": "bytes4"
				}
			],
			"name": "supportsInterface",
			"outputs": [
				{
					"internalType": "bool",
					"name": "",
					"type": "bool"
				}
			],
			"stateMutability": "view",
			"type": "function"
		},
		{
			"inputs": [
				{
					"internalType": "uint256",
					"name": "",
					"type": "uint256"
				}
			],
			"name": "toBlockchainTransfer",
			"outputs": [
				{
					"internalType": "string",
					"name": "",
					"type": "string"
				}
			],
			"stateMutability": "view",
			"type": "function"
		},
		{
			"inputs": [],
			"name": "token",
			"outputs": [
				{
					"internalType": "address",
					"name": "",
					"type": "address"
				}
			],
			"stateMutability": "view",
			"type": "function"
		},
		{
			"inputs": [],
			"name": "totalFeeReceivedBridge",
			"outputs": [
				{
					"internalType": "uint256",
					"name": "",
					"type": "uint256"
				}
			],
			"stateMutability": "view",
			"type": "function"
		},
		{
			"inputs": [
				{
					"internalType": "address",
					"name": "newOwner",
					"type": "address"
				}
			],
			"name": "transferOwnership",
			"outputs": [
				{
					"internalType": "bool",
					"name": "",
					"type": "bool"
				}
			],
			"stateMutability": "nonpayable",
			"type": "function"
		},
		{
			"inputs": [],
			"name": "unpause",
			"outputs": [],
			"stateMutability": "nonpayable",
			"type": "function"
		},
		{
			"inputs": [
				{
					"internalType": "uint256",
					"name": "amount",
					"type": "uint256"
				},
				{
					"internalType": "address payable",
					"name": "receiverWallet",
					"type": "address"
				}
			],
			"name": "withdrawToken",
			"outputs": [
				{
					"internalType": "bool",
					"name": "",
					"type": "bool"
				}
			],
			"stateMutability": "nonpayable",
			"type": "function"
		},
		{
			"stateMutability": "payable",
			"type": "receive"
		}
	]
}