{
	"tests/usdt.sol": {
		"TetherToken": {
			"abi": [
				{
					"constant": true,
					"inputs": [],
					"name": "name",
					"outputs": [
						{
							"name": "",
							"type": "string"
						}
					],
					"payable": false,
					"stateMutability": "view",
					"type": "function"
				},
				{
					"constant": false,
					"inputs": [
						{
							"name": "_upgradedAddress",
							"type": "address"
						}
					],
					"name": "deprecate",
					"outputs": [],
					"payable": false,
					"stateMutability": "nonpayable",
					"type": "function"
				},
				{
					"constant": false,
					"inputs": [
						{
							"name": "_spender",
							"type": "address"
						},
						{
							"name": "_value",
							"type": "uint256"
						}
					],
					"name": "approve",
					"outputs": [],
					"payable": false,
					"stateMutability": "nonpayable",
					"type": "function"
				},
				{
					"constant": true,
					"inputs": [],
					"name": "deprecated",
					"outputs": [
						{
							"name": "",
							"type": "bool"
						}
					],
					"payable": false,
					"stateMutability": "view",
					"type": "function"
				},
				{
					"constant": false,
					"inputs": [
						{
							"name": "_evilUser",
							"type": "address"
						}
					],
					"name": "addBlackList",
					"outputs": [],
					"payable": false,
					"stateMutability": "nonpayable",
					"type": "function"
				},
				{
					"constant": true,
					"inputs": [],
					"name": "totalSupply",
					"outputs": [
						{
							"name": "",
							"type": "uint256"
						}
					],
					"payable": false,
					"stateMutability": "view",
					"type": "function"
				},
				{
					"constant": false,
					"inputs": [
						{
							"name": "_from",
							"type": "address"
						},
						{
							"name": "_to",
							"type": "address"
						},
						{
							"name": "_value",
							"type": "uint256"
						}
					],
					"name": "transferFrom",
					"outputs": [],
					"payable": false,
					"stateMutability": "nonpayable",
					"type": "function"
				},
				{
					"constant": true,
					"inputs": [],
					"name": "upgradedAddress",
					"outputs": [
						{
							"name": "",
							"type": "address"
						}
					],
					"payable": false,
					"stateMutability": "view",
					"type": "function"
				},
				{
					"constant": true,
					"inputs": [
						{
							"name": "",
							"type": "address"
						}
					],
					"name": "balances",
					"outputs": [
						{
							"name": "",
							"type": "uint256"
						}
					],
					"payable": false,
					"stateMutability": "view",
					"type": "function"
				},
				{
					"constant": true,
					"inputs": [],
					"name": "decimals",
					"outputs": [
						{
							"name": "",
							"type": "uint256"
						}
					],
					"payable": false,
					"stateMutability": "view",
					"type": "function"
				},
				{
					"constant": true,
					"inputs": [],
					"name": "maximumFee",
					"outputs": [
						{
							"name": "",
							"type": "uint256"
						}
					],
					"payable": false,
					"stateMutability": "view",
					"type": "function"
				},
				{
					"constant": true,
					"inputs": [],
					"name": "_totalSupply",
					"outputs": [
						{
							"name": "",
							"type": "uint256"
						}
					],
					"payable": false,
					"stateMutability": "view",
					"type": "function"
				},
				{
					"constant": false,
					"inputs": [],
					"name": "unpause",
					"outputs": [],
					"payable": false,
					"stateMutability": "nonpayable",
					"type": "function"
				},
				{
					"constant": true,
					"inputs": [
						{
							"name": "_maker",
							"type": "address"
						}
					],
					"name": "getBlackListStatus",
					"outputs": [
						{
							"name": "",
							"type": "bool"
						}
					],
					"payable": false,
					"stateMutability": "view",
					"type": "function"
				},
				{
					"constant": true,
					"inputs": [
						{
							"name": "",
							"type": "address"
						},
						{
							"name": "",
							"type": "address"
						}
					],
					"name": "allowed",
					"outputs": [
						{
							"name": "",
							"type": "uint256"
						}
					],
					"payable": false,
					"stateMutability": "view",
					"type": "function"
				},
				{
					"constant": true,
					"inputs": [],
					"name": "paused",
					"outputs": [
						{
							"name": "",
							"type": "bool"
						}
					],
					"payable": false,
					"stateMutability": "view",
					"type": "function"
				},
				{
					"constant": true,
					"inputs": [
						{
							"name": "who",
							"type": "address"
						}
					],
					"name": "balanceOf",
					"outputs": [
						{
							"name": "",
							"type": "uint256"
						}
					],
					"payable": false,
					"stateMutability": "view",
					"type": "function"
				},
				{
					"constant": false,
					"inputs": [],
					"name": "pause",
					"outputs": [],
					"payable": false,
					"stateMutability": "nonpayable",
					"type": "function"
				},
				{
					"constant": true,
					"inputs": [],
					"name": "getOwner",
					"outputs": [
						{
							"name": "",
							"type": "address"
						}
					],
					"payable": false,
					"stateMutability": "view",
					"type": "function"
				},
				{
					"constant": true,
					"inputs": [],
					"name": "owner",
					"outputs": [
						{
							"name": "",
							"type": "address"
						}
					],
					"payable": false,
					"stateMutability": "view",
					"type": "function"
				},
				{
					"constant": true,
					"inputs": [],
					"name": "symbol",
					"outputs": [
						{
							"name": "",
							"type": "string"
						}
					],
					"payable": false,
					"stateMutability": "view",
					"type": "function"
				},
				{
					"constant": false,
					"inputs": [
						{
							"name": "_to",
							"type": "address"
						},
						{
							"name": "_value",
							"type": "uint256"
						}
					],
					"name": "transfer",
					"outputs": [],
					"payable": false,
					"stateMutability": "nonpayable",
					"type": "function"
				},
				{
					"constant": false,
					"inputs": [
						{
							"name": "newBasisPoints",
							"type": "uint256"
						},
						{
							"name": "newMaxFee",
							"type": "uint256"
						}
					],
					"name": "setParams",
					"outputs": [],
					"payable": false,
					"stateMutability": "nonpayable",
					"type": "function"
				},
				{
					"constant": false,
					"inputs": [
						{
							"name": "amount",
							"type": "uint256"
						}
					],
					"name": "issue",
					"outputs": [],
					"payable": false,
					"stateMutability": "nonpayable",
					"type": "function"
				},
				{
					"constant": false,
					"inputs": [
						{
							"name": "amount",
							"type": "uint256"
						}
					],
					"name": "redeem",
					"outputs": [],
					"payable": false,
					"stateMutability": "nonpayable",
					"type": "function"
				},
				{
					"constant": true,
					"inputs": [
						{
							"name": "_owner",
							"type": "address"
						},
						{
							"name": "_spender",
							"type": "address"
						}
					],
					"name": "allowance",
					"outputs": [
						{
							"name": "remaining",
							"type": "uint256"
						}
					],
					"payable": false,
					"stateMutability": "view",
					"type": "function"
				},
				{
					"constant": true,
					"inputs": [],
					"name": "basisPointsRate",
					"outputs": [
						{
							"name": "",
							"type": "uint256"
						}
					],
					"payable": false,
					"stateMutability": "view",
					"type": "function"
				},
				{
					"constant": true,
					"inputs": [
						{
							"name": "",
							"type": "address"
						}
					],
					"name": "isBlackListed",
					"outputs": [
						{
							"name": "",
							"type": "bool"
						}
					],
					"payable": false,
					"stateMutability": "view",
					"type": "function"
				},
				{
					"constant": false,
					"inputs": [
						{
							"name": "_clearedUser",
							"type": "address"
						}
					],
					"name": "removeBlackList",
					"outputs": [],
					"payable": false,
					"stateMutability": "nonpayable",
					"type": "function"
				},
				{
					"constant": true,
					"inputs": [],
					"name": "MAX_UINT",
					"outputs": [
						{
							"name": "",
							"type": "uint256"
						}
					],
					"payable": false,
					"stateMutability": "view",
					"type": "function"
				},
				{
					"constant": false,
					"inputs": [
						{
							"name": "newOwner",
							"type": "address"
						}
					],
					"name": "transferOwnership",
					"outputs": [],
					"payable": false,
					"stateMutability": "nonpayable",
					"type": "function"
				},
				{
					"constant": false,
					"inputs": [
						{
							"name": "_blackListedUser",
							"type": "address"
						}
					],
					"name": "destroyBlackFunds",
					"outputs": [],
					"payable": false,
					"stateMutability": "nonpayable",
					"type": "function"
				},
				{
					"inputs": [
						{
							"name": "_initialSupply",
							"type": "uint256"
						},
						{
							"name": "_name",
							"type": "string"
						},
						{
							"name": "_symbol",
							"type": "string"
						},
						{
							"name": "_decimals",
							"type": "uint256"
						}
					],
					"payable": false,
					"stateMutability": "nonpayable",
					"type": "constructor"
				},
				{
					"anonymous": false,
					"inputs": [
						{
							"indexed": false,
							"name": "amount",
							"type": "uint256"
						}
					],
					"name": "Issue",
					"type": "event"
				},
				{
					"anonymous": false,
					"inputs": [
						{
							"indexed": false,
							"name": "amount",
							"type": "uint256"
						}
					],
					"name": "Redeem",
					"type": "event"
				},
				{
					"anonymous": false,
					"inputs": [
						{
							"indexed": false,
							"name": "newAddress",
							"type": "address"
						}
					],
					"name": "Deprecate",
					"type": "event"
				},
				{
					"anonymous": false,
					"inputs": [
						{
							"indexed": false,
							"name": "feeBasisPoints",
							"type": "uint256"
						},
						{
							"indexed": false,
							"name": "maxFee",
							"type": "uint256"
						}
					],
					"name": "Params",
					"type": "event"
				},
				{
					"anonymous": false,
					"inputs": [
						{
							"indexed": false,
							"name": "_blackListedUser",
							"type": "address"
						},
						{
							"indexed": false,
							"name": "_balance",
							"type": "uint256"
						}
					],
					"name": "DestroyedBlackFunds",
					"type": "event"
				},
				{
					"anonymous": false,
					"inputs": [
						{
							"indexed": false,
							"name": "_user",
							"type": "address"
						}
					],
					"name": "AddedBlackList",
					"type": "event"
				},
				{
					"anonymous": false,
					"inputs": [
						{
							"indexed": false,
							"name": "_user",
							"type": "address"
						}
					],
					"name": "RemovedBlackList",
					"type": "event"
				},
				{
					"anonymous": false,
					"inputs": [
						{
							"indexed": true,
							"name": "owner",
							"type": "address"
						},
						{
							"indexed": true,
							"name": "spender",
							"type": "address"
						},
						{
							"indexed": false,
							"name": "value",
							"type": "uint256"
						}
					],
					"name": "Approval",
					"type": "event"
				},
				{
					"anonymous": false,
					"inputs": [
						{
							"indexed": true,
							"name": "from",
							"type": "address"
						},
						{
							"indexed": true,
							"name": "to",
							"type": "address"
						},
						{
							"indexed": false,
							"name": "value",
							"type": "uint256"
						}
					],
					"name": "Transfer",
					"type": "event"
				},
				{
					"anonymous": false,
					"inputs": [],
					"name": "Pause",
					"type": "event"
				},
				{
					"anonymous": false,
					"inputs": [],
					"name": "Unpause",
					"type": "event"
				}
			],
			"devdoc": {
				"methods": {
					"pause()": {
						"details": "called by the owner to pause, triggers stopped state"
					},
					"transferOwnership(address)": {
						"details": "Allows the current owner to transfer control of the contract to a newOwner.",
						"params": {
							"newOwner": "The address to transfer ownership to."
						}
					},
					"unpause()": {
						"details": "called by the owner to unpause, returns to normal state"
					}
				}
			},
			"evm": {
				"assembly": "    /* \"tests/usdt.sol\":9728:14509  contract TetherToken is Pausable, StandardToken, BlackList {... */\n  mstore(0x40, 0x80)\n    /* \"tests/usdt.sol\":7405:7410  false */\n  0x0\n    /* \"tests/usdt.sol\":7384:7410  bool public paused = false */\n  dup1\n  sload\n  not(mul(0xff, exp(0x2, 0xa0)))\n  and\n  dup2\n  sstore\n    /* \"tests/usdt.sol\":3041:3072  uint public basisPointsRate = 0 */\n  0x3\n  dup2\n  swap1\n  sstore\n    /* \"tests/usdt.sol\":3078:3104  uint public maximumFee = 0 */\n  0x4\n  sstore\n    /* \"tests/usdt.sol\":10223:10512  function TetherToken(uint _initialSupply, string _name, string _symbol, uint _decimals) public {... */\n  callvalue\n    /* \"--CODEGEN--\":5:7   */\n  dup1\n  iszero\n  tag_1\n  jumpi\n    /* \"--CODEGEN--\":30:31   */\n  0x0\n    /* \"--CODEGEN--\":27:28   */\n  dup1\n    /* \"--CODEGEN--\":20:32   */\n  revert\n    /* \"--CODEGEN--\":5:7   */\ntag_1:\n    /* \"tests/usdt.sol\":10223:10512  function TetherToken(uint _initialSupply, string _name, string _symbol, uint _decimals) public {... */\n  pop\n  mload(0x40)\n  sub(codesize, bytecodeSize)\n  dup1\n  bytecodeSize\n  dup4\n  codecopy\n  dup2\n  add\n  0x40\n  swap1\n  dup2\n  mstore\n  dup2\n  mload\n  0x20\n  dup1\n  dup5\n  add\n  mload\n  swap3\n  dup5\n  add\n  mload\n  0x60\n  dup6\n  add\n  mload\n    /* \"tests/usdt.sol\":1378:1383  owner */\n  0x0\n    /* \"tests/usdt.sol\":1378:1396  owner = msg.sender */\n  dup1\n  sload\n  not(sub(exp(0x2, 0xa0), 0x1))\n  and\n    /* \"tests/usdt.sol\":1386:1396  msg.sender */\n  caller\n    /* \"tests/usdt.sol\":1378:1396  owner = msg.sender */\n  or\n  swap1\n  sstore\n  0x1\n    /* \"tests/usdt.sol\":10328:10357  _totalSupply = _initialSupply */\n  dup5\n  swap1\n  sstore\n    /* \"tests/usdt.sol\":10223:10512  function TetherToken(uint _initialSupply, string _name, string _symbol, uint _decimals) public {... */\n  swap4\n  dup6\n  add\n    /* \"tests/usdt.sol\":10367:10379  name = _name */\n  dup1\n  mload\n    /* \"tests/usdt.sol\":10223:10512  function TetherToken(uint _initialSupply, string _name, string _symbol, uint _decimals) public {... */\n  swap4\n  swap6\n  swap1\n  swap5\n  swap2\n  add\n  swap3\n  swap1\n  swap2\n    /* \"tests/usdt.sol\":10367:10379  name = _name */\n  tag_6\n  swap2\n    /* \"tests/usdt.sol\":10367:10371  name */\n  0x7\n  swap2\n    /* \"tests/usdt.sol\":10367:10379  name = _name */\n  dup7\n  add\n  swap1\n  jump\t// in(tag_7)\ntag_6:\n  pop\n    /* \"tests/usdt.sol\":10389:10405  symbol = _symbol */\n  dup2\n  mload\n  tag_8\n  swap1\n    /* \"tests/usdt.sol\":10389:10395  symbol */\n  0x8\n  swap1\n    /* \"tests/usdt.sol\":10389:10405  symbol = _symbol */\n  0x20\n  dup6\n  add\n  swap1\n  jump\t// in(tag_7)\ntag_8:\n  pop\n    /* \"tests/usdt.sol\":10415:10423  decimals */\n  0x9\n    /* \"tests/usdt.sol\":10415:10435  decimals = _decimals */\n  sstore\n  pop\n  pop\n    /* \"tests/usdt.sol\":10445:10460  balances[owner] */\n  0x0\n    /* \"tests/usdt.sol\":10454:10459  owner */\n  dup1\n  sload\n  sub(exp(0x2, 0xa0), 0x1)\n  and\n    /* \"tests/usdt.sol\":10445:10460  balances[owner] */\n  dup2\n  mstore\n    /* \"tests/usdt.sol\":10445:10453  balances */\n  0x2\n    /* \"tests/usdt.sol\":10445:10460  balances[owner] */\n  0x20\n  mstore\n  0x40\n  swap1\n  keccak256\n    /* \"tests/usdt.sol\":10445:10477  balances[owner] = _initialSupply */\n  sstore\n    /* \"tests/usdt.sol\":10487:10497  deprecated */\n  0xa\n    /* \"tests/usdt.sol\":10487:10505  deprecated = false */\n  dup1\n  sload\n  not(mul(0xff, exp(0x2, 0xa0)))\n  and\n  swap1\n  sstore\n    /* \"tests/usdt.sol\":9728:14509  contract TetherToken is Pausable, StandardToken, BlackList {... */\n  jump(tag_9)\ntag_7:\n  dup3\n  dup1\n  sload\n  0x1\n  dup2\n  0x1\n  and\n  iszero\n  0x100\n  mul\n  sub\n  and\n  0x2\n  swap1\n  div\n  swap1\n  0x0\n  mstore\n  keccak256(0x0, 0x20)\n  swap1\n  0x1f\n  add\n  0x20\n  swap1\n  div\n  dup2\n  add\n  swap3\n  dup3\n  0x1f\n  lt\n  tag_11\n  jumpi\n  dup1\n  mload\n  not(0xff)\n  and\n  dup4\n  dup1\n  add\n  or\n  dup6\n  sstore\n  jump(tag_13)\ntag_11:\n  dup3\n  dup1\n  add\n  0x1\n  add\n  dup6\n  sstore\n  dup3\n  iszero\n  tag_13\n  jumpi\n  swap2\n  dup3\n  add\ntag_12:\n  dup3\n  dup2\n  gt\n  iszero\n  tag_13\n  jumpi\n  dup3\n  mload\n  dup3\n  sstore\n  swap2\n  0x20\n  add\n  swap2\n  swap1\n  0x1\n  add\n  swap1\n  jump(tag_12)\ntag_13:\n  pop\n  tag_14\n  swap3\n  swap2\n  pop\n  jump\t// in(tag_15)\ntag_14:\n  pop\n  swap1\n  jump\t// out\ntag_15:\n  tag_16\n  swap2\n  swap1\ntag_17:\n  dup1\n  dup3\n  gt\n  iszero\n  tag_14\n  jumpi\n  0x0\n  dup2\n  sstore\n  0x1\n  add\n  jump(tag_17)\ntag_16:\n  swap1\n  jump\t// out\ntag_9:\n  dataSize(sub_0)\n  dup1\n  dataOffset(sub_0)\n  0x0\n  codecopy\n  0x0\n  return\nstop\n\nsub_0: assembly {\n        /* \"tests/usdt.sol\":9728:14509  contract TetherToken is Pausable, StandardToken, BlackList {... */\n      mstore(0x40, 0x80)\n      jumpi(tag_1, lt(calldatasize, 0x4))\n      and(div(calldataload(0x0), 0x100000000000000000000000000000000000000000000000000000000), 0xffffffff)\n      0x6fdde03\n      dup2\n      eq\n      tag_2\n      jumpi\n      dup1\n      0x753c30c\n      eq\n      tag_3\n      jumpi\n      dup1\n      0x95ea7b3\n      eq\n      tag_4\n      jumpi\n      dup1\n      0xe136b19\n      eq\n      tag_5\n      jumpi\n      dup1\n      0xecb93c0\n      eq\n      tag_6\n      jumpi\n      dup1\n      0x18160ddd\n      eq\n      tag_7\n      jumpi\n      dup1\n      0x23b872dd\n      eq\n      tag_8\n      jumpi\n      dup1\n      0x26976e3f\n      eq\n      tag_9\n      jumpi\n      dup1\n      0x27e235e3\n      eq\n      tag_10\n      jumpi\n      dup1\n      0x313ce567\n      eq\n      tag_11\n      jumpi\n      dup1\n      0x35390714\n      eq\n      tag_12\n      jumpi\n      dup1\n      0x3eaaf86b\n      eq\n      tag_13\n      jumpi\n      dup1\n      0x3f4ba83a\n      eq\n      tag_14\n      jumpi\n      dup1\n      0x59bf1abe\n      eq\n      tag_15\n      jumpi\n      dup1\n      0x5c658165\n      eq\n      tag_16\n      jumpi\n      dup1\n      0x5c975abb\n      eq\n      tag_17\n      jumpi\n      dup1\n      0x70a08231\n      eq\n      tag_18\n      jumpi\n      dup1\n      0x8456cb59\n      eq\n      tag_19\n      jumpi\n      dup1\n      0x893d20e8\n      eq\n      tag_20\n      jumpi\n      dup1\n      0x8da5cb5b\n      eq\n      tag_21\n      jumpi\n      dup1\n      0x95d89b41\n      eq\n      tag_22\n      jumpi\n      dup1\n      0xa9059cbb\n      eq\n      tag_23\n      jumpi\n      dup1\n      0xc0324c77\n      eq\n      tag_24\n      jumpi\n      dup1\n      0xcc872b66\n      eq\n      tag_25\n      jumpi\n      dup1\n      0xdb006a75\n      eq\n      tag_26\n      jumpi\n      dup1\n      0xdd62ed3e\n      eq\n      tag_27\n      jumpi\n      dup1\n      0xdd644f72\n      eq\n      tag_28\n      jumpi\n      dup1\n      0xe47d6060\n      eq\n      tag_29\n      jumpi\n      dup1\n      0xe4997dc5\n      eq\n      tag_30\n      jumpi\n      dup1\n      0xe5b5019a\n      eq\n      tag_31\n      jumpi\n      dup1\n      0xf2fde38b\n      eq\n      tag_32\n      jumpi\n      dup1\n      0xf3bdc228\n      eq\n      tag_33\n      jumpi\n    tag_1:\n      0x0\n      dup1\n      revert\n        /* \"tests/usdt.sol\":9794:9812  string public name */\n    tag_2:\n      callvalue\n        /* \"--CODEGEN--\":8:17   */\n      dup1\n        /* \"--CODEGEN--\":5:7   */\n      iszero\n      tag_34\n      jumpi\n        /* \"--CODEGEN--\":30:31   */\n      0x0\n        /* \"--CODEGEN--\":27:28   */\n      dup1\n        /* \"--CODEGEN--\":20:32   */\n      revert\n        /* \"--CODEGEN--\":5:7   */\n    tag_34:\n        /* \"tests/usdt.sol\":9794:9812  string public name */\n      pop\n      tag_35\n      jump(tag_36)\n    tag_35:\n      0x40\n      dup1\n      mload\n      0x20\n      dup1\n      dup3\n      mstore\n      dup4\n      mload\n      dup2\n      dup4\n      add\n      mstore\n      dup4\n      mload\n      swap2\n      swap3\n      dup4\n      swap3\n      swap1\n      dup4\n      add\n      swap2\n      dup6\n      add\n      swap1\n      dup1\n      dup4\n      dup4\n      0x0\n        /* \"--CODEGEN--\":8:108   */\n    tag_37:\n        /* \"--CODEGEN--\":33:36   */\n      dup4\n        /* \"--CODEGEN--\":30:31   */\n      dup2\n        /* \"--CODEGEN--\":27:37   */\n      lt\n        /* \"--CODEGEN--\":8:108   */\n      iszero\n      tag_38\n      jumpi\n        /* \"--CODEGEN--\":90:101   */\n      dup2\n      dup2\n      add\n        /* \"--CODEGEN--\":84:102   */\n      mload\n        /* \"--CODEGEN--\":71:82   */\n      dup4\n      dup3\n      add\n        /* \"--CODEGEN--\":64:103   */\n      mstore\n        /* \"--CODEGEN--\":52:54   */\n      0x20\n        /* \"--CODEGEN--\":45:55   */\n      add\n        /* \"--CODEGEN--\":8:108   */\n      jump(tag_37)\n    tag_38:\n        /* \"--CODEGEN--\":12:26   */\n      pop\n        /* \"tests/usdt.sol\":9794:9812  string public name */\n      pop\n      pop\n      pop\n      swap1\n      pop\n      swap1\n      dup2\n      add\n      swap1\n      0x1f\n      and\n      dup1\n      iszero\n      tag_40\n      jumpi\n      dup1\n      dup3\n      sub\n      dup1\n      mload\n      0x1\n      dup4\n      0x20\n      sub\n      0x100\n      exp\n      sub\n      not\n      and\n      dup2\n      mstore\n      0x20\n      add\n      swap2\n      pop\n    tag_40:\n      pop\n      swap3\n      pop\n      pop\n      pop\n      mload(0x40)\n      dup1\n      swap2\n      sub\n      swap1\n      return\n        /* \"tests/usdt.sol\":12480:12657  function deprecate(address _upgradedAddress) public onlyOwner {... */\n    tag_3:\n      callvalue\n        /* \"--CODEGEN--\":8:17   */\n      dup1\n        /* \"--CODEGEN--\":5:7   */\n      iszero\n      tag_41\n      jumpi\n        /* \"--CODEGEN--\":30:31   */\n      0x0\n        /* \"--CODEGEN--\":27:28   */\n      dup1\n        /* \"--CODEGEN--\":20:32   */\n      revert\n        /* \"--CODEGEN--\":5:7   */\n    tag_41:\n      pop\n        /* \"tests/usdt.sol\":12480:12657  function deprecate(address _upgradedAddress) public onlyOwner {... */\n      tag_42\n      and(calldataload(0x4), sub(exp(0x2, 0xa0), 0x1))\n      jump(tag_43)\n    tag_42:\n      stop\n        /* \"tests/usdt.sol\":11752:12048  function approve(address _spender, uint _value) public onlyPayloadSize(2 * 32) {... */\n    tag_4:\n      callvalue\n        /* \"--CODEGEN--\":8:17   */\n      dup1\n        /* \"--CODEGEN--\":5:7   */\n      iszero\n      tag_44\n      jumpi\n        /* \"--CODEGEN--\":30:31   */\n      0x0\n        /* \"--CODEGEN--\":27:28   */\n      dup1\n        /* \"--CODEGEN--\":20:32   */\n      revert\n        /* \"--CODEGEN--\":5:7   */\n    tag_44:\n      pop\n        /* \"tests/usdt.sol\":11752:12048  function approve(address _spender, uint _value) public onlyPayloadSize(2 * 32) {... */\n      tag_42\n      and(calldataload(0x4), sub(exp(0x2, 0xa0), 0x1))\n      calldataload(0x24)\n      jump(tag_46)\n        /* \"tests/usdt.sol\":9906:9928  bool public deprecated */\n    tag_5:\n      callvalue\n        /* \"--CODEGEN--\":8:17   */\n      dup1\n        /* \"--CODEGEN--\":5:7   */\n      iszero\n      tag_47\n      jumpi\n        /* \"--CODEGEN--\":30:31   */\n      0x0\n        /* \"--CODEGEN--\":27:28   */\n      dup1\n        /* \"--CODEGEN--\":20:32   */\n      revert\n        /* \"--CODEGEN--\":5:7   */\n    tag_47:\n        /* \"tests/usdt.sol\":9906:9928  bool public deprecated */\n      pop\n      tag_48\n      jump(tag_49)\n    tag_48:\n      0x40\n      dup1\n      mload\n      swap2\n      iszero\n      iszero\n      dup3\n      mstore\n      mload\n      swap1\n      dup2\n      swap1\n      sub\n      0x20\n      add\n      swap1\n      return\n        /* \"tests/usdt.sol\":8505:8647  function addBlackList (address _evilUser) public onlyOwner {... */\n    tag_6:\n      callvalue\n        /* \"--CODEGEN--\":8:17   */\n      dup1\n        /* \"--CODEGEN--\":5:7   */\n      iszero\n      tag_50\n      jumpi\n        /* \"--CODEGEN--\":30:31   */\n      0x0\n        /* \"--CODEGEN--\":27:28   */\n      dup1\n        /* \"--CODEGEN--\":20:32   */\n      revert\n        /* \"--CODEGEN--\":5:7   */\n    tag_50:\n      pop\n        /* \"tests/usdt.sol\":8505:8647  function addBlackList (address _evilUser) public onlyOwner {... */\n      tag_42\n      and(calldataload(0x4), sub(exp(0x2, 0xa0), 0x1))\n      jump(tag_52)\n        /* \"tests/usdt.sol\":12720:12932  function totalSupply() public constant returns (uint) {... */\n    tag_7:\n      callvalue\n        /* \"--CODEGEN--\":8:17   */\n      dup1\n        /* \"--CODEGEN--\":5:7   */\n      iszero\n      tag_53\n      jumpi\n        /* \"--CODEGEN--\":30:31   */\n      0x0\n        /* \"--CODEGEN--\":27:28   */\n      dup1\n        /* \"--CODEGEN--\":20:32   */\n      revert\n        /* \"--CODEGEN--\":5:7   */\n    tag_53:\n        /* \"tests/usdt.sol\":12720:12932  function totalSupply() public constant returns (uint) {... */\n      pop\n      tag_54\n      jump(tag_55)\n    tag_54:\n      0x40\n      dup1\n      mload\n      swap2\n      dup3\n      mstore\n      mload\n      swap1\n      dup2\n      swap1\n      sub\n      0x20\n      add\n      swap1\n      return\n        /* \"tests/usdt.sol\":10995:11350  function transferFrom(address _from, address _to, uint _value) public whenNotPaused {... */\n    tag_8:\n      callvalue\n        /* \"--CODEGEN--\":8:17   */\n      dup1\n        /* \"--CODEGEN--\":5:7   */\n      iszero\n      tag_56\n      jumpi\n        /* \"--CODEGEN--\":30:31   */\n      0x0\n        /* \"--CODEGEN--\":27:28   */\n      dup1\n        /* \"--CODEGEN--\":20:32   */\n      revert\n        /* \"--CODEGEN--\":5:7   */\n    tag_56:\n      pop\n        /* \"tests/usdt.sol\":10995:11350  function transferFrom(address _from, address _to, uint _value) public whenNotPaused {... */\n      tag_42\n      sub(exp(0x2, 0xa0), 0x1)\n      calldataload(0x4)\n      dup2\n      and\n      swap1\n      calldataload(0x24)\n      and\n      calldataload(0x44)\n      jump(tag_58)\n        /* \"tests/usdt.sol\":9870:9900  address public upgradedAddress */\n    tag_9:\n      callvalue\n        /* \"--CODEGEN--\":8:17   */\n      dup1\n        /* \"--CODEGEN--\":5:7   */\n      iszero\n      tag_59\n      jumpi\n        /* \"--CODEGEN--\":30:31   */\n      0x0\n        /* \"--CODEGEN--\":27:28   */\n      dup1\n        /* \"--CODEGEN--\":20:32   */\n      revert\n        /* \"--CODEGEN--\":5:7   */\n    tag_59:\n        /* \"tests/usdt.sol\":9870:9900  address public upgradedAddress */\n      pop\n      tag_60\n      jump(tag_61)\n    tag_60:\n      0x40\n      dup1\n      mload\n      sub(exp(0x2, 0xa0), 0x1)\n      swap1\n      swap3\n      and\n      dup3\n      mstore\n      mload\n      swap1\n      dup2\n      swap1\n      sub\n      0x20\n      add\n      swap1\n      return\n        /* \"tests/usdt.sol\":2916:2956  mapping(address => uint) public balances */\n    tag_10:\n      callvalue\n        /* \"--CODEGEN--\":8:17   */\n      dup1\n        /* \"--CODEGEN--\":5:7   */\n      iszero\n      tag_62\n      jumpi\n        /* \"--CODEGEN--\":30:31   */\n      0x0\n        /* \"--CODEGEN--\":27:28   */\n      dup1\n        /* \"--CODEGEN--\":20:32   */\n      revert\n        /* \"--CODEGEN--\":5:7   */\n    tag_62:\n      pop\n        /* \"tests/usdt.sol\":2916:2956  mapping(address => uint) public balances */\n      tag_54\n      and(calldataload(0x4), sub(exp(0x2, 0xa0), 0x1))\n      jump(tag_64)\n        /* \"tests/usdt.sol\":9844:9864  uint public decimals */\n    tag_11:\n      callvalue\n        /* \"--CODEGEN--\":8:17   */\n      dup1\n        /* \"--CODEGEN--\":5:7   */\n      iszero\n      tag_65\n      jumpi\n        /* \"--CODEGEN--\":30:31   */\n      0x0\n        /* \"--CODEGEN--\":27:28   */\n      dup1\n        /* \"--CODEGEN--\":20:32   */\n      revert\n        /* \"--CODEGEN--\":5:7   */\n    tag_65:\n        /* \"tests/usdt.sol\":9844:9864  uint public decimals */\n      pop\n      tag_54\n      jump(tag_67)\n        /* \"tests/usdt.sol\":3078:3104  uint public maximumFee = 0 */\n    tag_12:\n      callvalue\n        /* \"--CODEGEN--\":8:17   */\n      dup1\n        /* \"--CODEGEN--\":5:7   */\n      iszero\n      tag_68\n      jumpi\n        /* \"--CODEGEN--\":30:31   */\n      0x0\n        /* \"--CODEGEN--\":27:28   */\n      dup1\n        /* \"--CODEGEN--\":20:32   */\n      revert\n        /* \"--CODEGEN--\":5:7   */\n    tag_68:\n        /* \"tests/usdt.sol\":3078:3104  uint public maximumFee = 0 */\n      pop\n      tag_54\n      jump(tag_70)\n        /* \"tests/usdt.sol\":2043:2067  uint public _totalSupply */\n    tag_13:\n      callvalue\n        /* \"--CODEGEN--\":8:17   */\n      dup1\n        /* \"--CODEGEN--\":5:7   */\n      iszero\n      tag_71\n      jumpi\n        /* \"--CODEGEN--\":30:31   */\n      0x0\n        /* \"--CODEGEN--\":27:28   */\n      dup1\n        /* \"--CODEGEN--\":20:32   */\n      revert\n        /* \"--CODEGEN--\":5:7   */\n    tag_71:\n        /* \"tests/usdt.sol\":2043:2067  uint public _totalSupply */\n      pop\n      tag_54\n      jump(tag_73)\n        /* \"tests/usdt.sol\":7970:8057  function unpause() onlyOwner whenPaused public {... */\n    tag_14:\n      callvalue\n        /* \"--CODEGEN--\":8:17   */\n      dup1\n        /* \"--CODEGEN--\":5:7   */\n      iszero\n      tag_74\n      jumpi\n        /* \"--CODEGEN--\":30:31   */\n      0x0\n        /* \"--CODEGEN--\":27:28   */\n      dup1\n        /* \"--CODEGEN--\":20:32   */\n      revert\n        /* \"--CODEGEN--\":5:7   */\n    tag_74:\n        /* \"tests/usdt.sol\":7970:8057  function unpause() onlyOwner whenPaused public {... */\n      pop\n      tag_42\n      jump(tag_76)\n        /* \"tests/usdt.sol\":8229:8351  function getBlackListStatus(address _maker) external constant returns (bool) {... */\n    tag_15:\n      callvalue\n        /* \"--CODEGEN--\":8:17   */\n      dup1\n        /* \"--CODEGEN--\":5:7   */\n      iszero\n      tag_77\n      jumpi\n        /* \"--CODEGEN--\":30:31   */\n      0x0\n        /* \"--CODEGEN--\":27:28   */\n      dup1\n        /* \"--CODEGEN--\":20:32   */\n      revert\n        /* \"--CODEGEN--\":5:7   */\n    tag_77:\n      pop\n        /* \"tests/usdt.sol\":8229:8351  function getBlackListStatus(address _maker) external constant returns (bool) {... */\n      tag_48\n      and(calldataload(0x4), sub(exp(0x2, 0xa0), 0x1))\n      jump(tag_79)\n        /* \"tests/usdt.sol\":4652:4713  mapping (address => mapping (address => uint)) public allowed */\n    tag_16:\n      callvalue\n        /* \"--CODEGEN--\":8:17   */\n      dup1\n        /* \"--CODEGEN--\":5:7   */\n      iszero\n      tag_80\n      jumpi\n        /* \"--CODEGEN--\":30:31   */\n      0x0\n        /* \"--CODEGEN--\":27:28   */\n      dup1\n        /* \"--CODEGEN--\":20:32   */\n      revert\n        /* \"--CODEGEN--\":5:7   */\n    tag_80:\n      pop\n        /* \"tests/usdt.sol\":4652:4713  mapping (address => mapping (address => uint)) public allowed */\n      tag_54\n      sub(exp(0x2, 0xa0), 0x1)\n      calldataload(0x4)\n      dup2\n      and\n      swap1\n      calldataload(0x24)\n      and\n      jump(tag_82)\n        /* \"tests/usdt.sol\":7384:7410  bool public paused = false */\n    tag_17:\n      callvalue\n        /* \"--CODEGEN--\":8:17   */\n      dup1\n        /* \"--CODEGEN--\":5:7   */\n      iszero\n      tag_83\n      jumpi\n        /* \"--CODEGEN--\":30:31   */\n      0x0\n        /* \"--CODEGEN--\":27:28   */\n      dup1\n        /* \"--CODEGEN--\":20:32   */\n      revert\n        /* \"--CODEGEN--\":5:7   */\n    tag_83:\n        /* \"tests/usdt.sol\":7384:7410  bool public paused = false */\n      pop\n      tag_48\n      jump(tag_85)\n        /* \"tests/usdt.sol\":11432:11670  function balanceOf(address who) public constant returns (uint) {... */\n    tag_18:\n      callvalue\n        /* \"--CODEGEN--\":8:17   */\n      dup1\n        /* \"--CODEGEN--\":5:7   */\n      iszero\n      tag_86\n      jumpi\n        /* \"--CODEGEN--\":30:31   */\n      0x0\n        /* \"--CODEGEN--\":27:28   */\n      dup1\n        /* \"--CODEGEN--\":20:32   */\n      revert\n        /* \"--CODEGEN--\":5:7   */\n    tag_86:\n      pop\n        /* \"tests/usdt.sol\":11432:11670  function balanceOf(address who) public constant returns (uint) {... */\n      tag_54\n      and(calldataload(0x4), sub(exp(0x2, 0xa0), 0x1))\n      jump(tag_88)\n        /* \"tests/usdt.sol\":7803:7888  function pause() onlyOwner whenNotPaused public {... */\n    tag_19:\n      callvalue\n        /* \"--CODEGEN--\":8:17   */\n      dup1\n        /* \"--CODEGEN--\":5:7   */\n      iszero\n      tag_89\n      jumpi\n        /* \"--CODEGEN--\":30:31   */\n      0x0\n        /* \"--CODEGEN--\":27:28   */\n      dup1\n        /* \"--CODEGEN--\":20:32   */\n      revert\n        /* \"--CODEGEN--\":5:7   */\n    tag_89:\n        /* \"tests/usdt.sol\":7803:7888  function pause() onlyOwner whenNotPaused public {... */\n      pop\n      tag_42\n      jump(tag_91)\n        /* \"tests/usdt.sol\":8357:8442  function getOwner() external constant returns (address) {... */\n    tag_20:\n      callvalue\n        /* \"--CODEGEN--\":8:17   */\n      dup1\n        /* \"--CODEGEN--\":5:7   */\n      iszero\n      tag_92\n      jumpi\n        /* \"--CODEGEN--\":30:31   */\n      0x0\n        /* \"--CODEGEN--\":27:28   */\n      dup1\n        /* \"--CODEGEN--\":20:32   */\n      revert\n        /* \"--CODEGEN--\":5:7   */\n    tag_92:\n        /* \"tests/usdt.sol\":8357:8442  function getOwner() external constant returns (address) {... */\n      pop\n      tag_60\n      jump(tag_94)\n        /* \"tests/usdt.sol\":1188:1208  address public owner */\n    tag_21:\n      callvalue\n        /* \"--CODEGEN--\":8:17   */\n      dup1\n        /* \"--CODEGEN--\":5:7   */\n      iszero\n      tag_95\n      jumpi\n        /* \"--CODEGEN--\":30:31   */\n      0x0\n        /* \"--CODEGEN--\":27:28   */\n      dup1\n        /* \"--CODEGEN--\":20:32   */\n      revert\n        /* \"--CODEGEN--\":5:7   */\n    tag_95:\n        /* \"tests/usdt.sol\":1188:1208  address public owner */\n      pop\n      tag_60\n      jump(tag_97)\n        /* \"tests/usdt.sol\":9818:9838  string public symbol */\n    tag_22:\n      callvalue\n        /* \"--CODEGEN--\":8:17   */\n      dup1\n        /* \"--CODEGEN--\":5:7   */\n      iszero\n      tag_98\n      jumpi\n        /* \"--CODEGEN--\":30:31   */\n      0x0\n        /* \"--CODEGEN--\":27:28   */\n      dup1\n        /* \"--CODEGEN--\":20:32   */\n      revert\n        /* \"--CODEGEN--\":5:7   */\n    tag_98:\n        /* \"tests/usdt.sol\":9818:9838  string public symbol */\n      pop\n      tag_35\n      jump(tag_100)\n        /* \"tests/usdt.sol\":10594:10913  function transfer(address _to, uint _value) public whenNotPaused {... */\n    tag_23:\n      callvalue\n        /* \"--CODEGEN--\":8:17   */\n      dup1\n        /* \"--CODEGEN--\":5:7   */\n      iszero\n      tag_105\n      jumpi\n        /* \"--CODEGEN--\":30:31   */\n      0x0\n        /* \"--CODEGEN--\":27:28   */\n      dup1\n        /* \"--CODEGEN--\":20:32   */\n      revert\n        /* \"--CODEGEN--\":5:7   */\n    tag_105:\n      pop\n        /* \"tests/usdt.sol\":10594:10913  function transfer(address _to, uint _value) public whenNotPaused {... */\n      tag_42\n      and(calldataload(0x4), sub(exp(0x2, 0xa0), 0x1))\n      calldataload(0x24)\n      jump(tag_107)\n        /* \"tests/usdt.sol\":13809:14187  function setParams(uint newBasisPoints, uint newMaxFee) public onlyOwner {... */\n    tag_24:\n      callvalue\n        /* \"--CODEGEN--\":8:17   */\n      dup1\n        /* \"--CODEGEN--\":5:7   */\n      iszero\n      tag_108\n      jumpi\n        /* \"--CODEGEN--\":30:31   */\n      0x0\n        /* \"--CODEGEN--\":27:28   */\n      dup1\n        /* \"--CODEGEN--\":20:32   */\n      revert\n        /* \"--CODEGEN--\":5:7   */\n    tag_108:\n      pop\n        /* \"tests/usdt.sol\":13809:14187  function setParams(uint newBasisPoints, uint newMaxFee) public onlyOwner {... */\n      tag_42\n      calldataload(0x4)\n      calldataload(0x24)\n      jump(tag_110)\n        /* \"tests/usdt.sol\":13090:13349  function issue(uint amount) public onlyOwner {... */\n    tag_25:\n      callvalue\n        /* \"--CODEGEN--\":8:17   */\n      dup1\n        /* \"--CODEGEN--\":5:7   */\n      iszero\n      tag_111\n      jumpi\n        /* \"--CODEGEN--\":30:31   */\n      0x0\n        /* \"--CODEGEN--\":27:28   */\n      dup1\n        /* \"--CODEGEN--\":20:32   */\n      revert\n        /* \"--CODEGEN--\":5:7   */\n    tag_111:\n      pop\n        /* \"tests/usdt.sol\":13090:13349  function issue(uint amount) public onlyOwner {... */\n      tag_42\n      calldataload(0x4)\n      jump(tag_113)\n        /* \"tests/usdt.sol\":13573:13803  function redeem(uint amount) public onlyOwner {... */\n    tag_26:\n      callvalue\n        /* \"--CODEGEN--\":8:17   */\n      dup1\n        /* \"--CODEGEN--\":5:7   */\n      iszero\n      tag_114\n      jumpi\n        /* \"--CODEGEN--\":30:31   */\n      0x0\n        /* \"--CODEGEN--\":27:28   */\n      dup1\n        /* \"--CODEGEN--\":20:32   */\n      revert\n        /* \"--CODEGEN--\":5:7   */\n    tag_114:\n      pop\n        /* \"tests/usdt.sol\":13573:13803  function redeem(uint amount) public onlyOwner {... */\n      tag_42\n      calldataload(0x4)\n      jump(tag_116)\n        /* \"tests/usdt.sol\":12130:12417  function allowance(address _owner, address _spender) public constant returns (uint remaining) {... */\n    tag_27:\n      callvalue\n        /* \"--CODEGEN--\":8:17   */\n      dup1\n        /* \"--CODEGEN--\":5:7   */\n      iszero\n      tag_117\n      jumpi\n        /* \"--CODEGEN--\":30:31   */\n      0x0\n        /* \"--CODEGEN--\":27:28   */\n      dup1\n        /* \"--CODEGEN--\":20:32   */\n      revert\n        /* \"--CODEGEN--\":5:7   */\n    tag_117:\n      pop\n        /* \"tests/usdt.sol\":12130:12417  function allowance(address _owner, address _spender) public constant returns (uint remaining) {... */\n      tag_54\n      sub(exp(0x2, 0xa0), 0x1)\n      calldataload(0x4)\n      dup2\n      and\n      swap1\n      calldataload(0x24)\n      and\n      jump(tag_119)\n        /* \"tests/usdt.sol\":3041:3072  uint public basisPointsRate = 0 */\n    tag_28:\n      callvalue\n        /* \"--CODEGEN--\":8:17   */\n      dup1\n        /* \"--CODEGEN--\":5:7   */\n      iszero\n      tag_120\n      jumpi\n        /* \"--CODEGEN--\":30:31   */\n      0x0\n        /* \"--CODEGEN--\":27:28   */\n      dup1\n        /* \"--CODEGEN--\":20:32   */\n      revert\n        /* \"--CODEGEN--\":5:7   */\n    tag_120:\n        /* \"tests/usdt.sol\":3041:3072  uint public basisPointsRate = 0 */\n      pop\n      tag_54\n      jump(tag_122)\n        /* \"tests/usdt.sol\":8448:8494  mapping (address => bool) public isBlackListed */\n    tag_29:\n      callvalue\n        /* \"--CODEGEN--\":8:17   */\n      dup1\n        /* \"--CODEGEN--\":5:7   */\n      iszero\n      tag_123\n      jumpi\n        /* \"--CODEGEN--\":30:31   */\n      0x0\n        /* \"--CODEGEN--\":27:28   */\n      dup1\n        /* \"--CODEGEN--\":20:32   */\n      revert\n        /* \"--CODEGEN--\":5:7   */\n    tag_123:\n      pop\n        /* \"tests/usdt.sol\":8448:8494  mapping (address => bool) public isBlackListed */\n      tag_48\n      and(calldataload(0x4), sub(exp(0x2, 0xa0), 0x1))\n      jump(tag_125)\n        /* \"tests/usdt.sol\":8653:8810  function removeBlackList (address _clearedUser) public onlyOwner {... */\n    tag_30:\n      callvalue\n        /* \"--CODEGEN--\":8:17   */\n      dup1\n        /* \"--CODEGEN--\":5:7   */\n      iszero\n      tag_126\n      jumpi\n        /* \"--CODEGEN--\":30:31   */\n      0x0\n        /* \"--CODEGEN--\":27:28   */\n      dup1\n        /* \"--CODEGEN--\":20:32   */\n      revert\n        /* \"--CODEGEN--\":5:7   */\n    tag_126:\n      pop\n        /* \"tests/usdt.sol\":8653:8810  function removeBlackList (address _clearedUser) public onlyOwner {... */\n      tag_42\n      and(calldataload(0x4), sub(exp(0x2, 0xa0), 0x1))\n      jump(tag_128)\n        /* \"tests/usdt.sol\":4720:4762  uint public constant MAX_UINT = 2**256 - 1 */\n    tag_31:\n      callvalue\n        /* \"--CODEGEN--\":8:17   */\n      dup1\n        /* \"--CODEGEN--\":5:7   */\n      iszero\n      tag_129\n      jumpi\n        /* \"--CODEGEN--\":30:31   */\n      0x0\n        /* \"--CODEGEN--\":27:28   */\n      dup1\n        /* \"--CODEGEN--\":20:32   */\n      revert\n        /* \"--CODEGEN--\":5:7   */\n    tag_129:\n        /* \"tests/usdt.sol\":4720:4762  uint public constant MAX_UINT = 2**256 - 1 */\n      pop\n      tag_54\n      jump(tag_131)\n        /* \"tests/usdt.sol\":1738:1885  function transferOwnership(address newOwner) public onlyOwner {... */\n    tag_32:\n      callvalue\n        /* \"--CODEGEN--\":8:17   */\n      dup1\n        /* \"--CODEGEN--\":5:7   */\n      iszero\n      tag_132\n      jumpi\n        /* \"--CODEGEN--\":30:31   */\n      0x0\n        /* \"--CODEGEN--\":27:28   */\n      dup1\n        /* \"--CODEGEN--\":20:32   */\n      revert\n        /* \"--CODEGEN--\":5:7   */\n    tag_132:\n      pop\n        /* \"tests/usdt.sol\":1738:1885  function transferOwnership(address newOwner) public onlyOwner {... */\n      tag_42\n      and(calldataload(0x4), sub(exp(0x2, 0xa0), 0x1))\n      jump(tag_134)\n        /* \"tests/usdt.sol\":8816:9134  function destroyBlackFunds (address _blackListedUser) public onlyOwner {... */\n    tag_33:\n      callvalue\n        /* \"--CODEGEN--\":8:17   */\n      dup1\n        /* \"--CODEGEN--\":5:7   */\n      iszero\n      tag_135\n      jumpi\n        /* \"--CODEGEN--\":30:31   */\n      0x0\n        /* \"--CODEGEN--\":27:28   */\n      dup1\n        /* \"--CODEGEN--\":20:32   */\n      revert\n        /* \"--CODEGEN--\":5:7   */\n    tag_135:\n      pop\n        /* \"tests/usdt.sol\":8816:9134  function destroyBlackFunds (address _blackListedUser) public onlyOwner {... */\n      tag_42\n      and(calldataload(0x4), sub(exp(0x2, 0xa0), 0x1))\n      jump(tag_137)\n        /* \"tests/usdt.sol\":9794:9812  string public name */\n    tag_36:\n      0x7\n      dup1\n      sload\n      0x40\n      dup1\n      mload\n      0x20\n      0x2\n      0x1\n      dup6\n      and\n      iszero\n      0x100\n      mul\n      not(0x0)\n      add\n      swap1\n      swap5\n      and\n      swap4\n      swap1\n      swap4\n      div\n      0x1f\n      dup2\n      add\n      dup5\n      swap1\n      div\n      dup5\n      mul\n      dup3\n      add\n      dup5\n      add\n      swap1\n      swap3\n      mstore\n      dup2\n      dup2\n      mstore\n      swap3\n      swap2\n      dup4\n      add\n      dup3\n      dup3\n      dup1\n      iszero\n      tag_138\n      jumpi\n      dup1\n      0x1f\n      lt\n      tag_139\n      jumpi\n      0x100\n      dup1\n      dup4\n      sload\n      div\n      mul\n      dup4\n      mstore\n      swap2\n      0x20\n      add\n      swap2\n      jump(tag_138)\n    tag_139:\n      dup3\n      add\n      swap2\n      swap1\n      0x0\n      mstore\n      keccak256(0x0, 0x20)\n      swap1\n    tag_140:\n      dup2\n      sload\n      dup2\n      mstore\n      swap1\n      0x1\n      add\n      swap1\n      0x20\n      add\n      dup1\n      dup4\n      gt\n      tag_140\n      jumpi\n      dup3\n      swap1\n      sub\n      0x1f\n      and\n      dup3\n      add\n      swap2\n    tag_138:\n      pop\n      pop\n      pop\n      pop\n      pop\n      dup2\n      jump\t// out\n        /* \"tests/usdt.sol\":12480:12657  function deprecate(address _upgradedAddress) public onlyOwner {... */\n    tag_43:\n        /* \"tests/usdt.sol\":1546:1551  owner */\n      and(sub(exp(0x2, 0xa0), 0x1), sload(0x0))\n        /* \"tests/usdt.sol\":1532:1542  msg.sender */\n      caller\n        /* \"tests/usdt.sol\":1532:1551  msg.sender == owner */\n      eq\n        /* \"tests/usdt.sol\":1524:1552  require(msg.sender == owner) */\n      tag_142\n      jumpi\n      0x0\n      dup1\n      revert\n    tag_142:\n        /* \"tests/usdt.sol\":12552:12562  deprecated */\n      0xa\n        /* \"tests/usdt.sol\":12552:12569  deprecated = true */\n      dup1\n      sload\n      exp(0x2, 0xa0)\n      not(0xff0000000000000000000000000000000000000000)\n      swap1\n      swap2\n      and\n      or\n      not(0xffffffffffffffffffffffffffffffffffffffff)\n        /* \"tests/usdt.sol\":12579:12613  upgradedAddress = _upgradedAddress */\n      and\n      sub(exp(0x2, 0xa0), 0x1)\n      dup4\n      and\n      swap1\n      dup2\n      or\n      swap1\n      swap2\n      sstore\n        /* \"tests/usdt.sol\":12623:12650  Deprecate(_upgradedAddress) */\n      0x40\n      dup1\n      mload\n      swap2\n      dup3\n      mstore\n      mload\n      0xcc358699805e9a8b7f77b522628c7cb9abd07d9efb86b6fb616af1609036a99e\n      swap2\n      0x20\n      swap1\n      dup3\n      swap1\n      sub\n      add\n      swap1\n      log1\n        /* \"tests/usdt.sol\":12480:12657  function deprecate(address _upgradedAddress) public onlyOwner {... */\n      pop\n      jump\t// out\n        /* \"tests/usdt.sol\":11752:12048  function approve(address _spender, uint _value) public onlyPayloadSize(2 * 32) {... */\n    tag_46:\n        /* \"tests/usdt.sol\":11823:11829  2 * 32 */\n      0x40\n        /* \"tests/usdt.sol\":3251:3259  size + 4 */\n      0x44\n        /* \"tests/usdt.sol\":3233:3241  msg.data */\n      calldatasize\n        /* \"tests/usdt.sol\":3233:3259  msg.data.length < size + 4 */\n      lt\n        /* \"tests/usdt.sol\":3231:3260  !(msg.data.length < size + 4) */\n      iszero\n        /* \"tests/usdt.sol\":3223:3261  require(!(msg.data.length < size + 4)) */\n      tag_145\n      jumpi\n      0x0\n      dup1\n      revert\n    tag_145:\n        /* \"tests/usdt.sol\":11845:11855  deprecated */\n      sload(0xa)\n      exp(0x2, 0xa0)\n      swap1\n      div\n      0xff\n      and\n        /* \"tests/usdt.sol\":11841:12042  if (deprecated) {... */\n      iszero\n      tag_147\n      jumpi\n        /* \"tests/usdt.sol\":11900:11915  upgradedAddress */\n      sload(0xa)\n        /* \"tests/usdt.sol\":11878:11962  UpgradedStandardToken(upgradedAddress).approveByLegacy(msg.sender, _spender, _value) */\n      0x40\n      dup1\n      mload\n      0xaee92d3300000000000000000000000000000000000000000000000000000000\n      dup2\n      mstore\n        /* \"tests/usdt.sol\":11933:11943  msg.sender */\n      caller\n        /* \"tests/usdt.sol\":11878:11962  UpgradedStandardToken(upgradedAddress).approveByLegacy(msg.sender, _spender, _value) */\n      0x4\n      dup3\n      add\n      mstore\n      sub(exp(0x2, 0xa0), 0x1)\n      dup7\n      dup2\n      and\n      0x24\n      dup4\n      add\n      mstore\n      0x44\n      dup3\n      add\n      dup7\n      swap1\n      mstore\n      swap2\n      mload\n        /* \"tests/usdt.sol\":11900:11915  upgradedAddress */\n      swap2\n      swap1\n      swap3\n      and\n      swap2\n        /* \"tests/usdt.sol\":11878:11932  UpgradedStandardToken(upgradedAddress).approveByLegacy */\n      0xaee92d33\n      swap2\n        /* \"tests/usdt.sol\":11878:11962  UpgradedStandardToken(upgradedAddress).approveByLegacy(msg.sender, _spender, _value) */\n      0x64\n      dup1\n      dup4\n      add\n      swap3\n        /* \"tests/usdt.sol\":11900:11915  upgradedAddress */\n      0x0\n      swap3\n        /* \"tests/usdt.sol\":11878:11962  UpgradedStandardToken(upgradedAddress).approveByLegacy(msg.sender, _spender, _value) */\n      swap2\n      swap1\n      dup3\n      swap1\n      sub\n      add\n      dup2\n        /* \"tests/usdt.sol\":11900:11915  upgradedAddress */\n      dup4\n      dup8\n        /* \"tests/usdt.sol\":11878:11962  UpgradedStandardToken(upgradedAddress).approveByLegacy(msg.sender, _spender, _value) */\n      dup1\n      extcodesize\n      iszero\n        /* \"--CODEGEN--\":5:7   */\n      dup1\n      iszero\n      tag_148\n      jumpi\n        /* \"--CODEGEN--\":30:31   */\n      0x0\n        /* \"--CODEGEN--\":27:28   */\n      dup1\n        /* \"--CODEGEN--\":20:32   */\n      revert\n        /* \"--CODEGEN--\":5:7   */\n    tag_148:\n        /* \"tests/usdt.sol\":11878:11962  UpgradedStandardToken(upgradedAddress).approveByLegacy(msg.sender, _spender, _value) */\n      pop\n      gas\n      call\n      iszero\n        /* \"--CODEGEN--\":8:17   */\n      dup1\n        /* \"--CODEGEN--\":5:7   */\n      iszero\n      tag_149\n      jumpi\n        /* \"--CODEGEN--\":45:61   */\n      returndatasize\n        /* \"--CODEGEN--\":42:43   */\n      0x0\n        /* \"--CODEGEN--\":39:40   */\n      dup1\n        /* \"--CODEGEN--\":24:62   */\n      returndatacopy\n        /* \"--CODEGEN--\":77:93   */\n      returndatasize\n        /* \"--CODEGEN--\":74:75   */\n      0x0\n        /* \"--CODEGEN--\":67:94   */\n      revert\n        /* \"--CODEGEN--\":5:7   */\n    tag_149:\n        /* \"tests/usdt.sol\":11878:11962  UpgradedStandardToken(upgradedAddress).approveByLegacy(msg.sender, _spender, _value) */\n      pop\n      pop\n      pop\n      pop\n        /* \"tests/usdt.sol\":11871:11962  return UpgradedStandardToken(upgradedAddress).approveByLegacy(msg.sender, _spender, _value) */\n      jump(tag_151)\n        /* \"tests/usdt.sol\":11841:12042  if (deprecated) {... */\n    tag_147:\n        /* \"tests/usdt.sol\":12000:12031  super.approve(_spender, _value) */\n      tag_151\n        /* \"tests/usdt.sol\":12014:12022  _spender */\n      dup4\n        /* \"tests/usdt.sol\":12024:12030  _value */\n      dup4\n        /* \"tests/usdt.sol\":12000:12013  super.approve */\n      tag_152\n        /* \"tests/usdt.sol\":12000:12031  super.approve(_spender, _value) */\n      jump\t// in\n    tag_151:\n        /* \"tests/usdt.sol\":11752:12048  function approve(address _spender, uint _value) public onlyPayloadSize(2 * 32) {... */\n      pop\n      pop\n      pop\n      jump\t// out\n        /* \"tests/usdt.sol\":9906:9928  bool public deprecated */\n    tag_49:\n      sload(0xa)\n      exp(0x2, 0xa0)\n      swap1\n      div\n      0xff\n      and\n      dup2\n      jump\t// out\n        /* \"tests/usdt.sol\":8505:8647  function addBlackList (address _evilUser) public onlyOwner {... */\n    tag_52:\n        /* \"tests/usdt.sol\":1546:1551  owner */\n      and(sub(exp(0x2, 0xa0), 0x1), sload(0x0))\n        /* \"tests/usdt.sol\":1532:1542  msg.sender */\n      caller\n        /* \"tests/usdt.sol\":1532:1551  msg.sender == owner */\n      eq\n        /* \"tests/usdt.sol\":1524:1552  require(msg.sender == owner) */\n      tag_154\n      jumpi\n      0x0\n      dup1\n      revert\n    tag_154:\n      sub(exp(0x2, 0xa0), 0x1)\n        /* \"tests/usdt.sol\":8574:8598  isBlackListed[_evilUser] */\n      dup2\n      and\n      0x0\n      dup2\n      dup2\n      mstore\n        /* \"tests/usdt.sol\":8574:8587  isBlackListed */\n      0x6\n        /* \"tests/usdt.sol\":8574:8598  isBlackListed[_evilUser] */\n      0x20\n      swap1\n      dup2\n      mstore\n      0x40\n      swap2\n      dup3\n      swap1\n      keccak256\n        /* \"tests/usdt.sol\":8574:8605  isBlackListed[_evilUser] = true */\n      dup1\n      sload\n      not(0xff)\n      and\n        /* \"tests/usdt.sol\":8601:8605  true */\n      0x1\n        /* \"tests/usdt.sol\":8574:8605  isBlackListed[_evilUser] = true */\n      or\n      swap1\n      sstore\n        /* \"tests/usdt.sol\":8615:8640  AddedBlackList(_evilUser) */\n      dup2\n      mload\n      swap3\n      dup4\n      mstore\n      swap1\n      mload\n      0x42e160154868087d6bfdc0ca23d96a1c1cfa32f1b72ba9ba27b69b98a0d819dc\n      swap3\n      dup2\n      swap1\n      sub\n      swap1\n      swap2\n      add\n      swap1\n      log1\n        /* \"tests/usdt.sol\":8505:8647  function addBlackList (address _evilUser) public onlyOwner {... */\n      pop\n      jump\t// out\n        /* \"tests/usdt.sol\":12720:12932  function totalSupply() public constant returns (uint) {... */\n    tag_55:\n        /* \"tests/usdt.sol\":12788:12798  deprecated */\n      sload(0xa)\n        /* \"tests/usdt.sol\":12768:12772  uint */\n      0x0\n      swap1\n      exp(0x2, 0xa0)\n        /* \"tests/usdt.sol\":12788:12798  deprecated */\n      swap1\n      div\n      0xff\n      and\n        /* \"tests/usdt.sol\":12784:12926  if (deprecated) {... */\n      iszero\n      tag_157\n      jumpi\n        /* \"tests/usdt.sol\":12835:12850  upgradedAddress */\n      0xa\n      0x0\n      swap1\n      sload\n      swap1\n      0x100\n      exp\n      swap1\n      div\n      sub(exp(0x2, 0xa0), 0x1)\n      and\n      sub(exp(0x2, 0xa0), 0x1)\n        /* \"tests/usdt.sol\":12821:12863  StandardToken(upgradedAddress).totalSupply */\n      and\n      0x18160ddd\n        /* \"tests/usdt.sol\":12821:12865  StandardToken(upgradedAddress).totalSupply() */\n      mload(0x40)\n      dup2\n      0xffffffff\n      and\n      0x100000000000000000000000000000000000000000000000000000000\n      mul\n      dup2\n      mstore\n      0x4\n      add\n      0x20\n      mload(0x40)\n      dup1\n      dup4\n      sub\n      dup2\n      0x0\n      dup8\n      dup1\n      extcodesize\n      iszero\n        /* \"--CODEGEN--\":8:17   */\n      dup1\n        /* \"--CODEGEN--\":5:7   */\n      iszero\n      tag_158\n      jumpi\n        /* \"--CODEGEN--\":30:31   */\n      0x0\n        /* \"--CODEGEN--\":27:28   */\n      dup1\n        /* \"--CODEGEN--\":20:32   */\n      revert\n        /* \"--CODEGEN--\":5:7   */\n    tag_158:\n        /* \"tests/usdt.sol\":12821:12865  StandardToken(upgradedAddress).totalSupply() */\n      pop\n      gas\n      call\n      iszero\n        /* \"--CODEGEN--\":8:17   */\n      dup1\n        /* \"--CODEGEN--\":5:7   */\n      iszero\n      tag_159\n      jumpi\n        /* \"--CODEGEN--\":45:61   */\n      returndatasize\n        /* \"--CODEGEN--\":42:43   */\n      0x0\n        /* \"--CODEGEN--\":39:40   */\n      dup1\n        /* \"--CODEGEN--\":24:62   */\n      returndatacopy\n        /* \"--CODEGEN--\":77:93   */\n      returndatasize\n        /* \"--CODEGEN--\":74:75   */\n      0x0\n        /* \"--CODEGEN--\":67:94   */\n      revert\n        /* \"--CODEGEN--\":5:7   */\n    tag_159:\n        /* \"tests/usdt.sol\":12821:12865  StandardToken(upgradedAddress).totalSupply() */\n      pop\n      pop\n      pop\n      pop\n      mload(0x40)\n      returndatasize\n        /* \"--CODEGEN--\":13:15   */\n      0x20\n        /* \"--CODEGEN--\":8:11   */\n      dup2\n        /* \"--CODEGEN--\":5:16   */\n      lt\n        /* \"--CODEGEN--\":2:4   */\n      iszero\n      tag_160\n      jumpi\n        /* \"--CODEGEN--\":29:30   */\n      0x0\n        /* \"--CODEGEN--\":26:27   */\n      dup1\n        /* \"--CODEGEN--\":19:31   */\n      revert\n        /* \"--CODEGEN--\":2:4   */\n    tag_160:\n      pop\n        /* \"tests/usdt.sol\":12821:12865  StandardToken(upgradedAddress).totalSupply() */\n      mload\n      swap1\n      pop\n        /* \"tests/usdt.sol\":12814:12865  return StandardToken(upgradedAddress).totalSupply() */\n      jump(tag_161)\n        /* \"tests/usdt.sol\":12784:12926  if (deprecated) {... */\n    tag_157:\n      pop\n        /* \"tests/usdt.sol\":12903:12915  _totalSupply */\n      sload(0x1)\n        /* \"tests/usdt.sol\":12784:12926  if (deprecated) {... */\n    tag_161:\n        /* \"tests/usdt.sol\":12720:12932  function totalSupply() public constant returns (uint) {... */\n      swap1\n      jump\t// out\n        /* \"tests/usdt.sol\":10995:11350  function transferFrom(address _from, address _to, uint _value) public whenNotPaused {... */\n    tag_58:\n        /* \"tests/usdt.sol\":7553:7559  paused */\n      sload(0x0)\n      exp(0x2, 0xa0)\n      swap1\n      div\n      0xff\n      and\n        /* \"tests/usdt.sol\":7552:7559  !paused */\n      iszero\n        /* \"tests/usdt.sol\":7544:7560  require(!paused) */\n      tag_163\n      jumpi\n      0x0\n      dup1\n      revert\n    tag_163:\n      sub(exp(0x2, 0xa0), 0x1)\n        /* \"tests/usdt.sol\":11098:11118  isBlackListed[_from] */\n      dup4\n      and\n      0x0\n      swap1\n      dup2\n      mstore\n        /* \"tests/usdt.sol\":11098:11111  isBlackListed */\n      0x6\n        /* \"tests/usdt.sol\":11098:11118  isBlackListed[_from] */\n      0x20\n      mstore\n      0x40\n      swap1\n      keccak256\n      sload\n      0xff\n      and\n        /* \"tests/usdt.sol\":11097:11118  !isBlackListed[_from] */\n      iszero\n        /* \"tests/usdt.sol\":11089:11119  require(!isBlackListed[_from]) */\n      tag_165\n      jumpi\n      0x0\n      dup1\n      revert\n    tag_165:\n        /* \"tests/usdt.sol\":11133:11143  deprecated */\n      sload(0xa)\n      exp(0x2, 0xa0)\n      swap1\n      div\n      0xff\n      and\n        /* \"tests/usdt.sol\":11129:11344  if (deprecated) {... */\n      iszero\n      tag_166\n      jumpi\n        /* \"tests/usdt.sol\":11188:11203  upgradedAddress */\n      sload(0xa)\n        /* \"tests/usdt.sol\":11166:11257  UpgradedStandardToken(upgradedAddress).transferFromByLegacy(msg.sender, _from, _to, _value) */\n      0x40\n      dup1\n      mload\n      0x8b477adb00000000000000000000000000000000000000000000000000000000\n      dup2\n      mstore\n        /* \"tests/usdt.sol\":11226:11236  msg.sender */\n      caller\n        /* \"tests/usdt.sol\":11166:11257  UpgradedStandardToken(upgradedAddress).transferFromByLegacy(msg.sender, _from, _to, _value) */\n      0x4\n      dup3\n      add\n      mstore\n      sub(exp(0x2, 0xa0), 0x1)\n      dup7\n      dup2\n      and\n      0x24\n      dup4\n      add\n      mstore\n      dup6\n      dup2\n      and\n      0x44\n      dup4\n      add\n      mstore\n      0x64\n      dup3\n      add\n      dup6\n      swap1\n      mstore\n      swap2\n      mload\n        /* \"tests/usdt.sol\":11188:11203  upgradedAddress */\n      swap2\n      swap1\n      swap3\n      and\n      swap2\n        /* \"tests/usdt.sol\":11166:11225  UpgradedStandardToken(upgradedAddress).transferFromByLegacy */\n      0x8b477adb\n      swap2\n        /* \"tests/usdt.sol\":11166:11257  UpgradedStandardToken(upgradedAddress).transferFromByLegacy(msg.sender, _from, _to, _value) */\n      0x84\n      dup1\n      dup4\n      add\n      swap3\n        /* \"tests/usdt.sol\":11188:11203  upgradedAddress */\n      0x0\n      swap3\n        /* \"tests/usdt.sol\":11166:11257  UpgradedStandardToken(upgradedAddress).transferFromByLegacy(msg.sender, _from, _to, _value) */\n      swap2\n      swap1\n      dup3\n      swap1\n      sub\n      add\n      dup2\n        /* \"tests/usdt.sol\":11188:11203  upgradedAddress */\n      dup4\n      dup8\n        /* \"tests/usdt.sol\":11166:11257  UpgradedStandardToken(upgradedAddress).transferFromByLegacy(msg.sender, _from, _to, _value) */\n      dup1\n      extcodesize\n      iszero\n        /* \"--CODEGEN--\":5:7   */\n      dup1\n      iszero\n      tag_148\n      jumpi\n        /* \"--CODEGEN--\":30:31   */\n      0x0\n        /* \"--CODEGEN--\":27:28   */\n      dup1\n        /* \"--CODEGEN--\":20:32   */\n      revert\n        /* \"tests/usdt.sol\":11129:11344  if (deprecated) {... */\n    tag_166:\n        /* \"tests/usdt.sol\":11295:11333  super.transferFrom(_from, _to, _value) */\n      tag_151\n        /* \"tests/usdt.sol\":11314:11319  _from */\n      dup4\n        /* \"tests/usdt.sol\":11321:11324  _to */\n      dup4\n        /* \"tests/usdt.sol\":11326:11332  _value */\n      dup4\n        /* \"tests/usdt.sol\":11295:11313  super.transferFrom */\n      tag_171\n        /* \"tests/usdt.sol\":11295:11333  super.transferFrom(_from, _to, _value) */\n      jump\t// in\n        /* \"tests/usdt.sol\":9870:9900  address public upgradedAddress */\n    tag_61:\n      and(sub(exp(0x2, 0xa0), 0x1), sload(0xa))\n      dup2\n      jump\t// out\n        /* \"tests/usdt.sol\":2916:2956  mapping(address => uint) public balances */\n    tag_64:\n      mstore(0x20, 0x2)\n      0x0\n      swap1\n      dup2\n      mstore\n      0x40\n      swap1\n      keccak256\n      sload\n      dup2\n      jump\t// out\n        /* \"tests/usdt.sol\":9844:9864  uint public decimals */\n    tag_67:\n      sload(0x9)\n      dup2\n      jump\t// out\n        /* \"tests/usdt.sol\":3078:3104  uint public maximumFee = 0 */\n    tag_70:\n      sload(0x4)\n      dup2\n      jump\t// out\n        /* \"tests/usdt.sol\":2043:2067  uint public _totalSupply */\n    tag_73:\n      sload(0x1)\n      dup2\n      jump\t// out\n        /* \"tests/usdt.sol\":7970:8057  function unpause() onlyOwner whenPaused public {... */\n    tag_76:\n        /* \"tests/usdt.sol\":1546:1551  owner */\n      and(sub(exp(0x2, 0xa0), 0x1), sload(0x0))\n        /* \"tests/usdt.sol\":1532:1542  msg.sender */\n      caller\n        /* \"tests/usdt.sol\":1532:1551  msg.sender == owner */\n      eq\n        /* \"tests/usdt.sol\":1524:1552  require(msg.sender == owner) */\n      tag_173\n      jumpi\n      0x0\n      dup1\n      revert\n    tag_173:\n        /* \"tests/usdt.sol\":7705:7711  paused */\n      sload(0x0)\n      exp(0x2, 0xa0)\n      swap1\n      div\n      0xff\n      and\n        /* \"tests/usdt.sol\":7697:7712  require(paused) */\n      iszero\n      iszero\n      tag_175\n      jumpi\n      0x0\n      dup1\n      revert\n    tag_175:\n        /* \"tests/usdt.sol\":8032:8037  false */\n      0x0\n        /* \"tests/usdt.sol\":8023:8037  paused = false */\n      dup1\n      sload\n      not(0xff0000000000000000000000000000000000000000)\n      and\n      dup2\n      sstore\n        /* \"tests/usdt.sol\":8043:8052  Unpause() */\n      mload(0x40)\n      0x7805862f689e2f13df9f062ff482ad3ad112aca9e0847911ed832e158c525b33\n      swap2\n        /* \"tests/usdt.sol\":8032:8037  false */\n      swap1\n        /* \"tests/usdt.sol\":8043:8052  Unpause() */\n      log1\n        /* \"tests/usdt.sol\":7970:8057  function unpause() onlyOwner whenPaused public {... */\n      jump\t// out\n        /* \"tests/usdt.sol\":8229:8351  function getBlackListStatus(address _maker) external constant returns (bool) {... */\n    tag_79:\n      sub(exp(0x2, 0xa0), 0x1)\n        /* \"tests/usdt.sol\":8323:8344  isBlackListed[_maker] */\n      dup2\n      and\n        /* \"tests/usdt.sol\":8300:8304  bool */\n      0x0\n        /* \"tests/usdt.sol\":8323:8344  isBlackListed[_maker] */\n      swap1\n      dup2\n      mstore\n        /* \"tests/usdt.sol\":8323:8336  isBlackListed */\n      0x6\n        /* \"tests/usdt.sol\":8323:8344  isBlackListed[_maker] */\n      0x20\n      mstore\n      0x40\n      swap1\n      keccak256\n      sload\n      0xff\n      and\n        /* \"tests/usdt.sol\":8229:8351  function getBlackListStatus(address _maker) external constant returns (bool) {... */\n    tag_177:\n      swap2\n      swap1\n      pop\n      jump\t// out\n        /* \"tests/usdt.sol\":4652:4713  mapping (address => mapping (address => uint)) public allowed */\n    tag_82:\n      0x5\n      0x20\n      swap1\n      dup2\n      mstore\n      0x0\n      swap3\n      dup4\n      mstore\n      0x40\n      dup1\n      dup5\n      keccak256\n      swap1\n      swap2\n      mstore\n      swap1\n      dup3\n      mstore\n      swap1\n      keccak256\n      sload\n      dup2\n      jump\t// out\n        /* \"tests/usdt.sol\":7384:7410  bool public paused = false */\n    tag_85:\n      sload(0x0)\n      exp(0x2, 0xa0)\n      swap1\n      div\n      0xff\n      and\n      dup2\n      jump\t// out\n        /* \"tests/usdt.sol\":11432:11670  function balanceOf(address who) public constant returns (uint) {... */\n    tag_88:\n        /* \"tests/usdt.sol\":11509:11519  deprecated */\n      sload(0xa)\n        /* \"tests/usdt.sol\":11489:11493  uint */\n      0x0\n      swap1\n      exp(0x2, 0xa0)\n        /* \"tests/usdt.sol\":11509:11519  deprecated */\n      swap1\n      div\n      0xff\n      and\n        /* \"tests/usdt.sol\":11505:11664  if (deprecated) {... */\n      iszero\n      tag_179\n      jumpi\n        /* \"tests/usdt.sol\":11564:11579  upgradedAddress */\n      sload(0xa)\n        /* \"tests/usdt.sol\":11542:11595  UpgradedStandardToken(upgradedAddress).balanceOf(who) */\n      0x40\n      dup1\n      mload\n      0x70a0823100000000000000000000000000000000000000000000000000000000\n      dup2\n      mstore\n      sub(exp(0x2, 0xa0), 0x1)\n      dup6\n      dup2\n      and\n      0x4\n      dup4\n      add\n      mstore\n      swap2\n      mload\n        /* \"tests/usdt.sol\":11564:11579  upgradedAddress */\n      swap2\n      swap1\n      swap3\n      and\n      swap2\n        /* \"tests/usdt.sol\":11542:11590  UpgradedStandardToken(upgradedAddress).balanceOf */\n      0x70a08231\n      swap2\n        /* \"tests/usdt.sol\":11542:11595  UpgradedStandardToken(upgradedAddress).balanceOf(who) */\n      0x24\n      dup1\n      dup4\n      add\n      swap3\n      0x20\n      swap3\n      swap2\n      swap1\n      dup3\n      swap1\n      sub\n      add\n      dup2\n        /* \"tests/usdt.sol\":11564:11579  upgradedAddress */\n      0x0\n      dup8\n        /* \"tests/usdt.sol\":11542:11595  UpgradedStandardToken(upgradedAddress).balanceOf(who) */\n      dup1\n      extcodesize\n      iszero\n        /* \"--CODEGEN--\":5:7   */\n      dup1\n      iszero\n      tag_180\n      jumpi\n        /* \"--CODEGEN--\":30:31   */\n      0x0\n        /* \"--CODEGEN--\":27:28   */\n      dup1\n        /* \"--CODEGEN--\":20:32   */\n      revert\n        /* \"--CODEGEN--\":5:7   */\n    tag_180:\n        /* \"tests/usdt.sol\":11542:11595  UpgradedStandardToken(upgradedAddress).balanceOf(who) */\n      pop\n      gas\n      call\n      iszero\n        /* \"--CODEGEN--\":8:17   */\n      dup1\n        /* \"--CODEGEN--\":5:7   */\n      iszero\n      tag_181\n      jumpi\n        /* \"--CODEGEN--\":45:61   */\n      returndatasize\n        /* \"--CODEGEN--\":42:43   */\n      0x0\n        /* \"--CODEGEN--\":39:40   */\n      dup1\n        /* \"--CODEGEN--\":24:62   */\n      returndatacopy\n        /* \"--CODEGEN--\":77:93   */\n      returndatasize\n        /* \"--CODEGEN--\":74:75   */\n      0x0\n        /* \"--CODEGEN--\":67:94   */\n      revert\n        /* \"--CODEGEN--\":5:7   */\n    tag_181:\n        /* \"tests/usdt.sol\":11542:11595  UpgradedStandardToken(upgradedAddress).balanceOf(who) */\n      pop\n      pop\n      pop\n      pop\n      mload(0x40)\n      returndatasize\n        /* \"--CODEGEN--\":13:15   */\n      0x20\n        /* \"--CODEGEN--\":8:11   */\n      dup2\n        /* \"--CODEGEN--\":5:16   */\n      lt\n        /* \"--CODEGEN--\":2:4   */\n      iszero\n      tag_182\n      jumpi\n        /* \"--CODEGEN--\":29:30   */\n      0x0\n        /* \"--CODEGEN--\":26:27   */\n      dup1\n        /* \"--CODEGEN--\":19:31   */\n      revert\n        /* \"--CODEGEN--\":2:4   */\n    tag_182:\n      pop\n        /* \"tests/usdt.sol\":11542:11595  UpgradedStandardToken(upgradedAddress).balanceOf(who) */\n      mload\n      swap1\n      pop\n        /* \"tests/usdt.sol\":11535:11595  return UpgradedStandardToken(upgradedAddress).balanceOf(who) */\n      jump(tag_177)\n        /* \"tests/usdt.sol\":11505:11664  if (deprecated) {... */\n    tag_179:\n        /* \"tests/usdt.sol\":11633:11653  super.balanceOf(who) */\n      tag_184\n        /* \"tests/usdt.sol\":11649:11652  who */\n      dup3\n        /* \"tests/usdt.sol\":11633:11648  super.balanceOf */\n      tag_185\n        /* \"tests/usdt.sol\":11633:11653  super.balanceOf(who) */\n      jump\t// in\n    tag_184:\n        /* \"tests/usdt.sol\":11626:11653  return super.balanceOf(who) */\n      swap1\n      pop\n      jump(tag_177)\n        /* \"tests/usdt.sol\":7803:7888  function pause() onlyOwner whenNotPaused public {... */\n    tag_91:\n        /* \"tests/usdt.sol\":1546:1551  owner */\n      and(sub(exp(0x2, 0xa0), 0x1), sload(0x0))\n        /* \"tests/usdt.sol\":1532:1542  msg.sender */\n      caller\n        /* \"tests/usdt.sol\":1532:1551  msg.sender == owner */\n      eq\n        /* \"tests/usdt.sol\":1524:1552  require(msg.sender == owner) */\n      tag_187\n      jumpi\n      0x0\n      dup1\n      revert\n    tag_187:\n        /* \"tests/usdt.sol\":7553:7559  paused */\n      sload(0x0)\n      exp(0x2, 0xa0)\n      swap1\n      div\n      0xff\n      and\n        /* \"tests/usdt.sol\":7552:7559  !paused */\n      iszero\n        /* \"tests/usdt.sol\":7544:7560  require(!paused) */\n      tag_189\n      jumpi\n      0x0\n      dup1\n      revert\n    tag_189:\n        /* \"tests/usdt.sol\":7857:7863  paused */\n      0x0\n        /* \"tests/usdt.sol\":7857:7870  paused = true */\n      dup1\n      sload\n      not(0xff0000000000000000000000000000000000000000)\n      and\n      exp(0x2, 0xa0)\n      or\n      dup2\n      sstore\n        /* \"tests/usdt.sol\":7876:7883  Pause() */\n      mload(0x40)\n      0x6985a02210a168e66602d3235cb6db0e70f92b3ba4d376a33c0f3d9434bff625\n      swap2\n        /* \"tests/usdt.sol\":7857:7863  paused */\n      swap1\n        /* \"tests/usdt.sol\":7876:7883  Pause() */\n      log1\n        /* \"tests/usdt.sol\":7803:7888  function pause() onlyOwner whenNotPaused public {... */\n      jump\t// out\n        /* \"tests/usdt.sol\":8357:8442  function getOwner() external constant returns (address) {... */\n    tag_94:\n        /* \"tests/usdt.sol\":8404:8411  address */\n      0x0\n        /* \"tests/usdt.sol\":8430:8435  owner */\n      sload\n      sub(exp(0x2, 0xa0), 0x1)\n      and\n        /* \"tests/usdt.sol\":8357:8442  function getOwner() external constant returns (address) {... */\n      swap1\n      jump\t// out\n        /* \"tests/usdt.sol\":1188:1208  address public owner */\n    tag_97:\n      and(sub(exp(0x2, 0xa0), 0x1), sload(0x0))\n      dup2\n      jump\t// out\n        /* \"tests/usdt.sol\":9818:9838  string public symbol */\n    tag_100:\n      0x8\n      dup1\n      sload\n      0x40\n      dup1\n      mload\n      0x20\n      0x2\n      0x1\n      dup6\n      and\n      iszero\n      0x100\n      mul\n      not(0x0)\n      add\n      swap1\n      swap5\n      and\n      swap4\n      swap1\n      swap4\n      div\n      0x1f\n      dup2\n      add\n      dup5\n      swap1\n      div\n      dup5\n      mul\n      dup3\n      add\n      dup5\n      add\n      swap1\n      swap3\n      mstore\n      dup2\n      dup2\n      mstore\n      swap3\n      swap2\n      dup4\n      add\n      dup3\n      dup3\n      dup1\n      iszero\n      tag_138\n      jumpi\n      dup1\n      0x1f\n      lt\n      tag_139\n      jumpi\n      0x100\n      dup1\n      dup4\n      sload\n      div\n      mul\n      dup4\n      mstore\n      swap2\n      0x20\n      add\n      swap2\n      jump(tag_138)\n        /* \"tests/usdt.sol\":10594:10913  function transfer(address _to, uint _value) public whenNotPaused {... */\n    tag_107:\n        /* \"tests/usdt.sol\":7553:7559  paused */\n      sload(0x0)\n      exp(0x2, 0xa0)\n      swap1\n      div\n      0xff\n      and\n        /* \"tests/usdt.sol\":7552:7559  !paused */\n      iszero\n        /* \"tests/usdt.sol\":7544:7560  require(!paused) */\n      tag_196\n      jumpi\n      0x0\n      dup1\n      revert\n    tag_196:\n        /* \"tests/usdt.sol\":10692:10702  msg.sender */\n      caller\n        /* \"tests/usdt.sol\":10678:10703  isBlackListed[msg.sender] */\n      0x0\n      swap1\n      dup2\n      mstore\n        /* \"tests/usdt.sol\":10678:10691  isBlackListed */\n      0x6\n        /* \"tests/usdt.sol\":10678:10703  isBlackListed[msg.sender] */\n      0x20\n      mstore\n      0x40\n      swap1\n      keccak256\n      sload\n      0xff\n      and\n        /* \"tests/usdt.sol\":10677:10703  !isBlackListed[msg.sender] */\n      iszero\n        /* \"tests/usdt.sol\":10669:10704  require(!isBlackListed[msg.sender]) */\n      tag_198\n      jumpi\n      0x0\n      dup1\n      revert\n    tag_198:\n        /* \"tests/usdt.sol\":10718:10728  deprecated */\n      sload(0xa)\n      exp(0x2, 0xa0)\n      swap1\n      div\n      0xff\n      and\n        /* \"tests/usdt.sol\":10714:10907  if (deprecated) {... */\n      iszero\n      tag_199\n      jumpi\n        /* \"tests/usdt.sol\":10773:10788  upgradedAddress */\n      sload(0xa)\n        /* \"tests/usdt.sol\":10751:10831  UpgradedStandardToken(upgradedAddress).transferByLegacy(msg.sender, _to, _value) */\n      0x40\n      dup1\n      mload\n      0x6e18980a00000000000000000000000000000000000000000000000000000000\n      dup2\n      mstore\n        /* \"tests/usdt.sol\":10807:10817  msg.sender */\n      caller\n        /* \"tests/usdt.sol\":10751:10831  UpgradedStandardToken(upgradedAddress).transferByLegacy(msg.sender, _to, _value) */\n      0x4\n      dup3\n      add\n      mstore\n      sub(exp(0x2, 0xa0), 0x1)\n      dup6\n      dup2\n      and\n      0x24\n      dup4\n      add\n      mstore\n      0x44\n      dup3\n      add\n      dup6\n      swap1\n      mstore\n      swap2\n      mload\n        /* \"tests/usdt.sol\":10773:10788  upgradedAddress */\n      swap2\n      swap1\n      swap3\n      and\n      swap2\n        /* \"tests/usdt.sol\":10751:10806  UpgradedStandardToken(upgradedAddress).transferByLegacy */\n      0x6e18980a\n      swap2\n        /* \"tests/usdt.sol\":10751:10831  UpgradedStandardToken(upgradedAddress).transferByLegacy(msg.sender, _to, _value) */\n      0x64\n      dup1\n      dup4\n      add\n      swap3\n        /* \"tests/usdt.sol\":10773:10788  upgradedAddress */\n      0x0\n      swap3\n        /* \"tests/usdt.sol\":10751:10831  UpgradedStandardToken(upgradedAddress).transferByLegacy(msg.sender, _to, _value) */\n      swap2\n      swap1\n      dup3\n      swap1\n      sub\n      add\n      dup2\n        /* \"tests/usdt.sol\":10773:10788  upgradedAddress */\n      dup4\n      dup8\n        /* \"tests/usdt.sol\":10751:10831  UpgradedStandardToken(upgradedAddress).transferByLegacy(msg.sender, _to, _value) */\n      dup1\n      extcodesize\n      iszero\n        /* \"--CODEGEN--\":5:7   */\n      dup1\n      iszero\n      tag_200\n      jumpi\n        /* \"--CODEGEN--\":30:31   */\n      0x0\n        /* \"--CODEGEN--\":27:28   */\n      dup1\n        /* \"--CODEGEN--\":20:32   */\n      revert\n        /* \"--CODEGEN--\":5:7   */\n    tag_200:\n        /* \"tests/usdt.sol\":10751:10831  UpgradedStandardToken(upgradedAddress).transferByLegacy(msg.sender, _to, _value) */\n      pop\n      gas\n      call\n      iszero\n        /* \"--CODEGEN--\":8:17   */\n      dup1\n        /* \"--CODEGEN--\":5:7   */\n      iszero\n      tag_201\n      jumpi\n        /* \"--CODEGEN--\":45:61   */\n      returndatasize\n        /* \"--CODEGEN--\":42:43   */\n      0x0\n        /* \"--CODEGEN--\":39:40   */\n      dup1\n        /* \"--CODEGEN--\":24:62   */\n      returndatacopy\n        /* \"--CODEGEN--\":77:93   */\n      returndatasize\n        /* \"--CODEGEN--\":74:75   */\n      0x0\n        /* \"--CODEGEN--\":67:94   */\n      revert\n        /* \"--CODEGEN--\":5:7   */\n    tag_201:\n        /* \"tests/usdt.sol\":10751:10831  UpgradedStandardToken(upgradedAddress).transferByLegacy(msg.sender, _to, _value) */\n      pop\n      pop\n      pop\n      pop\n        /* \"tests/usdt.sol\":10744:10831  return UpgradedStandardToken(upgradedAddress).transferByLegacy(msg.sender, _to, _value) */\n      jump(tag_203)\n        /* \"tests/usdt.sol\":10714:10907  if (deprecated) {... */\n    tag_199:\n        /* \"tests/usdt.sol\":10869:10896  super.transfer(_to, _value) */\n      tag_203\n        /* \"tests/usdt.sol\":10884:10887  _to */\n      dup3\n        /* \"tests/usdt.sol\":10889:10895  _value */\n      dup3\n        /* \"tests/usdt.sol\":10869:10883  super.transfer */\n      tag_204\n        /* \"tests/usdt.sol\":10869:10896  super.transfer(_to, _value) */\n      jump\t// in\n    tag_203:\n        /* \"tests/usdt.sol\":10594:10913  function transfer(address _to, uint _value) public whenNotPaused {... */\n      pop\n      pop\n      jump\t// out\n        /* \"tests/usdt.sol\":13809:14187  function setParams(uint newBasisPoints, uint newMaxFee) public onlyOwner {... */\n    tag_110:\n        /* \"tests/usdt.sol\":1546:1551  owner */\n      and(sub(exp(0x2, 0xa0), 0x1), sload(0x0))\n        /* \"tests/usdt.sol\":1532:1542  msg.sender */\n      caller\n        /* \"tests/usdt.sol\":1532:1551  msg.sender == owner */\n      eq\n        /* \"tests/usdt.sol\":1524:1552  require(msg.sender == owner) */\n      tag_206\n      jumpi\n      0x0\n      dup1\n      revert\n    tag_206:\n        /* \"tests/usdt.sol\":14005:14007  20 */\n      0x14\n        /* \"tests/usdt.sol\":13988:14007  newBasisPoints < 20 */\n      dup3\n      lt\n        /* \"tests/usdt.sol\":13980:14008  require(newBasisPoints < 20) */\n      tag_208\n      jumpi\n      0x0\n      dup1\n      revert\n    tag_208:\n        /* \"tests/usdt.sol\":14038:14040  50 */\n      0x32\n        /* \"tests/usdt.sol\":14026:14040  newMaxFee < 50 */\n      dup2\n      lt\n        /* \"tests/usdt.sol\":14018:14041  require(newMaxFee < 50) */\n      tag_209\n      jumpi\n      0x0\n      dup1\n      revert\n    tag_209:\n        /* \"tests/usdt.sol\":14052:14067  basisPointsRate */\n      0x3\n        /* \"tests/usdt.sol\":14052:14084  basisPointsRate = newBasisPoints */\n      dup3\n      swap1\n      sstore\n        /* \"tests/usdt.sol\":14125:14133  decimals */\n      sload(0x9)\n        /* \"tests/usdt.sol\":14107:14134  newMaxFee.mul(10**decimals) */\n      tag_210\n      swap1\n        /* \"tests/usdt.sol\":14107:14116  newMaxFee */\n      dup3\n      swap1\n        /* \"tests/usdt.sol\":14121:14123  10 */\n      0xa\n        /* \"tests/usdt.sol\":14121:14133  10**decimals */\n      exp\n        /* \"tests/usdt.sol\":14107:14134  newMaxFee.mul(10**decimals) */\n      0xffffffff\n        /* \"tests/usdt.sol\":14107:14120  newMaxFee.mul */\n      tag_211\n        /* \"tests/usdt.sol\":14107:14134  newMaxFee.mul(10**decimals) */\n      and\n      jump\t// in\n    tag_210:\n        /* \"tests/usdt.sol\":14094:14104  maximumFee */\n      0x4\n        /* \"tests/usdt.sol\":14094:14134  maximumFee = newMaxFee.mul(10**decimals) */\n      dup2\n      swap1\n      sstore\n        /* \"tests/usdt.sol\":14152:14167  basisPointsRate */\n      sload(0x3)\n        /* \"tests/usdt.sol\":14145:14180  Params(basisPointsRate, maximumFee) */\n      0x40\n      dup1\n      mload\n      swap2\n      dup3\n      mstore\n      0x20\n      dup3\n      add\n      swap3\n      swap1\n      swap3\n      mstore\n      dup2\n      mload\n      0xb044a1e409eac5c48e5af22d4af52670dd1a99059537a78b31b48c6500a6354e\n      swap3\n      swap2\n      dup2\n      swap1\n      sub\n      swap1\n      swap2\n      add\n      swap1\n      log1\n        /* \"tests/usdt.sol\":13809:14187  function setParams(uint newBasisPoints, uint newMaxFee) public onlyOwner {... */\n      pop\n      pop\n      jump\t// out\n        /* \"tests/usdt.sol\":13090:13349  function issue(uint amount) public onlyOwner {... */\n    tag_113:\n        /* \"tests/usdt.sol\":1546:1551  owner */\n      and(sub(exp(0x2, 0xa0), 0x1), sload(0x0))\n        /* \"tests/usdt.sol\":1532:1542  msg.sender */\n      caller\n        /* \"tests/usdt.sol\":1532:1551  msg.sender == owner */\n      eq\n        /* \"tests/usdt.sol\":1524:1552  require(msg.sender == owner) */\n      tag_213\n      jumpi\n      0x0\n      dup1\n      revert\n    tag_213:\n        /* \"tests/usdt.sol\":13177:13189  _totalSupply */\n      sload(0x1)\n        /* \"tests/usdt.sol\":13153:13174  _totalSupply + amount */\n      dup2\n      dup2\n      add\n        /* \"tests/usdt.sol\":13153:13189  _totalSupply + amount > _totalSupply */\n      gt\n        /* \"tests/usdt.sol\":13145:13190  require(_totalSupply + amount > _totalSupply) */\n      tag_215\n      jumpi\n      0x0\n      dup1\n      revert\n    tag_215:\n        /* \"tests/usdt.sol\":13235:13250  balances[owner] */\n      0x0\n        /* \"tests/usdt.sol\":13244:13249  owner */\n      dup1\n      sload\n      sub(exp(0x2, 0xa0), 0x1)\n      and\n        /* \"tests/usdt.sol\":13235:13250  balances[owner] */\n      dup2\n      mstore\n        /* \"tests/usdt.sol\":13235:13243  balances */\n      0x2\n        /* \"tests/usdt.sol\":13235:13250  balances[owner] */\n      0x20\n      mstore\n      0x40\n      swap1\n      keccak256\n      sload\n        /* \"tests/usdt.sol\":13208:13232  balances[owner] + amount */\n      dup2\n      dup2\n      add\n        /* \"tests/usdt.sol\":13208:13250  balances[owner] + amount > balances[owner] */\n      gt\n        /* \"tests/usdt.sol\":13200:13251  require(balances[owner] + amount > balances[owner]) */\n      tag_216\n      jumpi\n      0x0\n      dup1\n      revert\n    tag_216:\n        /* \"tests/usdt.sol\":13262:13277  balances[owner] */\n      0x0\n        /* \"tests/usdt.sol\":13271:13276  owner */\n      dup1\n      sload\n      sub(exp(0x2, 0xa0), 0x1)\n      and\n        /* \"tests/usdt.sol\":13262:13277  balances[owner] */\n      dup2\n      mstore\n        /* \"tests/usdt.sol\":13262:13270  balances */\n      0x2\n        /* \"tests/usdt.sol\":13262:13277  balances[owner] */\n      0x20\n      swap1\n      dup2\n      mstore\n      0x40\n      swap2\n      dup3\n      swap1\n      keccak256\n        /* \"tests/usdt.sol\":13262:13287  balances[owner] += amount */\n      dup1\n      sload\n      dup5\n      add\n      swap1\n      sstore\n        /* \"tests/usdt.sol\":13271:13276  owner */\n      0x1\n        /* \"tests/usdt.sol\":13297:13319  _totalSupply += amount */\n      dup1\n      sload\n      dup5\n      add\n      swap1\n      sstore\n        /* \"tests/usdt.sol\":13329:13342  Issue(amount) */\n      dup2\n      mload\n      dup4\n      dup2\n      mstore\n      swap2\n      mload\n      0xcb8241adb0c3fdb35b70c24ce35c5eb0c17af7431c99f827d44a445ca624176a\n      swap3\n      dup2\n      swap1\n      sub\n      swap1\n      swap2\n      add\n      swap1\n      log1\n        /* \"tests/usdt.sol\":13090:13349  function issue(uint amount) public onlyOwner {... */\n      pop\n      jump\t// out\n        /* \"tests/usdt.sol\":13573:13803  function redeem(uint amount) public onlyOwner {... */\n    tag_116:\n        /* \"tests/usdt.sol\":1546:1551  owner */\n      and(sub(exp(0x2, 0xa0), 0x1), sload(0x0))\n        /* \"tests/usdt.sol\":1532:1542  msg.sender */\n      caller\n        /* \"tests/usdt.sol\":1532:1551  msg.sender == owner */\n      eq\n        /* \"tests/usdt.sol\":1524:1552  require(msg.sender == owner) */\n      tag_218\n      jumpi\n      0x0\n      dup1\n      revert\n    tag_218:\n        /* \"tests/usdt.sol\":13637:13649  _totalSupply */\n      sload(0x1)\n        /* \"tests/usdt.sol\":13637:13659  _totalSupply >= amount */\n      dup2\n      gt\n      iszero\n        /* \"tests/usdt.sol\":13629:13660  require(_totalSupply >= amount) */\n      tag_220\n      jumpi\n      0x0\n      dup1\n      revert\n    tag_220:\n        /* \"tests/usdt.sol\":13678:13693  balances[owner] */\n      0x0\n        /* \"tests/usdt.sol\":13687:13692  owner */\n      dup1\n      sload\n      sub(exp(0x2, 0xa0), 0x1)\n      and\n        /* \"tests/usdt.sol\":13678:13693  balances[owner] */\n      dup2\n      mstore\n        /* \"tests/usdt.sol\":13678:13686  balances */\n      0x2\n        /* \"tests/usdt.sol\":13678:13693  balances[owner] */\n      0x20\n      mstore\n      0x40\n      swap1\n      keccak256\n      sload\n        /* \"tests/usdt.sol\":13678:13703  balances[owner] >= amount */\n      dup2\n      gt\n      iszero\n        /* \"tests/usdt.sol\":13670:13704  require(balances[owner] >= amount) */\n      tag_221\n      jumpi\n      0x0\n      dup1\n      revert\n    tag_221:\n        /* \"tests/usdt.sol\":13715:13727  _totalSupply */\n      0x1\n        /* \"tests/usdt.sol\":13715:13737  _totalSupply -= amount */\n      dup1\n      sload\n      dup3\n      swap1\n      sub\n      swap1\n      sstore\n        /* \"tests/usdt.sol\":13715:13727  _totalSupply */\n      0x0\n        /* \"tests/usdt.sol\":13756:13761  owner */\n      dup1\n      sload\n      sub(exp(0x2, 0xa0), 0x1)\n      and\n        /* \"tests/usdt.sol\":13747:13762  balances[owner] */\n      dup2\n      mstore\n        /* \"tests/usdt.sol\":13747:13755  balances */\n      0x2\n        /* \"tests/usdt.sol\":13747:13762  balances[owner] */\n      0x20\n      swap1\n      dup2\n      mstore\n      0x40\n      swap2\n      dup3\n      swap1\n      keccak256\n        /* \"tests/usdt.sol\":13747:13772  balances[owner] -= amount */\n      dup1\n      sload\n      dup5\n      swap1\n      sub\n      swap1\n      sstore\n        /* \"tests/usdt.sol\":13782:13796  Redeem(amount) */\n      dup2\n      mload\n      dup4\n      dup2\n      mstore\n      swap2\n      mload\n      0x702d5967f45f6513a38ffc42d6ba9bf230bd40e8f53b16363c7eb4fd2deb9a44\n      swap3\n      dup2\n      swap1\n      sub\n      swap1\n      swap2\n      add\n      swap1\n      log1\n        /* \"tests/usdt.sol\":13573:13803  function redeem(uint amount) public onlyOwner {... */\n      pop\n      jump\t// out\n        /* \"tests/usdt.sol\":12130:12417  function allowance(address _owner, address _spender) public constant returns (uint remaining) {... */\n    tag_119:\n        /* \"tests/usdt.sol\":12238:12248  deprecated */\n      sload(0xa)\n        /* \"tests/usdt.sol\":12208:12222  uint remaining */\n      0x0\n      swap1\n      exp(0x2, 0xa0)\n        /* \"tests/usdt.sol\":12238:12248  deprecated */\n      swap1\n      div\n      0xff\n      and\n        /* \"tests/usdt.sol\":12234:12411  if (deprecated) {... */\n      iszero\n      tag_223\n      jumpi\n        /* \"tests/usdt.sol\":12285:12300  upgradedAddress */\n      sload(0xa)\n        /* \"tests/usdt.sol\":12271:12329  StandardToken(upgradedAddress).allowance(_owner, _spender) */\n      0x40\n      dup1\n      mload\n      0xdd62ed3e00000000000000000000000000000000000000000000000000000000\n      dup2\n      mstore\n      sub(exp(0x2, 0xa0), 0x1)\n      dup7\n      dup2\n      and\n      0x4\n      dup4\n      add\n      mstore\n      dup6\n      dup2\n      and\n      0x24\n      dup4\n      add\n      mstore\n      swap2\n      mload\n        /* \"tests/usdt.sol\":12285:12300  upgradedAddress */\n      swap2\n      swap1\n      swap3\n      and\n      swap2\n        /* \"tests/usdt.sol\":12271:12311  StandardToken(upgradedAddress).allowance */\n      0xdd62ed3e\n      swap2\n        /* \"tests/usdt.sol\":12271:12329  StandardToken(upgradedAddress).allowance(_owner, _spender) */\n      0x44\n      dup1\n      dup4\n      add\n      swap3\n      0x20\n      swap3\n      swap2\n      swap1\n      dup3\n      swap1\n      sub\n      add\n      dup2\n        /* \"tests/usdt.sol\":12285:12300  upgradedAddress */\n      0x0\n      dup8\n        /* \"tests/usdt.sol\":12271:12329  StandardToken(upgradedAddress).allowance(_owner, _spender) */\n      dup1\n      extcodesize\n      iszero\n        /* \"--CODEGEN--\":5:7   */\n      dup1\n      iszero\n      tag_224\n      jumpi\n        /* \"--CODEGEN--\":30:31   */\n      0x0\n        /* \"--CODEGEN--\":27:28   */\n      dup1\n        /* \"--CODEGEN--\":20:32   */\n      revert\n        /* \"--CODEGEN--\":5:7   */\n    tag_224:\n        /* \"tests/usdt.sol\":12271:12329  StandardToken(upgradedAddress).allowance(_owner, _spender) */\n      pop\n      gas\n      call\n      iszero\n        /* \"--CODEGEN--\":8:17   */\n      dup1\n        /* \"--CODEGEN--\":5:7   */\n      iszero\n      tag_225\n      jumpi\n        /* \"--CODEGEN--\":45:61   */\n      returndatasize\n        /* \"--CODEGEN--\":42:43   */\n      0x0\n        /* \"--CODEGEN--\":39:40   */\n      dup1\n        /* \"--CODEGEN--\":24:62   */\n      returndatacopy\n        /* \"--CODEGEN--\":77:93   */\n      returndatasize\n        /* \"--CODEGEN--\":74:75   */\n      0x0\n        /* \"--CODEGEN--\":67:94   */\n      revert\n        /* \"--CODEGEN--\":5:7   */\n    tag_225:\n        /* \"tests/usdt.sol\":12271:12329  StandardToken(upgradedAddress).allowance(_owner, _spender) */\n      pop\n      pop\n      pop\n      pop\n      mload(0x40)\n      returndatasize\n        /* \"--CODEGEN--\":13:15   */\n      0x20\n        /* \"--CODEGEN--\":8:11   */\n      dup2\n        /* \"--CODEGEN--\":5:16   */\n      lt\n        /* \"--CODEGEN--\":2:4   */\n      iszero\n      tag_226\n      jumpi\n        /* \"--CODEGEN--\":29:30   */\n      0x0\n        /* \"--CODEGEN--\":26:27   */\n      dup1\n        /* \"--CODEGEN--\":19:31   */\n      revert\n        /* \"--CODEGEN--\":2:4   */\n    tag_226:\n      pop\n        /* \"tests/usdt.sol\":12271:12329  StandardToken(upgradedAddress).allowance(_owner, _spender) */\n      mload\n      swap1\n      pop\n        /* \"tests/usdt.sol\":12264:12329  return StandardToken(upgradedAddress).allowance(_owner, _spender) */\n      jump(tag_227)\n        /* \"tests/usdt.sol\":12234:12411  if (deprecated) {... */\n    tag_223:\n        /* \"tests/usdt.sol\":12367:12400  super.allowance(_owner, _spender) */\n      tag_228\n        /* \"tests/usdt.sol\":12383:12389  _owner */\n      dup4\n        /* \"tests/usdt.sol\":12391:12399  _spender */\n      dup4\n        /* \"tests/usdt.sol\":12367:12382  super.allowance */\n      tag_229\n        /* \"tests/usdt.sol\":12367:12400  super.allowance(_owner, _spender) */\n      jump\t// in\n    tag_228:\n        /* \"tests/usdt.sol\":12360:12400  return super.allowance(_owner, _spender) */\n      swap1\n      pop\n        /* \"tests/usdt.sol\":12234:12411  if (deprecated) {... */\n    tag_227:\n        /* \"tests/usdt.sol\":12130:12417  function allowance(address _owner, address _spender) public constant returns (uint remaining) {... */\n      swap3\n      swap2\n      pop\n      pop\n      jump\t// out\n        /* \"tests/usdt.sol\":3041:3072  uint public basisPointsRate = 0 */\n    tag_122:\n      sload(0x3)\n      dup2\n      jump\t// out\n        /* \"tests/usdt.sol\":8448:8494  mapping (address => bool) public isBlackListed */\n    tag_125:\n      mstore(0x20, 0x6)\n      0x0\n      swap1\n      dup2\n      mstore\n      0x40\n      swap1\n      keccak256\n      sload\n      0xff\n      and\n      dup2\n      jump\t// out\n        /* \"tests/usdt.sol\":8653:8810  function removeBlackList (address _clearedUser) public onlyOwner {... */\n    tag_128:\n        /* \"tests/usdt.sol\":1546:1551  owner */\n      and(sub(exp(0x2, 0xa0), 0x1), sload(0x0))\n        /* \"tests/usdt.sol\":1532:1542  msg.sender */\n      caller\n        /* \"tests/usdt.sol\":1532:1551  msg.sender == owner */\n      eq\n        /* \"tests/usdt.sol\":1524:1552  require(msg.sender == owner) */\n      tag_231\n      jumpi\n      0x0\n      dup1\n      revert\n    tag_231:\n      sub(exp(0x2, 0xa0), 0x1)\n        /* \"tests/usdt.sol\":8728:8755  isBlackListed[_clearedUser] */\n      dup2\n      and\n        /* \"tests/usdt.sol\":8758:8763  false */\n      0x0\n        /* \"tests/usdt.sol\":8728:8755  isBlackListed[_clearedUser] */\n      dup2\n      dup2\n      mstore\n        /* \"tests/usdt.sol\":8728:8741  isBlackListed */\n      0x6\n        /* \"tests/usdt.sol\":8728:8755  isBlackListed[_clearedUser] */\n      0x20\n      swap1\n      dup2\n      mstore\n      0x40\n      swap2\n      dup3\n      swap1\n      keccak256\n        /* \"tests/usdt.sol\":8728:8763  isBlackListed[_clearedUser] = false */\n      dup1\n      sload\n      not(0xff)\n      and\n      swap1\n      sstore\n        /* \"tests/usdt.sol\":8773:8803  RemovedBlackList(_clearedUser) */\n      dup2\n      mload\n      swap3\n      dup4\n      mstore\n      swap1\n      mload\n      0xd7e9ec6e6ecd65492dce6bf513cd6867560d49544421d0783ddf06e76c24470c\n      swap3\n      dup2\n      swap1\n      sub\n      swap1\n      swap2\n      add\n      swap1\n      log1\n        /* \"tests/usdt.sol\":8653:8810  function removeBlackList (address _clearedUser) public onlyOwner {... */\n      pop\n      jump\t// out\n        /* \"tests/usdt.sol\":4720:4762  uint public constant MAX_UINT = 2**256 - 1 */\n    tag_131:\n      not(0x0)\n      dup2\n      jump\t// out\n        /* \"tests/usdt.sol\":1738:1885  function transferOwnership(address newOwner) public onlyOwner {... */\n    tag_134:\n        /* \"tests/usdt.sol\":1546:1551  owner */\n      and(sub(exp(0x2, 0xa0), 0x1), sload(0x0))\n        /* \"tests/usdt.sol\":1532:1542  msg.sender */\n      caller\n        /* \"tests/usdt.sol\":1532:1551  msg.sender == owner */\n      eq\n        /* \"tests/usdt.sol\":1524:1552  require(msg.sender == owner) */\n      tag_234\n      jumpi\n      0x0\n      dup1\n      revert\n    tag_234:\n      sub(exp(0x2, 0xa0), 0x1)\n        /* \"tests/usdt.sol\":1814:1836  newOwner != address(0) */\n      dup2\n      and\n      iszero\n        /* \"tests/usdt.sol\":1810:1879  if (newOwner != address(0)) {... */\n      tag_236\n      jumpi\n        /* \"tests/usdt.sol\":1852:1857  owner */\n      0x0\n        /* \"tests/usdt.sol\":1852:1868  owner = newOwner */\n      dup1\n      sload\n      not(0xffffffffffffffffffffffffffffffffffffffff)\n      and\n      sub(exp(0x2, 0xa0), 0x1)\n      dup4\n      and\n      or\n      swap1\n      sstore\n        /* \"tests/usdt.sol\":1810:1879  if (newOwner != address(0)) {... */\n    tag_236:\n        /* \"tests/usdt.sol\":1738:1885  function transferOwnership(address newOwner) public onlyOwner {... */\n      pop\n      jump\t// out\n        /* \"tests/usdt.sol\":8816:9134  function destroyBlackFunds (address _blackListedUser) public onlyOwner {... */\n    tag_137:\n        /* \"tests/usdt.sol\":8947:8962  uint dirtyFunds */\n      0x0\n        /* \"tests/usdt.sol\":1546:1551  owner */\n      dup1\n      sload\n      sub(exp(0x2, 0xa0), 0x1)\n      and\n        /* \"tests/usdt.sol\":1532:1542  msg.sender */\n      caller\n        /* \"tests/usdt.sol\":1532:1551  msg.sender == owner */\n      eq\n        /* \"tests/usdt.sol\":1524:1552  require(msg.sender == owner) */\n      tag_238\n      jumpi\n      0x0\n      dup1\n      revert\n    tag_238:\n      sub(exp(0x2, 0xa0), 0x1)\n        /* \"tests/usdt.sol\":8905:8936  isBlackListed[_blackListedUser] */\n      dup3\n      and\n      0x0\n      swap1\n      dup2\n      mstore\n        /* \"tests/usdt.sol\":8905:8918  isBlackListed */\n      0x6\n        /* \"tests/usdt.sol\":8905:8936  isBlackListed[_blackListedUser] */\n      0x20\n      mstore\n      0x40\n      swap1\n      keccak256\n      sload\n      0xff\n      and\n        /* \"tests/usdt.sol\":8897:8937  require(isBlackListed[_blackListedUser]) */\n      iszero\n      iszero\n      tag_240\n      jumpi\n      0x0\n      dup1\n      revert\n    tag_240:\n        /* \"tests/usdt.sol\":8965:8992  balanceOf(_blackListedUser) */\n      tag_241\n        /* \"tests/usdt.sol\":8975:8991  _blackListedUser */\n      dup3\n        /* \"tests/usdt.sol\":8965:8974  balanceOf */\n      tag_88\n        /* \"tests/usdt.sol\":8965:8992  balanceOf(_blackListedUser) */\n      jump\t// in\n    tag_241:\n      sub(exp(0x2, 0xa0), 0x1)\n        /* \"tests/usdt.sol\":9002:9028  balances[_blackListedUser] */\n      dup4\n      and\n        /* \"tests/usdt.sol\":9031:9032  0 */\n      0x0\n        /* \"tests/usdt.sol\":9002:9028  balances[_blackListedUser] */\n      dup2\n      dup2\n      mstore\n        /* \"tests/usdt.sol\":9002:9010  balances */\n      0x2\n        /* \"tests/usdt.sol\":9002:9028  balances[_blackListedUser] */\n      0x20\n      swap1\n      dup2\n      mstore\n      0x40\n      dup1\n      dup4\n      keccak256\n        /* \"tests/usdt.sol\":9002:9032  balances[_blackListedUser] = 0 */\n      swap3\n      swap1\n      swap3\n      sstore\n        /* \"tests/usdt.sol\":9042:9054  _totalSupply */\n      0x1\n        /* \"tests/usdt.sol\":9042:9068  _totalSupply -= dirtyFunds */\n      dup1\n      sload\n      dup6\n      swap1\n      sub\n      swap1\n      sstore\n        /* \"tests/usdt.sol\":9078:9127  DestroyedBlackFunds(_blackListedUser, dirtyFunds) */\n      dup2\n      mload\n      swap3\n      dup4\n      mstore\n      dup3\n      add\n      dup4\n      swap1\n      mstore\n      dup1\n      mload\n        /* \"tests/usdt.sol\":8947:8992  uint dirtyFunds = balanceOf(_blackListedUser) */\n      swap3\n      swap4\n      pop\n        /* \"tests/usdt.sol\":9078:9127  DestroyedBlackFunds(_blackListedUser, dirtyFunds) */\n      0x61e6e66b0d6339b2980aecc6ccc0039736791f0ccde9ed512e789a7fbdd698c6\n      swap3\n      swap2\n      dup3\n      swap1\n      sub\n      add\n      swap1\n      log1\n        /* \"tests/usdt.sol\":8816:9134  function destroyBlackFunds (address _blackListedUser) public onlyOwner {... */\n      pop\n      pop\n      jump\t// out\n        /* \"tests/usdt.sol\":6164:6727  function approve(address _spender, uint _value) public onlyPayloadSize(2 * 32) {... */\n    tag_152:\n        /* \"tests/usdt.sol\":6235:6241  2 * 32 */\n      0x40\n        /* \"tests/usdt.sol\":3251:3259  size + 4 */\n      0x44\n        /* \"tests/usdt.sol\":3233:3241  msg.data */\n      calldatasize\n        /* \"tests/usdt.sol\":3233:3259  msg.data.length < size + 4 */\n      lt\n        /* \"tests/usdt.sol\":3231:3260  !(msg.data.length < size + 4) */\n      iszero\n        /* \"tests/usdt.sol\":3223:3261  require(!(msg.data.length < size + 4)) */\n      tag_243\n      jumpi\n      0x0\n      dup1\n      revert\n    tag_243:\n        /* \"tests/usdt.sol\":6569:6580  _value != 0 */\n      dup2\n      iszero\n      dup1\n      iszero\n      swap1\n        /* \"tests/usdt.sol\":6568:6621  (_value != 0) && (allowed[msg.sender][_spender] != 0) */\n      tag_245\n      jumpi\n      pop\n        /* \"tests/usdt.sol\":6594:6604  msg.sender */\n      caller\n        /* \"tests/usdt.sol\":6586:6605  allowed[msg.sender] */\n      0x0\n      swap1\n      dup2\n      mstore\n        /* \"tests/usdt.sol\":6586:6593  allowed */\n      0x5\n        /* \"tests/usdt.sol\":6586:6605  allowed[msg.sender] */\n      0x20\n      swap1\n      dup2\n      mstore\n      0x40\n      dup1\n      dup4\n      keccak256\n      sub(exp(0x2, 0xa0), 0x1)\n        /* \"tests/usdt.sol\":6586:6615  allowed[msg.sender][_spender] */\n      dup8\n      and\n      dup5\n      mstore\n      swap1\n      swap2\n      mstore\n      swap1\n      keccak256\n      sload\n        /* \"tests/usdt.sol\":6586:6620  allowed[msg.sender][_spender] != 0 */\n      iszero\n      iszero\n        /* \"tests/usdt.sol\":6568:6621  (_value != 0) && (allowed[msg.sender][_spender] != 0) */\n    tag_245:\n        /* \"tests/usdt.sol\":6566:6622  !((_value != 0) && (allowed[msg.sender][_spender] != 0)) */\n      iszero\n        /* \"tests/usdt.sol\":6558:6623  require(!((_value != 0) && (allowed[msg.sender][_spender] != 0))) */\n      tag_246\n      jumpi\n      0x0\n      dup1\n      revert\n    tag_246:\n        /* \"tests/usdt.sol\":6642:6652  msg.sender */\n      caller\n        /* \"tests/usdt.sol\":6634:6653  allowed[msg.sender] */\n      0x0\n      dup2\n      dup2\n      mstore\n        /* \"tests/usdt.sol\":6634:6641  allowed */\n      0x5\n        /* \"tests/usdt.sol\":6634:6653  allowed[msg.sender] */\n      0x20\n      swap1\n      dup2\n      mstore\n      0x40\n      dup1\n      dup4\n      keccak256\n      sub(exp(0x2, 0xa0), 0x1)\n        /* \"tests/usdt.sol\":6634:6663  allowed[msg.sender][_spender] */\n      dup9\n      and\n      dup1\n      dup6\n      mstore\n      swap1\n      dup4\n      mstore\n      swap3\n      dup2\n      swap1\n      keccak256\n        /* \"tests/usdt.sol\":6634:6672  allowed[msg.sender][_spender] = _value */\n      dup7\n      swap1\n      sstore\n        /* \"tests/usdt.sol\":6682:6720  Approval(msg.sender, _spender, _value) */\n      dup1\n      mload\n      dup7\n      dup2\n      mstore\n      swap1\n      mload\n        /* \"tests/usdt.sol\":6634:6663  allowed[msg.sender][_spender] */\n      swap3\n      swap4\n        /* \"tests/usdt.sol\":6642:6652  msg.sender */\n      swap3\n        /* \"tests/usdt.sol\":6682:6720  Approval(msg.sender, _spender, _value) */\n      0x8c5be1e5ebec7d5bd14f71427d1e84f3dd0314c0f7b2291e5b200ac8c7c3b925\n      swap3\n      swap2\n      dup2\n      swap1\n      sub\n      swap1\n      swap2\n      add\n      swap1\n      log3\n        /* \"tests/usdt.sol\":6164:6727  function approve(address _spender, uint _value) public onlyPayloadSize(2 * 32) {... */\n      pop\n      pop\n      pop\n      jump\t// out\n        /* \"tests/usdt.sol\":5044:5924  function transferFrom(address _from, address _to, uint _value) public onlyPayloadSize(3 * 32) {... */\n    tag_171:\n        /* \"tests/usdt.sol\":5148:5162  var _allowance */\n      0x0\n      dup1\n      dup1\n        /* \"tests/usdt.sol\":5130:5136  3 * 32 */\n      0x60\n        /* \"tests/usdt.sol\":3251:3259  size + 4 */\n      0x64\n        /* \"tests/usdt.sol\":3233:3241  msg.data */\n      calldatasize\n        /* \"tests/usdt.sol\":3233:3259  msg.data.length < size + 4 */\n      lt\n        /* \"tests/usdt.sol\":3231:3260  !(msg.data.length < size + 4) */\n      iszero\n        /* \"tests/usdt.sol\":3223:3261  require(!(msg.data.length < size + 4)) */\n      tag_248\n      jumpi\n      0x0\n      dup1\n      revert\n    tag_248:\n      sub(exp(0x2, 0xa0), 0x1)\n        /* \"tests/usdt.sol\":5165:5179  allowed[_from] */\n      dup8\n      and\n      0x0\n      swap1\n      dup2\n      mstore\n        /* \"tests/usdt.sol\":5165:5172  allowed */\n      0x5\n        /* \"tests/usdt.sol\":5165:5179  allowed[_from] */\n      0x20\n      swap1\n      dup2\n      mstore\n      0x40\n      dup1\n      dup4\n      keccak256\n        /* \"tests/usdt.sol\":5180:5190  msg.sender */\n      caller\n        /* \"tests/usdt.sol\":5165:5191  allowed[_from][msg.sender] */\n      dup5\n      mstore\n      swap1\n      swap2\n      mstore\n      swap1\n      keccak256\n      sload\n        /* \"tests/usdt.sol\":5380:5395  basisPointsRate */\n      sload(0x3)\n        /* \"tests/usdt.sol\":5165:5191  allowed[_from][msg.sender] */\n      swap1\n      swap5\n      pop\n        /* \"tests/usdt.sol\":5368:5408  (_value.mul(basisPointsRate)).div(10000) */\n      tag_250\n      swap1\n        /* \"tests/usdt.sol\":5402:5407  10000 */\n      0x2710\n      swap1\n        /* \"tests/usdt.sol\":5369:5396  _value.mul(basisPointsRate) */\n      tag_251\n      swap1\n        /* \"tests/usdt.sol\":5369:5375  _value */\n      dup9\n      swap1\n        /* \"tests/usdt.sol\":5369:5396  _value.mul(basisPointsRate) */\n      0xffffffff\n        /* \"tests/usdt.sol\":5369:5379  _value.mul */\n      tag_211\n        /* \"tests/usdt.sol\":5369:5396  _value.mul(basisPointsRate) */\n      and\n      jump\t// in\n    tag_251:\n        /* \"tests/usdt.sol\":5368:5401  (_value.mul(basisPointsRate)).div */\n      swap1\n        /* \"tests/usdt.sol\":5368:5408  (_value.mul(basisPointsRate)).div(10000) */\n      0xffffffff\n        /* \"tests/usdt.sol\":5368:5401  (_value.mul(basisPointsRate)).div */\n      tag_252\n        /* \"tests/usdt.sol\":5368:5408  (_value.mul(basisPointsRate)).div(10000) */\n      and\n      jump\t// in\n    tag_250:\n        /* \"tests/usdt.sol\":5357:5408  uint fee = (_value.mul(basisPointsRate)).div(10000) */\n      swap3\n      pop\n        /* \"tests/usdt.sol\":5428:5438  maximumFee */\n      sload(0x4)\n        /* \"tests/usdt.sol\":5422:5425  fee */\n      dup4\n        /* \"tests/usdt.sol\":5422:5438  fee > maximumFee */\n      gt\n        /* \"tests/usdt.sol\":5418:5481  if (fee > maximumFee) {... */\n      iszero\n      tag_253\n      jumpi\n        /* \"tests/usdt.sol\":5460:5470  maximumFee */\n      sload(0x4)\n        /* \"tests/usdt.sol\":5454:5470  fee = maximumFee */\n      swap3\n      pop\n        /* \"tests/usdt.sol\":5418:5481  if (fee > maximumFee) {... */\n    tag_253:\n      not(0x0)\n        /* \"tests/usdt.sol\":5494:5504  _allowance */\n      dup5\n        /* \"tests/usdt.sol\":5494:5515  _allowance < MAX_UINT */\n      lt\n        /* \"tests/usdt.sol\":5490:5593  if (_allowance < MAX_UINT) {... */\n      iszero\n      tag_254\n      jumpi\n        /* \"tests/usdt.sol\":5560:5582  _allowance.sub(_value) */\n      tag_255\n        /* \"tests/usdt.sol\":5560:5570  _allowance */\n      dup5\n        /* \"tests/usdt.sol\":5575:5581  _value */\n      dup7\n        /* \"tests/usdt.sol\":5560:5582  _allowance.sub(_value) */\n      0xffffffff\n        /* \"tests/usdt.sol\":5560:5574  _allowance.sub */\n      tag_256\n        /* \"tests/usdt.sol\":5560:5582  _allowance.sub(_value) */\n      and\n      jump\t// in\n    tag_255:\n      sub(exp(0x2, 0xa0), 0x1)\n        /* \"tests/usdt.sol\":5531:5545  allowed[_from] */\n      dup9\n      and\n      0x0\n      swap1\n      dup2\n      mstore\n        /* \"tests/usdt.sol\":5531:5538  allowed */\n      0x5\n        /* \"tests/usdt.sol\":5531:5545  allowed[_from] */\n      0x20\n      swap1\n      dup2\n      mstore\n      0x40\n      dup1\n      dup4\n      keccak256\n        /* \"tests/usdt.sol\":5546:5556  msg.sender */\n      caller\n        /* \"tests/usdt.sol\":5531:5557  allowed[_from][msg.sender] */\n      dup5\n      mstore\n      swap1\n      swap2\n      mstore\n      swap1\n      keccak256\n        /* \"tests/usdt.sol\":5531:5582  allowed[_from][msg.sender] = _allowance.sub(_value) */\n      sstore\n        /* \"tests/usdt.sol\":5490:5593  if (_allowance < MAX_UINT) {... */\n    tag_254:\n        /* \"tests/usdt.sol\":5620:5635  _value.sub(fee) */\n      tag_257\n        /* \"tests/usdt.sol\":5620:5626  _value */\n      dup6\n        /* \"tests/usdt.sol\":5631:5634  fee */\n      dup5\n        /* \"tests/usdt.sol\":5620:5635  _value.sub(fee) */\n      0xffffffff\n        /* \"tests/usdt.sol\":5620:5630  _value.sub */\n      tag_256\n        /* \"tests/usdt.sol\":5620:5635  _value.sub(fee) */\n      and\n      jump\t// in\n    tag_257:\n      sub(exp(0x2, 0xa0), 0x1)\n        /* \"tests/usdt.sol\":5663:5678  balances[_from] */\n      dup9\n      and\n      0x0\n      swap1\n      dup2\n      mstore\n        /* \"tests/usdt.sol\":5663:5671  balances */\n      0x2\n        /* \"tests/usdt.sol\":5663:5678  balances[_from] */\n      0x20\n      mstore\n      0x40\n      swap1\n      keccak256\n      sload\n        /* \"tests/usdt.sol\":5602:5635  uint sendAmount = _value.sub(fee) */\n      swap1\n      swap3\n      pop\n        /* \"tests/usdt.sol\":5663:5690  balances[_from].sub(_value) */\n      tag_258\n      swap1\n        /* \"tests/usdt.sol\":5683:5689  _value */\n      dup7\n        /* \"tests/usdt.sol\":5663:5690  balances[_from].sub(_value) */\n      0xffffffff\n        /* \"tests/usdt.sol\":5663:5682  balances[_from].sub */\n      tag_256\n        /* \"tests/usdt.sol\":5663:5690  balances[_from].sub(_value) */\n      and\n      jump\t// in\n    tag_258:\n      sub(exp(0x2, 0xa0), 0x1)\n        /* \"tests/usdt.sol\":5645:5660  balances[_from] */\n      dup1\n      dup10\n      and\n      0x0\n      swap1\n      dup2\n      mstore\n        /* \"tests/usdt.sol\":5645:5653  balances */\n      0x2\n        /* \"tests/usdt.sol\":5645:5660  balances[_from] */\n      0x20\n      mstore\n      0x40\n      dup1\n      dup3\n      keccak256\n        /* \"tests/usdt.sol\":5645:5690  balances[_from] = balances[_from].sub(_value) */\n      swap4\n      swap1\n      swap4\n      sstore\n        /* \"tests/usdt.sol\":5716:5729  balances[_to] */\n      swap1\n      dup9\n      and\n      dup2\n      mstore\n      keccak256\n      sload\n        /* \"tests/usdt.sol\":5716:5745  balances[_to].add(sendAmount) */\n      tag_259\n      swap1\n        /* \"tests/usdt.sol\":5734:5744  sendAmount */\n      dup4\n        /* \"tests/usdt.sol\":5716:5745  balances[_to].add(sendAmount) */\n      0xffffffff\n        /* \"tests/usdt.sol\":5716:5733  balances[_to].add */\n      tag_260\n        /* \"tests/usdt.sol\":5716:5745  balances[_to].add(sendAmount) */\n      and\n      jump\t// in\n    tag_259:\n      sub(exp(0x2, 0xa0), 0x1)\n        /* \"tests/usdt.sol\":5700:5713  balances[_to] */\n      dup8\n      and\n      0x0\n      swap1\n      dup2\n      mstore\n        /* \"tests/usdt.sol\":5700:5708  balances */\n      0x2\n        /* \"tests/usdt.sol\":5700:5713  balances[_to] */\n      0x20\n      mstore\n      0x40\n      dup2\n      keccak256\n        /* \"tests/usdt.sol\":5700:5745  balances[_to] = balances[_to].add(sendAmount) */\n      swap2\n      swap1\n      swap2\n      sstore\n        /* \"tests/usdt.sol\":5759:5766  fee > 0 */\n      dup4\n      gt\n        /* \"tests/usdt.sol\":5755:5876  if (fee > 0) {... */\n      iszero\n      tag_261\n      jumpi\n        /* \"tests/usdt.sol\":5800:5815  balances[owner] */\n      0x0\n        /* \"tests/usdt.sol\":5809:5814  owner */\n      dup1\n      sload\n      sub(exp(0x2, 0xa0), 0x1)\n      and\n        /* \"tests/usdt.sol\":5800:5815  balances[owner] */\n      dup2\n      mstore\n        /* \"tests/usdt.sol\":5800:5808  balances */\n      0x2\n        /* \"tests/usdt.sol\":5800:5815  balances[owner] */\n      0x20\n      mstore\n      0x40\n      swap1\n      keccak256\n      sload\n        /* \"tests/usdt.sol\":5800:5824  balances[owner].add(fee) */\n      tag_262\n      swap1\n        /* \"tests/usdt.sol\":5820:5823  fee */\n      dup5\n        /* \"tests/usdt.sol\":5800:5824  balances[owner].add(fee) */\n      0xffffffff\n        /* \"tests/usdt.sol\":5800:5819  balances[owner].add */\n      tag_260\n        /* \"tests/usdt.sol\":5800:5824  balances[owner].add(fee) */\n      and\n      jump\t// in\n    tag_262:\n        /* \"tests/usdt.sol\":5782:5797  balances[owner] */\n      0x0\n        /* \"tests/usdt.sol\":5791:5796  owner */\n      dup1\n      sload\n      sub(exp(0x2, 0xa0), 0x1)\n      swap1\n      dup2\n      and\n        /* \"tests/usdt.sol\":5782:5797  balances[owner] */\n      dup3\n      mstore\n        /* \"tests/usdt.sol\":5782:5790  balances */\n      0x2\n        /* \"tests/usdt.sol\":5782:5797  balances[owner] */\n      0x20\n      swap1\n      dup2\n      mstore\n      0x40\n      dup1\n      dup5\n      keccak256\n        /* \"tests/usdt.sol\":5782:5824  balances[owner] = balances[owner].add(fee) */\n      swap5\n      swap1\n      swap5\n      sstore\n        /* \"tests/usdt.sol\":5854:5859  owner */\n      swap2\n      sload\n        /* \"tests/usdt.sol\":5838:5865  Transfer(_from, owner, fee) */\n      dup4\n      mload\n      dup8\n      dup2\n      mstore\n      swap4\n      mload\n        /* \"tests/usdt.sol\":5854:5859  owner */\n      swap1\n      dup3\n      and\n      swap4\n        /* \"tests/usdt.sol\":5838:5865  Transfer(_from, owner, fee) */\n      swap2\n      dup12\n      and\n      swap3\n      0x0\n      dup1\n      mload\n      0x20\n      data_ada389e1fc24a8587c776340efb91b36e675792ab631816100d55df0b5cf3cbc\n      dup4\n      codecopy\n      dup2\n      mload\n      swap2\n      mstore\n      swap3\n      dup3\n      swap1\n      sub\n      add\n      swap1\n      log3\n        /* \"tests/usdt.sol\":5755:5876  if (fee > 0) {... */\n    tag_261:\n        /* \"tests/usdt.sol\":5901:5904  _to */\n      dup6\n      sub(exp(0x2, 0xa0), 0x1)\n        /* \"tests/usdt.sol\":5885:5917  Transfer(_from, _to, sendAmount) */\n      and\n        /* \"tests/usdt.sol\":5894:5899  _from */\n      dup8\n      sub(exp(0x2, 0xa0), 0x1)\n        /* \"tests/usdt.sol\":5885:5917  Transfer(_from, _to, sendAmount) */\n      and\n      0x0\n      dup1\n      mload\n      0x20\n      data_ada389e1fc24a8587c776340efb91b36e675792ab631816100d55df0b5cf3cbc\n      dup4\n      codecopy\n      dup2\n      mload\n      swap2\n      mstore\n        /* \"tests/usdt.sol\":5906:5916  sendAmount */\n      dup5\n        /* \"tests/usdt.sol\":5885:5917  Transfer(_from, _to, sendAmount) */\n      mload(0x40)\n      dup1\n      dup3\n      dup2\n      mstore\n      0x20\n      add\n      swap2\n      pop\n      pop\n      mload(0x40)\n      dup1\n      swap2\n      sub\n      swap1\n      log3\n        /* \"tests/usdt.sol\":5044:5924  function transferFrom(address _from, address _to, uint _value) public onlyPayloadSize(3 * 32) {... */\n      pop\n      pop\n      pop\n      pop\n      pop\n      pop\n      pop\n      jump\t// out\n        /* \"tests/usdt.sol\":4216:4330  function balanceOf(address _owner) public constant returns (uint balance) {... */\n    tag_185:\n      sub(exp(0x2, 0xa0), 0x1)\n        /* \"tests/usdt.sol\":4307:4323  balances[_owner] */\n      and\n        /* \"tests/usdt.sol\":4276:4288  uint balance */\n      0x0\n        /* \"tests/usdt.sol\":4307:4323  balances[_owner] */\n      swap1\n      dup2\n      mstore\n        /* \"tests/usdt.sol\":4307:4315  balances */\n      0x2\n        /* \"tests/usdt.sol\":4307:4323  balances[_owner] */\n      0x20\n      mstore\n      0x40\n      swap1\n      keccak256\n      sload\n      swap1\n        /* \"tests/usdt.sol\":4216:4330  function balanceOf(address _owner) public constant returns (uint balance) {... */\n      jump\t// out\n        /* \"tests/usdt.sol\":3445:4005  function transfer(address _to, uint _value) public onlyPayloadSize(2 * 32) {... */\n    tag_204:\n        /* \"tests/usdt.sol\":3530:3538  uint fee */\n      0x0\n      dup1\n        /* \"tests/usdt.sol\":3512:3518  2 * 32 */\n      0x40\n        /* \"tests/usdt.sol\":3251:3259  size + 4 */\n      0x44\n        /* \"tests/usdt.sol\":3233:3241  msg.data */\n      calldatasize\n        /* \"tests/usdt.sol\":3233:3259  msg.data.length < size + 4 */\n      lt\n        /* \"tests/usdt.sol\":3231:3260  !(msg.data.length < size + 4) */\n      iszero\n        /* \"tests/usdt.sol\":3223:3261  require(!(msg.data.length < size + 4)) */\n      tag_265\n      jumpi\n      0x0\n      dup1\n      revert\n    tag_265:\n        /* \"tests/usdt.sol\":3541:3581  (_value.mul(basisPointsRate)).div(10000) */\n      tag_267\n        /* \"tests/usdt.sol\":3575:3580  10000 */\n      0x2710\n        /* \"tests/usdt.sol\":3542:3569  _value.mul(basisPointsRate) */\n      tag_251\n        /* \"tests/usdt.sol\":3553:3568  basisPointsRate */\n      sload(0x3)\n        /* \"tests/usdt.sol\":3542:3548  _value */\n      dup8\n        /* \"tests/usdt.sol\":3542:3552  _value.mul */\n      tag_211\n      swap1\n        /* \"tests/usdt.sol\":3542:3569  _value.mul(basisPointsRate) */\n      swap2\n      swap1\n      0xffffffff\n      and\n      jump\t// in\n        /* \"tests/usdt.sol\":3541:3581  (_value.mul(basisPointsRate)).div(10000) */\n    tag_267:\n        /* \"tests/usdt.sol\":3530:3581  uint fee = (_value.mul(basisPointsRate)).div(10000) */\n      swap3\n      pop\n        /* \"tests/usdt.sol\":3601:3611  maximumFee */\n      sload(0x4)\n        /* \"tests/usdt.sol\":3595:3598  fee */\n      dup4\n        /* \"tests/usdt.sol\":3595:3611  fee > maximumFee */\n      gt\n        /* \"tests/usdt.sol\":3591:3654  if (fee > maximumFee) {... */\n      iszero\n      tag_269\n      jumpi\n        /* \"tests/usdt.sol\":3633:3643  maximumFee */\n      sload(0x4)\n        /* \"tests/usdt.sol\":3627:3643  fee = maximumFee */\n      swap3\n      pop\n        /* \"tests/usdt.sol\":3591:3654  if (fee > maximumFee) {... */\n    tag_269:\n        /* \"tests/usdt.sol\":3681:3696  _value.sub(fee) */\n      tag_270\n        /* \"tests/usdt.sol\":3681:3687  _value */\n      dup5\n        /* \"tests/usdt.sol\":3692:3695  fee */\n      dup5\n        /* \"tests/usdt.sol\":3681:3696  _value.sub(fee) */\n      0xffffffff\n        /* \"tests/usdt.sol\":3681:3691  _value.sub */\n      tag_256\n        /* \"tests/usdt.sol\":3681:3696  _value.sub(fee) */\n      and\n      jump\t// in\n    tag_270:\n        /* \"tests/usdt.sol\":3738:3748  msg.sender */\n      caller\n        /* \"tests/usdt.sol\":3729:3749  balances[msg.sender] */\n      0x0\n      swap1\n      dup2\n      mstore\n        /* \"tests/usdt.sol\":3729:3737  balances */\n      0x2\n        /* \"tests/usdt.sol\":3729:3749  balances[msg.sender] */\n      0x20\n      mstore\n      0x40\n      swap1\n      keccak256\n      sload\n        /* \"tests/usdt.sol\":3663:3696  uint sendAmount = _value.sub(fee) */\n      swap1\n      swap3\n      pop\n        /* \"tests/usdt.sol\":3729:3761  balances[msg.sender].sub(_value) */\n      tag_271\n      swap1\n        /* \"tests/usdt.sol\":3754:3760  _value */\n      dup6\n        /* \"tests/usdt.sol\":3729:3761  balances[msg.sender].sub(_value) */\n      0xffffffff\n        /* \"tests/usdt.sol\":3729:3753  balances[msg.sender].sub */\n      tag_256\n        /* \"tests/usdt.sol\":3729:3761  balances[msg.sender].sub(_value) */\n      and\n      jump\t// in\n    tag_271:\n        /* \"tests/usdt.sol\":3715:3725  msg.sender */\n      caller\n        /* \"tests/usdt.sol\":3706:3726  balances[msg.sender] */\n      0x0\n      swap1\n      dup2\n      mstore\n        /* \"tests/usdt.sol\":3706:3714  balances */\n      0x2\n        /* \"tests/usdt.sol\":3706:3726  balances[msg.sender] */\n      0x20\n      mstore\n      0x40\n      dup1\n      dup3\n      keccak256\n        /* \"tests/usdt.sol\":3706:3761  balances[msg.sender] = balances[msg.sender].sub(_value) */\n      swap3\n      swap1\n      swap3\n      sstore\n      sub(exp(0x2, 0xa0), 0x1)\n        /* \"tests/usdt.sol\":3787:3800  balances[_to] */\n      dup8\n      and\n      dup2\n      mstore\n      keccak256\n      sload\n        /* \"tests/usdt.sol\":3787:3816  balances[_to].add(sendAmount) */\n      tag_272\n      swap1\n        /* \"tests/usdt.sol\":3805:3815  sendAmount */\n      dup4\n        /* \"tests/usdt.sol\":3787:3816  balances[_to].add(sendAmount) */\n      0xffffffff\n        /* \"tests/usdt.sol\":3787:3804  balances[_to].add */\n      tag_260\n        /* \"tests/usdt.sol\":3787:3816  balances[_to].add(sendAmount) */\n      and\n      jump\t// in\n    tag_272:\n      sub(exp(0x2, 0xa0), 0x1)\n        /* \"tests/usdt.sol\":3771:3784  balances[_to] */\n      dup7\n      and\n      0x0\n      swap1\n      dup2\n      mstore\n        /* \"tests/usdt.sol\":3771:3779  balances */\n      0x2\n        /* \"tests/usdt.sol\":3771:3784  balances[_to] */\n      0x20\n      mstore\n      0x40\n      dup2\n      keccak256\n        /* \"tests/usdt.sol\":3771:3816  balances[_to] = balances[_to].add(sendAmount) */\n      swap2\n      swap1\n      swap2\n      sstore\n        /* \"tests/usdt.sol\":3830:3837  fee > 0 */\n      dup4\n      gt\n        /* \"tests/usdt.sol\":3826:3952  if (fee > 0) {... */\n      iszero\n      tag_273\n      jumpi\n        /* \"tests/usdt.sol\":3871:3886  balances[owner] */\n      0x0\n        /* \"tests/usdt.sol\":3880:3885  owner */\n      dup1\n      sload\n      sub(exp(0x2, 0xa0), 0x1)\n      and\n        /* \"tests/usdt.sol\":3871:3886  balances[owner] */\n      dup2\n      mstore\n        /* \"tests/usdt.sol\":3871:3879  balances */\n      0x2\n        /* \"tests/usdt.sol\":3871:3886  balances[owner] */\n      0x20\n      mstore\n      0x40\n      swap1\n      keccak256\n      sload\n        /* \"tests/usdt.sol\":3871:3895  balances[owner].add(fee) */\n      tag_274\n      swap1\n        /* \"tests/usdt.sol\":3891:3894  fee */\n      dup5\n        /* \"tests/usdt.sol\":3871:3895  balances[owner].add(fee) */\n      0xffffffff\n        /* \"tests/usdt.sol\":3871:3890  balances[owner].add */\n      tag_260\n        /* \"tests/usdt.sol\":3871:3895  balances[owner].add(fee) */\n      and\n      jump\t// in\n    tag_274:\n        /* \"tests/usdt.sol\":3853:3868  balances[owner] */\n      0x0\n        /* \"tests/usdt.sol\":3862:3867  owner */\n      dup1\n      sload\n      sub(exp(0x2, 0xa0), 0x1)\n      swap1\n      dup2\n      and\n        /* \"tests/usdt.sol\":3853:3868  balances[owner] */\n      dup3\n      mstore\n        /* \"tests/usdt.sol\":3853:3861  balances */\n      0x2\n        /* \"tests/usdt.sol\":3853:3868  balances[owner] */\n      0x20\n      swap1\n      dup2\n      mstore\n      0x40\n      dup1\n      dup5\n      keccak256\n        /* \"tests/usdt.sol\":3853:3895  balances[owner] = balances[owner].add(fee) */\n      swap5\n      swap1\n      swap5\n      sstore\n        /* \"tests/usdt.sol\":3930:3935  owner */\n      swap2\n      sload\n        /* \"tests/usdt.sol\":3909:3941  Transfer(msg.sender, owner, fee) */\n      dup4\n      mload\n      dup8\n      dup2\n      mstore\n      swap4\n      mload\n        /* \"tests/usdt.sol\":3930:3935  owner */\n      swap2\n      and\n      swap3\n        /* \"tests/usdt.sol\":3918:3928  msg.sender */\n      caller\n      swap3\n      0x0\n      dup1\n      mload\n      0x20\n      data_ada389e1fc24a8587c776340efb91b36e675792ab631816100d55df0b5cf3cbc\n      dup4\n      codecopy\n      dup2\n      mload\n      swap2\n      mstore\n        /* \"tests/usdt.sol\":3909:3941  Transfer(msg.sender, owner, fee) */\n      swap3\n      swap2\n      dup3\n      swap1\n      sub\n      add\n      swap1\n      log3\n        /* \"tests/usdt.sol\":3826:3952  if (fee > 0) {... */\n    tag_273:\n        /* \"tests/usdt.sol\":3961:3998  Transfer(msg.sender, _to, sendAmount) */\n      0x40\n      dup1\n      mload\n      dup4\n      dup2\n      mstore\n      swap1\n      mload\n      sub(exp(0x2, 0xa0), 0x1)\n      dup8\n      and\n      swap2\n        /* \"tests/usdt.sol\":3970:3980  msg.sender */\n      caller\n      swap2\n      0x0\n      dup1\n      mload\n      0x20\n      data_ada389e1fc24a8587c776340efb91b36e675792ab631816100d55df0b5cf3cbc\n      dup4\n      codecopy\n      dup2\n      mload\n      swap2\n      mstore\n        /* \"tests/usdt.sol\":3961:3998  Transfer(msg.sender, _to, sendAmount) */\n      swap2\n      dup2\n      swap1\n      sub\n      0x20\n      add\n      swap1\n      log3\n        /* \"tests/usdt.sol\":3445:4005  function transfer(address _to, uint _value) public onlyPayloadSize(2 * 32) {... */\n      pop\n      pop\n      pop\n      pop\n      pop\n      jump\t// out\n        /* \"tests/usdt.sol\":206:407  function mul(uint256 a, uint256 b) internal pure returns (uint256) {... */\n    tag_211:\n        /* \"tests/usdt.sol\":264:271  uint256 */\n      0x0\n      dup1\n        /* \"tests/usdt.sol\":287:293  a == 0 */\n      dup4\n      iszero\n        /* \"tests/usdt.sol\":283:328  if (a == 0) {... */\n      iszero\n      tag_276\n      jumpi\n        /* \"tests/usdt.sol\":316:317  0 */\n      0x0\n        /* \"tests/usdt.sol\":309:317  return 0 */\n      swap2\n      pop\n      jump(tag_275)\n        /* \"tests/usdt.sol\":283:328  if (a == 0) {... */\n    tag_276:\n      pop\n        /* \"tests/usdt.sol\":349:354  a * b */\n      dup3\n      dup3\n      mul\n        /* \"tests/usdt.sol\":353:354  b */\n      dup3\n        /* \"tests/usdt.sol\":349:350  a */\n      dup5\n        /* \"tests/usdt.sol\":349:354  a * b */\n      dup3\n        /* \"tests/usdt.sol\":371:376  c / a */\n      dup2\n      iszero\n      iszero\n      tag_277\n      jumpi\n      invalid\n    tag_277:\n      div\n        /* \"tests/usdt.sol\":371:381  c / a == b */\n      eq\n        /* \"tests/usdt.sol\":364:382  assert(c / a == b) */\n      tag_278\n      jumpi\n      invalid\n    tag_278:\n        /* \"tests/usdt.sol\":399:400  c */\n      dup1\n        /* \"tests/usdt.sol\":392:400  return c */\n      swap2\n      pop\n        /* \"tests/usdt.sol\":206:407  function mul(uint256 a, uint256 b) internal pure returns (uint256) {... */\n    tag_275:\n      pop\n      swap3\n      swap2\n      pop\n      pop\n      jump\t// out\n        /* \"tests/usdt.sol\":7052:7195  function allowance(address _owner, address _spender) public constant returns (uint remaining) {... */\n    tag_229:\n      sub(exp(0x2, 0xa0), 0x1)\n        /* \"tests/usdt.sol\":7163:7178  allowed[_owner] */\n      swap2\n      dup3\n      and\n        /* \"tests/usdt.sol\":7130:7144  uint remaining */\n      0x0\n        /* \"tests/usdt.sol\":7163:7178  allowed[_owner] */\n      swap1\n      dup2\n      mstore\n        /* \"tests/usdt.sol\":7163:7170  allowed */\n      0x5\n        /* \"tests/usdt.sol\":7163:7178  allowed[_owner] */\n      0x20\n      swap1\n      dup2\n      mstore\n      0x40\n      dup1\n      dup4\n      keccak256\n        /* \"tests/usdt.sol\":7163:7188  allowed[_owner][_spender] */\n      swap4\n      swap1\n      swap5\n      and\n      dup3\n      mstore\n      swap2\n      swap1\n      swap2\n      mstore\n      keccak256\n      sload\n      swap1\n        /* \"tests/usdt.sol\":7052:7195  function allowance(address _owner, address _spender) public constant returns (uint remaining) {... */\n      jump\t// out\n        /* \"tests/usdt.sol\":413:696  function div(uint256 a, uint256 b) internal pure returns (uint256) {... */\n    tag_252:\n        /* \"tests/usdt.sol\":471:478  uint256 */\n      0x0\n        /* \"tests/usdt.sol\":568:577  uint256 c */\n      dup1\n        /* \"tests/usdt.sol\":584:585  b */\n      dup3\n        /* \"tests/usdt.sol\":580:581  a */\n      dup5\n        /* \"tests/usdt.sol\":580:585  a / b */\n      dup2\n      iszero\n      iszero\n      tag_281\n      jumpi\n      invalid\n    tag_281:\n      div\n      swap5\n        /* \"tests/usdt.sol\":413:696  function div(uint256 a, uint256 b) internal pure returns (uint256) {... */\n      swap4\n      pop\n      pop\n      pop\n      pop\n      jump\t// out\n        /* \"tests/usdt.sol\":702:822  function sub(uint256 a, uint256 b) internal pure returns (uint256) {... */\n    tag_256:\n        /* \"tests/usdt.sol\":760:767  uint256 */\n      0x0\n        /* \"tests/usdt.sol\":786:792  b <= a */\n      dup3\n      dup3\n      gt\n      iszero\n        /* \"tests/usdt.sol\":779:793  assert(b <= a) */\n      tag_283\n      jumpi\n      invalid\n    tag_283:\n      pop\n        /* \"tests/usdt.sol\":810:815  a - b */\n      swap1\n      sub\n      swap1\n        /* \"tests/usdt.sol\":702:822  function sub(uint256 a, uint256 b) internal pure returns (uint256) {... */\n      jump\t// out\n        /* \"tests/usdt.sol\":828:971  function add(uint256 a, uint256 b) internal pure returns (uint256) {... */\n    tag_260:\n        /* \"tests/usdt.sol\":886:893  uint256 */\n      0x0\n        /* \"tests/usdt.sol\":917:922  a + b */\n      dup3\n      dup3\n      add\n        /* \"tests/usdt.sol\":939:945  c >= a */\n      dup4\n      dup2\n      lt\n      iszero\n        /* \"tests/usdt.sol\":932:946  assert(c >= a) */\n      tag_278\n      jumpi\n      invalid\n    stop\n    data_ada389e1fc24a8587c776340efb91b36e675792ab631816100d55df0b5cf3cbc ddf252ad1be2c89b69c2b068fc378daa952ba7f163c4a11628f55a4df523b3ef\n\n    auxdata: 0xa165627a7a72305820f32ddc4d4f9686309781eb52456a3ff6050bdc3bc15175560a936e37d7c0e6d30029\n}\n",
				"bytecode": {
					"linkReferences": {},
					"object": "60806040526000805460a060020a60ff021916815560038190556004553480156200002957600080fd5b506040516200183238038062001832833981016040908152815160208084015192840151606085015160008054600160a060020a03191633179055600184905593850180519395909491019290916200008891600791860190620000d3565b5081516200009e906008906020850190620000d3565b50600955505060008054600160a060020a0316815260026020526040902055600a805460a060020a60ff021916905562000178565b828054600181600116156101000203166002900490600052602060002090601f016020900481019282601f106200011657805160ff191683800117855562000146565b8280016001018555821562000146579182015b828111156200014657825182559160200191906001019062000129565b506200015492915062000158565b5090565b6200017591905b808211156200015457600081556001016200015f565b90565b6116aa80620001886000396000f3006080604052600436106101955763ffffffff7c010000000000000000000000000000000000000000000000000000000060003504166306fdde03811461019a5780630753c30c14610224578063095ea7b3146102475780630e136b191461026b5780630ecb93c01461029457806318160ddd146102b557806323b872dd146102dc57806326976e3f1461030657806327e235e314610337578063313ce56714610358578063353907141461036d5780633eaaf86b146103825780633f4ba83a1461039757806359bf1abe146103ac5780635c658165146103cd5780635c975abb146103f457806370a08231146104095780638456cb591461042a578063893d20e81461043f5780638da5cb5b1461045457806395d89b4114610469578063a9059cbb1461047e578063c0324c77146104a2578063cc872b66146104bd578063db006a75146104d5578063dd62ed3e146104ed578063dd644f7214610514578063e47d606014610529578063e4997dc51461054a578063e5b5019a1461056b578063f2fde38b14610580578063f3bdc228146105a1575b600080fd5b3480156101a657600080fd5b506101af6105c2565b6040805160208082528351818301528351919283929083019185019080838360005b838110156101e95781810151838201526020016101d1565b50505050905090810190601f1680156102165780820380516001836020036101000a031916815260200191505b509250505060405180910390f35b34801561023057600080fd5b50610245600160a060020a0360043516610650565b005b34801561025357600080fd5b50610245600160a060020a03600435166024356106e8565b34801561027757600080fd5b506102806107aa565b604080519115158252519081900360200190f35b3480156102a057600080fd5b50610245600160a060020a03600435166107ba565b3480156102c157600080fd5b506102ca61082c565b60408051918252519081900360200190f35b3480156102e857600080fd5b50610245600160a060020a03600435811690602435166044356108e8565b34801561031257600080fd5b5061031b6109be565b60408051600160a060020a039092168252519081900360200190f35b34801561034357600080fd5b506102ca600160a060020a03600435166109cd565b34801561036457600080fd5b506102ca6109df565b34801561037957600080fd5b506102ca6109e5565b34801561038e57600080fd5b506102ca6109eb565b3480156103a357600080fd5b506102456109f1565b3480156103b857600080fd5b50610280600160a060020a0360043516610a67565b3480156103d957600080fd5b506102ca600160a060020a0360043581169060243516610a89565b34801561040057600080fd5b50610280610aa6565b34801561041557600080fd5b506102ca600160a060020a0360043516610ab6565b34801561043657600080fd5b50610245610b76565b34801561044b57600080fd5b5061031b610bf1565b34801561046057600080fd5b5061031b610c00565b34801561047557600080fd5b506101af610c0f565b34801561048a57600080fd5b50610245600160a060020a0360043516602435610c6a565b3480156104ae57600080fd5b50610245600435602435610d4f565b3480156104c957600080fd5b50610245600435610de4565b3480156104e157600080fd5b50610245600435610e8f565b3480156104f957600080fd5b506102ca600160a060020a0360043581169060243516610f3a565b34801561052057600080fd5b506102ca611005565b34801561053557600080fd5b50610280600160a060020a036004351661100b565b34801561055657600080fd5b50610245600160a060020a0360043516611020565b34801561057757600080fd5b506102ca61108f565b34801561058c57600080fd5b50610245600160a060020a0360043516611095565b3480156105ad57600080fd5b50610245600160a060020a03600435166110e7565b6007805460408051602060026001851615610100026000190190941693909304601f810184900484028201840190925281815292918301828280156106485780601f1061061d57610100808354040283529160200191610648565b820191906000526020600020905b81548152906001019060200180831161062b57829003601f168201915b505050505081565b600054600160a060020a0316331461066757600080fd5b600a805460a060020a74ff0000000000000000000000000000000000000000199091161773ffffffffffffffffffffffffffffffffffffffff1916600160a060020a03831690811790915560408051918252517fcc358699805e9a8b7f77b522628c7cb9abd07d9efb86b6fb616af1609036a99e916020908290030190a150565b604060443610156106f857600080fd5b600a5460a060020a900460ff161561079b57600a54604080517faee92d33000000000000000000000000000000000000000000000000000000008152336004820152600160a060020a038681166024830152604482018690529151919092169163aee92d3391606480830192600092919082900301818387803b15801561077e57600080fd5b505af1158015610792573d6000803e3d6000fd5b505050506107a5565b6107a58383611193565b505050565b600a5460a060020a900460ff1681565b600054600160a060020a031633146107d157600080fd5b600160a060020a038116600081815260066020908152604091829020805460ff19166001179055815192835290517f42e160154868087d6bfdc0ca23d96a1c1cfa32f1b72ba9ba27b69b98a0d819dc9281900390910190a150565b600a5460009060a060020a900460ff16156108e057600a60009054906101000a9004600160a060020a0316600160a060020a03166318160ddd6040518163ffffffff167c0100000000000000000000000000000000000000000000000000000000028152600401602060405180830381600087803b1580156108ad57600080fd5b505af11580156108c1573d6000803e3d6000fd5b505050506040513d60208110156108d757600080fd5b505190506108e5565b506001545b90565b60005460a060020a900460ff16156108ff57600080fd5b600160a060020a03831660009081526006602052604090205460ff161561092557600080fd5b600a5460a060020a900460ff16156109b357600a54604080517f8b477adb000000000000000000000000000000000000000000000000000000008152336004820152600160a060020a03868116602483015285811660448301526064820185905291519190921691638b477adb91608480830192600092919082900301818387803b15801561077e57600080fd5b6107a5838383611241565b600a54600160a060020a031681565b60026020526000908152604090205481565b60095481565b60045481565b60015481565b600054600160a060020a03163314610a0857600080fd5b60005460a060020a900460ff161515610a2057600080fd5b6000805474ff0000000000000000000000000000000000000000191681556040517f7805862f689e2f13df9f062ff482ad3ad112aca9e0847911ed832e158c525b339190a1565b600160a060020a03811660009081526006602052604090205460ff165b919050565b600560209081526000928352604080842090915290825290205481565b60005460a060020a900460ff1681565b600a5460009060a060020a900460ff1615610b6657600a54604080517f70a08231000000000000000000000000000000000000000000000000000000008152600160a060020a038581166004830152915191909216916370a082319160248083019260209291908290030181600087803b158015610b3357600080fd5b505af1158015610b47573d6000803e3d6000fd5b505050506040513d6020811015610b5d57600080fd5b50519050610a84565b610b6f8261143d565b9050610a84565b600054600160a060020a03163314610b8d57600080fd5b60005460a060020a900460ff1615610ba457600080fd5b6000805474ff0000000000000000000000000000000000000000191660a060020a1781556040517f6985a02210a168e66602d3235cb6db0e70f92b3ba4d376a33c0f3d9434bff6259190a1565b600054600160a060020a031690565b600054600160a060020a031681565b6008805460408051602060026001851615610100026000190190941693909304601f810184900484028201840190925281815292918301828280156106485780601f1061061d57610100808354040283529160200191610648565b60005460a060020a900460ff1615610c8157600080fd5b3360009081526006602052604090205460ff1615610c9e57600080fd5b600a5460a060020a900460ff1615610d4157600a54604080517f6e18980a000000000000000000000000000000000000000000000000000000008152336004820152600160a060020a0385811660248301526044820185905291519190921691636e18980a91606480830192600092919082900301818387803b158015610d2457600080fd5b505af1158015610d38573d6000803e3d6000fd5b50505050610d4b565b610d4b8282611458565b5050565b600054600160a060020a03163314610d6657600080fd5b60148210610d7357600080fd5b60328110610d8057600080fd5b6003829055600954610d9c908290600a0a63ffffffff6115c516565b600481905560035460408051918252602082019290925281517fb044a1e409eac5c48e5af22d4af52670dd1a99059537a78b31b48c6500a6354e929181900390910190a15050565b600054600160a060020a03163314610dfb57600080fd5b60015481810111610e0b57600080fd5b60008054600160a060020a031681526002602052604090205481810111610e3157600080fd5b60008054600160a060020a03168152600260209081526040918290208054840190556001805484019055815183815291517fcb8241adb0c3fdb35b70c24ce35c5eb0c17af7431c99f827d44a445ca624176a9281900390910190a150565b600054600160a060020a03163314610ea657600080fd5b600154811115610eb557600080fd5b60008054600160a060020a0316815260026020526040902054811115610eda57600080fd5b60018054829003905560008054600160a060020a031681526002602090815260409182902080548490039055815183815291517f702d5967f45f6513a38ffc42d6ba9bf230bd40e8f53b16363c7eb4fd2deb9a449281900390910190a150565b600a5460009060a060020a900460ff1615610ff257600a54604080517fdd62ed3e000000000000000000000000000000000000000000000000000000008152600160a060020a03868116600483015285811660248301529151919092169163dd62ed3e9160448083019260209291908290030181600087803b158015610fbf57600080fd5b505af1158015610fd3573d6000803e3d6000fd5b505050506040513d6020811015610fe957600080fd5b50519050610fff565b610ffc83836115fb565b90505b92915050565b60035481565b60066020526000908152604090205460ff1681565b600054600160a060020a0316331461103757600080fd5b600160a060020a038116600081815260066020908152604091829020805460ff19169055815192835290517fd7e9ec6e6ecd65492dce6bf513cd6867560d49544421d0783ddf06e76c24470c9281900390910190a150565b60001981565b600054600160a060020a031633146110ac57600080fd5b600160a060020a038116156110e4576000805473ffffffffffffffffffffffffffffffffffffffff1916600160a060020a0383161790555b50565b60008054600160a060020a031633146110ff57600080fd5b600160a060020a03821660009081526006602052604090205460ff16151561112657600080fd5b61112f82610ab6565b600160a060020a0383166000818152600260209081526040808320929092556001805485900390558151928352820183905280519293507f61e6e66b0d6339b2980aecc6ccc0039736791f0ccde9ed512e789a7fbdd698c692918290030190a15050565b604060443610156111a357600080fd5b81158015906111d45750336000908152600560209081526040808320600160a060020a038716845290915290205415155b156111de57600080fd5b336000818152600560209081526040808320600160a060020a03881680855290835292819020869055805186815290519293927f8c5be1e5ebec7d5bd14f71427d1e84f3dd0314c0f7b2291e5b200ac8c7c3b925929181900390910190a3505050565b600080806060606436101561125557600080fd5b600160a060020a03871660009081526005602090815260408083203384529091529020546003549094506112a4906127109061129890889063ffffffff6115c516565b9063ffffffff61162616565b92506004548311156112b65760045492505b6000198410156112f5576112d0848663ffffffff61163d16565b600160a060020a03881660009081526005602090815260408083203384529091529020555b611305858463ffffffff61163d16565b600160a060020a038816600090815260026020526040902054909250611331908663ffffffff61163d16565b600160a060020a038089166000908152600260205260408082209390935590881681522054611366908363ffffffff61164f16565b600160a060020a0387166000908152600260205260408120919091558311156113fb5760008054600160a060020a03168152600260205260409020546113b2908463ffffffff61164f16565b60008054600160a060020a0390811682526002602090815260408084209490945591548351878152935190821693918b169260008051602061165f833981519152928290030190a35b85600160a060020a031687600160a060020a031660008051602061165f833981519152846040518082815260200191505060405180910390a350505050505050565b600160a060020a031660009081526002602052604090205490565b6000806040604436101561146b57600080fd5b611486612710611298600354876115c590919063ffffffff16565b92506004548311156114985760045492505b6114a8848463ffffffff61163d16565b336000908152600260205260409020549092506114cb908563ffffffff61163d16565b3360009081526002602052604080822092909255600160a060020a038716815220546114fd908363ffffffff61164f16565b600160a060020a0386166000908152600260205260408120919091558311156115905760008054600160a060020a0316815260026020526040902054611549908463ffffffff61164f16565b60008054600160a060020a03908116825260026020908152604080842094909455915483518781529351911692339260008051602061165f83398151915292918290030190a35b604080518381529051600160a060020a03871691339160008051602061165f8339815191529181900360200190a35050505050565b6000808315156115d857600091506115f4565b508282028284828115156115e857fe5b04146115f057fe5b8091505b5092915050565b600160a060020a03918216600090815260056020908152604080832093909416825291909152205490565b600080828481151561163457fe5b04949350505050565b60008282111561164957fe5b50900390565b6000828201838110156115f057fe00ddf252ad1be2c89b69c2b068fc378daa952ba7f163c4a11628f55a4df523b3efa165627a7a72305820f32ddc4d4f9686309781eb52456a3ff6050bdc3bc15175560a936e37d7c0e6d30029",
					"opcodes": "PUSH1 0x80 PUSH1 0x40 MSTORE PUSH1 0x0 DUP1 SLOAD PUSH1 0xA0 PUSH1 0x2 EXP PUSH1 0xFF MUL NOT AND DUP2 SSTORE PUSH1 0x3 DUP2 SWAP1 SSTORE PUSH1 0x4 SSTORE CALLVALUE DUP1 ISZERO PUSH3 0x29 JUMPI PUSH1 0x0 DUP1 REVERT JUMPDEST POP PUSH1 0x40 MLOAD PUSH3 0x1832 CODESIZE SUB DUP1 PUSH3 0x1832 DUP4 CODECOPY DUP2 ADD PUSH1 0x40 SWAP1 DUP2 MSTORE DUP2 MLOAD PUSH1 0x20 DUP1 DUP5 ADD MLOAD SWAP3 DUP5 ADD MLOAD PUSH1 0x60 DUP6 ADD MLOAD PUSH1 0x0 DUP1 SLOAD PUSH1 0x1 PUSH1 0xA0 PUSH1 0x2 EXP SUB NOT AND CALLER OR SWAP1 SSTORE PUSH1 0x1 DUP5 SWAP1 SSTORE SWAP4 DUP6 ADD DUP1 MLOAD SWAP4 SWAP6 SWAP1 SWAP5 SWAP2 ADD SWAP3 SWAP1 SWAP2 PUSH3 0x88 SWAP2 PUSH1 0x7 SWAP2 DUP7 ADD SWAP1 PUSH3 0xD3 JUMP JUMPDEST POP DUP2 MLOAD PUSH3 0x9E SWAP1 PUSH1 0x8 SWAP1 PUSH1 0x20 DUP6 ADD SWAP1 PUSH3 0xD3 JUMP JUMPDEST POP PUSH1 0x9 SSTORE POP POP PUSH1 0x0 DUP1 SLOAD PUSH1 0x1 PUSH1 0xA0 PUSH1 0x2 EXP SUB AND DUP2 MSTORE PUSH1 0x2 PUSH1 0x20 MSTORE PUSH1 0x40 SWAP1 KECCAK256 SSTORE PUSH1 0xA DUP1 SLOAD PUSH1 0xA0 PUSH1 0x2 EXP PUSH1 0xFF MUL NOT AND SWAP1 SSTORE PUSH3 0x178 JUMP JUMPDEST DUP3 DUP1 SLOAD PUSH1 0x1 DUP2 PUSH1 0x1 AND ISZERO PUSH2 0x100 MUL SUB AND PUSH1 0x2 SWAP1 DIV SWAP1 PUSH1 0x0 MSTORE PUSH1 0x20 PUSH1 0x0 KECCAK256 SWAP1 PUSH1 0x1F ADD PUSH1 0x20 SWAP1 DIV DUP2 ADD SWAP3 DUP3 PUSH1 0x1F LT PUSH3 0x116 JUMPI DUP1 MLOAD PUSH1 0xFF NOT AND DUP4 DUP1 ADD OR DUP6 SSTORE PUSH3 0x146 JUMP JUMPDEST DUP3 DUP1 ADD PUSH1 0x1 ADD DUP6 SSTORE DUP3 ISZERO PUSH3 0x146 JUMPI SWAP2 DUP3 ADD JUMPDEST DUP3 DUP2 GT ISZERO PUSH3 0x146 JUMPI DUP3 MLOAD DUP3 SSTORE SWAP2 PUSH1 0x20 ADD SWAP2 SWAP1 PUSH1 0x1 ADD SWAP1 PUSH3 0x129 JUMP JUMPDEST POP PUSH3 0x154 SWAP3 SWAP2 POP PUSH3 0x158 JUMP JUMPDEST POP SWAP1 JUMP JUMPDEST PUSH3 0x175 SWAP2 SWAP1 JUMPDEST DUP1 DUP3 GT ISZERO PUSH3 0x154 JUMPI PUSH1 0x0 DUP2 SSTORE PUSH1 0x1 ADD PUSH3 0x15F JUMP JUMPDEST SWAP1 JUMP JUMPDEST PUSH2 0x16AA DUP1 PUSH3 0x188 PUSH1 0x0 CODECOPY PUSH1 0x0 RETURN STOP PUSH1 0x80 PUSH1 0x40 MSTORE PUSH1 0x4 CALLDATASIZE LT PUSH2 0x195 JUMPI PUSH4 0xFFFFFFFF PUSH29 0x100000000000000000000000000000000000000000000000000000000 PUSH1 0x0 CALLDATALOAD DIV AND PUSH4 0x6FDDE03 DUP2 EQ PUSH2 0x19A JUMPI DUP1 PUSH4 0x753C30C EQ PUSH2 0x224 JUMPI DUP1 PUSH4 0x95EA7B3 EQ PUSH2 0x247 JUMPI DUP1 PUSH4 0xE136B19 EQ PUSH2 0x26B JUMPI DUP1 PUSH4 0xECB93C0 EQ PUSH2 0x294 JUMPI DUP1 PUSH4 0x18160DDD EQ PUSH2 0x2B5 JUMPI DUP1 PUSH4 0x23B872DD EQ PUSH2 0x2DC JUMPI DUP1 PUSH4 0x26976E3F EQ PUSH2 0x306 JUMPI DUP1 PUSH4 0x27E235E3 EQ PUSH2 0x337 JUMPI DUP1 PUSH4 0x313CE567 EQ PUSH2 0x358 JUMPI DUP1 PUSH4 0x35390714 EQ PUSH2 0x36D JUMPI DUP1 PUSH4 0x3EAAF86B EQ PUSH2 0x382 JUMPI DUP1 PUSH4 0x3F4BA83A EQ PUSH2 0x397 JUMPI DUP1 PUSH4 0x59BF1ABE EQ PUSH2 0x3AC JUMPI DUP1 PUSH4 0x5C658165 EQ PUSH2 0x3CD JUMPI DUP1 PUSH4 0x5C975ABB EQ PUSH2 0x3F4 JUMPI DUP1 PUSH4 0x70A08231 EQ PUSH2 0x409 JUMPI DUP1 PUSH4 0x8456CB59 EQ PUSH2 0x42A JUMPI DUP1 PUSH4 0x893D20E8 EQ PUSH2 0x43F JUMPI DUP1 PUSH4 0x8DA5CB5B EQ PUSH2 0x454 JUMPI DUP1 PUSH4 0x95D89B41 EQ PUSH2 0x469 JUMPI DUP1 PUSH4 0xA9059CBB EQ PUSH2 0x47E JUMPI DUP1 PUSH4 0xC0324C77 EQ PUSH2 0x4A2 JUMPI DUP1 PUSH4 0xCC872B66 EQ PUSH2 0x4BD JUMPI DUP1 PUSH4 0xDB006A75 EQ PUSH2 0x4D5 JUMPI DUP1 PUSH4 0xDD62ED3E EQ PUSH2 0x4ED JUMPI DUP1 PUSH4 0xDD644F72 EQ PUSH2 0x514 JUMPI DUP1 PUSH4 0xE47D6060 EQ PUSH2 0x529 JUMPI DUP1 PUSH4 0xE4997DC5 EQ PUSH2 0x54A JUMPI DUP1 PUSH4 0xE5B5019A EQ PUSH2 0x56B JUMPI DUP1 PUSH4 0xF2FDE38B EQ PUSH2 0x580 JUMPI DUP1 PUSH4 0xF3BDC228 EQ PUSH2 0x5A1 JUMPI JUMPDEST PUSH1 0x0 DUP1 REVERT JUMPDEST CALLVALUE DUP1 ISZERO PUSH2 0x1A6 JUMPI PUSH1 0x0 DUP1 REVERT JUMPDEST POP PUSH2 0x1AF PUSH2 0x5C2 JUMP JUMPDEST PUSH1 0x40 DUP1 MLOAD PUSH1 0x20 DUP1 DUP3 MSTORE DUP4 MLOAD DUP2 DUP4 ADD MSTORE DUP4 MLOAD SWAP2 SWAP3 DUP4 SWAP3 SWAP1 DUP4 ADD SWAP2 DUP6 ADD SWAP1 DUP1 DUP4 DUP4 PUSH1 0x0 JUMPDEST DUP4 DUP2 LT ISZERO PUSH2 0x1E9 JUMPI DUP2 DUP2 ADD MLOAD DUP4 DUP3 ADD MSTORE PUSH1 0x20 ADD PUSH2 0x1D1 JUMP JUMPDEST POP POP POP POP SWAP1 POP SWAP1 DUP2 ADD SWAP1 PUSH1 0x1F AND DUP1 ISZERO PUSH2 0x216 JUMPI DUP1 DUP3 SUB DUP1 MLOAD PUSH1 0x1 DUP4 PUSH1 0x20 SUB PUSH2 0x100 EXP SUB NOT AND DUP2 MSTORE PUSH1 0x20 ADD SWAP2 POP JUMPDEST POP SWAP3 POP POP POP PUSH1 0x40 MLOAD DUP1 SWAP2 SUB SWAP1 RETURN JUMPDEST CALLVALUE DUP1 ISZERO PUSH2 0x230 JUMPI PUSH1 0x0 DUP1 REVERT JUMPDEST POP PUSH2 0x245 PUSH1 0x1 PUSH1 0xA0 PUSH1 0x2 EXP SUB PUSH1 0x4 CALLDATALOAD AND PUSH2 0x650 JUMP JUMPDEST STOP JUMPDEST CALLVALUE DUP1 ISZERO PUSH2 0x253 JUMPI PUSH1 0x0 DUP1 REVERT JUMPDEST POP PUSH2 0x245 PUSH1 0x1 PUSH1 0xA0 PUSH1 0x2 EXP SUB PUSH1 0x4 CALLDATALOAD AND PUSH1 0x24 CALLDATALOAD PUSH2 0x6E8 JUMP JUMPDEST CALLVALUE DUP1 ISZERO PUSH2 0x277 JUMPI PUSH1 0x0 DUP1 REVERT JUMPDEST POP PUSH2 0x280 PUSH2 0x7AA JUMP JUMPDEST PUSH1 0x40 DUP1 MLOAD SWAP2 ISZERO ISZERO DUP3 MSTORE MLOAD SWAP1 DUP2 SWAP1 SUB PUSH1 0x20 ADD SWAP1 RETURN JUMPDEST CALLVALUE DUP1 ISZERO PUSH2 0x2A0 JUMPI PUSH1 0x0 DUP1 REVERT JUMPDEST POP PUSH2 0x245 PUSH1 0x1 PUSH1 0xA0 PUSH1 0x2 EXP SUB PUSH1 0x4 CALLDATALOAD AND PUSH2 0x7BA JUMP JUMPDEST CALLVALUE DUP1 ISZERO PUSH2 0x2C1 JUMPI PUSH1 0x0 DUP1 REVERT JUMPDEST POP PUSH2 0x2CA PUSH2 0x82C JUMP JUMPDEST PUSH1 0x40 DUP1 MLOAD SWAP2 DUP3 MSTORE MLOAD SWAP1 DUP2 SWAP1 SUB PUSH1 0x20 ADD SWAP1 RETURN JUMPDEST CALLVALUE DUP1 ISZERO PUSH2 0x2E8 JUMPI PUSH1 0x0 DUP1 REVERT JUMPDEST POP PUSH2 0x245 PUSH1 0x1 PUSH1 0xA0 PUSH1 0x2 EXP SUB PUSH1 0x4 CALLDATALOAD DUP2 AND SWAP1 PUSH1 0x24 CALLDATALOAD AND PUSH1 0x44 CALLDATALOAD PUSH2 0x8E8 JUMP JUMPDEST CALLVALUE DUP1 ISZERO PUSH2 0x312 JUMPI PUSH1 0x0 DUP1 REVERT JUMPDEST POP PUSH2 0x31B PUSH2 0x9BE JUMP JUMPDEST PUSH1 0x40 DUP1 MLOAD PUSH1 0x1 PUSH1 0xA0 PUSH1 0x2 EXP SUB SWAP1 SWAP3 AND DUP3 MSTORE MLOAD SWAP1 DUP2 SWAP1 SUB PUSH1 0x20 ADD SWAP1 RETURN JUMPDEST CALLVALUE DUP1 ISZERO PUSH2 0x343 JUMPI PUSH1 0x0 DUP1 REVERT JUMPDEST POP PUSH2 0x2CA PUSH1 0x1 PUSH1 0xA0 PUSH1 0x2 EXP SUB PUSH1 0x4 CALLDATALOAD AND PUSH2 0x9CD JUMP JUMPDEST CALLVALUE DUP1 ISZERO PUSH2 0x364 JUMPI PUSH1 0x0 DUP1 REVERT JUMPDEST POP PUSH2 0x2CA PUSH2 0x9DF JUMP JUMPDEST CALLVALUE DUP1 ISZERO PUSH2 0x379 JUMPI PUSH1 0x0 DUP1 REVERT JUMPDEST POP PUSH2 0x2CA PUSH2 0x9E5 JUMP JUMPDEST CALLVALUE DUP1 ISZERO PUSH2 0x38E JUMPI PUSH1 0x0 DUP1 REVERT JUMPDEST POP PUSH2 0x2CA PUSH2 0x9EB JUMP JUMPDEST CALLVALUE DUP1 ISZERO PUSH2 0x3A3 JUMPI PUSH1 0x0 DUP1 REVERT JUMPDEST POP PUSH2 0x245 PUSH2 0x9F1 JUMP JUMPDEST CALLVALUE DUP1 ISZERO PUSH2 0x3B8 JUMPI PUSH1 0x0 DUP1 REVERT JUMPDEST POP PUSH2 0x280 PUSH1 0x1 PUSH1 0xA0 PUSH1 0x2 EXP SUB PUSH1 0x4 CALLDATALOAD AND PUSH2 0xA67 JUMP JUMPDEST CALLVALUE DUP1 ISZERO PUSH2 0x3D9 JUMPI PUSH1 0x0 DUP1 REVERT JUMPDEST POP PUSH2 0x2CA PUSH1 0x1 PUSH1 0xA0 PUSH1 0x2 EXP SUB PUSH1 0x4 CALLDATALOAD DUP2 AND SWAP1 PUSH1 0x24 CALLDATALOAD AND PUSH2 0xA89 JUMP JUMPDEST CALLVALUE DUP1 ISZERO PUSH2 0x400 JUMPI PUSH1 0x0 DUP1 REVERT JUMPDEST POP PUSH2 0x280 PUSH2 0xAA6 JUMP JUMPDEST CALLVALUE DUP1 ISZERO PUSH2 0x415 JUMPI PUSH1 0x0 DUP1 REVERT JUMPDEST POP PUSH2 0x2CA PUSH1 0x1 PUSH1 0xA0 PUSH1 0x2 EXP SUB PUSH1 0x4 CALLDATALOAD AND PUSH2 0xAB6 JUMP JUMPDEST CALLVALUE DUP1 ISZERO PUSH2 0x436 JUMPI PUSH1 0x0 DUP1 REVERT JUMPDEST POP PUSH2 0x245 PUSH2 0xB76 JUMP JUMPDEST CALLVALUE DUP1 ISZERO PUSH2 0x44B JUMPI PUSH1 0x0 DUP1 REVERT JUMPDEST POP PUSH2 0x31B PUSH2 0xBF1 JUMP JUMPDEST CALLVALUE DUP1 ISZERO PUSH2 0x460 JUMPI PUSH1 0x0 DUP1 REVERT JUMPDEST POP PUSH2 0x31B PUSH2 0xC00 JUMP JUMPDEST CALLVALUE DUP1 ISZERO PUSH2 0x475 JUMPI PUSH1 0x0 DUP1 REVERT JUMPDEST POP PUSH2 0x1AF PUSH2 0xC0F JUMP JUMPDEST CALLVALUE DUP1 ISZERO PUSH2 0x48A JUMPI PUSH1 0x0 DUP1 REVERT JUMPDEST POP PUSH2 0x245 PUSH1 0x1 PUSH1 0xA0 PUSH1 0x2 EXP SUB PUSH1 0x4 CALLDATALOAD AND PUSH1 0x24 CALLDATALOAD PUSH2 0xC6A JUMP JUMPDEST CALLVALUE DUP1 ISZERO PUSH2 0x4AE JUMPI PUSH1 0x0 DUP1 REVERT JUMPDEST POP PUSH2 0x245 PUSH1 0x4 CALLDATALOAD PUSH1 0x24 CALLDATALOAD PUSH2 0xD4F JUMP JUMPDEST CALLVALUE DUP1 ISZERO PUSH2 0x4C9 JUMPI PUSH1 0x0 DUP1 REVERT JUMPDEST POP PUSH2 0x245 PUSH1 0x4 CALLDATALOAD PUSH2 0xDE4 JUMP JUMPDEST CALLVALUE DUP1 ISZERO PUSH2 0x4E1 JUMPI PUSH1 0x0 DUP1 REVERT JUMPDEST POP PUSH2 0x245 PUSH1 0x4 CALLDATALOAD PUSH2 0xE8F JUMP JUMPDEST CALLVALUE DUP1 ISZERO PUSH2 0x4F9 JUMPI PUSH1 0x0 DUP1 REVERT JUMPDEST POP PUSH2 0x2CA PUSH1 0x1 PUSH1 0xA0 PUSH1 0x2 EXP SUB PUSH1 0x4 CALLDATALOAD DUP2 AND SWAP1 PUSH1 0x24 CALLDATALOAD AND PUSH2 0xF3A JUMP JUMPDEST CALLVALUE DUP1 ISZERO PUSH2 0x520 JUMPI PUSH1 0x0 DUP1 REVERT JUMPDEST POP PUSH2 0x2CA PUSH2 0x1005 JUMP JUMPDEST CALLVALUE DUP1 ISZERO PUSH2 0x535 JUMPI PUSH1 0x0 DUP1 REVERT JUMPDEST POP PUSH2 0x280 PUSH1 0x1 PUSH1 0xA0 PUSH1 0x2 EXP SUB PUSH1 0x4 CALLDATALOAD AND PUSH2 0x100B JUMP JUMPDEST CALLVALUE DUP1 ISZERO PUSH2 0x556 JUMPI PUSH1 0x0 DUP1 REVERT JUMPDEST POP PUSH2 0x245 PUSH1 0x1 PUSH1 0xA0 PUSH1 0x2 EXP SUB PUSH1 0x4 CALLDATALOAD AND PUSH2 0x1020 JUMP JUMPDEST CALLVALUE DUP1 ISZERO PUSH2 0x577 JUMPI PUSH1 0x0 DUP1 REVERT JUMPDEST POP PUSH2 0x2CA PUSH2 0x108F JUMP JUMPDEST CALLVALUE DUP1 ISZERO PUSH2 0x58C JUMPI PUSH1 0x0 DUP1 REVERT JUMPDEST POP PUSH2 0x245 PUSH1 0x1 PUSH1 0xA0 PUSH1 0x2 EXP SUB PUSH1 0x4 CALLDATALOAD AND PUSH2 0x1095 JUMP JUMPDEST CALLVALUE DUP1 ISZERO PUSH2 0x5AD JUMPI PUSH1 0x0 DUP1 REVERT JUMPDEST POP PUSH2 0x245 PUSH1 0x1 PUSH1 0xA0 PUSH1 0x2 EXP SUB PUSH1 0x4 CALLDATALOAD AND PUSH2 0x10E7 JUMP JUMPDEST PUSH1 0x7 DUP1 SLOAD PUSH1 0x40 DUP1 MLOAD PUSH1 0x20 PUSH1 0x2 PUSH1 0x1 DUP6 AND ISZERO PUSH2 0x100 MUL PUSH1 0x0 NOT ADD SWAP1 SWAP5 AND SWAP4 SWAP1 SWAP4 DIV PUSH1 0x1F DUP2 ADD DUP5 SWAP1 DIV DUP5 MUL DUP3 ADD DUP5 ADD SWAP1 SWAP3 MSTORE DUP2 DUP2 MSTORE SWAP3 SWAP2 DUP4 ADD DUP3 DUP3 DUP1 ISZERO PUSH2 0x648 JUMPI DUP1 PUSH1 0x1F LT PUSH2 0x61D JUMPI PUSH2 0x100 DUP1 DUP4 SLOAD DIV MUL DUP4 MSTORE SWAP2 PUSH1 0x20 ADD SWAP2 PUSH2 0x648 JUMP JUMPDEST DUP3 ADD SWAP2 SWAP1 PUSH1 0x0 MSTORE PUSH1 0x20 PUSH1 0x0 KECCAK256 SWAP1 JUMPDEST DUP2 SLOAD DUP2 MSTORE SWAP1 PUSH1 0x1 ADD SWAP1 PUSH1 0x20 ADD DUP1 DUP4 GT PUSH2 0x62B JUMPI DUP3 SWAP1 SUB PUSH1 0x1F AND DUP3 ADD SWAP2 JUMPDEST POP POP POP POP POP DUP2 JUMP JUMPDEST PUSH1 0x0 SLOAD PUSH1 0x1 PUSH1 0xA0 PUSH1 0x2 EXP SUB AND CALLER EQ PUSH2 0x667 JUMPI PUSH1 0x0 DUP1 REVERT JUMPDEST PUSH1 0xA DUP1 SLOAD PUSH1 0xA0 PUSH1 0x2 EXP PUSH21 0xFF0000000000000000000000000000000000000000 NOT SWAP1 SWAP2 AND OR PUSH20 0xFFFFFFFFFFFFFFFFFFFFFFFFFFFFFFFFFFFFFFFF NOT AND PUSH1 0x1 PUSH1 0xA0 PUSH1 0x2 EXP SUB DUP4 AND SWAP1 DUP2 OR SWAP1 SWAP2 SSTORE PUSH1 0x40 DUP1 MLOAD SWAP2 DUP3 MSTORE MLOAD PUSH32 0xCC358699805E9A8B7F77B522628C7CB9ABD07D9EFB86B6FB616AF1609036A99E SWAP2 PUSH1 0x20 SWAP1 DUP3 SWAP1 SUB ADD SWAP1 LOG1 POP JUMP JUMPDEST PUSH1 0x40 PUSH1 0x44 CALLDATASIZE LT ISZERO PUSH2 0x6F8 JUMPI PUSH1 0x0 DUP1 REVERT JUMPDEST PUSH1 0xA SLOAD PUSH1 0xA0 PUSH1 0x2 EXP SWAP1 DIV PUSH1 0xFF AND ISZERO PUSH2 0x79B JUMPI PUSH1 0xA SLOAD PUSH1 0x40 DUP1 MLOAD PUSH32 0xAEE92D3300000000000000000000000000000000000000000000000000000000 DUP2 MSTORE CALLER PUSH1 0x4 DUP3 ADD MSTORE PUSH1 0x1 PUSH1 0xA0 PUSH1 0x2 EXP SUB DUP7 DUP2 AND PUSH1 0x24 DUP4 ADD MSTORE PUSH1 0x44 DUP3 ADD DUP7 SWAP1 MSTORE SWAP2 MLOAD SWAP2 SWAP1 SWAP3 AND SWAP2 PUSH4 0xAEE92D33 SWAP2 PUSH1 0x64 DUP1 DUP4 ADD SWAP3 PUSH1 0x0 SWAP3 SWAP2 SWAP1 DUP3 SWAP1 SUB ADD DUP2 DUP4 DUP8 DUP1 EXTCODESIZE ISZERO DUP1 ISZERO PUSH2 0x77E JUMPI PUSH1 0x0 DUP1 REVERT JUMPDEST POP GAS CALL ISZERO DUP1 ISZERO PUSH2 0x792 JUMPI RETURNDATASIZE PUSH1 0x0 DUP1 RETURNDATACOPY RETURNDATASIZE PUSH1 0x0 REVERT JUMPDEST POP POP POP POP PUSH2 0x7A5 JUMP JUMPDEST PUSH2 0x7A5 DUP4 DUP4 PUSH2 0x1193 JUMP JUMPDEST POP POP POP JUMP JUMPDEST PUSH1 0xA SLOAD PUSH1 0xA0 PUSH1 0x2 EXP SWAP1 DIV PUSH1 0xFF AND DUP2 JUMP JUMPDEST PUSH1 0x0 SLOAD PUSH1 0x1 PUSH1 0xA0 PUSH1 0x2 EXP SUB AND CALLER EQ PUSH2 0x7D1 JUMPI PUSH1 0x0 DUP1 REVERT JUMPDEST PUSH1 0x1 PUSH1 0xA0 PUSH1 0x2 EXP SUB DUP2 AND PUSH1 0x0 DUP2 DUP2 MSTORE PUSH1 0x6 PUSH1 0x20 SWAP1 DUP2 MSTORE PUSH1 0x40 SWAP2 DUP3 SWAP1 KECCAK256 DUP1 SLOAD PUSH1 0xFF NOT AND PUSH1 0x1 OR SWAP1 SSTORE DUP2 MLOAD SWAP3 DUP4 MSTORE SWAP1 MLOAD PUSH32 0x42E160154868087D6BFDC0CA23D96A1C1CFA32F1B72BA9BA27B69B98A0D819DC SWAP3 DUP2 SWAP1 SUB SWAP1 SWAP2 ADD SWAP1 LOG1 POP JUMP JUMPDEST PUSH1 0xA SLOAD PUSH1 0x0 SWAP1 PUSH1 0xA0 PUSH1 0x2 EXP SWAP1 DIV PUSH1 0xFF AND ISZERO PUSH2 0x8E0 JUMPI PUSH1 0xA PUSH1 0x0 SWAP1 SLOAD SWAP1 PUSH2 0x100 EXP SWAP1 DIV PUSH1 0x1 PUSH1 0xA0 PUSH1 0x2 EXP SUB AND PUSH1 0x1 PUSH1 0xA0 PUSH1 0x2 EXP SUB AND PUSH4 0x18160DDD PUSH1 0x40 MLOAD DUP2 PUSH4 0xFFFFFFFF AND PUSH29 0x100000000000000000000000000000000000000000000000000000000 MUL DUP2 MSTORE PUSH1 0x4 ADD PUSH1 0x20 PUSH1 0x40 MLOAD DUP1 DUP4 SUB DUP2 PUSH1 0x0 DUP8 DUP1 EXTCODESIZE ISZERO DUP1 ISZERO PUSH2 0x8AD JUMPI PUSH1 0x0 DUP1 REVERT JUMPDEST POP GAS CALL ISZERO DUP1 ISZERO PUSH2 0x8C1 JUMPI RETURNDATASIZE PUSH1 0x0 DUP1 RETURNDATACOPY RETURNDATASIZE PUSH1 0x0 REVERT JUMPDEST POP POP POP POP PUSH1 0x40 MLOAD RETURNDATASIZE PUSH1 0x20 DUP2 LT ISZERO PUSH2 0x8D7 JUMPI PUSH1 0x0 DUP1 REVERT JUMPDEST POP MLOAD SWAP1 POP PUSH2 0x8E5 JUMP JUMPDEST POP PUSH1 0x1 SLOAD JUMPDEST SWAP1 JUMP JUMPDEST PUSH1 0x0 SLOAD PUSH1 0xA0 PUSH1 0x2 EXP SWAP1 DIV PUSH1 0xFF AND ISZERO PUSH2 0x8FF JUMPI PUSH1 0x0 DUP1 REVERT JUMPDEST PUSH1 0x1 PUSH1 0xA0 PUSH1 0x2 EXP SUB DUP4 AND PUSH1 0x0 SWAP1 DUP2 MSTORE PUSH1 0x6 PUSH1 0x20 MSTORE PUSH1 0x40 SWAP1 KECCAK256 SLOAD PUSH1 0xFF AND ISZERO PUSH2 0x925 JUMPI PUSH1 0x0 DUP1 REVERT JUMPDEST PUSH1 0xA SLOAD PUSH1 0xA0 PUSH1 0x2 EXP SWAP1 DIV PUSH1 0xFF AND ISZERO PUSH2 0x9B3 JUMPI PUSH1 0xA SLOAD PUSH1 0x40 DUP1 MLOAD PUSH32 0x8B477ADB00000000000000000000000000000000000000000000000000000000 DUP2 MSTORE CALLER PUSH1 0x4 DUP3 ADD MSTORE PUSH1 0x1 PUSH1 0xA0 PUSH1 0x2 EXP SUB DUP7 DUP2 AND PUSH1 0x24 DUP4 ADD MSTORE DUP6 DUP2 AND PUSH1 0x44 DUP4 ADD MSTORE PUSH1 0x64 DUP3 ADD DUP6 SWAP1 MSTORE SWAP2 MLOAD SWAP2 SWAP1 SWAP3 AND SWAP2 PUSH4 0x8B477ADB SWAP2 PUSH1 0x84 DUP1 DUP4 ADD SWAP3 PUSH1 0x0 SWAP3 SWAP2 SWAP1 DUP3 SWAP1 SUB ADD DUP2 DUP4 DUP8 DUP1 EXTCODESIZE ISZERO DUP1 ISZERO PUSH2 0x77E JUMPI PUSH1 0x0 DUP1 REVERT JUMPDEST PUSH2 0x7A5 DUP4 DUP4 DUP4 PUSH2 0x1241 JUMP JUMPDEST PUSH1 0xA SLOAD PUSH1 0x1 PUSH1 0xA0 PUSH1 0x2 EXP SUB AND DUP2 JUMP JUMPDEST PUSH1 0x2 PUSH1 0x20 MSTORE PUSH1 0x0 SWAP1 DUP2 MSTORE PUSH1 0x40 SWAP1 KECCAK256 SLOAD DUP2 JUMP JUMPDEST PUSH1 0x9 SLOAD DUP2 JUMP JUMPDEST PUSH1 0x4 SLOAD DUP2 JUMP JUMPDEST PUSH1 0x1 SLOAD DUP2 JUMP JUMPDEST PUSH1 0x0 SLOAD PUSH1 0x1 PUSH1 0xA0 PUSH1 0x2 EXP SUB AND CALLER EQ PUSH2 0xA08 JUMPI PUSH1 0x0 DUP1 REVERT JUMPDEST PUSH1 0x0 SLOAD PUSH1 0xA0 PUSH1 0x2 EXP SWAP1 DIV PUSH1 0xFF AND ISZERO ISZERO PUSH2 0xA20 JUMPI PUSH1 0x0 DUP1 REVERT JUMPDEST PUSH1 0x0 DUP1 SLOAD PUSH21 0xFF0000000000000000000000000000000000000000 NOT AND DUP2 SSTORE PUSH1 0x40 MLOAD PUSH32 0x7805862F689E2F13DF9F062FF482AD3AD112ACA9E0847911ED832E158C525B33 SWAP2 SWAP1 LOG1 JUMP JUMPDEST PUSH1 0x1 PUSH1 0xA0 PUSH1 0x2 EXP SUB DUP2 AND PUSH1 0x0 SWAP1 DUP2 MSTORE PUSH1 0x6 PUSH1 0x20 MSTORE PUSH1 0x40 SWAP1 KECCAK256 SLOAD PUSH1 0xFF AND JUMPDEST SWAP2 SWAP1 POP JUMP JUMPDEST PUSH1 0x5 PUSH1 0x20 SWAP1 DUP2 MSTORE PUSH1 0x0 SWAP3 DUP4 MSTORE PUSH1 0x40 DUP1 DUP5 KECCAK256 SWAP1 SWAP2 MSTORE SWAP1 DUP3 MSTORE SWAP1 KECCAK256 SLOAD DUP2 JUMP JUMPDEST PUSH1 0x0 SLOAD PUSH1 0xA0 PUSH1 0x2 EXP SWAP1 DIV PUSH1 0xFF AND DUP2 JUMP JUMPDEST PUSH1 0xA SLOAD PUSH1 0x0 SWAP1 PUSH1 0xA0 PUSH1 0x2 EXP SWAP1 DIV PUSH1 0xFF AND ISZERO PUSH2 0xB66 JUMPI PUSH1 0xA SLOAD PUSH1 0x40 DUP1 MLOAD PUSH32 0x70A0823100000000000000000000000000000000000000000000000000000000 DUP2 MSTORE PUSH1 0x1 PUSH1 0xA0 PUSH1 0x2 EXP SUB DUP6 DUP2 AND PUSH1 0x4 DUP4 ADD MSTORE SWAP2 MLOAD SWAP2 SWAP1 SWAP3 AND SWAP2 PUSH4 0x70A08231 SWAP2 PUSH1 0x24 DUP1 DUP4 ADD SWAP3 PUSH1 0x20 SWAP3 SWAP2 SWAP1 DUP3 SWAP1 SUB ADD DUP2 PUSH1 0x0 DUP8 DUP1 EXTCODESIZE ISZERO DUP1 ISZERO PUSH2 0xB33 JUMPI PUSH1 0x0 DUP1 REVERT JUMPDEST POP GAS CALL ISZERO DUP1 ISZERO PUSH2 0xB47 JUMPI RETURNDATASIZE PUSH1 0x0 DUP1 RETURNDATACOPY RETURNDATASIZE PUSH1 0x0 REVERT JUMPDEST POP POP POP POP PUSH1 0x40 MLOAD RETURNDATASIZE PUSH1 0x20 DUP2 LT ISZERO PUSH2 0xB5D JUMPI PUSH1 0x0 DUP1 REVERT JUMPDEST POP MLOAD SWAP1 POP PUSH2 0xA84 JUMP JUMPDEST PUSH2 0xB6F DUP3 PUSH2 0x143D JUMP JUMPDEST SWAP1 POP PUSH2 0xA84 JUMP JUMPDEST PUSH1 0x0 SLOAD PUSH1 0x1 PUSH1 0xA0 PUSH1 0x2 EXP SUB AND CALLER EQ PUSH2 0xB8D JUMPI PUSH1 0x0 DUP1 REVERT JUMPDEST PUSH1 0x0 SLOAD PUSH1 0xA0 PUSH1 0x2 EXP SWAP1 DIV PUSH1 0xFF AND ISZERO PUSH2 0xBA4 JUMPI PUSH1 0x0 DUP1 REVERT JUMPDEST PUSH1 0x0 DUP1 SLOAD PUSH21 0xFF0000000000000000000000000000000000000000 NOT AND PUSH1 0xA0 PUSH1 0x2 EXP OR DUP2 SSTORE PUSH1 0x40 MLOAD PUSH32 0x6985A02210A168E66602D3235CB6DB0E70F92B3BA4D376A33C0F3D9434BFF625 SWAP2 SWAP1 LOG1 JUMP JUMPDEST PUSH1 0x0 SLOAD PUSH1 0x1 PUSH1 0xA0 PUSH1 0x2 EXP SUB AND SWAP1 JUMP JUMPDEST PUSH1 0x0 SLOAD PUSH1 0x1 PUSH1 0xA0 PUSH1 0x2 EXP SUB AND DUP2 JUMP JUMPDEST PUSH1 0x8 DUP1 SLOAD PUSH1 0x40 DUP1 MLOAD PUSH1 0x20 PUSH1 0x2 PUSH1 0x1 DUP6 AND ISZERO PUSH2 0x100 MUL PUSH1 0x0 NOT ADD SWAP1 SWAP5 AND SWAP4 SWAP1 SWAP4 DIV PUSH1 0x1F DUP2 ADD DUP5 SWAP1 DIV DUP5 MUL DUP3 ADD DUP5 ADD SWAP1 SWAP3 MSTORE DUP2 DUP2 MSTORE SWAP3 SWAP2 DUP4 ADD DUP3 DUP3 DUP1 ISZERO PUSH2 0x648 JUMPI DUP1 PUSH1 0x1F LT PUSH2 0x61D JUMPI PUSH2 0x100 DUP1 DUP4 SLOAD DIV MUL DUP4 MSTORE SWAP2 PUSH1 0x20 ADD SWAP2 PUSH2 0x648 JUMP JUMPDEST PUSH1 0x0 SLOAD PUSH1 0xA0 PUSH1 0x2 EXP SWAP1 DIV PUSH1 0xFF AND ISZERO PUSH2 0xC81 JUMPI PUSH1 0x0 DUP1 REVERT JUMPDEST CALLER PUSH1 0x0 SWAP1 DUP2 MSTORE PUSH1 0x6 PUSH1 0x20 MSTORE PUSH1 0x40 SWAP1 KECCAK256 SLOAD PUSH1 0xFF AND ISZERO PUSH2 0xC9E JUMPI PUSH1 0x0 DUP1 REVERT JUMPDEST PUSH1 0xA SLOAD PUSH1 0xA0 PUSH1 0x2 EXP SWAP1 DIV PUSH1 0xFF AND ISZERO PUSH2 0xD41 JUMPI PUSH1 0xA SLOAD PUSH1 0x40 DUP1 MLOAD PUSH32 0x6E18980A00000000000000000000000000000000000000000000000000000000 DUP2 MSTORE CALLER PUSH1 0x4 DUP3 ADD MSTORE PUSH1 0x1 PUSH1 0xA0 PUSH1 0x2 EXP SUB DUP6 DUP2 AND PUSH1 0x24 DUP4 ADD MSTORE PUSH1 0x44 DUP3 ADD DUP6 SWAP1 MSTORE SWAP2 MLOAD SWAP2 SWAP1 SWAP3 AND SWAP2 PUSH4 0x6E18980A SWAP2 PUSH1 0x64 DUP1 DUP4 ADD SWAP3 PUSH1 0x0 SWAP3 SWAP2 SWAP1 DUP3 SWAP1 SUB ADD DUP2 DUP4 DUP8 DUP1 EXTCODESIZE ISZERO DUP1 ISZERO PUSH2 0xD24 JUMPI PUSH1 0x0 DUP1 REVERT JUMPDEST POP GAS CALL ISZERO DUP1 ISZERO PUSH2 0xD38 JUMPI RETURNDATASIZE PUSH1 0x0 DUP1 RETURNDATACOPY RETURNDATASIZE PUSH1 0x0 REVERT JUMPDEST POP POP POP POP PUSH2 0xD4B JUMP JUMPDEST PUSH2 0xD4B DUP3 DUP3 PUSH2 0x1458 JUMP JUMPDEST POP POP JUMP JUMPDEST PUSH1 0x0 SLOAD PUSH1 0x1 PUSH1 0xA0 PUSH1 0x2 EXP SUB AND CALLER EQ PUSH2 0xD66 JUMPI PUSH1 0x0 DUP1 REVERT JUMPDEST PUSH1 0x14 DUP3 LT PUSH2 0xD73 JUMPI PUSH1 0x0 DUP1 REVERT JUMPDEST PUSH1 0x32 DUP2 LT PUSH2 0xD80 JUMPI PUSH1 0x0 DUP1 REVERT JUMPDEST PUSH1 0x3 DUP3 SWAP1 SSTORE PUSH1 0x9 SLOAD PUSH2 0xD9C SWAP1 DUP3 SWAP1 PUSH1 0xA EXP PUSH4 0xFFFFFFFF PUSH2 0x15C5 AND JUMP JUMPDEST PUSH1 0x4 DUP2 SWAP1 SSTORE PUSH1 0x3 SLOAD PUSH1 0x40 DUP1 MLOAD SWAP2 DUP3 MSTORE PUSH1 0x20 DUP3 ADD SWAP3 SWAP1 SWAP3 MSTORE DUP2 MLOAD PUSH32 0xB044A1E409EAC5C48E5AF22D4AF52670DD1A99059537A78B31B48C6500A6354E SWAP3 SWAP2 DUP2 SWAP1 SUB SWAP1 SWAP2 ADD SWAP1 LOG1 POP POP JUMP JUMPDEST PUSH1 0x0 SLOAD PUSH1 0x1 PUSH1 0xA0 PUSH1 0x2 EXP SUB AND CALLER EQ PUSH2 0xDFB JUMPI PUSH1 0x0 DUP1 REVERT JUMPDEST PUSH1 0x1 SLOAD DUP2 DUP2 ADD GT PUSH2 0xE0B JUMPI PUSH1 0x0 DUP1 REVERT JUMPDEST PUSH1 0x0 DUP1 SLOAD PUSH1 0x1 PUSH1 0xA0 PUSH1 0x2 EXP SUB AND DUP2 MSTORE PUSH1 0x2 PUSH1 0x20 MSTORE PUSH1 0x40 SWAP1 KECCAK256 SLOAD DUP2 DUP2 ADD GT PUSH2 0xE31 JUMPI PUSH1 0x0 DUP1 REVERT JUMPDEST PUSH1 0x0 DUP1 SLOAD PUSH1 0x1 PUSH1 0xA0 PUSH1 0x2 EXP SUB AND DUP2 MSTORE PUSH1 0x2 PUSH1 0x20 SWAP1 DUP2 MSTORE PUSH1 0x40 SWAP2 DUP3 SWAP1 KECCAK256 DUP1 SLOAD DUP5 ADD SWAP1 SSTORE PUSH1 0x1 DUP1 SLOAD DUP5 ADD SWAP1 SSTORE DUP2 MLOAD DUP4 DUP2 MSTORE SWAP2 MLOAD PUSH32 0xCB8241ADB0C3FDB35B70C24CE35C5EB0C17AF7431C99F827D44A445CA624176A SWAP3 DUP2 SWAP1 SUB SWAP1 SWAP2 ADD SWAP1 LOG1 POP JUMP JUMPDEST PUSH1 0x0 SLOAD PUSH1 0x1 PUSH1 0xA0 PUSH1 0x2 EXP SUB AND CALLER EQ PUSH2 0xEA6 JUMPI PUSH1 0x0 DUP1 REVERT JUMPDEST PUSH1 0x1 SLOAD DUP2 GT ISZERO PUSH2 0xEB5 JUMPI PUSH1 0x0 DUP1 REVERT JUMPDEST PUSH1 0x0 DUP1 SLOAD PUSH1 0x1 PUSH1 0xA0 PUSH1 0x2 EXP SUB AND DUP2 MSTORE PUSH1 0x2 PUSH1 0x20 MSTORE PUSH1 0x40 SWAP1 KECCAK256 SLOAD DUP2 GT ISZERO PUSH2 0xEDA JUMPI PUSH1 0x0 DUP1 REVERT JUMPDEST PUSH1 0x1 DUP1 SLOAD DUP3 SWAP1 SUB SWAP1 SSTORE PUSH1 0x0 DUP1 SLOAD PUSH1 0x1 PUSH1 0xA0 PUSH1 0x2 EXP SUB AND DUP2 MSTORE PUSH1 0x2 PUSH1 0x20 SWAP1 DUP2 MSTORE PUSH1 0x40 SWAP2 DUP3 SWAP1 KECCAK256 DUP1 SLOAD DUP5 SWAP1 SUB SWAP1 SSTORE DUP2 MLOAD DUP4 DUP2 MSTORE SWAP2 MLOAD PUSH32 0x702D5967F45F6513A38FFC42D6BA9BF230BD40E8F53B16363C7EB4FD2DEB9A44 SWAP3 DUP2 SWAP1 SUB SWAP1 SWAP2 ADD SWAP1 LOG1 POP JUMP JUMPDEST PUSH1 0xA SLOAD PUSH1 0x0 SWAP1 PUSH1 0xA0 PUSH1 0x2 EXP SWAP1 DIV PUSH1 0xFF AND ISZERO PUSH2 0xFF2 JUMPI PUSH1 0xA SLOAD PUSH1 0x40 DUP1 MLOAD PUSH32 0xDD62ED3E00000000000000000000000000000000000000000000000000000000 DUP2 MSTORE PUSH1 0x1 PUSH1 0xA0 PUSH1 0x2 EXP SUB DUP7 DUP2 AND PUSH1 0x4 DUP4 ADD MSTORE DUP6 DUP2 AND PUSH1 0x24 DUP4 ADD MSTORE SWAP2 MLOAD SWAP2 SWAP1 SWAP3 AND SWAP2 PUSH4 0xDD62ED3E SWAP2 PUSH1 0x44 DUP1 DUP4 ADD SWAP3 PUSH1 0x20 SWAP3 SWAP2 SWAP1 DUP3 SWAP1 SUB ADD DUP2 PUSH1 0x0 DUP8 DUP1 EXTCODESIZE ISZERO DUP1 ISZERO PUSH2 0xFBF JUMPI PUSH1 0x0 DUP1 REVERT JUMPDEST POP GAS CALL ISZERO DUP1 ISZERO PUSH2 0xFD3 JUMPI RETURNDATASIZE PUSH1 0x0 DUP1 RETURNDATACOPY RETURNDATASIZE PUSH1 0x0 REVERT JUMPDEST POP POP POP POP PUSH1 0x40 MLOAD RETURNDATASIZE PUSH1 0x20 DUP2 LT ISZERO PUSH2 0xFE9 JUMPI PUSH1 0x0 DUP1 REVERT JUMPDEST POP MLOAD SWAP1 POP PUSH2 0xFFF JUMP JUMPDEST PUSH2 0xFFC DUP4 DUP4 PUSH2 0x15FB JUMP JUMPDEST SWAP1 POP JUMPDEST SWAP3 SWAP2 POP POP JUMP JUMPDEST PUSH1 0x3 SLOAD DUP2 JUMP JUMPDEST PUSH1 0x6 PUSH1 0x20 MSTORE PUSH1 0x0 SWAP1 DUP2 MSTORE PUSH1 0x40 SWAP1 KECCAK256 SLOAD PUSH1 0xFF AND DUP2 JUMP JUMPDEST PUSH1 0x0 SLOAD PUSH1 0x1 PUSH1 0xA0 PUSH1 0x2 EXP SUB AND CALLER EQ PUSH2 0x1037 JUMPI PUSH1 0x0 DUP1 REVERT JUMPDEST PUSH1 0x1 PUSH1 0xA0 PUSH1 0x2 EXP SUB DUP2 AND PUSH1 0x0 DUP2 DUP2 MSTORE PUSH1 0x6 PUSH1 0x20 SWAP1 DUP2 MSTORE PUSH1 0x40 SWAP2 DUP3 SWAP1 KECCAK256 DUP1 SLOAD PUSH1 0xFF NOT AND SWAP1 SSTORE DUP2 MLOAD SWAP3 DUP4 MSTORE SWAP1 MLOAD PUSH32 0xD7E9EC6E6ECD65492DCE6BF513CD6867560D49544421D0783DDF06E76C24470C SWAP3 DUP2 SWAP1 SUB SWAP1 SWAP2 ADD SWAP1 LOG1 POP JUMP JUMPDEST PUSH1 0x0 NOT DUP2 JUMP JUMPDEST PUSH1 0x0 SLOAD PUSH1 0x1 PUSH1 0xA0 PUSH1 0x2 EXP SUB AND CALLER EQ PUSH2 0x10AC JUMPI PUSH1 0x0 DUP1 REVERT JUMPDEST PUSH1 0x1 PUSH1 0xA0 PUSH1 0x2 EXP SUB DUP2 AND ISZERO PUSH2 0x10E4 JUMPI PUSH1 0x0 DUP1 SLOAD PUSH20 0xFFFFFFFFFFFFFFFFFFFFFFFFFFFFFFFFFFFFFFFF NOT AND PUSH1 0x1 PUSH1 0xA0 PUSH1 0x2 EXP SUB DUP4 AND OR SWAP1 SSTORE JUMPDEST POP JUMP JUMPDEST PUSH1 0x0 DUP1 SLOAD PUSH1 0x1 PUSH1 0xA0 PUSH1 0x2 EXP SUB AND CALLER EQ PUSH2 0x10FF JUMPI PUSH1 0x0 DUP1 REVERT JUMPDEST PUSH1 0x1 PUSH1 0xA0 PUSH1 0x2 EXP SUB DUP3 AND PUSH1 0x0 SWAP1 DUP2 MSTORE PUSH1 0x6 PUSH1 0x20 MSTORE PUSH1 0x40 SWAP1 KECCAK256 SLOAD PUSH1 0xFF AND ISZERO ISZERO PUSH2 0x1126 JUMPI PUSH1 0x0 DUP1 REVERT JUMPDEST PUSH2 0x112F DUP3 PUSH2 0xAB6 JUMP JUMPDEST PUSH1 0x1 PUSH1 0xA0 PUSH1 0x2 EXP SUB DUP4 AND PUSH1 0x0 DUP2 DUP2 MSTORE PUSH1 0x2 PUSH1 0x20 SWAP1 DUP2 MSTORE PUSH1 0x40 DUP1 DUP4 KECCAK256 SWAP3 SWAP1 SWAP3 SSTORE PUSH1 0x1 DUP1 SLOAD DUP6 SWAP1 SUB SWAP1 SSTORE DUP2 MLOAD SWAP3 DUP4 MSTORE DUP3 ADD DUP4 SWAP1 MSTORE DUP1 MLOAD SWAP3 SWAP4 POP PUSH32 0x61E6E66B0D6339B2980AECC6CCC0039736791F0CCDE9ED512E789A7FBDD698C6 SWAP3 SWAP2 DUP3 SWAP1 SUB ADD SWAP1 LOG1 POP POP JUMP JUMPDEST PUSH1 0x40 PUSH1 0x44 CALLDATASIZE LT ISZERO PUSH2 0x11A3 JUMPI PUSH1 0x0 DUP1 REVERT JUMPDEST DUP2 ISZERO DUP1 ISZERO SWAP1 PUSH2 0x11D4 JUMPI POP CALLER PUSH1 0x0 SWAP1 DUP2 MSTORE PUSH1 0x5 PUSH1 0x20 SWAP1 DUP2 MSTORE PUSH1 0x40 DUP1 DUP4 KECCAK256 PUSH1 0x1 PUSH1 0xA0 PUSH1 0x2 EXP SUB DUP8 AND DUP5 MSTORE SWAP1 SWAP2 MSTORE SWAP1 KECCAK256 SLOAD ISZERO ISZERO JUMPDEST ISZERO PUSH2 0x11DE JUMPI PUSH1 0x0 DUP1 REVERT JUMPDEST CALLER PUSH1 0x0 DUP2 DUP2 MSTORE PUSH1 0x5 PUSH1 0x20 SWAP1 DUP2 MSTORE PUSH1 0x40 DUP1 DUP4 KECCAK256 PUSH1 0x1 PUSH1 0xA0 PUSH1 0x2 EXP SUB DUP9 AND DUP1 DUP6 MSTORE SWAP1 DUP4 MSTORE SWAP3 DUP2 SWAP1 KECCAK256 DUP7 SWAP1 SSTORE DUP1 MLOAD DUP7 DUP2 MSTORE SWAP1 MLOAD SWAP3 SWAP4 SWAP3 PUSH32 0x8C5BE1E5EBEC7D5BD14F71427D1E84F3DD0314C0F7B2291E5B200AC8C7C3B925 SWAP3 SWAP2 DUP2 SWAP1 SUB SWAP1 SWAP2 ADD SWAP1 LOG3 POP POP POP JUMP JUMPDEST PUSH1 0x0 DUP1 DUP1 PUSH1 0x60 PUSH1 0x64 CALLDATASIZE LT ISZERO PUSH2 0x1255 JUMPI PUSH1 0x0 DUP1 REVERT JUMPDEST PUSH1 0x1 PUSH1 0xA0 PUSH1 0x2 EXP SUB DUP8 AND PUSH1 0x0 SWAP1 DUP2 MSTORE PUSH1 0x5 PUSH1 0x20 SWAP1 DUP2 MSTORE PUSH1 0x40 DUP1 DUP4 KECCAK256 CALLER DUP5 MSTORE SWAP1 SWAP2 MSTORE SWAP1 KECCAK256 SLOAD PUSH1 0x3 SLOAD SWAP1 SWAP5 POP PUSH2 0x12A4 SWAP1 PUSH2 0x2710 SWAP1 PUSH2 0x1298 SWAP1 DUP9 SWAP1 PUSH4 0xFFFFFFFF PUSH2 0x15C5 AND JUMP JUMPDEST SWAP1 PUSH4 0xFFFFFFFF PUSH2 0x1626 AND JUMP JUMPDEST SWAP3 POP PUSH1 0x4 SLOAD DUP4 GT ISZERO PUSH2 0x12B6 JUMPI PUSH1 0x4 SLOAD SWAP3 POP JUMPDEST PUSH1 0x0 NOT DUP5 LT ISZERO PUSH2 0x12F5 JUMPI PUSH2 0x12D0 DUP5 DUP7 PUSH4 0xFFFFFFFF PUSH2 0x163D AND JUMP JUMPDEST PUSH1 0x1 PUSH1 0xA0 PUSH1 0x2 EXP SUB DUP9 AND PUSH1 0x0 SWAP1 DUP2 MSTORE PUSH1 0x5 PUSH1 0x20 SWAP1 DUP2 MSTORE PUSH1 0x40 DUP1 DUP4 KECCAK256 CALLER DUP5 MSTORE SWAP1 SWAP2 MSTORE SWAP1 KECCAK256 SSTORE JUMPDEST PUSH2 0x1305 DUP6 DUP5 PUSH4 0xFFFFFFFF PUSH2 0x163D AND JUMP JUMPDEST PUSH1 0x1 PUSH1 0xA0 PUSH1 0x2 EXP SUB DUP9 AND PUSH1 0x0 SWAP1 DUP2 MSTORE PUSH1 0x2 PUSH1 0x20 MSTORE PUSH1 0x40 SWAP1 KECCAK256 SLOAD SWAP1 SWAP3 POP PUSH2 0x1331 SWAP1 DUP7 PUSH4 0xFFFFFFFF PUSH2 0x163D AND JUMP JUMPDEST PUSH1 0x1 PUSH1 0xA0 PUSH1 0x2 EXP SUB DUP1 DUP10 AND PUSH1 0x0 SWAP1 DUP2 MSTORE PUSH1 0x2 PUSH1 0x20 MSTORE PUSH1 0x40 DUP1 DUP3 KECCAK256 SWAP4 SWAP1 SWAP4 SSTORE SWAP1 DUP9 AND DUP2 MSTORE KECCAK256 SLOAD PUSH2 0x1366 SWAP1 DUP4 PUSH4 0xFFFFFFFF PUSH2 0x164F AND JUMP JUMPDEST PUSH1 0x1 PUSH1 0xA0 PUSH1 0x2 EXP SUB DUP8 AND PUSH1 0x0 SWAP1 DUP2 MSTORE PUSH1 0x2 PUSH1 0x20 MSTORE PUSH1 0x40 DUP2 KECCAK256 SWAP2 SWAP1 SWAP2 SSTORE DUP4 GT ISZERO PUSH2 0x13FB JUMPI PUSH1 0x0 DUP1 SLOAD PUSH1 0x1 PUSH1 0xA0 PUSH1 0x2 EXP SUB AND DUP2 MSTORE PUSH1 0x2 PUSH1 0x20 MSTORE PUSH1 0x40 SWAP1 KECCAK256 SLOAD PUSH2 0x13B2 SWAP1 DUP5 PUSH4 0xFFFFFFFF PUSH2 0x164F AND JUMP JUMPDEST PUSH1 0x0 DUP1 SLOAD PUSH1 0x1 PUSH1 0xA0 PUSH1 0x2 EXP SUB SWAP1 DUP2 AND DUP3 MSTORE PUSH1 0x2 PUSH1 0x20 SWAP1 DUP2 MSTORE PUSH1 0x40 DUP1 DUP5 KECCAK256 SWAP5 SWAP1 SWAP5 SSTORE SWAP2 SLOAD DUP4 MLOAD DUP8 DUP2 MSTORE SWAP4 MLOAD SWAP1 DUP3 AND SWAP4 SWAP2 DUP12 AND SWAP3 PUSH1 0x0 DUP1 MLOAD PUSH1 0x20 PUSH2 0x165F DUP4 CODECOPY DUP2 MLOAD SWAP2 MSTORE SWAP3 DUP3 SWAP1 SUB ADD SWAP1 LOG3 JUMPDEST DUP6 PUSH1 0x1 PUSH1 0xA0 PUSH1 0x2 EXP SUB AND DUP8 PUSH1 0x1 PUSH1 0xA0 PUSH1 0x2 EXP SUB AND PUSH1 0x0 DUP1 MLOAD PUSH1 0x20 PUSH2 0x165F DUP4 CODECOPY DUP2 MLOAD SWAP2 MSTORE DUP5 PUSH1 0x40 MLOAD DUP1 DUP3 DUP2 MSTORE PUSH1 0x20 ADD SWAP2 POP POP PUSH1 0x40 MLOAD DUP1 SWAP2 SUB SWAP1 LOG3 POP POP POP POP POP POP POP JUMP JUMPDEST PUSH1 0x1 PUSH1 0xA0 PUSH1 0x2 EXP SUB AND PUSH1 0x0 SWAP1 DUP2 MSTORE PUSH1 0x2 PUSH1 0x20 MSTORE PUSH1 0x40 SWAP1 KECCAK256 SLOAD SWAP1 JUMP JUMPDEST PUSH1 0x0 DUP1 PUSH1 0x40 PUSH1 0x44 CALLDATASIZE LT ISZERO PUSH2 0x146B JUMPI PUSH1 0x0 DUP1 REVERT JUMPDEST PUSH2 0x1486 PUSH2 0x2710 PUSH2 0x1298 PUSH1 0x3 SLOAD DUP8 PUSH2 0x15C5 SWAP1 SWAP2 SWAP1 PUSH4 0xFFFFFFFF AND JUMP JUMPDEST SWAP3 POP PUSH1 0x4 SLOAD DUP4 GT ISZERO PUSH2 0x1498 JUMPI PUSH1 0x4 SLOAD SWAP3 POP JUMPDEST PUSH2 0x14A8 DUP5 DUP5 PUSH4 0xFFFFFFFF PUSH2 0x163D AND JUMP JUMPDEST CALLER PUSH1 0x0 SWAP1 DUP2 MSTORE PUSH1 0x2 PUSH1 0x20 MSTORE PUSH1 0x40 SWAP1 KECCAK256 SLOAD SWAP1 SWAP3 POP PUSH2 0x14CB SWAP1 DUP6 PUSH4 0xFFFFFFFF PUSH2 0x163D AND JUMP JUMPDEST CALLER PUSH1 0x0 SWAP1 DUP2 MSTORE PUSH1 0x2 PUSH1 0x20 MSTORE PUSH1 0x40 DUP1 DUP3 KECCAK256 SWAP3 SWAP1 SWAP3 SSTORE PUSH1 0x1 PUSH1 0xA0 PUSH1 0x2 EXP SUB DUP8 AND DUP2 MSTORE KECCAK256 SLOAD PUSH2 0x14FD SWAP1 DUP4 PUSH4 0xFFFFFFFF PUSH2 0x164F AND JUMP JUMPDEST PUSH1 0x1 PUSH1 0xA0 PUSH1 0x2 EXP SUB DUP7 AND PUSH1 0x0 SWAP1 DUP2 MSTORE PUSH1 0x2 PUSH1 0x20 MSTORE PUSH1 0x40 DUP2 KECCAK256 SWAP2 SWAP1 SWAP2 SSTORE DUP4 GT ISZERO PUSH2 0x1590 JUMPI PUSH1 0x0 DUP1 SLOAD PUSH1 0x1 PUSH1 0xA0 PUSH1 0x2 EXP SUB AND DUP2 MSTORE PUSH1 0x2 PUSH1 0x20 MSTORE PUSH1 0x40 SWAP1 KECCAK256 SLOAD PUSH2 0x1549 SWAP1 DUP5 PUSH4 0xFFFFFFFF PUSH2 0x164F AND JUMP JUMPDEST PUSH1 0x0 DUP1 SLOAD PUSH1 0x1 PUSH1 0xA0 PUSH1 0x2 EXP SUB SWAP1 DUP2 AND DUP3 MSTORE PUSH1 0x2 PUSH1 0x20 SWAP1 DUP2 MSTORE PUSH1 0x40 DUP1 DUP5 KECCAK256 SWAP5 SWAP1 SWAP5 SSTORE SWAP2 SLOAD DUP4 MLOAD DUP8 DUP2 MSTORE SWAP4 MLOAD SWAP2 AND SWAP3 CALLER SWAP3 PUSH1 0x0 DUP1 MLOAD PUSH1 0x20 PUSH2 0x165F DUP4 CODECOPY DUP2 MLOAD SWAP2 MSTORE SWAP3 SWAP2 DUP3 SWAP1 SUB ADD SWAP1 LOG3 JUMPDEST PUSH1 0x40 DUP1 MLOAD DUP4 DUP2 MSTORE SWAP1 MLOAD PUSH1 0x1 PUSH1 0xA0 PUSH1 0x2 EXP SUB DUP8 AND SWAP2 CALLER SWAP2 PUSH1 0x0 DUP1 MLOAD PUSH1 0x20 PUSH2 0x165F DUP4 CODECOPY DUP2 MLOAD SWAP2 MSTORE SWAP2 DUP2 SWAP1 SUB PUSH1 0x20 ADD SWAP1 LOG3 POP POP POP POP POP JUMP JUMPDEST PUSH1 0x0 DUP1 DUP4 ISZERO ISZERO PUSH2 0x15D8 JUMPI PUSH1 0x0 SWAP2 POP PUSH2 0x15F4 JUMP JUMPDEST POP DUP3 DUP3 MUL DUP3 DUP5 DUP3 DUP2 ISZERO ISZERO PUSH2 0x15E8 JUMPI INVALID JUMPDEST DIV EQ PUSH2 0x15F0 JUMPI INVALID JUMPDEST DUP1 SWAP2 POP JUMPDEST POP SWAP3 SWAP2 POP POP JUMP JUMPDEST PUSH1 0x1 PUSH1 0xA0 PUSH1 0x2 EXP SUB SWAP2 DUP3 AND PUSH1 0x0 SWAP1 DUP2 MSTORE PUSH1 0x5 PUSH1 0x20 SWAP1 DUP2 MSTORE PUSH1 0x40 DUP1 DUP4 KECCAK256 SWAP4 SWAP1 SWAP5 AND DUP3 MSTORE SWAP2 SWAP1 SWAP2 MSTORE KECCAK256 SLOAD SWAP1 JUMP JUMPDEST PUSH1 0x0 DUP1 DUP3 DUP5 DUP2 ISZERO ISZERO PUSH2 0x1634 JUMPI INVALID JUMPDEST DIV SWAP5 SWAP4 POP POP POP POP JUMP JUMPDEST PUSH1 0x0 DUP3 DUP3 GT ISZERO PUSH2 0x1649 JUMPI INVALID JUMPDEST POP SWAP1 SUB SWAP1 JUMP JUMPDEST PUSH1 0x0 DUP3 DUP3 ADD DUP4 DUP2 LT ISZERO PUSH2 0x15F0 JUMPI INVALID STOP 0xdd CALLCODE MSTORE 0xad SHL 0xe2 0xc8 SWAP12 PUSH10 0xC2B068FC378DAA952BA7 CALL PUSH4 0xC4A11628 0xf5 GAS 0x4d 0xf5 0x23 0xb3 0xef LOG1 PUSH6 0x627A7A723058 KECCAK256 RETURN 0x2d 0xdc 0x4d 0x4f SWAP7 DUP7 ADDRESS SWAP8 DUP2 0xeb MSTORE GASLIMIT PUSH11 0x3FF6050BDC3BC15175560A SWAP4 PUSH15 0x37D7C0E6D300290000000000000000 "
				},
				"gasEstimates": {
					"creation": {
						"codeDepositCost": "1160400",
						"executionCost": "infinite",
						"totalCost": "infinite"
					},
					"external": {
						"MAX_UINT()": "825",
						"_totalSupply()": "626",
						"addBlackList(address)": "22038",
						"allowance(address,address)": "infinite",
						"allowed(address,address)": "926",
						"approve(address,uint256)": "infinite",
						"balanceOf(address)": "infinite",
						"balances(address)": "707",
						"basisPointsRate()": "956",
						"decimals()": "582",
						"deprecate(address)": "21984",
						"deprecated()": "536",
						"destroyBlackFunds(address)": "infinite",
						"getBlackListStatus(address)": "913",
						"getOwner()": "933",
						"isBlackListed(address)": "1137",
						"issue(uint256)": "43583",
						"maximumFee()": "604",
						"name()": "infinite",
						"owner()": "955",
						"pause()": "22153",
						"paused()": "800",
						"redeem(uint256)": "43605",
						"removeBlackList(address)": "22560",
						"setParams(uint256,uint256)": "infinite",
						"symbol()": "infinite",
						"totalSupply()": "infinite",
						"transfer(address,uint256)": "infinite",
						"transferFrom(address,address,uint256)": "infinite",
						"transferOwnership(address)": "21564",
						"unpause()": "21977",
						"upgradedAddress()": "691"
					}
				},
				"methodIdentifiers": {
					"MAX_UINT()": "e5b5019a",
					"_totalSupply()": "3eaaf86b",
					"addBlackList(address)": "0ecb93c0",
					"allowance(address,address)": "dd62ed3e",
					"allowed(address,address)": "5c658165",
					"approve(address,uint256)": "095ea7b3",
					"balanceOf(address)": "70a08231",
					"balances(address)": "27e235e3",
					"basisPointsRate()": "dd644f72",
					"decimals()": "313ce567",
					"deprecate(address)": "0753c30c",
					"deprecated()": "0e136b19",
					"destroyBlackFunds(address)": "f3bdc228",
					"getBlackListStatus(address)": "59bf1abe",
					"getOwner()": "893d20e8",
					"isBlackListed(address)": "e47d6060",
					"issue(uint256)": "cc872b66",
					"maximumFee()": "35390714",
					"name()": "06fdde03",
					"owner()": "8da5cb5b",
					"pause()": "8456cb59",
					"paused()": "5c975abb",
					"redeem(uint256)": "db006a75",
					"removeBlackList(address)": "e4997dc5",
					"setParams(uint256,uint256)": "c0324c77",
					"symbol()": "95d89b41",
					"totalSupply()": "18160ddd",
					"transfer(address,uint256)": "a9059cbb",
					"transferFrom(address,address,uint256)": "23b872dd",
					"transferOwnership(address)": "f2fde38b",
					"unpause()": "3f4ba83a",
					"upgradedAddress()": "26976e3f"
				}
			},
			"userdoc": {
				"methods": {
					"getBlackListStatus(address)": {
						"notice": "//// Getters to allow the same blacklist to be used also by other contracts (including upgraded Tether) ///////"
					}
				}
			}
		}
	}
}